:100000000C9460050C94182B0C94E52A0C947D0537
:100010000C94A2270C947D050C947D050C94FA2871
:100020000C947D050C947D050C947D050C947D0548
:100030000C947D050C94B42D0C947D050C945F2DCF
:100040000C947D050C947D050C947D050C947D0528
:100050000C947D050F1F121F151F181F1B1F1E1F3D
:10006000211F241F271F2A1F2D1F301F331F361F3C
:10007000391F3C1F3F1F421F451F481F4B1F4E1F6C
:10008000511F541F571F5A1F5D1F601F631F661F9C
:10009000691F6C1F6F1F721F751F781F7B1F7E1FCC
:1000A000811F841F871F8A1F8D1F901F931F961FFC
:1000B000991F9C1F9F1FA21FA51FA81FAB1FAE1F2C
:1000C000B11FB41FB71FBA1FBD1FC01FC31FC61F5C
:1000D000C91FCC1FCF1FD21FD51FD81FDB1F41A0A8
:1000E00042A1E045A3A4A5A64BA74D484FA8504365
:1000F00054A9AA58E1ABACE2ADAEADAFB0B161B2BC
:10010000B3B4E365B6B7B8B9BABBBCBD6FBE706374
:10011000BF79E478E5C0C1E6C2C3C4C5C6C762758D
:100120006C6C6574735F696E5F636C69703D0062CF
:10013000756C6C6574735F696E5F636C69703F00AA
:1001400070726F746F636F6C3F00636C6970733DA6
:1001500000636C6970733F00707265706172655FF7
:10016000746F5F77726974655F626C6F636B007246
:100170006561645F626C6F636B00736F756E645F63
:10018000315F6164726573733D00736F756E645F98
:10019000315F6164726573733F00736F756E645F86
:1001A000315F73697A653D00736F756E645F315FAF
:1001B00073697A653F00736F756E645F325F616467
:1001C000726573733D00736F756E645F325F616457
:1001D000726573733F00736F756E645F325F73692E
:1001E0007A653D00736F756E645F325F73697A651F
:1001F0003F00736F756E645F335F61647265737324
:100200003D00736F756E645F335F61647265737315
:100210003F00736F756E645F335F73697A653D008D
:10022000736F756E645F335F73697A653F00736FD8
:10023000756E645F345F6164726573733D00736FE4
:10024000756E645F345F6164726573733F00736FD2
:10025000756E645F345F73697A653D00736F756EA8
:10026000645F345F73697A653F00736F756E645FB6
:10027000355F6164726573733D00736F756E645FA3
:10028000355F6164726573733F00736F756E645F91
:10029000355F73697A653D00736F756E645F355FB6
:1002A00073697A653F00736F756E645F365F616472
:1002B000726573733D00736F756E645F365F616462
:1002C000726573733F00736F756E645F365F736939
:1002D0007A653D00736F756E645F365F73697A652A
:1002E0003F00706C61795F736F756E6400706C6154
:1002F000795F73686F745F736F756E6400706C61A3
:100300007965725F69643D00706C617965725F69DF
:10031000643F0064616D6167655F696E6465783D27
:100320000064616D6167655F696E6465783F00694F
:10033000725F706F7765723D0069725F706F77658D
:10034000723F00667269656E646C795F666972659A
:100350003D00667269656E646C795F666972653FBF
:10036000007465616D5F69643D007465616D5F690E
:10037000643F00626174745F66756C6C5F766F6C6D
:10038000746167653D00626174745F66756C6C5F73
:10039000766F6C746167653F00626174745F6C6F47
:1003A000775F766F6C746167653D00626174745F3E
:1003B0006C6F775F766F6C746167653F0070756C0A
:1003C000745F6B65795F75705F636D643D00707518
:1003D0006C745F6B65795F75705F636D643F00700F
:1003E000756C745F6B65795F72696768745F636D64
:1003F000643D0070756C745F6B65795F72696768E6
:10040000745F636D643F0070756C745F6B65795FDA
:10041000646F776E5F636D643D0070756C745F6BC5
:1004200065795F646F776E5F636D643F0070756CB4
:10043000745F6B65795F6C6566745F636D643D00C6
:1004400070756C745F6B65795F6C6566745F636D06
:10045000643F0070756C745F6B65795F63656E7483
:1004600072616C5F636D643D0070756C745F6B6589
:10047000795F63656E7472616C5F636D643F007079
:10048000756C745F73686966745F616E645F6B65D9
:10049000795F75705F636D643D0070756C745F7338
:1004A000686966745F616E645F6B65795F75705FC4
:1004B000636D643F0070756C745F73686966745F28
:1004C000616E645F6B65795F72696768745F636DA5
:1004D000643D0070756C745F73686966745F616E0B
:1004E000645F6B65795F72696768745F636D643FB1
:1004F0000070756C745F73686966745F616E645FC9
:100500006B65795F646F776E5F636D643D007075D6
:100510006C745F73686966745F616E645F6B657944
:100520005F646F776E5F636D643F0070756C745FBE
:1005300073686966745F616E645F6B65795F6C6533
:1005400066745F636D643D0070756C745F73686999
:1005500066745F616E645F6B65795F6C6566745F1E
:10056000636D643F0070756C745F73686966745F77
:10057000616E645F63656E7472616C5F636D643D30
:100580000070756C745F73686966745F616E645F38
:1005900063656E7472616C5F636D643F0070756C4F
:1005A000745F72656C6F61645F636D643D0070754C
:1005B0006C745F72656C6F61645F636D643F001E95
:1005C000012F0140014A01510158016F017A018A4E
:1005D000019A01A801B601C601D601E401F20102A7
:1005E00002120220022E023E024E025C026A027ACF
:1005F000028A029802A602B602C602D402E202ED04
:1006000002FD020803130321032F0339034303529E
:100610000361036A03730386039903AB03BD03CE2F
:1006200003DF03F30307041A042D04400453046991
:10063000047F049A04B504D304F1040E052B054885
:1006400005650581059D05AE054552524F523A7527
:100650006E6B6E6F776E20636F6D6D616E640D0AE9
:10066000004552524F520D0A004552524F523A70B5
:100670006172616D65746572206973206E6F74209C
:100680007370656369666965640D0A004552524F6F
:10069000523A706172616D65746572206F75742075
:1006A0006F662072616E67650D0A004552524F52A7
:1006B0003A696E76616C696420706172616D65740F
:1006C00065720D0A000D0A4F4B0D0A00CAEEEBE8E9
:1006D000F7E5F1F2E2EE20EFE0F2F0EEEDEEE220EF
:1006E000E220ECE0E3E0E7E8EDE53B696E742830FA
:1006F0002C3930293B62756C6C6574735F696E5F71
:10070000636C69703F3B62756C6C6574735F696E96
:100710005F636C69703D0D0ACCE0E3E0E7E8EDEE65
:10072000E23B696E7428302C313030293B636C69B0
:1007300070733F3B636C6970733D0D0AC8E4E5ED6F
:10074000F2E8F4E8EAE0F2EEF020E8E3F0EEEAE0C6
:100750003B696E7428302C313237293B706C6179DB
:1007600065725F69643F3B706C617965725F696453
:100770003D0D0AD6E2E5F220EAEEECE0EDE4FB3BCB
:10078000656E756D28CAF0E0F1EDE0FF2CD1E8ED63
:10079000FFFF2CC6E5EBF2E0FF2CC7E5EBE5EDE053
:1007A000FF293B7465616D5F69643F3B7465616DF2
:1007B0005F69643D0D0ACDE0EDEEF1E8ECFBE92068
:1007C000F3F0EEED3B656E756D2831252C32252C4E
:1007D00034252C35252C37252C3130252C31352549
:1007E0002C3137252C3230252C3235252C33302531
:1007F0002C3335252C3430252C3530252C37352518
:100800002C31303025293B64616D6167655F696E0D
:100810006465783F3B64616D6167655F696E6465BF
:10082000783D0D0AC4F0F3E6E5F1F2E2E5EDEDFB0B
:10083000E920EEE3EEEDFC3B656E756D28CDE5F24B
:100840002CC4E0293B667269656E646C795F6669E9
:1008500072653F3B667269656E646C795F6669724A
:10086000653D0D0ACCEEF9EDEEF1F2FC20C8CA2090
:10087000E8E7EBF3F7E5EDE8FF3B656E756D28C43F
:10088000EBFF20E8E3F0FB20E220EFEEECE5F9E5FA
:10089000EDE8E82CC4EBFF20E8E3F0FB20EDE020DE
:1008A000F3EBE8F6E5293B69725F706F7765723F9D
:1008B0003B69725F706F7765723D0D0ACDE0EFF0B6
:1008C000FFE6E5EDE8E520E7E0F0FFE62E20E1E0D9
:1008D000F2E0F0E5E820ECC23B696E742835303078
:1008E000302C3435303030293B626174745F66756A
:1008F0006C6C5F766F6C746167653F3B62617474AA
:100900005F66756C6C5F766F6C746167653D0D0A30
:10091000CDE0EFF0FFE6E5EDE8E520F0E0E7F0FF01
:10092000E62E20E1E0F2E0F0E5E820ECC23B696E63
:100930007428343530302C3435303030293B626106
:1009400074745F6C6F775F766F6C746167653F3B43
:10095000626174745F6C6F775F766F6C74616765EA
:100960003D0D0A00303132333435363738390080A6
:1009700081838A8B8CA0A1A8A9AA05000D060E1060
:10098000416464486C746800416464526E6473002E
:10099000436F6D6D616E6400436C707350636B7078
:1009A00000800988099009980901020405070A0FC7
:1009B0001114191E2328324B6400000000000000AF
:1009C00000000000D509B909B909F40900CFF0E524
:1009D000F1E5F2FB00E509C409B9093C0A00CDE0E4
:1009E000F1F2F02E00B909D509B909B90900D1E130
:1009F000F0EEF100060AB909C409B90903D8F2F307
:100A0000F0EC2EE22E00180AF409C409B90904D149
:100A1000EDE0E9EF2EE22E002A0A060AC409B90920
:100A200005C4F0EEE1EEE2E8EA00B909180AC409EB
:100A3000B90905CFE8F1F2EEEBE5F2004E0AB9098B
:100A4000D509B90902CCEEF9ED2E20C8CA00600A1A
:100A50003C0AD509960A00434F4D2DEFEEF0F20007
:100A6000B9094E0AD509B90901D1E1F0EEF1E8F270
:100A7000FC00840AB9093C0AB90906C4E0F2F7E8A7
:100A8000EA203100B909720A3C0AB90907C4E0F248
:100A9000F7E8EA203200A80AB9094E0AB90908C2E3
:100AA000EAEBFEF7E8F2FC00B909960A4E0AB9092A
:100AB00009CFF0EEF6E5F1F100CCC5CDDE3A00004D
:100AC00011241FBECFE5D8E0DEBFCDBF12E0A0E607
:100AD000B0E0EAECFDE502C005900D92A834B10744
:100AE000D9F714E0A8E4B2E001C01D92A83EB10716
:100AF000E1F70E940A240C94E32E0C940000E7E333
:100B0000F0E0808180628083808180688083808142
:100B100080648083E8E3F0E080818F7D8083808142
:100B20008F77808380818F7B80830895DF93CF933D
:100B300000D0CDB7DEB78A8380E8898320E030E03B
:100B4000E8E3F0E099818A81892321F480818F7D17
:100B5000808303C0808180628083808180688083FD
:100B600080818F7780838981869589832F5F3F4F2E
:100B70002830310539F7E8E3F0E080818F7B80830E
:100B80008081806480830F900F90CF91DF910895D2
:100B900080E00E94960508958091660284608093AB
:100BA00066020E949605809166028B7F80936602A2
:100BB0000E94960508951F93982F662331F0809127
:100BC000660282608093660205C0809166028D7F16
:100BD00080936602992334F4809166028064809346
:100BE000660205C0809166028F7B80936602192F92
:100BF00096FF06C08091660280628093660205C0FF
:100C0000809166028F7D8093660215FF06C08091F9
:100C1000660280618093660205C0809166028F7EC5
:100C20008093660214FF06C08091660288608093FC
:100C3000660205C080916602877F8093660280917C
:100C400066020E9496050E94CC0580E49FE1019710
:100C5000F1F713FF06C080916602806480936602FC
:100C600005C0809166028F7B8093660212FF06C0EA
:100C70008091660280628093660205C08091660260
:100C80008F7D8093660211FF06C0809166028061AD
:100C90008093660205C0809166028F7E8093660213
:100CA00010FF06C08091660288608093660205C0CE
:100CB00080916602877F80936602809166020E941F
:100CC00096050E94CC0580E49FE10197F1F71F9102
:100CD000089560E00E94DB05089581E090E00E94A5
:100CE0006906089561E00E94DB05089580618093A4
:100CF00066020E94CC0580EE9EE20197F1F708950E
:100D0000DF93CF930F92CDB7DEB7803418F480E431
:100D1000898301C01982898180580E94690689816E
:100D20000F90CF91DF9108958A3031F48091540271
:100D300090E00E9480060895803C28F0E82FF0E0C3
:100D4000E25EFF4F849161E00E94DB0580915402D6
:100D50008F5F809354020895CF93DF93FC018081CD
:100D6000882339F0EF010E94940689812196882317
:100D7000D1F7DF91CF9108951F93182F662331F497
:100D800080580E9469061093540207C080540E9444
:100D90006906812F805C809354021F91089582E040
:100DA0000E94690682E0809354020895CF93DF93F6
:100DB000FC018491882349F0EF0121960E9494065A
:100DC000FE01219684918823C9F7DF91CF91089580
:100DD000809166028068809366020E94960508955D
:100DE000809166028F77809366020E94960508952F
:100DF00080E40E9469068EE00E94720681E10E94F2
:100E0000720681E10E94720681E10E94720681E110
:100E10000E94720681E10E9472068FE10E947206B2
:100E200080E00E9472068EE00E94720681E10E94BC
:100E3000720681E10E94720681E10E94720681E1E0
:100E40000E9472068FE10E9472068FE10E94720674
:100E500080E00E9472068EE00E94720681E10E948C
:100E6000720681E10E94720681E10E9472068FE1A2
:100E70000E9472068FE10E9472068FE10E94720644
:100E800080E00E9472068EE00E94720681E10E945C
:100E9000720681E10E9472068FE10E9472068FE164
:100EA0000E9472068FE10E9472068FE10E94720614
:100EB00080E00E9472068EE00E94720681E10E942C
:100EC00072068FE10E9472068FE10E9472068FE126
:100ED0000E9472068FE10E9472068FE10E947206E4
:100EE00080E00E9472068EE00E9472068FE10E94EE
:100EF00072068FE10E9472068FE10E9472068FE1F6
:100F00000E9472068FE10E9472068FE10E947206B3
:100F100080E00E94720680E80E94690608950E949F
:100F20007F050E94C80510926602109254022EEBB3
:100F300030E040E951E0CA010197F1F7215030401B
:100F4000D1F70E947F0524EB30E040E951E0CA016F
:100F50000197F1F721503040D1F788E090E00E94EE
:100F600076060E94CC050E94CC0580E090E00E94AD
:100F7000760688E290E00E94690688E090E00E9490
:100F8000690681E090E00E94690684E090E00E949A
:100F900069068CE090E00E94690686E090E00E947D
:100FA00069060E94F806089580E40E9469068EE0B2
:100FB0000E9472068FE10E9472068FE10E94720603
:100FC0008FE10E9472068FE10E9472068FE10E94FB
:100FD00072068FE10E94720680E00E94720680E035
:100FE0000E94720680E00E9472068AE00E947206E9
:100FF0008FE10E9472068EE00E94720684E00E94D9
:10100000720680E00E94720680E00E94720686E00E
:101010000E9472068FE00E9472068FE00E947206A4
:101020008FE00E9472068FE00E94720686E00E94A6
:1010300072068FE00E94720680E00E9472068EE0C7
:101040000E9472068AE10E9472068EE10E94720678
:101050008AE10E9472068EE10E9472068AE10E9475
:1010600072068FE00E94720680E00E94720686E09F
:101070000E94720689E00E94720686E00E94720653
:101080008FE00E9472068FE40E9472068FE00E9439
:10109000720686E00E94720686E00E94720680E177
:1010A0000E9472068FE10E9472068FE10E94720612
:1010B0008FE10E94720680E10E94720680E10E9428
:1010C000720680E10E94720680E10E94720680E84A
:1010D0000E94690608951F93182F80E40E946906F4
:1010E000123009F444C0133030F4112371F0113080
:1010F00009F0A0C023C0143009F46BC0143008F408
:101100004FC0153009F096C07DC08EE00E94720677
:1011100081E10E94720681E10E94720681E10E94D3
:10112000720681E10E94720681E10E9472068FE1DF
:101130000E94720680E00E9472067CC08EE00E94CF
:10114000720681E10E94720681E10E94720681E1CD
:101150000E94720681E10E9472068FE10E9472066F
:101160008FE10E94720680E00E94720663C08EE0EA
:101170000E94720681E10E94720681E10E9472065D
:1011800081E10E9472068FE10E9472068FE10E9447
:1011900072068FE10E94720680E00E9472064AC0C9
:1011A0008EE00E94720681E10E94720681E10E9437
:1011B00072068FE10E9472068FE10E9472068FE133
:1011C0000E9472068FE10E94720680E00E94720601
:1011D00031C08EE00E94720681E10E9472068FE1AA
:1011E0000E9472068FE10E9472068FE10E947206D1
:1011F0008FE10E9472068FE10E94720680E00E94D9
:10120000720618C08EE00E9472068FE10E9472067C
:101210008FE10E9472068FE10E9472068FE10E94A8
:1012200072068FE10E9472068FE10E94720680E0D2
:101230000E94720680E80E9469061F91089510922C
:101240008B02E1E3F0E08081877F8083E2E3F0E0DE
:101250008081877F8083E5E5F0E0808188608083FE
:1012600080818B7F8083EBE5F0E0808180688083E4
:10127000109267020895382F20E0E1E3F0E0A8E142
:10128000B1E060E570E040E451E030FF0AC08081E9
:10129000886080838081877F8083CA010197F1F70E
:1012A0000CC0808188608083CD010197F1F7808137
:1012B000877F8083CB010197F1F72F5F283011F0F2
:1012C0003695E3CF089530E020E0E1E3F0E064E11B
:1012D00070E0A0E3B0E040E253E08081886080836A
:1012E0008081877F8083CB010197F1F78C91887093
:1012F00080935E02269580915E0281112068CA016A
:101300000197F1F73F5F383041F7822F0895282F7A
:1013100090E038E1862F822780FF06C0822F832746
:101320008695282F206801C026959F5F983011F080
:101330006695F0CF822F0895CF93DF938091670257
:10134000882309F06FC080E098E00197F1F7E1E3AE
:10135000F0E080818860808380E897E00197F1F772
:101360008081877F80838CE190E00197F1F7839BF8
:1013700059C080E491E00197F1F7839953C080EC64
:1013800093E00197F1F7839B4DC080E897E00197C8
:10139000F1F783E30E943B090E946309809368028E
:1013A000809168028823F1F16091680280E00E94D8
:1013B00087098093650210926A0280916A028630E2
:1013C000F8F4CFE5D2E00E9463098093690280912E
:1013D0006A0290916902FE01E80FF11D90838091ED
:1013E0006502609169020E9487098093650280917D
:1013F0006A028F5F80936A0280916A02863018F3D6
:101400000E94630980936A0290916A02809165024A
:10141000981721F082E08093670204C081E08093F6
:10142000670205C0EAE5F0E0808180688083DF9193
:10143000CF910895E0E2F0E08CE0808380818A30F3
:1014400010F48AE080B9E1E2F0E080818C7F808353
:101450000895CF93DF93582FE6E5F0E044EAA1E248
:10146000B0E0C3E2D0E030EA24E840838081882302
:10147000ECF78C91887F8830B1F5388320838081A8
:101480008823ECF78C91887F883179F793B984E8C9
:1014900086BFE6E5F0E080818823ECF781B1887FA4
:1014A000883209F553B984E886BFE6E5F0E080812B
:1014B0008823ECF781B1887F8832A9F463B984E886
:1014C00086BFE6E5F0E080818823ECF781B1887F74
:1014D000883249F484E986BFE6E5F0E0808184FD46
:1014E000FDCF81E001C080E0DF91CF910895CF93DF
:1014F000DF93582FE6E5F0E044EAA1E2B0E0C3E272
:10150000D0E030EA24E8408380818823ECF78C9196
:10151000887F883009F04DC03883208380818823FC
:10152000ECF78C91887F883171F793B984E886BF96
:10153000E6E5F0E080818823ECF781B1887F88328E
:10154000C1F553B984E886BFE6E5F0E080818823E1
:10155000ECF781B1887F883261F584EA86BFE6E5E1
:10156000F0E080818823ECF781B1887F803109F534
:1015700081EA83B984E886BFE6E5F0E080818823CC
:10158000ECF781B1887F8034A1F484E886BFE6E57A
:10159000F0E080818823ECF781B1887F883549F4B9
:1015A00093B184E986BFE6E5F0E0808184FDFDCF5C
:1015B00001C090E0892FDF91CF9108950F931F9381
:1015C000CF93DF938C01E6E5F0E034EAA1E2B0E0EE
:1015D000C3E2D0E020EA94E8308380818823ECF7EE
:1015E0008C91887F883009F048C02883908380815F
:1015F0008823ECF78C91887F883171F773B984E880
:1016000086BFE6E5F0E080818823ECF781B1887F32
:10161000883299F563B984E886BFE6E5F0E0808119
:101620008823ECF781B1887F883239F5411551055F
:10163000D9F020E030E0C3E2D0E0E6E5F0E094E865
:1016400061E270E0D8018D918D0188839083808163
:101650008823ECF7DB018C91887F883271F42F5F4F
:101660003F4F2417350770F384E986BFE6E5F0E0C5
:10167000808184FDFDCF81E001C080E0DF91CF91CA
:101680001F910F9108950F931F93CF93DF938C01B8
:10169000E6E5F0E034EAA1E2B0E0C3E2D0E020EA1F
:1016A00094E8308380818823ECF78C91887F8830A0
:1016B00009F071C02883908380818823ECF78C9196
:1016C000887F883171F773B984E886BFE6E5F0E07A
:1016D00080818823ECF781B1887F883209F05BC074
:1016E00063B984E886BFE6E5F0E080818823ECF703
:1016F00081B1887F883209F04EC084EA86BFE6E572
:10170000F0E080818823ECF781B1887F803109F097
:1017100042C081EA83B984E886BFE6E5F0E08081D3
:101720008823ECF781B1887F8034A9F5415050407F
:10173000D9F020E030E0E6E5F0E094EC61E270E022
:10174000C3E2D0E0908380818823ECF7DB018C91A9
:10175000887F803501F58881D8018D938D012F5FB9
:101760003F4F2417350770F384E886BFE6E5F0E0C5
:1017700080818823ECF781B1887F883561F483B15B
:10178000F801808384E986BFE6E5F0E0808184FD8E
:10179000FDCF81E001C080E0DF91CF911F910F91DB
:1017A0000895CF93DF93582FE6E5F0E044EAA1E2F5
:1017B000B0E0C3E2D0E030EA24E8408380818823AF
:1017C000ECF78C91887F8830E1F538832083808125
:1017D0008823ECF78C91887F883179F793B984E876
:1017E00086BFE6E5F0E080818823ECF781B1887F51
:1017F000883239F553B984E886BFE6E5F0E08081A8
:101800008823ECF781B1887F8832D9F484EA86BFD7
:10181000E6E5F0E080818823ECF781B1887F8031B4
:1018200081F481EA83B984E886BFE6E5F0E080814F
:101830008823ECF781B190E0887F803419F491E03F
:1018400001C090E0892FDF91CF910895DC0184ECF5
:1018500086BFE6E5F0E080818823ECF781B1887FE0
:10186000803511F080E0089583B18C9381E0089574
:10187000DC0184E886BFE6E5F0E080818823ECF7B0
:1018800081B1887F883511F080E0089583B18C9311
:1018900084E986BFE6E5F0E0808184FDFDCF81E04C
:1018A0000895CF93DF93E4E3F0E08081806280834A
:1018B0004AE350E0DA018C9182608C9380818064ED
:1018C0008083A5E3B0E08C918F7B8C9380818068CE
:1018D00080838C918F778C938081886080838081D6
:1018E0008061808380818460808321E330E0E9012E
:1018F000888180688883E7E3F0E080818860808366
:10190000808180618083A8E3B0E08C9180618C93BA
:10191000EA018881816088838081846080838C91E2
:101920008B7F8C93E90188818061888388818B7F9C
:10193000888380818E7F80838C9181608C9380816D
:101940008B7F80838C9184608C9380818D7F80835A
:101950008C9182608C93E2E3F0E080818F7D8083C4
:10196000FA0180818F778083EBE3F0E080818F77CD
:101970008083DF91CF9108958DED83BD89E085BD92
:10198000E9E5F0E080818F7780830895E1E3F0E07E
:1019900080818B7F8083E5E5F0E0808182608083B9
:1019A00080818E7F8083EBE5F0E08081806480839E
:1019B0000895982F969596959695E92FF0E09F01BA
:1019C000220F331F220F331F220F331F821B662368
:1019D00089F0EE55FD4F408127E030E0281B3109AA
:1019E00081E090E002C0880F991F2A95E2F7482B0A
:1019F00040830895EE55FD4F408127E030E0281BDD
:101A0000310981E090E002C0880F991F2A95E2F722
:101A10008095842380830895982F96959695969522
:101A2000E92FF0E09F01220F331F220F331F220FF7
:101A3000331F821B662389F0E953FD4F408127E065
:101A400030E0281B310981E090E002C0880F991F27
:101A50002A95E2F7482B40830895E953FD4F4081D2
:101A600027E030E0281B310981E090E002C0880FB8
:101A7000991F2A95E2F78095842380830895E2EBED
:101A8000F2E0808380818F7780830895E3EBF2E03A
:101A900090819F73908390818295880F880F807CBE
:101AA000892B80830895E3EBF2E09081937C90830F
:101AB0009081880F880F892B80830895482F282FC5
:101AC00026952695269530E0F901EE55FD4F80814B
:101AD00090E0220F331F220F331F220F331F421BB0
:101AE00027E030E0241B310902C0959587952A959F
:101AF000E2F781700895482F282F26952695269580
:101B000030E0F901E953FD4F808190E0220F331F4F
:101B1000220F331F220F331F421B27E030E0241B0C
:101B2000310902C0959587952A95E2F7817008954D
:101B300080E88CBFE3E5F0E088E480838081816009
:101B400080838081806280830895AFE4B0E08C91CF
:101B50008E7F8C938C918D7F8C93EEE4F0E080816E
:101B60008860808380818F7E80838C918F7B8C9333
:101B70008C918F778C9380818F7E808380818F7D05
:101B8000808380818E7F808380818260808380815A
:101B90008B7F808389EF8ABDE9E5F0E080818061F9
:101BA00080830895982FACEDB2E0FD011192108270
:101BB000FD013296108213961C928695482F50E0B4
:101BC0001416150674F420E030E06CED72E08FEF2F
:101BD000FB01E20FF31F80832F5F3F4F2417350770
:101BE000BCF39A01220F331F892F90E0821B930BC5
:101BF000181619062CF4FA01E452FD4F8CEC808380
:101C0000089586B38695809581700895EF92FF922E
:101C10000F931F93CF93DF93FC01062FF72E142F02
:101C20008FE0E13AF80708F04EC0C091C002D091B1
:101C3000C1028FEF9FEF9093C1028093C00280EAB0
:101C40009FE0BF010E94662EE62E802F9F2D9C01F3
:101C5000213A310510F020EA30E0CF016AE070E06F
:101C60000E94662E269FA001279F500D369F500D83
:101C700011244115510519F1E0E0F0E0ACE5B0E0C8
:101C80006E2D70E09B011C931092820210928102D3
:101C9000809181029091820286179707C8F31C9267
:101CA00010928202109281028091810290918202B0
:101CB00082179307C8F33196E417F50720F3D09302
:101CC000C102C093C002DF91CF911F910F91FF908D
:101CD000EF9008950F931F9302E310E0F8018081C5
:101CE0008061808388EE93E063E070E040E80E94CA
:101CF000060E84EF91E063E070E040E80E94060E7B
:101D0000F80180818F7E80831F910F9108958F92BB
:101D10009F92AF92BF92CF92DF92EF92FF920F937A
:101D20001F93DF93CF9300D0CDB7DEB7D62E898334
:101D3000662329F422E030E043E050E007C0462F5C
:101D400050E09A01215030400AF476C00F2EF4E69C
:101D5000EF2EF9E0FF2EF02D0EE412E089816AE00B
:101D60000E945A2E9A8389810E945A2E89838A81E1
:101D7000F701E80FF11DE491D801A20FB31FEC9316
:101D8000215030405AF7FA01E25BFD4F1082DD200E
:101D900009F041C00F2EFEE4CF2EF2E0DF2EF02D31
:101DA00056010894A11CB11C0FE412E048010894EC
:101DB00081089108B4016E5F7F4FA4014D5F5F4FB2
:101DC00094012C5F3F4FD40115960F2EF6E0EF2EB5
:101DD000FF24F02DE80CF91CF6018081F5019081BB
:101DE0008033C9F49923B9F0F8018081F40180832C
:101DF000FB018081F8018083FA018081FB018083EF
:101E0000F9018081FA0180838C91F9018083F701C7
:101E100080818C93E1CF8EE492E00F900F90CF9170
:101E2000DF911F910F91FF90EF90DF90CF90BF90C7
:101E3000AF909F908F900895FA01E25BFD4F108262
:101E4000EACF8F929F92AF92BF92CF92DF92EF92A2
:101E5000FF920F931F93DF93CF9300D000D0CDB7A5
:101E6000DEB7462F9A838983662341F404E010E0AD
:101E70000F2EF5E0EF2EFF24F02D07C0E62EFF24F5
:101E80008701015010400AF488C00F2EF4E6AF2EEF
:101E9000F9E0BF2EF02D0F2EF8E4CF2EF2E0DF2E6A
:101EA000F02D89819A816AE070E00E94662E282FC9
:101EB000392F3C832B8389819A816AE070E00E94EC
:101EC000662E862F972F9A8389838B819C81F501BB
:101ED000E80FF91FE491D601A00FB11FEC93015058
:101EE0001040FAF6F701E85BFD4F1082442309F039
:101EF00041C00F2EF8E4CF2EF2E0DF2EF02D560178
:101F00000894A11CB11C09E412E04801089481085E
:101F10009108B4016E5F7F4FA4014D5F5F4F940144
:101F20002C5F3F4FD40115960F2EF6E0EF2EFF24C5
:101F3000F02DE80CF91CF6018081F50190818033C9
:101F4000C9F49923B9F0F8018081F4018083FB0181
:101F50008081F8018083FA018081FB018083F9018F
:101F60008081FA0180838C91F9018083F70180815F
:101F70008C93E1CF88E492E00F900F900F900F9038
:101F8000CF91DF911F910F91FF90EF90DF90CF9055
:101F9000BF90AF909F908F900895F701E85BFD4F41
:101FA0001082E8CF81E060E00E94BC068091BD0213
:101FB0009091BE0263E00E94870E0E94AC060895D5
:101FC00081E061E00E94BC0680918F0290919002B6
:101FD00063E00E94870E0E94AC06089586E061E0EF
:101FE0000E94BC068091830262E00E94870E0E94DC
:101FF000AC0680E690E00E94AC06089580EC87B9BC
:1020000087E886B90895E7E2F0E090818770892B30
:102010008083E6E2F0E0808180648083808184FFB9
:10202000FDCFE6E2F0E080818061808324B135B1AC
:10203000822F932F0895FF920F931F93DF93CF93D7
:1020400000D00F92CDB7DEB7162F6983072F7A83A2
:102050008B83F82E0E946D060E94CF0682E690E0E8
:102060000E94AC068F2D60E00E94870E0E94AC0695
:1020700080E061E00E94BC0684E00E949406812F0B
:1020800060E00E94870E0E94AC0685E061E00E943D
:10209000BC0685E00E949406802F60E00E94870EB7
:1020A0000E94AC060F900F900F90CF91DF911F917F
:1020B0000F91FF900895EF92FF921F93CF93DF93BC
:1020C000109273020E946D0688E690E00E94AC06B2
:1020D00080E061E00E94BC0681E790E00E94AC06CF
:1020E00010E00F2EF1E7EF2EF0E0FF2EF02DC5E708
:1020F000D0E040C0809173028823E1F380917302A5
:102100008330D1F0843028F4813041F0823081F581
:1021100008C08430A1F0853059F51CC010927302BC
:1021200029C080E061E00E94BC06CE010E94AC069E
:102130001092730211E01EC0109273021BC080E067
:1021400061E00E94BC06C7010E94AC0610927302B7
:1021500010E010C0112341F080E061E00E94BC0655
:1021600089E790E00E94AC0610927302812F07C0AD
:102170001092730280917302853009F0BBCFDF911A
:10218000CF911F91FF90EF900895843321F1853313
:1021900060F48133C1F0823318F4803341F515C007
:1021A0008233A9F0833319F514C08733D1F0883313
:1021B00028F4853391F08633D1F411C0883399F037
:1021C0008933A9F412C081E0089580E0089582E087
:1021D000089583E0089584E0089585E0089586E0F9
:1021E000089587E0089588E0089589E0089585E5D9
:1021F00008950895CF93DF93582FE6E5F0E044EA81
:10220000A1E2B0E0C3E2D0E030EA24E8408380817C
:102210008823ECF78C91887F883009F083C038835D
:10222000208380818823ECF78C91887F883171F737
:1022300093B984E886BFE6E5F0E080818823ECF777
:1022400081B1887F883209F06DC053B984E886BFB8
:10225000E6E5F0E080818823ECF781B1887F883261
:1022600009F060C084EA86BFE6E5F0E0808188235B
:10227000ECF781B1887F803109F054C081EA83B9DD
:1022800084E886BFE6E5F0E080818823ECF781B141
:10229000887F803409F046C06150704001F120E031
:1022A00030E0E6E5F0E094ECA1E2B0E0C3E2D0E09B
:1022B00041E0908380818823ECF78C91887F803582
:1022C00089F58091C3028823E1F788818093BC025D
:1022D0004093C3022F5F3F4F2617370750F384E820
:1022E00086BFE6E5F0E080818823ECF781B1887F46
:1022F0008835C1F48091C3028823E1F783B18093CC
:10230000BC0281E08093C30284E986BFE6E5F0E089
:10231000808184FDFDCF1CBE1092BC021092C302CE
:1023200081E001C080E0DF91CF910895E5E8F2E01F
:10233000119280E880838CEA90E0909377028093FA
:1023400076028BE290E09093D2028093D1020895BE
:102350000E9496118EE090E090938802809387020D
:1023600081E080937202E9E5F0E0808180688083FB
:10237000E5E3F0E08081806280830895A2EBB2E023
:10238000FD0181936083129688EE8C930E949611D2
:1023900088E190E0909388028093870281E08093A7
:1023A0007202E9E5F0E0808180688083E5E3F0E097
:1023B0008081806280830895982F20E030E04FE68E
:1023C00059E0FA01E20FF31F8081891711F4822F7F
:1023D00008952F5F3F4F2B30310599F78EED08950B
:1023E000982F20E030E04AE759E0FA01E20FF31FAE
:1023F0008081891711F4822F08952F5F3F4F263077
:10240000310599F78EED089582E090E00E94B32E99
:10241000089580E090E00E94B32E0895EF92FF921D
:102420000F931F93CF93DF938BE090E00E94B32E26
:10243000909168028917E1F4C0E0D0E00F2EFBE034
:10244000EF2EF0E0FF2EF02D0FE512E0CE01019609
:102450008E0D9F1D0E94B32EF801EC0FFD1F908181
:10246000891731F42196C630D10581F781E001C08A
:1024700080E0DF91CF911F910F91FF90EF90089531
:102480008DE290E060E079EA0E94CE2E81E390E058
:1024900061E079EA0E94CE2E85E390E062E079EA7D
:1024A0000E94CE2E89E390E063E079EA0E94CE2E6E
:1024B0008DE390E06EE073E80E94CE2E8BE290E018
:1024C00065E073E80E94CE2E83E390E060E073E85D
:1024D0000E94CE2E8BE390E06DE073E80E94CE2E3A
:1024E00087E390E066E073E80E94CE2E8FE290E0F2
:1024F00060E173E80E94CE2E08950E945B1088234D
:1025000011F00E944012089582E090E00E94B32EE4
:1025100060E00E94870E0E943D2D82E890E00E94BC
:102520003D2D089581E090E00E94B32E60E00E946E
:10253000870E0E943D2D82E890E00E943D2D089577
:1025400084E090E00E94B32E60E00E94870E0E941B
:102550003D2D82E890E00E943D2D089583E090E0BB
:102560000E94B32E60E00E94870E0E943D2D82E8FB
:1025700090E00E943D2D08951F93DF93CF930F921B
:10258000CDB7DEB711E055C00E94992D89838981AE
:102590008536D9F1863630F4803389F0813309F0FD
:1025A00048C020C0883621F0843709F042C031C0CD
:1025B00010938D021092C5021092C4023AC080910D
:1025C0008D028823B1F18091C4029091C5029C01D3
:1025D0002F5F3F4F3093C5022093C40260E00E94FA
:1025E0000C0D27C080918D02882319F18091C402BF
:1025F0009091C5029C012F5F3F4F3093C5022093FD
:10260000C402612F0E940C0D14C010928D0282E052
:1026100015C080918D02882351F08091C402909161
:10262000C502892B21F010928D0281E007C0109223
:102630008D0280915D02882309F0A6CF0F90CF9183
:10264000DF911F9108950F931F9386E290E00E94FF
:10265000BB2E8C0188E290E00E94BB2EBC01C80119
:102660000E94FA101F910F9108950F931F9382E219
:1026700090E00E94BB2E8C0184E290E00E94BB2E71
:10268000BC01C8010E94FA101F910F9108950F9389
:102690001F938EE190E00E94BB2E8C0180E290E0BF
:1026A0000E94BB2EBC01C8010E94FA101F910F911D
:1026B00008950E94471308950F931F938AE190E0B5
:1026C0000E94BB2E8C018CE190E00E94BB2EBC01CD
:1026D000C8010E94FA101F910F9108950E945C1387
:1026E00008950F931F9386E190E00E94BB2E8C010A
:1026F00088E190E00E94BB2EBC01C8010E94FA1044
:102700001F910F91089580917E0290917F02029710
:1027100050F081E090E090937F0280937E02809160
:10272000DA028823E1F70E94711308950F931F9333
:1027300082E190E00E94BB2E8C0184E190E00E9437
:10274000BB2EBC01C8010E94FA101F910F91089581
:102750000E94961389E890E00E943D2D08950E9402
:10276000BB2E60E00E94210F0E943D2D82E890E088
:102770000E943D2D089588E290E00E94AF130895D5
:1027800086E290E00E94AF13089584E290E00E94F8
:10279000AF13089582E290E00E94AF13089580E2A3
:1027A00090E00E94AF1308958EE190E00E94AF1375
:1027B00008958CE190E00E94AF1308958AE190E0C3
:1027C0000E94AF13089588E190E00E94AF1308952E
:1027D00086E190E00E94AF13089584E190E00E94AA
:1027E000AF13089582E190E00E94AF130895EF9235
:1027F000FF920F931F93DF93CF9300D0CDB7DEB737
:1028000087E00E9403109A83898386E090E00E940B
:10281000BB2E7C0188E090E00E94BB2E2091DB0261
:10282000222321F0213009F07FC040C0880F991F7A
:10283000880F991F6BE470E00E94662E862F972FF9
:102840008C0187E060E00E94BC0689819A81801734
:10285000910720F480E00E946B0866C0C701880FD2
:10286000991F880F991F6BE470E00E94662E862FD7
:10287000972FBC0189819A816817790720F485E038
:102880000E946B0851C029813A81201B310BC9017C
:10289000880F991F820F931F601B710B880F991F60
:1028A0000E94662E862F0E946B083EC085E060E085
:1028B0000E94BC0629813A81C901880F991F820FA5
:1028C000931F9C01220F331F220F331F820F931F70
:1028D0009695879596958795969587959A838983FA
:1028E00089819A8164E670E00E94662E862F60E0FE
:1028F0000E94870E0E94AC068EE890E00E94AC0613
:1029000089819A8164E670E00E94662E6AE070E038
:102910000E94662E862F60E00E94870E0E94AC0601
:1029200080E690E00E94AC060F900F90CF91DF916F
:102930001F910F91FF90EF9008958FE390E00E9418
:10294000BB2E60E00E94210F0E943D2D85EC96E099
:102950000E944D2D08958DE390E00E94BB2E60E013
:102960000E94210F0E943D2D85EC96E00E944D2D86
:10297000089589E390E00E94BB2E60E00E94210F41
:102980000E943D2D85EC96E00E944D2D089585E333
:1029900090E00E94BB2E60E00E94210F0E943D2D1E
:1029A00085EC96E00E944D2D089581E390E00E9411
:1029B000BB2E60E00E94210F0E943D2D85EC96E029
:1029C0000E944D2D08958DE290E00E94BB2E60E0A4
:1029D0000E94210F0E943D2D85EC96E00E944D2D16
:1029E00008958BE390E00E94BB2E60E00E94210FCF
:1029F0000E943D2D85EC96E00E944D2D089587E3C1
:102A000090E00E94BB2E60E00E94210F0E943D2DAD
:102A100085EC96E00E944D2D089583E390E00E949E
:102A2000BB2E60E00E94210F0E943D2D85EC96E0B8
:102A30000E944D2D08958FE290E00E94BB2E60E031
:102A40000E94210F0E943D2D85EC96E00E944D2DA5
:102A500008958BE290E00E94BB2E60E00E94210F5F
:102A60000E943D2D85EC96E00E944D2D089588E052
:102A700090E00E94BB2E60E00E94210F0E943D2D3D
:102A800085EC96E00E944D2D089586E090E00E942E
:102A9000BB2E60E00E94210F0E943D2D85EC96E048
:102AA0000E944D2D089580E090E00E94B32E60E0DA
:102AB0000E94870E0E943D2D85EC96E00E944D2DD0
:102AC00008958AE290E00E94B32E60E00E94870E93
:102AD0000E943D2D85EC96E00E944D2D08958AE0E0
:102AE00090E00E94B32E803439F0803849F480E9B8
:102AF00090E00E943D2D04C082E990E00E943D2DAF
:102B000085EC96E00E944D2D0895CF92DF92EF92D2
:102B1000FF920F931F93DF93CF9300D0CDB7DEB713
:102B20001A8220E00F2EF6EEEF2EF3E0FF2EF02DAE
:102B30000F2EFAE0CF2EF02DDD24D39423C0809108
:102B40005C02F701E80FF11D908199838F5F8093FC
:102B50005C0289818032B1F08981803370F0898193
:102B60008A3358F40A8189810E94C5100C9D800126
:102B70001124800F8A832D2D05C084E990E00E94E6
:102B80003D2D40C080915C02F701E80FF11D80816E
:102B90008D30A9F6222329F489E696E00E944D2D76
:102BA00031C08A81873018F48A81882329F48CE81F
:102BB00096E00E944D2D26C08A818330A1F084309A
:102BC00028F4813051F08230C9F40AC0853089F090
:102BD000853060F0863091F40FC00E9496130EC0CD
:102BE0000E9471130BC00E945C1308C00E9447131F
:102BF00005C00E94351302C00E94231389E890E0AB
:102C00000E943D2D0F900F90CF91DF911F910F915A
:102C1000FF90EF90DF90CF900895BF92CF92DF9218
:102C2000EF92FF920F931F93DF93CF9300D00F92F9
:102C3000CDB7DEB76C011B821A8220E00F2EF6EEB4
:102C4000EF2EF3E0FF2EF02DBB24B3942EC0809125
:102C50005C02F701E80FF11D908199838F5F8093EB
:102C60005C028981803209F189818033C8F08981D1
:102C70008A33B0F40A811B8189810E94C5109801B2
:102C8000220F331F000F111F000F111F000F111F04
:102C9000200F311F280F311D3B832A832B2D05C0A8
:102CA00084E990E00E943D2D18C080915C02F701FC
:102CB000E80FF11D80818D3051F6222329F489E639
:102CC00096E00E944D2D09C06A817B81C6010E9459
:102CD000CE2E89E890E00E943D2D0F900F900F902E
:102CE000CF91DF911F910F91FF90EF90DF90CF90E8
:102CF000BF90089588E290E00E940D16089586E244
:102D000090E00E940D16089584E290E00E940D1656
:102D1000089582E290E00E940D16089580E290E00E
:102D20000E940D1608958EE190E00E940D16089500
:102D30008CE190E00E940D1608958AE190E00E94D7
:102D40000D16089588E190E00E940D16089586E121
:102D500090E00E940D16089584E190E00E940D1607
:102D6000089582E190E00E940D1608956F927F927F
:102D70009F92AF92BF92CF92DF92EF92FF920F930A
:102D80001F93DF93CF9300D00F92CDB7DEB73C01F6
:102D90005B016A011B821A8220E00F2EF6EEEF2EF5
:102DA000F3E0FF2EF02D992493942EC080915C02C5
:102DB000F701E80FF11D908199838F5F80935C028A
:102DC0008981803209F189818033C8F089818A3311
:102DD000B0F40A811B8189810E94C5109801220FDD
:102DE000331F000F111F000F111F000F111F200FA5
:102DF000311F280F311D3B832A83292D05C08BEA03
:102E000096E00E944D2D27C080915C02F701E80FEB
:102E1000F11D80818D3051F6222329F489E696E058
:102E20000E944D2D18C08A819B81C816D90628F0B2
:102E30008A819B818A159B0528F48CE896E00E9484
:102E40004D2D09C06A817B81C3010E94CE2E89E885
:102E500090E00E943D2D0F900F900F90CF91DF9149
:102E60001F910F91FF90EF90DF90CF90BF90AF90A8
:102E70009F907F906F9008958FE390E060E070E006
:102E80004FEF5FEF0E94B61608958DE390E060E08B
:102E900070E04FEF5FEF0E94B616089589E390E06F
:102EA00060E070E04FEF5FEF0E94B616089585E393
:102EB00090E060E070E04FEF5FEF0E94B61608957B
:102EC00081E390E060E070E04FEF5FEF0E94B616A4
:102ED00008958DE290E060E070E04FEF5FEF0E94B8
:102EE000B61608958BE390E060E070E04FEF5FEF7F
:102EF0000E94B616089587E390E060E070E04FEF1F
:102F00005FEF0E94B616089583E390E060E070E002
:102F10004FEF5FEF0E94B61608958FE290E060E0F9
:102F200070E04FEF5FEF0E94B61608958BE290E0DD
:102F300060E070E04FEF5FEF0E94B616089588E002
:102F400090E064E971E148EC5FEA0E94B6160895EA
:102F500086E090E060E070E048EC5FEA0E94B61620
:102F60000895DF92EF92FF920F931F93DF93CF9319
:102F700000D00F92CDB7DEB71B821A8220E00F2E51
:102F8000F6EEEF2EF3E0FF2EF02DDD24D3942EC0CD
:102F900080915C02F701E80FF11D908199838F5FAA
:102FA00080935C028981803209F189818033C8F085
:102FB00089818A33B0F40A811B8189810E94C510FE
:102FC0009801220F331F000F111F000F111F000F58
:102FD000111F200F311F280F311D3B832A832D2DF8
:102FE00005C084E990E00E943D2D4FC080915C02B5
:102FF000F701E80FF11D80818D3051F6222329F46D
:1030000089E696E00E944D2D40C08A819B818150C7
:10301000924028F08CE896E00E944D2D36C00E9428
:103020008A2D89E890E00E943D2D1092D7021092DF
:10303000D6028091D6029091D7028A58924020F40D
:1030400080915D028823ACF780915D028823CCF4E7
:103050006A817B817695762F66277795679586EED0
:1030600093E040E850E00E94DE0A882329F089E8D6
:1030700090E00E943D2D09C08CE990E00E943D2D1A
:1030800004C087EB90E00E943D2D0F900F900F90B1
:10309000CF91DF911F910F91FF90EF90DF900895F6
:1030A000CF92DF92EF92FF920F931F93DF93CF9314
:1030B00000D0CDB7DEB71A8220E00F2EF6EEEF2E4D
:1030C000F3E0FF2EF02D0F2EFAE0CF2EF02DDD24B1
:1030D000D39423C080915C02F701E80FF11D908129
:1030E00099838F5F80935C0289818032B1F08981FE
:1030F000803370F089818A3358F40A8189810E9473
:10310000C5100C9D80011124800F8A832D2D05C0D0
:103110008BEA96E00E944D2D2DC080915C02F70154
:10312000E80FF11D80818D30A9F6222329F489E66C
:1031300096E00E944D2D1EC08A81823038F48A812B
:103140008A81882341F0813089F40BC08CE896E0B5
:103150000E944D2D0FC08AE090E060E80E94C12ED1
:1031600005C08AE090E060E40E94C12E85EC96E004
:103170000E944D2D0F900F90CF91DF911F910F91D5
:10318000FF90EF90DF90CF900895CF92DF92EF9273
:10319000FF920F931F93DF93CF9300D0CDB7DEB78D
:1031A0001A8220E00F2EF6EEEF2EF3E0FF2EF02D28
:1031B0000F2EFAE0CF2EF02DDD24D39423C0809182
:1031C0005C02F701E80FF11D908199838F5F809376
:1031D0005C0289818032B1F08981803370F089810D
:1031E0008A3358F40A8189810E94C5100C9D8001A0
:1031F0001124800F8A832D2D05C084E990E00E9460
:103200003D2D18C080915C02F701E80FF11D80810F
:103210008D30A9F6222329F489E696E00E944D2DEF
:1032200009C06A8184E090E00E94C12E89E890E0A4
:103230000E943D2D0F900F90CF91DF911F910F9124
:10324000FF90EF90DF90CF9008958F929F92AF9272
:10325000BF92CF92DF92EF92FF920F931F93DF9373
:10326000CF9300D0CDB7DEB75C01862E942E1A82A4
:1032700020E00F2EF6EEEF2EF3E0FF2EF02D0F2EB6
:10328000FAE0CF2EF02DDD24D39423C080915C0290
:10329000F701E80FF11D908199838F5F80935C02A5
:1032A00089818032B1F08981803370F089818A33DD
:1032B00058F40A8189810E94C5100C9D8001112457
:1032C000800F8A832D2D05C08BEA96E00E944D2D3C
:1032D00022C080915C02F701E80FF11D80818D30E2
:1032E000A9F6222329F489E696E00E944D2D13C009
:1032F0008A81981618F08A81881528F48CE896E05F
:103300000E944D2D08C06A81C5010E94C12E89E826
:1033100090E00E943D2D0F900F90CF91DF911F9173
:103320000F91FF90EF90DF90CF90BF90AF909F9064
:103330008F90089580E090E060E043E00E942519BE
:1033400008958AE290E060E041E00E942519089526
:1033500082E090E060E04FE00E942519089581E04E
:1033600090E060E04FE70E942519089583E090E027
:1033700060E04AE50E9425190895EF92FF921F939D
:10338000CF93DF93109273021092C2021092BF0289
:103390008AE290E00E94B32E182F0E946D0688E00A
:1033A0000E9469068CE00E9469068FEB90E00E9403
:1033B000AC0680E061E00E94BC06112329F085E79D
:1033C00090E00E94AC0604C081E790E00E94AC0649
:1033D00088EC90E00E94AC06C5E7D0E00F2EF1E744
:1033E000EF2EF0E0FF2EF02D21C08091C20281303F
:1033F00021F08091BF028130C1F78091BF028130FE
:10340000A9F41092BF02112349F080E061E00E940C
:10341000BC06C7010E94AC0610E008C080E061E075
:103420000E94BC06CE010E94AC0611E08091C2024F
:103430008130D9F61092C2028AE290E00E94B32E47
:10344000181759F00E946D068EEC90E00E94AC06B1
:103450008AE290E0612F0E94C12EDF91CF911F91EF
:10346000FF90EF900895DF92EF92FF920F931F93DA
:10347000CF93DF93109273028AE090E00E94B32E04
:10348000182F0E946D0687ED90E00E94AC0680E048
:1034900061E00E94BC06103429F480EE90E00E94A6
:1034A000AC063EC01038E1F589EE90E00E94AC0613
:1034B00037C0809173028823E1F3809173028330D7
:1034C000E1F0843028F4813041F0823031F508C0D9
:1034D0008430B1F0853009F52FC0109273022CC0F2
:1034E000103841F480E061E00E94BC06CE010E94E9
:1034F000AC061D2D109273021FC0109273021CC0E7
:10350000103441F480E061E00E94BC06C7010E94D3
:10351000AC06102F109273020FC0109273020CC0F1
:103520000F2EF9EEEF2EF0E0FF2EF02D00E8C0EEAA
:10353000D0E0DD246894D6F880917302853009F0DC
:10354000B8CF8AE090E00E94B32E181759F00E947D
:103550006D0682EF90E00E94AC068AE090E0612F59
:103560000E94C12EDF91CF911F910F91FF90EF909C
:10357000DF9008950E94331A8AE090E00E94B32EF3
:1035800080937A0208950E94331A8AE090E00E94A4
:10359000B32E80937A020E945B10882311F00E9460
:1035A0004012089581E090E00E94B32E88232CF40D
:1035B00081E090E060E00E94C12E80E090E00E94F7
:1035C000B32E843028F080E090E060E00E94C12EAD
:1035D00082E090E00E94B32E803128F082E090E0FB
:1035E00065E00E94C12E83E090E00E94B32E8B35EF
:1035F00028F083E090E06EE10E94C12E84E090E02C
:103600000E94B32E8B3528F084E090E06FE00E949A
:10361000C12E85E090E00E94B32E893028F085E02D
:1036200090E061E00E94C12E86E090E00E94BB2EF7
:103630008F5F9F4F31F486E090E060E97AE10E946D
:10364000CE2E88E090E00E94BB2E8F5F9F4F31F41A
:1036500088E090E06CE775E10E94CE2E8AE090E071
:103660000E94B32E803459F08AE090E00E94B32E7D
:10367000803829F08AE090E060E40E94C12E8AE25E
:1036800090E00E94B32E823028F08AE290E061E060
:103690000E94C12E08950E94D21A8FEF9FEF90933F
:1036A000C1028093C0029093700280936F021092C7
:1036B000720281E090E00E94B32E0E943F0D0E94B2
:1036C00009120E94460D0E9404120E94530D84E0CC
:1036D00090E00E94B32E8093830210929002109289
:1036E0008F021092E202109280021092E402109275
:1036F000E3021092C5021092C40210928C02109242
:10370000E10288E08093C60284E690E09093BE02D6
:103710008093BD02AAEAB2E0FD01118210823296C6
:10372000808181608083FD0133961182108215961D
:103730008C9181608C931092790210927802109291
:1037400071021092BB021092DB028AE090E00E94AC
:10375000B32E80937A021092BA0210928D021092C8
:103760007F0210927E021092DA0210928E0281E0A5
:103770008093A102109284020895AF92BF92CF92DB
:10378000DF92EF92FF920F93CF93DF937C01EB01D7
:103790006A01A22E109273021092C2021092BF020E
:1037A000CB010E94B32E082FF601E80FF11DB49053
:1037B0000E946D0688E00E9469068CE00E946906FE
:1037C000C7010E94AC0680E061E00E94BC068B2D20
:1037D00063E00E94870E0E94AC0688EC90E00E9495
:1037E000AC0621C08091BF02813021F08091C202DD
:1037F0008130C1F78091BF028130A9F40A1510F021
:1038000000E001C00F5F1092BF0280E061E00E9403
:10381000BC06F601E00FF11DE4918E2F63E00E94DB
:10382000870E0E94AC068091C2028130D9F61092B8
:10383000C202CE010E94B32E081751F00E946D06FD
:103840008EEC90E00E94AC06CE01602F0E94C12E4B
:10385000DF91CF910F91FF90EF90DF90CF90BF90CD
:10386000AF9008955F926F927F928F929F92AF92E6
:10387000BF92CF92DF92EF92FF920F931F93DF934D
:10388000CF930F92CDB7DEB78C015B01E42E198286
:103890001092C2021092BF02CB010E94B32EFE2CE6
:1038A0008E1508F4F82E0E946D0688E00E946906C5
:1038B0008DE00E946906C8010E94AC0680E061E0CC
:1038C0000E94BC068F2D63E00E94870E0E94AC060A
:1038D0008AEF90E00E94AC0684E061E00E94BC06A2
:1038E0008981882309F019C18F2D64E60E945A2E20
:1038F000C82E482F50E09A01220F331FCA01880FAB
:10390000991F880F991F880F991F280F391F8F2D16
:103910006AE00E945A2E082F021B8CE99FEF9C013F
:10392000429FC001439F900D529F900D11244F2D37
:10393000480F802F90E09C01220F331F880F991FA2
:10394000880F991F880F991F280F391FD42ED21A5C
:103950008E2D64E60E945A2E682E772414E00F2ED6
:10396000F4E65F2EF02D8E2C99240F2EFAE0EF2E28
:10397000F02D8091C202882321F48091BF02813012
:10398000C1F71130D1F1113038F0123009F479C09B
:10399000143009F0BAC0ABC08091C202813031F45A
:1039A00084E061E00E94BC0614E0AFC08091BF02D9
:1039B000813009F0AAC08C2D90E001966816790636
:1039C00014F4CC2401C0C3940E9DC00111242D2DEC
:1039D000280FC59CC0011124F22EF80E80E061E092
:1039E0000E94BC068F2D63E00E94870E0E94AC06E9
:1039F00080E061E00E94BC0688C08091C2028130F4
:103A000031F480E061E00E94BC0610E07EC080914D
:103A1000BF02813009F079C0C59CB0011124CB01EF
:103A20008D0D911D202F30E02F5F3F4FA901440FD6
:103A3000551F220F331F220F331F220F331F420F38
:103A4000531F840F951F8816990624F0093010F42F
:103A50000F5F01C000E02D2D260F0E9DC001112427
:103A6000F22EF80E80E061E00E94BC068F2D63E02C
:103A70000E94870E0E94AC0681E061E00E94BC06B5
:103A800044C08091C202813029F461E00E94BC06EA
:103A900011E03BC08091BF028130B9F5C59CA00107
:103AA00011240E9D900111248D2D90E00196840F1C
:103AB000951F820F931F881699062CF088E08D15AC
:103AC00010F0D39401C0DD24822F840FF82EFD0C5A
:103AD00080E061E00E94BC068F2D63E00E94870EAB
:103AE0000E94AC0682E061E00E94BC060EC080919C
:103AF000C202813029F482E061E00E94BC0612E03B
:103B00008091BF02813009F489831092C202109221
:103B1000BF028981882309F42CCFC5010E94B32EEE
:103B20008F1551F00E946D068EEC90E00E94AC065D
:103B3000C5016F2D0E94C12E0F90CF91DF911F9173
:103B40000F91FF90EF90DF90CF90BF90AF909F903C
:103B50008F907F906F905F900895682F80E090E045
:103B60000E94C12E0895DF92EF92FF920F931F9350
:103B7000DF93CF9300D00F92CDB7DEB71B821A82AE
:103B800020E00F2EF6EEEF2EF3E0FF2EF02DDD24D9
:103B9000D3942EC080915C02F701E80FF11D908153
:103BA00099838F5F80935C028981803209F18981DA
:103BB0008033C8F089818A33B0F40A811B818981FE
:103BC0000E94C5109801220F331F000F111F000F14
:103BD000111F000F111F200F311F280F311D3B83B4
:103BE0002A832D2D05C084E990E00E943D2D42C01E
:103BF00080915C02F701E80FF11D80818D3051F654
:103C0000222329F489E696E00E944D2D33C08A8153
:103C10009B818150924028F08CE896E00E944D2DC7
:103C200029C00E942E2D6A817B817695762F66278A
:103C30007795679586EE92E040E850E00E94430B4E
:103C40008823A1F000E010E00F2EF6EEEF2EF2E058
:103C5000FF2EF02DF701E00FF11F80810E94352D1E
:103C60000F5F1F4F00381105A9F704C080E091E0F5
:103C70000E943D2D0F900F900F90CF91DF911F91DB
:103C80000F91FF90EF90DF9008950E942E2D8CEC05
:103C900096E00E944D2D89E890E00E943D2D089508
:103CA0004F925F926F927F928F929F92AF92BF924C
:103CB000CF92DF92EF92FF920F931F93DF93CF93F8
:103CC000CDB7DEB7A2970FB6F894DEBF0FBECDBF5B
:103CD000EE24FF2420E030E00F2EFFEB4F2EF5E026
:103CE0005F2EF02D00E00F2EF3E0CF2EDD24F02D1F
:103CF000CC0EDD1EC6017C2C692E0F2EF6EE8F2E0B
:103D0000F3E09F2EF02DC901880F991FF201E80FF3
:103D1000F91F25913491A901F9018491882311F4A7
:103D2000102F0FC0102FFA018491F601E10FF11D41
:103D300080831F5F2F5F3F4FA901F9018491882382
:103D400091F780915C0260915D029401280F311D12
:103D5000C901702F472D562D212F302F0E948D2EF7
:103D60005C0180915C0260915D02F401E80FF11D3D
:103D7000CF01702F472D562D212F302F0E948D2ED1
:103D8000892BB9F0C501865E93409A83898320917F
:103D90005C0289819A81280F210F20935C02809117
:103DA0005D0229813A81811B821B80935D028E2DE9
:103DB0000AC00894E11CF11C9701F5E4EF16F10428
:103DC00009F0A1CF8FEFA2960FB6F894DEBF0FBE19
:103DD000CDBFCF91DF911F910F91FF90EF90DF90BA
:103DE000CF90BF90AF909F908F907F906F905F909B
:103DF0004F900895EAE2F0E080818F7780830E94FF
:103E0000501EE82FF0E0E534F10508F0D7C0E65D7C
:103E1000FF4FEE0FFF1F0590F491E02D09940E94D3
:103E2000B619D0C00E94AE12CDC00E94451ECAC0B5
:103E30000E94C518C7C00E94A012C4C00E94B1173A
:103E4000C1C00E94B31DBEC00E94B116BBC00E947B
:103E5000F213B8C00E94AC16B5C00E94ED13B2C0F8
:103E60000E94A716AFC00E94E813ACC00E94A21621
:103E7000A9C00E94E313A6C00E949D16A3C00E9481
:103E8000DE13A0C00E9498169DC00E94D9139AC04C
:103E90000E94931697C00E94D41394C00E948E165D
:103EA00091C00E94CF138EC00E9489168BC00E94C1
:103EB000CA1388C00E94841685C00E94C51382C0A0
:103EC0000E947F167FC00E94C0137CC00E947A1699
:103ED00079C00E94BB1376C00E94851573C00E94F2
:103EE000A81370C00E94AF196DC00E9492126AC0E0
:103EF0000E94A81967C00E94841264C00E945018D2
:103F000061C00E946F155EC00E94A1195BC00E9433
:103F1000611558C00E949A1955C00E94531552C08D
:103F20000E94A8174FC00E9445154CC00E949F17C1
:103F300049C00E94371546C00E94961743C00E9490
:103F4000291540C00E948D173DC00E941B153AC024
:103F50000E94841737C00E940D1534C00E947B1741
:103F600031C00E94FF142EC00E9472172BC00E9405
:103F7000F11428C00E94691725C00E94E31422C0D2
:103F80000E9460171FC00E94D5141CC00E945717C2
:103F900019C00E94C71416C00E944E1713C00E9479
:103FA000B91410C00E9445170DC00E94AB140AC07E
:103FB0000E943C1707C00E949D1404C089E496E04B
:103FC0000E944D2D1092BA020E948A2D08952F92C0
:103FD0003F924F925F926F927F928F929F92AF9299
:103FE000BF92CF92DF92EF92FF920F931F93DF93D6
:103FF000CF9300D0CDB7DEB785E089830E946D06F0
:104000000E94CF068BE090E00E94B32E882339F007
:104010008BE090E00E94B32E8F3F09F08FC010928A
:1040200073028AE191E00E94AC0680E061E00E94A8
:10403000BC0680E291E00E94AC060BE010E016C0E6
:104040008091BA02882341F48091BF02882321F431
:104050008091C2028823A1F38091BA02882311F0D3
:104060000E94FA1E8091C202813071F08091C202DA
:10407000813029F0C8010E94B32E882309F3C801BA
:104080000E94B32E8F3FE1F28091C202813009F08D
:1040900040C01092C2020E946D060E94CF0686E2C6
:1040A00091E00E94AC068981882359F18091C20277
:1040B000882339F510928202109281028091810248
:1040C000909182028057974120F48091C202882308
:1040D000A9F38091C2028823A1F487E061E00E94E5
:1040E000BC06898181508983898160E00E94870EA6
:1040F0000E94AC068981882321F08091C202882326
:10410000C9F28091C202813021F41092C2020E9451
:10411000C31A1092900210928F02EBE3F0E08081BC
:104120008160808384E090E00E94B32E80938302BC
:10413000109273021092BF02109267028BE090E01F
:104140000E94B32E882309F489C18BE090E00E947D
:10415000B32E8F3F09F482C11A820F2EF6E3EF2EA1
:10416000F1E0FF2EF02D0F2EF0E3CF2EDD24F02D09
:1041700006E310E00F2EF8E56F2EF1E07F2EF02D14
:104180000F2EFFE54F2EF1E05F2EF02D0F2EF1E503
:104190002F2EF1E03F2EF02D0F2EF6E4AF2EF1E0A2
:1041A000BF2EF02D0F2EFDE48F2EF1E09F2EF02D6F
:1041B0008FC00E946D060E94CF06C7010E94AC0608
:1041C0008091BA02882341F48091BF02882321F4B0
:1041D000809167028823A1F38091BA02882311F0AD
:1041E0000E94FA1E8091BF028130C9F4F6018081DD
:1041F00085FD0FC012C081E30E94352D109282020E
:1042000010928102809181029091820280579741A1
:10421000C8F3F801808182FFEECF1092BF02809137
:1042200067028130F9F0823009F052C00E946D06B9
:104230000E94CF06C5010E94AC0680E061E00E94AA
:10424000BC06C4010E94AC06109282021092810248
:10425000809181029091820280579741C8F3109219
:10426000670236C00E940E128823B9F081E08A836B
:104270000E946D060E94CF06C1010E94AC061092FA
:104280008202109281028091810290918202805775
:104290009741C8F3109267021BC00E946D060E94EE
:1042A000CF06C3010E94AC0680E061E00E94BC061C
:1042B000C2010E94AC06109282021092810280918B
:1042C00081029091820280579741C8F31092670251
:1042D0008A81882309F46DCF0E946D060E94CF0663
:1042E000109273021092BF021092670284E691E06E
:1042F0000E94AC068981882399F180916702882306
:1043000079F580917302882359F5109282021092F8
:10431000810280918102909182028057974120F41E
:10432000809173028823A9F3809173028823C1F4DA
:1043300087E061E00E94BC06898181508983898180
:1043400060E00E94870E0E94AC068981882341F0BC
:1043500080916702882321F4809173028823A9F257
:1043600080916702813089F1823009F064C00E9437
:104370006D060E94CF0686E491E00E94AC0680E0C4
:1043800061E00E94BC068DE491E00E94AC061092B0
:104390008202109281028091810290918202805764
:1043A0009741C8F30E946D060E94CF0686E791E010
:1043B0000E94AC0680E061E00E94BC068FE791E0BD
:1043C0000E94AC061092670236C00E940E1288232B
:1043D00029F00E94C31A109267022DC00E946D0638
:1043E0000E94CF0688E591E00E94AC0680E061E083
:1043F0000E94BC068FE591E00E94AC0610928202FA
:10440000109281028091810290918202805797419F
:10441000C8F30E946D060E94CF0686E791E00E94D5
:10442000AC0680E061E00E94BC068FE791E00E944C
:10443000AC06109267021092900210928F02EBE38A
:10444000F0E080818160808384E090E00E94B32E60
:1044500080938302109273021092BF020F900F900C
:10446000CF91DF911F910F91FF90EF90DF90CF9050
:10447000BF90AF909F908F907F906F905F904F9084
:104480003F902F9008950E946D068091A10288238D
:1044900049F080E060E00E94BC0688E891E00E945C
:1044A000AC0602C00E94512E87E060E00E94BC066C
:1044B00080E00E94940608956F927F928F929F925F
:1044C000AF92BF92CF92DF92EF92FF920F931F9322
:1044D000DF93CF9300D000D0CDB7DEB76A837B8364
:1044E0008C83F72EE62ED82E0E9409128F1571F4B8
:1044F0008AE290E00E94B32E882309F478C181E01B
:1045000090E00E94B32E8E1509F471C102E310E011
:10451000F80180818061808386E991E00E943D2DD1
:104520000E94E806FB82EA82DC826E2D7F2D8D2DB3
:104530000E941B100E948313F80180818F7E80836C
:104540002D2D30E08091BD029091BE0228173907D1
:1045500084F58091BD029091BE02821B930B9093D3
:10456000BE028093BD022091BD023091BE02C901FE
:10457000880F991F220F331F220F331F220F331F63
:10458000820F931F6DE770E00E947A2E6093C6023F
:104590008091C602882309F022C18091BD029091CA
:1045A000BE02181619060CF01AC181E08093C602EB
:1045B00016C11092C6021092BE021092BD02E2E332
:1045C000F0E08081806180838091C6020E94D20DDC
:1045D0000E94D20F19828BE090E00E94B32E8823B4
:1045E00009F4AAC08BE090E00E94B32E8F3F09F43B
:1045F000A3C0109273021092BF02109267020E9431
:10460000F0060F2EFAE9CF2EF1E0DF2EF02D0F2E5F
:10461000F8EAAF2EF1E0BF2EF02D02E310E0FF2408
:104620006894F4F80F2EF2EC8F2EF1E09F2EF02D0F
:104630000F2EF7EB6F2EF1E07F2EF02D0E946D060E
:104640000E94CF06C6010E94AC0680E061E00E9495
:10465000BC06C5010E94AC0621C0F80180818F25EF
:10466000808381E30E94352D109282021092810294
:104670008091810290918202885E9340C8F3F80194
:1046800080818F2580831092820210928102809116
:10469000810290918202885E9340C8F38091670204
:1046A0008823D9F2809167028130B9F0823031F6E7
:1046B0000E946D060E94CF06C3010E94AC061092B4
:1046C0008202109281028091810290918202805731
:1046D0009741C8F310926702B1CF0E940E1288234F
:1046E000B1F00E946D060E94CF0681E591E00E9424
:1046F000AC06109282021092810280918102909108
:10470000820280579741C8F3109267025BC00E94F3
:104710006D060E94CF06C4010E94AC061092820270
:10472000109281028091810290918202805797417C
:10473000C8F31092670282CF0E94F0060E944322C3
:1047400002E310E0DD246894D4F80F2EF6E3EF2E98
:10475000FF24F02D34C0F80180818D25808381E312
:104760000E94352D10928202109281028091810266
:1047700090918202885E9340C8F3F80180818D2574
:104780008083109282021092810280918102909126
:104790008202885E9340C8F3F701808190E09C011B
:1047A0002470307082FF04C02430310539F404C015
:1047B00089818F5F898303C0198201C01982898131
:1047C000843148F2E2E3F0E080818F7E80830E94B2
:1047D0004B1B109273021092BF02109267028091DD
:1047E000C6020E94D20D0E94F0060E9443220F9042
:1047F0000F900F900F90CF91DF911F910F91FF902D
:10480000EF90DF90CF90BF90AF909F908F907F9070
:104810006F9008952F923F924F925F926F927F9286
:104820008F929F92AF92BF92CF92DF92EF92FF92C0
:104830000F931F93DF93CF9300D000D000D0CDB75C
:10484000DEB70E94510C0E94BC0C0E94C60C0E9454
:104850001F090E94A50D0E94980D0E944B1B0E94EB
:104860008F070E946D060E94D52B0E94FE0F0E94AA
:104870001C2DEAE2F0E08081806880838081806482
:1048800080830E941A0A80E69AEE0197F1F78EEC77
:1048900091E00E94AC0680E061E00E94BC0685EDDC
:1048A00091E00E94AC060E94D40778940E94E8062A
:1048B0001092820210928102809181029091820274
:1048C00088589341C8F30E94F00684E190E00E946A
:1048D000BB2E64E670E00E94662E8AE590E0DC0163
:1048E0006A9FC0016B9F900D7A9F900D1124909349
:1048F000D0028093CF02109273021092C2021092E3
:10490000BF020E9443220E948A2D10928D021092B3
:104910008202109281028091810290918202885ECF
:104920009340C8F30F2EFCEDEF2EF1E0FF2EF02D9B
:104930000F2EFBEF8F2EF1E09F2EF02D0F2EFCEEB1
:104940006F2EF1E07F2EF02D0F2EF2EA4F2EF2E0C7
:104950005F2EF02D82010F5F1F4F0F2EF9EACF2E31
:10496000F9E0DF2EF02D0F2EF3ED2F2EF2E03F2E8B
:10497000F02D0F2EF7ECAF2EF2E0BF2EF02D0894A5
:10498000A11CB11C0E94F7138091BF02882309F477
:104990004FC0813009F04AC08091A102882389F17B
:1049A00080918402882339F41092A1020E94E806C3
:1049B0000E94432238C00E946D0680E060E00E94A1
:1049C000BC06C7010E94AC061092820210928102BE
:1049D000809181029091820280549F41C8F30E948D
:1049E0004322109282021092810280918102909162
:1049F000820288589341C8F30E94F0061092840204
:104A000012C081E08093A1020E9443221092820290
:104A1000109281028091810290918202885B9B407A
:104A2000C8F30E94F0061092BF0202C01092BF02AB
:104A30008091C202882309F444C0813009F03FC04C
:104A40008091A1028823C1F180918402882379F4A6
:104A50000E946D0680E060E00E94BC06C3010E94D7
:104A6000AC060E94E80681E08093840225C00E9483
:104A70006D0680E060E00E94BC06C4010E94AC06A6
:104A800010928202109281028091810290918202A2
:104A900080549F41C8F30E944322109282021092D8
:104AA0008102809181029091820288589341C8F3DB
:104AB0000E94F006109284021092C20202C010926C
:104AC000C20280918C02813021F0823009F047C00F
:104AD0002FC010928C0280E00E945E0D882309F0A6
:104AE0003EC0F2019081D8018C91880F880F829589
:104AF0008F70F601E80FF11DE4918C919C83EE8399
:104B000082958695869583708D83D101FE013496BA
:104B100083E001900D928150E1F76091D302709192
:104B2000D4028091D5020E945C2210928C0217C0A0
:104B3000EBE3F0E08081816080831092820210922A
:104B400081028091810290918202805A9F40C8F335
:104B5000EBE3F0E080818E7F808310928C02809165
:104B60005D02882399F10E94BC12813079F580E0C2
:104B70000E947B0D882351F5E7ECF2E09081D5018E
:104B80008C91880F880F82958F70F601E80FF11DC8
:104B9000E4918C919983EB838295869586958370B9
:104BA0008A83ABE7B2E0FE01319683E001900D927B
:104BB0008150E1F760917B0270917C0280917D02CF
:104BC0000E945C220E948A2D10928D0280917302B5
:104BD000833009F4B4C0843030F4813059F082302D
:104BE00009F0ADC15AC0843009F4EFC0853009F036
:104BF000A6C13EC18091A102882309F43FC08091E3
:104C000084028823A1F40E94010E813039F48DE2E0
:104C100090E00E94BB2E682F892F06C08BE290E0A7
:104C20000E94BB2E682F892F0E94BE1133C00E94A4
:104C30006D0680E060E00E94BC0689E092E00E9480
:104C4000AC061092820210928102809181029091B2
:104C5000820280549F41C8F30E9443221092820234
:104C60001092810280918102909182028858934132
:104C7000C8F30E94F006109284020CC08091E604F2
:104C80009091E7040496FC01859194910E94EB2D8C
:104C90000E942C2E1092730275CE8091A10288235F
:104CA00009F43FC0809184028823A1F40E94010E80
:104CB000813039F481E390E00E94BB2E682F892F68
:104CC00006C08FE290E00E94BB2E682F892F0E94C1
:104CD000BE1132C00E946D0680E060E00E94BC06FA
:104CE00083E192E00E94AC0610928202109281024F
:104CF000809181029091820280549F41C8F30E946A
:104D0000432210928202109281028091810290913E
:104D1000820288589341C8F30E94F00610928402E0
:104D20000BC08091E6049091E704FC018591949179
:104D30000E94EB2D0E942C2E1092730223CE8091A4
:104D4000A102882309F43EC0809184028823A1F443
:104D50000E94010E813039F485E390E00E94BB2E61
:104D6000682F892F06C083E390E00E94BB2E682F36
:104D7000892F0E94BE1126C00E946D0680E060E06F
:104D80000E94BC0680E292E00E94AC061092820271
:104D900010928102809181029091820280549F4101
:104DA000C8F30E94432210928202109281028091E5
:104DB00081029091820288589341C8F30E94F006C4
:104DC0001092840210927302DDCD8091A10288239B
:104DD00009F43FC0809184028823A1F40E94010E4F
:104DE000813039F489E390E00E94BB2E682F892F2F
:104DF00006C087E390E00E94BB2E682F892F0E9497
:104E0000BE1133C00E946D0680E060E00E94BC06C7
:104E10008CE292E00E94AC06109282021092810213
:104E2000809181029091820280549F41C8F30E9438
:104E3000432210928202109281028091810290910D
:104E4000820288589341C8F30E94F00610928402AF
:104E50000CC08091E6049091E7040296FC018591D4
:104E600094910E94EB2D0E942C2E109273028ACDF9
:104E70008091A102882309F43FC080918402882395
:104E8000A1F40E94010E813039F48DE390E00E947C
:104E9000BB2E682F892F06C08BE390E00E94BB2EAB
:104EA000682F892F0E94BE1147C00E946D0680E0C6
:104EB00060E00E94BC0688E392E00E94AC0610927B
:104EC000820210928102809181029091820280542C
:104ED0009F41C8F30E9443221092820210928102E5
:104EE000809181029091820288589341C8F30E9478
:104EF000F0061092840220C08091E6049091E704AD
:104F0000FC0138962491222379F0213019F02230C7
:104F100099F405C00E947D120E942C2E0DC00E94A3
:104F2000BA1A0E942C2E08C00696FC018591949115
:104F30000E94EB2D0E942C2E1092730223CD109212
:104F4000730220CD1F920F920FB60F9211242F9350
:104F50008F939F93AF93BF93EF93FF9380B384702E
:104F60008093570280915702882351F480917402F4
:104F7000909175020196909375028093740240C0DF
:104F80008091D8029091D90201969093D902809392
:104F9000D80280918002882309F18091D8029091F3
:104FA000D90289559140D0F0109280028091E3029D
:104FB0009091E4020D9720F081E080938C0203C071
:104FC00082E080938C0210928E028091720288237C
:104FD00029F4E9E5F0E080818F7780838091D80221
:104FE0009091D9028955914058F08091720288239E
:104FF00039F410928E02E9E5F0E080818F778083AA
:1050000080917202813009F085C080917602909182
:105010007702892B89F0E5E3F0E0908180917A02B4
:1050200089278083809176029091770201979093EF
:105030007702809376026EC0E5E3F0E080818F7B9B
:10504000808380818F7780838091D1029091D2027A
:105050001816190684F480818F7B808380818F7776
:1050600080838091D1029091D20201979093D202D5
:105070008093D1024FC08091870290918802892B42
:10508000A1F180918602882339F4E5E8F2E080817D
:105090008F5F819380E88083A5E8B2E08D91E2EB99
:1050A000F2E0E80FF11D80819C91892339F086E5BB
:1050B00090E0909377028093760206C08BE290E0B6
:1050C00090937702809376028BE290E09093D202E5
:1050D0008093D102E6E8F2E0808186958193808119
:1050E000918101979183808315C010927202E5E34C
:1050F000F0E080818F7D80838091BB028F5F809301
:10510000BB0280918E02882329F4E9E5F0E08081DA
:105110008F778083FF91EF91BF91AF919F918F9196
:105120002F910F900FBE0F901F901895DF93CF9384
:1051300000D0CDB7DEB78091DA02882349F482E14E
:1051400090E00E94B32E90E00E94D10B8093DA028F
:1051500080917E0290917F02019739F4CE010196F1
:105160000E94380C1092DA0204C0CE0101960E940F
:10517000260C20917E0230917F028091CF02909187
:10518000D0022817390781F50E94010E813061F5A0
:10519000B29B02C01A8202C081E08A838A81813078
:1051A00019F58091C6028823F9F080918F029091C1
:1051B0009002892BC9F080918F0290919002019703
:1051C0009093900280938F020E94A811CE010196C5
:1051D0000E94380C1092DA0284E190E00E94BB2E0B
:1051E00090937F0280937E0289810F900F90CF91E0
:1051F000DF9108951F920F920FB60F9211242F93F3
:105200003F934F935F936F937F938F939F93AF934E
:10521000BF93EF93FF93DF93CF930F92CDB7DEB79A
:10522000E9E5F0E080818F7E8083789480918F0221
:1052300090919002892BC9F080917E0290917F021B
:10524000892B99F00E9496288CBF80917E029091C4
:105250007F02019709F41CBE80917E0290917F022B
:10526000019790937F0280937E0280918F029091AC
:105270009002892BF1F4EBE3F0E080818160808380
:1052800080917E0290917F02892B99F00E9496284E
:105290008CBF80917E0290917F02019709F41CBE21
:1052A00080917E0290917F02019790937F0280937C
:1052B0007E028091550290915602209155023091C4
:1052C000560264E670E00E94662E84E690E0AC012F
:1052D000649FC001659F900D749F900D11248217EB
:1052E000930709F0ADC08091D6029091D702019644
:1052F0009093D7028093D6028091BF02882309F051
:1053000049C0B29B02C0198202C081E089838981B1
:10531000882319F08130D1F51AC08091AA029091AA
:10532000AB02049750F0EAEAF2E011821082329662
:1053300080818E7F808381E02BC0EAEAF2E01182D7
:105340001082329680818160808380E021C08091CC
:10535000AA029091AB02049750F0EAEAF2E01182BF
:105360001082329680818E7F808381E011C0AAEA0C
:10537000B2E0FD018191919120812170820F911DF8
:1053800011969C938E938091BF0202C08091BF02C0
:105390008093BF028091C202882309F049C0B09B6C
:1053A00002C0198202C081E089838981882319F0B3
:1053B0008130D1F51AC08091AD029091AE02049770
:1053C00050F0EDEAF2E011821082329680818E7FF9
:1053D000808381E02BC0EDEAF2E0118210823296E8
:1053E00080818160808380E021C08091AD029091B6
:1053F000AE02049750F0EDEAF2E01182108232968C
:1054000080818E7F808381E011C0ADEAB2E0FD0132
:105410008191919120812170820F911D11969C9311
:105420008E938091C20202C08091C2028093C20218
:1054300080917302882321F40E94382C8093730298
:105440008091550290915602019690935602809356
:1054500055028091550290915602895E934008F45E
:1054600061C010925602109255029091DC02809118
:105470004702892331F4E5E3F0E08081877F808370
:1054800005C0E5E3F0E08081886080839091DD02D3
:1054900080914702892331F4E5E3F0E080818F7E3B
:1054A000808305C0E5E3F0E0808180618083909196
:1054B000DE0280914702892331F4E5E3F0E0808148
:1054C0008B7F808305C0E5E3F0E08081846080838A
:1054D0009091DF0280914702892331F4E2E3F0E00A
:1054E00080818F77808305C0E2E3F0E0808180686F
:1054F000808380914702880F809347028091470202
:10550000882319F481E080934702859B06C0EBE372
:10551000F0E080818260808305C0EBE3F0E0808171
:105520008D7F80838091C302882329F08091BC0203
:105530008CBF1092C30282991BC080917802909117
:105540007902805A9F4048F48091780290917902C4
:1055500001969093790280937802809178029091DD
:105560007902805A9F4070F081E0809371020AC0F6
:10557000109279021092780280917102882311F0C2
:105580001092710280918102909182020196909313
:10559000820280938102F894E9E5F0E080818061E5
:1055A00080830F90CF91DF91FF91EF91BF91AF91E9
:1055B0009F918F917F916F915F914F913F912F912B
:1055C0000F900FBE0F901F9018951F920F920FB65D
:1055D0000F9211242F933F934F935F936F937F9379
:1055E0008F939F93AF93BF93EF93FF93DF93CF93EB
:1055F0000F92CDB7DEB781E080938B02198289814B
:105600008F5F89830E949C090F90CF91DF91FF915A
:10561000EF91BF91AF919F918F917F916F915F912A
:105620004F913F912F910F900FBE0F901F901895A3
:105630001F920F920FB60F9211242F933F934F9307
:105640005F936F937F938F939F93AF93BF93EF93EA
:10565000FF93E9E5F0E080818068808381E08093BA
:105660008E0205B600FC27C0E5E5F0E08081816090
:105670008083809180028823A9F08091D802909144
:10568000D902C99730F48091D8029091D9024E97EF
:1056900048F4109280021092E4021092E30282E039
:1056A00080938C0210927502109274021092D902AB
:1056B0001092D80269C0E5E5F0E080818E7F80839A
:1056C00080918002882309F442C0809174029091F5
:1056D0007502C997A8F480917402909175024E9753
:1056E00078F08091E3029091E4029C012F5F3F4F9C
:1056F0003093E4022093E30260E00E94D90C3CC0A6
:10570000809174029091750284369105B0F4809175
:105710007402909175028934910578F08091E302CA
:105720009091E4029C012F5F3F4F3093E40220935D
:10573000E30261E00E94D90C1FC010928002109217
:10574000E4021092E30282E080938C0215C0809103
:105750007402909175028A3B910570F480917402F5
:10576000909175028F39910538F01092E4021092F1
:10577000E30281E08093800210927502109274021D
:105780001092D9021092D802FF91EF91BF91AF9180
:105790009F918F917F916F915F914F913F912F9149
:1057A0000F900FBE0F901F901895AAE3B0E08C9158
:1057B000877F8C93EBE3F0E08081886080838C911D
:1057C0008B7F8C938081846080838C918F7D8C9380
:1057D0008081806280838C918F7B8C9380818064B8
:1057E00080838C918F7E8C93808180618083A0E9FF
:1057F000B2E0FD0111821082329680818160808347
:10580000FD01339611821082FD0135968081816001
:105810008083FD01369611821082FD0138968081C9
:1058200081608083FD01399611821082FD013B96D3
:10583000808181608083FD013C96118210821E96DA
:105840008C9181608C930895E9E3F0E080818695E6
:10585000869586958095982F9170808182FF9260C1
:10586000CD9B9460CE9B9860CC9B9061892F0895CE
:105870000E94242C823091F1833038F4882309F47B
:10588000A9C0813009F0AAC00AC0883009F464C0F8
:10589000803109F480C0843009F0A0C03EC08091FE
:1058A000900290919102049750F0E0E9F2E01182A9
:1058B0001082329680818E7F808381E00895A0E9F6
:1058C000B2E0FD018191919120812170820F911DA3
:1058D00011969C938E938091730208958091930208
:1058E00090919402049750F0E3E9F2E01182108263
:1058F000329680818E7F808382E00895A3E9B2E0B2
:10590000FD018191919120812170820F911D11964D
:105910009C938E938091730208958091960290914A
:105920009702049750F0E6E9F2E011821082329675
:1059300080818E7F808383E00895A6E9B2E0FD0137
:105940008191919120812170820F911D11969C93DC
:105950008E938091730208958091990290919A029A
:10596000049750F0E9E9F2E01182108232968081CA
:105970008E7F808384E00895A9E9B2E0FD018191E2
:10598000919120812170820F911D11969C938E938D
:1059900080917302089580919C0290919D020497DA
:1059A00050F0ECE9F2E011821082329680818E7F15
:1059B000808385E00895ACE9B2E0FD018191919189
:1059C00020812170820F911D11969C938E9380915E
:1059D000730208950E94D52B80E00895A0E9B2E0FB
:1059E000FD0111821082329680818E7F8083FD01BD
:1059F000339611821082FD01359680818E7F8083DF
:105A0000FD01369611821082FD01389680818E7FCD
:105A10008083FD01399611821082FD013B968081C1
:105A20008E7F8083FD013C96118210821E968C91A0
:105A30008E7F8C9380E00895A0E4B0E01C9287E60E
:105A400089B9EBE2F0E080818D7F808388E98AB9B3
:105A500086E88C93089580915A0208951092580216
:105A60001092590210925A020895982FEBE2F0E03A
:105A7000808185FFFDCF9CB90895CF93DF93FC0112
:105A80008081882339F0EF010E94352D898121968C
:105A90008823D1F7DF91CF910895CF93DF93FC0155
:105AA0008491882349F0EF0121960E94352DFE0153
:105AB000219684918823C9F7DF91CF9108951F9291
:105AC0000F920FB60F9211248F93EF93FF93809153
:105AD0005A028823A1F080915902E6EEF2E0E80F25
