:100000000C946F210C94F5270C948C210C948C216A
:100010000C94CC250C948C210C948C210C9463268C
:100020000C948C210C948C210C948C210C948C219C
:100030000C948C210C948C210C948C210C948C218C
:100040000C948C210C948C210C948C210C948C217C
:100050000C948C2153353B37394041363D3D3F5F51
:100060004D355B6E94858D8C89939A7C8CA48AA186
:1000700087899899ACB8AEC0B0BCC0B7ABC4C8BA99
:10008000BAB9BB8DAFB09D86889898A4A99E989464
:100090009EBCBAA599988F778C94746F819B815F71
:1000A000656A4C4B45465A674D46564E6B6B7240DF
:1000B000566B5769516E8286808DA8A496A5A6B10D
:1000C000B0ACA8A79486A49AA8B5B8C2AFBFADB08B
:1000D000C9B6B6B3A7A4A5A1B58E8897776863689B
:1000E000664757414A4B42464448414E3A42545B68
:1000F00040513D3B46343C33414B403C3F4A4D53DD
:10010000463C5B52636C6065696455636A7365590C
:10011000675F6E706E6C777A6F8783817D8AA1AC22
:10012000AA98A1B3A19DB1C1C1C3C8C6C7C7C5BC68
:10013000C8C0C7BEBDBDB1C1C1BAA7979C979182C7
:10014000828474747256584E4C6661766959513A7D
:100150004A3A5B8B90A66F6E7E82798B9B8093A4CC
:10016000BBBAC1BCBEC2BCBFA5B8B0A9AFAF96B444
:10017000BFB9B3AABC88939FA594B47B7D766E79F2
:100180004D74464B47473E424B4C524053495054A6
:1001900052566A646E947B907E757E7994678573FF
:1001A0007F856F7E7383678159A66C687B5D8E65E2
:1001B0009A7C8A95A1799CA28A8B767C6D927487B1
:1001C0006C888664778464706A7A7D6D8158895EF4
:1001D0007263988A6B7E836D70837E59568A585CF1
:1001E0006971587D69486A794F736A83495F726F94
:1001F00063668471AB74727995998E9BAC86A265A7
:10020000A9877EA082A28B9B949D9C99A2A983BA68
:10021000909FA59A8198A07C9F7CA3887DA69BAB8C
:10022000A2869C9B8EB4A184A3C6928FB3908DAB03
:10023000A79FA995A48D8AA68D84816591749297B4
:10024000648B9982696C887B6F865C6D4E776B637B
:100250006775775D6F58713E7765627A5274627622
:100260006D5A795F81895C77717C6163836C92845C
:100270009688669775956576736E86917669975EB2
:100280007A87865F9B7C7B778E73728F626B7C85AF
:10029000867175927994829E7A806E8D6482808058
:1002A000776276599852636B656C577B65567E69A9
:1002B00072607A6B7958718C68826968848B7E88E9
:1002C00085956A6F8D78697B648A755B849F7A797E
:1002D0008F8076909B99A99CAB99B7ABB7A5C4B713
:1002E000A5B2B0AAA0A589A8868A7D8295916F81C2
:1002F000988482799E858D897F88888B9466848492
:10030000577F67646369696157556C6B63536C6BA6
:10031000556F4F656B54637A616A7890696F9E750B
:100320007E7B8B7A8686868774848E7B7A8F8080AC
:10033000916AA7858D997B9585A372948285907E1D
:10034000A2957696A58687918E727E959475678D17
:100350009165898E68907C718282855E8F87717EBF
:100360007D87776E7C7D7B866E8F6A6C96726D91D1
:100370007F667F7B7E6A8A796E926A85786E7F91CE
:100380007F6E897C83788079917F7B7C7F976C8678
:100390008E7E93878892769088808A837D84797315
:1003A0008D7F68889078878486707F786A797E757B
:1003B00082836D707E816B827F84677090618079AB
:1003C00065767F756A837772627F6D7977637A7AF3
:1003D0006C6D8B74758183828879828C8691888517
:1003E0009B94808B948E7F8FA46F9391958D92892F
:1003F0008D95718C80876E8373837B6E728578791F
:10040000727B85767D718A7C757D867884808D830C
:100410007C828D8E7D7C8C83897D7A878B8E78879C
:10042000887F818E847B8591857D8D7B7D847A8498
:100430007B8A7B807E7E7B7B897C8288807D8176C7
:100440008874887D6F807A7E6E7D7475796C78771C
:1004500077767B756B7E7E6C74827773817A7B7B1B
:100460007C8179817E7876807E75777E777B7B7FD5
:1004700078798475867B7B8B7E7C8383837B877E88
:1004800084858A78798C7F7C7F857F83857D74875E
:100490008082838684858C7E8189827F8E82868716
:1004A000837E808C7D8584808481868383817C8328
:1004B000807E83827880837D807F817F7C7E7E7951
:1004C0007C7A8C8075858A7080887987877F74882C
:1004D000837E86828183897F82837F8A80828182F4
:1004E00083858582807E808180747C84787A7A7628
:1004F000797873777A70797875757A7C75787B7688
:100500007976807B7381777F7F81827D8182808411
:100510008384868487888087878A85858586817B92
:100520008D8580818E83827E88837F828C877E8D7D
:10053000817B84877B887E7F86847D7A87867A80AC
:1005400082817E7D847D817F7C7985846F838471C7
:1005500083837A7679797C7C7B787C7976817976ED
:1005600079817C79797F7B767F7D7B78817C787FD0
:100570007979817B79807E77797E7D867E7A7D87A9
:100580007E6A88877080897C7A7A827F7A7C85818E
:10059000748381787887817481887C8083827D7D73
:1005A000847E83808483848384827F88877F898814
:1005B0008084888880888B838399888495888488C0
:1005C000908A8A878586908B80888A887D8B8686AC
:1005D00084787F85837A80877F7E7B797D71777B46
:1005E00078747A736F7370737B756883796F7B70BF
:1005F0007D82697D7E737D7A75757579817B7A7D63
:100600007F7E73798478807C787C777F827A7D792D
:10061000777E807C747E7A727F7D7A7B7E7F748128
:100620008480838182808183828286877D818680A7
:100630007E847E8A968186817189907D737F807B9E
:100640008A7E7E7A7888898B827374808D7E7373BC
:100650007B7F8682737A737C848C7888747C717ECD
:100660008968817281827D55758D6F828A72836CF3
:10067000757D7773696688806A7867807C868181FA
:100680006181757F8870607B8E787D6D76789997B3
:10069000785787817D886574767E8E826C7A878FA5
:1006A0009C73617883947E727A6E829A757A78816F
:1006B000AB8D6F6C7B848B85716F7C8A89807E8229
:1006C00093967D776E77957D6C787D7E8589817A2E
:1006D000859A8865748479847C6E6D7D8F81647160
:1006E0007D949C785C5F898187675A7A77A66B6A6C
:1006F0006974A0978E4E6B7A9189735D5B88958B38
:10070000655D6C8FA699765160949E7F6457709852
:100710009884655D789D9F937555739C937B646603
:100720007A959A846E668099988B89686C929A7E85
:100730006E6E72879885766E748A92968B815E77DC
:1007400098897072727C8F8C856D6D7C8D919A8486
:1007500067648A9775796871898F8C716D78828DDD
:1007600094947760729484786F6B76818A7E745FDC
:100770008C777DA4886A58879280795F657E8E86A3
:100780007C706477899C938054629A8977776871CA
:1007900079908B757363889091A283505E9891864F
:1007A0007757698E90878A5C618E8E91A084496BA1
:1007B000A685707961618798887D6D6185A38F9525
:1007C00082526FA28B7B7C5D6587978D886C6A8275
:1007D0009A979A8A5C6499967A7D5D67788F8C89FE
:1007E00081707E8D8B999C7F5271A089777966622A
:1007F0007C819E9273618A8C96A691574697A375C9
:100800007676476C979F887769739099908D7B482F
:100810006DAA8A677B6E4D7AA18E8D7B7B748C9BD3
:100820008D987150719F8B697A5F5486A08D817D00
:100830006981989E9592564F9797737C644B659902
:10084000A28D8D6B698D9F8F99854B5CA399707478
:100850006B437498A081797178A4988B8F7C4473D2
:100860009B83697C6349719B9C9E6F5C7B9CA69F6C
:100870009543478FAA7B6F5F385EA6BB936E62720B
:100880009AA99A8F623A79B38B656A504D7DA8A177
:1008900079737589A4AD9A6C3A5CA78F6E6C4B46E0
:1008A00086BEAE796371879EA8A0733A5EA6A56FD7
:1008B0006D594271A6B57D6A7C95A0A9AD80414E67
:1008C000979F766C514584B8B7805F5C8BA6A3AECA
:1008D000793062BA9E7B643A3E87AEA9906D66A27B
:1008E000BC95917C3C4C9FA073664753AFC8956103
:1008F0004E5696BDA28F6B3B72BF9962583D4174B4
:10090000979E9C877996A79E9D88413D85A37E7A78
:10091000524DA6CAA86641478CABB1AB65337AC3CA
:100920009D72583A3B688D9DA893849DAD8688A59D
:100930005E31659D8B81684E92C7B17040407CAA44
:10094000ADB683385EBAAC6A59403653899FA998D0
:100950008DA1AA9087A4683058A18F746D6396C248
:10096000A86A3D497EA7ABB27E376EB5A5744E38F6
:1009700039568FA2A4918FAFB48E7B9662305C9D66
:100980008E6B6785A1A7916B484787BDCA8134628A
:10099000A298A96A383469BFB89A73678EC3C097A2
:1009A00070473574BA9A593858B3CDAD51334D8329
:1009B000AEB9A355368CC7A1884838366EAC9E8F29
:1009C000818BAAB5AB8E7849377697835C6795B8EB
:1009D000B787573E5A8BB4CB703072BFA19B70392A
:1009E000336BCBB791777187BFBCA0763C3885BE9F
:1009F00084575285BAC7945039548FBEC671305D42
:100A0000BEB4A06E3A3364C5BE8C6A738AB5C5B5F0
:100A10006A38398CBD764E5F96BFC4955439548A76
:100A2000AEB9723165C0B099793E3453A9A8988A9D
:100A30007F83A4B5B58E443368A6936A54719DC074
:100A4000B56D404263A8CCA33D40A7B0AB9D4F36E7
:100A50003B88B89C897E8797B6B19963343F8EAC4A
:100A600088744F61ADCDB05E363E72AFC8BD5A33AB
:100A700075B7B1945D353A4B8C9796A29B9FA4A60F
:100A80008F89703C4386A092765171B8CA944637DC
:100A90004D79B5CABE632E6EC8B0795538374897C0
:100AA000AE9194A3A19C9889878D543572A09184AE
:100AB0006C6486B6B777433B65ADC6C88736499F39
:100AC000B89C683838429CBAA793929098A89885A9
:100AD0008454366E9DA3946A4777B7BD854B3A5EC2
:100AE00096BAC9BE5E2E6DB59A735A3B364F99AD14
:100AF000A3A89B878C9C93978F463982A69F915A77
:100B00003361BACA9F4B3655A9C6CBAD46336EBECC
:100B10009E824F393573C7C0B0986E679AAD938C7B
:100B20008D4F3C8FBB8D7571474796B9935C597B50
:100B30009CB5B5B27B36478A877D7E5D454376A3FB
:100B4000ADA69B8373899892B0943D4182A19698FB
:100B5000773848A2C59E77564F7BAEA8B3A14C35D7
:100B600086AF7B6E5F5B6A6A706C89B4C3B07A686B
:100B70007995CA943C406882A7BA6C334AA0CCA845
:100B80007F57445CA4C5CC792D508297AA894537FC
:100B90004096C5C8AE79617496919CA3653469A3EB
:100BA0009994965C3151A0C4A179534974A1B4CCF5
:100BB000A847356B909D9C6F57403E7799ACA89A9B
:100BC0007D6787ABA1AE8F46356E9CA78F4D3257A0
:100BD000AFCCB171433E6CB1BFB3A054347AA2988C
:100BE0008F6741344C94A6AEAA8E7E85989B98A3BD
:100BF000713546889EA68B423770BCC69B5A394CCD
:100C00008BBEC3C09F493A7F9D96804F3C366CA6F1
:100C10009EACA79B86858273779AAC66356FA49647
:100C20007F653F4A8CC3AE785A5279A5BAA5AC8F7E
:100C30003A43939B7F7B5538407EA7B5B29280762E
:100C40007D8685879A944C438EAD8A6D54345DB110
:100C5000CC9D624F647E97ACA5A08344558D968849
:100C60006A4E3B4077ACB29C9090837F7E6C6794D9
:100C7000BD7C49778E848B7546508DAC8E777963B9
:100C80006292AE96AFBE57367D9075766B443673E2
:100C9000B2A99CA293716F756D769EC8A7555376C5
:100CA00075787B6A586C94A49F87685B6F8C969369
:100CB000ABC47B3D6B6B495C687E8F98A090919430
:100CC0007E615162849C9C93989CAFAE6B404A5E5F
:100CD000667E9F9172686B748F9C8F6F53647EA346
:100CE000B79A898C6744729787787C7A6C81815631
:100CF000476493AB9E85716B6D8CB2CB9E423B6C0F
:100D00007E808077594E8CA99D95968D6F6A6E5B1B
:100D1000708398BCCDA444374C63707C8B7E7B97EA
:100D2000A68E7473776361737986A0BCC8B0683689
:100D3000496E746F7F837778909886807E70636841
:100D40007583ADC8BF6F33536C686E78747488A2B6
:100D50009B806E60608C9E927E798292C0C1743955
:100D6000516167829087725D7489929F8B806A65FA
:100D7000777D798AA2B790505A736655717D7B8CC6
:100D80009E9A958C8667595A64787D92B7C7C686B5
:100D900049514D5A748E9D9170677690A3A88153E6
:100DA00049557192A1A3AC9E5E457990786C7F8F76
:100DB0008C767C6B507197957F7972606A7D869492
:100DC000BBC5843C487896928476687C9AA18769F2
:100DD0004C455F7C8288807C92BDC6C99541354870
:100DE000788EA7B1A17F7781634F5A69777D8A9FFB
:100DF000958885858491AA9854386EA09386876FCC
:100E0000576B8D84605973888C9393836464879245
:100E1000A4C3C272354468757C9C9B807E969D8B72
:100E20006141354781A9A88A7B8E98A5B3BB9647B7
:100E300035486B94A9A18C7B7C7D6C5E616E778F4D
:100E400097827D85868386A0B5A86C3945627996A0
:100E5000A493746E818E856A545474948F868381B2
:100E60008687897E819CAB824A598287859B906365
:100E700060756F5F6785858691846F6E79777593EE
:100E8000BBCAB35C3950545D789285789AB49B8123
:100E90007358455478919387858A97A1947F778278
:100EA00086635A77848C969D8D7866686E767A8B89
:100EB000918072868F7D807C66597AADBF8C574D4C
:100EC0006D87848F9C82666B828876707671718064
:100ED0009089706970798AA7C5B760385E717B9018
:100EE000978B74819AA77F453F4A638AA1907D7A48
:100EF0008A899196958F7A5F537C948E8A938782A4
:100F00008D948B5A3F4C6D8A8B8980726F817B7276
:100F10006E84B5BB8A52668E877781836B6D8A93A8
:100F2000897A6754546D848F8C7F78777677878E33
:100F300093B4BF8A4D607F737A9092817E89866573
:100F40004435497DA9B7A789695A637C92A6B7B988
:100F500090595D858267707A767B86877767666A47
:100F600078818B89817F798D9A8464586D95B4C618
:100F7000BF7A3A496F81868D7A56547A958E7D7301
:100F80006668757A797E7F7A879A938EAAB8975425
:100F9000485D626F9BAFA07F6A7A7F78553F4C783F
:100FA00099AB92817F7B7E7E8D8E8B9297876E64CC
:100FB0007B7D717E8678707B80746B6F767A888F8C
:100FC000908673696E7F898E858AA5BEA05C3F4C32
:100FD000607694A48C737D8E8D7F79654348718E85
:100FE000918D968D80868787858A949F885E5B7AAF
:100FF0007E77787B73687F968D7C797673747E8438
:1010000087878D8B83756D6D7187ACBB95554D6BE7
:10101000655E7792837592AA9274696456698A9420
:101020008D8B8D826E6667697484979EB5C092477A
:101030003C575C729BAD9D8B93907B6D6B5F485270
:101040007CA1A28E7C726465798D9387899EAD9810
:1010500068596364688AABA493938E77615A53513D
:101060006E93A59D897A6A5D5E69777E85929FA25F
:101070009E998B63435E898E859AA78A6F797F6874
:101080005B5D6369819A957A6F716E70767E848AF2
:10109000909B9C9CA590533D6384828BA89B746D10
:1010A000796A565E70778599937C74766E6D7D8CC7
:1010B0008F8989827B8295B0A86D445B82848899F0
:1010C0008F6B5E829581716F594A688E9A8C847D90
:1010D0007A87918E867E6F67738BA2B5AB774F60F0
:1010E00080746B81937E73878C7A6772736F788A52
:1010F00091837D7A7772767D7F7B787A83929CACC0
:10110000A87F51506873839495837C848B8B847AF9
:101110005F4F5B72808E96887B7B827D7473767165
:101120007A929EA2B1A867435E767F8592907E7D7B
:10113000838179726D6873818787868180828483D9
:101140007C788082797A8081858D908E9CA4795676
:101150005C797B798D9085797C82817D776C606606
:101160007A8A979688736A71747D837E767B82878C
:101170008890A2A08E5C4B607C898C9C9376717663
:101180007B797774777E83958397815455988F63A5
:101190008B7D747484693093A16E9EC6825A3B7BAA
:1011A0005468CB6A9379B459863B607E7DA53571CE
:1011B000919629BE729BA2585A798582A69A336568
:1011C000BD70B6AAC893B88D6A413DAD8D91CC8AE9
:1011D0005F62423694A6C67469726286619DA5A953
:1011E0008F9765A4426F659F8782927C9755BDBE9D
:1011F000A2274B324C98DB8C5A8A6F6848B8A353AD
:10120000848C856B653474A89E577DC9874D59932E
:101210007A8991B25E8770777168B7D15F3447453C
:10122000538CBB90A197A55D7635593F7B8370E6C3
:101230008A5D8763918C817964A165705EA469770A
:10124000AB6973A07266AD8C716E56678F798B77C0
:10125000777B85908378767A5D767A9D928B7C63B6
:101260008D80947C7F827684827B7E7F70797F956F
:101270008382856F81A09461697393866BA3807468
:10128000807E9563877B7A847DA78B736A794B7C9C
:10129000907873878F81747A7C6178767D77877F89
:1012A0008176878C84897A788C85686B807F7E8054
:1012B0008A90769086746E69717B7291888889793C
:1012C000675E82807C8192868A7C75716E778F845E
:1012D000859183766F927F6D7581817E9F99706D08
:1012E0006C767E8F83717A7D878F8E7C796D60813D
:1012F000907E82848E787D836B8B81A684675E83EB
:10130000734C9E5C559DCD9E77789C5C646377653D
:1013100054A99E9C8999575C738D897E98826B80B5
:1013200077746D6F6B7A97939C8D8F68626870701D
:101330007B898E9888887E675B6F7F7886878289B5
:1013400083767883767A82837C798675878A9376AA
:101350005A6584837B9688916876837072768288DA
:10136000828D817B72826D7F9A6E7F78867F7E858B
:101370007A7475748488817F8778858672767B78A5
:101380007E84798385898980837E76676D81868A6C
:101390008488738373847E80837A7E7D747785727C
:1013A000847C7E827C7D8477767983767476827F76
:1013B0007E877D777B7B7B81798276827F7B817D57
:1013C000767F807E8D81858E857267787C887C8B28
:1013D00092757C7474787F75847C86928086747133
:1013E000727680868889817D7E6F7A898379777C21
:1013F00081897C847C737D7F7C8083817877787E13
:101400007A7D86787E7E7F8A858888726B6F8082FF
:101410008B848684767D7378777B7C837A85807FE6
:101420007E747977797B897F8B7E878675747976F0
:101430007B81898C7B877B76717B7980838B807EB7
:1014400078757F73817885877F85807B7D828280B8
:10145000877E6F7D7C84818B7E777F767D828878A6
:101460007E797C7B8082827B817D7D84767F7778AC
:101470007C817A87818579797C7D767C8877787D97
:10148000877C837E807A79818384817C7E78737F78
:101490008681817C7B818488898971767775808952
:1014A0008B86857C807A7A7C7C807F747891827B45
:1014B000827B7678816B688F7C7091886F6D71927A
:1014C000668D9274797C8B6B83368E9A9070667E73
:1014D000816B61A0809B68877562887C88914B9640
:1014E0008F7A9590A27B846B7169799394888D7BB8
:1014F00065705D6A96939770817F8878788488821A
:101500008C807C876D8B7B887586668C7681968BCC
:1015100074657B5B6A8FA76D7B85846D709A747030
:101520008B8D827E735E7F8D80628C9378688087DE
:1015300084838F8A707D68786C7D96976A796E6BEC
:101540007091817A8C9381757B5E75618A6F8CA2B4
:10155000787A7A76877A837783877476728C6C8AC6
:10156000887083876B75827784867C7D7E767871C0
:101570007D8084807C7F837C777D7682818A808079
:10158000847E7D78817E82807C7D7A7C7F7A83896F
:101590007A817B7580867778847B837D808674836F
:1015A00083817C72847385868182827D7E80758B47
:1015B00079777B8583807F817A777D7A7C7F857F51
:1015C000817C817D7D7D757985827C7F7E7F7F7C3E
:1015D0008B847B85757B78767D79797E7C7D807E3A
:1015E000787B897880867D808179726F75787C7A46
:1015F0007E9082777D858184808E868490828384AC
:101600007F7F7B817876798C855B737D7A6859736F
:101610008073846A757D94A0747A808C857E7898B6
:1016200070838B7E75AEA7485E598D809A7C5D80F5
:101630008888895BA68731824893A09294317E7F07
:101640006895A57150A57B4C697F789477AF8A8C9B
:10165000A288AC729E8D8CA66E4C714A43495A5A30
:101660007A786177678FB1CABABDABA7A09D8B713D
:101670007E7B7B73767672706C6D6D625E505762A6
:101680006C75737A5F66575B625E6A6E747E858185
:101690008B8D91919790989B9D989C9B98999DA2DA
:1016A000988882908F938D969C92948A8F918F992F
:1016B0009A87878F8F8285877A6A626D52606365A9
:1016C000605B6A66626A6C6068748570585E6F679A
:1016D000666A666B75746D646867616A67706E6D63
:1016E000757877737B7E817F869091878184888EE1
:1016F00091948B8B8F92919096949B9897958B91C8
:101700008E8E8D90908D8F88878B90888C908E7E1A
:101710007C8284837A7A838A837D73777876737800
:101720007772706B716874756E6E6D6D6E6D7372BD
:101730007270767A737276817D7A797877817C7E21
:101740007E7C7D80817E85888B8188888680818073
:10175000808187807A7A757F7D7B7A7981898282A0
:10176000798586828780847D8082827B7B7B807C7A
:10177000787D7C817B7D8184807C7F86828085856D
:101780007E7C837D7E7B81817C7D7D7B79797D7D87
:101790007F7D7B7E7F827D7F7C7F7A7D7F7D7C7E6F
:1017A0007B7C7D7C807B817C7C78787F7E7C7D806F
:1017B0008180827C828082837F7E7A86818182831F
:1017C00081807F7C7D79797877797C797B797B7C66
:1017D0007C7C7D82807F7C817E7D807D7D7C7A7C2F
:1017E0007D7D7F7B7C7D7D7E7D748984767A817F23
:1017F0007777787F81787889767A867782837C8319
:101800007D7B7B7D827F817E7E897C7C80788681EA
:1018100078817E7E7D807E7681827B7C7E7B7C7EF5
:10182000827F7C7C7F837F7E837D7D8181817F80C1
:10183000837F7F807E807E7E7F817F7E7E7D7E7DBA
:10184000807F7B7D807F7D7B807D7D7E807E757FC0
:10185000807E757C7E797E7B7B7B7B7F7C787D7ECA
:10186000817B7F7E7E7F807E7F80807C7D82807C8E
:10187000807F7F7D7A85757C877C7A8585847D787D
:1018800088877E7374878A787C80857C727E857C6D
:101890007F777A7E8B826A807F73767E878178728B
:1018A000798D847C757C7F7C7E797C7B7D81817C5D
:1018B0007D81837A787C81807F807F7E7F7F7E7A46
:1018C0007B7F84817D7F7D7E7E7E817F7C7E7D7D32
:1018D0007E7E7E7D7C7C7D7D7C7D7D7E7F7E7D7D34
:1018E0007F7F7F7E7D7F7E7C7D7F7F7F7F7F7D7D15
:1018F0007F7F7F80817D7D7F7F7E7F7F807F807FF8
:101900007E7F807F80807E7D807F817D7F80807AEA
:10191000778A867978887E80837F7F707582837FDF
:101920008985807C737B7F808280837F7E7E8082BE
:1019300080807C787C7D828280857D7D797E817EC1
:101940007F7D80807F7F8181807E7D7C7B7E8081AA
:101950008181807D7C80807E7D7E7F807E7D7F8199
:101960007F7884837D787B897C7E83807C7D807F8B
:10197000807D817F827F7B7C7D847F7D807F7D7C7D
:101980007D7E81817F807D7D7E7F807F7F7F808067
:10199000807F807E7E807E7D807F807F807F7F8055
:1019A0007E7E7F80807E7E807F807F7F7F807F8045
:1019B0007E7F807F7D7E7E7C80808180807F7E7C3C
:1019C0007C7F818180807F7E7D7C7D7F8080828125
:1019D0007D7D7D7F807F817F7F7F80817F7E7F7E19
:1019E0007F807F80807F7F7E7E7F7F807E7F7F7D08
:1019F0007F7F807E7E807F7F807F7D7F807F7F7EF8
:101A0000807F7F7E7F7D807F7D817D807F7C7F7CEE
:101A10007E807E80817F807E7E817E7E7E7F807DD7
:101A20007E80807F7E7D7D80817F807F7E7D7E7FCA
:101A30007E80807F7F807F7F7F7F807F7F807F80B1
:101A40007F7E7E807F80807F80807F807D7D7F7EA7
:101A50007E8180807F7C7C7C7F80807C0001020492
:101A600005070A0F1114191E2328324B64816A8757
:101A7000968B97787A8F9A9A67517C9E2F6D5BE848
:101A800064045C0086F3FDDB763BD6B4649974EEA7
:101A9000A39AFFA6694CBBFFEAFFA91B6A99D7B1BD
:101AA00076B3ABFFD64768254B80846B8C4947687B
:101AB0003D46775C000C002DE4D56695F36728C69B
:101AC000FC6B47AC657878729BFFF3FFC0D3EBDD0E
:101AD000A9756A07729C31030315283CB15E7C38F6
:101AE0000004195492F23900C3D34523001F21008A
:101AF0000619020000136820460E00710004000859
:101B000000254F48D6ACA1BD170014194F4AC2FF9B
:101B1000D0D7A2ADCB1C4C3A263C162600523B0037
:101B20000C4D510064C62C00E0970003C8EADCFFAE
:101B3000ECFCFF6F34ACEECB0435052B009CD5A834
:101B40003C4E0092E6B98D30AB77A1AD8C1F00A85A
:101B5000A31EFFCFC8D1FFC6B5A0FA6B96CCDED4CA
:101B6000C1FF83D3ECC495D5D7FFB3FEFFFCFFFCC8
:101B7000F467396F401136A46E6ACEFEFFF9FFF8A4
:101B8000FFF8FFF8FFDC67E4FBEFFFF6DEECDDDCDF
:101B9000FFF2AD3E73675C3576C983DFFFC4AA8D63
:101BA000EDFFF8FFDFBFFFB100000C130C003E3A61
:101BB0001D0029B77C57319C43A7E1C3AE28991B70
:101BC00000193D4B00175F97617C5BD577000700DC
:101BD0000400020000030018190004001002102A7B
:101BE0006A695D409C7F10000100000200444B05C3
:101BF000042873972C000014471E060009002117C3
:101C0000061F01020002000C0013009291AE9D9885
:101C1000B98BF06E0005000200052800022A7C7FC7
:101C20008D7F816C42110003000200020026A3EDAB
:101C300065AD811E0900050006004330005EE5D653
:101C40009F6DE0BB302E96F8706A7FBCBFEFBB097A
:101C5000AFEF400023150400B0F8590D64FFFDFFFD
:101C6000E7FFCB9AD38C7ABB34431F004608010AA6
:101C70004B33B8BDD1E7907C7F8729C27155AF48FF
:101C80003238506E485683AA6D0A1E66190002004B
:101C90000200040D214E4B40564381B4AD0295B76E
:101CA000977CCBD59593D9AA296C4B2E00090000BF
:101CB0000E1C000867F0A2B2DE7F725923000303F6
:101CC0003F45296E8C51566736555B452823205B6E
:101CD000797FA32E160028380D404F754B349D6F29
:101CE0002D5E96324FB0CFB26FA55004067193634C
:101CF000B7FFFFFEFFFCFFF6E8C88A74601301001F
:101D000014021E4300050A0008000A2D63787DFFB7
:101D1000DEE1FB56D17F175984DB5C9CCB78C19602
:101D2000AA9D5DFDCFA3C712325435796B5E1B436C
:101D30009D75643A00701D77DA2063314CEC9B3F4F
:101D400012007B41648405010473380D41453999C3
:101D50009ED0FFFFEED0DA828FB4A6A8B39FFEFB21
:101D6000FEE8F3D7CABA787E9864649B97605B7D7F
:101D70008959003D6C622534130019170200063A98
:101D8000515056315254669C5F3E5F6C744E9D922A
:101D9000461E544F000A0020354A362F2F6F954BB0
:101DA0003F514160823E3415070B0007081539008A
:101DB0002C2A007A97DBB9841D006BB1569599499E
:101DC0003518611D0D291F0020467C1F3D20140C75
:101DD0000004000200002A756FDAFBB88978B1C0F0
:101DE0007C5C61AD844E0A00373B0009004F9F9533
:101DF0007091D2D7F29A92407DC12B00050001006C
:101E00000053882D7468160031BDFFC1D37D020CCC
:101E10000060007B8175B6AED09C51223F7BAC76D2
:101E20007EA48C59837FAA937B75442F5A5F130A33
:101E30001E05000B000400000C001F63080D445F2A
:101E40007B796E633A34311F5053411C273E3A5020
:101E50007160458187744259433152808A8E500C9B
:101E6000634A5E391C1E5D5D23172E2E242D0E0342
:101E700002423E8888698D70685C5B71B1A7B2BE12
:101E8000939FA0A185A29A736C8699634958683A7A
:101E90004A59696E6A766E68525F5D585F75705D0B
:101EA0007399878477474742647A484A7B7A6E659C
:101EB0006A768DA68A8C8A957E75644ACCFFFEB8B8
:101EC0009E6766BF7D71451B20444A909F5B4536E7
:101ED0004D3228242D3024422E317C71868A6A6846
:101EE00071808167698F87543A4E45455B6955908B
:101EF0008242234659493E0B66968056395A366BC4
:101F00006E285E9BA2848B84999495A475606A5315
:101F10002B1126381B285A908277696C9C85835137
:101F20002B4B6D798A56497037417281678B9CAD16
:101F3000CBDCFFE39EE3D2A6CA937F75A1B890786D
:101F40007784806E838297AB8A8FB5D1E6DDD4C368
:101F5000AE9F835C6D6E57564E787B81707E8A751E
:101F600052625730313E4F375950391B292A647419
:101F70006F5974CEBDA67B757A8797B3A599C2E1D8
:101F8000A7A6BE9D7C9A8A74919B9097BBAC9B9EA2
:101F9000B88B766A747F6C8390978484B5AFACA954
:101FA000816C74835D3F392E24374E5B82929EB8DC
:101FB00093C1CCB3A9A8D5BFCFB48078747A6C563E
:101FC0004A605D4D806B595A67825C62755C787FB0
:101FD00083728B9F83A9D6FCBC9AA0B678656F806C
:101FE0007B58758EABCDE4BDBEDFE19A8BA58483B3
:101FF000C2B7AAA09E998B7A7E9997A671567E95B4
:10200000866F727B6F694E4A7C998D605D6E6152FE
:1020100045676D2F5A877D8A8D78787D6C716C6FDE
:10202000666A8C9E757A8A9F978A8A79939D9F6A41
:1020300080AAA7B28F8A877C8C986E6A897A885426
:1020400055849187848E8597917B917A657D76768C
:102050006C8A8D875867A8979B8C79878F89846B4A
:102060005F92A982626860517B7A5A536F7C69598A
:10207000596670737A6862747E9C7C648488818EF1
:10208000978C98958A94ADA99F8E7C7A64676E5FD1
:102090005A664F7467637A9CBAA5A69B92A1CFD06B
:1020A000BD8B86BCA08F987071562D66704F597B82
:1020B0006C5D74525C777A6D73ABB88C9CA391970E
:1020C000AFA5949BB2A3A3A3907F536A848F6A6A3F
:1020D0007063687E72524B65787472816762869015
:1020E000818394989597A293A49AA09498878A7FC5
:1020F000858F807751748B6B646F5D6D837E709379
:102100009D909A8B93AFA88866778E8E7A677C8C29
:10211000778A95758596826D84929088888791A438
:10212000A9A5A1A3A69D9B987F94958C87889F7E47
:10213000667160807B5E674343434866655E6265A7
:10214000475F9779969F929C94A7A98E898089A1D1
:10215000939E999BADB4937E8C9794908596A29B09
:102160008F907F654A5B91866A5461656C6B4D52B6
:1021700074926C5E938C7888A4A3928B8183938DE8
:10218000987C665E66867173737B857F787A93919F
:102190008179767E708C9892ABA7908F9D9E957179
:1021A0006A807A736B74877A5F7A7E6A68828C7EC3
:1021B0007D7786828479898A8D7C7F869A987C89CE
:1021C0007E757182786E5E5C5F63888E6D647985E2
:1021D00077948A7D90A29AA5A08B8FA0998E9EA7B6
:1021E000B6A5A5989F99927B879171727A74665C67
:1021F000615A4A494F54596A7E7B614954605995E6
:10220000946D81736C7D65947E56786088BAA197D1
:102210008499B37D867582B9A69A828991957F78D3
:10222000978C79767E91958C877196814C58858CA8
:102230008F7E54566D75698289868B99AD927B83AA
:102240006F73937B637D8068657C6F747770736E4A
:10225000746B7485848689998F88968382A3947F12
:10226000A3AFAE8C78839096979EAA8B85A2A799F0
:10227000898A808F8C858396989EA08C91887F74A4
:10228000898286654973786F6D776F7A7B78697C10
:1022900079827B738C898067858F8B706E7F8B9042
:1022A00083889792A0AB9A927E858A7C8A94918843
:1022B000847C749883706F70696284858793898346
:1022C0007C83908984717B72706F635653686F6BE7
:1022D00055668590847C7287938C8F7D78889587EE
:1022E000859079829B907876807167727E7A70761D
:1022F0007B7A85797B71778E747185958B727B8BF8
:102300008E83617CAB9B878C8F80838B77867D846B
:1023100088869288796775849B8E9D966F81858F5C
:102320009273757D6C6E7273746662676366706BB0
:1023300069676C818988798294AFAA9A8477877F4C
:102340006F80877378799A8B6274877B81786B80D2
:102350008C81737D81787D7D706877837266617A08
:102360006B6881897E6B6C69728188898F8B7A85B5
:10237000898489757B91918A757786817A788F9027
:10238000806F7784818476716D7588898A79738589
:10239000808D90715C71909C786877879389718447
:1023A000AF988D8677627A8282857353517575777F
:1023B0007375838F755A739596898A978670566D53
:1023C00090A1AA989FA18D72806E6081A9B788554F
:1023D00057859D98888BABAA7C677F958C8C858868
:1023E0008875829F8C767C5F608684827E709E92E8
:1023F000637B98A7946868808573615C5D6B6F8868
:10240000805E5E837B6669686867848A7D73748991
:102410008D82918E838B9891857B858B8D84727F45
:102420008CA2A59984818D8E7C7B7B7B8492807528
:1024300088667C9573869678746C7F887C83777ABF
:1024400071778A696270776E86906E75909DA173C0
:1024500075A88165617C817E909381646990A68C6A
:10246000777A73727788836272867F7C72697975F6
:10247000717B84838A8AA49E73718D9C8D8A8D9FC3
:10248000A79493958C8B9A98918778828B808C8F68
:1024900069576A8D8F8A7C828083988E6E818A8646
:1024A0008478757E7C7E7F7E8D7D7079868B736669
:1024B00077766E69756C67577B8F79697E888289BC
:1024C0008C8671808C94828589848081858C8A94A5
:1024D0009A8A83848D8D7F80888D9C90848392904E
:1024E0008A8577849795827B7D8B7E708080768CC1
:1024F0008571838B8D73767C7371746E5E7080775B
:102500006A768379787D685F6B73686171706F77C5
:102510007E8A83787D84878A938987868D999F9622
:1025200082928F90918E958F95948A8C94908B88BF
:102530008C8A80847F7D888888918B87847E797C53
:102540007F8487797C7F898E7C7679838B80766D9A
:1025500061768B84766C7583827C7977757B7F80DE
:1025600079717E82798B81707574827E68787174DE
:102570009582858A777C878385807975787C7F7062
:10258000737D828C857C737771757A70798179839C
:10259000868B82857F807E737F868F837A7A8E900A
:1025A0008D90888E84869294876E7B7F7F837D81D9
:1025B0008B7B878F82847680837F7A777C8A8B7E01
:1025C0008084857E7579888B816F75827E808C7F13
:1025D000768489837665708073707B707583847B65
:1025E0007786878680818480818A91958B87887F92
:1025F00078818E939591847B8586877E878C7D7F7D
:102600008B8E827A6F74767F988C7C7881817581CD
:1026100085767886818A877E7A829291898A91846A
:10262000766D6B71838072758A8D786875827F791B
:10263000727B8D937C676988A49A82889A9F7F6554
:102640005D76989C8F7D7E80828380808587836D78
:102650007288898F8B80828A808681748277778B5B
:10266000868084827C7182837C7983806B77848B83
:102670008382737E80757984796C707D8980867998
:1026800074716C718483737A837C808C8587867384
:102690007B81868C75777D80869388797A7C797644
:1026A0007E7683907F7A7E8F8777767D8E8C80830F
:1026B000998E8477778C887D7F88897F6A71908DE9
:1026C00072788B878880718390807887897675731C
:1026D0007A847F88817A797675787270817A6C6570
:1026E0007280737A847A7E86766B6A758588827743
:1026F0007A71757D76786D79838479708381797844
:10270000797E7B77858B928B78767E7C6D81807AE3
:102710007E8791838182796F827C6E81827D8D8BB1
:102720007E726D7A858B80878E7672706C737F83F4
:102730007F8181797272748A7E6E878A81787E8BBE
:1027400083747D846F7088837A8283867A7B949089
:102750007275878275798D92838989737F7C6F7E8C
:1027600087847F7E7B797E7F8681777D7A7F8B8170
:10277000747C7E706F7A7A7D8082797B84787869C8
:10278000778F8A826F6F7F807B767F8381807D7E6B
:10279000807C7670727F86776E777E78717B7D869F
:1027A0007B76787071767E8C8B8C8A7A787775746C
:1027B0007F8C807F888B928C8178757073696F7B3A
:1027C000737F8B85817C6D6D7D827C767A89827941
:1027D00078808881767A85878C87848189878580CF
:1027E0006F7A8F9280848185828B8B7A7B879082AF
:1027F00082717285867E83888883837E76747B85EA
:1028000082867A70777D7F776A75898C7680887208
:10281000879A83756D6C75727585857F817A7F7BEC
:1028200080867E8D877B837B7177706D7B807B8BD1
:10283000937E8581797C87846D78757575747E80CB
:102840007E7E867E80786F787E7A7580827E7876CE
:10285000767779797D81828185807D7B737C747CBC
:102860007E7E847D7F838B83787D817C827C768075
:102870007F86958C837C7D86858C8D80797A788027
:10288000847A7C87807985838684685B76928A7D6A
:102890007785877D77778992867E776C707773846A
:1028A000918F9B928677747C7F8288887F75737EF8
:1028B0007F81847F77767C8281817470717C82795C
:1028C000767F7E72718288818080918372757F8F1E
:1028D0008F88797B8884736C7281978A8A918571DD
:1028E0006C6966807E81848287847E797678767B47
:1028F0008485867F838183857B787C8182808284C6
:1029000085807E7B7E897E7683887E848C837B7CBB
:102910007A72707C7D838A7F7E817F858078797CE6
:102920007D827E7A7C7A767581898D807D848880AF
:10293000787470737B887F7D7D7C898576747A7DE1
:10294000757E82736A7787807A8082746F757D81E5
:102950007A7E807E7D7B8081828585808887747782
:102960007C757B85898C868C8B85827D807E7C8244
:1029700087898682817D818789838288857E7F7D24
:102980007A7F797989958B8081827F79757D877D42
:10299000787D858879797D7D797A7D7779827C7B70
:1029A00082797776757C83848F8C7A76767074875B
:1029B00089807E767983837C747C79777B7678795D
:1029C000707587868582817B76797D86827E7D7A29
:1029D000807F7E807F8484837F7B7470787E7A7A28
:1029E00080868B8986847F7C76777F879092958C92
:1029F0007D7E7D7E81848E948B7D7B797082958FA8
:102A00008A8485857A77787C838483837F797B83C6
:102A100086817F7C81857E7E85857C77797B7A7BCC
:102A200077767780878483807673778283777682E0
:102A300081807C7B89857F787F7D78797E7E7E7EB4
:102A4000797D7C7C8382797C857C7478737B867DC0
:102A50007978778C8880808081848B7F7B7A7F7E79
:102A6000818382867F80837C7B808F89757D7F7F59
:102A70007A797978787D86808488786F80837F7D85
:102A80007D8083807B8286827C82807F827B79824C
:102A90008B887D787475828B7E787F7B7E7C7C7D55
:102AA0006E7181847F7F7E79808582777B81818052
:102AB0007F87827E818987807E7B828781817E7805
:102AC0007B7A7A7F847F807F82807C818284837C12
:102AD000787F7B777C808085848288887D7F7F7CFF
:102AE00086807C8387847F84807E82837E808680CC
:102AF0007F808485807F837C808A8A888178797CC6
:102B0000797D84848183838581787D89847C8085B7
:102B1000858081827C81807B7C7E7D777E8D8B85AC
:102B20008783796F747B7C7C827E7A7E7F807E80D7
:102B30007E7C7F7D79797E7B7B7D7E828888787DB7
:102B400085807B777D817E7E8583807A74787D7AAF
:102B50007A83817D7A797B7C83827F88888077788D
:102B6000807B7B8582868378818080847B7B7D826D
:102B7000807E82818386807C7D7C7C787F807F7F65
:102B80007F8385837C787D7F7E7876817779868365
:102B9000807B7A81837C7A7E787985818485797956
:102BA00082817B7B7E7B7D847F797E7E7E85838830
:102BB000877F817C7E85808A8C82847C74797B7E11
:102BC000828487838883838578797E808586857BE8
:102BD0007D908A7C7D837E7D8180797C82797A85F7
:102BE000877F7E797C7D7774777B79797E8181821E
:102BF000817E7D888B83807D7A79807E7B848684CC
:102C0000887D777E7E848586837C808285817878C6
:102C10007E857D7E848285817D7E7D7F817B7983BB
:102C200088807E86827D85847880867E7983818196
:102C30008182877F7C8285817F817F8286817D7A88
:102C40007C7D7E7C7A7D7D817F7C7D847F777D7EAF
:102C5000827E7C7B777A87857F7D7C85807C838480
:102C600085837C7C807E808282807F84817F858555
:102C700081838685898A7F828A7C7D86807E848026
:102C80007374777B7E80868B8D88807D7C7A797F5C
:102C90007D7A7C7F88827A81848082817E7C7A7250
:102CA000747A7C7D7A76777F797B8084847D7D7D64
:102CB0007A79777577797C7E83858984807D7B7945
:102CC000787D7873787E7E80827E7F838283828225
:102CD00083838184837D7E807C7F84818488868ACF
:102CE000878781828786807B858584838385857AB3
:102CF000777D817F7D7D797C7B7B7C7A7C82847E05
:102D00007D7E797C7A777C7E82827C80847A7C7CF2
:102D10007C818282817F808A878282828182848391
:102D2000807C828584818285818388858384817F7C
:102D30008084867E7E858380817F7C7A7F83797A9A
:102D40007C7D83817E79797D817E7F817C7C7F7FA4
:102D500078798082827E797C87847E807D7D7D7A91
:102D60007C7E7D828082878887837F7C7876787E70
:102D7000837F808183827C7D817D7A7D787E7E7F6A
:102D8000827F85857E82857E7C807B797D7A828547
:102D90008583838082888684848485858186857DF9
:102DA000827F7D7C797E818381827F7B7A7E81793F
:102DB0007B7E7C797E7F807E777C7C767A81827E4A
:102DC0007C818484817C7B7B7A7B858681848582FF
:102DD0008287887F797B7F818282828180848782DB
:102DE0007F807F8488878280847F80827F7E827FCD
:102DF0007B8186807C82807E80817E7E7F7D787BE9
:102E00007B7C7E76767D8081817C7C7E7A7D7F7CFA
:102E10007B817E797F7C7D7E8082807E7E818283C5
:102E20007F7F7D7B8184807D7F84827F828583819B
:102E300087847F807E7F828081838081838482807B
:102E40007F807F8182818086837F7A787F81858081
:102E50007D8486827F7F7D7A7D817F7C7A7E81837F
:102E600086807C7E7A787C7E7D7D7E7D7F7F7C7C8B
:102E70007D7F7E79797F7E7A787D847E7B7E827E7F
:102E80007D88857A7C82837E807F828282807F813A
:102E9000807D7E817F7F868982817F8082817E7F27
:102EA0007F818381838283827D80838587857F8004
:102EB000827F7E828381838083828386827D8385F5
:102EC000807A7A7F7D79848B82827D78787A7E8021
:102ED0007D7E828183827B7D8080848A7F76797FFC
:102EE0007D808080827F817D79787A7D82857D7CFE
:102EF0007F807E7A7E8182817F7B7F827F818382D9
:102F00007F7E81837C7E7F82847E8184837D7B79CA
:102F10008082828382838182847F7A7E80817F82A5
:102F2000828082807E807F81857F7B83837F7F7F9D
:102F30007D7D7E7F828482807F7A7C7F7F7B7B7AAF
:102F40007A7A7E83848183837B727177787B7F86B4
:102F500088878381827C797E7A7A7F8383827F7B74
:102F60008286817D80837E7B7F7D7E818181828060
:102F70007E85847B7A7C7E83807F8182838284814C
:102F80008483827F7E7C7A7C7E8382848B857A7B3D
:102F9000827E797B7D7D7C7D8486807E81807F7E44
:102FA000807A7B7D7D7D7C8083817D7E7F7D7B7C47
:102FB000797C8383868481817C74757D7E7C81832A
:102FC00082828383827F7E7F7D7D7B7E807D7E7E0D
:102FD000818586868484817C7C7D7E7F80808482DE
:102FE000807C81808383827F7C808388837E817FD5
:102FF0007E817E7F84838086827D7B7E827F8180CE
:103000007B7C86847E83837E8089847F7F7E807FB5
:103010007C7D7D7B7B83807D8080828281817E7AC6
:103020007A7F8081807D7D80827F7E7F7D807E7CB7
:103030007F7E8085878281807F7C7D7D7A80818094
:1030400082838789837E807E7B7D7E7D8081818374
:103050008481837F797A7C7F7F7E868682807D7E75
:1030600083828284837D787B808282817F7B7B8266
:10307000817D7E807F7C7F828083817F817E7C7C5E
:103080007D7C7C7E817F7C7E837F7E827E7E7C7A5F
:103090007A7D8081837F7D84877F7E81807E7E8034
:1030A0007F8485807C7D807E7E7E7F7E808384841D
:1030B00084827D7B7C7E83837C7C81847F7F817C1A
:1030C0007E807F7F81808486807B7B7F8080808004
:1030D0008183848180838785807F808085818180D2
:1030E0008082837F7D807D7C8286838283818280D3
:1030F0007D7C7F7E7B7D7F84848183817E7C7A79E9
:10310000787C7E7E8082807F8183817C7E7C767AE3
:103110007C7D7F7E7F7F81807E7F7D7C7A7C8281CB
:103120007F7F8284807C7B8283848582807E7F8394
:103130008184817E80828485847F7C80817E7F7D86
:103140007D83858582808180827F7D7E7E7B7F847A
:103150008382807F7F7E7D7B7B7D7D7E7E8285847A
:10316000827F80837F82807E8285848487837D7C4A
:103170007D7E7F82858080837F7A7A7C7E7D797D6B
:10318000807E7C79797E7F7D807F818181807F7F59
:103190007C7C7D7C7F8384807F807E7B7B7F828242
:1031A0007F7C808280828180808183827E7E7F7D21
:1031B0007E818283848283817B80827E80827C7E0A
:1031C0007E808181817E807E7F7F7F7E7D7D7C7C15
:1031D00080807C7B7E7F7F7F7F7D7D7F7F7E7D7F0C
:1031E0007E7C7D7F8281807F7D81848281807F7FE4
:1031F000838382827E7C80848484827D7D7E7F7EC8
:103200007C7D7F828284827F818385817D838484AB
:103210008485807E828282827F7C7B7D80838381A5
:103220008080817E82837D81807D807E7D80807CA8
:103230007D8183847F7D807E7F807E7E818180838F
:10324000827E7F818181808181818282827E807F76
:103250007B7B7D7A797F81817F7F83827E7E7F7F8A
:103260007C797C7E7E7F807D7C818483807D7D7E79
:103270007C7F807B7E8080827F7F83817F807F8058
:1032800084827F828382838282848282807D82871D
:10329000838082807E80817F7F80807F7E7E808031
:1032A00081807D7D7E7D7E81827E7D7D7F807F7E33
:1032B0007D7D80817F7E7C7D81807E82817E7D7E22
:1032C0007E80807F828381808080808180818082F7
:1032D00083807E7F8282817F7F7E7B7B7D7E8180FB
:1032E0007F8283828181807D7C7B7A7E7F7D7F7EF1
:1032F0007E7F80808183807E7D7E80807E7F807ED9
:103300007E7F7F7F7E82857F80827E7E7E7C8082C4
:103310008081828181838280817F7F807F807F81A5
:10332000817F7F80807F818080807F82807F7F829D
:1033300083817F7F7F7F807F7E7E83857F7E7E808F
:1033400083807F8283848483807D7F7E7E80808073
:10335000808183848483817F7D7B7B8081807E7F6D
:103360008080817F80817E7D7D7D7E7D80807F7D70
:103370007E7E7F807E7E7D7E7F807E7D7E7E7E8166
:1033800081817F807E7D7C7E818080818182808141
:103390008080817E7E7E807F7F7F817F7F7F7F7E3A
:1033A000807D7D7F808181817E7D7E817F7E7F7D2E
:1033B0007C818282817D7F8180808080807F82820B
:1033C00083807D8082807E81828283817F7E7E80F9
:1033D0008383817F80807F7F807F7E8182828180E6
:1033E0008080808080807F80808182837F7C7D7DE3
:1033F0007D8182828481828483807F7F7E7D817EC5
:103400007C7E8081808182828080807F7E7C7D7DC9
:103410007F81817E7C7E8081828182817C7C7F80B5
:103420007D7F8182828180817F7E7E7D7E7D7C7DAD
:103430007D7F80818583808081807F7C7B7D7E7E97
:103440007F8082817F8083807D7C7C7D7D7E818387
:103450008484827E7B7B7D7E7F7F82827F8182806F
:10346000807F7C7D807F7F82827F7E7D7E82827F67
:103470007F828382818282838382818281807F7F37
:103480007F8180808183848282818383807E7D7E30
:103490007D7E828585838183817F7F7F7D7D7F7E29
:1034A0008081807F7C7E818082817D7C7C7C7F802E
:1034B0008083807D7F7F7D807F7D7E7F7F7F7F801B
:1034C00081817E7D82817E7F807E7E7F807F808005
:1034D00081828082828080807E7D7F8080808080EB
:1034E00080817F7E808281818281817F80818080D6
:1034F000808081818080807F7F7E7E82827E7E81CF
:10350000817F807F7F7F7E8183817F7F7D7C7F7EC7
:103510007E808081817F7F83827E7F80807E7E7FB0
:10352000808080808182807D7B7C7C7E807F8080AB
:103530007E7D808080818181817F7D7F7F7D7E8196
:1035400081818180808181827F7D7F7F7F7F7E807E
:10355000838181817E7D7F7F807F7F7F7E7F808171
:1035600080807F808180807E7C7D7E7D7E80828267
:1035700082818181807F7D7D7E7F7E7F8082807E53
:103580007F80817F7E818381807F7F7F7F7F7E7D43
:103590007F82818081828182817E7F7E7E7E7F7F2D
:1035A0008082808082817F7F7E808282807E7F8019
:1035B00080818182817F8181818080807F81828101
:1035C00080838280808180828181818081807E7FF2
:1035D00080808181807F8081828383828080807EE1
:1035E0007E8080807F7F807F818281817F808180DB
:1035F0007F7D7F7F7D7F80807E7F807F7E7F7F7EDF
:103600007E808081807F80817F7D7F7F7E7E7E7FC8
:103610007F7E7F807E7E818181807F7E7D7F7E7DBB
:103620007D7D7D7E7F808081828181807F7E7D7FA8
:103630007F7E7F7F808181828282807F7F7F7F7F8C
:103640008080808080808080808181818180807F77
:103650007F8080807F8081838382828381807F7E60
:103660007F7F808281818281808081818080807F54
:103670007F818080807F808182818180807F7E7E4B
:103680007E7E7F80838381807F7E80807F7F7F7E40
:103690007F818080818080807F7F7E7E7F7F7E8033
:1036A0008180807F7E7D7F817F7F7F7E7D7E7F7F2B
:1036B0007F80817F7F81807F7F7F7F7E7E7C7D801A
:1036C0008081838282817F7E7E7F7F7E7E808282F8
:1036D00081818180807E7E7F7F80818181828080E8
:1036E00080808183817F7F807F7E808281808082D5
:1036F00082828381807F7F7F7F7F7F8082818182C2
:103700008180807F7E7E7F7F7F7F808180818180BE
:103710007F7F7F7F81807E7E7F7F7F808081817FB2
:103720007F7F7E7F7F7F7F7F807F808180807F7FA4
:103730007E7D7E80807F7F808080807F807D7C7E9C
:10374000828381807F7F80807E7E80818181807F77
:103750007F80807F7F80848583807E7C7B7C7E7F72
:1037600080807F7F8082838382807E7E7F80808056
:10377000818180817F808182828280808080807E42
:103780007F80807F7F8182838381807F7D7E7F7F3A
:10379000807F808080808181808080807F7F7F7F2C
:1037A0007F7F7F8081818080807F7E7E7F7F81821E
:1037B00081808080807F7E7E7F8080808080807F0F
:1037C000807F7F7F7F7F7E807F7F7F7F7F80807E07
:1037D0007E7E7F80808081807E7F807F7F7F7F80F4
:1037E000808080808081818080808080807E7F80DA
:1037F0007F7F80818181818080807F80817F7F81C8
:1038000081808080808080807F7E7F8080808181B9
:10381000818181807F7E7E7F80807F80807E8081AD
:103820008180807F80808080808180807F7F7F809A
:103830008181808181818180808080808080807F83
:103840007F808080808080808181807F7F7F7F807B
:10385000818080807F8080807F7F7F80808080806B
:1038600081807F7F7F8081807F7F7F808081818159
:103870008080807F7F8080807F80807E8080807F4E
:10388000808180807F7F7F80818181808080808037
:103890007F7F808081807F7F7F80807F7F8081802D
:1038A0007F7F7F7F7F7F7F807F7F7F7F7F80808123
:1038B000817F7F7F807F7F8081818080808080800A
:1038C000807F7F80807F80808181818181808080F6
:1038D000807F7F80808080808080818180807F7FEA
:1038E0007F7F80807F80818080808080807F7F7FDD
:1038F0007F8081807E7F817F7F80807F7F7F7E7FD2
:10390000808180807F7F80807F8081808080807FB9
:10391000808081818081808080807F8080808080A5
:10392000808182807F7F7F7F7F7F81818081818294
:103930008382817F7E7E7E7F808080818181818085
:10394000808080807F7F7F80818181818181807F75
:103950007F8081807F80807F7F808080807F80806B
:1039600080807F7F80807F80807F8081807E7E7F5F
:1039700081817F80807F7E7E7F7F807F7F7F808050
:1039800080807F7F80807F7F7F7E7F807F80808040
:1039900080807F80807F7F7F7F808080808080802C
:1039A000808081807F7F8080807F8081807F808019
:1039B0008080808080808181807F8081807F808105
:1039C00080808080807F80808080808080808080F8
:1039D00081818180808080808080818181818080E0
:1039E000808080808081828281808080807F7F80D3
:1039F0007F808081818181807F7F7F7F7F808080C9
:103A0000807F7F80807F7F807F7F7F7E7F7F8081C0
:103A10008080807F7E7F807F7E7F808080807F80AF
:103A20007F808181807F7F80807F7F808080808099
:103A3000808080807F80808080818080807F7F7F89
:103A4000807F7F8080808180808180808080808076
:103A50008180807F7F807F808080807F8182807F67
:103A60007F7F7F7F8080808081818181807F7D7E5C
:103A70007F808082807F7F8081818180807E7E7E4A
:103A80007F7F7F8080808080807F808080807F7F3C
:103A90007F80808080818181817F7F7F7F80808027
:103AA000818181808080808080818181818080800F
:103AB000808080807F7F8080808080807F7F808109
:103AC0008080807F80808181807F7F80807F8080F8
:103AD00080808080807F7F808080807F7F7F7F7FED
:103AE0007F7F807F7F808180807F808181808080D8
:103AF0007F7F8080808080807F7F808080808080CA
:103B00007F80808080808181817F7F8080808080B5
:103B10007F808080808081808080808080808080A5
:103B2000808081818180808180807F807F7F807F95
:103B300080808080808080807F7F7F7F7F7E7F808D
:103B4000807F808180807F7F808080818180807F76
:103B50007F807F7F7F7F8081818081818080808066
:103B6000807F7F7F807F8080808080808080818157
:103B700081818180807F7F7F808080808080808045
:103B800081818080807F7F80807F80818080808035
:103B900080808181818080808080808080807F8023
:103BA000818180807F7F7F7F7F8081818180808015
:103BB000807F7F8080808080808080808080808007
:103BC0007F7F7F7F7F7F7F7F8080808080808080FD
:103BD000808080807F7F7F808080807F80808080E9
:103BE00080807F7F7F8080808080808080818181D5
:103BF000807F8080808080808081808080808081C4
:103C000081818080808080808080808080808181B0
:103C100081818080808080808080808080807F80A3
:103C2000808080807F7F808080808080807F7F7F99
:103C30007F7F7F7F7F8080808080807F7F7F7F808D
:103C4000808080807F7F8080807F80808080808077
:103C50008080808080808080808080808080808064
:103C60008080808180808080808080808080807F54
:103C70008080808081808080808080808080808043
:103C80008080808080818080808080808080808033
:103C9000807F7F808080808081818180807F7F7F26
:103CA0008080808080808081808081808080808012
:103CB00080807F8080808181808080808080808003
:103CC0008080808080808080808080808080807FF5
:103CD0007F7F8080818180808080808080808080E4
:103CE00080808080808080808080808080808080D4
:103CF000808080808080808180808080807F7F80C5
:103D0000808080808080808080807F8080808080B4
:103D10008080808080807F7F8080807F7F808080A7
:103D20008080808080808080808080808080808093
:103D30008080808080808080808080808080808083
:103D40008180808080807F80808080808080808073
:103D50008080808080808080807F7F808080808065
:103D6000808080808080808080807F808080808054
:103D700080807F8080808080808080808080808044
:103D80008080808080808080808080808080808033
:103D9000807F808080808080808080808080808024
:103DA0007F80808080808080808080808080808014
:103DB0008080808080808080808080808080808003
:103DC0008080808080807F808080808080808080F4
:103DD00080807F7F808080808080808080808080E5
:103DE00080807F7F7F7F7F7F7F7F808080808080DB
:103DF00080808080808080808080808080808080C3
:103E000080808080808080808080808080808080B2
:103E100080808080808080808080808080808080A2
:103E20008080808080808080808080808080808092
:103E30008080808080807F7F7F7F7F808080808087
:103E40008080808080808080808080808080808072
:103E50008080808080808080808080808080808062
:103E60008080808080808080808080808080808052
:103E70008080808080808080808080808080808042
:103E80008080808080808080808080808080808032
:103E90008180808080808080808080808080808021
:103EA0008080808080808080808080808080808012
:103EB0008080808080808080808080808080808002
:103EC00080808080808080808080808080808080F2
:103ED00080808080808080808080808080808080E2
:1042D0008080808080808080808080808000112429
:1042E0001FBECFE5D8E0DEBFCDBF10E0A0E6B0E056
:1042F000EEECF1E502C005900D92A236B107D9F7B8
:1043000010E0A2E6B0E001C01D92AE3AB107E1F7BD
:104310000E9449240C94E5280C940000D29A8AB398
:10432000806F8ABBBB9AA09ABA9AC2988F9A8A98D1
:1043300008958DED83BD89E085BD89B7806889BF0B
:1043400008958A9885B7826085BF85B78E7F85BFBF
:104350008BB780648BBF0895282F269526952695C8
:1043600030E0A90193E0440F551F9A95E1F7841BB3
:10437000F901ED58FF4F90E0662379F0408127E086
:1043800030E0281B390B81E090E002C0880F991FB4
:104390002A95E2F7482B40830895408127E030E0DA
:1043A000281B390B81E090E002C0880F991F2A95E5
:1043B000E2F780958423808308951092AA0081E01B
:1043C00080936A000895EAE8F0E020E030E06BE2D4
:1043D00096E5880FAF014F5F5F4F87FF02C0908364
:1043E00001C06083FA012F5F3F4F2730310589F705
:1043F0008BE2809389000895813059F0813028F054
:10440000823061F08330B1F410C08BE2809392006F
:1044100009C086E5809392008BE204C08BE2809312
:10442000920086E580939100089586E5809392003E
:10443000809391000895873009F453C0883070F458
:10444000833099F1843028F4813029F1823040F5AD
:104450001EC08530C1F18630D8F52EC08B3009F4EE
:1044600060C08C3038F4893009F44DC08A3008F0CF
:104470004FC040C08D3009F462C08D3008F458C080
:104480008E3009F467C08F3009F078C06EC08BE2BF
:104490008093960063C086E5809396008BE25EC0B1
:1044A0009BE29093960086E54EC086E58093960049
:1044B000809395008BE254C09BE29093960090937A
:1044C000950086E50BC096E5909396008BE224C09C
:1044D0009BE29093960086E58093950080939400EC
:1044E00036C086E580939600809395008093940073
:1044F0008BE238C08BE28093960080939500809386
:10450000940086E52FC096E5909396008BE2E4CF69
:104510009BE29093960086E580939500909394009B
:1045200021C096E590939600909395008BE2D6CFAC
:104530008BE2809396008093950086E511C096E506
:10454000909396008BE280939500909394009093C3
:10455000930008958BE28093960086E58093950002
:104560008093940080939300089586E5809396004D
:104570008093950080939400809393000895482F32
:10458000282F26952695269530E0F901ED58FF4F06
:10459000808190E053E0220F331F5A95E1F7421BD0
:1045A00027E030E0241B310902C0959587952A95B4
:1045B000E2F78170089589B390E083709070813044
:1045C000910541F08230910519F0892B29F006C040
:1045D00082E0089581E0089583E0089580E00895E1
:1045E00080E88CBF88E483BF83B7816083BF83B7D3
:1045F000806283BF089586B390E0837090708130AD
:10460000910539F08330910531F0892B31F089E043
:1046100008958DE0089585E008958FE008958FB5A1
:104620008E7F8FBD8FB58D7F8FBD8EB588608EBD1F
:104630008EB58F7E8EBD8FB58F7B8FBD8FB58F77FB
:104640008FBD8EB58F7E8EBD8EB58F7D8EBD8EB5A6
:104650008E7F8EBD8EB582608EBD8EB58B7F8EBDFA
:1046600089EF8ABD89B7806189BF0895982F10921C
:10467000A5001092A6001092A7001092A80086959F
:1046800040E050E0A82FB0E08FEF06C0FA01EB55F4
:10469000FF4F80834F5F5F4F4A175B07BCF39D015D
:1046A000220F331F892F90E0821B930B18161906D7
:1046B00024F4AB55BF4F8CEC8C93089580B390E0FD
:1046C000807690708032910549F08034910519F020
:1046D000892B39F009C080E290E0089580E490E0F1
:1046E000089580E890E0089580E190E008958FEFCC
:1046F0009FEF90939A008093990090936900809324
:10470000680010926A0081E00E94E3210E94DB228F
:104710000E94FC210E94FB220E941B228CEA8093B3
:104720008800109297001092AA0010926F001092C9
:10473000AC001092AB001092700088E080939B0058
:1047400010927C0010927B0080917D0081608093AC
:104750007D000E945E2390E0909372008093710030
:10476000089583B38095881F8827881F0895CF9266
:10477000DF92EF92FF920F931F93CF93DF93EC01A1
:10478000162F072FE42E8FE0C13AD80708F04FC04C
:10479000C0909900D0909A008FEF9FEF90939A006D
:1047A000809399009E0140E050E060EA7CE880E060
:1047B00090E00E94A828F22E212F302FC9019C01E1
:1047C000813A910510F020EA30E0CE016AE070E015
:1047D0000E949428269FF001279FF00D369FF00D30
:1047E000112440E050E02F2D30E01AC0ECBE1092B2
:1047F0009D0010929C0080919C0090919D008217DA
:104800009307C8F31CBE10929D0010929C008091EB
:104810009C0090919D0082179307C8F34F5F5F4FF4
:104820004E175F0718F3D0929A00C0929900DF915B
:10483000CF911F910F91FF90EF90DF90CF9008954F
:10484000979A88EE93E063E070E040E80E94B72317
:1048500084EF91E063E070E040E80E94B72397980E
:10486000089584E590E090936500809364002CE5C2
:104870003AE130936700209366009093690080933B
:10488000680081E08093A9008091A9008823E1F766
:104890000895EF92FF921F93DF93CF9300D000D043
:1048A00000D0CDB7DEB70E948E218DED83BD89E0AB
:1048B00085BD89B7806889BF0E94A1210E940F230E
:1048C0000E94F0220E94772378948FEF8093A500B6
:1048D00010929D0010929C0080919C0090919D00F0
:1048E00080519742C8F38FEF8093A60010929D00ED
:1048F00010929C0080919C0090919D008051974265
:10490000C8F38FEF8093A70010929D0010929C0037
:1049100080919C0090919D0080519742C8F38FEF49
:104920008093A80010929D0010929C0080919C00A2
:1049300090919D0080519742C8F38FEF8093AD0016
:1049400010929D0010929C0080919C0090919D007F
:1049500080519742C8F3A89A10929D0010929C0033
:1049600080919C0090919D0080519742C8F3979A46
:1049700010929D0010929C0080919C0090919D004F
:1049800080519742C8F31092A50010929D0010929A
:104990009C0080919C0090919D0080519742C8F3AB
:1049A0001092A60010929D0010929C0080919C0095
:1049B00090919D0080519742C8F31092A7001092E9
:1049C0009D0010929C0080919C0090919D008051D0
:1049D0009742C8F31092A80010929D0010929C007C
:1049E00080919C0090919D0080519742C8F3109255
:1049F000AD0010929D0010929C0080919C009091BF
:104A00009D0080519742C8F3A89810929D00109283
:104A10009C0080919C0090919D0080519742C8F32A
:104A2000979880919B000E94362388EE93E063E084
:104A300070E040E80E94B72374E0E72EF12CEC0E02
:104A4000FD1E209198002223D9F02130B9F48091E5
:104A5000710090917200892B89F080917100909182
:104A600072000197909372008093710010929A00E7
:104A7000109299001092AA0020936A001092980058
:104A800080917000813019F08230D9F675C0109293
:104A9000700080E00E94BF22882399F68091730005
:104AA000E0917400EE0FEE0FE295EF70F0E0E35A44
:104AB000F54EE491909174008C83EE8392959695D7
:104AC000969593709D83A0EAB0E0F70183E0019092
:104AD0000D928150E1F78A819B8101969B838A83A5
:104AE0001091A1000E94DB22181709F4AACF979A0F
:104AF0000E94312497988091A200823341F084363D
:104B000041F0893111F492E005C091E003C094E0D6
:104B100001C098E080919B00981730F480919B0031
:104B2000891B80939B0023C010929B00979A8091D1
:104B30009B000E94362315C082B3805882BB10921E
:104B40009D0010929C0080919C0090919D0080514E
:104B50009742C8F383B381FD04C089818F5F898345
:104B600001C019828981843138F30E9477238091B2
:104B70009B000E94362365CFA89A10929D00109248
:104B80009C0080919C0090919D00885B9848C8F3A0
:104B9000A8981092700055CF1F920F920FB60F92E7
:104BA00011242F938F939F93EF93FF93DF93CF93D2
:104BB0000F92CDB7DEB780919C0090919D00019639
:104BC00090939D0080939C0080B384708983898139
:104BD000882351F480916B0090916C000196909322
:104BE0006C0080936B0019C08091A3009091A40089
:104BF00001969093A4008093A30080916F00882376
:104C000061F08091A3009091A4008955914028F013
:104C100010926F0081E08093700080916A00813073
:104C200009F044C080916D0090916E00181619062D
:104C300074F48BB394E089278BBB80916D009091C5
:104C40006E00019790936E0080936D002FC0DA98EC
:104C500080919E0090919F00181619063CF4DA98F6
:104C600080919E0090919F00019719C0E091AA0049
:104C7000F0E0E857FF4F80818823B1F02091AA002F
:104C8000E22FF0E0E857FF4F808190E090936E00B4
:104C900080936D002F5F2093AA008BE290E09093A9
:104CA0009F0080939E0002C010926A000F90CF91E7
:104CB000DF91FF91EF919F918F912F910F900FBEF8
:104CC0000F901F9018951F920F920FB60F921124FC
:104CD0002F933F934F935F936F937F938F939F9304
:104CE000AF93BF93EF93FF93DF93CF930F92CDB723
:104CF000DEB789B78F7E89BF7894809171009091DB
:104D00007200892B09F460C08091A900882309F002
:104D10005BC08091990090919A00892B19F48FEFD4
:104D20008093AD008091990090919A0081579842AC
:104D3000C8F58091990090919A008650944021F591
:104D40000E94B123813001F5999B02C0198201C0F4
:104D5000898389818130A9F480919B00882389F01F
:104D600080917100909172000197909372008093EE
:104D700071000E94DD2110929A00109299008AEA37
:104D800001C08FEF8093AD00E0919900F0919A00FF
:104D90003196F0939A00E09399003197E359F54EDC
:104DA000E491ECBF8091990090919A0081579842CC
:104DB00058F08091990090919A008F5F9F4F21F059
:104DC00080E88CBF1092AD008091710090917200CC
:104DD000892BC9F4A89A8091990090919A008157E3
:104DE000984278F4E0919900F0919A003196F0930E
:104DF0009A00E09399003197E359F54EE491ECBFA6
:104E000002C01092AD002091620030916300809149
:104E100062009091630064E670E00E94942884E64A
:104E200090E0AC01649FC001659F900D749F900D50
:104E300011242817390709F044C08091980088236D
:104E400009F03FC0999B02C0198202C081E08983AA
:104E50008981882319F0813081F511C080917B0010
:104E600090917C00049788F410927C0010927B0053
:104E700080917D00816080937D0080E020C08091E2
:104E80007B0090917C00049758F010927C00109267
:104E90007B0080917D008E7F80937D0081E00FC03C
:104EA00080917B0090917C0020917D002170820F89
:104EB000911D90937C0080937B008091980080935B
:104EC0009800809162009091630001969093630036
:104ED000809362008091620090916300895E9340AC
:104EE00008F43DC010926300109262009091A500FA
:104EF00080916000892311F4DC9801C0DC9A9091C4
:104F0000A60080916000892311F4DD9801C0DD9A2C
:104F10009091A70080916000892311F4DE9801C070
:104F2000DE9A9091A80080916000892311F4DF98A7
:104F300001C0DF9A9091AD0080916000892311F447
:104F4000DB9801C0DB9A80916000880F809360003D
:104F500080916000882319F481E080936000809143
:104F6000A900882351F1209166003091670080915B
:104F70006800909169002817390760F0E091680097
:104F8000F09169003196F0936900E09368003197E1
:104F9000E491ECBF20916600309167008091680039
:104FA000909169002817390740F48FEF9FEF909395
:104FB0006900809368001092A900F89489B7806115
:104FC00089BF0F90CF91DF91FF91EF91BF91AF918A
:104FD0009F918F917F916F915F914F913F912F9111
:104FE0000F900FBE0F901F9018951F920F920FB643
:104FF0000F9211242F933F934F935F936F937F935F
:105000008F939F93AF93BF93EF93FF9305B600FCED
:1050100017C085B7816085BF80916F00882309F430
:105020006AC08091A3009091A400C99708F044C081
:105030008091A3009091A4004E9708F43DC05BC0FE
:1050400085B78E7F85BF80916F00882309F43EC0AD
:1050500080916B0090916C00C99790F480916B00E7
:1050600090916C004E9760F08091AB009091AC00F5
:1050700001969093AC008093AB00019760E019C05B
:1050800080916B0090916C0084369105A8F480911A
:105090006B0090916C008934910570F08091AB00A9
:1050A0009091AC0001969093AC008093AB00019777
:1050B00061E00E94AC211FC010926F001092AC0002
:1050C0001092AB0082E08093700015C080916B005D
:1050D00090916C008A3B910570F480916B009091E7
:1050E0006C008F39910538F01092AC001092AB0033
:1050F00081E080936F0010926C0010926B00109210
:10510000A4001092A300FF91EF91BF91AF919F91E6
:105110008F917F916F915F914F913F912F910F9060
:105120000FBE0F901F901895AA1BBB1B51E107C023
:10513000AA1FBB1FA617B70710F0A61BB70B881F27
:10514000991F5A95A9F780959095BC01CD010895B6
:1051500097FB092E05260ED057FD04D014D00AD097
:10516000001C38F450954095309521953F4F4F4F96
:105170005F4F0895F6F790958095709561957F4FF4
:105180008F4F9F4F0895A1E21A2EAA1BBB1BFD0152
:105190000DC0AA1FBB1FEE1FFF1FA217B307E40716
:1051A000F50720F0A21BB30BE40BF50B661F771F6E
:1051B000881F991F1A9469F760957095809590954E
:0E51C0009B01AC01BD01CF010895F894FFCF13
:0251CE000100DE
:00000001FF
