:100000000C9493030C9487220C946A210C94B003F3
:100010000C949D210C94B0030C94B0030C94551FC8
:100020000C94B0030C94B0030C94B0030C94B00384
:100030000C94B0030C9432250C94B0030C94DD2482
:100040000C94B0030C94B0030C94B0030C94B00364
:100050000C94B0038F1A921A951A981A9B1A9E1A2A
:10006000A11AA41AA71AAA1AAD1AB01AB31AB61A64
:10007000B91ABC1ABF1AC21AC51AC81ACB1ACE1A94
:10008000D11AD41AD71ADA1ADD1AE01AE31AE61AC4
:10009000E91AEC1AEF1AF21AF51AF81AFB1AFE1AF4
:1000A000011B041B071B0A1B0D1B101B131B161B1C
:1000B000191B41A042A1E045A3A4A5A64BA74D480A
:1000C0004FA8504354A9AA58E1ABACE2ADAEADAFD6
:1000D000B0B161B2B3B4E365B6B7B8B9BABBBCBD31
:1000E0006FBE7063BF79E478E5C0C1E6C2C3C4C522
:1000F000C6C762756C6C6574735F696E5F636C69AB
:10010000703D0062756C6C6574735F696E5F636CE3
:1001100069703F0070726F746F636F6C3F00636C47
:100120006970733D00636C6970733F007072657035
:100130006172655F746F5F77726974655F626C6F1F
:10014000636B00726561645F626C6F636B00736FF9
:10015000756E645F315F6164726573733D00736FC8
:10016000756E645F315F6164726573733F00736FB6
:10017000756E645F315F73697A653D00736F756E8C
:10018000645F315F73697A653F00736F756E645F9A
:10019000325F6164726573733D00736F756E645F87
:1001A000325F6164726573733F00736F756E645F75
:1001B000325F73697A653D00736F756E645F325F9D
:1001C00073697A653F00736F756E645F335F616456
:1001D000726573733D00736F756E645F335F616446
:1001E000726573733F00736F756E645F335F73691D
:1001F0007A653D00736F756E645F335F73697A650E
:100200003F00736F756E645F345F61647265737312
:100210003D00736F756E645F345F61647265737304
:100220003F00736F756E645F345F73697A653D007C
:10023000736F756E645F345F73697A653F00736FC7
:10024000756E645F355F6164726573733D00736FD3
:10025000756E645F355F6164726573733F00736FC1
:10026000756E645F355F73697A653D00736F756E97
:10027000645F355F73697A653F00736F756E645FA5
:10028000365F6164726573733D00736F756E645F92
:10029000365F6164726573733F00736F756E645F80
:1002A000365F73697A653D00736F756E645F365FA4
:1002B00073697A653F00706C61795F736F756E6406
:1002C00000706C61795F73686F745F736F756E64D3
:1002D00000706C617965725F69643D00706C617972
:1002E00065725F69643F0064616D6167655F696E37
:1002F0006465783D0064616D6167655F696E646522
:10030000783F0069725F706F7765723D0069725F58
:10031000706F7765723F00667269656E646C795FB5
:10032000666972653D00667269656E646C795F66C8
:100330006972653F007465616D5F69643D00746555
:10034000616D5F69643F00626174745F66756C6CB7
:100350005F766F6C746167653D00626174745F669F
:10036000756C6C5F766F6C746167653F0062617479
:10037000745F6C6F775F766F6C746167653D006268
:100380006174745F6C6F775F766F6C746167653FE3
:1003900000F200030114011E0125012C0143014E4E
:1003A000015E016E017C018A019A01AA01B801C6B1
:1003B00001D601E601F40102021202220230023EDD
:1003C000024E025E026C027A028A029A02A802B609
:1003D00002C102D102DC02E702F50203030D03179A
:1003E00003260335033E0347035A036D037F03458A
:1003F00052524F523A756E6B6E6F776E20636F6D0F
:100400006D616E640D0A004552524F520D0A00454F
:1004100052524F523A706172616D65746572206913
:1004200073206E6F74207370656369666965640D0F
:100430000A004552524F523A706172616D6574659F
:1004400072206F7574206F662072616E67650D0A89
:10045000004552524F523A696E76616C6964207061
:100460006172616D657465720D0A000D0A4F4B0D66
:100470000A00CAEEEBE8F7E5F1F2E2EE20EFE0F277
:10048000F0EEEDEEE220E220ECE0E3E0E7E8EDE57F
:100490003B696E7428302C3930293B62756C6C6571
:1004A00074735F696E5F636C69703F3B62756C6CFF
:1004B0006574735F696E5F636C69703D0D0ACCE0B3
:1004C000E3E0E7E8EDEEE23B696E7428302C313072
:1004D00030293B636C6970733F3B636C6970733D9B
:1004E0000D0AC8E4E5EDF2E8F4E8EAE0F2EEF02007
:1004F000E8E3F0EEEAE03B696E7428302C313237E5
:10050000293B706C617965725F69643F3B706C6117
:100510007965725F69643D0D0AD6E2E5F220EAEE84
:10052000ECE0EDE4FB3B656E756D28CAF0E0F1EDA3
:10053000E0FF2CD1E8EDFFFF2CC6E5EBF2E0FF2C4D
:10054000C7E5EBE5EDE0FF293B7465616D5F69642C
:100550003F3B7465616D5F69643D0D0ACDE0EDEE72
:10056000F1E8ECFBE920F3F0EEED3B656E756D28EC
:1005700031252C32252C34252C35252C37252C31B2
:1005800030252C3135252C3137252C3230252C3295
:1005900035252C3330252C3335252C3430252C357E
:1005A00030252C3735252C31303025293B64616DC1
:1005B0006167655F696E6465783F3B64616D616723
:1005C000655F696E6465783D0D0AC4F0F3E6E5F198
:1005D000F2E2E5EDEDFBE920EEE3EEEDFC3B656ECE
:1005E000756D28CDE5F22CC4E0293B667269656E15
:1005F000646C795F666972653F3B667269656E64BB
:100600006C795F666972653D0D0ACCEEF9EDEEF12D
:10061000F2FC20C8CA20E8E7EBF3F7E5EDE8FF3B82
:10062000656E756D28C4EBFF20E8E3F0FB20E22047
:10063000EFEEECE5F9E5EDE8E82CC4EBFF20E8E3AC
:10064000F0FB20EDE020F3EBE8F6E5293B69725F73
:10065000706F7765723F3B69725F706F7765723D4F
:100660000D0ACDE0EFF0FFE6E5EDE8E520E7E0F08C
:10067000FFE62E20E1E0F2E0F0E5E820ECC23B6985
:100680006E7428353030302C3435303030293B62B0
:100690006174745F66756C6C5F766F6C74616765AE
:1006A0003F3B626174745F66756C6C5F766F6C74EF
:1006B0006167653D0D0ACDE0EFF0FFE6E5EDE8E5A9
:1006C00020F0E0E7F0FFE62E20E1E0F2E0F0E5E8E0
:1006D00020ECC23B696E7428343530302C34353010
:1006E0003030293B626174745F6C6F775F766F6C3A
:1006F000746167653F3B626174745F6C6F775F76AE
:100700006F6C746167653D0D0A00303132333435EA
:10071000363738390001020405070A0F1114191E73
:100720002328324B640011241FBECFE5D8E0DEBF82
:10073000CDBF12E0A0E6B0E0EEEDFBE402C0059014
:100740000D92A237B107D9F715E0A2E7B2E001C0D8
:100750001D92AE31B107E1F70E94AA1D0C94ED2560
:100760000C940000E7E3F0E0808180628083808168
:1007700080688083808180648083E8E3F0E080810A
:100780008F7D808380818F77808380818F7B808342
:100790000895DF93CF9300D0CDB7DEB78A8380E88A
:1007A000898320E030E0E8E3F0E099818A818923C1
:1007B00021F480818F7D808303C08081806280836B
:1007C00080818068808380818F778083898186950E
:1007D00089832F5F3F4F2830310539F7E8E3F0E098
:1007E00080818F7B80838081806480830F900F90D5
:1007F000CF91DF91089580E00E94C9030895809110
:1008000090028460809390020E94C90380919002BC
:100810008B7F809390020E94C90308951F93982FA5
:10082000662331F08091900282608093900205C02F
:10083000809190028D7F80939002992334F480916F
:10084000900280648093900205C0809190028F7B1B
:1008500080939002192F96FF06C0809190028062CB
:100860008093900205C0809190028F7D80939002CA
:1008700015FF06C08091900280618093900205C0B0
:10088000809190028F7E8093900214FF06C0809129
:10089000900288608093900205C080919002877FCB
:1008A00080939002809190020E94C9030E94FF03EE
:1008B00080E49FE10197F1F713FF06C08091900259
:1008C00080648093900205C0809190028F7B80931A
:1008D000900212FF06C08091900280628093900285
:1008E00005C0809190028F7D8093900211FF06C019
:1008F0008091900280618093900205C08091900267
:100900008F7E8093900210FF06C0809190028860D5
:100910008093900205C080919002877F809390021F
:10092000809190020E94C9030E94FF0380E49FE12E
:100930000197F1F71F91089560E00E940E04089559
:1009400081E090E00E949C04089561E00E940E0402
:1009500008958061809390020E94FF0380EE9EE2E2
:100960000197F1F70895DF93CF930F92CDB7DEB7DC
:10097000803418F480E4898301C019828981805809
:100980000E949C0489810F90CF91DF9108958A3055
:1009900031F480917E0290E00E94B3040895803C7F
:1009A00028F0E82FF0E0EE50F040849161E00E94E2
:1009B0000E0480917E028F5F80937E020895CF9314
:1009C000DF93FC018081882339F0EF010E94C70486
:1009D000898121968823D1F7DF91CF9108951F93C4
:1009E000182F662331F480580E949C0410937E02D5
:1009F00007C080540E949C04812F805C80937E02FB
:100A00001F91089582E00E949C0482E080937E0200
:100A10000895CF93DF93FC018491882349F0EF017F
:100A200021960E94C704FE01219684918823C9F76C
:100A3000DF91CF9108958091900280688093900219
:100A40000E94C9030895809190028F77809390024D
:100A50000E94C903089580E40E949C048EE00E94D5
:100A6000A50481E10E94A50481E10E94A50481E121
:100A70000E94A50481E10E94A50481E10E94A504D1
:100A80008FE10E94A50480E00E94A5048EE00E94F0
:100A9000A50481E10E94A50481E10E94A50481E1F1
:100AA0000E94A50481E10E94A5048FE10E94A50493
:100AB0008FE10E94A50480E00E94A5048EE00E94C0
:100AC000A50481E10E94A50481E10E94A50481E1C1
:100AD0000E94A5048FE10E94A5048FE10E94A50455
:100AE0008FE10E94A50480E00E94A5048EE00E9490
:100AF000A50481E10E94A50481E10E94A5048FE183
:100B00000E94A5048FE10E94A5048FE10E94A50424
:100B10008FE10E94A50480E00E94A5048EE00E945F
:100B2000A50481E10E94A5048FE10E94A5048FE144
:100B30000E94A5048FE10E94A5048FE10E94A504F4
:100B40008FE10E94A50480E00E94A5048EE00E942F
:100B5000A5048FE10E94A5048FE10E94A5048FE106
:100B60000E94A5048FE10E94A5048FE10E94A504C4
:100B70008FE10E94A50480E00E94A50480E80E9405
:100B80009C0408950E94B2030E94FB0310929002FD
:100B900010927E022EEB30E040E951E0CA0101974D
:100BA000F1F721503040D1F70E94B20324EB30E03E
:100BB00040E951E0CA010197F1F721503040D1F7E7
:100BC00088E090E00E94A9040E94FF030E94FF03B6
:100BD00080E090E00E94A90488E290E00E949C04DA
:100BE00088E090E00E949C0481E090E00E949C04D8
:100BF00084E090E00E949C048CE090E00E949C04C1
:100C000086E090E00E949C040E942B0508951092BB
:100C1000AD02E1E3F0E08081877F8083E2E3F0E0F2
:100C20008081877F8083E5E5F0E080818860808334
:100C300080818B7F8083EBE5F0E08081806880831A
:100C4000109291020895382F20E0E1E3F0E0A8E14E
:100C5000B1E060E570E040E451E030FF0AC080811F
:100C6000886080838081877F8083CA010197F1F744
:100C70000CC0808188608083CD010197F1F780816D
:100C8000877F8083CB010197F1F72F5F283011F028
:100C90003695E3CF089530E020E0E1E3F0E064E151
:100CA00070E0A0E3B0E040E253E0808188608083A0
:100CB0008081877F8083CB010197F1F78C918870C9
:100CC0008093880226958091880281112068CA014C
:100CD0000197F1F73F5F383041F7822F0895282FB1
:100CE00090E038E1862F822780FF06C0822F83277D
:100CF0008695282F206801C026959F5F983011F0B7
:100D00006695F0CF822F0895CF93DF938091910263
:100D1000882309F06FC080E098E00197F1F7E1E3E4
:100D2000F0E080818860808380E897E00197F1F7A8
:100D30008081877F80838CE190E00197F1F7839B2E
:100D400059C080E491E00197F1F7839953C080EC9A
:100D500093E00197F1F7839B4DC080E897E00197FE
:100D6000F1F783E30E9423060E944B0680939202D0
:100D7000809192028823F1F16091920280E00E94BA
:100D80006F0680938F0210929402809194028630B5
:100D9000F8F4C9E8D2E00E944B0680939302809158
:100DA000940290919302FE01E80FF11D90838091CF
:100DB0008F02609193020E946F0680938F02809150
:100DC00094028F5F8093940280919402863018F38E
:100DD0000E944B06809394029091940280918F021E
:100DE000981721F082E08093910204C081E0809303
:100DF000910205C0EAE5F0E0808180688083DF91A0
:100E0000CF910895E0E2F0E08CE0808380818A3029
:100E100010F48AE080B9E1E2F0E080818C7F808389
:100E20000895CF93DF93582FE6E5F0E044EAA1E27E
:100E3000B0E0C3E2D0E030EA24E840838081882338
:100E4000ECF78C91887F8830B1F5388320838081DE
:100E50008823ECF78C91887F883179F793B984E8FF
:100E600086BFE6E5F0E080818823ECF781B1887FDA
:100E7000883209F553B984E886BFE6E5F0E0808161
:100E80008823ECF781B1887F8832A9F463B984E8BC
:100E900086BFE6E5F0E080818823ECF781B1887FAA
:100EA000883249F484E986BFE6E5F0E0808184FD7C
:100EB000FDCF81E001C080E0DF91CF910895CF9315
:100EC000DF93582FE6E5F0E044EAA1E2B0E0C3E2A8
:100ED000D0E030EA24E8408380818823ECF78C91CD
:100EE000887F883009F04DC0388320838081882333
:100EF000ECF78C91887F883171F793B984E886BFCD
:100F0000E6E5F0E080818823ECF781B1887F8832C4
:100F1000C1F553B984E886BFE6E5F0E08081882317
:100F2000ECF781B1887F883261F584EA86BFE6E517
:100F3000F0E080818823ECF781B1887F803109F56A
:100F400081EA83B984E886BFE6E5F0E08081882302
:100F5000ECF781B1887F8034A1F484E886BFE6E5B0
:100F6000F0E080818823ECF781B1887F883549F4EF
:100F700093B184E986BFE6E5F0E0808184FDFDCF92
:100F800001C090E0892FDF91CF9108950F931F93B7
:100F9000CF93DF938C01E6E5F0E034EAA1E2B0E024
:100FA000C3E2D0E020EA94E8308380818823ECF724
:100FB0008C91887F883009F048C028839083808195
:100FC0008823ECF78C91887F883171F773B984E8B6
:100FD00086BFE6E5F0E080818823ECF781B1887F69
:100FE000883299F563B984E886BFE6E5F0E0808150
:100FF0008823ECF781B1887F883239F54115510596
:10100000D9F020E030E0C3E2D0E0E6E5F0E094E89B
:1010100061E270E0D8018D918D0188839083808199
:101020008823ECF7DB018C91887F883271F42F5F85
:101030003F4F2417350770F384E986BFE6E5F0E0FB
:10104000808184FDFDCF81E001C080E0DF91CF9100
:101050001F910F9108950F931F93CF93DF938C01EE
:10106000E6E5F0E034EAA1E2B0E0C3E2D0E020EA55
:1010700094E8308380818823ECF78C91887F8830D6
:1010800009F071C02883908380818823ECF78C91CC
:10109000887F883171F773B984E886BFE6E5F0E0B0
:1010A00080818823ECF781B1887F883209F05BC0AA
:1010B00063B984E886BFE6E5F0E080818823ECF739
:1010C00081B1887F883209F04EC084EA86BFE6E5A8
:1010D000F0E080818823ECF781B1887F803109F0CE
:1010E00042C081EA83B984E886BFE6E5F0E080810A
:1010F0008823ECF781B1887F8034A9F541505040B6
:10110000D9F020E030E0E6E5F0E094EC61E270E058
:10111000C3E2D0E0908380818823ECF7DB018C91DF
:10112000887F803501F58881D8018D938D012F5FEF
:101130003F4F2417350770F384E886BFE6E5F0E0FB
:1011400080818823ECF781B1887F883561F483B191
:10115000F801808384E986BFE6E5F0E0808184FDC4
:10116000FDCF81E001C080E0DF91CF911F910F9111
:101170000895CF93DF93582FE6E5F0E044EAA1E22B
:10118000B0E0C3E2D0E030EA24E8408380818823E5
:10119000ECF78C91887F8830E1F53883208380815B
:1011A0008823ECF78C91887F883179F793B984E8AC
:1011B00086BFE6E5F0E080818823ECF781B1887F87
:1011C000883239F553B984E886BFE6E5F0E08081DE
:1011D0008823ECF781B1887F8832D9F484EA86BF0E
:1011E000E6E5F0E080818823ECF781B1887F8031EB
:1011F00081F481EA83B984E886BFE6E5F0E0808186
:101200008823ECF781B190E0887F803419F491E075
:1012100001C090E0892FDF91CF910895DC0184EC2B
:1012200086BFE6E5F0E080818823ECF781B1887F16
:10123000803511F080E0089583B18C9381E00895AA
:10124000DC0184E886BFE6E5F0E080818823ECF7E6
:1012500081B1887F883511F080E0089583B18C9347
:1012600084E986BFE6E5F0E0808184FDFDCF81E082
:101270000895CF93DF93E4E3F0E080818062808380
:10128000808180648083A5E3B0E08C918F7B8C9318
:101290008081806880838C918F778C938081886037
:1012A000808380818061808380818460808321E36A
:1012B00030E0E901888180688883A7E3B0E08C9101
:1012C00088608C934AE350E0FA01808181608083DA
:1012D0008C9184608C93E8E3F0E080818B7F808345
:1012E00088818061888388818B7F88838C918E7FC1
:1012F0008C938081816080838C918B7F8C938081A3
:10130000846080838C918D7F8C93808182608083C8
:10131000EA0188818F778883EBE3F0E080818F7723
:101320008083DF91CF9108958DED83BD89E085BDE8
:10133000E9E5F0E080818F7780830895E1E3F0E0D4
:1013400080818B7F8083E5E5F0E08081826080830F
:1013500080818E7F8083EBE5F0E0808180648083F4
:101360000895982F969596959695E92FF0E09F0110
:10137000220F331F220F331F220F331F821B6623BE
:1013800089F0EE53FD4F408127E030E0281B310902
:1013900081E090E002C0880F991F2A95E2F7482B60
:1013A00040830895EE53FD4F408127E030E0281B35
:1013B000310981E090E002C0880F991F2A95E2F779
:1013C000809584238083089510921A0381E080938E
:1013D0009C02E9E5F0E0808180688083E5E3F0E04D
:1013E000808180628083089520E030E0EFEDF2E0BC
:1013F0004BE250E066E570E0880F1AF46193719358
:1014000002C0419351932F5F3F4F27303105A1F721
:101410008BE290E09093DE028093DD0208958130AC
:1014200089F0813028F08230C9F0833061F522C024
:10143000EFEEF2E08BE290E091838083329791832C
:1014400080830895EFEEF2E086E590E0918380835B
:1014500032978BE290E0918380830895EFEEF2E083
:101460008BE290E091838083329786E590E09183D0
:1014700080830895EFEEF2E086E590E0918380832B
:101480003297918380830895873009F4C5C08830EE
:1014900090F4833009F468C0843030F48130C1F1B5
:1014A000823008F04BC020C0853009F489C08630F6
:1014B00008F09CC06FC08B3009F406C18C3038F442
:1014C000893009F4D5C08A3008F0E8C0BBC08D303F
:1014D00009F426C18D3008F40DC18E3009F436C1EF
:1014E0008F3009F05CC148C1A7EFB2E08BE290E019
:1014F00011969C938E93FD01329791838083FD0119
:10150000349791838083169711969C938E930895B8
:10151000A7EFB2E086E590E011969C938E93FD01D3
:1015200032978BE290E091838083FD013497918321
:101530008083169711969C938E930895A7EFB2E03F
:101540002BE230E011963C932E93FD01329786E515
:1015500090E091838083FD01349731832083169737
:1015600011963C932E930895A7EFB2E086E590E0A4
:1015700011969C938E93FD01329791838083FD0198
:1015800034978BE290E091838083169711969C9319
:101590008E930895A7EFB2E02BE230E011963C93D2
:1015A0002E93FD01329731832083FD01349786E528
:1015B00090E091838083169711963C932E93089523
:1015C000A7EFB2E026E530E011963C932E93FD01A3
:1015D00032978BE290E091838083FD0134973183D1
:1015E0002083169711969C938E930895A7EFB2E0EF
:1015F0002BE230E011963C932E93FD01329786E565
:1016000090E091838083FD013497918380831697C6
:1016100011963C932E930895A7EFB2E086E590E0F3
:1016200011969C938E93FD01329791838083FD01E7
:1016300034979183808316978BE290E011969C9368
:101640008E930895A7EFB2E08BE290E011969C9301
:101650008E93FD01329791838083FD0134979183AE
:101660008083169786E590E011969C938E9308955B
:10167000A7EFB2E026E530E011963C932E93FD01F2
:1016800032978BE290E091838083FD0134979183C0
:101690008083169711963C932E930895A7EFB2E09E
:1016A0002BE230E011963C932E93FD01329786E5B4
:1016B00090E091838083FD013497318320831697D6
:1016C00011969C938E930895A7EFB2E026E530E043
:1016D00011963C932E93FD01329731832083FD01B7
:1016E00034978BE290E091838083169711963C9318
:1016F0002E930895A7EFB2E08BE290E011969C93B1
:101700008E93FD01329791838083FD01349786E5A6
:1017100090E091838083169711969C938E93089501
:10172000A7EFB2E026E530E011963C932E93FD0141
:1017300032978BE290E091838083FD01349731836F
:101740002083169711963C932E930895A7EFB2E04D
:101750008BE290E011969C938E93FD01329786E583
:1017600090E091838083FD01349791838083169765
:1017700011969C938E930895A7EFB2E086E590E0D2
:1017800011969C938E93FD01329791838083FD0186
:10179000349791838083169711969C938E93089526
:1017A000482F282F26952695269530E0F901EE53EF
:1017B000FD4F808190E0220F331F220F331F220F35
:1017C000331F421B27E030E0241B310902C09595EE
:1017D00087952A95E2F78170089580E88CBFE3E54C
:1017E000F0E088E4808380818160808380818062F2
:1017F00080830895AFE4B0E08C918E7F8C938C91C0
:101800008D7F8C93EEE4F0E080818860808380811E
:101810008F7E80838C918F7B8C938C918F778C9330
:1018200080818F7E808380818F7D808380818E7F89
:10183000808380818260808380818B7F808389EF39
:101840008ABDE9E5F0E08081806180830895982F6A
:10185000A5E1B3E0FD0111921082FD0132961082E4
:1018600013961C928695482F50E01416150674F4B2
:1018700020E030E065E173E08FEFFB01E20FF31F42
:1018800080832F5F3F4F24173507BCF39A01220F47
:10189000331F892F90E0821B930B181619062CF426
:1018A000FA01EB5EFC4F8CEC8083089586B386953D
:1018B000809581700895EF92FF920F931F93CF93BD
:1018C000DF93FC01062FF72E142F8FE0E13AF80783
:1018D00008F04EC0C0910003D09101038FEF9FEF3D
:1018E000909301038093000380EA9FE0BF010E9470
:1018F0008325E62E802F9F2D9C01213A310510F083
:1019000020EA30E0CF016AE070E00E948325269F44
:10191000A001279F500D369F500D112441155105F0
:1019200019F1E0E0F0E0ACE5B0E06E2D70E09B0175
:101930001C931092A9021092A8028091A802909183
:10194000A90286179707C8F31C921092A902109259
:10195000A8028091A8029091A90282179307C8F368
:101960003196E417F50720F3D0930103C0930003E9
:10197000DF91CF911F910F91FF90EF9008950F93FA
:101980001F9302E310E0F80180818061808388EE7C
:1019900093E063E070E040E80E945B0C84EF91E02C
:1019A00063E070E040E80E945B0CF80180818F7E6C
:1019B00080831F910F9108958F929F92AF92BF9253
:1019C000CF92DF92EF92FF920F931F93DF93CF930B
:1019D00000D0CDB7DEB7D62E8983662329F422E066
:1019E00030E043E050E007C0462F50E09A0121501C
:1019F00030400AF476C00F2EFAE0EF2EF7E0FF2E0B
:101A0000F02D08E712E089816AE00E9477259A8329
:101A100089810E94772589838A81F701E80FF11D6A
:101A2000E491D801A20FB31FEC93215030405AF734
:101A3000FA01E858FD4F1082DD2009F041C00F2E59
:101A4000F8E7CF2EF2E0DF2EF02D56010894A11C0E
:101A5000B11C09E712E04801089481089108B4011B
:101A60006E5F7F4FA4014D5F5F4F94012C5F3F4F2E
:101A7000D40115960F2EF6E0EF2EFF24F02DE80C82
:101A8000F91CF6018081F50190818033C9F4992316
:101A9000B9F0F8018081F4018083FB018081F801B5
:101AA0008083FA018081FB018083F9018081FA0142
:101AB00080838C91F9018083F70180818C93E1CF41
:101AC00088E792E00F900F90CF91DF911F910F91D7
:101AD000FF90EF90DF90CF90BF90AF909F908F904E
:101AE0000895FA01E858FD4F1082EACF8F929F9235
:101AF000AF92BF92CF92DF92EF92FF920F931F931C
:101B0000DF93CF9300D000D0CDB7DEB7462F9A83B6
:101B10008983662341F404E010E00F2EF5E0EF2EF8
:101B2000FF24F02D07C0E62EFF248701015010404E
:101B30000AF488C00F2EFAE0AF2EF7E0BF2EF02D8A
:101B40000F2EF2E7CF2EF2E0DF2EF02D89819A8161
:101B50006AE070E00E948325282F392F3C832B8375
:101B600089819A816AE070E00E948325862F972FF1
:101B70009A8389838B819C81F501E80FF91FE49199
:101B8000D601A00FB11FEC9301501040FAF6F701F7
:101B9000EE58FD4F1082442309F041C00F2EF2E7AA
:101BA000CF2EF2E0DF2EF02D56010894A11CB11CBF
:101BB00003E712E04801089481089108B4016E5FC0
:101BC0007F4FA4014D5F5F4F94012C5F3F4FD401C5
:101BD00015960F2EF6E0EF2EFF24F02DE80CF91CE1
:101BE000F6018081F50190818033C9F49923B9F021
:101BF000F8018081F4018083FB018081F8018083FA
:101C0000FA018081FB018083F9018081FA018083E0
:101C10008C91F9018083F70180818C93E1CF82E779
:101C200092E00F900F900F900F90CF91DF911F9146
:101C30000F91FF90EF90DF90CF90BF90AF909F906B
:101C40008F900895F701EE58FD4F1082E8CF0E9463
:101C5000A00480E690E00E94DF048091FD02909154
:101C6000FE0260E00E94DC0C0E94DF0488E690E047
:101C70000E94DF0480E061E00E94EF048BE690E0C8
:101C80000E94DF048091B0029091B10260E00E9456
:101C9000DC0C0E94DF048AE061E00E94EF0482E72E
:101CA00090E00E94DF048091AA0260E00E94DC0CB8
:101CB0000E94DF0486E790E00E94DF04089587E039
:101CC00060E00E94EF048091FD029091FE0260E0CE
:101CD0000E94DC0C0E94DF0488E790E00E94DF0491
:101CE000089586E061E00E94EF048091B002909137
:101CF000B10260E00E94DC0C0E94DF0486E790E005
:101D00000E94DF0408958DE061E00E94EF0480915D
:101D1000AA0260E00E94DC0C0E94DF0486E790E0EB
:101D20000E94DF04089580EC87B987E886B908959A
:101D3000E7E2F0E090818770892B8083E6E2F0E0B3
:101D4000808180648083808184FFFDCFE6E2F0E0C3
:101D500080818061808324B135B1822F932F0895D3
:101D60000F931F930E94A0040E9402058DE790E04C
:101D70000E94DF040BE013E0F801808160E00E9424
:101D8000DC0C0E94DF0483E890E00E94DF0480E026
:101D900061E00E94EF048BE890E00E94DF040250B3
:101DA0001040F80181918F0160E00E94DC0C0E94DC
:101DB000DF0480E990E00E94DF04F801808160E0A8
:101DC0000E94DC0C0E94DF041F910F910895843360
:101DD00021F1853360F48133C1F0823318F480330C
:101DE00041F515C08233A9F0833319F514C0873348
:101DF000D1F0883328F4853391F08633D1F411C0C3
:101E0000883399F08933A9F412C081E0089580E005
:101E1000089582E0089583E0089584E0089585E0C0
:101E2000089586E0089587E0089588E0089589E0A0
:101E3000089585E508950895CF93DF93582FE6E53B
:101E4000F0E044EAA1E2B0E0C3E2D0E030EA24E806
:101E5000408380818823ECF78C91887F883009F05B
:101E600083C03883208380818823ECF78C91887F1E
:101E7000883171F793B984E886BFE6E5F0E08081A8
:101E80008823ECF781B1887F883209F06DC053B99F
:101E900084E886BFE6E5F0E080818823ECF781B135
:101EA000887F883209F060C084EA86BFE6E5F0E00A
:101EB00080818823ECF781B1887F803109F054C09C
:101EC00081EA83B984E886BFE6E5F0E08081882373
:101ED000ECF781B1887F803409F046C061507040D2
:101EE00001F120E030E0E6E5F0E094ECA1E2B0E0C2
:101EF000C3E2D0E041E0908380818823ECF78C91AD
:101F0000887F803589F5809103038823E1F78881F4
:101F10008093FC02409303032F5F3F4F2617370740
:101F200050F384E886BFE6E5F0E080818823ECF793
:101F300081B1887F8835C1F4809103038823E1F75C
:101F400083B18093FC0281E08093030384E986BF20
:101F5000E6E5F0E0808184FDFDCF1CBE1092FC021E
:101F60001092030381E001C080E0DF91CF910895DA
:101F70000F931F9386E290E00E94C5258C0188E2B2
:101F800090E00E94C525BC01C8010E941C0F1F9152
:101F90000F9108950F931F9382E290E00E94C52550
:101FA0008C0184E290E00E94C525BC01C8010E941A
:101FB0001C0F1F910F9108950F931F938EE190E0D6
:101FC0000E94C5258C0180E290E00E94C525BC01DD
:101FD000C8010E941C0F1F910F9108950E94DC0FF1
:101FE00008950F931F938AE190E00E94C5258C010C
:101FF0008CE190E00E94C525BC01C8010E941C0F25
:102000001F910F9108950E94F10F08950F931F9350
:1020100086E190E00E94C5258C0188E190E00E9455
:10202000C525BC01C8010E941C0F1F910F91089586
:102030008091A5029091A602029750F081E090E075
:102040009093A6028093A502809112038823E1F762
:102050000E94061008950F931F9382E190E00E9462
:10206000C5258C0184E190E00E94C525BC01C80112
:102070000E941C0F1F910F910895EF92FF920F93F2
:102080001F93DF93CF9300D0CDB7DEB787E00E94D8
:10209000980E9A83898386E090E00E94C5257C0192
:1020A00088E090E00E94C5258C018CE060E00E94F1
:1020B000EF0480911403882321F0813009F082C05D
:1020C00047C0C801880F991F880F991F6BE470E003
:1020D0000E948325862F972F8C0187E990E00E942C
:1020E000DF0489819A818017910720F48AEA80931E
:1020F0001D0368C080911D038A3A11F410921D03DC
:10210000C701880F991F880F991F6BE470E00E9428
:102110008325862F972FBC0189819A8168177907BB
:1021200020F485E00E94C7044DC029813A81201B1C
:10213000310BC901880F991F820F931F601B710B10
:10214000880F991F0E948325862F0E94C7043AC0DA
:1021500029813A81C901880F991F820F931F9C0121
:10216000220F331F220F331F820F931F96958795DF
:1021700096958795969587959A83898389819A8183
:1021800064E670E00E948325862F60E00E94DC0CEC
:102190000E94DF048BE990E00E94DF0489819A812C
:1021A00064E670E00E9483256AE070E00E94832567
:1021B000862F60E00E94DC0C0E94DF0486E790E03E
:1021C0000E94DF040F900F90CF91DF911F910F912C
:1021D000FF90EF90089588E090E00E94C52560E0B0
:1021E0000E94760D0E94BB248BE694E00E94CB24D3
:1021F000089586E090E00E94C52560E00E94760D7B
:102200000E94BB248BE694E00E94CB2408950E9498
:102210002B108DE990E00E94BB240895CF92DF92AD
:10222000EF92FF920F931F93DF93CF9300D0CDB720
:10223000DEB71A8220E00F2EFEE1EF2EF4E0FF2E33
:10224000F02D0F2EFAE0CF2EF02DDD24D39423C0F5
:1022500080918602F701E80FF11D908199838F5FCD
:102260008093860289818032B1F08981803370F059
:1022700089818A3358F40A8189810E94E70E0C9D76
:1022800080011124800F8A832D2D05C082EA90E001
:102290000E94BB2440C080918602F701E80FF11D27
:1022A00080818D30A9F6222329F48FE094E00E94EA
:1022B000CB2431C08A81873018F48A81882329F49D
:1022C00082E394E00E94CB2426C08A818330A1F06F
:1022D000843028F4813051F08230C9F40AC085304E
:1022E00089F0853060F0863091F40FC00E942B1089
:1022F0000EC00E9406100BC00E94F10F08C00E9481
:10230000DC0F05C00E94CA0F02C00E94B80F8DE901
:1023100090E00E94BB240F900F90CF91DF911F910E
:102320000F91FF90EF90DF90CF9008950E94C52508
:1023300060E00E94760D0E94BB248AEA90E00E9431
:10234000BB24089588E290E00E949611089586E2E9
:1023500090E00E949611089584E290E00E94961108
:10236000089582E290E00E949611089580E290E044
:102370000E94961108958EE190E00E9496110895B2
:102380008CE190E00E94961108958AE190E00E940D
:102390009611089588E190E00E949611089586E1D3
:1023A00090E00E949611089584E190E00E949611B9
:1023B000089582E190E00E9496110895DF92EF92D5
:1023C000FF920F931F93DF93CF9300D00F92CDB75F
:1023D000DEB71B821A8220E00F2EFEE1EF2EF4E022
:1023E000FF2EF02DDD24D3942EC080918602F701BC
:1023F000E80FF11D908199838F5F80938602898118
:10240000803209F189818033C8F089818A33B0F440
:102410000A811B8189810E94E70E9801220F331FD8
:10242000000F111F000F111F000F111F200F311F70
:10243000280F311D3B832A832D2D05C082EA90E0B1
:102440000E94BB244FC080918602F701E80FF11D66
:1024500080818D3051F6222329F48FE094E00E9490
:10246000CB2440C08A819B818150924028F082E336
:1024700094E00E94CB2436C00E9408258DE990E0AC
:102480000E94BB2410920D0310920C0380910C0348
:1024900090910D038A58924020F4809187028823FE
:1024A000ACF7809187028823CCF46A817B81769592
:1024B000762F6627779567958EE194E040E850E0A7
:1024C0000E94C607882329F08DE990E00E94BB2472
:1024D00009C081EB90E00E94BB2404C08CEC90E02A
:1024E0000E94BB240F900F900F90CF91DF911F910E
:1024F0000F91FF90EF90DF90089580E090E00E94B0
:10250000BD2560E00E94DC0C0E94BB248BE694E0B9
:102510000E94CB2408958AE290E00E94BD2560E0ED
:102520000E94DC0C0E94BB248BE694E00E94CB242A
:1025300008958AE090E00E94BD25803439F080380B
:1025400049F484ED90E00E94BB2404C086ED90E045
:102550000E94BB248BE694E00E94CB24089582E085
:1025600090E00E94BD2560E00E94DC0C0E94BB242C
:102570008AEA90E00E94BB24089581E090E00E94E6
:10258000BD2560E00E94DC0C0E94BB248AEA90E03A
:102590000E94BB24089584E090E00E94BD2560E085
:1025A0000E94DC0C0E94BB248AEA90E00E94BB24BB
:1025B000089583E090E00E94BD2560E00E94DC0C5D
:1025C0000E94BB248AEA90E00E94BB24089582E026
:1025D00090E00E94BD25089580E090E00E94BD2516
:1025E0000895EF92FF920F931F93CF93DF938BE0A9
:1025F00090E00E94BD25909192028917E1F4C0E01D
:10260000D0E00F2EFBE0EF2EF0E0FF2EF02D09E8DA
:1026100012E0CE0101968E0D9F1D0E94BD25F8018E
:10262000EC0FFD1F9081891731F42196C630D1053A
:1026300081F781E001C080E0DF91CF911F910F9180
:10264000FF90EF900895CF92DF92EF92FF920F9359
:102650001F93DF93CF9300D0CDB7DEB71A8220E06F
:102660000F2EFEE1EF2EF4E0FF2EF02D0F2EFAE0FC
:10267000CF2EF02DDD24D39423C080918602F70164
:10268000E80FF11D908199838F5F80938602898185
:102690008032B1F08981803370F089818A3358F4B7
:1026A0000A8189810E94E70E0C9D80011124800F10
:1026B0008A832D2D05C081E594E00E94CB242DC096
:1026C00080918602F701E80FF11D80818D30A9F617
:1026D000222329F48FE094E00E94CB241EC08A813B
:1026E000823038F48A818A81882341F0813089F4EC
:1026F0000BC082E394E00E94CB240FC08AE090E0FC
:1027000060E80E94CB2505C08AE090E060E40E946A
:10271000CB258BE694E00E94CB240F900F90CF91B5
:10272000DF911F910F91FF90EF90DF90CF90089570
:10273000CF92DF92EF92FF920F931F93DF93CF938D
:1027400000D0CDB7DEB71A8220E00F2EFEE1EF2ECB
:10275000F4E0FF2EF02D0F2EFAE0CF2EF02DDD2429
:10276000D39423C080918602F701E80FF11D908178
:1027700099838F5F8093860289818032B1F089814D
:10278000803370F089818A3358F40A8189810E94EC
:10279000E70E0C9D80011124800F8A832D2D05C02A
:1027A00082EA90E00E94BB2418C080918602F70163
:1027B000E80FF11D80818D30A9F6222329F48FE0E6
:1027C00094E00E94CB2409C06A8184E090E00E94DA
:1027D000CB258DE990E00E94BB240F900F90CF9104
:1027E000DF911F910F91FF90EF90DF90CF900895B0
:1027F0008F929F92AF92BF92CF92DF92EF92FF9211
:102800000F931F93DF93CF9300D0CDB7DEB75C015A
:10281000862E942E1A8220E00F2EFEE1EF2EF4E099
:10282000FF2EF02D0F2EFAE0CF2EF02DDD24D394C5
:1028300023C080918602F701E80FF11D90819983F2
:102840008F5F8093860289818032B1F089818033E5
:1028500070F089818A3358F40A8189810E94E70ED9
:102860000C9D80011124800F8A832D2D05C081E5E8
:1028700094E00E94CB2422C080918602F701E80FE9
:10288000F11D80818D30A9F6222329F48FE094E098
:102890000E94CB2413C08A81981618F08A8188156B
:1028A00028F482E394E00E94CB2408C06A81C50129
:1028B0000E94CB258DE990E00E94BB240F900F90E1
:1028C000CF91DF911F910F91FF90EF90DF90CF900C
:1028D000BF90AF909F908F90089580E090E060E06F
:1028E00043E00E94F81308958AE290E060E041E03E
:1028F0000E94F813089582E090E060E04FE00E94AB
:10290000F813089581E090E060E04FE70E94F8132B
:10291000089583E090E060E04AE50E94F81308958E
:10292000EF92FF921F93CF93DF9310929D028AE262
:1029300090E00E94BD25182F0E94A00488ED90E031
:102940000E94DF0480E061E00E94EF04112329F07F
:1029500089EE90E00E94DF0404C08DEE90E00E94BA
:10296000DF0481EF90E00E94DF04CDEED0E00F2E77
:10297000F9EEEF2EF0E0FF2EF02D36C080919D0293
:102980008823E1F380919D028330E1F0843028F4C4
:10299000813041F0823031F508C08430B1F08530AB
:1029A00009F522C010929D021FC0112341F480E05E
:1029B00061E00E94EF04C7010E94DF0411E0109261
:1029C0009D0212C010929D020FC0112341F080E0C1
:1029D00061E00E94EF04CE010E94DF0410E010923B
:1029E0009D0202C010929D0280919D02853031F6B9
:1029F0008AE290E00E94BD25181759F00E94A004B9
:102A00008DEF90E00E94DF048AE290E0612F0E9447
:102A1000CB25DF91CF911F91FF90EF900895DF922A
:102A2000EF92FF920F931F93CF93DF9310929D022B
:102A30008AE090E00E94BD25182F0E94A0048BE040
:102A400091E00E94DF0480E061E00E94EF04103416
:102A500029F48BE191E00E94DF0406C0103821F4D4
:102A600081E291E00E94DF0481EF90E00E94DF04A8
:102A70000F2EF1E2EF2EF1E0FF2EF02D00E8CBE17A
:102A8000D1E0DD246894D6F836C080919D02882379
:102A9000E1F380919D028330E1F0843028F48130AD
:102AA00041F0823031F508C08430B1F0853009F54D
:102AB00022C010929D021FC0103841F480E061E0F6
:102AC0000E94EF04CE010E94DF041D2D10929D0292
:102AD00012C010929D020FC0103441F480E061E0FA
:102AE0000E94EF04C7010E94DF04102F10929D0284
:102AF00002C010929D0280919D02853031F68AE0DD
:102B000090E00E94BD25181759F00E94A0048DEF97
:102B100090E00E94DF048AE090E0612F0E94CB25C4
:102B2000DF91CF911F910F91FF90EF90DF9008956B
:102B3000BF92CF92DF92EF92FF920F931F93CF93AA
:102B4000DF938C016B01EA01B22E10929D02CB0142
:102B50000E94BD25F82EFE01E80FF11DE4900E94B1
:102B6000A004C8010E94DF0480E061E00E94EF043D
:102B70008E2D63E00E94DC0C0E94DF0487E291E06E
:102B80000E94DF0443C080919D028823E1F380917D
:102B90009D02833019F1843028F4813041F0823075
:102BA00099F508C08430E9F0853071F52FC0109296
:102BB0009D022CC0FB1408F4F39480E061E00E94B5
:102BC000EF04FE01EF0DF11DE4918E2F63E00E94F2
:102BD000DC0C0E94DF0410929D0218C010929D022E
:102BE00015C0F110FA9480E061E00E94EF04FE014C
:102BF000EF0DF11DE4918E2F63E00E94DC0C0E942A
:102C0000DF0410929D0202C010929D0280919D02ED
:102C1000853009F0B8CFC6010E94BD25F81651F0E5
:102C20000E94A0048DEF90E00E94DF04C6016F2D8A
:102C30000E94CB25DF91CF911F910F91FF90EF90D4
:102C4000DF90CF90BF900895EF92FF920F931F9364
:102C5000CF93DF93EC017B01042F10929D02CB01F7
:102C60000E94BD25102F801708F4182F0E94A00481
:102C7000CE010E94DF0480E061E00E94EF04812F1A
:102C800063E00E94DC0C0E94DF0487E291E00E9476
:102C9000DF04C02FD0E05FC080919D028823E1F364
:102CA00080919D02833091F1843030F4813051F075
:102CB000823009F04EC01AC08430E1F1853009F04D
:102CC00048C049C0812F90E00A96C817D9070CF078
:102CD000165F80E061E00E94EF04812F63E00E94B4
:102CE000DC0C0E94DF0410929D0235C0101708F41E
:102CF0001F5F80E061E00E94EF04812F63E00E948B
:102D0000DC0C0E94DF0410929D0225C0812F90E010
:102D10000997181619060CF41A5080E061E00E9419
:102D2000EF04812F63E00E94DC0C0E94DF0410920C
:102D30009D0211C01111115080E061E00E94EF046A
:102D4000812F63E00E94DC0C0E94DF0410929D0240
:102D500002C010929D0280919D02853009F09CCFA7
:102D6000C7010E94BD25181751F00E94A0048DEFE5
:102D700090E00E94DF04C701612F0E94CB25DF9104
:102D8000CF911F910F91FF90EF9008950F931F9394
:102D900001E010E085E391E0B8014FE70E942416BE
:102DA000C8010E94BD250E94F40984E491E060E01E
:102DB00070E043E00E9424160E94EC120E940F0A69
:102DC00084E591E062E070E045E157E02FE00E9489
:102DD00098150E94E7120E94440A84E691E063E09D
:102DE00070E04AE50E94241686E791E064E070E016
:102DF0004AE50E94241681E891E065E070E048E031
:102E00000E9424160E940F158AE090E00E94BD25C2
:102E10008093A4020E9490141F910F910895682F2F
:102E200080E090E00E94CB250895BF92CF92DF9280
:102E3000EF92FF920F931F93DF93CF9300D00F92E7
:102E4000CDB7DEB76C011B821A8220E00F2EFEE1A7
:102E5000EF2EF4E0FF2EF02DBB24B3942EC0809112
:102E60008602F701E80FF11D908199838F5F8093AF
:102E700086028981803209F189818033C8F0898195
:102E80008A33B0F40A811B8189810E94E70E980180
:102E9000220F331F000F111F000F111F000F111FF2
:102EA000200F311F280F311D3B832A832B2D05C096
:102EB00082EA90E00E94BB2418C080918602F7014C
:102EC000E80FF11D80818D3051F6222329F48FE027
:102ED00094E00E94CB2409C06A817B81C6010E94D4
:102EE000D8258DE990E00E94BB240F900F900F90A1
:102EF000CF91DF911F910F91FF90EF90DF90CF90D6
:102F0000BF90089588E290E00E941517089586E228
:102F100090E00E941517089584E290E00E94151732
:102F2000089582E290E00E941517089580E290E0F3
:102F30000E94151708958EE190E00E9415170895DC
:102F40008CE190E00E94151708958AE190E00E94BC
:102F50001517089588E190E00E941517089586E1FD
:102F600090E00E941517089584E190E00E941517E3
:102F7000089582E190E00E94151708956F927F9264
:102F80009F92AF92BF92CF92DF92EF92FF920F93F8
:102F90001F93DF93CF9300D00F92CDB7DEB73C01E4
:102FA0005B016A011B821A8220E00F2EFEE1EF2EE8
:102FB000F4E0FF2EF02D992493942EC08091860288
:102FC000F701E80FF11D908199838F5F809386024E
:102FD0008981803209F189818033C8F089818A33FF
:102FE000B0F40A811B8189810E94E70E9801220FAB
:102FF000331F000F111F000F111F000F111F200F93
:10300000311F280F311D3B832A83292D05C081E5FF
:1030100094E00E94CB2427C080918602F701E80F3C
:10302000F11D80818D3051F6222329F48FE094E048
:103030000E94CB2418C08A819B81C816D90628F02B
:103040008A819B818A159B0528F482E394E00E9483
:10305000CB2409C06A817B81C3010E94D8258DE9F8
:1030600090E00E94BB240F900F900F90CF91DF91C2
:103070001F910F91FF90EF90DF90CF90BF90AF9096
:103080009F907F906F90089588E090E064E971E1EF
:1030900048EC5FEA0E94BE17089586E090E060E089
:1030A00070E048EC5FEA0E94BE17089581E090E06E
:1030B0000E94BD2588232CF481E090E060E00E940E
:1030C000CB2580E090E00E94BD25843028F080E090
:1030D00090E060E00E94CB2582E090E00E94BD2558
:1030E000803128F082E090E065E00E94CB2583E00B
:1030F00090E00E94BD258B3528F083E090E06EE1E2
:103100000E94CB2584E090E00E94BD258B3528F0FD
:1031100084E090E06FE00E94CB2585E090E00E9483
:10312000BD25893028F085E090E061E00E94CB2544
:1031300086E090E060EA7FE00E94D82588E090E099
:103140006CE87AE00E94D8258AE090E00E94BD25D4
:10315000803459F08AE090E00E94BD25803829F043
:103160008AE090E060E40E94CB258AE290E00E9431
:10317000BD25823028F08AE290E061E00E94CB25F4
:1031800008950E9456188FEF9FEF9093010380934C
:10319000000390939A028093990210929C0281E01E
:1031A00090E00E94BD250E94F4090E94EC120E944A
:1031B0000F0A0E94E7120E94440A84E090E00E94F5
:1031C000BD258093AA021092B1021092B002EBEDDD
:1031D000F2E08CEA90E0918380837E9611821082E7
:1031E00010921A031092A70210921C0310921B0354
:1031F0001092AE0288E08093040384E690E09093FE
:10320000FE028093FD02AAECB2E0FD011182108261
:103210003296808181608083FD0133961182108215
:1032200015968C9181608C931092A3021092A20249
:1032300010929B021092FB02109214038AE090E01D
:103240000E94BD258093A4021092DA021092A60279
:103250001092A502109212031092AF021092110365
:103260001092100308950E94AC2482E794E00E941B
:10327000CB248DE990E00E94BB240895DF92EF9269
:10328000FF920F931F93DF93CF9300D00F92CDB790
:10329000DEB71B821A8220E00F2EFEE1EF2EF4E053
:1032A000FF2EF02DDD24D3942EC080918602F701ED
:1032B000E80FF11D908199838F5F80938602898149
:1032C000803209F189818033C8F089818A33B0F472
:1032D0000A811B8189810E94E70E9801220F331F0A
:1032E000000F111F000F111F000F111F200F311FA2
:1032F000280F311D3B832A832D2D05C082EA90E0E3
:103300000E94BB2442C080918602F701E80FF11DA4
:1033100080818D3051F6222329F48FE094E00E94C1
:10332000CB2433C08A819B818150924028F082E374
:1033300094E00E94CB2429C00E94AC246A817B8146
:103340007695762F6627779567958EE193E040E82E
:1033500050E00E942B088823A1F000E010E00F2E1F
:10336000FEE1EF2EF3E0FF2EF02DF701E00FF11F4D
:1033700080810E94B3240F5F1F4F00381105A9F709
:1033800004C083E991E00E94BB240F900F900F903E
:10339000CF91DF911F910F91FF90EF90DF900895F3
:1033A0004F925F926F927F928F929F92AF92BF9255
:1033B000CF92DF92EF92FF920F931F93DF93CF9301
:1033C000CDB7DEB7A2970FB6F894DEBF0FBECDBF64
:1033D000EE24FF2420E030E00F2EF1E94F2EF3E041
:1033E0005F2EF02D00E00F2EF3E0CF2EDD24F02D28
:1033F000CC0EDD1EC6017C2C692E0F2EFEE18F2E19
:10340000F4E09F2EF02DC901880F991FF201E80FFB
:10341000F91F25913491A901F9018491882311F4B0
:10342000102F0FC0102FFA018491F601E10FF11D4A
:1034300080831F5F2F5F3F4FA901F901849188238B
:1034400091F780918602609187029401280F311DC7
:10345000C901702F472D562D212F302F0E949725FF
:103460005C018091860260918702F401E80FF11DF2
:10347000CF01702F472D562D212F302F0E949725D9
:10348000892BB9F0C5018E5194409A83898320918C
:10349000860289819A81280F210F209386028091CC
:1034A000870229813A81811B821B809387028E2D9E
:1034B0000AC00894E11CF11C9701FFE2EF16F10429
:1034C00009F0A1CF8FEFA2960FB6F894DEBF0FBE22
:1034D000CDBFCF91DF911F910F91FF90EF90DF90C3
:1034E000CF90BF90AF909F908F907F906F905F90A4
:1034F0004F900895EAE2F0E080818F7780830E9408
:10350000D019E82FF0E0EF32F10508F095C0E65D44
:10351000FF4FEE0FFF1F0590F491E02D09940E94DC
:1035200089148EC00E94D9128BC00E94331988C0A2
:103530000E94981385C00E94CB1282C00E94DE11A7
:103540007FC00E943E197CC00E94B91779C00E94BA
:10355000D91176C00E94B41773C00E94D41170C0F4
:103560000E94AF176DC00E94CF116AC00E94AA17B7
:1035700067C00E94CA1164C00E94A51761C00E9462
:10358000C5115EC00E94A0175BC00E94C01158C048
:103590000E949B1755C00E94BB1152C00E949617F3
:1035A0004FC00E94B6114CC00E94911749C00E94A2
:1035B000B11146C00E948C1743C00E94AC1140C09C
:1035C0000E9487173DC00E94A7113AC00E9482172F
:1035D00037C00E94A21134C00E940E1131C00E9457
:1035E00007112EC00E9482142BC00E94BD1228C059
:1035F0000E947B1425C00E94AF1222C00E94231398
:103600001FC00E9499121CC00E94741419C00E940D
:103610008B1216C00E946D1413C00E947D1210C040
:103620000E944D180DC00E94F9100AC00E94441853
:1036300007C00E94EB1004C08FEE93E00E94CB24E1
:103640001092DA020E94082508952F923F924F921D
:103650005F926F927F928F929F92AF92BF92CF9222
:10366000DF92EF92FF920F931F93DF93CF9300D0DF
:10367000CDB7DEB785E089830E94A0040E940205D1
:103680008BE090E00E94BD25882339F08BE090E02C
:103690000E94BD258F3F09F00DC110929D028DEA59
:1036A00091E00E94DF0480E061E00E94EF048DEB76
:1036B00091E00E94DF040F2EFBE0EF2EF0E0FF2EE2
:1036C000F02DCC24DD240F2EF9E8AF2EF2E0BF2E32
:1036D000F02D0F2EF9ED6F2EF1E07F2EF02D0F2E35
:1036E000FEEC4F2EF1E05F2EF02D0F2EFDEA2F2E77
:1036F000F1E03F2EF02D0F2EFDEB8F2EF1E09F2EEF
:10370000F02D70C08091DA02882341F480919D02EF
:10371000882321F4809191028823A1F38091DA0219
:10372000882311F00E947A1A80919102813031F140
:10373000823009F04DC00E94A0040E940205C2011F
:103740000E94DF04D092A902C092A8028091A80230
:103750009091A90280579741C8F30E94A0040E944B
:103760000205C1010E94DF0480E061E00E94EF04D5
:10377000C4010E94DF04109291022AC0609192025B
:10378000C7010E94CB25C601F501E80FF91F608132
:103790008C010F5F1F4FC701800F911F0E94CB2527
:1037A000C8010630110581F70E94A0040E9402059D
:1037B000C3010E94DF04D092A902C092A8028091A6
:1037C000A8029091A90280579741C8F310929102E4
:1037D00080919D028530B1F080919D02853011F07D
:1037E00010929D0280919D02853031F0C7010E94A8
:1037F000BD25882309F486CFC7010E94BD258F3FD0
:1038000009F480CF80919D02853009F03EC010926E
:103810009D020E94A0040E9402058AEE91E00E948F
:10382000DF048981882359F180919D02882339F52D
:103830001092A9021092A8028091A8029091A90268
:103840008057974120F480919D028823A9F38091AD
:103850009D028823A1F48EE061E00E94EF0489813B
:1038600081508983898160E00E94DC0C0E94DF0422
:103870008981882321F080919D028823C9F280915B
:103880009D02853011F40E94C6161092B10210926A
:10389000B002EBE3F0E080818160808384E090E01F
:1038A0000E94BD258093AA0210929D021092FF02F1
:1038B000109291028BE090E00E94BD25882309F4CC
:1038C00034C18BE090E00E94BD258F3F09F42DC1EB
:1038D0001A820BE012E00F2EFDE2CF2EF2E0DF2E77
:1038E000F02D992493940F2EF6E2AF2EF2E0BF2E26
:1038F000F02D0F2EFEECEF2EF1E0FF2EF02D5FC02D
:103900000E94A0040E940205C8010E94DF04809169
:10391000DA02882321F4809191028823C1F38091F7
:10392000DA02882311F00E947A1A80919102813084
:10393000C1F0823009F043C00E94A0040E94020539
:10394000C7010E94DF041092A9021092A802809180
:10395000A8029091A90280579741C8F31092910252
:103960002EC00E94F1128823B1F09A820E94A00416
:103970000E940205C5010E94DF041092A902109264
:10398000A8028091A8029091A90280579741C8F39C
:103990001092910214C00E94A0040E940205C60168
:1039A0000E94DF041092A9021092A8028091A8023E
:1039B0009091A90280579741C8F3109291028A8191
:1039C000882309F49DCF0E94A0040E940205109252
:1039D0009D021092FF021092910289E392E00E94F0
:1039E000DF048981882399F180919102882379F5F8
:1039F00080919D02882359F51092A9021092A80285
:103A00008091A8029091A9028057974120F480915B
:103A10009D028823A9F380919D028823C1F48EE042
:103A200061E00E94EF04898181508983898160E08F
:103A30000E94DC0C0E94DF048981882341F0809180
:103A40009102882321F480919D028823A9F280911C
:103A50009102813049F1823009F054C00E94A004E3
:103A60000E9402058EEC91E00E94DF041092A902F0
:103A70001092A8028091A8029091A90280579741C4
:103A8000C8F30E94A0040E94020586E592E00E940D
:103A9000DF0480E061E00E94EF0483E692E00E9490
:103AA000DF04109291022EC00E94F112882329F0A7
:103AB0000E94C6161092910225C00E94A0040E9486
:103AC00002058DE292E00E94DF041092A90210929A
:103AD000A8028091A8029091A90280579741C8F34B
:103AE0000E94A0040E94020586E592E00E94DF0485
:103AF00080E061E00E94EF0483E692E00E94DF0430
:103B0000109291021092B1021092B002EBE3F0E039
:103B100080818160808384E090E00E94BD25809355
:103B2000AA0210929D021092FF020F900F90CF9167
:103B3000DF911F910F91FF90EF90DF90CF90BF909A
:103B4000AF909F908F907F906F905F904F903F903D
:103B50002F9008952F923F924F925F926F927F9293
:103B60008F929F92AF92BF92CF92DF92EF92FF928D
:103B70000F931F93CF93DF930E9439090E949409FA
:103B80000E949E090E9407060E94FA0B0E94ED0BFC
:103B900080EF80931D030E94C1180E94C2050E94FD
:103BA000A0040E9453230E94930E0E949A24EAE2EA
:103BB000F0E08081806880838081806480830E94BF
:103BC000020778940F2EF0EFBF2EF02D0F2EF4E1A8
:103BD0008F2EF0E09F2EF02D6624772463940F2E15
:103BE000F3E02F2EF0E03F2EF02DEE24FF240F2ED9
:103BF000F5E0CF2EF0E0DF2EF02D0F2EFBE34F2E61
:103C00005524F02D0EE113E0AA24A3948091A5027F
:103C10009091A602892B11F40E943D1080919B0285
:103C200080911303882319F4B0921D0306C080917C
:103C30001D03803F11F410921D038091FF02882321
:103C4000B1F1813091F58091B0029091B102892B50
:103C500009F18091B0029091B10201979093B10265
:103C60008093B0028091A5029091A602029740F045
:103C70007092A6026092A502809112038823E1F758
:103C8000C4010E94C5259093A6028093A5020E94BC
:103C9000E40908C08091A5029091A602892B11F435
:103CA0000E94CA0F1092FF0202C01092FF02809180
:103CB0000203882309F43FC08130D9F58091AA021C
:103CC0008823A1F18091A5029091A602892B71F51C
:103CD0000E9403108091AA0281508093AA02C10120
:103CE0000E94BD2590E09093B1028093B0020E94A3
:103CF000830E0E94710EE7010CC0F092A902E092BF
:103D0000A8028091A8029091A90280549F41C8F313
:103D10002196C6010E94BD2590E0C817D9076CF313
:103D20000E94EE0FF20180818E7F80831092020349
:103D300002C010920203809184028823C1F0809116
:103D400084028823A1F090918202F801E90FF11D0D
:103D500080819F5F909382020E94B32480918402AD
:103D600081508093840280918402882361F780913E
:103D70009D028330F1F0843028F4813041F08230AC
:103D800009F514C08430C1F08530E1F418C0809189
:103D90001403882319F0813031F403C0A092140376
:103DA00002C01092140310929D020EC010929D0248
:103DB0000BC010929D0208C010929D0205C0109287
:103DC0009D0202C010929D028091FB02882309F49B
:103DD0001DCF0E94710E8091FB0281508093FB02E7
:103DE00015CFDF93CF9300D0CDB7DEB7809112030C
:103DF000882349F482E190E00E94BD2590E00E9472
:103E0000B908809312038091A5029091A6020197B0
:103E100039F4CE0101960E9420091092120304C0C9
:103E2000CE0101960E940E092091A5023091A602B2
:103E300080910503909106032817390781F50E94A8
:103E4000560C813061F5B29B02C01A8202C081E03B
:103E50008A838A81813019F5809104038823F9F0DF
:103E60008091B0029091B102892BC9F08091B0028B
:103E70009091B10201979093B1028093B0020E9499
:103E8000E409CE0101960E9420091092120384E1F8
:103E900090E00E94C5259093A6028093A502898197
:103EA0000F900F90CF91DF9108951F920F920FB650
:103EB0000F9211242F933F934F935F936F937F93B0
:103EC0008F939F93AF93BF93EF93FF93DF93CF9322
:103ED0000F92CDB7DEB7E9E5F0E080818F7E808379
:103EE00078948091B0029091B102892BC9F08091B1
:103EF000A5029091A602892B99F00E94F11E8CBF19
:103F00008091A5029091A602019709F41CBE8091B0
:103F1000A5029091A60201979093A6028093A50214
:103F20008091B0029091B102892BF1F4EBE3F0E0C3
:103F30008081816080838091A5029091A602892B67
:103F400099F00E94F11E8CBF8091A5029091A6026B
:103F5000019709F41CBE8091A5029091A6020197D9
:103F60009093A6028093A50280917F029091800297
:103F700020917F023091800264E670E00E948325E8
:103F800084E690E0AC01649FC001659F900D749F32
:103F9000900D11248217930709F0ADC080910C0396
:103FA00090910D03019690930D0380930C038091E3
:103FB000FF02882309F049C0B29B02C0198202C0E7
:103FC00081E089838981882319F08130D1F51AC075
:103FD0008091CA029091CB02049750F0EAECF2E093
:103FE00011821082329680818E7F808381E02BC087
:103FF000EAECF2E011821082329680818160808347
:1040000080E021C08091CA029091CB02049750F0C9
:10401000EAECF2E011821082329680818E7F8083FA
:1040200081E011C0AAECB2E0FD0181919191208163
:104030002170820F911D11969C938E938091FF02A7
:1040400002C08091FF028093FF02809102038823C7
:1040500009F049C0B09B02C0198202C081E0898387
:104060008981882319F08130D1F51AC08091CD0261
:104070009091CE02049750F0EDECF2E011821082A4
:10408000329680818E7F808381E02BC0EDECF2E060
:1040900011821082329680818160808380E021C00D
:1040A0008091CD029091CE02049750F0EDECF2E0B9
:1040B00011821082329680818E7F808381E011C0D0
:1040C000ADECB2E0FD018191919120812170820FD0
:1040D000911D11969C938E938091020302C0809152
:1040E00002038093020380919D02882321F40E94A1
:1040F000B62380939D0280917F0290918002019669
:104100009093800280937F0280917F029091800241
:10411000895E934008F465C01092800210927F027D
:104120009091150380917002892331F4E5E3F0E06A
:104130008081877F808305C0E5E3F0E0808188602F
:1041400080839091160380917002892331F4E5E316
:10415000F0E080818F7E808305C0E5E3F0E0808120
:10416000806180839091170380917002892331F4DC
:10417000E5E3F0E080818B7F808305C0E5E3F0E03C
:1041800080818460808390911803809170028923DC
:1041900031F4E2E3F0E080818F77808305C0E2E3D1
:1041A000F0E080818068808390911D03809170028F
:1041B000892331F4E5E3F0E080818F7D808305C0C1
:1041C000E5E3F0E080818062808380917002880F57
:1041D0008093700280917002882319F481E08093AB
:1041E00070028091100390911103892B79F0E2E322
:1041F000F0E08081806180838091100390911103B1
:104200000197909311038093100305C0E2E3F0E05F
:1042100080818F7E808380910303882329F08091A1
:10422000FC028CBF1092030382991BC08091A202F2
:104230009091A302805A9F4048F48091A2029091ED
:10424000A30201969093A3028093A2028091A202FE
:104250009091A302805A9F4070F081E080939B026E
:104260000AC01092A3021092A20280919B0288239E
:1042700011F010929B02859903C01092130307C09E
:1042800080911303882319F481E0809313038091B4
:10429000A8029091A90201969093A9028093A80286
:1042A000F894E9E5F0E08081806180830F90CF9100
:1042B000DF91FF91EF91BF91AF919F918F917F918E
:1042C0006F915F914F913F912F910F900FBE0F9083
:1042D0001F9018951F920F920FB60F9211242F93D3
:1042E0003F934F935F936F937F938F939F93AF937E
:1042F000BF93EF93FF93DF93CF930F92CDB7DEB7CA
:1043000081E08093AD02198289818F5F89830E9449
:1043100084060F90CF91DF91FF91EF91BF91AF9104
:104320009F918F917F916F915F914F913F912F91CD
:104330000F900FBE0F901F9018951F920F920FB6FF
:104340000F9211242F933F934F935F936F937F931B
:104350008F939F93AF93BF93EF93FF9380B384703A
:104360008093810280918102882351F480919E0282
:1043700090919F02019690939F0280939E0243C06A
:1043800080910E0390910F03019690930F038093F9
:104390000E038091A702882321F180910E03909152
:1043A0000F0389559140E8F01092A70280911B03FA
:1043B00090911C030D9738F081E08093AE0284E762
:1043C0000E94B32403C082E08093AE021092AF0239
:1043D00080919C02882329F4E9E5F0E080818F77C1
:1043E000808380910E0390910F038955914058F07E
:1043F00080919C02882339F41092AF02E9E5F0E045
:1044000080818F77808380919C02813009F06EC01B
:104410008091A0029091A102892B89F0E5E3F0E060
:1044200090818091A402892780838091A00290913D
:10443000A10201979093A1028093A00257C0E5E3E7
:10444000F0E080818F7B808380818F778083809173
:104450000703909108031816190684F480818F7B56
:10446000808380818F7780838091070390910803F8
:104470000197909308038093070338C0E0911A03D3
:10448000F0E0EE0FFF1FE552FD4F80819181892BF7
:10449000C1F020911A03E22FF0E0EE0FFF1FE5526A
:1044A000FD4F808191819093A1028093A0022F5FA4
:1044B00020931A038BE290E0909308038093070304
:1044C00015C010929C02E5E3F0E080818F7D80832F
:1044D0008091FB028F5F8093FB028091AF02882363
:1044E00029F4E9E5F0E080818F778083FF91EF91F7
:1044F000BF91AF919F918F917F916F915F914F91FC
:104500003F912F910F900FBE0F901F9018951F9203
:104510000F920FB60F9211242F933F934F935F93F7
:104520006F937F938F939F93AF93BF93EF93FF937B
:10453000E9E5F0E080818068808381E08093AF02CC
:1045400005B600FC2AC0E5E5F0E08081816080834B
:104550008091A7028823C1F080910E0390910F03F0
:10456000C99730F480910E0390910F034E9760F439
:104570001092A70210921C0310921B0382E08093FA
:10458000AE0285E60E94B32410929F0210929E0212
:1045900010920F0310920E0375C0E5E5F0E08081E4
:1045A0008E7F80838091A702882309F44BC080917D
:1045B0009E0290919F02C997C0F480919E029091B3
:1045C0009F024E9790F080911B0390911C039C01D9
:1045D0002F5F3F4F30931C0320931B0360E00E942A
:1045E000B10980E30E94B32445C080919E0290915E
:1045F0009F0284369105C8F480919E0290919F029B
:104600008934910590F080911B0390911C039C01CB
:104610002F5F3F4F30931C0320931B0361E00E94E8
:10462000B10981E30E94B32425C01092A702109221
:104630001C0310921B0382E08093AE0285E60E9469
:10464000B32418C080919E0290919F028A3B9105ED
:1046500088F480919E0290919F028F39910550F0CD
:1046600010921C0310921B0381E08093A70288E63E
:104670000E94B32410929F0210929E0210920F0388
:1046800010920E03FF91EF91BF91AF919F918F9187
:104690007F916F915F914F913F912F910F900FBE3E
:1046A0000F901F901895AAE3B0E08C91877F8C93B0
:1046B000EBE3F0E08081886080838C918B7F8C932A
:1046C0008081846080838C918F7D8C9380818062D7
:1046D00080838C918F7B8C938081806480838C918C
:1046E0008F7E8C93808180618083A1EBB2E0FD019D
:1046F000118210823296808181608083FD01339621
:1047000011821082FD013596808181608083FD01D8
:10471000369611821082FD013896808181608083F7
:10472000FD01399611821082FD013B9680818160E6
:104730008083FD013C96118210821E968C918160CF
:104740008C930895E9E3F0E08081869586958695BF
:104750008095982F9170808182FF9260CD9B9460AC
:10476000CE9B9860CC9B9061892F08950E94A223D4
:10477000823091F1833038F4882309F4A9C0813064
:1047800009F0AAC00AC0883009F464C0803109F475
:1047900080C0843009F0A0C03EC08091B1029091E9
:1047A000B202049750F0E1EBF2E0118210823296EF
:1047B00080818E7F808381E00895A1EBB2E0FD01CE
:1047C0008191919120812170820F911D11969C936E
:1047D0008E9380919D0208958091B4029091B502CC
:1047E000049750F0E4EBF2E011821082329680815F
:1047F0008E7F808382E00895A4EBB2E0FD01819179
:10480000919120812170820F911D11969C938E931E
:1048100080919D0208958091B7029091B80204970B
:1048200050F0E7EBF2E011821082329680818E7FA9
:10483000808383E00895A7EBB2E0FD01819191911F
:1048400020812170820F911D11969C938E938091EF
:104850009D0208958091BA029091BB02049750F096
:10486000EAEBF2E011821082329680818E7F8083A3
:1048700084E00895AAEBB2E0FD018191919120813D
:104880002170820F911D11969C938E9380919D02B1
:1048900008958091BD029091BE02049750F0EDEB17
:1048A000F2E011821082329680818E7F808385E0D3
:1048B0000895ADEBB2E0FD018191919120812170CD
:1048C000820F911D11969C938E9380919D02089565
:1048D0000E94532380E00895A1EBB2E0FD01118214
:1048E0001082329680818E7F8083FD013396118203
:1048F0001082FD01359680818E7F8083FD01369682
:1049000011821082FD01389680818E7F8083FD01A7
:10491000399611821082FD013B9680818E7F8083C3
:10492000FD013C96118210821E968C918E7F8C9395
:1049300080E00895A0E4B0E01C9287E689B9EBE23C
:10494000F0E080818D7F808388E98AB986E88C9346
:104950000895809184020895109282021092830239
:10496000109284020895982FEBE2F0E0808185FF99
:10497000FDCF9CB90895CF93DF93FC0180818823FC
:1049800039F0EF010E94B324898121968823D1F761
:10499000DF91CF910895CF93DF93FC018491882319
:1049A00049F0EF0121960E94B324FE0121968491E3
:1049B0008823C9F7DF91CF9108951F920F920FB608
:1049C0000F9211248F93EF93FF9380918402882399
:1049D000A1F080918302EEE1F3E0E80FF11D808108
:1049E0008CB98091840281508093840280918302EB
:1049F0008F5F8093830280918302FF91EF918F916B
:104A00000F900FBE0F901F90189580918702089508
:104A1000EAE2F0E080818F77808310928502109225
:104A20008602109287028081806880830895809139
:104A30008702882311F4E0E013C080918602EEE142
:104A4000F4E0E80FF11DE0818091870281508093AE
:104A50008702809186028F5F809386028091860212
:104A60008E2F08951F920F920FB60F9211248F93DD
:104A70009F93AF93BF93EF93FF93809187028091B1
:104A800085029CB1EEE1F4E0DF01A80FB11D9C931B
:104A900080918502E80FF11DE081ED3019F0E133DE
:104AA00079F404C081E08093DA020AC08091100397
:104AB00090911103845D9E4F909311038093100396
:104AC000809185028F5F809385028091850280911D
:104AD00087028F5F80938702FF91EF91BF91AF9123
:104AE0009F918F910F900FBE0F901F901895991B5B
:104AF00079E004C0991F961708F0961B881F7A95D5
:104B0000C9F780950895AA1BBB1B51E107C0AA1FD6
:104B1000BB1FA617B70710F0A61BB70B881F991F5E
:104B20005A95A9F780959095BC01CD01089521155E
:104B3000310511F11F930F93240F351F680F791F53
:104B4000FA011191AF01DC01A617B70780F40D91AE
:104B50000117D1F7CD01FA01E217F30750F4A617B8
:104B6000B70728F40D9101900015B1F3ECCF81E067
:104B700090E001970F911F910895E199FECF9FBB9F
:104B80008EBBE09A99278DB30895A8E1B0E042E08A
:104B900050E00C94DF25262FE199FECF9FBB8EBB02
:104BA0002DBB0FB6F894E29AE19A0FBE01960895D4
:104BB0000E94CB25272F0C94CC25DC01CB01FC01D6
:104BC000E199FECF06C0FFBBEEBBE09A31960DB275
:0E4BD0000D9241505040B8F70895F894FFCF71
:104BDE00E6E8E7EDFC3A2000252000EFE0F2F03A9F
:104BEE002000EC3A200020002520202000D3F0EEFB
:104BFE00ED20002520EDE0EDE5F100E8E32E2000AC
:104C0E0020EAEEEC2E2000202020002C004F4B0D31
:104C1E000A004552524F520A0D000D0A4F4B0D0A13
:104C2E00004552524F523A656570726F6D20777221
:104C3E00697465206572726F720D0A004552524F8B
:104C4E00520D0A0030003100C4F0F3E6E5F1F2E255
:104C5E002E20EEE3EEEDFC3A00C4E02000CDE5F2AE
:104C6E000020F6E5ED2EEAED2E2D4F4B00D1EEF5A0
:104C7E00F0E0EDE5EDE8E52E2E2E00CCEEF9EDEEB2
:104C8E00F1F2FC20C8CA20E4EBFF00F3EBE8F6FBE0
:104C9E0000EFEEECE5F90020F6E5EDF2F02EEAED90
:104CAE002E2D4F4B00C8E4E5EDF22E20E8E3F0EE9A
:104CBE00EAE03A00C8E4E5EDF22E20EAEEECE0ED93
:104CCE00E4FB3A00CDE0EDEEF1E8ECFBE920F3F089
:104CDE00EEED3A00C5ECEAEEF1F2FC20ECE0E3E09A
:104CEE00E7E8EDE03A00CCE0E3E0E7E8EDEEE23AAB
:104CFE0000C2F0E5ECFF20EFE5F0E5E7E0F0FFE4C1
:104D0E00E03A004552524F523A656570726F6D200F
:104D1E0072656164206572726F720D0A00C7E0EFF2
:104D2E00E8F1FC20EAEBFEF7E020D2CC00D6E5ED70
:104D3E00F2F02EEAED2E2DEEF2ECE5EDE000CEF8DF
:104D4E00E8E1EAE02043524300CAEBFEF720D2CC62
:104D5E0020E7E0EFE8F1E0ED2100C4EBFF20EDE00D
:104D6E00F1F2F0EEE5EA20E6ECE80AF6E5EDF2F017
:104D7E002E20EAEDEEEFEAF3203500C4EBFF20E043
:104D8E00EAF2E8E2E0F6E8E80AEFF0E8EBEEE6E851
:104D9E0020EAEBFEF700D3E4E0F7E82100CDE520B2
:104DAE00F2EEF220EAEBFEF700C4EBFF20EDE0F1AD
:104DBE00F2F0EEE5EA0AEFF0E8EBEEE6E820EAEBD9
:104DCE00FEF720203500C4EBFF20EDE0F1F2F0EE0F
:104DDE00E5EA00EFF0E8EBEEE6E820EAEBFEF7009E
:024DEE000100C2
:00000001FF
