:100000000C9437050C944C320C9419320C94540512
:100010000C94152E0C9454050C9454050C94AA2F92
:100020000C9454050C9454050C9454050C945405EC
:100030000C9454050C942E350C9454050C94DC341B
:100040000C9454050C9454050C9454050C945405CC
:100050000C945405542657265A265D26602663269E
:10006000662669266C266F267226752678267B26DC
:100070007E268126842687268A268D26902693260C
:10008000962699269C269F26A226A526A826AB263C
:10009000AE26B126B426B726BA26BD26C026C3266C
:1000A000C626C926CC26CF26D226D526D826DB269C
:1000B000DE26E126E426E726EA26ED26F026F326CC
:1000C000F626F926FC26FF260227052708270B27F8
:1000D0000E271127142717271A271D272027232724
:1000E000262729272C272F2741A042A1E045A3A49A
:1000F000A5A64BA74D484FA8504354A9AA58E1AB19
:10010000ACE2ADAEADAFB0B161B2B3B4E365B6B71A
:10011000B8B9BABBBCBD6FBE7063BF79E478E5C047
:10012000C1E6C2C3C4C5C6C762756C6C6574735F33
:10013000696E5F636C69703D0062756C6C657473A9
:100140005F696E5F636C69703F0070726F746F639C
:100150006F6C3F00636C6970733D00636C69707312
:100160003F00707265706172655F746F5F7772696E
:1001700074655F626C6F636B00726561645F626C73
:100180006F636B00736F756E645F315F616472657E
:1001900073733D00736F756E645F315F6164726588
:1001A00073733F00736F756E645F315F73697A6557
:1001B0003D00736F756E645F315F73697A653F00F0
:1001C000736F756E645F325F6164726573733D0057
:1001D000736F756E645F325F6164726573733F0045
:1001E000736F756E645F325F73697A653D00736F1C
:1001F000756E645F325F73697A653F00736F756E09
:10020000645F335F6164726573733D00736F756E15
:10021000645F335F6164726573733F00736F756E03
:10022000645F335F73697A653D00736F756E645FF9
:10023000335F73697A653F00736F756E645F345F17
:100240006164726573733D00736F756E645F345FD4
:100250006164726573733F00736F756E645F345FC2
:1002600073697A653D00736F756E645F345F73699F
:100270007A653F00736F756E645F355F61647265A8
:1002800073733D00736F756E645F355F6164726593
:1002900073733F00736F756E645F355F73697A6562
:1002A0003D00736F756E645F355F73697A653F00FB
:1002B000736F756E645F365F6164726573733D0062
:1002C000736F756E645F365F6164726573733F0050
:1002D000736F756E645F365F73697A653D00736F27
:1002E000756E645F365F73697A653F00706C617923
:1002F0005F736F756E6400706C61795F73686F74A3
:100300005F736F756E6400706C617965725F6964AC
:100310003D00706C617965725F69643F0064616D76
:100320006167655F696E6465783D0064616D6167F2
:10033000655F696E6465783F0069725F706F7765AD
:10034000723D0069725F706F7765723F0066726917
:10035000656E646C795F666972653D006672696599
:100360006E646C795F666972653F007465616D5F8C
:1003700069643D007465616D5F69643F006261742A
:10038000745F66756C6C5F766F6C746167653D0059
:10039000626174745F66756C6C5F766F6C746167B4
:1003A000653F00626174745F6C6F775F766F6C7429
:1003B0006167653D00626174745F6C6F775F766F33
:1003C0006C746167653F00736F756E645F375F6162
:1003D00064726573733D00736F756E645F375F6140
:1003E00064726573733F00736F756E645F375F731C
:1003F000697A653D00736F756E645F375F73697A04
:10040000653F00736F756E645F385F61647265731A
:10041000733D00736F756E645F385F6164726573FE
:10042000733F00736F756E645F385F73697A653D03
:1004300000736F756E645F385F73697A653F007330
:100440006F756E645F395F6164726573733D0073CD
:100450006F756E645F395F6164726573733F0073BB
:100460006F756E645F395F73697A653D00736F7590
:100470006E645F395F73697A653F00736F756E6490
:100480005F31305F6164726573733D00736F756EC9
:10049000645F31305F6164726573733F00736F75C1
:1004A0006E645F31305F73697A653D00736F756E9E
:1004B000645F31305F73697A653F0069725F6361C1
:1004C00072726965725F6672657175656E63793D9A
:1004D0000069725F636172726965725F66726571ED
:1004E00075656E63793F00636C6561725F746D0062
:1004F00072656C6F61645F6475726174696F6E3D83
:100500000072656C6F61645F6475726174696F6EAF
:100510003F006C6966655F61667465725F737461E4
:1005200072743D006C6966655F61667465725F73C5
:10053000746172743F006379636C69635F726174A4
:10054000653D006379636C69635F726174653F0048
:10055000736166655F6475726174696F6E3D007387
:100560006166655F6475726174696F6E3F00280132
:1005700039014A0154015B0162017901840194014E
:10058000A401B201C001D001E001EE01FC010C02A6
:100590001C022A02380248025802660274028402CF
:1005A0009402A202B002C002D002DE02EC02F70204
:1005B000070312031D032B03390343034D035C039D
:1005C0006B0374037D039003A303B503C703D70331
:1005D000E703F50303041304230431043F044F0429
:1005E0005F046D047B048C049D04AC04BB04D10443
:1005F000E704F004010512052405360543055005FE
:100600005F054552524F523A756E6B6E6F776E2092
:10061000636F6D6D616E640D0A004552524F520D4D
:100620000A004552524F523A706172616D657465AD
:1006300072206973206E6F742073706563696669D8
:1006400065640D0A004552524F523A706172616DF5
:1006500065746572206F7574206F662072616E67B5
:10066000650D0A004552524F523A696E76616C69C7
:100670006420706172616D657465720D0A000D0A07
:100680004F4B0D0A00526F756E647320696E2063C4
:100690006C69703B696E7428302C3930293B627567
:1006A0006C6C6574735F696E5F636C69703F3B620D
:1006B000756C6C6574735F696E5F636C69703D0D1A
:1006C0000A436C6970733B696E7428302C3130308A
:1006D000293B636C6970733F3B636C6970733D0DBC
:1006E0000A517569636B66697265722028726F754D
:1006F0006E64732F6D696E293B696E742833302CDC
:10070000383030293B6379636C69635F726174656B
:100710003F3B6379636C69635F726174653D0D0A89
:10072000506C617965722049443B696E7428302CA5
:10073000313237293B706C617965725F69643F3B88
:10074000706C617965725F69643D0D0A5465616D15
:1007500020636F6C6F723B656E756D285265642CFB
:10076000426C75652C59656C6C6F772C47726565AA
:100770006E293B7465616D5F69643F3B7465616DB3
:100780005F69643D0D0A44616D6167653B656E7527
:100790006D2831252C32252C34252C35252C372558
:1007A0002C3130252C3135252C3137252C32302574
:1007B0002C3235252C3330252C3335252C3430255F
:1007C0002C3530252C3735252C31303025293B640C
:1007D000616D6167655F696E6465783F3B64616DFB
:1007E0006167655F696E6465783D0D0A467269658B
:1007F0006E646C7920666972653B656E756D284E16
:100800006F2C596573293B667269656E646C795FFC
:10081000666972653F3B667269656E646C795F6696
:100820006972653D0D0A4865616C74683B696E7458
:1008300028302C313030293B6C6966655F61667405
:1008400065725F73746172743F3B6C6966655F616A
:10085000667465725F73746172743D0D0A496E76D9
:10086000696E636962696C69747920616674657226
:10087000206265696E6720776F756E6465642028F5
:10088000696E2074656E746873206F66207365638B
:100890002E293B696E7428302C3330293B736166F6
:1008A000655F6475726174696F6E3F3B7361666505
:1008B0005F6475726174696F6E3D0D0A49522072F2
:1008C0006164696174696F6E20706F7765723B65F2
:1008D0006E756D28466F7220696E646F6F72206747
:1008E000616D65732C466F72206F7574646F6F72E3
:1008F000732067616D6573293B69725F706F7765FF
:10090000723F3B69725F706F7765723D0D0A4952A5
:100910002063617272696572206672657175656EB9
:1009200063793B656E756D283336206B487A2C35BC
:1009300036206B487A293B69725F63617272696520
:10094000725F6672657175656E63793F3B69725F50
:10095000636172726965725F6672657175656E63F7
:10096000793D0D0A52656C6F6164206379636C6533
:10097000206475726174696F6E20287365632E2917
:100980003B696E7428302C38293B72656C6F61644A
:100990005F6475726174696F6E3F3B72656C6F6105
:1009A000645F6475726174696F6E3D0D0A436861BE
:1009B00072676564206261747465727920766F6C09
:1009C0007461676520286D56293B696E7428333041
:1009D00030302C3435303030293B626174745F66BE
:1009E000756C6C5F766F6C746167653F3B626174B8
:1009F000745F66756C6C5F766F6C746167653D0DD6
:100A00000A4C6F77206261747465727920766F6C1E
:100A10007461676520286D56293B696E74283237EA
:100A200030302C3435303030293B626174745F6C67
:100A30006F775F766F6C746167653F3B626174745A
:100A40005F6C6F775F766F6C746167653D0D0A0050
:100A50003031323334353637383900010204050776
:100A60000A0F1114191E2328324B64243800112454
:100A70001FBECFE5D8E0DEBFCDBF12E0A0E6B0E0FC
:100A8000E8E9FCE602C005900D92AC33B107D9F756
:100A900014E0ACE3B2E001C01D92A73FB107E1F75B
:100AA0000E94432A0C944A360C940000E7E3F0E0DD
:100AB000808180628083808180688083808180647F
:100AC0008083E8E3F0E080818F7D808380818F7771
:100AD000808380818F7B80830895DF93CF9300D0C4
:100AE000CDB7DEB78A8380E8898320E030E0E8E391
:100AF000F0E099818A81892321F480818F7D808330
:100B000003C080818062808380818068808380814F
:100B10008F7780838981869589832F5F3F4F283027
:100B2000310539F7E8E3F0E080818F7B80838081B5
:100B3000806480830F900F90CF91DF91089580E0C3
:100B40000E946D05089580915A02846080935A0234
:100B50000E946D0580915A028B7F80935A020E94F9
:100B60006D0508951F93982F662331F080915A02E6
:100B7000826080935A0205C080915A028D7F8093D3
:100B80005A02992334F480915A02806480935A0265
:100B900005C080915A028F7B80935A02192F96FFCD
:100BA00006C080915A02806280935A0205C08091EB
:100BB0005A028F7D80935A0215FF06C080915A0217
:100BC000806180935A0205C080915A028F7E809383
:100BD0005A0214FF06C080915A02886080935A021C
:100BE00005C080915A02877F80935A0280915A02F1
:100BF0000E946D050E94A30580E49FE10197F1F733
:100C000013FF06C080915A02806480935A0205C087
:100C100080915A028F7B80935A0212FF06C0809106
:100C20005A02806280935A0205C080915A028F7DD9
:100C300080935A0211FF06C080915A02806180930E
:100C40005A0205C080915A028F7E80935A0210FF8B
:100C500006C080915A02886080935A0205C0809134
:100C60005A02877F80935A0280915A020E946D0532
:100C70000E94A30580E49FE10197F1F71F91089579
:100C800060E00E94B205089581E00E944006089548
:100C900061E00E94B2050895806180935A020E942B
:100CA000A30580EE9EE20197F1F70895DF93CF93BD
:100CB0000F92CDB7DEB78A3071F48091480280344C
:100CC00018F480E4898301C01982898180580E94C8
:100CD000400689810FC0803C28F0E82FF0E0E85DF5
:100CE000FF4F849161E00E94B205809148028F5FBE
:100CF000809348020F90CF91DF910895CF93DF93B7
:100D0000FC018081882339F0EF010E945606898119
:100D100021968823D1F7DF91CF9108951F93182F43
:100D2000662331F480580E9440061093480207C0A1
:100D300080540E944006812F805C809348021F915E
:100D4000089582E00E94400682E080934802089560
:100D500080915A02806880935A020E946D0508951E
:100D600080915A028F7780935A020E946D050895F0
:100D700080E40E9440068EE00E94480681E10E94C5
:100D8000480681E10E94480681E10E94480681E10F
:100D90000E94480681E10E9448068FE10E944806B1
:100DA00080E00E9448068EE00E94480681E10E9491
:100DB000480681E10E94480681E10E94480681E1DF
:100DC0000E9448068FE10E9448068FE10E94480673
:100DD00080E00E9448068EE00E94480681E10E9461
:100DE000480681E10E94480681E10E9448068FE1A1
:100DF0000E9448068FE10E9448068FE10E94480643
:100E000080E00E9448068EE00E94480681E10E9430
:100E1000480681E10E9448068FE10E9448068FE162
:100E20000E9448068FE10E9448068FE10E94480612
:100E300080E00E9448068EE00E94480681E10E9400
:100E400048068FE10E9448068FE10E9448068FE124
:100E50000E9448068FE10E9448068FE10E944806E2
:100E600080E00E9448068EE00E9448068FE10E94C2
:100E700048068FE10E9448068FE10E9448068FE1F4
:100E80000E9448068FE10E9448068FE10E944806B2
:100E900080E00E94480680E80E94400608950E9473
:100EA00056050E949F0510925A02109248022EEB9E
:100EB00030E040E951E0CA010197F1F7215030409C
:100EC000D1F70E94560524EB30E040E951E0CA0119
:100ED0000197F1F721503040D1F788E00E944C068D
:100EE0000E94A3050E94A30580E00E944C0688E2B0
:100EF0000E94400688E00E94400681E00E94400671
:100F000084E00E9440068CE00E94400686E00E9439
:100F100040060E94B806089580E40E9440068EE0D4
:100F20000E9448068FE10E9448068FE10E94480611
:100F30008FE10E9448068FE10E9448068FE10E94DF
:100F400048068FE10E94480680E00E94480680E043
:100F50000E94480680E00E9448068AE00E944806F7
:100F60008FE10E9448068EE00E94480684E00E94BD
:100F7000480680E00E94480680E00E94480686E01D
:100F80000E9448068FE00E9448068FE00E944806B3
:100F90008FE00E9448068FE00E94480686E00E948B
:100FA00048068FE00E94480680E00E9448068EE0D6
:100FB0000E9448068AE10E9448068EE10E94480687
:100FC0008AE10E9448068EE10E9448068AE10E945A
:100FD00048068FE00E94480680E00E94480686E0AE
:100FE0000E94480689E00E94480686E00E94480662
:100FF0008FE00E9448068FE40E9448068FE00E941E
:10100000480686E00E94480686E00E94480680E185
:101010000E9448068FE10E9448068FE10E94480620
:101020008FE10E94480680E10E94480680E10E940C
:10103000480680E10E94480680E10E94480680E858
:101040000E94400608951F93182F80E40E944006D6
:10105000123009F444C0133030F4112371F0113010
:1010600009F0A0C023C0143009F46BC0143008F498
:101070004FC0153009F096C07DC08EE00E94480632
:1010800081E10E94480681E10E94480681E10E94B8
:10109000480681E10E94480681E10E9448068FE1EE
:1010A0000E94480680E00E9448067CC08EE00E94B4
:1010B000480681E10E94480681E10E94480681E1DC
:1010C0000E94480681E10E9448068FE10E9448067E
:1010D0008FE10E94480680E00E94480663C08EE0CF
:1010E0000E94480681E10E94480681E10E9448066C
:1010F00081E10E9448068FE10E9448068FE10E942C
:1011000048068FE10E94480680E00E9448064AC0D7
:101110008EE00E94480681E10E94480681E10E941B
:1011200048068FE10E9448068FE10E9448068FE141
:101130000E9448068FE10E94480680E00E9448060F
:1011400031C08EE00E94480681E10E9448068FE18E
:101150000E9448068FE10E9448068FE10E944806DF
:101160008FE10E9448068FE10E94480680E00E94BD
:10117000480618C08EE00E9448068FE10E9448068B
:101180008FE10E9448068FE10E9448068FE10E948D
:1011900048068FE10E9448068FE10E94480680E0E1
:1011A0000E94480680E80E9440061F910895109210
:1011B0008702E1E3F0E08081877F8083E2E3F0E073
:1011C0008081877F8083E5E5F0E08081886080838F
:1011D00080818B7F8083EBE5F0E080818068808375
:1011E00010925B020895382F20E0E1E3F0E0A8E1DF
:1011F000B1E060E570E040E451E030FF0AC080817A
:10120000886080838081877F8083CA010197F1F79E
:101210000CC0808188608083CD010197F1F78081C7
:10122000877F8083CB010197F1F72F5F283011F082
:101230003695E3CF089530E020E0E1E3F0E064E1AB
:1012400070E0A0E3B0E040E253E0808188608083FA
:101250008081877F8083CB010197F1F78C91887023
:101260008093520226958091520281112068CA0112
:101270000197F1F73F5F383041F7822F0895282F0B
:1012800090E038E1862F822780FF06C0822F8327D7
:101290008695282F206801C026959F5F983011F011
:1012A0006695F0CF822F0895CF93DF9380915B02F4
:1012B000882309F06FC080E098E00197F1F7E1E33F
:1012C000F0E080818860808380E897E00197F1F703
:1012D0008081877F80838CE190E00197F1F7839B89
:1012E00059C080E491E00197F1F7839953C080ECF5
:1012F00093E00197F1F7839B4DC080E897E0019759
:10130000F1F783E30E94F3080E941B0980935C02BB
:1013100080915C028823F1F160915C0280E00E9480
:101320003F098093590210925E0280915E028630DE
:10133000F8F4C3E5D2E00E941B0980935D0280911E
:101340005E0290915D02FE01E80FF11D9083809195
:10135000590260915D020E943F0980935902809179
:101360005E028F5F80935E0280915E02863018F38A
:101370000E941B0980935E0290915E028091590247
:10138000981721F082E080935B0204C081E0809393
:101390005B0205C0EAE5F0E0808180688083DF9130
:1013A000CF910895E0E2F0E08CE0808380818A3084
:1013B00010F48AE080B9E1E2F0E080818C7F8083E4
:1013C00008950F931F93CF93DF938C01E6E5F0E030
:1013D00034EAA1E2B0E0C3E2D0E020EA94E830834E
:1013E00080818823ECF78C91887F883009F048C091
:1013F0002883908380818823ECF78C91887F8831C3
:1014000071F773B984E886BFE6E5F0E08081882350
:10141000ECF781B1887F883299F563B984E886BF9B
:10142000E6E5F0E080818823ECF781B1887F88329F
:1014300039F541155105D9F020E030E0C3E2D0E0A4
:10144000E6E5F0E094E861E270E0D8018D918D016D
:101450008883908380818823ECF7DB018C91887FDF
:10146000883271F42F5F3F4F2417350770F384E9FA
:1014700086BFE6E5F0E0808184FDFDCF81E001C01C
:1014800080E0DF91CF911F910F9108950F931F93EB
:10149000CF93DF938C01E6E5F0E034EAA1E2B0E01F
:1014A000C3E2D0E020EA94E8308380818823ECF71F
:1014B0008C91887F883009F071C028839083808167
:1014C0008823ECF78C91887F883171F773B984E8B1
:1014D00086BFE6E5F0E080818823ECF781B1887F64
:1014E000883209F05BC063B984E886BFE6E5F0E0C6
:1014F00080818823ECF781B1887F883209F04EC063
:1015000084EA86BFE6E5F0E080818823ECF781B1CC
:10151000887F803109F042C081EA83B984E886BFC0
:10152000E6E5F0E080818823ECF781B1887F8034A4
:10153000A9F541505040D9F020E030E0E6E5F0E078
:1015400094EC61E270E0C3E2D0E090838081882374
:10155000ECF7DB018C91887F803501F58881D8011B
:101560008D938D012F5F3F4F2417350770F384E86B
:1015700086BFE6E5F0E080818823ECF781B1887FC3
:10158000883561F483B1F801808384E986BFE6E59C
:10159000F0E0808184FDFDCF81E001C080E0DF913B
:1015A000CF911F910F910895CF93DF93582FE6E5C8
:1015B000F0E044EAA1E2B0E0C3E2D0E030EA24E89F
:1015C000408380818823ECF78C91887F8830E1F517
:1015D0003883208380818823ECF78C91887F883141
:1015E00079F793B984E886BFE6E5F0E08081882347
:1015F000ECF781B1887F883239F553B984E886BF2A
:10160000E6E5F0E080818823ECF781B1887F8832BD
:10161000D9F484EA86BFE6E5F0E080818823ECF720
:1016200081B1887F803181F481EA83B984E886BF03
:10163000E6E5F0E080818823ECF781B190E0887FD7
:10164000803419F491E001C090E0892FDF91CF91AF
:101650000895DC0184EC86BFE6E5F0E08081882314
:10166000ECF781B1887F803511F080E0089583B177
:101670008C9381E00895DC0184E886BFE6E5F0E024
:1016800080818823ECF781B1887F883511F080E074
:10169000089583B18C9384E986BFE6E5F0E080810C
:1016A00084FDFDCF81E00895CF93DF93E4E3F0E084
:1016B0008081806280834AE350E0DA018C9182600D
:1016C0008C93808180648083A5E3B0E08C918F7BD4
:1016D0008C938081806880838C918F778C938081BC
:1016E0008860808380818061808380818460808342
:1016F00021E330E0E901888180688883E7E3F0E056
:10170000808188608083808180618083A8E3B0E0ED
:101710008C9180618C93EA018881816088838081CB
:10172000846080838C918B7F8C93E90188818061B8
:10173000888388818B7F888380818E7F80838C9152
:1017400081608C9380818B7F80838C9184608C936B
:1017500080818D7F80838C9182608C93E2E3F0E0C6
:1017600080818F7D8083FA0180818F778083EBE396
:10177000F0E080818F778083DF91CF910895809111
:101780008E0290918F0268EE73E00E94903580E4A3
:101790009FE10E949035615063BD89E085BDE9E518
:1017A000F0E080818F778083089580918E02909100
:1017B0008F0268EE73E00E94903580E49FE10E9402
:1017C0009035615063BD0895E1E3F0E080818B7F47
:1017D0008083E5E5F0E080818260808380818E7F78
:1017E0008083EBE5F0E08081806480830895982F0A
:1017F000969596959695E92FF0E09F01220F331F5D
:10180000220F331F220F331F821B662389F0E255FC
:10181000FD4F408127E030E0281B310981E090E056
:1018200002C0880F991F2A95E2F7482B408308953C
:10183000E255FD4F408127E030E0281B310981E06F
:1018400090E002C0880F991F2A95E2F780958423C3
:1018500080830895982F969596959695E92FF0E0B8
:101860009F01220F331F220F331F220F331F821BB2
:10187000662389F0EA52FD4F408127E030E0281BC3
:10188000310981E090E002C0880F991F2A95E2F7A4
:10189000482B40830895EA52FD4F408127E030E015
:1018A000281B310981E090E002C0880F991F2A951A
:1018B000E2F78095842380830895EEEBF2E0808345
:1018C00080818F7780830895EFEBF2E090819F73A2
:1018D000908390818295880F880F807C892B8083EC
:1018E0000895EFEBF2E09081937C90839081880FD4
:1018F000880F892B80830895482F282F26952695B9
:10190000269530E0F901E255FD4F808190E0220FED
:10191000331F220F331F220F331F421B27E030E0FB
:10192000241B310902C0959587952A95E2F78170AD
:101930000895482F282F26952695269530E0F90101
:10194000EA52FD4F808190E0220F331F220F331F98
:10195000220F331F421B27E030E0241B310902C055
:10196000959587952A95E2F78170089580E88CBF58
:10197000E3E5F0E088E4808380818160808380817A
:10198000806280830895AFE4B0E08C918E7F8C9369
:101990008C918D7F8C93EEE4F0E080818860808371
:1019A00080818F7E80838C918F7B8C938C918F77BD
:1019B0008C9380818F7E808380818F7D80838081E6
:1019C0008E7F808380818260808380818B7F808313
:1019D00089EF8ABDE9E5F0E0808180618083089528
:1019E000982FADEEB2E0FD0111921082FD0132960A
:1019F000108213961C928695482F50E014161506F7
:101A000074F420E030E06DEE72E08FEFFB01E20F46
:101A1000F31F80832F5F3F4F24173507BCF39A01D4
:101A2000220F331F892F90E0821B930B1816190683
:101A30002CF4FA01E351FD4F8CEC8083089586B3BA
:101A40008695809581700895EF92FF920F931F9372
:101A5000CF93DF93FC01062FF72E142F8FE0E13A8E
:101A6000F80708F04EC0C091CE02D091CF028FEFA0
:101A70009FEF9093CF028093CE0280EA9FE0BF0158
:101A80000E949035E62E802F9F2D9C01213A310532
:101A900010F020EA30E0CF016AE070E00E9490355B
:101AA000269FA001279F500D369F500D11244115F0
:101AB000510519F1E0E0F0E0ACE5B0E06E2D70E02A
:101AC0009B011C931092770210927602809176020D
:101AD0009091770286179707C8F31C9210927702AD
:101AE0001092760280917602909177028217930786
:101AF000C8F33196E417F50720F3D093CF02C093D3
:101B0000CE02DF91CF911F910F91FF90EF9008953A
:101B10008F929F92AF92BF92CF92DF92EF92FF92FD
:101B20000F931F93DF93CF9300D0CDB7DEB7D62EA0
:101B30008983662329F422E030E043E050E007C0C7
:101B4000462F50E09A01215030400AF476C00F2E03
:101B5000F0E5EF2EFAE0FF2EF02D02E412E089818D
:101B60006AE00E9484359A8389810E948435898342
:101B70008A81F701E80FF11DE491D801A20FB31F8C
:101B8000EC93215030405AF7FA01EE5BFD4F108282
:101B9000DD2009F041C00F2EF2E4CF2EF2E0DF2E5F
:101BA000F02D56010894A11CB11C03E412E0480179
:101BB000089481089108B4016E5F7F4FA4014D5FC6
:101BC0005F4F94012C5F3F4FD40115960F2EF6E026
:101BD000EF2EFF24F02DE80CF91CF6018081F501B1
:101BE00090818033C9F49923B9F0F8018081F40120
:101BF0008083FB018081F8018083FA018081FB01F1
:101C00008083F9018081FA0180838C91F9018083BE
:101C1000F70180818C93E1CF82E492E00F900F90E6
:101C2000CF91DF911F910F91FF90EF90DF90CF90B8
:101C3000BF90AF909F908F900895FA01EE5BFD4F9B
:101C40001082EACF8F929F92AF92BF92CF92DF9293
:101C5000EF92FF920F931F93DF93CF9300D000D0AA
:101C6000CDB7DEB7462F9A838983662341F404E01B
:101C700010E00F2EF5E0EF2EFF24F02D07C0E62E2A
:101C8000FF248701015010400AF488C00F2EF0E5B0
:101C9000AF2EFAE0BF2EF02D0F2EFCE3CF2EF2E098
:101CA000DF2EF02D89819A816AE070E00E949035E4
:101CB000282F392F3C832B8389819A816AE070E039
:101CC0000E949035862F972F9A8389838B819C81E0
:101CD000F501E80FF91FE491D601A00FB11FEC93B5
:101CE00001501040FAF6F701E45CFD4F10824423E6
:101CF00009F041C00F2EFCE3CF2EF2E0DF2EF02DD5
:101D000056010894A11CB11C0DE312E0480108948F
:101D100081089108B4016E5F7F4FA4014D5F5F4F52
:101D200094012C5F3F4FD40115960F2EF6E0EF2E55
:101D3000FF24F02DE80CF91CF6018081F50190815B
:101D40008033C9F49923B9F0F8018081F4018083CC
:101D5000FB018081F8018083FA018081FB0180838F
:101D6000F9018081FA0180838C91F9018083F70168
:101D700080818C93E1CF8CE392E00F900F900F90D5
:101D80000F90CF91DF911F910F91FF90EF90DF9017
:101D9000CF90BF90AF909F908F900895F701E45C33
:101DA000FD4F1082E8CF0E94440681E00E94560653
:101DB0008091CC0260E00E94880D0E947E0687E040
:101DC00060E00E948E0680E00E94560680E061E09E
:101DD0000E948E0682E00E94560680919C0290919D
:101DE0009D0263E00E94880D0E947E068FE20E94A1
:101DF000560685E061E00E948E0683E00E9456064A
:101E00008091780262E00E94880D0E947E0680E642
:101E100090E00E947E06089581E060E00E948E06B8
:101E20008091CC0263E00E94880D0E947E06089596
:101E300081E061E00E948E0680919C0290919D025B
:101E400063E00E94880D0E947E06089586E061E0AE
:101E50000E948E068091780262E00E94880D0E94A6
:101E60007E0680E690E00E947E06089580EC87B9A9
:101E700087E886B90895E7E2F0E090818770892BC2
:101E80008083E6E2F0E0808180648083808184FF4B
:101E9000FDCFE6E2F0E080818061808324B135B13E
:101EA000822F932F0895FF920F931F93DF93CF9369
:101EB00000D00F92CDB7DEB7162F6983072F7A8334
:101EC0008B83F82E0E9444060E94A10682E690E0D1
:101ED0000E947E068F2D60E00E94880D0E947E0683
:101EE00080E061E00E948E0684E00E945606812F09
:101EF00060E00E94880D0E947E0685E061E00E94FD
:101F00008E0685E00E945606802F60E00E94880DB4
:101F10000E947E060F900F900F90CF91DF911F913E
:101F20000F91FF900895843321F1853360F481335C
:101F3000C1F0823318F4803341F515C08233A9F023
:101F4000833319F514C08733D1F0883328F48533EF
:101F500091F08633D1F411C0883399F08933A9F414
:101F600012C081E0089580E0089582E0089583E042
:101F7000089584E0089585E0089586E0089587E057
:101F8000089588E0089589E0089585E50895CF9340
:101F9000DF93582FE6E5F0E044EAA1E2B0E0C3E2C7
:101FA000D0E030EA24E8408380818823ECF78C91EC
:101FB000887F883009F083C038832083808188231C
:101FC000ECF78C91887F883171F793B984E886BFEC
:101FD000E6E5F0E080818823ECF781B1887F8832E4
:101FE00009F06DC053B984E886BFE6E5F0E0808172
:101FF0008823ECF781B1887F883209F060C084EAD9
:1020000086BFE6E5F0E080818823ECF781B1887F28
:10201000803109F054C081EA83B984E886BFE6E5DF
:10202000F0E080818823ECF781B1887F803409F06B
:1020300046C06150704001F120E030E0E6E5F0E09C
:1020400094ECA1E2B0E0C3E2D0E041E09083808173
:102050008823ECF78C91887F803589F58091D202B6
:102060008823E1F788818093C9024093D2022F5FD1
:102070003F4F2617370750F384E886BFE6E5F0E0C8
:1020800080818823ECF781B1887F8835C1F4809105
:10209000D2028823E1F783B18093C90281E0809363
:1020A000D20284E986BFE6E5F0E0808184FDFDCFC1
:1020B0001CBE1092C9021092D20281E001C080E0E1
:1020C000DF91CF910895E1E8F2E0119280E88083FA
:1020D000E6E9F2E08191919190936B0280936A021C
:1020E000808191819093E1028093E0020895DF93D3
:1020F000CF9300D00F92CDB7DEB7AEEAB2E0FD01CC
:102100006191708112968C9190E00F900F900F90DA
:10211000CF91DF910895DF93CF9300D00F92CDB789
:10212000DEB7A6EDB2E0FD016191708112968C914F
:1021300090E00F900F900F90CF91DF91089582E182
:1021400090E00E941A36882319F08130C9F40CC03F
:10215000EEE8F2E080EA9CE89183808332968CE09E
:1021600090E09183808317C0EEE8F2E080EC9AED76
:1021700091838083329683E190E0918380830BC0CA
:10218000EEE8F2E080EA9CE89183808332968CE06E
:1021900090E0918380832EE832E0F9018081918183
:1021A00068EE73E00E949035CB01880F991F860F6F
:1021B000971F880F991F65E070E00E949035862F69
:1021C000972F349691838083F9018081918168EE05
:1021D00073E00E949035CB01880F991F860F971FDF
:1021E000880F991F880F991F65E070E00E94903555
:1021F000862F972F369691838083F9018081918174
:1022000068EE73E00E949035CB01880F991F860F0E
:10221000971F880F991F880F991F880F991F65E0D6
:1022200070E00E949035862F972F38969183808397
:10223000F9018081918168EE73E00E949035CB01B5
:10224000880F991F860F971F880F991F65E070E010
:102250000E949035862F972F265F3F4FF90191837B
:102260008083089582E090E00E941A36089580E00D
:1022700090E00E941A360895EF92FF920F931F93F9
:10228000CF93DF938BE090E00E941A3690915C022E
:102290008917E1F4C0E0D0E00F2EFBE0EF2EF0E074
:1022A000FF2EF02D03E512E0CE0101968E0D9F1D4D
:1022B0000E941A36F801EC0FFD1F9081891731F446
:1022C0002196C630D10581F781E001C080E0DF9121
:1022D000CF911F910F91FF90EF9008950F931F934F
:1022E0008DE390E00E9422369C0140E050E060E6E1
:1022F0007AEE80E090E00E94B735220F331F441F32
:10230000551F220F331F441F551F220F331F441F19
:10231000551F30938D0220938C0285E190E00E943E
:10232000223620918C0230918D022817390728F52A
:1023300085E190E00E9422368C018DE390E00E94BE
:1023400022369C0140E050E060E67AEE80E090E0CA
:102350000E94B735CA01B90128EF3FEF4FEF5FEF99
:102360000E946535060F171F1093DF020093DE02EF
:1023700010928D0210928C0204C01092DF02109213
:10238000DE021F910F91089580E590E09093EB029B
:102390008093EA020E946E110E9463108EE090E02A
:1023A000909384028093830281E080936602E9E542
:1023B000F0E0808180688083E5E3F0E080818062E6
:1023C00080830895CF92DF92EF92FF920F931F9335
:1023D000282F80917E0290917F02029750F081E039
:1023E00090E090937F0280937E028091E90288239F
:1023F000E1F7243009F466C0253048F42230D9F1E1
:10240000233008F086C0213009F052C10DC02630BB
:1024100009F41BC1263008F4A3C0273009F4C7C053
:10242000283009F045C1EAC00F2EF9E7EF2EF2E09F
:10243000FF2EF02DDD24D394F701D1928F0183E19B
:1024400090E00E942236F8019183808385E190E03C
:102450000E942236F7013396918380838081918197
:10246000F70135969183808387E090E0E80EF91EAE
:10247000F701D08227C10F2EF9E7EF2EF2E0FF2EF1
:10248000F02D82E0F70181938F0187E190E00E94B7
:102490002236F8019183808389E190E00E94223600
:1024A000F70133969183808380819181F70135967E
:1024B0009183808387E090E0E80EF91E81E0F701C8
:1024C000808300C10F2EF9E7EF2EF2E0FF2EF02DF2
:1024D00084E0F70181938F018BE190E00E94223626
:1024E000F801918380838DE190E00E942236F7010C
:1024F00033969183808380819181F7013596918312
:10250000808387E090E0E80EF91E81E0F701808388
:10251000D9C00F2EF9E7EF2EF2E0FF2EF02D83E069
:10252000F70181938F018FE190E00E942236F8013C
:102530009183808381E290E00E942236F7013396F6
:102540009183808380819181F70135969183808387
:1025500087E090E0E80EF91E81E0F7018083B2C0C9
:102560000F2EF9E7EF2EF2E0FF2EF02D85E0F701B8
:1025700081938F0183E290E00E942236F8019183DB
:10258000808385E290E00E942236F70133969183A2
:10259000808380819181F70135969183808387E0E4
:1025A00090E0E80EF91E81E0F70180838BC00F2ECA
:1025B000F9E7EF2EF2E0FF2EF02D87E0F70181938F
:1025C0008F0187E290E00E942236F8019183808398
:1025D00089E290E00E942236F7013396918380834E
:1025E00080819181F70135969183808387E090E027
:1025F000E80EF91E81E0F701808364C00F2EF9E731
:10260000EF2EF2E0FF2EF02D88E0F70181938F018D
:102610008BE290E00E942236F801918380838DE264
:1026200090E00E942236F701339691838083808167
:102630009181F70135969183808387E090E0E80EE1
:10264000F91E81E0F70180833DC00F2EF1E3CF2E0C
:10265000F0E0DF2EF02DC6010E9422369093740226
:10266000809373020F2EF9E7EF2EF2E0FF2EF02D8C
:1026700086E0F70181938F018FE290E00E9422367D
:10268000F80191838083C6010E942236F7013396B8
:102690009183808380819181F70135969183808336
:1026A00087E090E0E80EF91E81E0F70180830AC020
:1026B000E9E7F2E01082DF01159611961C921E9256
:1026C000379610821F910F91FF90EF90DF90CF907F
:1026D00008958091730290917402029750F081E006
:1026E00090E090937402809373028091E9028823B2
:1026F000E1F784E090E00E941A368093780210920D
:102700009D0210929C0288E08093D5028BE390E0BA
:102710000E941A368093CC02109267021092CD026A
:102720001092D102109288020E94D30E8091D5029D
:102730000E94F00CE2E3F0E080818061808387E01A
:102740000E94E21110927702109276028091760236
:102750009091770280549F41C8F3E2E3F0E08081DA
:102760008F7E808308950F931F9387E390E00E94EC
:1027700022368C0189E390E00E942236BC01C80118
:102780000E94C70F1F910F9108950F931F9383E32A
:1027900090E00E9422368C0185E390E00E94223670
:1027A000BC01C8010E94C70F1F910F9108950F939C
:1027B0001F938FE290E00E9422368C0181E390E02B
:1027C0000E942236BC01C8010E94C70F1F910F91C1
:1027D00008950F931F938BE290E00E9422368C01A4
:1027E0008DE290E00E942236BC01C8010E94C70F12
:1027F0001F910F9108958091730290917402029736
:1028000050F081E090E09093740280937302809185
:10281000E9028823E1F70E94E91308950F931F93BB
:1028200087E290E00E9422368C0189E290E00E94CB
:102830002236BC01C8010E94C70F1F910F91089555
:102840008091730290917402029750F081E090E0C1
:1028500090937402809373028091E9028823E1F7D8
:102860000E940E1408950F931F9383E290E00E943C
:1028700022368C0185E290E00E942236BC01C8011C
:102880000E94C70F1F910F9108950F931F938FE11F
:1028900090E00E9422368C0181E290E00E94223674
:1028A000BC01C8010E94C70F1F910F9108950F939B
:1028B0001F938BE190E00E9422368C018DE190E025
:1028C0000E942236BC01C8010E94C70F1F910F91C0
:1028D00008950F931F9387E190E00E9422368C01A8
:1028E00089E190E00E942236BC01C8010E94C70F16
:1028F0001F910F9108950F931F9383E190E00E9421
:1029000022368C0185E190E00E942236BC01C8018C
:102910000E94C70F1F910F910895EF92FF920F939E
:102920001F93DF93CF9300D0CDB7DEB787E00E942F
:102930003B0F9A83898386E090E00E9422367C01D7
:1029400088E090E00E9422362091EC02222321F0C0
:10295000213009F08AC04BC0880F991F880F991F3A
:102960006BE470E00E949035862F972F8C0185E0F4
:1029700060E00E948E0688E690E00E947E0680E07D
:102980000E94560687E060E00E948E0689819A8147
:102990008017910720F480E00E94230866C0C701D9
:1029A000880F991F880F991F6BE470E00E94903583
:1029B000862F972FBC0189819A816817790720F4A7
:1029C00085E00E94230851C029813A81201B310BE8
:1029D000C901880F991F820F931F601B710B880F0D
:1029E000991F0E949035862F0E9423083EC085E0E3
:1029F00060E00E948E0629813A81C901880F991FE3
:102A0000820F931F9C01220F331F220F331F820F4F
:102A1000931F9695879596958795969587959A8312
:102A2000898389819A8164E670E00E949035862FBF
:102A300060E00E94880D0E947E068BE690E00E9476
:102A40007E0689819A8164E670E00E9490356AE092
:102A500070E00E949035862F60E00E94880D0E94F1
:102A60007E0680E690E00E947E060F900F90CF9148
:102A7000DF911F910F91FF90EF900895EF92FF92D9
:102A80001F93CF93DF93109267021092D10210929E
:102A9000CD028CE390E00E941A36182F0E94440663
:102AA00088E00E9440068CE00E9440068DE690E09F
:102AB0000E947E0680E061E00E948E06112329F0CC
:102AC00086E790E00E947E0604C08BE790E00E94BB
:102AD0007E0680E890E00E947E06C9E8D0E00F2ED6
:102AE000F5E8EF2EF0E0FF2EF02D21C08091D1020D
:102AF000813021F08091CD028130C1F78091CD02EB
:102B00008130A9F41092CD02112349F080E061E0F8
:102B10000E948E06C7010E947E0610E008C080E079
:102B200061E00E948E06CE010E947E0611E0809137
:102B3000D1028130D9F61092D1028CE390E00E944C
:102B40001A36181759F00E9444068DE890E00E944A
:102B50007E068CE390E0612F0E942836DF91CF91B2
:102B60001F91FF90EF900895DF92EF92FF920F93E5
:102B70001F93CF93DF93109267021092D1021092AD
:102B8000CD028AE090E00E941A36182F0E94440677
:102B900088E00E9440068CE00E94400683E990E0B5
:102BA0000E947E0680E061E00E948E06103429F4C7
:102BB0008CE990E00E947E0606C0103821F481EA7C
:102BC00090E00E947E0680E890E00E947E06CBEABC
:102BD000D0E000E80F2EF6EAEF2EF0E0FF2EF02D09
:102BE000DD246894D6F821C08091D102813021F093
:102BF0008091CD028130C1F78091CD028130A9F45E
:102C00001092CD02103849F480E061E00E948E06F7
:102C1000C7010E947E061D2D08C080E061E00E9471
:102C20008E06CE010E947E06102F8091D102813047
:102C3000D9F61092D1028AE090E00E941A36181755
:102C400059F00E9444068DE890E00E947E068AE0DA
:102C500090E0612F0E942836DF91CF911F910F9154
:102C6000FF90EF90DF900895AF92BF92CF92DF92E6
:102C7000EF92FF920F93CF93DF937C01EB016A01F8
:102C8000A22E109267021092D1021092CD02CB01B7
:102C90000E941A36082FF601E80FF11DB4900E9429
:102CA000440688E00E9440068CE00E944006C7016E
:102CB0000E947E0680E061E00E948E068B2D63E01C
:102CC0000E94880D0E947E0680EB90E00E947E06A6
:102CD00021C08091CD02813021F08091D1028130DC
:102CE000C1F78091CD028130A9F40A1510F000E0FF
:102CF00001C00F5F1092CD0280E061E00E948E065D
:102D0000F601E00FF11DE4918E2F63E00E94880D23
:102D10000E947E068091D1028130D9F61092D102B4
:102D2000CE010E941A36081751F00E9444068DE821
:102D300090E00E947E06CE01602F0E942836DF912F
:102D4000CF910F91FF90EF90DF90CF90BF90AF9019
:102D500008955F926F927F928F929F92AF92BF92EF
:102D6000CF92DF92EF92FF920F931F93DF93CF9357
:102D70000F92CDB7DEB78C015B01E42E1982109261
:102D8000D1021092CD02CB010E941A36FE2C8E1574
:102D900008F4F82E0E94440688E00E9440068DE068
:102DA0000E944006C8010E947E0680E061E00E9409
:102DB0008E068F2D63E00E94880D0E947E0686EBB2
:102DC00090E00E947E0684E061E00E948E06898188
:102DD000882309F019C18F2D64E60E948435C82E1E
:102DE000482F50E09A01220F331FCA01880F991F04
:102DF000880F991F880F991F280F391F8F2D6AE0A0
:102E00000E948435082F021B8CE99FEF9C01429F92
:102E1000C001439F900D529F900D11244F2D480FDC
:102E2000802F90E09C01220F331F880F991F880F7D
:102E3000991F880F991F280F391FD42ED21A8E2D53
:102E400064E60E948435682E772414E00F2EF4E6A1
:102E50005F2EF02D8E2C99240F2EFAE0EF2EF02D00
:102E60008091D102882321F48091CD028130C1F775
:102E70001130D1F1113038F0123009F479C014302A
:102E800009F0BAC0ABC08091D102813031F484E046
:102E900061E00E948E0614E0AFC08091CD028130C7
:102EA00009F0AAC08C2D90E001966816790614F4FA
:102EB000CC2401C0C3940E9DC00111242D2D280FD8
:102EC000C59CC0011124F22EF80E80E061E00E9442
:102ED0008E068F2D63E00E94880D0E947E0680E0A2
:102EE00061E00E948E0688C08091D102813031F469
:102EF00080E061E00E948E0610E07EC08091CD02ED
:102F0000813009F079C0C59CB0011124CB018D0D31
:102F1000911D202F30E02F5F3F4FA901440F551F17
:102F2000220F331F220F331F220F331F420F531F55
:102F3000840F951F8816990624F0093010F40F5F4E
:102F400001C000E02D2D260F0E9DC0011124F22E90
:102F5000F80E80E061E00E948E068F2D63E00E94F3
:102F6000880D0E947E0681E061E00E948E0644C0CA
:102F70008091D102813029F461E00E948E0611E037
:102F80003BC08091CD028130B9F5C59CA0011124D0
:102F90000E9D900111248D2D90E00196840F951FB8
:102FA000820F931F881699062CF088E08D1510F07B
:102FB000D39401C0DD24822F840FF82EFD0C80E015
:102FC00061E00E948E068F2D63E00E94880D0E94B2
:102FD0007E0682E061E00E948E060EC08091D102E2
:102FE000813029F482E061E00E948E0612E0809137
:102FF000CD02813009F489831092D1021092CD0262
:103000008981882309F42CCFC5010E941A368F15B7
:1030100051F00E9444068DE890E00E947E06C501B2
:103020006F2D0E9428360F90CF91DF911F910F9145
:10303000FF90EF90DF90CF90BF90AF909F908F90D8
:103040007F906F905F9008950F931F93CF93DF93BE
:103050008BE090E06FEF0E94283680E090E0CBE0BC
:10306000D0E08C010F5F1F4FCE01800F911F6FEFDB
:103070000E942836C8010630110599F70E944406BF
:103080000E94A1068CEB90E00E947E0680E061E049
:103090000E948E0683EC90E00E947E068CEC90E00D
:1030A0000E94BA34109277021092760280917602D2
:1030B0009091770280579741C8F3DF91CF911F918C
:1030C0000F91089582E190E00E941A3660E00E941C
:1030D000880D0E94BA348CEC90E00E94BA340895B6
:1030E00082E090E00E941A3660E00E94880D0E9403
:1030F000BA348CEC90E00E94BA34089581E090E0FC
:103100000E941A3660E00E94880D0E94BA348CEC4E
:1031100090E00E94BA3408950E947B1483ED90E001
:103120000E94BA3408950E94223660E00E94220E66
:103130000E94BA348CEC90E00E94BA34089589E37E
:1031400090E00E949318089587E390E00E949318FE
:10315000089585E390E00E949318089583E390E03A
:103160000E949318089581E390E00E9493180895B7
:103170008FE290E00E94931808958DE290E00E9403
:10318000931808958BE290E00E949318089589E2C5
:1031900090E00E949318089587E290E00E949318AF
:1031A000089585E290E00E949318089583E290E0EC
:1031B0000E949318089581E290E00E949318089568
:1031C0008FE190E00E94931808958DE190E00E94B5
:1031D000931808958BE190E00E949318089589E177
:1031E00090E00E949318089587E190E00E94931860
:1031F000089585E190E00E949318089583E190E09E
:103200000E949318089584E090E00E941A3660E0CE
:103210000E94880D0E94BA348CEC90E00E94BA346F
:10322000089583E090E00E941A3660E00E94880DC5
:103230000E94BA348CEC90E00E94BA3408951F9337
:10324000DF93CF930F92CDB7DEB711E063C00E943A
:103250001335898389818536E1F1863630F48033F0
:1032600089F0813309F056C021C0883621F08437B7
:1032700009F050C032C010939A021092D4021092FA
:10328000D30248C080919A02882309F443C08091F8
:10329000D3029091D4029C012F5F3F4F3093D40210
:1032A0002093D30260E00E942A0C34C080919A02DD
:1032B000882381F18091D3029091D4029C012F5FE9
:1032C0003F4F3093D4022093D302612F0E942A0CE7
:1032D00021C010929A0283E022C080919A02882332
:1032E000B9F08091D3029091D402892B89F080911A
:1032F000D3029091D4028E30910521F0489721F4A9
:1033000082E003C081E001C083E010929A0207C00E
:1033100010929A0280915102882309F098CF0F9061
:10332000CF91DF911F910895DF93CF9300D00F923B
:10333000CDB7DEB70E941F1982508230A8F480E01A
:103340000E94990C882381F00E948B1069837A83F4
:103350008B83A9E8B2E0FE01319683E001900D92E3
:103360008150E1F7109288020F900F900F90CF914B
:10337000DF9108958FE390E00E941A3660E00E948A
:10338000880D0E94BA348EE796E00E94CA340895F0
:103390008DE390E00E94223660E00E94220E0E949F
:1033A000BA348EE796E00E94CA3408958BE390E029
:1033B0000E941A3660E00E94880D0E94BA348EE79F
:1033C00096E00E94CA34089585E090E00E941A3683
:1033D00060E00E94880D0E94BA348EE796E00E9459
:1033E000CA34089588E090E00E94223660E00E948E
:1033F000220E0E94BA348EE796E00E94CA340895E5
:1034000086E090E00E94223660E00E94220E0E9438
:10341000BA348EE796E00E94CA34089580E090E0C6
:103420000E941A3660E00E94880D0E94BA348EE72E
:1034300096E00E94CA3408958CE390E00E941A3608
:1034400060E00E94880D0E94BA348EE796E00E94E8
:10345000CA3408958AE090E00E941A36803439F028
:10346000803849F488ED90E00E94BA3404C08AEDB7
:1034700090E00E94BA348EE796E00E94CA34089524
:10348000CF92DF92EF92FF920F931F93DF93CF9330
:1034900000D0CDB7DEB71A8220E00F2EF7EFEF2E67
:1034A000F3E0FF2EF02D0F2EFAE0CF2EF02DDD24CD
:1034B000D39423C080915002F701E80FF11D908151
:1034C00099838F5F8093500289818032B1F0898126
:1034D000803370F089818A3358F40A8189810E948F
:1034E000930F0C9D80011124800F8A832D2D05C020
:1034F00084E696E00E94CA342DC080915002F70104
:10350000E80FF11D80818D30A9F6222329F482E293
:1035100096E00E94CA341EC08A81823038F48A81C3
:103520008A81882341F0813089F40BC085E496E0DC
:103530000E94CA340FC08AE090E060E80E942836FA
:1035400005C08AE090E060E40E94283683ED90E0B8
:103550000E94BA340F900F90CF91DF911F910F917D
:10356000FF90EF90DF90CF900895CF92DF92EF928F
:10357000FF920F931F93DF93CF9300D0CDB7DEB7A9
:103580001A8220E00F2EF7EFEF2EF3E0FF2EF02D42
:103590000F2EFAE0CF2EF02DDD24D39423C080919E
:1035A0005002F701E80FF11D908199838F5F80939E
:1035B000500289818032B1F08981803370F0898135
:1035C0008A3358F40A8189810E94930F0C9D8001EF
:1035D0001124800F8A832D2D05C08CED90E00E9470
:1035E000BA345AC080915002F701E80FF11D808172
:1035F0008D30A9F6222329F482E296E00E94CA3493
:103600004BC08A818B3018F48A81882329F485E4A1
:1036100096E00E94CA3440C08A81853041F18630EC
:1036200060F48230D9F0833018F4813089F513C00A
:103630008330B9F0843061F517C0883009F18930E2
:1036400028F48630B9F0873019F517C08930D9F0E1
:103650008A30F1F41BC00E947B141AC00E946914C6
:1036600017C00E94571414C00E94451411C00E9434
:1036700033140EC00E940E140BC00E94E91308C040
:103680000E94D71305C00E94C51302C00E94B31345
:1036900083ED90E00E94BA340F900F90CF91DF91AC
:1036A0001F910F91FF90EF90DF90CF900895DF92E0
:1036B000EF92FF920F931F93DF93CF9300D00F925F
:1036C000CDB7DEB71B821A8220E00F2EF7EFEF2E68
:1036D000F3E0FF2EF02DDD24D3942EC08091500214
:1036E000F701E80FF11D908199838F5F809350025D
:1036F0008981803209F189818033C8F089818A33D8
:10370000B0F40A811B8189810E94930F9801220FD6
:10371000331F000F111F000F111F000F111F200F6B
:10372000311F280F311D3B832A832D2D05C08CEDC1
:1037300090E00E94BA344FC080915002F701E80F28
:10374000F11D80818D3051F6222329F482E296E02A
:103750000E94CA3440C08A819B818150924028F0E7
:1037600085E496E00E94CA3436C00E94043583ED99
:1037700090E00E94BA341092E6021092E502809125
:10378000E5029091E6028A58924020F4809151021D
:103790008823ACF7809151028823CCF46A817B8125
:1037A0007695762F66277795679587EF93E040E8C3
:1037B00050E00E94E109882329F083ED90E00E9407
:1037C000BA3409C084EE90E00E94BA3404C08FEF8E
:1037D00090E00E94BA340F900F900F90CF91DF913C
:1037E0001F910F91FF90EF90DF900895CF92DF929D
:1037F000EF92FF920F931F93DF93CF9300D0CDB73B
:10380000DEB71A8220E00F2EF7EFEF2EF3E0FF2E47
:10381000F02D0F2EFAE0CF2EF02DDD24D39423C00F
:1038200080915002F701E80FF11D908199838F5F1D
:103830008093500289818032B1F08981803370F0A9
:1038400089818A3358F40A8189810E94930F0C9DE3
:1038500080011124800F8A832D2D05C08CED90E00E
:103860000E94BA3418C080915002F701E80FF11D90
:1038700080818D30A9F6222329F482E296E00E940D
:10388000CA3409C06A8184E090E00E94283683ED42
:1038900090E00E94BA340F900F90CF91DF911F916A
:1038A0000F91FF90EF90DF90CF9008958F929F92AD
:1038B000AF92BF92CF92DF92EF92FF920F931F933E
:1038C000DF93CF9300D0CDB7DEB75C01862E942E68
:1038D0001A8220E00F2EF7EFEF2EF3E0FF2EF02DEF
:1038E0000F2EFAE0CF2EF02DDD24D39423C080914B
:1038F0005002F701E80FF11D908199838F5F80934B
:10390000500289818032B1F08981803370F08981E1
:103910008A3358F40A8189810E94930F0C9D80019B
:103920001124800F8A832D2D05C084E696E00E9425
:10393000CA3422C080915002F701E80FF11D808146
:103940008D30A9F6222329F482E296E00E94CA343F
:1039500013C08A81981618F08A81881528F485E4A6
:1039600096E00E94CA3408C06A81C5010E942836C8
:1039700083ED90E00E94BA340F900F90CF91DF91C9
:103980001F910F91FF90EF90DF90CF90BF90AF907D
:103990009F908F9008958FE390E060E04EE10E9449
:1039A000561C08958BE390E060E044E60E94561CAC
:1039B000089585E090E060E048E00E94561C08957C
:1039C00082E190E060E041E00E94561C0E949F105E
:1039D0000E94D50B089580E090E060E043E00E94F3
:1039E000561C08958CE390E060E041E00E94561C74
:1039F000089582E090E060E04FE00E94561C089538
:103A000081E090E060E04FE70E94561C089583E05B
:103A100090E060E04AE50E94561C0895BF92CF9264
:103A2000DF92EF92FF920F931F93DF93CF9300D01B
:103A30000F92CDB7DEB76C011B821A8220E00F2EE9
:103A4000F7EFEF2EF3E0FF2EF02DBB24B3942EC042
:103A500080915002F701E80FF11D908199838F5FEB
:103A6000809350028981803209F189818033C8F0C6
:103A700089818A33B0F40A811B8189810E94930F66
:103A80009801220F331F000F111F000F111F000F8D
:103A9000111F200F311F280F311D3B832A832B2D2F
:103AA00005C08CED90E00E94BA3418C0809150029D
:103AB000F701E80FF11D80818D3051F6222329F4A2
:103AC00082E296E00E94CA3409C06A817B81C60105
:103AD0000E94353683ED90E00E94BA340F900F902B
:103AE0000F90CF91DF911F910F91FF90EF90DF909A
:103AF000CF90BF90089589E390E00E940E1D089535
:103B000087E390E00E940E1D089585E390E00E94F7
:103B10000E1D089583E390E00E940E1D089581E339
:103B200090E00E940E1D08958FE290E00E940E1D0D
:103B300008958DE290E00E940E1D08958BE290E0C2
:103B40000E940E1D089589E290E00E940E1D0895C6
:103B500087E290E00E940E1D089585E290E00E94A9
:103B60000E1D089583E290E00E940E1D089581E2EB
:103B700090E00E940E1D08958FE190E00E940E1DBE
:103B800008958DE190E00E940E1D08958BE190E074
:103B90000E940E1D089589E190E00E940E1D089577
:103BA00087E190E00E940E1D089585E190E00E945B
:103BB0000E1D089583E190E00E940E1D08956F92FE
:103BC0007F929F92AF92BF92CF92DF92EF92FF923D
:103BD0000F931F93DF93CF9300D00F92CDB7DEB733
:103BE0003C015B016A011B821A8220E00F2EF7EF75
:103BF000EF2EF3E0FF2EF02D992493942EC08091A8
:103C00005002F701E80FF11D908199838F5F809337
:103C100050028981803209F189818033C8F089811D
:103C20008A33B0F40A811B8189810E94930F980125
:103C3000220F331F000F111F000F111F000F111F44
:103C4000200F311F280F311D3B832A83292D05C0EA
:103C500084E696E00E94CA3427C080915002F701A2
:103C6000E80FF11D80818D3051F6222329F482E284
:103C700096E00E94CA3418C08A819B81C816D90672
:103C800028F08A819B818A159B0528F485E496E0BB
:103C90000E94CA3409C06A817B81C3010E94353603
:103CA00083ED90E00E94BA340F900F900F90CF9167
:103CB000DF911F910F91FF90EF90DF90CF90BF9019
:103CC000AF909F907F906F9008958DE390E06EE1AC
:103CD00070E040E253E00E94DF1D089588E090E02C
:103CE0006CE87AE048EC5FEA0E94DF1D089586E008
:103CF00090E068EB7BE048EC5FEA0E94DF1D0895EE
:103D000081E090E00E941A3688232CF481E090E054
:103D100060E00E94283680E090E00E941A368430ED
:103D200028F080E090E060E00E94283682E090E099
:103D30000E941A36803128F082E090E065E00E940F
:103D4000283683E090E00E941A368B3528F083E015
:103D500090E06EE10E94283684E090E00E941A36DE
:103D60008B3528F084E090E06FE00E94283685E0F3
:103D700090E00E941A36893028F085E090E061E0FA
:103D80000E94283686E090E00E9422368F5F9F4F87
:103D900031F486E090E060E97AE10E94353688E00F
:103DA00090E00E9422368F5F9F4F31F488E090E0D0
:103DB0006CE775E10E94353682E190E00E941A3688
:103DC000882359F082E190E00E941A36813029F070
:103DD00082E190E060E00E9428368AE090E00E9454
:103DE0001A36803459F08AE090E00E941A36803802
:103DF00029F08AE090E060E40E9428368CE390E0AD
:103E00000E941A36823028F08CE390E061E00E9434
:103E100028368BE390E00E941A36853628F08BE333
:103E200090E064E60E9428368DE390E00E942236FE
:103E30008152934030F08DE390E060E273E00E94A5
:103E400035368DE390E00E9422364E9730F48DE3B4
:103E500090E06EE170E00E9435368FE390E00E94C2
:103E60001A368F3128F08FE390E06EE10E942836F9
:103E700008950E94801E8FEF9FEF9093CF02809352
:103E8000CE0290936402809363021092660281E0F6
:103E900090E00E941A360E945D0C0E9437110E9429
:103EA000640C0E9432110E94710C84E090E00E9428
:103EB0001A368093780210929D0210929C02109202
:103EC000F302109275021092F5021092F402109211
:103ED000D4021092D302109288021092F20288E06B
:103EE0008093D5028BE390E00E941A368093CC0237
:103EF000A6EBB2E0FD0111821082329680818160D2
:103F00008083FD0133961182108215968C91816019
:103F10008C9310926D0210926C02109265021092B6
:103F2000C7021092EC028AE090E00E941A36809359
:103F30006E021092C60210929A02109274021092AF
:103F4000730210927F0210927E021092E902109288
:103F50009B021092EB021092EA021092D002109291
:103F6000CB021092CA0281E08093C80210926F02C5
:103F70008DE390E00E9422369C0140E050E060E634
:103F80007AEE80E090E00E94B735220F331F441F85
:103F9000551F220F331F441F551F220F331F441F6D
:103FA000551F30938D0220938C0208954F925F929B
:103FB0006F927F928F929F92AF92BF92CF92DF9239
:103FC000EF92FF920F931F93DF93CF9300D000D017
:103FD000CDB7DEB71092D5021092CC02E2E3F0E04A
:103FE0008081806180838091D5020E94F00C0E94C4
:103FF0000C0F19828091E9028823E1F70E94FB13DC
:104000008BE090E00E941A36882309F4B7C08BE059
:1040100090E00E941A368F3F09F4B0C010926702F8
:104020001092CD0210925B020E94B0060F2EF7E0B4
:10403000CF2EF1E0DF2EF02D0F2EF5E1AF2EF1E0C7
:10404000BF2EF02D02E310E0FF246894F4F80F2E49
:10405000FAE38F2EF1E09F2EF02D0F2EF0E46F2E5D
:10406000F1E07F2EF02D0F2EF4E24F2EF1E05F2EC7
:10407000F02D0E9444060E94A106C6010E947E0601
:1040800080E061E00E948E06C5010E947E0621C08C
:10409000F80180818F25808381E30E94B2341092E1
:1040A0007702109276028091760290917702885E74
:1040B0009340C8F3F80180818F25808310927702A6
:1040C000109276028091760290917702885E9340FA
:1040D000C8F380915B028823D9F280915B02813022
:1040E000B9F0823031F60E9444060E94A106C20156
:1040F0000E947E06109277021092760280917602DC
:104100009091770280579741C8F310925B02B1CF2C
:104110000E943C118823B1F00E9444060E94A1062F
:104120008FE291E00E947E06109277021092760252
:10413000809176029091770280579741C8F3109250
:104140005B02A8C00E9444060E94A106C4010E940E
:104150007E0680E061E00E948E06C3010E947E061A
:1041600010927702109276028091760290917702F7
:1041700080579741C8F310925B027BCF0E94B00634
:104180000E94D30E10928802809188028093880248
:1041900010928B020F2EFBE8CF2EF2E0DF2EF02DD7
:1041A0000F2EF9E8AF2EF2E0BF2EF02D0F2EFAE819
:1041B0008F2EF2E09F2EF02D02E310E0FF24689492
:1041C000F4F866247724689461F86C0E7D1E0F2E37
:1041D000F3E0EF2EF02D4DC01092880221C0F801BF
:1041E00080818F25808381E30E94B2341092770210
:1041F000109276028091760290917702885E9340C9
:10420000C8F3F80180818F25808310927702109285
:1042100076028091760290917702885E9340C8F38F
:1042200080915102882341F480918802823021F0EC
:1042300080916702882399F280916702853011F09E
:104240001092670280918802823069F40E94771090
:104250006A837B838C83D501F3018E2D01900D92AF
:104260008150E1F706C080915102882311F00E942D
:104270009419F6018081883E41F4F50180818338EC
:1042800021F4F4018081853029F080916702853026
:1042900009F0A2CF8091730290917402029750F0BE
:1042A00081E090E090937402809373028091E90220
:1042B0008823E1F70E94391F109267021092CD0205
:1042C0001092D102109288020E94D30E02E310E0F5
:1042D000F8018081806180830E942014F801808130
:1042E0008F7E80830F900F900F900F90CF91DF9172
:1042F0001F910F91FF90EF90DF90CF90BF90AF9004
:104300009F908F907F906F905F904F900895FF9255
:104310000F931F93DF93CF9300D00F92CDB7DEB7EB
:1043200069837A838B83172F062FF82E80916F0273
:10433000882309F06BC00E943711811771F48CE358
:1043400090E00E941A36882309F460C081E090E072
:104350000E941A36801709F459C010928D021092EB
:104360008C02E2E3F0E080818061808385E491E06B
:104370000E94BA340E94A8061A830983FB82602F28
:10438000712F8F2D0E94530F8091CC02F816C8F523
:104390008FE390E00E941A3690E0880F991F880FF3
:1043A000991F880F991F80936F028091CC028F19FB
:1043B0008093CC029091CC028AE0989FC001112496
:1043C0006DE770E00E94A4356093D5028091D5021C
:1043D000882339F48091CC02882319F081E08093FE
:1043E000D50280917902823031F480917E029091E1
:1043F0007F02029718F482E00E94E2111092CD022F
:1044000002C00E94D61F81E08093C8020F900F90D7
:104410000F90CF91DF911F910F91FF900895EF9230
:10442000FF920F931F93DF93CF9300D000D000D063
:10443000CDB7DEB70E941F19823009F447C0833020
:10444000A1F1813009F0D1C080E00E94990C88234D
:1044500009F0CBC0A6EDB2E09D918C91880F880F3A
:1044600082958F70EBE5FAE0E80FF11DE4918C91F5
:104470009983EB8382958695869583708A83A0E7DE
:10448000B2E0FE01319683E001900D928150E1F798
:104490006091700270917102809172020E94872176
:1044A0000E94043510929A02A0C08091EA02909175
:1044B000EB02892B09F099C08091E902882309F069
:1044C00094C00E94D7131092CD028FC080E00E944A
:1044D000990C882309F487C00E948B106C837D831C
:1044E0008E83A9E8B2E0FE01349683E001900D923C
:1044F0008150E1F780918B02883E09F074C0809171
:104500008902833809F455C0893A09F06CC0EAE899
:10451000F2E080818081843078F58F01608180E0D5
:1045200090E00E9428360E9437110E94640CF80126
:1045300080818823C9F000E07F0188EE93E062E08B
:1045400070E040E80E94240D1092770210927602EB
:104550008091760290917702885E9340C8F30F5F56
:10456000F7018081081748F388EE93E062E070E07D
:1045700040E80E94240D37C088EE93E063E070E0CD
:1045800040E80E94240D84EF91E063E070E040E891
:104590000E94240D88EE93E063E070E040E80E9402
:1045A000240D84EF91E063E070E040E80E94240D68
:1045B0001AC080918A028530B1F48091D00288239C
:1045C00091F48091730290917402892B61F480912F
:1045D0007E0290917F02892B31F48091E902882339
:1045E00011F40E9469131092880226960FB6F8946F
:1045F000DEBF0FBECDBFCF91DF911F910F91FF9016
:10460000EF9008952F923F924F925F926F927F9218
:104610008F929F92AF92BF92CF92DF92EF92FF92D2
:104620000F931F93DF93CF930F92CDB7DEB78C011B
:10463000962E872E6A0119821092D1021092CD0215
:10464000562E472E862F972F0E94223676018C15E4
:104650009D0508F47C010E94440688E00E94400603
:104660008DE00E944006C8010E947E0680E061E065
:104670000E948E06C70163E00E94220E0E947E0601
:1046800086EB90E00E947E0684E061E00E948E0648
:104690008981882309F021C1C70164E670E00E9486
:1046A0009035B62EE62FF0E09F01220F331FCF0189
:1046B000880F991F880F991F880F991F280F391F7E
:1046C000C7016AE070E00E949035062F021B8CE95A
:1046D0009FEFE89FA001E99F500DF89F500D112416
:1046E0004E0D802F90E09C01220F331F880F991FE1
:1046F000880F991F880F991F280F391FA42EA21AFF
:1047000014E00F2EF4E67F2EF02D0F2EFAE06F2E20
:10471000F02D0F2EF4E62F2E3324F02D8091D102B0
:10472000882321F48091CD028130C1F7113009F442
:1047300046C0113038F0123009F484C0143009F04A
:10474000C4C0B5C08091D102813031F484E061E011
:104750000E948E0614E0B9C08091CD02813009F02C
:10476000B4C0069DC0011124BC016A0D711D8B2DC2
:1047700090E001969C01229DC001239D900D329DE9
:10478000900D1124860F971FC816D90610F4BB246C
:1047900001C0B394B79CC00111247B01E80EF91E3F
:1047A00080E061E00E948E06C70163E00E94220E55
:1047B0000E947E0680E061E00E948E0686C08091A5
:1047C000D102813031F480E061E00E948E0610E079
:1047D0007CC08091CD02813009F077C0B79CC001C8
:1047E0001124BC016A0D711D802F90E001969C017F
:1047F000220F331F880F991F880F991F880F991F49
:10480000280F391FCB01820F931FC816D90620F03D
:10481000093010F40F5F01C000E0069DC0011124B3
:104820007B01E80EF91E80E061E00E948E06C70160
:1048300063E00E94220E0E947E0681E061E00E94F9
:104840008E0643C08091D102813029F461E00E943C
:104850008E0611E03AC08091CD028130B1F5069DFF
:1048600090011124B79CC0011124280F391F8A2DF3
:1048700090E00196820F931FC816D90628F088E0B1
:104880008A1510F0A39401C0AA247901EA0CF11C46
:1048900080E061E00E948E06C70163E00E94220E64
:1048A0000E947E0682E061E00E948E060EC080912A
:1048B000D102813029F482E061E00E948E0612E08C
:1048C0008091CD02813009F489831092D102109237
:1048D000CD028981882309F421CF852D942D0E9452
:1048E00022368E159F0559F00E9444068DE890E00F
:1048F0000E947E06892D982DB7010E9435360F90B3
:10490000CF91DF911F910F91FF90EF90DF90CF90AB
:10491000BF90AF909F908F907F906F905F904F90DF
:104920003F902F9008950F931F9301E010E089E4CA
:1049300091E0B8014FE70E94A916C8010E941A36FB
:104940000E945D0C82E591E060E070E043E00E942F
:10495000A9160E9437110E94640C89E591E062E07B
:1049600070E04BE55AE02FE00E9434160E943211AD
:104970000E94710C80E691E062E170E04BE65AE043
:1049800021E00E9434160E949F100E94D50B89E6F8
:1049900091E063E070E04AE50E94A91682E791E0A9
:1049A00064E070E04AE50E94A91688E791E06DE3B3
:1049B00070E040E253E00E94022381E891E065E06C
:1049C00070E048E00E94A9160E94B4158AE090E0C9
:1049D0000E941A3680936E020E943E158AE891E08A
:1049E0006BE370E044E60E94A9161F910F910895B1
:1049F000DF92EF92FF920F931F93DF93CF9300D03C
:104A00000F92CDB7DEB71B821A8220E00F2EF7EF90
:104A1000EF2EF3E0FF2EF02DDD24D3942EC08091F5
:104A20005002F701E80FF11D908199838F5F809309
:104A300050028981803209F189818033C8F08981EF
:104A40008A33B0F40A811B8189810E94930F9801F7
:104A5000220F331F000F111F000F111F000F111F16
:104A6000200F311F280F311D3B832A832D2D05C0B8
:104A70008CED90E00E94BA3442C080915002F70160
:104A8000E80FF11D80818D3051F6222329F482E256
:104A900096E00E94CA3433C08A819B818150924043
:104AA00028F085E496E00E94CA3429C00E94AB3405
:104AB0006A817B817695762F66277795679587EF54
:104AC00092E040E850E00E94460A8823A1F000E00E
:104AD00010E00F2EF7EFEF2EF2E0FF2EF02DF70192
:104AE000E00FF11F80810E94B2340F5F1F4F00382A
:104AF0001105A9F704C081E991E00E94BA340F9032
:104B00000F900F90CF91DF911F910F91FF90EF9039
:104B1000DF9008950E94AB3485E896E00E94CA3485
:104B200083ED90E00E94BA3408954F925F926F92A5
:104B30007F928F929F92AF92BF92CF92DF92EF922D
:104B4000FF920F931F93DF93CF93CDB7DEB7A2975A
:104B50000FB6F894DEBF0FBECDBFEE24FF2420E0D9
:104B600030E00F2EFEE64F2EF5E05F2EF02D00E038
:104B70000F2EF3E0CF2EDD24F02DCC0EDD1EC6016E
:104B80007C2C692E0F2EF7EF8F2EF3E09F2EF02D49
:104B9000C901880F991FF201E80FF91F259134917F
:104BA000A901F9018491882311F4102F0FC0102F4F
:104BB000FA018491F601E10FF11D80831F5F2F5FE1
:104BC0003F4FA901F9018491882391F78091500208
:104BD000609151029401280F311DC901702F472D9A
:104BE000562D212F302F0E94F4355C018091500208
:104BF00060915102F401E80FF11DCF01702F472D94
:104C0000562D212F302F0E94F435892BB9F0C50184
:104C1000875F93409A8389832091500289819A818A
:104C2000280F210F209350028091510229813A814F
:104C3000811B821B809351028E2D0AC00894E11CB7
:104C4000F11C9701FAE4EF16F10409F0A1CF8FEF00
:104C5000A2960FB6F894DEBF0FBECDBFCF91DF9105
:104C60001F910F91FF90EF90DF90CF90BF90AF908A
:104C70009F908F907F906F905F904F900895EAE2A1
:104C8000F0E080818F7780830E949525E82FF0E007
:104C9000EA34F10508F0E6C0E65DFF4FEE0FFF1FB6
:104CA0000590F491E02D09940E94071DDFC00E9439
:104CB0001119DCC00E948A25D9C00E94F61BD6C0FB
:104CC0000E940319D3C00E94571BD0C00E94F82431
:104CD000CDC00E94DA1DCAC00E94FE18C7C00E9443
:104CE000D51DC4C00E94F918C1C00E94D01DBEC00D
:104CF0000E94F418BBC00E94CB1DB8C00E94EF18E0
:104D0000B5C00E94C61DB2C00E94EA18AFC00E9482
:104D1000C11DACC00E94E518A9C00E94BC1DA6C060
:104D20000E94E018A3C00E94B71DA0C00E94DB181B
:104D30009DC00E94B21D9AC00E94D61897C00E94C2
:104D4000AD1D94C00E94D11891C00E94A81D8EC0B4
:104D50000E94CC188BC00E94A31D88C00E94C71857
:104D600085C00E94B51A82C00E948C187FC00E9424
:104D7000001D7CC00E947E1879C00E94F91C76C07C
:104D80000E94701873C00E94401A70C00E942A1AB4
:104D90006DC00E94F21C6AC00E941C1A67C00E946B
:104DA000EB1C64C00E940E1A61C00E94771E5EC098
:104DB0000E94001A5BC00E946E1E58C00E94F21929
:104DC00055C00E949E1D52C00E94C2184FC00E9432
:104DD000991D4CC00E94BD1849C00E94941D46C038
:104DE0000E94B81843C00E948F1D40C00E94B31893
:104DF0003DC00E948A1D3AC00E94AE1837C00E9472
:104E0000851D34C00E94A91831C00E94801D2EC08B
:104E10000E94A4182BC00E947B1D28C00E949F18CE
:104E200025C00E94E01C22C00E9462181FC00E9480
:104E300024181CC00E94D91C19C00E94E41916C075
:104E40000E94D21C13C00E94D61910C00E94651E79
:104E50000DC00E94C8190AC00E94CB1C07C00E9446
:104E6000BA1904C082E096E00E94CA341092C602C9
:104E70000E94043508952F923F924F925F926F9255
:104E80007F928F929F92AF92BF92CF92DF92EF92DA
:104E9000FF920F931F93DF93CF9300D0CDB7DEB770
:104EA00085E089830E9444060E94A1068BE090E081
:104EB0000E941A36882339F08BE090E00E941A365F
:104EC0008F3F09F03CC1109267028BEA91E00E948B
:104ED0007E0680E061E00E948E068CEB90E00E94EE
:104EE0007E060F2EFBE0EF2EF0E0FF2EF02D0F2EB2
:104EF000F0E36F2E7724F02D0F2EF6E3AF2EBB24B8
:104F0000F02D0F2EF3E5CF2EF2E0DF2EF02D0F2E39
:104F1000FCEB4F2EF1E05F2EF02D0F2EF3EC2F2E39
:104F2000F1E03F2EF02D0F2EFCEB8F2EF0E09F2EA8
:104F3000F02D9DC08091C602882361F48091CD023E
:104F4000882341F48091D102882321F480915B026F
:104F5000882381F38091C602882311F00E943F26A6
:104F60008091CD028130C9F4F301808185FD0FC0AD
:104F700012C081E30E94B23410927702109276023E
:104F8000809176029091770280579741C8F3F5019E
:104F9000808182FFEECF1092CD0280915B02813042
:104FA00081F1823009F05FC00E9444060E94A10690
:104FB00082EB91E00E947E0680E061E00E948E0616
:104FC00086EB91E00E947E061092770210927602A4
:104FD000809176029091770280579741C8F30E94A2
:104FE00044060E94A1068BEA91E00E947E0680E0C2
:104FF00061E00E948E06C4010E947E0610925B0250
:1050000032C060915C02C7010E94283680E090E0C7
:10501000F601E80FF91F60818C010F5F1F4FC70178
:10502000800F911F0E942836C8010630110581F7B4
:105030000E9444060E94A106C2010E947E0680E0F2
:1050400061E00E948E06C1010E947E0610927702E6
:105050001092760280917602909177028057974164
:10506000C8F310925B028091D102813081F080916F
:10507000D102813031F0C7010E941A36882309F429
:1050800059CFC7010E941A368F3F09F453CF809140
:10509000D102813009F03EC01092D1020E94440634
:1050A0000E94A1068CEC91E00E947E0689818823F3
:1050B00059F18091D102882339F51092770210922C
:1050C000760280917602909177028057974120F482
:1050D0008091D1028823A9F38091D1028823A1F481
:1050E00087E061E00E948E068981815089838981F1
:1050F00060E00E94880D0E947E068981882321F04D
:105100008091D1028823C9F28091D102813011F4BB
:105110000E94932410929D0210929C02EBE3F0E017
:1051200080818160808384E090E00E941A368093C1
:105130007802109267021092CD0210925B028BE00F
:1051400090E00E941A36882309F488C18BE090E031
:105150000E941A368F3F09F481C11A820CED11E0CA
:105160000F2EF0E3CF2EDD24F02D0F2EF6E3EF2EE1
:10517000FF24F02D0F2EFAE36F2EF1E07F2EF02D9D
:105180000F2EF0E44F2EF1E05F2EF02D0F2EFFE2F8
:105190002F2EF1E03F2EF02D0F2EF2EBAF2EF1E08F
:1051A000BF2EF02D0F2EF6EB8F2EF1E09F2EF02D5F
:1051B0008FC00E9444060E94A106C8010E947E067C
:1051C0008091C602882341F48091CD02882321F486
:1051D00080915B028823A1F38091C602882311F09D
:1051E0000E943F268091CD028130C9F4F601808172
:1051F00085FD0FC012C081E30E94B2341092770285
:1052000010927602809176029091770280579741B2
:10521000C8F3F701808182FFEECF1092CD0280911A
:105220005B028130F9F0823009F052C00E944406DE
:105230000E94A106C5010E947E0680E061E00E94F6
:105240008E06C4010E947E061092770210927602AA
:10525000809176029091770280579741C8F310921F
:105260005B0236C00E943C118823B9F081E08A833A
:105270000E9444060E94A106C1010E947E0610926F
:105280007702109276028091760290917702805791
:105290009741C8F310925B021BC00E9444060E9413
:1052A000A106C3010E947E0680E061E00E948E0696
:1052B000C2010E947E0610927702109276028091BF
:1052C00076029091770280579741C8F310925B0263
:1052D0008A81882309F46DCF0E9444060E94A106AA
:1052E000109267021092CD0210925B028EEE91E056
:1052F0000E947E068981882399F180915B02882330
:1053000079F580916702882359F5109277021092FF
:10531000760280917602909177028057974120F42F
:10532000809167028823A9F3809167028823C1F4E2
:1053300087E061E00E948E0689818150898389819E
:1053400060E00E94880D0E947E068981882341F0DA
:1053500080915B02882321F4809167028823A9F25F
:1053600080915B02813089F1823009F064C00E9433
:1053700044060E94A10682EB91E00E947E0680E036
:1053800061E00E948E0686EB91E00E947E061092FC
:105390007702109276028091760290917702805780
:1053A0009741C8F30E9444060E94A1068EEF91E047
:1053B0000E947E0680E061E00E948E0685E092E019
:1053C0000E947E0610925B0236C00E943C11882328
:1053D00029F00E94932410925B022DC00E94440683
:1053E0000E94A1068AE391E00E947E0680E061E0CF
:1053F0000E948E0680E491E00E947E061092770261
:1054000010927602809176029091770280579741B0
:10541000C8F30E9444060E94A1068EEF91E00E940C
:105420007E0680E061E00E948E0685E092E00E94A8
:105430007E0610925B0210929D0210929C02EBE39A
:10544000F0E080818160808384E090E00E941A36E1
:1054500080937802109267021092CD020F900F9005
:10546000CF91DF911F910F91FF90EF90DF90CF9040
:10547000BF90AF909F908F907F906F905F904F9074
:105480003F902F9008952F923F924F925F926F928C
:105490007F928F929F92AF92BF92CF92DF92EF92C4
:1054A000FF920F931F93DF93CF9300D000D000D0D3
:1054B000CDB7DEB70E94540B0E949F100E94BF0B15
:1054C0000E94E40B0E94D7080E94C30C0E94B60CF5
:1054D0000E94391F0E944F070E9444060E945533C4
:1054E0000E94360F0E949C34EAE2F0E080818068DE
:1054F00080838081806480830E94D20980E69AEE56
:105500000197F1F78EE092E00E947E0680E061E074
:105510000E948E0686E192E00E947E060E948C0721
:1055200078948FEF8093ED021092770210927602BA
:105530008091760290917702885E9340C8F38FEF56
:105540008093EE021092770210927602809176029A
:1055500090917702885E9340C8F38FEF8093EF02BB
:1055600010927702109276028091760290917702E3
:10557000885E9340C8F38FEF8093F0021092770219
:10558000109276028091760290917702885E934025
:10559000C8F38FEF8093F602109277021092760292
:1055A0008091760290917702885E9340C8F3EBE396
:1055B000F0E0808181608083109277021092760201
:1055C0008091760290917702885E9340C8F3EBE376
:1055D000F0E08081826080831092770210927602E0
:1055E0008091760290917702885E9340C8F3E2E35F
:1055F000F0E08081806180831092770210927602C1
:105600008091760290917702885E9340C8F3E5E33B
:10561000F0E080818062808310927702109276029F
:105620008091760290917702885E9340C8F30E9441
:10563000A8061092770210927602809176029091DD
:105640007702885E9340C8F30E94B00610927702FA
:10565000109276028091760290917702885E934054
:10566000C8F31092ED0210927702109276028091A8
:10567000760290917702885E9340C8F31092EE0212
:1056800010927702109276028091760290917702C2
:10569000885E9340C8F31092EF0210927702109246
:1056A00076028091760290917702885E9340C8F3EB
:1056B0001092F00210927702109276028091760298
:1056C00090917702885E9340C8F3E5E3F0E0808133
:1056D0008F7D8083109277021092760280917602FD
:1056E00090917702885E9340C8F3EBE3F0E080810D
:1056F0008D7F8083109277021092760280917602DD
:1057000090917702885E9340C8F3EBE3F0E08081EC
:105710008E7F8083109277021092760280917602BB
:1057200090917702885E9340C8F3E2E3F0E08081D5
:105730008F7E80831092770210927602809176029B
:1057400090917702885E9340C8F31092770210928E
:1057500076028091760290917702885E9340C8F33A
:105760008091D5020E94F00C88EE93E063E070E037
:1057700040E80E94240D8DE192E00E94BA340E941C
:105780003B278BE390E00E941A368093CC020E9464
:105790006E11109267020E94D30E0E94043510927F
:1057A0009A0210927702109276028091760290917E
:1057B0007702885E9340C8F30F2EF9E28F2EF2E055
:1057C0009F2EF02D0F2EF2E36F2EF2E07F2EF02DA4
:1057D0000F2EFEE7AF2EF2E0BF2EF02D03E00F2ECE
:1057E000FBE3CF2EDD24F02D0F2EFEEA4F2EF2E04C
:1057F0005F2EF02D0894411C511C0F2EF9E7EF2E5F
:10580000F2E0FF2EF02D0F2EF3E02F2EF0E03F2ED2
:10581000F02D8091730290917402892B11F40E94F3
:105820008D1480916502882361F10E944406C401B1
:105830000E947E0680E061E00E948E06C3010E9405
:105840007E0680916502882391F088EE93E063E004
:1058500070E040E80E94240D84EF91E063E070E086
:1058600040E80E94240D80916502882371F70E9410
:1058700004351092CD021092D102109267020E945C
:10588000D30E8091D102882349F1813029F580918E
:10589000D002882319F5809178028823F9F0D50188
:1058A0008D919C91892BD1F485E090E00E941A366D
:1058B00090E0880F991F880F991F880F991F909368
:1058C000CB028093CA0281E08093D00284E00E94E0
:1058D000E2111092D10202C01092D102809188028E
:1058E0008230C1F1833009F4CEC0813009F0E1C0CB
:1058F0001092880280E00E947C0C882309F0D9C0B5
:10590000EEEAF2E09081D2018C91880F880F8295A7
:105910008F70EBE5FAE0E80FF11DE4918C9199832B
:10592000EB8382958695869583708A83A2EEB2E09A
:10593000FE013196802F01900D928150E1F7609128
:10594000E2027091E3028091E4020E9487211092AA
:105950008802AFC01092880280E00E947C0C8823ED
:1059600009F48EC00E9477106C837D838E83A9E832
:10597000B2E0FE013496802F01900D928150E1F744
:10598000EBE8F2E08081883E09F07AC0A9E8B2E055
:105990008C91833809F455C0893A09F071C0EAE85E
:1059A000F2E080818081843078F5608180E090E051
:1059B0000E9428360E9437110E94640CAAE8B2E0C7
:1059C0008C918823C9F010E088EE93E062E070E0EB
:1059D00040E80E94240D1092770210927602809186
:1059E000760290917702885E9340C8F31F5FEAE8E1
:1059F000F2E08081181740F388EE93E062E070E0F7
:105A000040E80E94240D3CC088EE93E063E070E023
:105A100040E80E94240D84EF91E063E070E040E8EC
:105A20000E94240D88EE93E063E070E040E80E945D
:105A3000240D84EF91E063E070E040E80E94240DC3
:105A40001FC0AAE8B2E08C918823C1F08530C1F470
:105A50008091D0028823A1F4809173029091740206
:105A6000892B71F4F50180819181892B49F4809112
:105A7000E902882329F40E94691302C00E94D61FFC
:105A80001092880216C08091EA029091EB02892B55
:105A900071F48091E902882351F4D6018C918160E0
:105AA0008C930E94D713F60180818E7F80831092A1
:105AB000880280915102882311F00E940F22809168
:105AC000CD028823C9F18130A9F5D7018C918230AC
:105AD00029F4F50180819181892B21F4809188023C
