:100000000C9493030C942D250C94FA240C94B003B7
:100010000C94DF210C94B0030C94B0030C941C23BB
:100020000C94B0030C94B0030C94B0030C94B00384
:100030000C94B0030C94CB270C94B0030C9476274B
:100040000C94B0030C94B0030C94B0030C94B00364
:100050000C94B0039A1A9D1AA01AA31AA61AA91AE8
:10006000AC1AAF1AB21AB51AB81ABB1ABE1AC11A0C
:10007000C41AC71ACA1ACD1AD01AD31AD61AD91A3C
:10008000DC1ADF1AE21AE51AE81AEB1AEE1AF11A6C
:10009000F41AF71AFA1AFD1A001B031B061B091B98
:1000A0000C1B0F1B121B151B181B1B1B1E1B211BC4
:1000B000241B41A042A1E045A3A4A5A64BA74D48FF
:1000C0004FA8504354A9AA58E1ABACE2ADAEADAFD6
:1000D000B0B161B2B3B4E365B6B7B8B9BABBBCBD31
:1000E0006FBE7063BF79E478E5C0C1E6C2C3C4C522
:1000F000C6C762756C6C6574735F696E5F636C69AB
:10010000703D0062756C6C6574735F696E5F636CE3
:1001100069703F0070726F746F636F6C3F00636C47
:100120006970733D00636C6970733F007072657035
:100130006172655F746F5F77726974655F626C6F1F
:10014000636B00726561645F626C6F636B00736FF9
:10015000756E645F315F6164726573733D00736FC8
:10016000756E645F315F6164726573733F00736FB6
:10017000756E645F315F73697A653D00736F756E8C
:10018000645F315F73697A653F00736F756E645F9A
:10019000325F6164726573733D00736F756E645F87
:1001A000325F6164726573733F00736F756E645F75
:1001B000325F73697A653D00736F756E645F325F9D
:1001C00073697A653F00736F756E645F335F616456
:1001D000726573733D00736F756E645F335F616446
:1001E000726573733F00736F756E645F335F73691D
:1001F0007A653D00736F756E645F335F73697A650E
:100200003F00736F756E645F345F61647265737312
:100210003D00736F756E645F345F61647265737304
:100220003F00736F756E645F345F73697A653D007C
:10023000736F756E645F345F73697A653F00736FC7
:10024000756E645F355F6164726573733D00736FD3
:10025000756E645F355F6164726573733F00736FC1
:10026000756E645F355F73697A653D00736F756E97
:10027000645F355F73697A653F00736F756E645FA5
:10028000365F6164726573733D00736F756E645F92
:10029000365F6164726573733F00736F756E645F80
:1002A000365F73697A653D00736F756E645F365FA4
:1002B00073697A653F00706C61795F736F756E6406
:1002C00000706C61795F73686F745F736F756E64D3
:1002D00000706C617965725F69643D00706C617972
:1002E00065725F69643F0064616D6167655F696E37
:1002F0006465783D0064616D6167655F696E646522
:10030000783F0069725F706F7765723D0069725F58
:10031000706F7765723F00667269656E646C795FB5
:10032000666972653D00667269656E646C795F66C8
:100330006972653F007465616D5F69643D00746555
:10034000616D5F69643F00626174745F66756C6CB7
:100350005F766F6C746167653D00626174745F669F
:10036000756C6C5F766F6C746167653F0062617479
:10037000745F6C6F775F766F6C746167653D006268
:100380006174745F6C6F775F766F6C746167653FE3
:1003900000F200030114011E0125012C0143014E4E
:1003A000015E016E017C018A019A01AA01B801C6B1
:1003B00001D601E601F40102021202220230023EDD
:1003C000024E025E026C027A028A029A02A802B609
:1003D00002C102D102DC02E702F50203030D03179A
:1003E00003260335033E0347035A036D037F03458A
:1003F00052524F523A756E6B6E6F776E20636F6D0F
:100400006D616E640D0A004552524F520D0A00454F
:1004100052524F523A706172616D65746572206913
:1004200073206E6F74207370656369666965640D0F
:100430000A004552524F523A706172616D6574659F
:1004400072206F7574206F662072616E67650D0A89
:10045000004552524F523A696E76616C6964207061
:100460006172616D657465720D0A000D0A4F4B0D66
:100470000A00CAEEEBE8F7E5F1F2E2EE20EFE0F277
:10048000F0EEEDEEE220E220ECE0E3E0E7E8EDE57F
:100490003B696E7428302C3930293B62756C6C6571
:1004A00074735F696E5F636C69703F3B62756C6CFF
:1004B0006574735F696E5F636C69703D0D0ACCE0B3
:1004C000E3E0E7E8EDEEE23B696E7428302C313072
:1004D00030293B636C6970733F3B636C6970733D9B
:1004E0000D0AC8E4E5EDF2E8F4E8EAE0F2EEF02007
:1004F000E8E3F0EEEAE03B696E7428302C313237E5
:10050000293B706C617965725F69643F3B706C6117
:100510007965725F69643D0D0AD6E2E5F220EAEE84
:10052000ECE0EDE4FB3B656E756D28CAF0E0F1EDA3
:10053000E0FF2CD1E8EDFFFF2CC6E5EBF2E0FF2C4D
:10054000C7E5EBE5EDE0FF293B7465616D5F69642C
:100550003F3B7465616D5F69643D0D0ACDE0EDEE72
:10056000F1E8ECFBE920F3F0EEED3B656E756D28EC
:1005700031252C32252C34252C35252C37252C31B2
:1005800030252C3135252C3137252C3230252C3295
:1005900035252C3330252C3335252C3430252C357E
:1005A00030252C3735252C31303025293B64616DC1
:1005B0006167655F696E6465783F3B64616D616723
:1005C000655F696E6465783D0D0AC4F0F3E6E5F198
:1005D000F2E2E5EDEDFBE920EEE3EEEDFC3B656ECE
:1005E000756D28CDE5F22CC4E0293B667269656E15
:1005F000646C795F666972653F3B667269656E64BB
:100600006C795F666972653D0D0ACCEEF9EDEEF12D
:10061000F2FC20C8CA20E8E7EBF3F7E5EDE8FF3B82
:10062000656E756D28C4EBFF20E8E3F0FB20E22047
:10063000EFEEECE5F9E5EDE8E82CC4EBFF20E8E3AC
:10064000F0FB20EDE020F3EBE8F6E5293B69725F73
:10065000706F7765723F3B69725F706F7765723D4F
:100660000D0ACDE0EFF0FFE6E5EDE8E520E7E0F08C
:10067000FFE62E20E1E0F2E0F0E5E820ECC23B6985
:100680006E7428353030302C3435303030293B62B0
:100690006174745F66756C6C5F766F6C74616765AE
:1006A0003F3B626174745F66756C6C5F766F6C74EF
:1006B0006167653D0D0ACDE0EFF0FFE6E5EDE8E5A9
:1006C00020F0E0E7F0FFE62E20E1E0F2E0F0E5E8E0
:1006D00020ECC23B696E7428343530302C34353010
:1006E0003030293B626174745F6C6F775F766F6C3A
:1006F000746167653F3B626174745F6C6F775F76AE
:100700006F6C746167653D0D0A00303132333435EA
:10071000363738390001020405070A0F1114191E73
:100720002328324B640011241FBECFE5D8E0DEBF82
:10073000CDBF12E0A0E6B0E0EAE1F1E502C005902D
:100740000D92A03EB107D9F715E0A0EEB2E001C0CE
:100750001D92A938B107E1F70E94B51D0C948B28B2
:100760000C940000E7E3F0E0808180628083808168
:1007700080688083808180648083E8E3F0E080810A
:100780008F7D808380818F77808380818F7B808342
:100790000895DF93CF9300D0CDB7DEB78A8380E88A
:1007A000898320E030E0E8E3F0E099818A818923C1
:1007B00021F480818F7D808303C08081806280836B
:1007C00080818068808380818F778083898186950E
:1007D00089832F5F3F4F2830310539F7E8E3F0E098
:1007E00080818F7B80838081806480830F900F90D5
:1007F000CF91DF91089580E00E94C9030895809110
:10080000FE0284608093FE020E94C9038091FE0272
:100810008B7F8093FE020E94C90308951F93982F37
:10082000662331F08091FE0282608093FE0205C053
:100830008091FE028D7F8093FE02992334F4809193
:10084000FE0280648093FE0205C08091FE028F7BD1
:100850008093FE02192F96FF06C08091FE028062EF
:100860008093FE0205C08091FE028F7D8093FE0280
:1008700015FF06C08091FE0280618093FE0205C0D4
:100880008091FE028F7E8093FE0214FF06C080914D
:10089000FE0288608093FE0205C08091FE02877F81
:1008A0008093FE028091FE020E94C9030E94FF0312
:1008B00080E49FE10197F1F713FF06C08091FE02EB
:1008C00080648093FE0205C08091FE028F7B80933E
:1008D000FE0212FF06C08091FE0280628093FE023B
:1008E00005C08091FE028F7D8093FE0211FF06C03D
:1008F0008091FE0280618093FE0205C08091FE021D
:100900008F7E8093FE0210FF06C08091FE028860F9
:100910008093FE0205C08091FE02877F8093FE02D5
:100920008091FE020E94C9030E94FF0380E49FE1C0
:100930000197F1F71F91089560E00E940E04089559
:1009400081E090E00E949C04089561E00E940E0402
:10095000089580618093FE020E94FF0380EE9EE274
:100960000197F1F70895DF93CF930F92CDB7DEB7DC
:10097000803418F480E4898301C019828981805809
:100980000E949C0489810F90CF91DF9108958A3055
:1009900031F48091EC0290E00E94B3040895803C11
:1009A00028F0E82FF0E0EE50F040849161E00E94E2
:1009B0000E048091EC028F5F8093EC020895CF9338
:1009C000DF93FC018081882339F0EF010E94C70486
:1009D000898121968823D1F7DF91CF9108951F93C4
:1009E000182F662331F480580E949C041093EC0267
:1009F00007C080540E949C04812F805C8093EC028D
:100A00001F91089582E00E949C0482E08093EC0292
:100A10000895CF93DF93FC018491882349F0EF017F
:100A200021960E94C704FE01219684918823C9F76C
:100A3000DF91CF9108958091FE0280688093FE023D
:100A40000E94C90308958091FE028F778093FE0271
:100A50000E94C903089580E40E949C048EE00E94D5
:100A6000A50481E10E94A50481E10E94A50481E121
:100A70000E94A50481E10E94A50481E10E94A504D1
:100A80008FE10E94A50480E00E94A5048EE00E94F0
:100A9000A50481E10E94A50481E10E94A50481E1F1
:100AA0000E94A50481E10E94A5048FE10E94A50493
:100AB0008FE10E94A50480E00E94A5048EE00E94C0
:100AC000A50481E10E94A50481E10E94A50481E1C1
:100AD0000E94A5048FE10E94A5048FE10E94A50455
:100AE0008FE10E94A50480E00E94A5048EE00E9490
:100AF000A50481E10E94A50481E10E94A5048FE183
:100B00000E94A5048FE10E94A5048FE10E94A50424
:100B10008FE10E94A50480E00E94A5048EE00E945F
:100B2000A50481E10E94A5048FE10E94A5048FE144
:100B30000E94A5048FE10E94A5048FE10E94A504F4
:100B40008FE10E94A50480E00E94A5048EE00E942F
:100B5000A5048FE10E94A5048FE10E94A5048FE106
:100B60000E94A5048FE10E94A5048FE10E94A504C4
:100B70008FE10E94A50480E00E94A50480E80E9405
:100B80009C0408950E94B2030E94FB031092FE028F
:100B90001092EC022EEB30E040E951E0CA010197DF
:100BA000F1F721503040D1F70E94B20324EB30E03E
:100BB00040E951E0CA010197F1F721503040D1F7E7
:100BC00088E090E00E94A9040E94FF030E94FF03B6
:100BD00080E090E00E94A90488E290E00E949C04DA
:100BE00088E090E00E949C0481E090E00E949C04D8
:100BF00084E090E00E949C048CE090E00E949C04C1
:100C000086E090E00E949C040E942B0508951092BB
:100C10001B03E1E3F0E08081877F8083E2E3F0E083
:100C20008081877F8083E5E5F0E080818860808334
:100C300080818B7F8083EBE5F0E08081806880831A
:100C40001092FF020895382F20E0E1E3F0E0A8E1E0
:100C5000B1E060E570E040E451E030FF0AC080811F
:100C6000886080838081877F8083CA010197F1F744
:100C70000CC0808188608083CD010197F1F780816D
:100C8000877F8083CB010197F1F72F5F283011F028
:100C90003695E3CF089530E020E0E1E3F0E064E151
:100CA00070E0A0E3B0E040E253E0808188608083A0
:100CB0008081877F8083CB010197F1F78C918870C9
:100CC0008093F60226958091F60281112068CA0170
:100CD0000197F1F73F5F383041F7822F0895282FB1
:100CE00090E038E1822F862780FF06C0822F83277D
:100CF0008695282F206801C026959F5F983011F0B7
:100D00006695F0CF822F0895CF93DF938091FF02F5
:100D1000882309F06FC080E098E00197F1F7E1E3E4
:100D2000F0E080818860808380E897E00197F1F7A8
:100D30008081877F80838CE190E00197F1F7839B2E
:100D400059C080E491E00197F1F7839953C080EC9A
:100D500093E00197F1F7839B4DC080E897E00197FE
:100D6000F1F783E30E9423060E944B068093000361
:100D7000809100038823F1F16091000380E00E94DC
:100D80006F068093FD021092020380910203863069
:100D9000F8F4C7EFD2E00E944B06809301038091E4
:100DA000020390910103FE01E80FF11D90838091F1
:100DB000FD02609101030E946F068093FD02809105
:100DC00002038F5F8093020380910203863018F341
:100DD0000E944B0680930203909102038091FD02D2
:100DE000981721F082E08093FF0204C081E0809395
:100DF000FF0205C0EAE5F0E0808180688083DF9132
:100E0000CF910895E0E2F0E08CE0808380818A3029
:100E100010F48AE080B9E1E2F0E080818C7F808389
:100E20000895CF93DF93582FE6E5F0E044EAA1E27E
:100E3000B0E0C3E2D0E030EA24E840838081882338
:100E4000ECF78C91887F8830B1F5388320838081DE
:100E50008823ECF78C91887F883179F793B984E8FF
:100E600086BFE6E5F0E080818823ECF781B1887FDA
:100E7000883209F553B984E886BFE6E5F0E0808161
:100E80008823ECF781B1887F8832A9F463B984E8BC
:100E900086BFE6E5F0E080818823ECF781B1887FAA
:100EA000883249F484E986BFE6E5F0E0808184FD7C
:100EB000FDCF81E001C080E0DF91CF910895CF9315
:100EC000DF93582FE6E5F0E044EAA1E2B0E0C3E2A8
:100ED000D0E030EA24E8408380818823ECF78C91CD
:100EE000887F883009F04DC0388320838081882333
:100EF000ECF78C91887F883171F793B984E886BFCD
:100F0000E6E5F0E080818823ECF781B1887F8832C4
:100F1000C1F553B984E886BFE6E5F0E08081882317
:100F2000ECF781B1887F883261F584EA86BFE6E517
:100F3000F0E080818823ECF781B1887F803109F56A
:100F400081EA83B984E886BFE6E5F0E08081882302
:100F5000ECF781B1887F8034A1F484E886BFE6E5B0
:100F6000F0E080818823ECF781B1887F883549F4EF
:100F700093B184E986BFE6E5F0E0808184FDFDCF92
:100F800001C090E0892FDF91CF9108950F931F93B7
:100F9000CF93DF938C01E6E5F0E034EAA1E2B0E024
:100FA000C3E2D0E020EA94E8308380818823ECF724
:100FB0008C91887F883009F048C028839083808195
:100FC0008823ECF78C91887F883171F773B984E8B6
:100FD00086BFE6E5F0E080818823ECF781B1887F69
:100FE000883299F563B984E886BFE6E5F0E0808150
:100FF0008823ECF781B1887F883239F54115510596
:10100000D9F020E030E0C3E2D0E0E6E5F0E094E89B
:1010100061E270E0D8018D918D0188839083808199
:101020008823ECF7DB018C91887F883271F42F5F85
:101030003F4F2417350770F384E986BFE6E5F0E0FB
:10104000808184FDFDCF81E001C080E0DF91CF9100
:101050001F910F9108950F931F93CF93DF938C01EE
:10106000E6E5F0E034EAA1E2B0E0C3E2D0E020EA55
:1010700094E8308380818823ECF78C91887F8830D6
:1010800009F071C02883908380818823ECF78C91CC
:10109000887F883171F773B984E886BFE6E5F0E0B0
:1010A00080818823ECF781B1887F883209F05BC0AA
:1010B00063B984E886BFE6E5F0E080818823ECF739
:1010C00081B1887F883209F04EC084EA86BFE6E5A8
:1010D000F0E080818823ECF781B1887F803109F0CE
:1010E00042C081EA83B984E886BFE6E5F0E080810A
:1010F0008823ECF781B1887F8034A9F541505040B6
:10110000D9F020E030E0E6E5F0E094EC61E270E058
:10111000C3E2D0E0908380818823ECF7DB018C91DF
:10112000887F803501F58881D8018D938D012F5FEF
:101130003F4F2417350770F384E886BFE6E5F0E0FB
:1011400080818823ECF781B1887F883561F483B191
:10115000F801808384E986BFE6E5F0E0808184FDC4
:10116000FDCF81E001C080E0DF91CF911F910F9111
:101170000895CF93DF93582FE6E5F0E044EAA1E22B
:10118000B0E0C3E2D0E030EA24E8408380818823E5
:10119000ECF78C91887F8830E1F53883208380815B
:1011A0008823ECF78C91887F883179F793B984E8AC
:1011B00086BFE6E5F0E080818823ECF781B1887F87
:1011C000883239F553B984E886BFE6E5F0E08081DE
:1011D0008823ECF781B1887F8832D9F484EA86BF0E
:1011E000E6E5F0E080818823ECF781B1887F8031EB
:1011F00081F481EA83B984E886BFE6E5F0E0808186
:101200008823ECF781B190E0887F803419F491E075
:1012100001C090E0892FDF91CF910895DC0184EC2B
:1012200086BFE6E5F0E080818823ECF781B1887F16
:10123000803511F080E0089583B18C9381E00895AA
:10124000DC0184E886BFE6E5F0E080818823ECF7E6
:1012500081B1887F883511F080E0089583B18C9347
:1012600084E986BFE6E5F0E0808184FDFDCF81E082
:101270000895CF93DF93E4E3F0E080818062808380
:10128000808180648083A5E3B0E08C918F7B8C9318
:101290008081806880838C918F778C938081886037
:1012A000808380818061808380818460808321E36A
:1012B00030E0E901888180688883E7E3F0E080819D
:1012C00088608083808180618083A8E3B0E08C9116
:1012D00080618C934AE350E0EA01888181608883D1
:1012E0008081846080838C918B7F8C93E9018881DD
:1012F0008061888388818B7F888380818E7F8083D3
:101300008C9181608C9380818B7F80838C918460B1
:101310008C9380818D7F80838C9182608C93FA0185
:1013200080818F778083EBE3F0E080818F7780830B
:10133000DF91CF9108958DE883BD89E085BDE9E512
:10134000F0E080818F7780830895E1E3F0E0808191
:101350008B7F8083E5E5F0E08081826080838081FF
:101360008E7F8083EBE5F0E0808180648083089548
:10137000982F969596959695E92FF0E09F01220F6C
:10138000331F220F331F220F331F821B662389F066
:10139000E05DFC4F408127E030E0281B310981E00F
:1013A00090E002C0880F991F2A95E2F7482B4083EE
:1013B0000895E05DFC4F408127E030E0281B3109B3
:1013C00081E090E002C0880F991F2A95E2F780958E
:1013D0008423808308951092850381E080930A031B
:1013E000E9E5F0E0808180688083E5E3F0E08081DA
:1013F000806280830895EDE4F3E020E030E043E490
:1014000050E066E870E0880F1AF46193719302C0AF
:10141000419351932F5F3F4F27303105A1F783E46C
:1014200090E090934C0380934B030895813089F0B2
:10143000813028F08230C9F0833061F522C0EDE5BB
:10144000F3E083E490E091838083329791838083FB
:101450000895EDE5F3E086E890E09183808332978C
:1014600083E490E0918380830895EDE5F3E083E4E5
:1014700090E091838083329786E890E09183808327
:101480000895EDE5F3E086E890E09183808332975C
:10149000918380830895873009F4C5C0883090F423
:1014A000833009F468C0843030F48130C1F1823077
:1014B00008F04BC020C0853009F489C0863008F0A0
:1014C0009CC06FC08B3009F406C18C3038F4893071
:1014D00009F4D5C08A3008F0E8C0BBC08D3009F4EB
:1014E00026C18D3008F40DC18E3009F436C18F301D
:1014F00009F05CC148C1A5E6B3E083E490E0119631
:101500009C938E93FD01329791838083FD013497E4
:1015100091838083169711969C938E930895A5E6E8
:10152000B3E086E890E011969C938E93FD0132978C
:1015300083E490E091838083FD01349791838083DD
:10154000169711969C938E930895A5E6B3E023E435
:1015500030E011963C932E93FD01329786E890E09F
:1015600091838083FD0134973183208316971196F0
:101570003C932E930895A5E6B3E086E890E011969B
:101580009C938E93FD01329791838083FD01349764
:1015900083E490E091838083169711969C938E93B9
:1015A0000895A5E6B3E023E430E011963C932E9332
:1015B000FD01329731832083FD01349786E890E066
:1015C00091838083169711963C932E930895A5E6F8
:1015D000B3E026E830E011963C932E93FD0132975C
:1015E00083E490E091838083FD01349731832083ED
:1015F000169711969C938E930895A5E6B3E023E485
:1016000030E011963C932E93FD01329786E890E0EE
:1016100091838083FD01349791838083169711967F
:101620003C932E930895A5E6B3E086E890E01196EA
:101630009C938E93FD01329791838083FD013497B3
:1016400091838083169783E490E011969C938E9308
:101650000895A5E6B3E083E490E011969C938E9301
:10166000FD01329791838083FD01349791838083BC
:10167000169786E890E011969C938E930895A5E6C0
:10168000B3E026E830E011963C932E93FD013297AB
:1016900083E490E091838083FD013497918380837C
:1016A000169711963C932E930895A5E6B3E023E494
:1016B00030E011963C932E93FD01329786E890E03E
:1016C00091838083FD01349731832083169711968F
:1016D0009C938E930895A5E6B3E026E830E011963A
:1016E0003C932E93FD01329731832083FD01349783
:1016F00083E490E091838083169711963C932E9318
:101700000895A5E6B3E083E490E011969C938E9350
:10171000FD01329791838083FD01349786E890E044
:1017200091838083169711969C938E930895A5E6D6
:10173000B3E026E830E011963C932E93FD013297FA
:1017400083E490E091838083FD013497318320838B
:10175000169711963C932E930895A5E6B3E083E483
:1017600090E011969C938E93FD01329786E890E06D
:1017700091838083FD01349791838083169711961E
:101780009C938E930895A5E6B3E086E890E01196C9
:101790009C938E93FD01329791838083FD01349752
:1017A00091838083169711969C938E930895482F6A
:1017B000282F26952695269530E0F901E05DFC4F0F
:1017C000808190E0220F331F220F331F220F331F1F
:1017D000421B27E030E0241B310902C09595879514
:1017E0002A95E2F78170089580E88CBFE3E5F0E088
:1017F00088E48083808181608083808180628083AF
:101800000895AFE4B0E08C918E7F8C938C918D7FA6
:101810008C93EEE4F0E080818860808380818F7E0D
:1018200080838C918F7B8C938C918F778C9380812C
:101830008F7E808380818F7D808380818E7F808377
:1018400080818260808380818B7F808389EF8ABDE5
:10185000E9E5F0E08081806180830895982FA0E819
:10186000B3E0FD0111921082FD01329610821396B1
:101870001C928695482F50E01416150674F420E04B
:1018800030E060E873E08FEFFB01E20FF31F80832D
:101890002F5F3F4F24173507BCF39A01220F331FE8
:1018A000892F90E0821B930B181619062CF4FA016D
:1018B000E058FC4F8CEC8083089586B38695809524
:1018C00081700895EF92FF920F931F93CF93DF9350
:1018D000FC01062FF72E142F8FE0E13AF80708F0ED
:1018E0004EC0C0916E03D0916F038FEF9FEF909326
:1018F0006F0380936E0380EA9FE0BF010E940E2871
:10190000E62E802F9F2D9C01213A310510F020EA10
:1019100030E0CF016AE070E00E940E28269FA0010F
:10192000279F500D369F500D11244115510519F177
:10193000E0E0F0E0ACE5B0E06E2D70E09B011C93C0
:1019400010921703109216038091160390911703BB
:1019500086179707C8F31C9210921703109216036C
:10196000809116039091170382179307C8F331965D
:10197000E417F50720F3D0936F03C0936E03DF9154
:10198000CF911F910F91FF90EF9008950F931F93A8
:1019900002E310E0F80180818061808388EE93E0AB
:1019A00063E070E040E80E94620C84EF91E063E045
:1019B00070E040E80E94620CF80180818F7E808395
:1019C0001F910F9108958F929F92AF92BF92CF92E5
:1019D000DF92EF92FF920F931F93DF93CF9300D08C
:1019E000CDB7DEB7D62E8983662329F422E030E016
:1019F00043E050E007C0462F50E09A0121503040AC
:101A00000AF476C00F2EFAE0EF2EF7E0FF2EF02D4D
:101A100006EE12E089816AE00E9402289A83898199
:101A20000E94022889838A81F701E80FF11DE49161
:101A3000D801A20FB31FEC93215030405AF7FA019E
:101A4000EA51FD4F1082DD2009F041C00F2EF6EE65
:101A5000CF2EF2E0DF2EF02D56010894A11CB11C10
:101A600007EE12E04801089481089108B4016E5F06
:101A70007F4FA4014D5F5F4F94012C5F3F4FD40116
:101A800015960F2EF6E0EF2EFF24F02DE80CF91C32
:101A9000F6018081F50190818033C9F49923B9F072
:101AA000F8018081F4018083FB018081F80180834B
:101AB000FA018081FB018083F9018081FA01808332
:101AC0008C91F9018083F70180818C93E1CF86EEC0
:101AD00092E00F900F90CF91DF911F910F91FF90A7
:101AE000EF90DF90CF90BF90AF909F908F90089530
:101AF000FA01EA51FD4F1082EACF8F929F92AF9286
:101B0000BF92CF92DF92EF92FF920F931F93DF93DA
:101B1000CF9300D000D0CDB7DEB7462F9A8389830C
:101B2000662341F404E010E00F2EF5E0EF2EFF24D1
:101B3000F02D07C0E62EFF248701015010400AF463
:101B400088C00F2EFAE0AF2EF7E0BF2EF02D0F2E3B
:101B5000F0EECF2EF2E0DF2EF02D89819A816AE03F
:101B600070E00E940E28282F392F3C832B83898117
:101B70009A816AE070E00E940E28862F972F9A8340
:101B800089838B819C81F501E80FF91FE491D601CF
:101B9000A00FB11FEC9301501040FAF6F701E0528C
:101BA000FD4F1082442309F041C00F2EF0EECF2EDE
:101BB000F2E0DF2EF02D56010894A11CB11C01EEBD
:101BC00012E04801089481089108B4016E5F7F4FCC
:101BD000A4014D5F5F4F94012C5F3F4FD4011596D8
:101BE0000F2EF6E0EF2EFF24F02DE80CF91CF60185
:101BF0008081F50190818033C9F49923B9F0F8010F
:101C00008081F4018083FB018081F8018083FA01E7
:101C10008081FB018083F9018081FA0180838C91AE
:101C2000F9018083F70180818C93E1CF80EE92E00F
:101C30000F900F900F900F90CF91DF911F910F9108
:101C4000FF90EF90DF90CF90BF90AF909F908F90DC
:101C50000895F701E052FD4F1082E8CF0E94A004E2
:101C600080E690E00E94DF0480916B0390916C030A
:101C700060E00E94E30C0E94DF0488E690E00E948E
:101C8000DF0480E061E00E94EF048BE690E00E94B8
:101C9000DF0480911E0390911F0360E00E94E30C1B
:101CA0000E94DF048AE061E00E94EF0482E790E096
:101CB0000E94DF048091180360E00E94E30C0E9400
:101CC000DF0486E790E00E94DF04089587E060E08B
:101CD0000E94EF0480916B0390916C0360E00E947E
:101CE000E30C0E94DF0488E790E00E94DF0408957F
:101CF00086E061E00E94EF0480911E0390911F0333
:101D000060E00E94E30C0E94DF0486E790E00E94FE
:101D1000DF0408958DE061E00E94EF0480911803D4
:101D200060E00E94E30C0E94DF0486E790E00E94DE
:101D3000DF04089580EC87B987E886B90895E7E263
:101D4000F0E090818770892B8083E6E2F0E080816B
:101D500080648083808184FFFDCFE6E2F0E08081B3
:101D60008061808324B135B1822F932F08950F9322
:101D70001F930E94A0040E9402058DE790E00E943C
:101D8000DF0409E713E0F801808160E00E94E30CC2
:101D90000E94DF0483E890E00E94DF0480E061E0BD
:101DA0000E94EF048BE890E00E94DF040250104094
:101DB000F80181918F0160E00E94E30C0E94DF0432
:101DC00080E990E00E94DF04F801808160E00E94D9
:101DD000E30C0E94DF041F910F910895843321F1D9
:101DE000853360F48133C1F0823318F4803341F5D8
:101DF00015C08233A9F0833319F514C08733D1F0AD
:101E0000883328F4853391F08633D1F411C08833B8
:101E100099F08933A9F412C081E0089580E0089513
:101E200082E0089583E0089584E0089585E00895B0
:101E300086E0089587E0089588E0089589E0089590
:101E400085E508950895CF93DF93582FE6E5F0E0F8
:101E500044EAA1E2B0E0C3E2D0E030EA24E8408303
:101E600080818823ECF78C91887F883009F083C0CB
:101E70003883208380818823ECF78C91887F883198
:101E800071F793B984E886BFE6E5F0E080818823A6
:101E9000ECF781B1887F883209F06DC053B984E8CE
:101EA00086BFE6E5F0E080818823ECF781B1887F8A
:101EB000883209F060C084EA86BFE6E5F0E0808100
:101EC0008823ECF781B1887F803109F054C081EA22
:101ED00083B984E886BFE6E5F0E080818823ECF7EB
:101EE00081B1887F803409F046C06150704001F1B3
:101EF00020E030E0E6E5F0E094ECA1E2B0E0C3E2FF
:101F0000D0E041E0908380818823ECF78C91887F3A
:101F1000803589F5809171038823E1F7888180936A
:101F20006A03409371032F5F3F4F2617370750F323
:101F300084E886BFE6E5F0E080818823ECF781B194
:101F4000887F8835C1F4809171038823E1F783B1DC
:101F500080936A0381E08093710384E986BFE6E59C
:101F6000F0E0808184FDFDCF1CBE10926A031092C8
:101F7000710381E001C080E0DF91CF9108950F935C
:101F80001F9386E290E00E9463288C0188E290E033
:101F90000E946328BC01C8010E94230F1F910F916A
:101FA00008950F931F9382E290E00E9463288C01B2
:101FB00084E290E00E946328BC01C8010E94230FC4
:101FC0001F910F9108950F931F938EE190E00E944F
:101FD00063288C0180E290E00E946328BC01C80164
:101FE0000E94230F1F910F9108950E94E30F0895FF
:101FF0000F931F938AE190E00E9463288C018CE18B
:1020000090E00E946328BC01C8010E94230F1F9129
:102010000F9108950E94F80F08950F931F9386E182
:1020200090E00E9463288C0188E190E00E94632880
:10203000BC01C8010E94230F1F910F910895809148
:10204000130390911403029750F081E090E0909375
:1020500014038093130380917E038823E1F70E9489
:102060000D1008950F931F9382E190E00E94632862
:102070008C0184E190E00E946328BC01C8010E94A9
:10208000230F1F910F910895EF92FF920F931F93CB
:10209000DF93CF9300D0CDB7DEB787E00E949F0ECD
:1020A0009A83898386E090E00E9463287C0188E01F
:1020B00090E00E9463288C018CE060E00E94EF04B5
:1020C00080917F03882321F0813009F07CC041C0DA
:1020D000C801880F991F880F991F6BE470E00E9458
:1020E0000E28862F972F8C0187E990E00E94DF044D
:1020F00089819A818017910720F480E00E94C704AB
:1021000062C0C701880F991F880F991F6BE470E0A8
:102110000E940E28862F972FBC0189819A8168170B
:10212000790720F485E00E94C7044DC029813A81D7
:10213000201B310BC901880F991F820F931F601B51
:10214000710B880F991F0E940E28862F0E94C704CA
:102150003AC029813A81C901880F991F820F931FC4
:102160009C01220F331F220F331F820F931F96955E
:10217000879596958795969587959A838983898182
:102180009A8164E670E00E940E28862F60E00E942B
:10219000E30C0E94DF048BE990E00E94DF04898158
:1021A0009A8164E670E00E940E286AE070E00E9466
:1021B0000E28862F60E00E94E30C0E94DF0486E771
:1021C00090E00E94DF040F900F90CF91DF911F915C
:1021D0000F91FF90EF90089588E090E00E946328AF
:1021E00060E00E947D0D0E9454278BE694E00E94DF
:1021F0006427089586E090E00E94632860E00E94D2
:102200007D0D0E9454278BE694E00E946427089578
:102210000E9432108DE990E00E9454270895CF92D9
:10222000DF92EF92FF920F931F93DF93CF9300D033
:10223000CDB7DEB71A8220E00F2EF9E8EF2EF4E0DA
:10224000FF2EF02D0F2EFAE0CF2EF02DDD24D394AB
:1022500023C08091F402F701E80FF11D908199836A
:102260008F5F8093F40289818032B1F0898180335D
:1022700070F089818A3358F40A8189810E94EE0EB8
:102280000C9D80011124800F8A832D2D05C082EAC8
:1022900090E00E94542740C08091F402F701E80FBB
:1022A000F11D80818D30A9F6222329F48FE094E07E
:1022B0000E94642731C08A81873018F48A8188237C
:1022C00029F482E394E00E94642726C08A81833047
:1022D000A1F0843028F4813051F08230C9F40AC072
:1022E000853089F0853060F0863091F40FC00E940F
:1022F00032100EC00E940D100BC00E94F80F08C0D3
:102300000E94E30F05C00E94D10F02C00E94BF0FC0
:102310008DE990E00E9454270F900F90CF91DF91AC
:102320001F910F91FF90EF90DF90CF9008950E9442
:10233000632860E00E947D0D0E9454278AEA90E0A5
:102340000E945427089588E290E00E949711089512
:1023500086E290E00E949711089584E290E00E9446
:102360009711089582E290E00E949711089580E20B
:1023700090E00E94971108958EE190E00E949711DD
:1023800008958CE190E00E94971108958AE190E011
:102390000E949711089588E190E00E949711089596
:1023A00086E190E00E949711089584E190E00E94F8
:1023B0009711089582E190E00E9497110895DF92AD
:1023C000EF92FF920F931F93DF93CF9300D00F9262
:1023D000CDB7DEB71B821A8220E00F2EF9E8EF2E70
:1023E000F4E0FF2EF02DDD24D3942EC08091F40272
:1023F000F701E80FF11D908199838F5F8093F402BC
:102400008981803209F189818033C8F089818A33DA
:10241000B0F40A811B8189810E94EE0E9801220F7F
:10242000331F000F111F000F111F000F111F200F6E
:10243000311F280F311D3B832A832D2D05C082EAD1
:1024400090E00E9454274FC08091F402F701E80FFA
:10245000F11D80818D3051F6222329F48FE094E024
:102460000E94642740C08A819B818150924028F05D
:1024700082E394E00E94642736C00E94A1278DE980
:1024800090E00E94542710927B0310927A0380916F
:102490007A0390917B038A58924020F48091F50250
:1024A0008823ACF78091F5028823CCF46A817B8184
:1024B0007695762F66277795679589E894E040E8CA
:1024C00050E00E94C607882329F08DE990E00E9421
:1024D000542709C081EB90E00E94542704C08CEC83
:1024E00090E00E9454270F900F900F90CF91DF91B2
:1024F0001F910F91FF90EF90DF90089580E090E0A2
:102500000E945B2860E00E94E30C0E9454278BE647
:1025100094E00E94642708958AE290E00E945B287C
:1025200060E00E94E30C0E9454278BE694E00E9436
:10253000642708958AE090E00E945B28803439F097
:10254000803849F484ED90E00E94542704C086ED61
:1025500090E00E9454278BE694E00E94642708953F
:1025600082E090E00E945B2860E00E94E30C0E9401
:1025700054278AEA90E00E945427089581E090E071
:102580000E945B2860E00E94E30C0E9454278AEAC4
:1025900090E00E945427089584E090E00E945B2818
:1025A00060E00E94E30C0E9454278AEA90E00E94B7
:1025B0005427089583E090E00E945B2860E00E9429
:1025C000E30C0E9454278AEA90E00E945427089561
:1025D00082E090E00E945B28089580E090E00E94F5
:1025E0005B280895EF92FF920F931F93CF93DF9391
:1025F0008BE090E00E945B28909100038917E1F442
:10260000C0E0D0E00F2EFBE0EF2EF0E0FF2EF02D2B
:1026100007EF12E0CE0101968E0D9F1D0E945B28F0
:10262000F801EC0FFD1F9081891731F42196C63017
:10263000D10581F781E001C080E0DF91CF911F914A
:102640000F91FF90EF900895CF92DF92EF92FF925B
:102650000F931F93DF93CF9300D0CDB7DEB71A82CD
:1026600020E00F2EF9E8EF2EF4E0FF2EF02D0F2ED4
:10267000FAE0CF2EF02DDD24D39423C08091F40214
:10268000F701E80FF11D908199838F5F8093F40229
:1026900089818032B1F08981803370F089818A33F9
:1026A00058F40A8189810E94EE0E0C9D800111244C
:1026B000800F8A832D2D05C081E594E00E94642758
:1026C0002DC08091F402F701E80FF11D80818D305B
:1026D000A9F6222329F48FE094E00E9464271EC00B
:1026E0008A81823038F48A818A81882341F081305E
:1026F00089F40BC082E394E00E9464270FC08AE053
:1027000090E060E80E94692805C08AE090E060E4FB
:102710000E9469288BE694E00E9464270F900F9036
:10272000CF91DF911F910F91FF90EF90DF90CF90AD
:102730000895CF92DF92EF92FF920F931F93DF9352
:10274000CF9300D0CDB7DEB71A8220E00F2EF9E884
:10275000EF2EF4E0FF2EF02D0F2EFAE0CF2EF02D0D
:10276000DD24D39423C08091F402F701E80FF11D1A
:10277000908199838F5F8093F40289818032B1F0D8
:102780008981803370F089818A3358F40A81898184
:102790000E94EE0E0C9D80011124800F8A832D2D46
:1027A00005C082EA90E00E94542718C08091F4028C
:1027B000F701E80FF11D80818D30A9F6222329F45D
:1027C0008FE094E00E94642709C06A8184E090E071
:1027D0000E9469288DE990E00E9454270F900F9085
:1027E000CF91DF911F910F91FF90EF90DF90CF90ED
:1027F00008958F929F92AF92BF92CF92DF92EF9205
:10280000FF920F931F93DF93CF9300D0CDB7DEB726
:102810005C01862E942E1A8220E00F2EF9E8EF2E0E
:10282000F4E0FF2EF02D0F2EFAE0CF2EF02DDD2458
:10283000D39423C08091F402F701E80FF11D908139
:1028400099838F5F8093F40289818032B1F089810E
:10285000803370F089818A3358F40A8189810E941B
:10286000EE0E0C9D80011124800F8A832D2D05C052
:1028700081E594E00E94642722C08091F402F70170
:10288000E80FF11D80818D30A9F6222329F48FE015
:1028900094E00E94642713C08A81981618F08A81F8
:1028A000881528F482E394E00E94642708C06A81B6
:1028B000C5010E9469288DE990E00E9454270F907D
:1028C0000F90CF91DF911F910F91FF90EF90DF90CC
:1028D000CF90BF90AF909F908F90089580E090E050
:1028E00060E043E00E94F91308958AE290E060E01E
:1028F00041E00E94F913089582E090E060E04FE02B
:102900000E94F913089581E090E060E04FE70E9493
:10291000F913089583E090E060E04AE50E94F9131E
:102920000895EF92FF921F93CF93DF9310920B03C2
:102930008AE290E00E945B28182F0E94A00488ED94
:1029400090E00E94DF0480E061E00E94EF04112328
:1029500029F089EE90E00E94DF0404C08DEE90E043
:102960000E94DF0481EF90E00E94DF04CDEED0E012
:102970000F2EF9EEEF2EF0E0FF2EF02D36C08091F5
:102980000B038823E1F380910B038330E1F0843063
:1029900028F4813041F0823031F508C08430B1F044
:1029A000853009F522C010920B031FC0112341F49A
:1029B00080E061E00E94EF04C7010E94DF0411E0A3
:1029C00010920B0312C010920B030FC0112341F0A1
:1029D00080E061E00E94EF04CE010E94DF0410E07D
:1029E00010920B0302C010920B0380910B038530F1
:1029F00031F68AE290E00E945B28181759F00E9495
:102A0000A0048DEF90E00E94DF048AE290E0612F45
:102A10000E946928DF91CF911F91FF90EF90089558
:102A2000DF92EF92FF920F931F93CF93DF93109259
:102A30000B038AE090E00E945B28182F0E94A004FC
:102A40008BE091E00E94DF0480E061E00E94EF04EF
:102A5000103429F48BE191E00E94DF0406C01038A5
:102A600021F481E291E00E94DF0481EF90E00E9476
:102A7000DF040F2EF1E2EF2EF1E0FF2EF02D00E843
:102A8000CBE1D1E0DD246894D6F836C080910B0309
:102A90008823E1F380910B038330E1F0843028F444
:102AA000813041F0823031F508C08430B1F085309A
:102AB00009F522C010920B031FC0103841F480E0CA
:102AC00061E00E94EF04CE010E94DF041D2D1092F0
:102AD0000B0312C010920B030FC0103441F480E0BE
:102AE00061E00E94EF04C7010E94DF04102F1092E2
:102AF0000B0302C010920B0380910B03853031F65B
:102B00008AE090E00E945B28181759F00E94A00408
:102B10008DEF90E00E94DF048AE090E0612F0E9438
:102B20006928DF91CF911F910F91FF90EF90DF9077
:102B30000895BF92CF92DF92EF92FF920F931F936F
:102B4000CF93DF938C016B01EA01B22E10920B033D
:102B5000CB010E945B28F82EFE01E80FF11DE490E6
:102B60000E94A004C8010E94DF0480E061E00E948E
:102B7000EF048E2D63E00E94E30C0E94DF0487E2E5
:102B800091E00E94DF0443C080910B038823E1F3AE
:102B900080910B03833019F1843028F4813041F0A7
:102BA000823099F508C08430E9F0853071F52FC086
:102BB00010920B032CC0FB1408F4F39480E061E046
:102BC0000E94EF04FE01EF0DF11DE4918E2F63E0F2
:102BD0000E94E30C0E94DF0410920B0318C01092B5
:102BE0000B0315C0F110FA9480E061E00E94EF043D
:102BF000FE01EF0DF11DE4918E2F63E00E94E30CC6
:102C00000E94DF0410920B0302C010920B0380910C
:102C10000B03853009F0B8CFC6010E945B28F81677
:102C200051F00E94A0048DEF90E00E94DF04C601E5
:102C30006F2D0E946928DF91CF911F910F91FF9016
:102C4000EF90DF90CF90BF900895EF92FF920F9397
:102C50001F93CF93DF93EC017B01042F10920B03A2
:102C6000CB010E945B28102F801708F4182F0E94B8
:102C7000A004CE010E94DF0480E061E00E94EF0426
:102C8000812F63E00E94E30C0E94DF0487E291E061
:102C90000E94DF04C02FD0E05FC080910B03882327
:102CA000E1F380910B03833091F1843030F4813073
:102CB00051F0823009F04EC01AC08430E1F1853005
:102CC00009F048C049C0812F90E00A96C817D9077B
:102CD0000CF0165F80E061E00E94EF04812F63E05A
:102CE0000E94E30C0E94DF0410920B0335C0101702
:102CF00008F41F5F80E061E00E94EF04812F63E031
:102D00000E94E30C0E94DF0410920B0325C0812F68
:102D100090E00997181619060CF41A5080E061E04B
:102D20000E94EF04812F63E00E94E30C0E94DF0405
:102D300010920B0311C01111115080E061E00E944C
:102D4000EF04812F63E00E94E30C0E94DF041092E5
:102D50000B0302C010920B0380910B03853009F026
:102D60009CCFC7010E945B28181751F00E94A00455
:102D70008DEF90E00E94DF04C701612F0E94692857
:102D8000DF91CF911F910F91FF90EF9008950F93D6
:102D90001F9301E010E085E391E0B8014FE70E9446
:102DA0002516C8010E945B280E94FB0984E491E07B
:102DB00060E070E043E00E9425160E94ED120E9440
:102DC000160A84E591E062E070E045E157E02FE00B
:102DD0000E9499150E94E8120E944B0A84E691E035
:102DE00063E070E04AE50E94251686E791E064E022
:102DF00070E04AE50E94251681E891E065E070E008
:102E000048E00E9425160E9410158AE090E00E947A
:102E10005B28809312030E9491141F910F910895D3
:102E2000682F80E090E00E9469280895BF92CF92B9
:102E3000DF92EF92FF920F931F93DF93CF9300D017
:102E40000F92CDB7DEB76C011B821A8220E00F2EE5
:102E5000F9E8EF2EF4E0FF2EF02DBB24B3942EC042
:102E60008091F402F701E80FF11D908199838F5F43
:102E70008093F4028981803209F189818033C8F01E
:102E800089818A33B0F40A811B8189810E94EE0E08
:102E90009801220F331F000F111F000F111F000F89
:102EA000111F200F311F280F311D3B832A832B2D2B
:102EB00005C082EA90E00E94542718C08091F40275
:102EC000F701E80FF11D80818D3051F6222329F49E
:102ED0008FE094E00E94642709C06A817B81C6016B
:102EE0000E9476288DE990E00E9454270F900F9061
:102EF0000F90CF91DF911F910F91FF90EF90DF9096
:102F0000CF90BF90089588E290E00E941617089530
:102F100086E290E00E941617089584E290E00E94F5
:102F20001617089582E290E00E941617089580E235
:102F300090E00E94161708958EE190E00E94161707
:102F400008958CE190E00E94161708958AE190E0C0
:102F50000E941617089588E190E00E9416170895C0
:102F600086E190E00E941617089584E190E00E94A7
:102F70001617089582E190E00E94161708956F9247
:102F80007F929F92AF92BF92CF92DF92EF92FF9289
:102F90000F931F93DF93CF9300D00F92CDB7DEB77F
:102FA0003C015B016A011B821A8220E00F2EF9E8C6
:102FB000EF2EF4E0FF2EF02D992493942EC08091F3
:102FC000F402F701E80FF11D908199838F5F8093E0
:102FD000F4028981803209F189818033C8F08981C6
:102FE0008A33B0F40A811B8189810E94EE0E980118
:102FF000220F331F000F111F000F111F000F111F91
:10300000200F311F280F311D3B832A83292D05C036
:1030100081E594E00E94642727C08091F402F701C3
:10302000E80FF11D80818D3051F6222329F48FE0C5
:1030300094E00E94642718C08A819B81C816D90633
:1030400028F08A819B818A159B0528F482E394E00D
:103050000E94642709C06A817B81C3010E9476288F
:103060008DE990E00E9454270F900F900F90CF9120
:10307000DF911F910F91FF90EF90DF90CF90BF9065
:10308000AF909F907F906F90089588E090E064E902
:1030900071E148EC5FEA0E94BF17089586E090E076
:1030A00060E070E048EC5FEA0E94BF17089581E09D
:1030B00090E00E945B2888232CF481E090E060E09F
:1030C0000E94692880E090E00E945B28843028F00C
:1030D00080E090E060E00E94692882E090E00E9439
:1030E0005B28803128F082E090E065E00E9469284A
:1030F00083E090E00E945B288B3528F083E090E02D
:103100006EE10E94692884E090E00E945B288B3584
:1031100028F084E090E06FE00E94692885E090E06C
:103120000E945B28893028F085E090E061E00E94F1
:10313000692886E090E00E9463288F5F9F4F31F4FA
:1031400086E090E060E97AE10E94762888E090E0ED
:103150000E9463288F5F9F4F31F488E090E06CE716
:1031600075E10E9476288AE090E00E945B28803416
:1031700059F08AE090E00E945B28803829F08AE0CC
:1031800090E060E40E9469288AE290E00E945B2857
:10319000823028F08AE290E061E00E946928089578
:1031A0000E9457188FEF9FEF90936F0380936E03E9
:1031B000909308038093070310920A0381E090E044
:1031C0000E945B280E94FB090E94ED120E94160AD1
:1031D0000E94E8120E944B0A84E090E00E945B2863
:1031E0008093180310921F0310921E03E9E4F3E08A
:1031F0008CE091E0918380837E9611821082109200
:103200008503109215031092870310928603109283
:103210001C0388E08093720384E690E090936C0333
:1032200080936B03A8E3B3E0FD0111821082329614
:10323000808181608083FD01339611821082159612
:103240008C9181608C931092110310921003109254
:1032500009031092690310927F038AE090E00E94B4
:103260005B2880931203109248031092140310926B
:10327000130310927E0310921D0308950E944527A8
:1032800082E794E00E9464278DE990E00E94542731
:103290000895DF92EF92FF920F931F93DF93CF93E6
:1032A00000D00F92CDB7DEB71B821A8220E00F2E1E
:1032B000F9E8EF2EF4E0FF2EF02DDD24D3942EC09C
:1032C0008091F402F701E80FF11D908199838F5FDF
:1032D0008093F4028981803209F189818033C8F0BA
:1032E00089818A33B0F40A811B8189810E94EE0EA4
:1032F0009801220F331F000F111F000F111F000F25
:10330000111F200F311F280F311D3B832A832D2DC4
:1033100005C082EA90E00E94542742C08091F402E6
:10332000F701E80FF11D80818D3051F6222329F439
:103330008FE094E00E94642733C08A819B81815092
:10334000924028F082E394E00E94642729C00E9402
:1033500045276A817B817695762F662777956795D5
:1033600089E893E040E850E00E942B088823A1F010
:1033700000E010E00F2EF9E8EF2EF3E0FF2EF02D25
:10338000F701E00FF11F80810E944C270F5F1F4F54
:1033900000381105A9F704C083E991E00E94542781
:1033A0000F900F900F90CF91DF911F910F91FF9091
:1033B000EF90DF9008954F925F926F927F928F927D
:1033C0009F92AF92BF92CF92DF92EF92FF920F93B4
:1033D0001F93DF93CF93CDB7DEB7A2970FB6F894C4
:1033E000DEBF0FBECDBFEE24FF2420E030E00F2E65
:1033F000F1E94F2EF3E05F2EF02D00E00F2EF3E009
:10340000CF2EDD24F02DCC0EDD1EC6017C2C692EC6
:103410000F2EF9E88F2EF4E09F2EF02DC901880FB2
:10342000991FF201E80FF91F25913491A901F901C3
:103430008491882311F4102F0FC0102FFA0184916A
:10344000F601E10FF11D80831F5F2F5F3F4FA90140
:10345000F9018491882391F78091F4026091F5023B
:103460009401280F311DC901702F472D562D212F92
:10347000302F0E9435285C018091F4026091F502A2
:10348000F401E80FF11DCF01702F472D562D212F8C
:10349000302F0E943528892BB9F0C50189589440F6
:1034A0009A8389832091F40289819A81280F210FC0
:1034B0002093F4028091F50229813A81811B821BBD
:1034C0008093F5028E2D0AC00894E11CF11C97012F
:1034D000FFE2EF16F10409F0A1CF8FEFA2960FB62D
:1034E000F894DEBF0FBECDBFCF91DF911F910F913A
:1034F000FF90EF90DF90CF90BF90AF909F908F9014
:103500007F906F905F904F900895EAE2F0E08081A5
:103510008F7780830E94DB19E82FF0E0EF32F1050E
:1035200008F095C0E65DFF4FEE0FFF1F0590F49188
:10353000E02D09940E948A148EC00E94DA128BC07A
:103540000E943E1988C00E94991385C00E94CC1227
:1035500082C00E94DF117FC00E9449197CC00E9476
:10356000BA1779C00E94DA1176C00E94B51773C0ED
:103570000E94D51170C00E94B0176DC00E94D0117A
:103580006AC00E94AB1767C00E94CB1164C00E9442
:10359000A61761C00E94C6115EC00E94A1175BC041
:1035A0000E94C11158C00E949C1755C00E94BC11B6
:1035B00052C00E9497174FC00E94B7114CC00E9482
:1035C000921749C00E94B21146C00E948D1743C095
:1035D0000E94AD1140C00E9488173DC00E94A811F2
:1035E0003AC00E94831737C00E94A31134C00E94C2
:1035F0000F1131C00E9408112EC00E9483142BC0ED
:103600000E94BE1228C00E947C1425C00E94B012E5
:1036100022C00E9424131FC00E949A121CC00E9444
:10362000751419C00E948C1216C00E946E1413C02B
:103630000E947E1210C00E944E180DC00E94FA1007
:103640000AC00E94451807C00E94EC1004C08FEE0B
:1036500093E00E946427109248030E94A1270895D6
:103660002F923F924F925F926F927F928F929F9292
:10367000AF92BF92CF92DF92EF92FF920F931F9380
:10368000DF93CF9300D0CDB7DEB785E089830E946A
:10369000A0040E9402058BE090E00E945B28882332
:1036A00039F08BE090E00E945B288F3F09F00DC15C
:1036B00010920B038DEA91E00E94DF0480E061E04C
:1036C0000E94EF048DEB91E00E94DF040F2EFBE0DF
:1036D000EF2EF0E0FF2EF02DCC24DD240F2EF7EF9F
:1036E000AF2EF2E0BF2EF02D0F2EF9ED6F2EF1E090
:1036F0007F2EF02D0F2EFEEC4F2EF1E05F2EF02DE1
:103700000F2EFDEA2F2EF1E03F2EF02D0F2EFDEBB8
:103710008F2EF1E09F2EF02D70C0809148038823FA
:1037200041F480910B03882321F48091FF028823C8
:10373000A1F380914803882311F00E94851A80919B
:10374000FF02813031F1823009F04DC00E94A004A7
:103750000E940205C2010E94DF04D0921703C092AA
:103760001603809116039091170380579741C8F371
:103770000E94A0040E940205C1010E94DF0480E0B3
:1037800061E00E94EF04C4010E94DF041092FF0276
:103790002AC060910003C7010E946928C601F50193
:1037A000E80FF91F60818C010F5F1F4FC701800F69
:1037B000911F0E946928C8010630110581F70E94F7
:1037C000A0040E940205C3010E94DF04D0921703E7
:1037D000C09216038091160390911703805797416A
:1037E000C8F31092FF0280910B038530B1F08091F5
:1037F0000B03853011F010920B0380910B03853081
:1038000031F0C7010E945B28882309F486CFC701E5
:103810000E945B288F3F09F480CF80910B03853095
:1038200009F03EC010920B030E94A0040E94020502
:103830008AEE91E00E94DF048981882359F180910A
:103840000B03882339F51092170310921603809109
:103850001603909117038057974120F480910B0332
:103860008823A9F380910B038823A1F48EE061E003
:103870000E94EF04898181508983898160E00E94E0
:10388000E30C0E94DF048981882321F080910B03DF
:103890008823C9F280910B03853011F40E94C7166A
:1038A00010921F0310921E03EBE3F0E08081816011
:1038B000808384E090E00E945B288093180310923C
:1038C0000B0310926D031092FF028BE090E00E94B8
:1038D0005B28882309F434C18BE090E00E945B28C8
:1038E0008F3F09F42DC11A820BE012E00F2EFDE28A
:1038F000CF2EF2E0DF2EF02D992493940F2EF6E2D6
:10390000AF2EF2E0BF2EF02D0F2EFEECEF2EF1E0E9
:10391000FF2EF02D5FC00E94A0040E940205C80186
:103920000E94DF0480914803882321F48091FF02E4
:103930008823C1F380914803882311F00E94851ADF
:103940008091FF028130C1F0823009F043C00E94B3
:10395000A0040E940205C7010E94DF041092170311
:103960001092160380911603909117038057974188
:10397000C8F31092FF022EC00E94F2128823B1F009
:103980009A820E94A0040E940205C5010E94DF04E1
:10399000109217031092160380911603909117034B
:1039A00080579741C8F31092FF0214C00E94A004F0
:1039B0000E940205C6010E94DF04109217031092B4
:1039C0001603809116039091170380579741C8F30F
:1039D0001092FF028A81882309F49DCF0E94A004DF
:1039E0000E94020510920B0310926D031092FF02C9
:1039F00089E392E00E94DF048981882399F1809114
:103A0000FF02882379F580910B03882359F51092E2
:103A10001703109216038091160390911703805795
:103A2000974120F480910B038823A9F380910B0325
:103A30008823C1F48EE061E00E94EF048981815007
:103A40008983898160E00E94E30C0E94DF04898100
:103A5000882341F08091FF02882321F480910B0399
:103A60008823A9F28091FF02813049F1823009F068
:103A700054C00E94A0040E9402058EEC91E00E94B6
:103A8000DF04109217031092160380911603909191
:103A9000170380579741C8F30E94A0040E940205B3
:103AA00086E592E00E94DF0480E061E00E94EF047E
:103AB00083E692E00E94DF041092FF022EC00E9473
:103AC000F212882329F00E94C7161092FF0225C027
:103AD0000E94A0040E9402058DE292E00E94DF0491
:103AE00010921703109216038091160390911703FA
:103AF00080579741C8F30E94A0040E94020586E502
:103B000092E00E94DF0480E061E00E94EF0483E61F
:103B100092E00E94DF041092FF0210921F031092A5
:103B20001E03EBE3F0E080818160808384E090E01D
:103B30000E945B288093180310920B0310926D0370
:103B40000F900F90CF91DF911F910F91FF90EF9009
:103B5000DF90CF90BF90AF909F908F907F906F90AD
:103B60005F904F903F902F9008952F923F924F92E9
:103B70005F926F927F928F929F92AF92BF92CF92FD
:103B8000DF92EF92FF920F931F93DF93CF9300D0BA
:103B900000D000D0CDB7DEB70E9439090E949B0942
:103BA0000E94A5090E9407060E94010C0E94F40BC6
:103BB0000E94D0180E94C2050E94A0040E94EC2519
:103BC0000E949A0E0E943327EAE2F0E0808180682A
:103BD00080838081806480830E94020780E69AEE61
:103BE0000197F1F780E792E00E94DF048CE792E012
:103BF0000E94DF0478948FEF809380031092170364
:103C0000109216038091160390911703885E9340DB
:103C1000C8F38FEF8093810310921703109216035D
:103C20008091160390911703885E9340C8F38FEF3D
:103C3000809382031092170310921603809116034B
:103C400090911703885E9340C8F38FEF80938303AE
:103C50001092170310921603809116039091170388
:103C6000885E9340C8F38FEF809388031092170308
:103C7000109216038091160390911703885E93406B
:103C8000C8F3EBE3F0E0808181608083109217033A
:103C9000109216038091160390911703885E93404B
:103CA000C8F3E2E3F0E08081806180831092170323
:103CB000109216038091160390911703885E93402B
:103CC000C8F3E5E3F0E080818062808310921703FF
:103CD000109216038091160390911703885E93400B
:103CE000C8F30E941B0510921703109216038091CF
:103CF000160390911703885E9340C8F30E94230532
:103D000010921703109216038091160390911703D7
:103D1000885E9340C8F310928003109217031092AC
:103D200016038091160390911703885E9340C8F3A1
:103D300010928103109217031092160380911603BC
:103D400090911703885E9340C8F3109282031092FB
:103D50001703109216038091160390911703885E43
:103D60009340C8F310928303109217031092160326
:103D70008091160390911703885E9340C8F3E5E3A2
:103D8000F0E080818F7D80831092170310921603DC
:103D90008091160390911703885E9340C8F3EBE37C
:103DA000F0E080818E7F80831092170310921603BB
:103DB0008091160390911703885E9340C8F3E2E365
:103DC000F0E080818F7E808310921703109216039B
:103DD0008091160390911703885E9340C8F3109268
:103DE0001703109216038091160390911703885EB3
:103DF0009340C8F3809172030E942E0C88EE93E0EA
:103E000063E070E040E80E94620C8CE892E00E945F
:103E1000542785E992E00E94542782EF90E00E94A7
:103E2000642783E091E00E9464270E94301B84E1B4
:103E300090E00E94632864E670E00E940E288AE504
:103E400090E09C01629FC001639F900D729F900D56
:103E50001124909374038093730310920B030E94B8
:103E60002E0E109217031092160380911603909154
:103E70001703885E9340C8F30F2EFFE9AF2EF2E0E0
:103E8000BF2EF02D0F2EF0EB8F2EF2E09F2EF02D97
:103E90000F2EF4E16F2EF0E07F2EF02D0F2EF3E0C9
:103EA0004F2EF0E05F2EF02D0F2EF5E0CF2EF0E03C
:103EB000DF2EF02D0F2EF0E32F2EF3E03F2EF02D0E
:103EC000C10101969E838D830F2EF2E3EF2EFF2416
:103ED000F02D8091130390911403892B11F40E940B
:103EE000441080910903882351F10E94A004C50168
:103EF0000E94DF0480E061E00E94EF04C4010E94A0
:103F0000DF0480910903882391F088EE93E063E059
:103F100070E040E80E94620C84EF91E063E070E0A2
:103F200040E80E94620C80910903882371F7109287
:103F30006D031092700310920B030E942E0E80915D
:103F40006D038823C1F18130A1F580911E0390910A
:103F50001F03892B19F180911E0390911F03019774
:103F600090931F0380931E03809113039091140379
:103F7000029750F081E090E0909314038093130334
:103F800080917E038823E1F7C3010E946328909308
:103F90001403809313030E94EB0908C0809113035C
:103FA00090911403892B11F40E94D10F10926D038C
:103FB00002C010926D0380917003882309F443C0FE
:103FC000813009F03EC0809118038823B9F18091B7
:103FD000130390911403892B89F50E940A10809194
:103FE0001803815080931803C2010E945B2890E05F
:103FF00090931F0380931E030E948A0E0E94780EE6
:1040000000E010E00DC0109217031092160380918B
:1040100016039091170380549F41C8F30F5F1F4F01
:10402000C6010E945B2890E00817190764F30E94FC
:10403000F50FEBE3F0E080818E7F808310927003B8
:1040400002C01092700380911C03813021F08230F5
:1040500009F07AC162C110921C0380E00E94D70B64
:10406000882309F071C1F1019081AD81BE818C91ED
:10407000880F880F82958F70E5E1F7E0E80FF11D5A
:10408000E4918C919983EB838295869586958370D4
:104090008A83A7E7B3E0FE01319683E001900D9299
:1040A0008150E1F7E8E7F3E010810E94ED12181764
:1040B00089F48AE290E00E945B28882309F444C1D5
:1040C000A7E7B3E01C9181E090E00E945B281817FD
:1040D00009F43AC1F7018081806180830E941B0549
:1040E0000E94B70E0E941F10D7018C918F7E8C9377
:1040F000E9E7F3E0808120916B0330916C0390E05D
:10410000821793078CF580916B0390916C0320814B
:10411000821B910990936C0380936B0320916B0336
:1041200030916C03C901880F991F220F331F220F92
:10413000331F220F331F820F931F6DE770E00E9421
:1041400022286093720380917203882309F0DCC0F7
:1041500080916B0390916C03181619060CF0D4C073
:1041600081E080937203D0C01092720310926C03AE
:1041700010926B03D7018C9180618C9380917203B4
:104180000E942E0C0E94660E1C828BE090E00E9422
:104190005B28882309F480C08BE090E00E945B28B4
:1041A0008F3F09F479C010920B0310926D031092A7
:1041B000FF020E94230510E10E94A0040E94020554
:1041C00081EC92E00E94DF0480E061E00E94EF0455
:1041D0008FEC92E00E94DF040FC0F70180818127FD
:1041E000808310921703109216038091160390910A
:1041F0001703885E9340C8F38091FF02882369F318
:104200008091FF028130C1F08230B1F60E94A0049B
:104210000E9402058EEC91E00E94DF0410921703C9
:1042200010921603809116039091170380579741BF
:10423000C8F31092FF02C0CF0E94F2128823B1F09F
:104240000E94A0040E94020586E292E00E94DF0420
:104250001092170310921603809116039091170382
:1042600080579741C8F31092FF0242C00E94A004F9
:104270000E9402058DE292E00E94DF041092170373
:10428000109216038091160390911703805797415F
:10429000C8F31092FF0290CF0E9423050E942E0EB9
:1042A00040E1E6E3F0E021C0D7018C9184278C93B4
:1042B0001092170310921603809116039091170322
:1042C000885E9340C8F3808190E09C012470307038
:1042D00082FF04C02430310539F404C08C818F5F23
:1042E0008C8303C01C8201C01C828C818431E0F26B
:1042F000F70180818F7E80830E94D01810920B037B
:1043000010926D031092FF02809172030E942E0C96
:104310000E9423050E942E0E17C0EBE3F0E080817F
:104320008160808310921703109216038091160308
:1043300090911703805A9F40C8F3EBE3F0E080812F
:104340008E7F808310921C0380910B038330F9F0E1
:10435000843028F4813041F0823011F515C084306A
:10436000C9F08530E9F419C080917F03882319F0E2
:10437000813039F404C081E080937F0302C0109241
:104380007F0310920B030EC010920B030BC0109210
:104390000B0308C010920B0305C010920B0302C060
:1043A00010920B0380916903882309F492CD0E9437
:1043B000780E809169038150809369038ACD1F92A2
:1043C0000F920FB60F9211242F938F939F93EF9319
:1043D000FF9380B384708093EF028091EF02882373
:1043E00051F480910C0390910D03019690930D036D
:1043F00080930C0340C080917C0390917D030196D3
:1044000090937D0380937C0380911503882309F1A9
:1044100080917C0390917D0389519240D0F010925D
:10442000150380918603909187030D9720F081E01A
:1044300080931C0303C082E080931C0310921D0331
:1044400080910A03882329F4E9E5F0E080818F77E1
:10445000808380917C0390917D038951924058F034
:1044600080910A03882339F410921D03E9E5F0E0F6
:1044700080818F77808380910A03813009F06EC03C
:1044800080910E0390910F03892B89F0E5E3F0E012
:104490009081809112038927808380910E039091EF
:1044A0000F03019790930F0380930E0357C0E5E32A
:1044B000F0E080818F7B808380818F778083809103
:1044C0007503909176031816190684F480818F7B0A
:1044D000808380818F7780838091750390917603AC
:1044E0000197909376038093750338C0E09185031C
:1044F000F0E0EE0FFF1FE75BFC4F80819181892B7D
:10450000C1F020918503E22FF0E0EE0FFF1FE75B83
:10451000FC4F8081918190930F0380930E032F5F56
:104520002093850383E490E0909376038093750352
:1045300015C010920A03E5E3F0E080818F7D80834F
:10454000809169038F5F8093690380911D038823A5
:1045500029F4E9E5F0E080818F778083FF91EF9186
:104560009F918F912F910F900FBE0F901F901895D4
:10457000DF93CF9300D0CDB7DEB780917E03882341
:1045800049F482E190E00E945B2890E00E94B90823
:1045900080937E038091130390911403019739F463
:1045A000CE0101960E94200910927E0304C0CE0124
:1045B00001960E940E0920911303309114038091FB
:1045C0007303909174032817390781F50E945D0CDD
:1045D000813061F5B29B02C01A8202C081E08A83F9
:1045E0008A81813019F5809172038823F9F08091D6
:1045F0001E0390911F03892BC9F080911E03909197
:104600001F03019790931F0380931E030E94EB09E1
:10461000CE0101960E94200910927E0384E190E071
:104620000E946328909314038093130389810F9051
:104630000F90CF91DF9108951F920F920FB60F92B6
:1046400011242F933F934F935F936F937F938F9397
:104650009F93AF93BF93EF93FF93DF93CF930F920B
:10466000CDB7DEB7E9E5F0E080818F7E8083789476
:1046700080911E0390911F03892BC9F08091130331
:1046800090911403892B99F00E94B8228CBF8091DD
:10469000130390911403019709F41CBE8091130336
:1046A00090911403019790931403809313038091C6
:1046B0001E0390911F03892BF1F4EBE3F0E080815E
:1046C000816080838091130390911403892B99F06A
:1046D0000E94B8228CBF809113039091140301971C
:1046E00009F41CBE809113039091140301979093D9
:1046F0001403809313038091ED029091EE022091B8
:10470000ED023091EE0264E670E00E940E2884E62D
:1047100090E0AC01649FC001659F900D749F900D67
:1047200011248217930709F0ADC080917A0390910C
:104730007B03019690937B0380937A0380916D03B2
:10474000882309F049C0B29B02C0198202C081E0EF
:1047500089838981882319F08130D1F51AC080912D
:10476000380390913903049750F0E8E3F3E01182A5
:104770001082329680818E7F808381E02BC0E8E3B7
:10478000F3E011821082329680818160808380E024
:1047900021C08091380390913903049750F0E8E3E9
:1047A000F3E011821082329680818E7F808381E0D7
:1047B00011C0A8E3B3E0FD018191919120812170A6
:1047C000820F911D11969C938E9380916D0302C070
:1047D00080916D0380936D0380917003882309F0AD
:1047E00049C0B09B02C0198202C081E089838981DF
:1047F000882319F08130D1F51AC080913B03909144
:104800003C03049750F0EBE3F3E011821082329600
:1048100080818E7F808381E02BC0EBE3F3E0118207
:104820001082329680818160808380E021C08091F7
:104830003B0390913C03049750F0EBE3F3E01182CB
:104840001082329680818E7F808381E011C0ABE33D
:10485000B3E0FD018191919120812170820F911D22
:1048600011969C938E938091700302C08091700387
:104870008093700380910B03882321F40E944F26BC
:1048800080930B038091ED029091EE02019690933C
:10489000EE028093ED028091ED029091EE02895E2E
:1048A000934008F454C01092EE021092ED029091E1
:1048B00080038091DE02892331F4E5E3F0E080811A
:1048C000877F808305C0E5E3F0E080818860808396
:1048D000909181038091DE02892331F4E5E3F0E0D9
:1048E00080818F7E808305C0E5E3F0E08081806178
:1048F0008083909182038091DE02892331F4E5E385
:10490000F0E080818B7F808305C0E5E3F0E080816B
:1049100084608083909183038091DE02892331F447
:10492000E2E3F0E080818F77808305C0E2E3F0E08E
:104930008081806880838091DE02880F8093DE0210
:104940008091DE02882319F481E08093DE02809159
:104950007103882329F080916A038CBF1092710340
:1049600082991BC08091100390911103805A9F403F
:1049700048F48091100390911103019690931103D4
:10498000809310038091100390911103805A9F40EF
:1049900070F081E0809309030AC010921103109215
:1049A000100380910903882311F01092090380916C
:1049B00016039091170301969093170380931603A3
:1049C000F894E9E5F0E08081806180830F90CF91D9
:1049D000DF91FF91EF91BF91AF919F918F917F9167
:1049E0006F915F914F913F912F910F900FBE0F905C
:1049F0001F9018951F920F920FB60F9211242F93AC
:104A00003F934F935F936F937F938F939F93AF9356
:104A1000BF93EF93FF93DF93CF930F92CDB7DEB7A2
:104A200081E080931B03198289818F5F89830E94B3
:104A300084060F90CF91DF91FF91EF91BF91AF91DD
:104A40009F918F917F916F915F914F913F912F91A6
:104A50000F900FBE0F901F9018951F920F920FB6D8
:104A60000F9211242F933F934F935F936F937F93F4
:104A70008F939F93AF93BF93EF93FF93E9E5F0E09C
:104A800080818068808381E080931D0305B600FCEF
:104A900028C0E5E5F0E08081816080838091150386
:104AA0008823B1F080917C0390917D038935910535
:104AB00030F480917C0390917D038E9748F410929E
:104AC0001503109287031092860382E080931C03E3
:104AD00010920D0310920C0310927D0310927C0330
:104AE0006AC0E5E5F0E080818E7F808380911503C8
:104AF000882309F443C080910C0390910D038935FC
:104B00009105A8F480910C0390910D038E9778F095
:104B100080918603909187039C012F5F3F4F3093D4
:104B200087032093860360E00E94B8093CC080910F
:104B30000C0390910D038C399105B0F480910C0316
:104B400090910D038137910578F0809186039091C3
:104B500087039C012F5F3F4F309387032093860389
:104B600061E00E94B8091FC01092150310928703DC
:104B70001092860382E080931C0315C080910C0381
:104B800090910D038252914070F480910C039091AA
:104B90000D03873F910538F010928703109286032A
:104BA00081E08093150310920D0310920C03109274
:104BB0007D0310927C03FF91EF91BF91AF919F9184
:104BC0008F917F916F915F914F913F912F910F90B6
:104BD0000FBE0F901F901895AAE3B0E08C91877FCD
:104BE0008C93EBE3F0E08081886080838C918B7FF5
:104BF0008C938081846080838C918F7D8C93808165
:104C0000806280838C918F7B8C9380818064808391
:104C10008C918F7E8C93808180618083AFE1B3E043
:104C2000FD01118210823296808181608083FD01B6
:104C3000339611821082FD013596808181608083D8
:104C4000FD01369611821082FD01389680818160C7
:104C50008083FD01399611821082FD013B9680818F
:104C600081608083FD013C96118210821E968C919A
:104C700081608C930895E9E3F0E0808186958695C4
:104C800086958095982F9170808182FF9260CD9B50
:104C90009460CE9B9860CC9B9061892F08950E9470
:104CA0003B26823091F1833038F4882309F4A9C07F
:104CB000813009F0AAC00AC0883009F464C080318C
:104CC00009F480C0843009F0A0C03EC080911F0369
:104CD00090912003049750F0EFE1F3E011821082ED
:104CE000329680818E7F808381E00895AFE1B3E0CA
:104CF000FD018191919120812170820F911D11966A
:104D00009C938E9380910B03089580912203909140
:104D10002303049750F0E2E2F3E01182108232960E
:104D200080818E7F808382E00895A2E2B3E0FD015E
:104D30008191919120812170820F911D11969C93F8
:104D40008E9380910B030895809125039091260303
:104D5000049750F0E5E2F3E01182108232968081F0
:104D60008E7F808383E00895A5E2B3E0FD01819109
:104D7000919120812170820F911D11969C938E93A9
:104D800080910B0308958091280390912903049743
:104D900050F0E8E2F3E011821082329680818E7F3B
:104DA000808384E00895A8E2B3E0FD0181919191B0
:104DB00020812170820F911D11969C938E9380917A
:104DC0000B03089580912B0390912C03049750F0CE
:104DD000EBE2F3E011821082329680818E7F808335
:104DE00085E00895ABE2B3E0FD01819191912081CE
:104DF0002170820F911D11969C938E9380910B03CD
:104E000008950E94EC2580E00895AFE1B3E0FD0134
:104E100011821082329680818E7F8083FD013396CD
:104E200011821082FD01359680818E7F8083FD0185
:104E3000369611821082FD01389680818E7F8083A4
:104E4000FD01399611821082FD013B9680818E7F93
:104E50008083FD013C96118210821E968C918E7F7C
:104E60008C9380E00895A0E4B0E01C9287E689B9B5
:104E7000EBE2F0E080818D7F808388E98AB986E863
:104E80008C9308958091F20208951092F00210928E
:104E9000F1021092F2020895982FEBE2F0E0808187
:104EA00085FFFDCF9CB90895CF93DF93FC018081EE
:104EB000882339F0EF010E944C27898121968823AD
:104EC000D1F7DF91CF910895CF93DF93FC018491C7
:104ED000882349F0EF0121960E944C27FE0121967C
:104EE00084918823C9F7DF91CF9108951F920F9283
:104EF0000FB60F9211248F93EF93FF938091F202DC
:104F00008823A1F08091F102E9E8F3E0E80FF11DB8
:104F100080818CB98091F20281508093F20280915D
:104F2000F1028F5F8093F1028091F102FF91EF9186
:104F30008F910F900FBE0F901F9018958091F502E2
:104F40000895EAE2F0E080818F7780831092F30287
:104F50001092F4021092F502808180688083089597
:104F60008091F502882311F4E0E013C08091F402EF
:104F7000E9E8F4E0E80FF11DE0818091F50281504D
:104F80008093F5028091F4028F5F8093F402809108
:104F9000F4028E2F08951F920F920FB60F921124D4
:104FA0008F939F93AF93BF93EF93FF938091F502FD
:104FB0008091F3029CB1E9E8F4E0DF01A80FB11D94
:104FC0009C938091F302E80FF11D80818D3019F4DC
:104FD00081E0809348038091F3028F5F8093F30216
:104FE0008091F3028091F5028F5F8093F502FF912B
:104FF000EF91BF91AF919F918F910F900FBE0F9046
:105000001F901895991B79E004C0991F961708F016
:10501000961B881F7A95C9F780950895AA1BBB1B1C
:1050200051E107C0AA1FBB1FA617B70710F0A61BA8
:10503000B70B881F991F5A95A9F780959095BC01C9
:10504000CD01089597FB092E07260AD077FD04D0DD
:10505000E5DF06D000201AF4709561957F4F089522
:10506000F6F7909581959F4F08952115310511F11F
:105070001F930F93240F351F680F791FFA011191A9
:10508000AF01DC01A617B70780F40D910117D1F726
:10509000CD01FA01E217F30750F4A617B70728F479
:1050A0000D9101900015B1F3ECCF81E090E00197F4
:1050B0000F911F910895E199FECF9FBB8EBBE09A9F
:1050C00099278DB30895A8E1B0E042E050E00C9438
:1050D0007D28262FE199FECF9FBB8EBB2DBB0FB63F
:1050E000F894E29AE19A0FBE019608950E94692809
:1050F000272F0C946A28DC01CB01FC01E199FECF3B
:1051000006C0FFBBEEBBE09A31960DB20D92415046
:0A5110005040B8F70895F894FFCF5F
:10511A00E6E8E7EDFC3A2000252000EFE0F2F03A5D
:10512A002000EC3A200020002520202000D3F0EEB9
:10513A00ED20002520EDE0EDE5F100E8E32E20006A
:10514A0020EAEEEC2E2000202020002C004F4B0DF0
:10515A000A004552524F520A0D000D0A4F4B0D0AD2
:10516A00004552524F523A656570726F6D207772E0
:10517A00697465206572726F720D0A004552524F4A
:10518A00520D0A0030003100C4F0F3E6E5F1F2E214
:10519A002E20EEE3EEEDFC3A00C4E02000CDE5F26D
:1051AA000020F6E5ED2EEAED2E2D4F4B00D1EEF55F
:1051BA00F0E0EDE5EDE8E52E2E2E00CCEEF9EDEE71
:1051CA00F1F2FC20C8CA20E4EBFF00F3EBE8F6FB9F
:1051DA0000EFEEECE5F90020F6E5EDF2F02EEAED4F
:1051EA002E2D4F4B00C8E4E5EDF22E20E8E3F0EE59
:1051FA00EAE03A00C8E4E5EDF22E20EAEEECE0ED52
:10520A00E4FB3A00CDE0EDEEF1E8ECFBE920F3F047
:10521A00EEED3A00C5ECEAEEF1F2FC20ECE0E3E058
:10522A00E7E8EDE03A00CCE0E3E0E7E8EDEEE23A69
:10523A0000C2F0E5ECFF20EFE5F0E5E7E0F0FFE47F
:10524A00E03A004552524F523A656570726F6D20CE
:10525A0072656164206572726F720D0A00C7E0EFB1
:10526A00E8F1FC20EAEBFEF7E020D2CC00D6E5ED2F
:10527A00F2F02EEAED2E2DEEF2ECE5EDE000CEF89E
:10528A00E8E1EAE02043524300CAEBFEF720D2CC21
:10529A0020E7E0EFE8F1E0ED2100C4EBFF20EDE0CC
:1052AA00F1F2F0EEE5EA20E6ECE80AF6E5EDF2F0D6
:1052BA002E20EAEDEEEFEAF3203500C4EBFF20E002
:1052CA00EAF2E8E2E0F6E8E80AEFF0E8EBEEE6E810
:1052DA0020EAEBFEF700D3E4E0F7E82100CDE52071
:1052EA00F2EEF220EAEBFEF700C4EBFF20EDE0F16C
:1052FA00F2F0EEE5EA0AEFF0E8EBEEE6E820EAEB98
:10530A00FEF720203500C4EBFF20EDE0F1F2F0EECD
:10531A00E5EA00EFF0E8EBEEE6E820EAEBFEF7005C
:10532A004C5441736365746963200A007777772E5A
:10533A006F70656E2D7461672E72750048656C6CAE
:10534A006F210A0D00CFF0E8E2E5F2210A0D00CE46
:10535A00F8E8E1EAE020E4E0F2F7E8EAEEE22C001D
:10536A00CFF0EEE2E5F0FC20EFEEE2FFE7EAF32110
:10537A0000C4EBFF20E0EAF2E8E2E0F6E8E800EF3A
:10538A00F0E8EBEEE6E8F2E520EAEBFEF7000100D2
:00000001FF
