:100000000C946B140C9480160C9488140C948A1421
:100010000C9488140C9488140C9421150C94881456
:100020000C9488140C9488140C9488140C948814E0
:100030000C9488140C9488140C9488140C948814D0
:100040000C9488140C9488140C9488140C948814C0
:100050000C94881401020405070A0F1114191E23B9
:1000600028324B64816A87968B97787A8F9A9A6741
:10007000517C9E2F6D5BE864045C0086F3FDDB76AB
:100080003BD6B4649974EEA39AFFA6694CBBFFEA11
:10009000FFA91B6A99D7B176B3ABFFD64768254B4A
:1000A00080846B8C4947683D46775C000C002DE4EA
:1000B000D56695F36728C6FC6B47AC657878729B6C
:1000C000FFF3FFC0D3EBDDA9756A07729C31030310
:1000D00015283CB15E7C380004195492F23900C3F3
:1000E000D34523001F210006190200001368204693
:1000F0000E00710004000800254F48D6ACA1BD17C2
:100100000014194F4AC2FFD0D7A2ADCB1C4C3A26DF
:100110003C162600523B000C4D510064C62C00E0FA
:10012000970003C8EADCFFECFCFF6F34ACEECB04B5
:1001300035052B009CD5A83C4E0092E6B98D30AB1E
:1001400077A1AD8C1F00A8A31EFFCFC8D1FFC6B5F5
:10015000A0FA6B96CCDED4C1FF83D3ECC495D5D77F
:10016000FFB3FEFFFCFFFCF467396F401136A46E4D
:100170006ACEFEFFF9FFF8FFF8FFF8FFDC67E4FB4B
:10018000EFFFF6DEECDDDCFFF2AD3E73675C35764B
:10019000C983DFFFC4AA8DEDFFF8FFDFBFFFB10009
:1001A000000C130C003E3A1D0029B77C57319C43CC
:1001B000A7E1C3AE28991B00193D4B00175F97615B
:1001C0007C5BD577000700040002000003001819CB
:1001D0000004001002102A6A695D409C7F10000133
:1001E00000000200444B05042873972C00001447BC
:1001F0001E060009002117061F01020002000C0064
:1002000013009291AE9D98B98BF06E00050002002C
:10021000052800022A7C7F8D7F816C42110003003B
:100220000200020026A3ED65AD811E09000500064F
:10023000004330005EE5D69F6DE0BB302E96F8702F
:100240006A7FBCBFEFBB09AFEF400023150400B0CD
:10025000F8590D64FFFDFFE7FFCB9AD38C7ABB34CE
:10026000431F004608010A4B33B8BDD1E7907C7F9D
:100270008729C27155AF483238506E485683AA6DEF
:100280000A1E66190002000200040D214E4B405662
:100290004381B4AD0295B7977CCBD59593D9AA2964
:1002A0006C4B2E000900000E1C000867F0A2B2DEA5
:1002B0007F7259230003033F45296E8C51566736E0
:1002C000555B452823205B797FA32E160028380D27
:1002D000404F754B349D6F2D5E96324FB0CFB26F4D
:1002E000A5500406719363B7FFFFFEFFFCFFF6E81D
:1002F000C88A746013010014021E4300050A000836
:10030000000A2D63787DFFDEE1FB56D17F1759840B
:10031000DB5C9CCB78C196AA9D5DFDCFA3C7123252
:100320005435796B5E1B439D75643A00701D77DA16
:100330002063314CEC9B3F12007B41648405010437
:1003400073380D414539999ED0FFFFEED0DA828F88
:10035000B4A6A8B39FFEFBFEE8F3D7CABA787E988E
:1003600064649B97605B7D8959003D6C6225341302
:100370000019170200063A515056315254669C5FDC
:100380003E5F6C744E9D92461E544F000A0020350D
:100390004A362F2F6F954B3F514160823E341507EF
:1003A0000B0007081539002C2A007A97DBB9841D49
:1003B000006BB1569599493518611D0D291F002014
:1003C000467C1F3D20140C0004000200002A756FBB
:1003D000DAFBB88978B1C07C5C61AD844E0A003725
:1003E0003B0009004F9F957091D2D7F29A92407DC1
:1003F000C12B00050001000053882D7468160031E0
:10040000BDFFC1D37D020C0060007B8175B6AED00C
:100410009C51223F7BAC767EA48C59837FAA937B30
:1004200075442F5A5F130A1E05000B000400000CD0
:10043000001F63080D445F7B796E633A34311F50AF
:1004400053411C273E3A507160458187744259439D
:100450003152808A8E500C634A5E391C1E5D5D23CA
:10046000172E2E242D0E0302423E8888698D706857
:100470005C5B71B1A7B2BE939FA0A185A29A736C79
:100480008699634958683A4A59696E6A766E685225
:100490005F5D585F75705D739987847747474264E5
:1004A0007A484A7B7A6E656A768DA68A8C8A957EB2
:1004B00075644ACCFFFEB89E6766BF7D71451B2000
:1004C000444A909F5B45364D3228242D3024422EDD
:1004D000317C71868A6A6871808167698F87543A36
:1004E0004E45455B6955908242234659493E0B660D
:1004F000968056395A366B6E285E9BA2848B8499FF
:100500009495A475606A532B1126381B285A908243
:1005100077696C9C8583512B4B6D798A564970376E
:10052000417281678B9CADCBDCFFE39EE3D2A6CA10
:10053000937F75A1B890787784806E838297AB8A19
:100540008FB5D1E6DDD4C3AE9F835C6D6E57564E3A
:10055000787B81707E8A7552625730313E4F3759B1
:1005600050391B292A64746F5974CEBDA67B757AE5
:100570008797B3A599C2E1A7A6BE9D7C9A8A74917C
:100580009B9097BBAC9B9EB88B766A747F6C839074
:10059000978484B5AFACA9816C74835D3F392E24F8
:1005A000374E5B82929EB893C1CCB3A9A8D5BFCF7A
:1005B000B48078747A6C564A605D4D806B595A6786
:1005C000825C62755C787F83728B9F83A9D6FCBC4A
:1005D0009AA0B678656F807B58758EABCDE4BDBEB2
:1005E000DFE19A8BA58483C2B7AAA09E998B7A7EFD
:1005F0009997A671567E95866F727B6F694E4A7C7D
:10060000998D605D6E615245676D2F5A877D8A8D29
:1006100078787D6C716C6F666A8C9E757A8A9F970C
:100620008A8A79939D9F6A80AAA7B28F8A877C8CD9
:10063000986E6A897A885455849187848E859791BB
:100640007B917A657D76766C8A8D875867A8979BB3
:100650008C79878F89846B5F92A982626860517BF5
:100660007A5A536F7C6959596670737A6862747EDE
:100670009C7C648488818E978C98958A94ADA99F80
:100680008E7C7A64676E5F5A664F7467637A9CBA31
:10069000A5A69B92A1CFD0BD8B86BCA08F98707170
:1006A000562D66704F597B6C5D74525C777A6D7312
:1006B000ABB88C9CA39197AFA5949BB2A3A3A39036
:1006C0007F536A848F6A6A7063687E72524B657862
:1006D00074728167628690818394989597A293A49F
:1006E0009AA09498878A7F858F807751748B6B64EA
:1006F0006F5D6D837E70939D909A8B93AFA8886693
:10070000778E8E7A677C8C778A95758596826D84D4
:10071000929088888791A4A9A5A1A3A69D9B987F64
:1007200094958C87889F7E667160807B5E6743436B
:10073000434866655E6265475F9779969F929C9491
:10074000A7A98E898089A1939E999BADB4937E8C35
:100750009794908596A29B8F907F654A5B91866A5D
:100760005461656C6B4D5274926C5E938C7888A466
:10077000A3928B8183938D987C665E66867173737A
:100780007B857F787A93918179767E708C9892AB15
:10079000A7908F9D9E95716A807A736B74877A5F3C
:1007A0007A7E6A68828C7E7D7786828479898A8D5A
:1007B0007C7F869A987C897E757182786E5E5C5F9C
:1007C00063888E6D64798577948A7D90A29AA5A0BE
:1007D0008B8FA0998E9EA7B6A5A5989F99927B878F
:1007E0009171727A74665C615A4A494F54596A7EB3
:1007F0007B614954605995946D81736C7D65947EDD
:1008000056786088BAA1978499B37D867582B9A617
:100810009A828991957F78978C79767E91958C874D
:100820007196814C58858C8F7E54566D756982897E
:10083000868B99AD927B836F73937B637D806865B4
:100840007C6F747770736E746B7485848689998FEE
:1008500088968382A3947FA3AFAE8C78839096977B
:100860009EAA8B85A2A799898A808F8C858396986A
:100870009EA08C91887F74898286654973786F6D9C
:10088000776F7A7B78697C79827B738C89806785C6
:100890008F8B706E7F8B9083889792A0AB9A927E9D
:1008A000858A7C8A949188847C749883706F70693F
:1008B000628485879389837C83908984717B72703D
:1008C0006F635653686F6B55668590847C7287930F
:1008D0008C8F7D78889587859079829B90787680BB
:1008E0007167727E7A70767B7A85797B71778E7488
:1008F0007185958B727B8B8E83617CAB9B878C8F94
:1009000080838B77867D8488869288796775849BBF
:100910008E9D966F81858F9273757D6C6E727374E8
:100920006662676366706B69676C81898879829497
:10093000AFAA9A8477877F6F80877378799A8B6262
:1009400074877B81786B808C81737D81787D7D70ED
:100950006877837266617A6B6881897E6B6C697275
:100960008188898F8B7A85898489757B91918A7535
:100970007786817A788F90806F7784818476716DA5
:100980007588898A797385808D90715C71909C7867
:1009900068778793897184AF988D8677627A82822F
:1009A000857353517575777375838F755A739596E3
:1009B000898A978670566D90A1AA989FA18D7280A2
:1009C0006E6081A9B7885557859D98888BABAA7CA6
:1009D000677F958C8C85888875829F8C767C5F601C
:1009E0008684827E709E92637B98A79468688085D7
:1009F00073615C5D6B6F88805E5E837B666968682F
:100A000067848A7D7374898D82918E838B9891859A
:100A10007B858B8D84727F8CA2A59984818D8E7C41
:100A20007B7B7B8492807588667C957386967874D0
:100A30006C7F887C83777A71778A696270776E863B
:100A4000906E75909DA17375A88165617C817E9083
:100A50009381646990A68C777A73727788836272C7
:100A6000867F7C72697975717B84838A8AA49E7380
:100A7000718D9C8D8A8D9FA79493958C8B9A98915C
:100A80008778828B808C8F69576A8D8F8A7C828071
:100A900083988E6E818A868478757E7C7E7F7E8D3B
:100AA0007D7079868B736677766E69756C67577B18
:100AB0008F79697E8882898C8671808C9482858901
:100AC000848081858C8A949A8A83848D8D7F8088A6
:100AD0008D9C90848392908A8577849795827B7D84
:100AE0008B7E708080768C8571838B8D73767C7322
:100AF00071746E5E7080776A768379787D685F6BDB
:100B000073686171706F777E8A83787D84878A933A
:100B10008987868D999F9682928F90918E958F95D9
:100B2000948A8C94908B888C8A80847F7D88888836
:100B3000918B87847E797C7F8487797C7F898E7C8A
:100B40007679838B80766D61768B84766C75838203
:100B50007C7977757B7F8079717E82798B817075E6
:100B600074827E687871749582858A777C878385A4
:100B7000807975787C7F70737D828C857C737771CA
:100B8000757A7079817983868B82857F807E737F89
:100B9000868F837A7A8E908D90888E8486929487C1
:100BA0006E7B7F7F837D818B7B878F828476808342
:100BB0007F7A777C8A8B7E8084857E7579888B812D
:100BC0006F75827E808C7F76848983766570807372
:100BD000707B707583847B77868786808184808133
:100BE0008A91958B87887F78818E939591847B8578
:100BF00086877E878C7D7F8B8E827A6F74767F98D6
:100C00008C7C788181758185767886818A877E7AE9
:100C1000829291898A9184766D6B71838072758AD4
:100C20008D786875827F79727B8D937C676988A4E3
:100C30009A82889A9F7F655D76989C8F7D7E808260
:100C40008380808587836D7288898F8B80828A807C
:100C50008681748277778B868084827C7182837CA4
:100C60007983806B77848B8382737E8075798479B6
:100C70006C707D8980867974716C718483737A83DA
:100C80007C808C858786737B81868C75777D80865A
:100C90009388797A7C79767E7683907F7A7E8F8747
:100CA00077767D8E8C8083998E8477778C887D7F14
:100CB00088897F6A71908D72788B87888071839024
:100CC000807887897675737A847F88817A7976755A
:100CD000787270817A6C657280737A847A7E867697
:100CE0006B6A75858882777A71757D76786D798380
:100CF00084797083817978797E7B77858B928B7804
:100D0000767E7C6D81807A7E8791838182796F8205
:100D10007C6E81827D8D8B7E726D7A858B80878ED5
:100D20007672706C737F837F8181797272748A7E30
:100D30006E878A81787E8B83747D846F7088837AD6
:100D40008283867A7B94907275878275798D92837F
:100D50008989737F7C6F7E87847F7E7B797E7F86A7
:100D600081777D7A7F8B81747C7E706F7A7A7D80CB
:100D700082797B84787869778F8A826F6F7F807BB6
:100D8000767F8381807D7E807C7670727F86776EB1
:100D9000777E78717B7D867B76787071767E8C8BA2
:100DA0008C8A7A787775747F8C807F888B928C811F
:100DB00078757073696F7B737F8B85817C6D6D7DBA
:100DC000827C767A89827978808881767A85878C28
:100DD000878481898785806F7A8F928084818582DC
:100DE0008B8B7A7B87908282717285867E838888DE
:100DF00083837E76747B8582867A70777D7F776A3F
:100E000075898C76808872879A83756D6C7572751A
:100E100085857F817A7F7B80867E8D877B837B71D2
:100E200077706D7B807B8B937E8581797C87846DE9
:100E300078757575747E807E7E867E80786F787E0C
:100E40007A7580827E7876767779797D81828185E0
:100E5000807D7B737C747C7E7E847D7F838B8378B6
:100E60007D817C827C76807F86958C837C7D868567
:100E70008C8D80797A7880847A7C87807985838666
:100E800084685B76928A7D7785877D77778992867D
:100E90007E776C70777384918F9B928677747C7F5A
:100EA0008288887F75737E7F81847F77767C82815C
:100EB000817470717C8279767F7E72718288818084
:100EC00080918372757F8F8F88797B8884736C7231
:100ED00081978A8A9185716C6966807E8184828718
:100EE000847E797678767B8485867F838183857B13
:100EF000787C818280828485807E7B7E897E7683F9
:100F0000887E848C837B7C7A72707C7D838A7F7EF2
:100F1000817F858078797C7D827E7A7C7A76758106
:100F2000898D807D848880787470737B887F7D7DD7
:100F30007C898576747A7D757E82736A7787807AFC
:100F40008082746F757D817A7E807E7D7B808182D8
:100F5000858580888774777C757B85898C868C8B6A
:100F600085827D807E7C8287898682817D8187895A
:100F7000838288857E7F7D7A7F797989958B808150
:100F8000827F79757D877D787D858879797D7D798A
:100F90007A7D7779827C7B82797776757C83848F82
:100FA0008C7A767670748789807E767983837C7478
:100FB0007C79777B767879707587868582817B7678
:100FC000797D86827E7D7A807F7E807F8484837F28
:100FD0007B7470787E7A7A80868B8986847F7C7633
:100FE000777F879092958C7D7E7D7E81848E948B99
:100FF0007D7B797082958F8A8485857A77787C83EA
:101000008483837F797B8386817F7C81857E7E85D7
:10101000857C77797B7A7B77767780878483807607
:101020007377828377768281807C7B89857F787FE6
:101030007D78797E7E7E7E797D7C7C8382797C85DD
:101040007C7478737B867D7978778C8880808081CA
:10105000848B7F7B7A7F7E818382867F80837C7B8B
:10106000808F89757D7F7F7A797978787D86808495
:1010700088786F80837F7D7D8083807B8286827C81
:1010800082807F827B79828B887D787475828B7E6B
:10109000787F7B7E7C7C7D6E7181847F7F7E798092
:1010A0008582777B8181807F87827E818987807E30
:1010B0007B828781817E787B7A7A7F847F807F8242
:1010C000807C818284837C787F7B777C8080858430
:1010D0008288887D7F7F7C86807C8387847F8480F4
:1010E0007E82837E8086807F808485807F837C80F3
:1010F0008A8A888178797C797D84848183838581DB
:10110000787D89847C8085858081827C81807B7CE0
:101110007E7D777E8D8B858783796F747B7C7C82E7
:101120007E7A7E7F807E807E7C7F7D79797E7B7BF0
:101130007D7E828888787D85807B777D817E7E85B7
:1011400083807A74787D7A7A83817D7A797B7C83D7
:10115000827F8888807778807B7B85828683788190
:101160008080847B7B7D82807E82818386807C7D83
:101170007C7C787F807F7F7F8385837C787D7F7E8A
:1011800078768177798683807B7A81837C7A7E7892
:101190007985818485797982817B7B7E7B7D847F63
:1011A000797E7E7E858388877F817C7E85808A8C20
:1011B00082847C74797B7E8284878388838385782C
:1011C000797E808586857B7D908A7C7D837E7D810E
:1011D00080797C82797A85877F7E797C7D77747748
:1011E0007B79797E818182817E7D888B83807D7A07
:1011F00079807E7B848684887D777E7E84858683E5
:101200007C8082858178787E857D7E848285817DE3
:101210007E7D7F817B798388807E86827D858478D0
:1012200080867E798381818182877F7C8285817FB0
:10123000817F8286817D7A7C7D7E7C7A7D7D817FC7
:101240007C7D847F777D7E827E7C7B777A87857FBD
:101250007D7C85807C838485837C7C807E8082828B
:10126000807F84817F858581838685898A7F828A44
:101270007C7D86807E84807374777B7E80868B8D78
:1012800088807D7C7A797F7D7A7C7F88827A818470
:101290008082817E7C7A72747A7C7D7A76777F799F
:1012A0007B8084847D7D7D7A79777577797C7E8378
:1012B000858984807D7B79787D7873787E7E808255
:1012C0007E7F838283828283838184837D7E807C10
:1012D0007F84818488868A878781828786807B85D0
:1012E0008584838385857A777D817F7D7D797C7B0D
:1012F0007B7C7A7C82847E7D7E797C7A777C7E8220
:10130000827C80847A7C7C7C818282817F808A87D7
:1013100082828281828483807C82858481828581AD
:101320008388858384817F8084867E7E8583808197
:101330007F7C7A7F83797A7C7D83817E79797D81D8
:101340007E7F817C7C7F7F78798082827E797C87BA
:10135000847E807D7D7D7A7C7E7D82808287888789
:10136000837F7C7876787E837F808183827C7D8199
:101370007D7A7D787E7E7F827F85857E82857E7C7C
:10138000807B797D7A828585838380828886848448
:101390008485858186857D827F7D7C797E81838140
:1013A000827F7B7A7E81797B7E7C797E7F807E776F
:1013B0007C7C767A81827E7C818484817C7B7B7A52
:1013C0007B8586818485828287887F797B7F818205
:1013D000828281808487827F807F848887828084E4
:1013E0007F80827F7E827F7B8186807C82807E8000
:1013F000817E7E7F7D787B7B7C7E76767D80818121
:101400007C7C7E7A7D7F7C7B817E797F7C7D7E800B
:1014100082807E7E8182837F7F7D7B8184807D7FD1
:1014200084827F8285838187847F807E7F828081A2
:10143000838081838482807F807F81828180868394
:101440007F7A787F8185807D8486827F7F7D7A7DAB
:10145000817F7C7A7E818386807C7E7A787C7E7DAB
:101460007D7E7D7F7F7C7C7D7F7E79797F7E7A78B3
:101470007D847E7B7E827E7D88857A7C82837E8071
:101480007F828282807F81807D7E817F7F8689824C
:10149000817F8082817E7F7F818381838283827D41
:1014A00080838587857F80827F7E8283818380831E
:1014B000828386827D8385807A7A7F7D79848B8220
:1014C000827D78787A7E807D7E828183827B7D803A
:1014D00080848A7F76797F7D808080827F817D791C
:1014E000787A7D82857D7C7F807E7A7E8182817F15
:1014F0007B7F827F8183827F7E81837C7E7F8284EB
:101500007E8184837D7B79808282838283818284D1
:101510007F7A7E80817F82828082807E807F8185CB
:101520007F7B83837F7F7F7D7D7E7F828482807FC0
:101530007A7C7F7F7B7B7A7A7A7E83848183837BCC
:10154000727177787B7F8688878381827C797E7AC7
:101550007A7F8383827F7B8286817D80837E7B7F8F
:101560007D7E81818182807E85847B7A7C7E838082
:101570007F8182838284818483827F7E7C7A7C7E69
:101580008382848B857A7B827E797B7D7D7C7D8462
:1015900086807E81807F7E807A7B7D7D7D7C80835E
:1015A000817D7E7F7D7B7C797C8383868481817C49
:1015B00074757D7E7C818382828383827F7E7F7D42
:1015C0007D7B7E807D7E7E818586868484817C7C19
:1015D0007D7E7F80808482807C81808383827F7C0B
:1015E000808388837E817F7E817E7F8483808682E4
:1015F0007D7B7E827F81807B7C86847E83837E80F0
:1016000089847F7F7E807F7C7D7D7B7B83807D80E6
:1016100080828281817E7A7A7F8081807D7D8082D6
:101620007F7E7F7D807E7C7F7E8085878281807FBC
:101630007C7D7D7A80818082838789837E807E7BAA
:101640007D7E7D808181838481837F797A7C7F7FA9
:101650007E868682807D7E83828284837D787B8085
:101660008282817F7B7B82817D7E807F7C7F828086
:1016700083817F817E7C7C7D7C7C7E817F7C7E8380
:101680007F7E827E7E7C7A7A7D8081837F7D848767
:101690007F7E81807E7E807F8485807C7D807E7E53
:1016A0007E7F7E8083848484827D7B7C7E83837C3A
:1016B0007C81847F7F817C7E807F7F818084868027
:1016C0007B7B7F808080808183848180838785800D
:1016D0007F8080858181808082837F7D807D7C8208
:1016E000868382838182807D7C7F7E7B7D7F8484F4
:1016F0008183817E7C7A79787C7E7E8082807F8106
:1017000083817C7E7C767A7C7D7F7E7F7F81807EFC
:101710007F7D7C7A7C82817F7F8284807C7B8283D8
:10172000848582807E7F838184817E80828485849B
:101730007F7C80817E7F7D7D8385858280818082A4
:101740007F7D7E7E7B7F848382807F7F7E7D7B7BAF
:101750007D7D7E7E828584827F80837F82807E8283
:1017600085848487837D7C7D7E7F82858080837F66
:101770007A7A7C7E7D797D807E7C79797E7F7D80A2
:101780007F818181807F7F7C7C7D7C7F8384807F63
:10179000807E7B7B7F82827F7C8082808281808052
:1017A0008183827E7E7F7D7E818283848283817B32
:1017B00080827E80827C7E7E808181817E807E7F31
:1017C0007F7F7E7D7D7C7C80807C7B7E7F7F7F7F3A
:1017D0007D7D7F7F7E7D7F7E7C7D7F8281807F7D22
:1017E00081848281807F7F838382827E7C808484E7
:1017F00084827D7D7E7F7E7C7D7F828284827F81EC
:101800008385817D8384848485807E828282827FB9
:101810007C7B7D808383818080817E82837D8180CB
:101820007D807E7D80807C7D8183847F7D807E7FC6
:10183000807E7E81818083827E7F818181808181A3
:10184000818282827E807F7B7B7D7A797F81817FAE
:101850007F83827E7E7F7F7C797C7E7E7F807D7CA5
:10186000818483807D7D7E7C7F807B7E8080827F83
:101870007F83817F807F8084827F82838283828254
:10188000848282807D8287838082807E80817F7F48
:1018900080807F7E7E808081807D7D7E7D7E818256
:1018A0007E7D7D7F807F7E7D7D80817F7E7C7D8152
:1018B000807E82817E7D7E7E80807F82838180802B
:1018C0008080818081808283807E7F8282817F7F11
:1018D0007E7B7B7D7E81807F8283828181807D7C17
:1018E0007B7A7E7F7D7F7E7E7F80808183807E7D10
:1018F0007E80807E7F807E7E7F7F7F7E82857F80F0
:10190000827E7E7E7C8082808182818183828081D2
:101910007F7F807F807F81817F7F80807F818080CB
:10192000807F82807F7F8283817F7F7F7F807F7EB9
:101930007E83857F7E7E8083807F82838484838094
:101940007D7F7E7E808080808183848483817F7D93
:101950007B7B8081807E7F8080817F80817E7D7D9A
:101960007D7E7D80807F7D7E7E7F807E7E7D7E7F92
:10197000807E7D7E7E7E8181817F807E7D7C7E817A
:10198000808081818280818080817E7E7E807F7F59
:101990007F817F7F7F7F7E807D7D7F808181817E53
:1019A0007D7E817F7E7F7D7C818282817D7F818043
:1019B000808080807F828283807D8082807E818221
:1019C0008283817F7E7E808383817F80807F7F8012
:1019D0007F7E81828281808080808080807F808005
:1019E0008182837F7C7D7D7D8182828481828483EC
:1019F000807F7F7E7D817E7C7E80818081828280EF
:101A000080807F7E7C7D7D7F81817E7C7E808182E7
:101A10008182817C7C7F807D7F8182828180817FC9
:101A20007E7E7D7E7D7C7D7D7F80818583808081C3
:101A3000807F7C7B7D7E7E7F8082817F8083807DB6
:101A40007C7C7D7D7E81838484827E7B7B7D7E7FAA
:101A50007F82827F818280807F7C7D807F7F828287
:101A60007F7E7D7E82827F7F82838281828283836A
:101A700082818281807F7F7F818080818384828256
:101A8000818383807E7D7E7D7E8285858381838147
:101A90007F7F7F7D7D7F7E8081807F7C7E81808255
:101AA000817D7C7C7C7F808083807D7F7F7D807F4B
:101AB0007D7E7F7F7F7F8081817E7D82817E7F8032
:101AC0007E7E7F807F808081828082828080807E17
:101AD0007D7F808080808080817F7E808281818206
:101AE00081817F80818080808081818080807F7FF4
:101AF0007E7E82827E7E81817F807F7F7F7E8183EA
:101B0000817F7F7D7C7F7E7E808081817F7F8382DD
:101B10007E7F80807E7E7F808080808182807D7BD2
:101B20007C7C7E807F80807E7D80808081818181C1
:101B30007F7D7F7F7D7E8181818180808181827FA9
:101B40007D7F7F7F7F7E80838181817E7D7F7F809F
:101B50007F7F7F7E7F808180807F808180807E7C90
:101B60007D7E7D7E80828282818181807F7D7D7E7F
:101B70007F7E7F8082807E7F80817F7E8183818067
:101B80007F7F7F7F7F7E7D7F828180818281828156
:101B90007E7F7E7E7E7F7F8082808082817F7F7E4F
:101BA000808282807E7F8080818182817F8181812D
:101BB0008080807F81828180838280808180828119
:101BC00081818081807E7F80808181807F80818211
:101BD0008383828080807E7E8080807F7F807F8103
:101BE0008281817F8081807F7D7F7F7D7F80807EFD
:101BF0007F807F7E7F7F7E7E808081807F80817FEF
:101C00007D7F7F7E7E7E7F7F7E7F807E7E818181E5
:101C1000807F7E7D7F7E7D7D7D7D7E7F80808182D9
:101C20008181807F7E7D7F7F7E7F7F8081818282B8
:101C300082807F7F7F7F7F808080808080808080A7
:101C40008181818180807F7F8080807F808183838C
:101C500082828381807F7E7F7F808281818281807A
:101C60008081818080807F7F818080807F80818271
:101C7000818180807F7E7E7E7E7F80838381807F66
:101C80007E80807F7F7F7E7F818080818080807F5B
:101C90007F7E7E7F7F7E808180807F7E7D7F817F53
:101CA0007F7F7E7D7E7F7F7F80817F7F81807F7F42
:101CB0007F7F7E7E7C7D808081838282817F7E7E2D
:101CC0007F7F7E7E80828281818180807E7E7F7F19
:101CD0008081818182808080808183817F7F807FFD
:101CE0007E80828180808282828381807F7F7F7FED
:101CF0007F7F80828181828180807F7E7E7F7F7FE7
:101D00007F8081808181807F7F7F7F81807E7E7FD9
:101D10007F7F808081817F7F7F7E7F7F7F7F7F80CD
:101D20007F808180807F7F7E7D7E80807F7F8080BE
:101D300080807F807D7C7E828381807F7F80807EAB
:101D40007E80818181807F7F80807F7F808485838A
:101D5000807E7C7B7C7E7F80807F7F80828383828D
:101D6000807E7E7F808080818180817F8081828271
:101D70008280808080807E7F80807F7F818283835D
:101D800081807F7D7E7F7F807F8080808081818059
:101D90008080807F7F7F7F7F7F7F80818180808048
:101DA0007F7E7E7F7F818281808080807F7E7E7F3C
:101DB0008080808080807F807F7F7F7F7F7E807F2C
:101DC0007F7F7F7F80807E7E7E7F80808081807E1F
:101DD0007F807F7F7F7F8080808080808181808006
:101DE000808080807E7F807F7F80818181818080F4
:101DF000807F80817F7F8181808080808080807FE4
:101E00007E7F8080808181818181807F7E7E7F80D6
:101E1000807F80807E80818180807F8080808080C4
:101E20008180807F7F7F80818180818181818080AE
:101E30008080808080807F7F8080808080808081A3
:101E400081807F7F7F7F80818080807F8080807F96
:101E50007F7F808080808081807F7F7F8081807F86
:101E60007F7F80808181818080807F7F8080807F74
:101E700080807E8080807F808180807F7F7F808166
:101E8000818180808080807F7F808081807F7F7F54
:101E900080807F7F8081807F7F7F7F7F7F7F807F4B
:101EA0007F7F7F7F808081817F7F7F807F7F808138
:101EB00081808080808080807F7F80807F80808123
:101EC00081818181808080807F7F80808080808010
:101ED00080818180807F7F7F7F80807F8081808004
:101EE000808080807F7F7F7F8081807E7F817F7FF9
:101EF00080807F7F7F7E7F808180807F7F80807FEA
:101F00008081808080807F808081818081808080CE
:101F1000807F8080808080808182807F7F7F7F7FC4
:101F20007F8181808181828382817F7E7E7E7F80AE
:101F300080808181818180808080807F7F7F80819F
:101F40008181818181807F7F8081807F80807F7F90
:101F5000808080807F808080807F7F80807F808085
:101F60007F8081807E7E7F81817F80807F7E7E7F7B
:101F70007F807F7F7F808080807F7F80807F7F7F6A
:101F80007E7F807F80808080807F80807F7F7F7F5A
:101F900080808080808080808081807F7F80808042
:101FA0007F8081807F808080808080808081818030
:101FB0007F8081807F808180808080807F80808022
:101FC000808080808080808181818080808080800E
:101FD00080818181818080808080808081828281F7
:101FE000808080807F7F807F808081818181807FF1
:101FF0007F7F7F7F808080807F7F80807F7F807FEA
:102000007F7F7E7F7F80818080807F7E7F807F7EDC
:102010007F808080807F807F808181807F7F8080C3
:102020007F7F8080808080808080807F80808080B3
:10203000818080807F7F7F807F7F808080818080A3
:10204000818080808080808180807F7F807F808091
:1020500080807F8182807F7F7F7F7F808080808182
:10206000818181807F7D7E7F808082807F7F808173
:10207000818180807E7E7E7F7F7F80808080808067
:102080007F808080807F7F7F808080808181818150
:102090007F7F7F7F80808081818180808080808041
:1020A00081818181808080808080807F7F8080802E
:1020B0008080807F7F80818080807F808081818020
:1020C0007F7F80807F808080808080807F7F808015
:1020D00080807F7F7F7F7F7F7F807F7F8081808008
:1020E0007F8081818080807F7F8080808080807FF2
:1020F0007F8080808080807F8080808080818181DF
:102100007F7F80808080807F8080808080818080D1
:1021100080808080808080808081818180808180BB
:10212000807F807F7F807F80808080808080807FB4
:102130007F7F7F7F7E7F80807F808180807F7F80A8
:102140008080818180807F7F807F7F7F7F80818191
:1021500080818180808080807F7F7F807F80808081
:102160008080808080818181818180807F7F7F806D
:102170008080808080808081818080807F7F80805F
:102180007F8081808080808080818181808080804C
:1021900080808080807F80818180807F7F7F7F7F43
:1021A00080818181808080807F7F8080808080802E
:1021B000808080808080807F7F7F7F7F7F7F7F8027
:1021C00080808080808080808080807F7F7F808012
:1021D00080807F8080808080807F7F7F8080808003
:1021E00080808080818181807F80808080808080ED
:1021F00081808080808081818180808080808080DB
:1022000080808080808181818180808080808080CA
:1022100080808080807F80808080807F7F808080C1
:10222000808080807F7F7F7F7F7F7F7F80808080B6
:1022300080807F7F7F7F80808080807F7F808080A4
:102240007F8080808080808080808080808080808F
:10225000808080808080808080808180808080807D
:102260008080808080807F8080808081808080806E
:10227000808080808080808080808080818080805D
:1022800080808080808080807F7F8080808080814F
:10229000818180807F7F7F8080808080808081803E
:1022A0008081808080808080807F8080808181802C
:1022B000808080808080808080808080808080801E
:1022C0008080808080807F7F7F808081818080800F
:1022D00080808080808080808080808080808080FE
:1022E00080808080808080808080808080808180ED
:1022F000808080807F7F80808080808080808080E0
:10230000807F80808080808080808080807F7F80D0
:1023100080807F7F808080808080808080808080BF
:1023200080808080808080808080808080808080AD
:10233000808080808080808180808080807F80809D
:10234000808080808080808080808080808080808D
:102350007F7F80808080808080808080808080807F
:10236000807F808080808080807F8080808080806F
:10237000808080808080808080808080808080805D
:1023800080808080808080807F808080808080804E
:10239000808080808080807F80808080808080803E
:1023A000808080808080808080808080808080802D
:1023B000808080808080808080808080807F80801E
:1023C0008080808080808080807F7F80808080800F
:1023D0008080808080808080807F7F7F7F7F7F7F04
:1023E0007F808080808080808080808080808080EE
:1023F00080808080808080808080808080808080DD
:1024000080808080808080808080808080808080CC
:1024100080808080808080808080808080808080BC
:10242000808080808080808080808080807F7F7FAF
:102430007F7F80808080808080808080808080809E
:10244000808080808080808080808080808080808C
:10245000808080808080808080808080808080807C
:10246000808080808080808080808080808080806C
:10247000808080808080808080808080808080805C
:10248000808080808080808180808080808080804B
:10249000808080808080808080808080808080803C
:1024A000808080808080808080808080808080802C
:1024B000808080808080808080808080808080801C
:1024C000808080808080808080808080808080800C
:1028D00080808080000011241FBECFE5D4E0DEBFE1
:1028E000CDBF10E0A0E6B0E0E0E2F7E302C0059063
:1028F0000D92A236B107D9F710E0A2E6B0E001C010
:102900001D92A73AB107E1F70E94BC190C948E1BE7
:102910000C9400001F920F920FB60F9211242F9368
:102920008F939F93EF93FF93DF93CF930F92CDB746
:10293000DEB7809196009091970001969093970052
:102940008093960080B3847089838981882351F4B1
:102950008091650090916600019690936600809347
:10296000650019C080919D0090919E000196909302
:102970009E0080939D0080916900882361F0809182
:102980009D0090919E008955914028F01092690019
:1029900081E080936A0080916400813009F044C036
:1029A00080916700909168001816190674F48BB333
:1029B00094E089278BBB8091670090916800019714
:1029C00090936800809367002FC0DA9880919800F8
:1029D00090919900181619063CF4DA9880919800A5
:1029E00090919900019719C0E091A300F0E0EE5793
:1029F000FF4F80818823B1F02091A300E22FF0E007
:102A0000EE57FF4F808190E09093680080936700BD
:102A10002F5F2093A3008BE290E090939900809326
:102A2000980002C0109264000F90CF91DF91FF9147
:102A3000EF919F918F912F910F900FBE0F901F904C
:102A400018951F920F920FB60F9211242F933F9358
:102A50004F935F936F937F938F939F93AF93BF93A6
:102A6000EF93FF93DF93CF930F92CDB7DEB789B784
:102A70008F7E89BF789480916B0090916C00892B38
:102A800009F45BC08091930090919400892B19F414
:102A90008FEF8093A60080919300909194008157CE
:102AA0009842C8F58091930090919400865094408C
:102AB00021F50E943C19813001F5999B02C01982D1
:102AC00001C0898389818130A9F480919500882390
:102AD00089F080916B0090916C00019790936C004D
:102AE00080936B000E946C171092940010929300D8
:102AF0008AEA01C08FEF8093A600E0919300F091E5
:102B000094003196F0939400E09393003197EC5940
:102B1000FF4FE491ECBF8091930090919400815716
:102B2000984258F080919300909194008F5F9F4F4E
:102B300021F080E88CBF1092A60080916B009091EC
:102B40006C00892BC9F4A89A80919300909194000D
:102B50008157984278F4E0919300F0919400319677
:102B6000F0939400E09393003197EC59FF4FE49178
:102B7000ECBF02C01092A600209162003091630069
:102B8000809162009091630064E670E00E943D1BBA
:102B900084E690E0AC01649FC001659F900D749F36
:102BA000900D11242817390709F044C08091920034
:102BB000882309F03FC0999B02C0198202C081E0BE
:102BC00089838981882319F0813081F511C0809132
:102BD000750090917600049788F410927600109218
:102BE00075008091770081608093770080E020C03D
:102BF0008091750090917600049758F010927600BD
:102C000010927500809177008E7F8093770081E02D
:102C10000FC080917500909176002091770021700F
:102C2000820F911D909376008093750080919200A1
:102C3000809392008091620090916300019690933E
:102C40006300809362008091620090916300895ECE
:102C5000934008F43DC0109263001092620090917E
:102C60009F0080916000892311F4DC9801C0DC9AF8
:102C70009091A00080916000892311F4DD9801C03B
:102C8000DD9A9091A10080916000892311F4DE9873
:102C900001C0DE9A9091A20080916000892311F416
:102CA000DF9801C0DF9A9091A6008091600089238F
:102CB00011F4DB9801C0DB9A80916000880F80934B
:102CC000600080916000882319F481E080936000A7
:102CD000F89489B7806189BF0F90CF91DF91FF9100
:102CE000EF91BF91AF919F918F917F916F915F9184
:102CF0004F913F912F910F900FBE0F901F901895FD
:102D00001F920F920FB60F9211242F933F934F9360
:102D10005F936F937F938F939F93AF93BF93EF9343
:102D2000FF9305B600FC17C085B7816085BF809111
:102D30006900882309F46AC080919D0090919E00EB
:102D4000C99708F044C080919D0090919E004E97D5
:102D500008F43DC05BC085B78E7F85BF8091690058
:102D6000882309F43EC08091650090916600C99760
:102D700090F480916500909166004E9760F080918C
:102D8000A4009091A50001969093A5008093A400C3
:102D9000019760E019C080916500909166008436CB
:102DA0009105A8F4809165009091660089349105A1
:102DB00070F08091A4009091A50001969093A500D9
:102DC0008093A400019761E00E943B171FC01092FE
:102DD00069001092A5001092A40082E080936A001E
:102DE00015C080916500909166008A3B910570F452
:102DF00080916500909166008F39910538F01092AE
:102E0000A5001092A40081E08093690010926600F2
:102E10001092650010929E0010929D00FF91EF911C
:102E2000BF91AF919F918F917F916F915F914F91E2
:102E30003F912F910F900FBE0F901F901895D29A2F
:102E40008AB3806F8ABBBB9AA09A8F9A8A9808959A
:102E50008DED83BD89E085BD89B7806889BF089500
:102E60008A9885B7826085BF85B78E7F85BF8BB70F
:102E700080648BBF0895282F26952695269530E0EF
:102E8000A90193E0440F551F9A95E1F7841BF901BE
:102E9000E359FF4F90E0662379F0408127E030E06E
:102EA000281B390B81E090E002C0880F991F2A95FA
:102EB000E2F7482B40830895408127E030E0281B4B
:102EC000390B81E090E002C0880F991F2A95E2F744
:102ED00080958423808308951092A30081E08093DD
:102EE00064000895E4E8F0E020E030E06BE296E56D
:102EF000880FAF014F5F5F4F87FF02C0908301C013
:102F00006083FA012F5F3F4F2730310589F78BE24D
:102F1000809383000895813059F0813028F0823009
:102F200061F08330B1F410C08BE280938C0009C053
:102F300086E580938C008BE204C08BE280938C004A
:102F400086E580938B00089586E580938C008093BE
:102F50008B000895873009F453C0883070F48330B3
:102F600099F1843028F4813029F1823040F51EC077
:102F70008530C1F18630D8F52EC08B3009F460C0A1
:102F80008C3038F4893009F44DC08A3008F04FC0D5
:102F900040C08D3009F462C08D3008F458C08E30C6
:102FA00009F467C08F3009F078C06EC08BE280935F
:102FB000900063C086E5809390008BE25EC09BE248
:102FC0009093900086E54EC086E5809390008093B4
:102FD0008F008BE254C09BE29093900090938F00FF
:102FE00086E50BC096E5909390008BE224C09BE2AF
:102FF0009093900086E580938F0080938E0036C07A
:1030000086E58093900080938F0080938E008BE202
:1030100038C08BE28093900080938F0080938E0065
:1030200086E52FC096E5909390008BE2E4CF9BE27B
:103030009093900086E580938F0090938E0021C03E
:1030400096E59093900090938F008BE2D6CF8BE221
:103050008093900080938F0086E511C096E5909351
:1030600090008BE280938F0090938E0090938D0060
:1030700008958BE28093900086E580938F00809383
:103080008E0080938D00089586E580939000809354
:103090008F0080938E0080938D000895482F282FF5
:1030A00026952695269530E0F901E359FF4F80815A
:1030B00090E053E0220F331F5A95E1F7421B27E0BF
:1030C00030E0241B310902C0959587952A95E2F7D7
:1030D0008170089589B390E083709070813091057C
:1030E00041F08230910519F0892B29F006C082E069
:1030F000089581E0089583E0089580E0089580E8D0
:103100008CBF88E483BF83B7816083BF83B780624D
:1031100083BF089586B390E08370907081309105ED
:1031200039F08330910531F0892B31F089E0089531
:103130008DE0089585E008958FE008958FB58E7F26
:103140008FBD8FB58D7F8FBD8EB588608EBD8EB5DE
:103150008F7E8EBD8FB58F7B8FBD8FB58F778FBDE7
:103160008EB58F7E8EBD8EB58F7D8EBD8EB58E7FDA
:103170008EBD8EB582608EBD8EB58B7F8EBD89EF84
:103180008ABD89B7806189BF0895982F10929F00EA
:103190001092A0001092A1001092A200869540E02B
:1031A00050E0A82FB0E08FEF06C0FA01E156FF4FC4
:1031B00080834F5F5F4F4A175B07BCF39D01220F6F
:1031C000331F892F90E0821B930B1816190624F4E5
:1031D000A156BF4F8CEC8C93089580B390E080761D
:1031E00090708032910549F08034910519F0892B57
:1031F00039F009C080E290E0089580E490E00895FD
:1032000080E890E0089580E190E008958FEF9FEFCF
:1032100090939400809393001092640081E00E9448
:1032200072170E946A180E948B170E948A180E94C7
:10323000AA178CEA80938200109291001092A3004A
:10324000109269001092A5001092A40010926A00DA
:1032500088E080939500109276001092750080911E
:1032600077008160809377000E94ED1890E0909342
:103270006C0080936B00089583B38095881F882726
:10328000881F0895CF92DF92EF92FF920F931F93C2
:10329000CF93DF93EC01162F072FE42E8FE0C13A76
:1032A000D80708F04FC0C0909300D09094008FEFE3
:1032B0009FEF90939400809393009E0140E050E034
:1032C00060EA7CE880E090E00E94511BF22E212F02
:1032D000302FC9019C01813A910510F020EA30E0BD
:1032E000CE016AE070E00E943D1B269FF001279FFF
:1032F000F00D369FF00D112440E050E02F2D30E00E
:103300001AC0ECBE10929700109296008091960021
:103310009091970082179307C8F31CBE10929700F4
:1033200010929600809196009091970082179307D3
:10333000C8F34F5F5F4F4E175F0718F3D0929400AA
:10334000C0929300DF91CF911F910F91FF90EF906A
:10335000DF90CF900895979A88EE93E063E070E055
:1033600040E80E94421984EF91E063E070E040E899
:103370000E94421997980895EF92FF921F93DF934E
:10338000CF9300D000D000D0CDB7DEB70E941F177A
:103390008DED83BD89E085BD89B7806889BF0E94B6
:1033A00030170E949E180E947F180E940619789478
:1033B0008FEF80939F00109297001092960080915B
:1033C00096009091970080519742C8F38FEF8093B9
:1033D000A000109297001092960080919600909114
:1033E000970080519742C8F38FEF8093A10010920D
:1033F00097001092960080919600909197008051CE
:103400009742C8F38FEF8093A2001092970010921A
:103410009600809196009091970080519742C8F352
:103420008FEF8093A60010929700109296008091E3
:1034300096009091970080519742C8F3A89A1092F5
:10344000970010929600809196009091970080517D
:103450009742C8F3979A1092970010929600809125
:1034600096009091970080519742C8F310929F0068
:10347000109297001092960080919600909197007C
:1034800080519742C8F31092A000109297001092BA
:103490009600809196009091970080519742C8F3D2
:1034A0001092A100109297001092960080919600C1
:1034B0009091970080519742C8F31092A200109209
:1034C00097001092960080919600909197008051FD
:1034D0009742C8F31092A60010929700109296009F
:1034E000809196009091970080519742C8F3A898D8
:1034F00010929700109296008091960090919700FC
:1035000080519742C8F39798809195000E94C51802
:1035100088EE93E063E070E040E80E94421974E0B6
:10352000E72EF12CEC0EFD1E209192002223D9F003
:103530002130B9F480916B0090916C00892B89F057
:1035400080916B0090916C00019790936C00809338
:103550006B0010929400109293001092A30020939D
:1035600064001092920080916A00813019F08230DC
:10357000D9F673C010926A0080E00E944E1888232A
:1035800099F680916D00E0916E00EE0FEE0FE295DE
:10359000EF70F0E0EC5AFF4FE49190916E008C8355
:1035A000EE8392959695969593709D83AAE9B0E0E7
:1035B000F70183E001900D928150E1F78A819B81B0
:1035C00001969B838A8310919B000E946A181817AA
:1035D00009F4AACF0E94AB1980919C00823341F07C
:1035E000843641F0893111F492E005C091E003C0C6
:1035F00094E001C098E080919500981730F4809194
:103600009500891B8093950023C010929500979A8E
:10361000809195000E94C51815C082B3805882BB66
:1036200010929700109296008091960090919700CA
:1036300080519742C8F383B381FD04C089818F5FB5
:10364000898301C019828981843138F30E94061967
:10365000809195000E94C51867CFA89A1092970094
:10366000109296008091960090919700885B984800
:10367000C8F3A89810926A0057CFAA1BBB1B51E150
:1036800007C0AA1FBB1FA617B70710F0A61BB70BD2
:10369000881F991F5A95A9F780959095BC01CD0177
:1036A000089597FB092E05260ED057FD04D014D09F
:1036B0000AD0001C38F450954095309521953F4F25
:1036C0004F4F5F4F0895F6F79095809570956195EF
:1036D0007F4F8F4F9F4F0895A1E21A2EAA1BBB1B4D
:1036E000FD010DC0AA1FBB1FEE1FFF1FA217B307CE
:1036F000E407F50720F0A21BB30BE40BF50B661FE4
:10370000771F881F991F1A9469F7609570958095A7
:1037100090959B01AC01BD01CF010895F894FFCFB6
:023720000100A6
:00000001FF
