:100000000C9493030C9472290C943F290C94B00324
:100010000C9415260C94B0030C94B0030C94522746
:100020000C94B0030C94B0030C94B0030C94B00384
:100030000C94B0030C94102C0C94B0030C94BB2BB8
:100040000C94B0030C94B0030C94B0030C94B00364
:100050000C94B0031B1F1E1F211F241F271F2A1FC4
:100060002D1F301F331F361F391F3C1F3F1F421FDC
:10007000451F481F4B1F4E1F511F541F571F5A1F0C
:100080005D1F601F631F661F691F6C1F6F1F721F3C
:10009000751F781F7B1F7E1F811F841F871F8A1F6C
:1000A0008D1F901F931F961F991F9C1F9F1FA21F9C
:1000B000A51F41A042A1E045A3A4A5A64BA74D487A
:1000C0004FA8504354A9AA58E1ABACE2ADAEADAFD6
:1000D000B0B161B2B3B4E365B6B7B8B9BABBBCBD31
:1000E0006FBE7063BF79E478E5C0C1E6C2C3C4C522
:1000F000C6C762756C6C6574735F696E5F636C69AB
:10010000703D0062756C6C6574735F696E5F636CE3
:1001100069703F0070726F746F636F6C3F00636C47
:100120006970733D00636C6970733F007072657035
:100130006172655F746F5F77726974655F626C6F1F
:10014000636B00726561645F626C6F636B00736FF9
:10015000756E645F315F6164726573733D00736FC8
:10016000756E645F315F6164726573733F00736FB6
:10017000756E645F315F73697A653D00736F756E8C
:10018000645F315F73697A653F00736F756E645F9A
:10019000325F6164726573733D00736F756E645F87
:1001A000325F6164726573733F00736F756E645F75
:1001B000325F73697A653D00736F756E645F325F9D
:1001C00073697A653F00736F756E645F335F616456
:1001D000726573733D00736F756E645F335F616446
:1001E000726573733F00736F756E645F335F73691D
:1001F0007A653D00736F756E645F335F73697A650E
:100200003F00736F756E645F345F61647265737312
:100210003D00736F756E645F345F61647265737304
:100220003F00736F756E645F345F73697A653D007C
:10023000736F756E645F345F73697A653F00736FC7
:10024000756E645F355F6164726573733D00736FD3
:10025000756E645F355F6164726573733F00736FC1
:10026000756E645F355F73697A653D00736F756E97
:10027000645F355F73697A653F00736F756E645FA5
:10028000365F6164726573733D00736F756E645F92
:10029000365F6164726573733F00736F756E645F80
:1002A000365F73697A653D00736F756E645F365FA4
:1002B00073697A653F00706C61795F736F756E6406
:1002C00000706C61795F73686F745F736F756E64D3
:1002D00000706C617965725F69643D00706C617972
:1002E00065725F69643F0064616D6167655F696E37
:1002F0006465783D0064616D6167655F696E646522
:10030000783F0069725F706F7765723D0069725F58
:10031000706F7765723F00667269656E646C795FB5
:10032000666972653D00667269656E646C795F66C8
:100330006972653F007465616D5F69643D00746555
:10034000616D5F69643F00626174745F66756C6CB7
:100350005F766F6C746167653D00626174745F669F
:10036000756C6C5F766F6C746167653F0062617479
:10037000745F6C6F775F766F6C746167653D006268
:100380006174745F6C6F775F766F6C746167653FE3
:1003900000F200030114011E0125012C0143014E4E
:1003A000015E016E017C018A019A01AA01B801C6B1
:1003B00001D601E601F40102021202220230023EDD
:1003C000024E025E026C027A028A029A02A802B609
:1003D00002C102D102DC02E702F50203030D03179A
:1003E00003260335033E0347035A036D037F03458A
:1003F00052524F523A756E6B6E6F776E20636F6D0F
:100400006D616E640D0A004552524F520D0A00454F
:1004100052524F523A706172616D65746572206913
:1004200073206E6F74207370656369666965640D0F
:100430000A004552524F523A706172616D6574659F
:1004400072206F7574206F662072616E67650D0A89
:10045000004552524F523A696E76616C6964207061
:100460006172616D657465720D0A000D0A4F4B0D66
:100470000A00CAEEEBE8F7E5F1F2E2EE20EFE0F277
:10048000F0EEEDEEE220E220ECE0E3E0E7E8EDE57F
:100490003B696E7428302C3930293B62756C6C6571
:1004A00074735F696E5F636C69703F3B62756C6CFF
:1004B0006574735F696E5F636C69703D0D0ACCE0B3
:1004C000E3E0E7E8EDEEE23B696E7428302C313072
:1004D00030293B636C6970733F3B636C6970733D9B
:1004E0000D0AC8E4E5EDF2E8F4E8EAE0F2EEF02007
:1004F000E8E3F0EEEAE03B696E7428302C313237E5
:10050000293B706C617965725F69643F3B706C6117
:100510007965725F69643D0D0AD6E2E5F220EAEE84
:10052000ECE0EDE4FB3B656E756D28CAF0E0F1EDA3
:10053000E0FF2CD1E8EDFFFF2CC6E5EBF2E0FF2C4D
:10054000C7E5EBE5EDE0FF293B7465616D5F69642C
:100550003F3B7465616D5F69643D0D0ACDE0EDEE72
:10056000F1E8ECFBE920F3F0EEED3B656E756D28EC
:1005700031252C32252C34252C35252C37252C31B2
:1005800030252C3135252C3137252C3230252C3295
:1005900035252C3330252C3335252C3430252C357E
:1005A00030252C3735252C31303025293B64616DC1
:1005B0006167655F696E6465783F3B64616D616723
:1005C000655F696E6465783D0D0AC4F0F3E6E5F198
:1005D000F2E2E5EDEDFBE920EEE3EEEDFC3B656ECE
:1005E000756D28CDE5F22CC4E0293B667269656E15
:1005F000646C795F666972653F3B667269656E64BB
:100600006C795F666972653D0D0ACCEEF9EDEEF12D
:10061000F2FC20C8CA20E8E7EBF3F7E5EDE8FF3B82
:10062000656E756D28C4EBFF20E8E3F0FB20E22047
:10063000EFEEECE5F9E5EDE8E82CC4EBFF20E8E3AC
:10064000F0FB20EDE020F3EBE8F6E5293B69725F73
:10065000706F7765723F3B69725F706F7765723D4F
:100660000D0ACDE0EFF0FFE6E5EDE8E520E7E0F08C
:10067000FFE62E20E1E0F2E0F0E5E820ECC23B6985
:100680006E7428353030302C3435303030293B62B0
:100690006174745F66756C6C5F766F6C74616765AE
:1006A0003F3B626174745F66756C6C5F766F6C74EF
:1006B0006167653D0D0ACDE0EFF0FFE6E5EDE8E5A9
:1006C00020F0E0E7F0FFE62E20E1E0F2E0F0E5E8E0
:1006D00020ECC23B696E7428343530302C34353010
:1006E0003030293B626174745F6C6F775F766F6C3A
:1006F000746167653F3B626174745F6C6F775F76AE
:100700006F6C746167653D0D0A00303132333435EA
:10071000363738390001020405070A0F1114191E73
:100720002328324B640011241FBECFE5D8E0DEBF82
:10073000CDBF12E0A0E6B0E0E4EAF9E502C0059022
:100740000D92A633B107D9F714E0A6E3B2E001C0D9
:100750001D92AE3EB107E1F70E94B9220C94D02C55
:100760000C940000E7E3F0E0808180628083808168
:1007700080688083808180648083E8E3F0E080810A
:100780008F7D808380818F77808380818F7B808342
:100790000895DF93CF9300D0CDB7DEB78A8380E88A
:1007A000898320E030E0E8E3F0E099818A818923C1
:1007B00021F480818F7D808303C08081806280836B
:1007C00080818068808380818F778083898186950E
:1007D00089832F5F3F4F2830310539F7E8E3F0E098
:1007E00080818F7B80838081806480830F900F90D5
:1007F000CF91DF91089580E00E94C9030895809110
:1008000054028460809354020E94C9038091540270
:100810008B7F809354020E94C90308951F93982FE1
:10082000662331F08091540282608093540205C0A7
:10083000809154028D7F80935402992334F48091E7
:10084000540280648093540205C0809154028F7BCF
:1008500080935402192F96FF06C080915402806243
:100860008093540205C0809154028F7D809354027E
:1008700015FF06C08091540280618093540205C028
:10088000809154028F7E8093540214FF06C08091A1
:10089000540288608093540205C080915402877F7F
:1008A00080935402809154020E94C9030E94FF0366
:1008B00080E49FE10197F1F713FF06C08091540295
:1008C00080648093540205C0809154028F7B809392
:1008D000540212FF06C08091540280628093540239
:1008E00005C0809154028F7D8093540211FF06C091
:1008F0008091540280618093540205C0809154021B
:100900008F7E8093540210FF06C08091540288604D
:100910008093540205C080915402877F80935402D3
:10092000809154020E94C9030E94FF0380E49FE16A
:100930000197F1F71F91089560E00E940E04089559
:1009400081E090E00E949C04089561E00E940E0402
:1009500008958061809354020E94FF0380EE9EE21E
:100960000197F1F70895DF93CF930F92CDB7DEB7DC
:10097000803418F480E4898301C019828981805809
:100980000E949C0489810F90CF91DF9108958A3055
:1009900031F48091420290E00E94B3040895803CBB
:1009A00028F0E82FF0E0EE50F040849161E00E94E2
:1009B0000E04809142028F5F809342020895CF938C
:1009C000DF93FC018081882339F0EF010E94C70486
:1009D000898121968823D1F7DF91CF9108951F93C4
:1009E000182F662331F480580E949C041093420211
:1009F00007C080540E949C04812F805C8093420237
:100A00001F91089582E00E949C0482E0809342023C
:100A10000895CF93DF93FC018491882349F0EF017F
:100A200021960E94C704FE01219684918823C9F76C
:100A3000DF91CF9108958091540280688093540291
:100A40000E94C9030895809154028F7780935402C5
:100A50000E94C903089580E40E949C048EE00E94D5
:100A6000A50481E10E94A50481E10E94A50481E121
:100A70000E94A50481E10E94A50481E10E94A504D1
:100A80008FE10E94A50480E00E94A5048EE00E94F0
:100A9000A50481E10E94A50481E10E94A50481E1F1
:100AA0000E94A50481E10E94A5048FE10E94A50493
:100AB0008FE10E94A50480E00E94A5048EE00E94C0
:100AC000A50481E10E94A50481E10E94A50481E1C1
:100AD0000E94A5048FE10E94A5048FE10E94A50455
:100AE0008FE10E94A50480E00E94A5048EE00E9490
:100AF000A50481E10E94A50481E10E94A5048FE183
:100B00000E94A5048FE10E94A5048FE10E94A50424
:100B10008FE10E94A50480E00E94A5048EE00E945F
:100B2000A50481E10E94A5048FE10E94A5048FE144
:100B30000E94A5048FE10E94A5048FE10E94A504F4
:100B40008FE10E94A50480E00E94A5048EE00E942F
:100B5000A5048FE10E94A5048FE10E94A5048FE106
:100B60000E94A5048FE10E94A5048FE10E94A504C4
:100B70008FE10E94A50480E00E94A50480E80E9405
:100B80009C0408950E94B2030E94FB031092540239
:100B9000109242022EEB30E040E951E0CA01019789
:100BA000F1F721503040D1F70E94B20324EB30E03E
:100BB00040E951E0CA010197F1F721503040D1F7E7
:100BC00088E090E00E94A9040E94FF030E94FF03B6
:100BD00080E090E00E94A90488E290E00E949C04DA
:100BE00088E090E00E949C0481E090E00E949C04D8
:100BF00084E090E00E949C048CE090E00E949C04C1
:100C000086E090E00E949C040E942B05089580E4F9
:100C10000E949C048EE00E94A5048FE10E94A5041E
:100C20008FE10E94A5048FE10E94A5048FE10E943C
:100C3000A5048FE10E94A5048FE10E94A50480E035
:100C40000E94A50480E00E94A50480E00E94A50403
:100C50008AE00E94A5048FE10E94A5048EE00E9414
:100C6000A50484E00E94A50480E00E94A50480E021
:100C70000E94A50486E00E94A5048FE00E94A504BE
:100C80008FE00E94A5048FE00E94A5048FE00E94DF
:100C9000A50486E00E94A5048FE00E94A50480E0E0
:100CA0000E94A5048EE00E94A5048AE10E94A5048A
:100CB0008EE10E94A5048AE10E94A5048EE10E94B3
:100CC000A5048AE10E94A5048FE00E94A50480E0AB
:100CD0000E94A50486E00E94A50489E00E94A50464
:100CE00086E00E94A5048FE00E94A5048FE40E9484
:100CF000A5048FE00E94A50486E00E94A50486E07A
:100D00000E94A50480E10E94A5048FE10E94A50431
:100D10008FE10E94A5048FE10E94A50480E10E945A
:100D2000A50480E10E94A50480E10E94A50480E161
:100D30000E94A50480E80E949C0408951F93182F28
:100D400080E40E949C04123009F444C0133030F453
:100D5000112371F0113009F0A0C023C0143009F440
:100D60006BC0143008F44FC0153009F096C07DC038
:100D70008EE00E94A50481E10E94A50481E10E9409
:100D8000A50481E10E94A50481E10E94A50481E1FE
:100D90000E94A5048FE10E94A50480E00E94A504A2
:100DA0007CC08EE00E94A50481E10E94A50481E13F
:100DB0000E94A50481E10E94A50481E10E94A5048E
:100DC0008FE10E94A5048FE10E94A50480E00E94AB
:100DD000A50463C08EE00E94A50481E10E94A504E1
:100DE00081E10E94A50481E10E94A5048FE10E9497
:100DF000A5048FE10E94A5048FE10E94A50480E074
:100E00000E94A5044AC08EE00E94A50481E10E94D0
:100E1000A50481E10E94A5048FE10E94A5048FE151
:100E20000E94A5048FE10E94A5048FE10E94A50401
:100E300080E00E94A50431C08EE00E94A50481E1FB
:100E40000E94A5048FE10E94A5048FE10E94A504E1
:100E50008FE10E94A5048FE10E94A5048FE10E940A
:100E6000A50480E00E94A50418C08EE00E94A5049D
:100E70008FE10E94A5048FE10E94A5048FE10E94EA
:100E8000A5048FE10E94A5048FE10E94A5048FE1D3
:100E90000E94A50480E00E94A50480E80E949C04B2
:100EA0001F91089510927402E1E3F0E08081877F42
:100EB0008083E2E3F0E08081877F8083E5E5F0E0F6
:100EC00080818860808380818B7F8083EBE5F0E088
:100ED000808180688083109255020895382F20E029
:100EE000E1E3F0E0A8E1B1E060E570E040E451E06A
:100EF00030FF0AC08081886080838081877F808303
:100F0000CA010197F1F70CC0808188608083CD0110
:100F10000197F1F78081877F8083CB010197F1F7FB
:100F20002F5F283011F03695E3CF089530E020E0B0
:100F3000E1E3F0E064E170E0A0E3B0E040E253E020
:100F40008081886080838081877F8083CB01019747
:100F5000F1F78C91887080934C02269580914C0219
:100F600081112068CA010197F1F73F5F383041F7DE
:100F7000822F0895282F90E038E1822F862780FF66
:100F800006C0822F83278695282F206801C02695CA
:100F90009F5F983011F06695F0CF822F0895CF9320
:100FA000DF9380915502882309F06FC080E098E0BC
:100FB0000197F1F7E1E3F0E080818860808380E8C9
:100FC00097E00197F1F78081877F80838CE190E043
:100FD0000197F1F7839B59C080E491E00197F1F705
:100FE000839953C080EC93E00197F1F7839B4DC048
:100FF00080E897E00197F1F783E30E946E070E9473
:10100000960780935602809156028823F1F16091F1
:10101000560280E00E94BA07809353021092580251
:10102000809158028630F8F4CDE4D2E00E94960711
:10103000809357028091580290915702FE01E80F69
:10104000F11D908380915302609157020E94BA076C
:1010500080935302809158028F5F80935802809151
:101060005802863018F30E94960780935802909198
:10107000580280915302981721F082E08093550224
:1010800004C081E08093550205C0EAE5F0E080816C
:1010900080688083DF91CF910895E0E2F0E08CE0FA
:1010A000808380818A3010F48AE080B9E1E2F0E048
:1010B00080818C7F80830895CF93DF93582FE6E55E
:1010C000F0E044EAA1E2B0E0C3E2D0E030EA24E894
:1010D000408380818823ECF78C91887F8830B1F53C
:1010E0003883208380818823ECF78C91887F883136
:1010F00079F793B984E886BFE6E5F0E0808188233C
:10110000ECF781B1887F883209F553B984E886BF4E
:10111000E6E5F0E080818823ECF781B1887F8832B2
:10112000A9F463B984E886BFE6E5F0E0808188230E
:10113000ECF781B1887F883249F484E986BFE6E51F
:10114000F0E0808184FDFDCF81E001C080E0DF918F
:10115000CF910895CF93DF93582FE6E5F0E044EA6E
:10116000A1E2B0E0C3E2D0E030EA24E8408380812D
:101170008823ECF78C91887F883009F04DC0388344
:10118000208380818823ECF78C91887F883171F7E8
:1011900093B984E886BFE6E5F0E080818823ECF728
:1011A00081B1887F8832C1F553B984E886BFE6E50E
:1011B000F0E080818823ECF781B1887F883261F587
:1011C00084EA86BFE6E5F0E080818823ECF781B110
:1011D000887F803109F581EA83B984E886BFE6E536
:1011E000F0E080818823ECF781B1887F8034A1F41E
:1011F00084E886BFE6E5F0E080818823ECF781B1E2
:10120000887F883549F493B184E986BFE6E5F0E04C
:10121000808184FDFDCF01C090E0892FDF91CF91C7
:1012200008950F931F93CF93DF938C01E6E5F0E0D1
:1012300034EAA1E2B0E0C3E2D0E020EA94E83083EF
:1012400080818823ECF78C91887F883009F048C032
:101250002883908380818823ECF78C91887F883164
:1012600071F773B984E886BFE6E5F0E080818823F2
:10127000ECF781B1887F883299F563B984E886BF3D
:10128000E6E5F0E080818823ECF781B1887F883241
:1012900039F541155105D9F020E030E0C3E2D0E046
:1012A000E6E5F0E094E861E270E0D8018D918D010F
:1012B0008883908380818823ECF7DB018C91887F81
:1012C000883271F42F5F3F4F2417350770F384E99C
:1012D00086BFE6E5F0E0808184FDFDCF81E001C0BE
:1012E00080E0DF91CF911F910F9108950F931F938D
:1012F000CF93DF938C01E6E5F0E034EAA1E2B0E0C1
:10130000C3E2D0E020EA94E8308380818823ECF7C0
:101310008C91887F883009F071C028839083808108
:101320008823ECF78C91887F883171F773B984E852
:1013300086BFE6E5F0E080818823ECF781B1887F05
:10134000883209F05BC063B984E886BFE6E5F0E067
:1013500080818823ECF781B1887F883209F04EC004
:1013600084EA86BFE6E5F0E080818823ECF781B16E
:10137000887F803109F042C081EA83B984E886BF62
:10138000E6E5F0E080818823ECF781B1887F803446
:10139000A9F541505040D9F020E030E0E6E5F0E01A
:1013A00094EC61E270E0C3E2D0E090838081882316
:1013B000ECF7DB018C91887F803501F58881D801BD
:1013C0008D938D012F5F3F4F2417350770F384E80D
:1013D00086BFE6E5F0E080818823ECF781B1887F65
:1013E000883561F483B1F801808384E986BFE6E53E
:1013F000F0E0808184FDFDCF81E001C080E0DF91DD
:10140000CF911F910F910895CF93DF93582FE6E569
:10141000F0E044EAA1E2B0E0C3E2D0E030EA24E840
:10142000408380818823ECF78C91887F8830E1F5B8
:101430003883208380818823ECF78C91887F8831E2
:1014400079F793B984E886BFE6E5F0E080818823E8
:10145000ECF781B1887F883239F553B984E886BFCB
:10146000E6E5F0E080818823ECF781B1887F88325F
:10147000D9F484EA86BFE6E5F0E080818823ECF7C2
:1014800081B1887F803181F481EA83B984E886BFA5
:10149000E6E5F0E080818823ECF781B190E0887F79
:1014A000803419F491E001C090E0892FDF91CF9151
:1014B0000895DC0184EC86BFE6E5F0E080818823B6
:1014C000ECF781B1887F803511F080E0089583B119
:1014D0008C9381E00895DC0184E886BFE6E5F0E0C6
:1014E00080818823ECF781B1887F883511F080E016
:1014F000089583B18C9384E986BFE6E5F0E08081AE
:1015000084FDFDCF81E00895CF93DF93E4E3F0E025
:101510008081806280834AE350E0DA018C918260AE
:101520008C93808180648083A5E3B0E08C918F7B75
:101530008C938081806880838C918F778C9380815D
:1015400088608083808180618083808184608083E3
:1015500021E330E0E901888180688883E7E3F0E0F7
:10156000808188608083808180618083A8E3B0E08F
:101570008C9180618C93EA0188818160888380816D
:10158000846080838C918B7F8C93E901888180615A
:10159000888388818B7F888380818E7F80838C91F4
:1015A00081608C9380818B7F80838C9184608C930D
:1015B00080818D7F80838C9182608C93E2E3F0E068
:1015C00080818F7D8083FA0180818F778083EBE338
:1015D000F0E080818F778083DF91CF9108958DE84F
:1015E00083BD89E085BDE9E5F0E080818F77808368
:1015F0000895E1E3F0E080818B7F8083E5E5F0E012
:1016000080818260808380818E7F8083EBE5F0E043
:101610008081806480830895982F969596959695FD
:10162000E92FF0E09F01220F331F220F331F220FFB
:10163000331F821B662389F0E657FD4F408127E068
:1016400030E0281B310981E090E002C0880F991F2B
:101650002A95E2F7482B40830895E657FD4F4081D5
:1016600027E030E0281B310981E090E002C0880FBC
:10167000991F2A95E2F78095842380830895982FF7
:10168000969596959695E92FF0E09F01220F331FCE
:10169000220F331F220F331F821B662389F0E15371
:1016A000FD4F408127E030E0281B310981E090E0C8
:1016B00002C0880F991F2A95E2F7482B40830895AE
:1016C000E153FD4F408127E030E0281B310981E0E4
:1016D00090E002C0880F991F2A95E2F78095842335
:1016E000808308951092EA0281E080936002E9E528
:1016F000F0E0808180688083E5E3F0E080818062B3
:1017000080830895E7EAF2E020E030E043E450E02F
:1017100066E870E0880F1AF46193719302C04193F8
:1017200051932F5F3F4F27303105A1F783E490E0BD
:101730009093A6028093A5020895813089F08130AC
:1017400028F08230C9F0833061F522C0E7EBF2E087
:1017500083E490E09183808332979183808308951E
:10176000E7EBF2E086E890E091838083329783E4B0
:1017700090E0918380830895E7EBF2E083E490E0CA
:1017800091838083329786E890E0918380830895E7
:10179000E7EBF2E086E890E09183808332979183D3
:1017A00080830895873009F4C5C0883090F4833071
:1017B00009F468C0843030F48130C1F1823008F01F
:1017C0004BC020C0853009F489C0863008F09CC029
:1017D0006FC08B3009F406C18C3038F4893009F4BD
:1017E000D5C08A3008F0E8C0BBC08D3009F426C1EE
:1017F0008D3008F40DC18E3009F436C18F3009F0F8
:101800005CC148C1AFEBB2E083E490E011969C93D9
:101810008E93FD01329791838083FD0134979183EC
:101820008083169711969C938E930895AFEBB2E048
:1018300086E890E011969C938E93FD01329783E4A5
:1018400090E091838083FD01349791838083169784
:1018500011969C938E930895AFEBB2E023E430E0B1
:1018600011963C932E93FD01329786E890E0918388
:101870008083FD01349731832083169711963C9322
:101880002E930895AFEBB2E086E890E011969C931A
:101890008E93FD01329791838083FD01349783E419
:1018A00090E091838083169711969C938E93089570
:1018B000AFEBB2E023E430E011963C932E93FD01B0
:1018C000329731832083FD01349786E890E091833D
:1018D0008083169711963C932E930895AFEBB2E058
:1018E00026E830E011963C932E93FD01329783E475
:1018F00090E091838083FD01349731832083169794
:1019000011969C938E930895AFEBB2E023E430E000
:1019100011963C932E93FD01329786E890E09183D7
:101920008083FD01349791838083169711963C93B1
:101930002E930895AFEBB2E086E890E011969C9369
:101940008E93FD01329791838083FD0134979183BB
:101950008083169783E490E011969C938E9308956C
:10196000AFEBB2E083E490E011969C938E93FD017F
:10197000329791838083FD013497918380831697FA
:1019800086E890E011969C938E930895AFEBB2E0B9
:1019900026E830E011963C932E93FD01329783E4C4
:1019A00090E091838083FD01349791838083169723
:1019B00011963C932E930895AFEBB2E023E430E010
:1019C00011963C932E93FD01329786E890E0918327
:1019D0008083FD01349731832083169711969C9361
:1019E0008E930895AFEBB2E026E830E011963C9379
:1019F0002E93FD01329731832083FD01349783E4D8
:101A000090E091838083169711963C932E930895CE
:101A1000AFEBB2E083E490E011969C938E93FD01CE
:101A2000329791838083FD01349786E890E091831B
:101A30008083169711969C938E930895AFEBB2E036
:101A400026E830E011963C932E93FD01329783E413
:101A500090E091838083FD01349731832083169732
:101A600011963C932E930895AFEBB2E083E490E09F
:101A700011969C938E93FD01329786E890E09183B6
:101A80008083FD01349791838083169711969C93F0
:101A90008E930895AFEBB2E086E890E011969C93A8
:101AA0008E93FD01329791838083FD01349791835A
:101AB0008083169711969C938E930895482F282F14
:101AC00026952695269530E0F901E657FD4F808151
:101AD00090E0220F331F220F331F220F331F421BB0
:101AE00027E030E0241B310902C0959587952A959F
:101AF000E2F781700895482F282F26952695269580
:101B000030E0F901E153FD4F808190E0220F331F57
:101B1000220F331F220F331F421B27E030E0241B0C
:101B2000310902C0959587952A95E2F7817008954D
:101B300080E88CBFE3E5F0E088E480838081816009
:101B400080838081806280830895AFE4B0E08C91CF
:101B50008E7F8C938C918D7F8C93EEE4F0E080816E
:101B60008860808380818F7E80838C918F7B8C9333
:101B70008C918F778C9380818F7E808380818F7D05
:101B8000808380818E7F808380818260808380815A
:101B90008B7F808389EF8ABDE9E5F0E080818061F9
:101BA00080830895982FA4EEB2E0FD011192108277
:101BB000FD013296108213961C928695482F50E0B4
:101BC0001416150674F420E030E064EE72E08FEF36
:101BD000FB01E20FF31F80832F5F3F4F2417350770
:101BE000BCF39A01220F331F892F90E0821B930BC5
:101BF000181619062CF4FA01EC51FD4F8CEC808379
:101C0000089586B38695809581700895EF92FF922E
:101C10000F931F93CF93DF93FC01062FF72E142F02
:101C20008FE0E13AF80708F04EC0C091C802D091A9
:101C3000C9028FEF9FEF9093C9028093C80280EA98
:101C40009FE0BF010E94532CE62E802F9F2D9C0108
:101C5000213A310510F020EA30E0CF016AE070E06F
:101C60000E94532C269FA001279F500D369F500D98
:101C700011244115510519F1E0E0F0E0ACE5B0E0C8
:101C80006E2D70E09B011C931092700210926F02F7
:101C900080916F029091700286179707C8F31C928B
:101CA0001092700210926F0280916F0290917002F8
:101CB00082179307C8F33196E417F50720F3D09302
:101CC000C902C093C802DF91CF911F910F91FF907D
:101CD000EF9008950F931F9302E310E0F8018081C5
:101CE0008061808388EE93E063E070E040E80E94CA
:101CF000060E84EF91E063E070E040E80E94060E7B
:101D0000F80180818F7E80831F910F9108958F92BB
:101D10009F92AF92BF92CF92DF92EF92FF920F937A
:101D20001F93DF93CF9300D0CDB7DEB7D62E898334
:101D3000662329F422E030E043E050E007C0462F5C
:101D400050E09A01215030400AF476C00F2EFAE09C
:101D5000EF2EF7E0FF2EF02D0CE312E089816AE010
:101D60000E94472C9A8389810E94472C89838A810B
:101D7000F701E80FF11DE491D801A20FB31FEC9316
:101D8000215030405AF7FA01E45CFD4F1082DD200B
:101D900009F041C00F2EFCE3CF2EF2E0DF2EF02D34
:101DA00056010894A11CB11C0DE312E048010894EF
:101DB00081089108B4016E5F7F4FA4014D5F5F4FB2
:101DC00094012C5F3F4FD40115960F2EF6E0EF2EB5
:101DD000FF24F02DE80CF91CF6018081F5019081BB
:101DE0008033C9F49923B9F0F8018081F40180832C
:101DF000FB018081F8018083FA018081FB018083EF
:101E0000F9018081FA0180838C91F9018083F701C7
:101E100080818C93E1CF8CE392E00F900F90CF9173
:101E2000DF911F910F91FF90EF90DF90CF90BF90C7
:101E3000AF909F908F900895FA01E45CFD4F10825F
:101E4000EACF8F929F92AF92BF92CF92DF92EF92A2
:101E5000FF920F931F93DF93CF9300D000D0CDB7A5
:101E6000DEB7462F9A838983662341F404E010E0AD
:101E70000F2EF5E0EF2EFF24F02D07C0E62EFF24F5
:101E80008701015010400AF488C00F2EFAE0AF2EEF
:101E9000F7E0BF2EF02D0F2EF6E3CF2EF2E0DF2E6F
:101EA000F02D89819A816AE070E00E94532C282FDE
:101EB000392F3C832B8389819A816AE070E00E94EC
:101EC000532C862F972F9A8389838B819C81F501D0
:101ED000E80FF91FE491D601A00FB11FEC93015058
:101EE0001040FAF6F701EA5CFD4F1082442309F036
:101EF00041C00F2EF6E3CF2EF2E0DF2EF02D56017B
:101F00000894A11CB11C07E312E048010894810861
:101F10009108B4016E5F7F4FA4014D5F5F4F940144
:101F20002C5F3F4FD40115960F2EF6E0EF2EFF24C5
:101F3000F02DE80CF91CF6018081F50190818033C9
:101F4000C9F49923B9F0F8018081F4018083FB0181
:101F50008081F8018083FA018081FB018083F9018F
:101F60008081FA0180838C91F9018083F70180815F
:101F70008C93E1CF86E392E00F900F900F900F903B
:101F8000CF91DF911F910F91FF90EF90DF90CF9055
:101F9000BF90AF909F908F900895F701EA5CFD4F3E
:101FA0001082E8CF0E94A00481E00E94C7048091C3
:101FB000C5029091C60260E00E94870E0E94DF0475
:101FC00087E060E00E94EF0480E00E94C70480E0A8
:101FD00061E00E94EF0482E00E94C70480917802D1
:101FE0009091790263E00E94870E0E94DF048FE2E5
:101FF0000E94C70485E061E00E94EF0483E00E9434
:10200000C7048091710262E00E94870E0E94DF0483
:1020100080E690E00E94DF04089581E060E00E9485
:10202000EF048091C5029091C60263E00E94870E82
:102030000E94DF04089581E061E00E94EF04809136
:1020400078029091790263E00E94870E0E94DF047B
:10205000089586E061E00E94EF048091710262E0E1
:102060000E94870E0E94DF0480E690E00E94DF0459
:10207000089580EC87B987E886B90895E7E2F0E033
:1020800090818770892B8083E6E2F0E08081806414
:102090008083808184FFFDCFE6E2F0E08081806173
:1020A000808324B135B1822F932F0895FF920F932F
:1020B0001F93DF93CF9300D00F92CDB7DEB7162FCB
:1020C0006983072F7A838B83F82E0E94A0040E94D5
:1020D000020582E690E00E94DF048F2D60E00E94FE
:1020E000870E0E94DF0480E061E00E94EF0484E03C
:1020F0000E94C704812F60E00E94870E0E94DF04C7
:1021000085E061E00E94EF0485E00E94C704802F13
:1021100060E00E94870E0E94DF040F900F900F90E6
:10212000CF91DF911F910F91FF900895843321F19A
:10213000853360F48133C1F0823318F4803341F584
:1021400015C08233A9F0833319F514C08733D1F059
:10215000883328F4853391F08633D1F411C0883365
:1021600099F08933A9F412C081E0089580E00895C0
:1021700082E0089583E0089584E0089585E008955D
:1021800086E0089587E0089588E0089589E008953D
:1021900085E508950895CF93DF93582FE6E5F0E0A5
:1021A00044EAA1E2B0E0C3E2D0E030EA24E84083B0
:1021B00080818823ECF78C91887F883009F083C078
:1021C0003883208380818823ECF78C91887F883145
:1021D00071F793B984E886BFE6E5F0E08081882353
:1021E000ECF781B1887F883209F06DC053B984E87B
:1021F00086BFE6E5F0E080818823ECF781B1887F37
:10220000883209F060C084EA86BFE6E5F0E08081AC
:102210008823ECF781B1887F803109F054C081EACE
:1022200083B984E886BFE6E5F0E080818823ECF797
:1022300081B1887F803409F046C06150704001F15F
:1022400020E030E0E6E5F0E094ECA1E2B0E0C3E2AB
:10225000D0E041E0908380818823ECF78C91887FE7
:10226000803589F58091CB028823E1F788818093BE
:10227000C4024093CB022F5F3F4F2617370750F31E
:1022800084E886BFE6E5F0E080818823ECF781B141
:10229000887F8835C1F48091CB028823E1F783B130
:1022A0008093C40281E08093CB0284E986BFE6E597
:1022B000F0E0808184FDFDCF1CBE1092C40210921C
:1022C000CB0281E001C080E0DF91CF91089582E0F0
:1022D00090E00E94A02C089580E090E00E94A02C45
:1022E0000895EF92FF920F931F93CF93DF938BE0AC
:1022F00090E00E94A02C909156028917E1F4C0E072
:10230000D0E00F2EFBE0EF2EF0E0FF2EF02D0DE4DD
:1023100012E0CE0101968E0D9F1D0E94A02CF801A7
:10232000EC0FFD1F9081891731F42196C630D1053D
:1023300081F781E001C080E0DF91CF911F910F9183
:10234000FF90EF90089582E090E00E94A02C60E062
:102350000E94870E0E94992B88E690E00E94992B9C
:10236000089581E090E00E94A02C60E00E94870E1A
:102370000E94992B88E690E00E94992B089584E0B2
:1023800090E00E94A02C60E00E94870E0E94992B92
:1023900088E690E00E94992B089583E090E00E94E7
:1023A000A02C60E00E94870E0E94992B88E690E0A6
:1023B0000E94992B08951F93DF93CF930F92CDB76F
:1023C000DEB711E055C00E94F52B898389818536DF
:1023D000D9F1863630F4803389F0813309F048C072
:1023E00020C0883621F0843709F042C031C01093F4
:1023F00076021092CD021092CC023AC08091760201
:102400008823B1F18091CC029091CD029C012F5F85
:102410003F4F3093CD022093CC0260E00E943F0BEF
:1024200027C080917602882319F18091CC02909187
:10243000CD029C012F5F3F4F3093CD022093CC0201
:10244000612F0E943F0B14C01092760282E015C0EB
:1024500080917602882351F08091CC029091CD0238
:10246000892B21F01092760281E007C0109276024B
:1024700080914B02882309F0A6CF0F90CF91DF9176
:102480001F9108950F931F9386E290E00E94A82C5D
:102490008C0188E290E00E94A82CBC01C8010E9437
:1024A000CB101F910F9108950F931F9382E290E03C
:1024B0000E94A82C8C0184E290E00E94A82CBC0110
:1024C000C8010E94CB101F910F9108950F931F9385
:1024D0008EE190E00E94A82C8C0180E290E00E94A6
:1024E000A82CBC01C8010E94CB101F910F91089528
:1024F0000E94661208950F931F938AE190E00E9454
:10250000A82C8C018CE190E00E94A82CBC01C80191
:102510000E94CB101F910F9108950E947B12089585
:102520000F931F9386E190E00E94A82C8C0188E114
:1025300090E00E94A82CBC01C8010E94CB101F9102
:102540000F91089580916C0290916D02029750F066
:1025500081E090E090936D0280936C028091E202A2
:102560008823E1F70E94901208950F931F9382E150
:1025700090E00E94A82C8C0184E190E00E94A82C9D
:10258000BC01C8010E94CB101F910F9108950E94B9
:10259000B5128FE690E00E94992B08950E94A82C16
:1025A00060E00E94210F0E94992B88E690E00E9433
:1025B000992B089588E290E00E94CE12089586E259
:1025C00090E00E94CE12089584E290E00E94CE1224
:1025D000089582E290E00E94CE12089580E290E099
:1025E0000E94CE1208958EE190E00E94CE120895CE
:1025F0008CE190E00E94CE1208958AE190E00E9462
:10260000CE12089588E190E00E94CE12089586E1EE
:1026100090E00E94CE12089584E190E00E94CE12D4
:10262000089582E190E00E94CE120895EF92FF9209
:102630000F931F93DF93CF9300D0CDB7DEB787E022
:102640000E943E109A83898386E090E00E94A82C25
:102650007C0188E090E00E94A82C2091E3022223D4
:1026600021F0213009F08AC04BC0880F991F880FD4
:10267000991F6BE470E00E94532C862F972F8C01DA
:1026800085E060E00E94EF0484E790E00E94DF04B0
:1026900080E00E94C70487E060E00E94EF04898127
:1026A0009A818017910720F480E00E949E0666C000
:1026B000C701880F991F880F991F6BE470E00E9473
:1026C000532C862F972FBC0189819A81681779072F
:1026D00020F485E00E949E0651C029813A81201B8A
:1026E000310BC901880F991F820F931F601B710B5B
:1026F000880F991F0E94532C862F0E949E063EC071
:1027000085E060E00E94EF0429813A81C901880FC9
:10271000991F820F931F9C01220F331F220F331F1B
:10272000820F931F96958795969587959695879591
:102730009A83898389819A8164E670E00E94532C90
:10274000862F60E00E94870E0E94DF0487E790E0FA
:102750000E94DF0489819A8164E670E00E94532C14
:102760006AE070E00E94532C862F60E00E94870E82
:102770000E94DF0480E690E00E94DF040F900F903B
:10278000CF91DF911F910F91FF90EF90089588E016
:1027900090E00E94A82C60E00E94210F0E94992BDB
:1027A0008BE694E00E94A92B089586E090E00E94B9
:1027B000A82C60E00E94210F0E94992B8BE694E0E8
:1027C0000E94A92B089580E090E00E94A02C60E078
:1027D0000E94870E0E94992B8BE694E00E94A92B01
:1027E00008958AE290E00E94A02C60E00E94870E8B
:1027F0000E94992B8BE694E00E94A92B08958AE011
:1028000090E00E94A02C803439F0803849F489E7A8
:1028100090E00E94992B04C08BE790E00E94992BD6
:102820008BE694E00E94A92B0895CF92DF92EF925D
:10283000FF920F931F93DF93CF9300D0CDB7DEB7F6
:102840001A8220E00F2EFEEEEF2EF3E0FF2EF02D89
:102850000F2EFAE0CF2EF02DDD24D39423C08091EB
:102860004A02F701E80FF11D908199838F5F8093F1
:102870004A0289818032B1F08981803370F0898188
:102880008A3358F40A8189810E9496100C9D800138
:102890001124800F8A832D2D05C08DE790E00E94C2
:1028A000992B40C080914A02F701E80FF11D808109
:1028B0008D30A9F6222329F48FE094E00E94A92B01
:1028C00031C08A81873018F48A81882329F482E311
:1028D00094E00E94A92B26C08A818330A1F0843025
:1028E00028F4813051F08230C9F40AC0853089F073
:1028F000853060F0863091F40FC00E94B5120EC092
:102900000E9490120BC00E947B1208C00E946612A7
:1029100005C00E94541202C00E9442128FE690E04D
:102920000E94992B0F900F90CF91DF911F910F91E3
:10293000FF90EF90DF90CF900895DF92EF92FF929B
:102940000F931F93DF93CF9300D00F92CDB7DEB7D5
:102950001B821A8220E00F2EFEEEEF2EF3E0FF2EF8
:10296000F02DDD24D3942EC080914A02F701E80FA8
:10297000F11D908199838F5F80934A028981803213
:1029800009F189818033C8F089818A33B0F40A81E2
:102990001B8189810E9496109801220F331F000F1E
:1029A000111F000F111F000F111F200F311F280FC3
:1029B000311D3B832A832D2D05C08DE790E00E94B9
:1029C000992B4FC080914A02F701E80FF11D8081D9
:1029D0008D3051F6222329F48FE094E00E94A92B38
:1029E00040C08A819B818150924028F082E394E02C
:1029F0000E94A92B36C00E94E62B8FE690E00E9431
:102A0000992B1092DF021092DE028091DE029091EB
:102A1000DF028A58924020F480914B028823ACF761
:102A200080914B028823CCF46A817B817695762F46
:102A30006627779567958EEE93E040E850E00E9418
:102A40001109882329F08FE690E00E94992B09C094
:102A500085E890E00E94992B04C080EA90E00E94F3
:102A6000992B0F900F900F90CF91DF911F910F91A5
:102A7000FF90EF90DF900895CF92DF92EF92FF9258
:102A80000F931F93DF93CF9300D0CDB7DEB71A8299
:102A900020E00F2EFEEEEF2EF3E0FF2EF02D0F2E96
:102AA000FAE0CF2EF02DDD24D39423C080914A028A
:102AB000F701E80FF11D908199838F5F80934A029F
:102AC00089818032B1F08981803370F089818A33C5
:102AD00058F40A8189810E9496100C9D800111246E
:102AE000800F8A832D2D05C081E594E00E94A92BDB
:102AF0002DC080914A02F701E80FF11D80818D30D1
:102B0000A9F6222329F48FE094E00E94A92B1EC08D
:102B10008A81823038F48A818A81882341F0813029
:102B200089F40BC082E394E00E94A92B0FC08AE0D5
:102B300090E060E80E94AE2C05C08AE090E060E47E
:102B40000E94AE2C8BE694E00E94A92B0F900F9070
:102B5000CF91DF911F910F91FF90EF90DF90CF9079
:102B60000895CF92DF92EF92FF920F931F93DF931E
:102B7000CF9300D0CDB7DEB71A8220E00F2EFEEE45
:102B8000EF2EF3E0FF2EF02D0F2EFAE0CF2EF02DDA
:102B9000DD24D39423C080914A02F701E80FF11D90
:102BA000908199838F5F80934A0289818032B1F04E
:102BB0008981803370F089818A3358F40A81898150
:102BC0000E9496100C9D80011124800F8A832D2D68
:102BD00005C08DE790E00E94992B18C080914A02B1
:102BE000F701E80FF11D80818D30A9F6222329F429
:102BF0008FE094E00E94A92B09C06A8184E090E0F4
:102C00000E94AE2C8FE690E00E94992B0F900F90BF
:102C1000CF91DF911F910F91FF90EF90DF90CF90B8
:102C200008958F929F92AF92BF92CF92DF92EF92D0
:102C3000FF920F931F93DF93CF9300D0CDB7DEB7F2
:102C40005C01862E942E1A8220E00F2EFEEEEF2ECF
:102C5000F3E0FF2EF02D0F2EFAE0CF2EF02DDD2425
:102C6000D39423C080914A02F701E80FF11D9081AF
:102C700099838F5F80934A0289818032B1F0898184
:102C8000803370F089818A3358F40A8189810E94E7
:102C900096100C9D80011124800F8A832D2D05C074
:102CA00081E594E00E94A92B22C080914A02F7019D
:102CB000E80FF11D80818D30A9F6222329F48FE0E1
:102CC00094E00E94A92B13C08A81981618F08A817B
:102CD000881528F482E394E00E94A92B08C06A8139
:102CE000C5010E94AE2C8FE690E00E94992B0F90B8
:102CF0000F90CF91DF911F910F91FF90EF90DF9098
:102D0000CF90BF90AF909F908F90089580E090E01B
:102D100060E043E00E94111608958AE290E060E0CE
:102D200041E00E941116089582E090E060E04FE0DB
:102D30000E941116089581E090E060E04FE70E9444
:102D40001116089583E090E060E04AE50E941116B4
:102D50000895EF92FF921F93CF93DF931092610239
:102D60001092CA021092C7028AE290E00E94A02C40
:102D7000182F0E94A00488E00E949C048CE00E940E
:102D80009C0488EA90E00E94DF0480E061E00E94F9
:102D9000EF04112329F081EB90E00E94DF0404C0CE
:102DA00085EB90E00E94DF0489EB90E00E94DF0455
:102DB000C1EBD0E00F2EF5EBEF2EF0E0FF2EF02D63
:102DC00021C08091CA02813021F08091C7028130F8
:102DD000C1F78091C7028130A9F41092C702112374
:102DE00049F080E061E00E94EF04C7010E94DF0427
:102DF00010E008C080E061E00E94EF04CE010E9474
:102E0000DF0411E08091CA028130D9F61092CA0223
:102E10008AE290E00E94A02C181759F00E94A004AA
:102E20008FEB90E00E94DF048AE290E0612F0E9425
:102E3000AE2CDF91CF911F91FF90EF900895DF921C
:102E4000EF92FF920F931F93CF93DF931092610243
:102E50001092CA021092C7028AE090E00E94A02C51
:102E6000182F0E94A00488E00E949C048CE00E941D
:102E70009C0488EC90E00E94DF0480E061E00E9406
:102E8000EF04103429F481ED90E00E94DF0406C0C5
:102E9000103821F486ED90E00E94DF048BED90E085
:102EA0000E94DF04C6EDD0E000E80F2EF1EDEF2E1A
:102EB000F0E0FF2EF02DDD246894D6F821C080913B
:102EC000CA02813021F08091C7028130C1F7809120
:102ED000C7028130A9F41092C702103849F480E08B
:102EE00061E00E94EF04C7010E94DF041D2D08C0AD
:102EF00080E061E00E94EF04CE010E94DF04102F09
:102F00008091CA028130D9F61092CA028AE090E01C
:102F10000E94A02C181759F00E94A0048FEB90E09B
:102F20000E94DF048AE090E0612F0E94AE2CDF91C6
:102F3000CF911F910F91FF90EF90DF900895BF9276
:102F4000CF92DF92EF92FF920F931F93CF93DF9375
:102F50008C01EB016A01B22E109261021092CA023A
:102F60001092C702CB010E94A02CF82EF601E80FA8
:102F7000F11DE4900E94A00488E00E949C048CE073
:102F80000E949C04C8010E94DF0480E061E00E946E
:102F9000EF048E2D63E00E94870E0E94DF0489EB10
:102FA00090E00E94DF0424C08091C702813021F0AC
:102FB0008091CA028130C1F78091C7028130C1F48B
:102FC000FB1410F4F39404C0CE010E94A02CF82E40
:102FD0001092C70280E061E00E94EF04F601EF0D5D
:102FE000F11DE4918E2F63E00E94870E0E94DF04A2
:102FF0008091CA028130C1F61092CA02CE010E94AD
:10300000A02CF81651F00E94A0048FEB90E00E94D3
:10301000DF04CE016F2D0E94AE2CDF91CF911F9166
:103020000F91FF90EF90DF90CF90BF9008955F9247
:103030006F927F928F929F92AF92BF92CF92DF92C8
:10304000EF92FF920F931F93DF93CF930F92CDB721
:10305000DEB78C015B01E42E19821092CA02109235
:10306000C702CB010E94A02CFE2C8E1508F4F82E6E
:103070000E94A00488E00E949C048DE00E949C04B1
:10308000C8010E94DF0480E061E00E94EF048F2D00
:1030900063E00E94870E0E94DF0480EE90E00E94B1
:1030A000DF0484E061E00E94EF048981882309F055
:1030B00019C18F2D64E60E94472CC82E482F50E07E
:1030C0009A01220F331FCA01880F991F880F991F79
:1030D000880F991F280F391F8F2D6AE00E94472CF7
:1030E000082F021B8CE99FEF9C01429FC001439F68
:1030F000900D529F900D11244F2D480F802F90E07E
:103100009C01220F331F880F991F880F991F880F6A
:10311000991F280F391FD42ED21A8E2D64E60E94D3
:10312000472C682E772414E00F2EF4E65F2EF02D46
:103130008E2C99240F2EFAE0EF2EF02D8091CA02EA
:10314000882321F48091C7028130C1F71130D1F179
:10315000113038F0123009F479C0143009F0BAC0D7
:10316000ABC08091CA02813031F484E061E00E94FA
:10317000EF0414E0AFC08091C702813009F0AAC00B
:103180008C2D90E001966816790614F4CC2401C0C9
:10319000C3940E9DC00111242D2D280FC59CC00184
:1031A0001124F22EF80E80E061E00E94EF048F2DD2
:1031B00063E00E94870E0E94DF0480E061E00E94CD
:1031C000EF0488C08091CA02813031F480E061E070
:1031D0000E94EF0410E07EC08091C702813009F0A8
:1031E00079C0C59CB0011124CB018D0D911D202FFC
:1031F00030E02F5F3F4FA901440F551F220F331FAF
:10320000220F331F220F331F420F531F840F951FAE
:103210008816990624F0093010F40F5F01C000E011
:103220002D2D260F0E9DC0011124F22EF80E80E0E8
:1032300061E00E94EF048F2D63E00E94870E0E94E0
:10324000DF0481E061E00E94EF0444C08091CA0283
:10325000813029F461E00E94EF0411E03BC08091CD
:10326000C7028130B9F5C59CA00111240E9D9001C3
:1032700011248D2D90E00196840F951F820F931FCE
:10328000881699062CF088E08D1510F0D39401C0B3
:10329000DD24822F840FF82EFD0C80E061E00E9477
:1032A000EF048F2D63E00E94870E0E94DF0482E00E
:1032B00061E00E94EF040EC08091CA02813029F4BF
:1032C00082E061E00E94EF0412E08091C702813049
:1032D00009F489831092CA021092C7028981882357
:1032E00009F42CCFC5010E94A02C8F1551F00E942B
:1032F000A0048FEB90E00E94DF04C5016F2D0E94B7
:10330000AE2C0F90CF91DF911F910F91FF90EF9016
:10331000DF90CF90BF90AF909F908F907F906F90F5
:103320005F9008950F931F9301E010E086EE90E008
:10333000B8014FE70E941718C8010E94A02C0E94F4
:10334000820B8EEE90E060E070E043E00E94171880
:103350000E946C110E949D0B86EF90E062E070E08D
:1033600045E157E02FE00E949F170E9467110E94DD
:10337000D20B8BEF90E063E070E04AE50E941718F3
:1033800084E091E064E070E04AE50E9417188AE06A
:1033900091E065E070E048E00E9417180E941F1756
:1033A0008AE090E00E94A02C809368020E94A916F7
:1033B0001F910F910895682F80E090E00E94AE2C3D
:1033C0000895BF92CF92DF92EF92FF920F931F93D7
:1033D000DF93CF9300D00F92CDB7DEB76C011B8285
:1033E0001A8220E00F2EFEEEEF2EF3E0FF2EF02DDE
:1033F000BB24B3942EC080914A02F701E80FF11D5F
:10340000908199838F5F80934A028981803209F18C
:1034100089818033C8F089818A33B0F40A811B81A5
:1034200089810E9496109801220F331F000F111FEF
:10343000000F111F000F111F200F311F280F311D0A
:103440003B832A832B2D05C08DE790E00E94992BAA
:1034500018C080914A02F701E80FF11D80818D307C
:1034600051F6222329F48FE094E00E94A92B09C091
:103470006A817B81C6010E94BB2C8FE690E00E948E
:10348000992B0F900F900F90CF91DF911F910F917B
:10349000FF90EF90DF90CF90BF90089588E290E08A
:1034A0000E94E119089586E290E00E94E1190895D2
:1034B00084E290E00E94E119089582E290E00E9487
:1034C000E119089580E290E00E94E11908958EE1EB
:1034D00090E00E94E11908958CE190E00E94E119CA
:1034E00008958AE190E00E94E119089588E190E052
:1034F0000E94E119089586E190E00E94E119089583
:1035000084E190E00E94E119089582E190E00E9438
:10351000E11908956F927F929F92AF92BF92CF92DE
:10352000DF92EF92FF920F931F93DF93CF9300D020
:103530000F92CDB7DEB73C015B016A011B821A8294
:1035400020E00F2EFEEEEF2EF3E0FF2EF02D99245B
:1035500093942EC080914A02F701E80FF11D9081EB
:1035600099838F5F80934A028981803209F1898132
:103570008033C8F089818A33B0F40A811B81898144
:103580000E9496109801220F331F000F111F000F89
:10359000111F000F111F200F311F280F311D3B83FA
:1035A0002A83292D05C081E594E00E94A92B27C01C
:1035B00080914A02F701E80FF11D80818D3051F6AC
:1035C000222329F48FE094E00E94A92B18C08A815D
:1035D0009B81C816D90628F08A819B818A159B0594
:1035E00028F482E394E00E94A92B09C06A817B81C0
:1035F000C3010E94BB2C8FE690E00E94992B0F9094
:103600000F900F90CF91DF911F910F91FF90EF904E
:10361000DF90CF90BF90AF909F907F906F90089574
:1036200088E090E064E971E148EC5FEA0E948A1A60
:10363000089586E090E060E070E048EC5FEA0E9468
:103640008A1A089581E090E00E94A02C88232CF42F
:1036500081E090E060E00E94AE2C80E090E00E946B
:10366000A02C843028F080E090E060E00E94AE2C36
:1036700082E090E00E94A02C803128F082E090E06F
:1036800065E00E94AE2C83E090E00E94A02C8B3578
:1036900028F083E090E06EE10E94AE2C84E090E0A0
:1036A0000E94A02C8B3528F084E090E06FE00E940F
:1036B000AE2C85E090E00E94A02C893028F085E0B7
:1036C00090E061E00E94AE2C86E090E00E94A82C81
:1036D0008F5F9F4F31F486E090E060E97AE10E94CD
:1036E000BB2C88E090E00E94A82C8F5F9F4F31F4A4
:1036F00088E090E06CE775E10E94BB2C8AE090E0E6
:103700000E94A02C803459F08AE090E00E94A02C06
:10371000803829F08AE090E060E40E94AE2C8AE2D2
:1037200090E00E94A02C823028F08AE290E061E0D4
:103730000E94AE2C08950E94221B8FEF9FEF909362
:10374000C9028093C80290935E0280935D0210923A
:10375000600281E090E00E94A02C0E94820B0E94F7
:103760006C110E949D0B0E9467110E94D20B84E095
:1037700090E00E94A02C8093710210927902109226
:103780007802E3EAF2E08CE091E0918380837E9618
:10379000118210821092EA0210926E021092EC02D4
:1037A0001092EB021092CD021092CC021092750290
:1037B0001092E90288E08093CE0284E690E0909334
:1037C000C6028093C502A2E9B2E0FD011182108217
:1037D0003296808181608083FD0133961182108250
:1037E00015968C9181608C931092670210926602FC
:1037F00010925F021092C3021092E3028AE090E0FE
:103800000E94A02C809368021092A202109276026D
:1038100010926D0210926C021092E20210927702E6
:1038200008956F927F928F929F92AF92BF92CF92A4
:10383000DF92EF92FF920F931F93DF93CF9300D00D
:1038400000D0CDB7DEB76A837B838C83F72EE62E5C
:10385000D82E0E946C118F1571F48AE290E00E94BC
:10386000A02C882309F478C181E090E00E94A02C6C
:103870008E1509F471C102E310E0F80180818061C6
:10388000808383E191E00E94992B0E941B05FB82BB
:10389000EA82DC826E2D7F2D8D2D0E9456100E94B3
:1038A000A212F80180818F7E80832D2D30E08091DF
:1038B000C5029091C6022817390784F58091C50288
:1038C0009091C602821B930B9093C6028093C5020F
:1038D0002091C5023091C602C901880F991F220F9D
:1038E000331F220F331F220F331F820F931F6DE7E9
:1038F00070E00E94672C6093CE028091CE028823F4
:1039000009F022C18091C5029091C60218161906CD
:103910000CF01AC181E08093CE0216C11092CE0243
:103920001092C6021092C502E2E3F0E0808180614D
:1039300080838091CE020E94D20D0E940D101982C8
:103940008BE090E00E94A02C882309F4AAC08BE0B1
:1039500090E00E94A02C8F3F09F4A3C01092610256
:103960001092C702109255020E9423050F2EF7E114
:10397000CF2EF1E0DF2EF02D0F2EF5E2AF2EF1E08D
:10398000BF2EF02D02E310E0FF246894F4F80F2E10
:10399000F6E48F2EF1E09F2EF02D0F2EF4E36F2E24
:1039A000F1E07F2EF02D0E94A0040E940205C601C6
:1039B0000E94DF0480E061E00E94EF04C5010E94E4
:1039C000DF0421C0F80180818F25808381E30E947C
:1039D000912B1092700210926F0280916F02909161
:1039E0007002885E9340C8F3F80180818F25808340
:1039F0001092700210926F0280916F02909170028B
:103A0000885E9340C8F3809155028823D9F2809153
:103A100055028130B9F0823031F60E94A0040E9434
:103A20000205C3010E94DF041092700210926F021F
:103A300080916F029091700280579741C8F3109265
:103A40005502B1CF0E9471118823B1F00E94A004E9
:103A50000E9402058FE391E00E94DF041092700241
:103A600010926F0280916F0290917002805797417F
:103A7000C8F3109255025BC00E94A0040E94020588
:103A8000C4010E94DF041092700210926F028091B4
:103A90006F029091700280579741C8F310925502BF
:103AA00082CF0E9423050E94D20F02E310E0DD24A2
:103AB0006894D4F80F2EF6E3EF2EFF24F02D34C0D7
:103AC000F80180818D25808381E30E94912B1092E3
:103AD000700210926F0280916F0290917002885E66
:103AE0009340C8F3F80180818D2580831092700285
:103AF00010926F0280916F0290917002885E9340E5
:103B0000C8F3F701808190E09C012470307082FF3F
:103B100004C02430310539F404C089818F5F898362
:103B200003C0198201C019828981843148F2E2E31D
:103B3000F0E080818F7E80830E949B1B1092610247
:103B40001092C702109255028091CE020E94D20DAF
:103B50000E9423050E94D20F0F900F900F900F909C
:103B6000CF91DF911F910F91FF90EF90DF90CF9059
:103B7000BF90AF909F908F907F906F900895DF924D
:103B8000EF92FF920F931F93DF93CF9300D00F928A
:103B9000CDB7DEB71B821A8220E00F2EFEEEEF2E8D
:103BA000F3E0FF2EF02DDD24D3942EC080914A0245
:103BB000F701E80FF11D908199838F5F80934A028E
:103BC0008981803209F189818033C8F089818A3303
:103BD000B0F40A811B8189810E9496109801220FFE
:103BE000331F000F111F000F111F000F111F200F97
:103BF000311F280F311D3B832A832D2D05C08DE7F2
:103C000090E00E94992B42C080914A02F701E80F90
:103C1000F11D80818D3051F6222329F48FE094E04C
:103C20000E94A92B33C08A819B818150924028F049
:103C300082E394E00E94A92B29C00E948A2B6A810A
:103C40007B817695762F6627779567958EEE92E045
:103C500040E850E00E9476098823A1F000E010E0DF
:103C60000F2EFEEEEF2EF2E0FF2EF02DF701E00F0B
:103C7000F11F80810E94912B0F5F1F4F00381105AB
:103C8000A9F704C082E591E00E94992B0F900F9054
:103C90000F90CF91DF911F910F91FF90EF90DF90E8
:103CA00008950E948A2B82E794E00E94A92B8FE658
:103CB00090E00E94992B08954F925F926F927F92AD
:103CC0008F929F92AF92BF92CF92DF92EF92FF922C
:103CD0000F931F93DF93CF93CDB7DEB7A2970FB6A5
:103CE000F894DEBF0FBECDBFEE24FF2420E030E00D
:103CF0000F2EF1E94F2EF3E05F2EF02D00E00F2E96
:103D0000F3E0CF2EDD24F02DCC0EDD1EC6017C2C81
:103D1000692E0F2EFEEE8F2EF3E09F2EF02DC9019F
:103D2000880F991FF201E80FF91F25913491A9011D
:103D3000F9018491882311F4102F0FC0102FFA017C
:103D40008491F601E10FF11D80831F5F2F5F3F4FCC
:103D5000A901F9018491882391F780914A02609129
:103D60004B029401280F311DC901702F472D562D8C
:103D7000212F302F0E947A2C5C0180914A026091A1
:103D80004B02F401E80FF11DCF01702F472D562D86
:103D9000212F302F0E947A2C892BB9F0C5018E5E1D
:103DA00093409A83898320914A0289819A81280FBE
:103DB000210F20934A0280914B0229813A81811B75
:103DC000821B80934B028E2D0AC00894E11CF11CCB
:103DD0009701FFE2EF16F10409F0A1CF8FEFA29651
:103DE0000FB6F894DEBF0FBECDBFCF91DF911F910C
:103DF0000F91FF90EF90DF90CF90BF90AF909F908A
:103E00008F907F906F905F904F900895EAE2F0E07E
:103E100080818F7780830E945C1EE82FF0E0EF3274
:103E2000F10508F095C0E65DFF4FEE0FFF1F05900E
:103E3000F491E02D09940E94A2168EC00E94CD112B
:103E40008BC00E94511E88C00E94B11585C00E947F
:103E5000BF1182C00E949D147FC00E94BF1D7CC004
:103E60000E94851A79C00E94111376C00E94801AA0
:103E700073C00E940C1370C00E947B1A6DC00E9418
:103E800007136AC00E94761A67C00E94021364C0BA
:103E90000E94711A61C00E94FD125EC00E946C1ADD
:103EA0005BC00E94F81258C00E94671A55C00E9459
:103EB000F31252C00E94621A4FC00E94EE124CC010
:103EC0000E945D1A49C00E94E91246C00E94581A19
:103ED00043C00E94E41240C00E94531A3DC00E9499
:103EE000DF123AC00E944E1A37C00E94DA1234C064
:103EF0000E94151431C00E94C7122EC00E949B164A
:103F00002BC00E94B11128C00E94941625C00E94A7
:103F1000A31122C00E943C151FC00E94FF131CC0A9
:103F20000E948D1619C00E94F11316C00E948616B9
:103F300013C00E94E31310C00E94191B0DC00E9401
:103F4000D5130AC00E94101B07C00E94C71304C0EB
:103F50008FEE93E00E94A92B1092A2020E94E62B02
:103F600008952F923F924F925F926F927F928F921D
:103F70009F92AF92BF92CF92DF92EF92FF920F93F8
:103F80001F93DF93CF9300D0CDB7DEB785E0898351
:103F90000E94A0040E9402058BE090E00E94A02CE9
:103FA000882339F08BE090E00E94A02C8F3F09F02D
:103FB0003CC1109261028CE691E00E94DF0480E037
:103FC00061E00E94EF0483E791E00E94DF040F2E7E
:103FD000FBE0EF2EF0E0FF2EF02D0F2EF0E36F2E22
:103FE0007724F02D0F2EF6E3AF2EBB24F02D0F2EED
:103FF000FDE4CF2EF2E0DF2EF02D0F2EF7E84F2E4E
:10400000F1E05F2EF02D0F2EFFE82F2EF1E03F2E76
:10401000F02D0F2EF3E78F2EF1E09F2EF02D9DC097
:104020008091A202882361F48091C702882341F421
:104030008091CA02882321F480915502882381F35C
:104040008091A202882311F00E94061F8091C7026E
:104050008130C9F4F301808185FD0FC012C081E376
:104060000E94912B1092700210926F0280916F0249
:104070009091700280579741C8F3F501808182FFCB
:10408000EECF1092C70280915502813081F18230CB
:1040900009F05FC00E94A0040E9402058CE791E035
:1040A0000E94DF0480E061E00E94EF0483E891E079
:1040B0000E94DF041092700210926F0280916F02D2
:1040C0009091700280579741C8F30E94A0040E940B
:1040D00002058CE691E00E94DF0480E061E00E942E
:1040E000EF04C4010E94DF041092550232C06091B7
:1040F0005602C7010E94AE2C80E090E0F601E80F66
:10410000F91F60818C010F5F1F4FC701800F911F46
:104110000E94AE2CC8010630110581F70E94A00450
:104120000E940205C2010E94DF0480E061E00E945B
:10413000EF04C1010E94DF041092700210926F021E
:1041400080916F029091700280579741C8F310924E
:1041500055028091CA02813081F08091CA0281307B
:1041600031F0C7010E94A02C882309F459CFC70160
:104170000E94A02C8F3F09F453CF8091CA02813056
:1041800009F03EC01092CA020E94A0040E940205DB
:1041900088E991E00E94DF048981882359F18091A8
:1041A000CA02882339F51092700210926F02809132
:1041B0006F02909170028057974120F48091CA025B
:1041C0008823A9F38091CA028823A1F487E061E0E3
:1041D0000E94EF04898181508983898160E00E9477
:1041E000870E0E94DF048981882321F08091CA0212
:1041F0008823C9F28091CA02813011F40E94921979
:104200001092790210927802EBE3F0E080818160F5
:10421000808384E090E00E94A02C80937102109231
:1042200061021092C702109255028BE090E00E944A
:10423000A02C882309F488C18BE090E00E94A02C78
:104240008F3F09F481C11A820AEA11E00F2EF0E3D0
:10425000CF2EDD24F02D0F2EF6E3EF2EFF24F02DD0
:104260000F2EFAEB6F2EF1E07F2EF02D0F2EF1ECDA
:104270004F2EF1E05F2EF02D0F2EFFE32F2EF1E0F9
:104280003F2EF02D0F2EFCE7AF2EF1E0BF2EF02DCC
:104290000F2EF3E88F2EF1E09F2EF02D8FC00E949D
:1042A000A0040E940205C8010E94DF048091A202BE
:1042B000882341F48091C702882321F4809155021C
:1042C0008823A1F38091A202882311F00E94061F87
:1042D0008091C7028130C9F4F601808185FD0FC04D
:1042E00012C081E30E94912B1092700210926F0213
:1042F00080916F029091700280579741C8F3F70147
:10430000808182FFEECF1092C702809155028130EA
:10431000F9F0823009F052C00E94A0040E94020508
:10432000C5010E94DF0480E061E00E94EF04C40147
:104330000E94DF041092700210926F0280916F024F
:104340009091700280579741C8F31092550236C081
:104350000E9471118823B9F081E08A830E94A00431
:104360000E940205C1010E94DF04109270021092A7
:104370006F0280916F029091700280579741C8F34D
:10438000109255021BC00E94A0040E940205C301A6
:104390000E94DF0480E061E00E94EF04C2010E94FD
:1043A000DF041092700210926F0280916F02909160
:1043B000700280579741C8F3109255028A81882372
:1043C00009F46DCF0E94A0040E94020510926102C0
:1043D0001092C7021092550286EC91E00E94DF0411
:1043E0008981882399F180915502882379F58091FC
:1043F0006102882359F51092700210926F02809129
:104400006F02909170028057974120F48091610271
:104410008823A9F3809161028823C1F487E061E0D9
:104420000E94EF04898181508983898160E00E9424
:10443000870E0E94DF048981882341F08091550214
:10444000882321F4809161028823A9F2809155028A
:10445000813089F1823009F064C00E94A0040E947A
:1044600002058CE791E00E94DF0480E061E00E9499
:10447000EF0483E891E00E94DF0410927002109232
:104480006F0280916F029091700280579741C8F33C
:104490000E94A0040E94020588ED91E00E94DF04C2
:1044A00080E061E00E94EF0481EE91E00E94DF0471
:1044B0001092550236C00E947111882329F00E9483
:1044C0009219109255022DC00E94A0040E9402056C
:1044D0008AEB91E00E94DF0480E061E00E94EF043B
:1044E00081EC91E00E94DF041092700210926F0242
:1044F00080916F029091700280579741C8F30E949B
:10450000A0040E94020588ED91E00E94DF0480E093
:1045100061E00E94EF0481EE91E00E94DF041092BE
:1045200055021092790210927802EBE3F0E080815C
:104530008160808384E090E00E94A02C80937102CF
:10454000109261021092C7020F900F90CF91DF91ED
:104550001F910F91FF90EF90DF90CF90BF90AF90A1
:104560009F908F907F906F905F904F903F902F9093
:1045700008952F923F924F925F926F927F928F9207
:104580009F92AF92BF92CF92DF92EF92FF920F93E2
:104590001F93DF93CF93CDB7DEB728970FB6F8946C
:1045A000DEBF0FBECDBF0E94840A0E94EF0A0E94A8
:1045B000F90A0E9452070E94A50D0E94980D0E94C0
:1045C0009B1B0E94C2050E94A0040E94312A0E94E7
:1045D00039100E94782BEAE2F0E0808180688083C5
:1045E0008081806480830E944D0880E69AEE019766
:1045F000F1F78AEE91E00E94DF0480E061E00E9422
:10460000EF0484EF91E00E94DF040E940706789493
:104610008FEF8093E4021092700210926F028091EB
:104620006F0290917002885E9340C8F38FEF809381
:10463000E5021092700210926F0280916F029091C9
:104640007002885E9340C8F38FEF8093E602109269
:10465000700210926F0280916F0290917002885EDA
:104660009340C8F38FEF8093E7021092700210928C
:104670006F0280916F0290917002885E9340C8F340
:104680008FEF8093ED021092700210926F02809172
:104690006F0290917002885E9340C8F3EBE3F0E004
:1046A0008081816080831092700210926F028091ED
:1046B0006F0290917002885E9340C8F3EBE3F0E0E4
:1046C0008081826080831092700210926F028091CC
:1046D0006F0290917002885E9340C8F3E2E3F0E0CD
:1046E0008081806180831092700210926F028091AD
:1046F0006F0290917002885E9340C8F3E5E3F0E0AA
:104700008081806280831092700210926F0280918B
:104710006F0290917002885E9340C8F30E941B055F
:104720001092700210926F0280916F02909170024D
:10473000885E9340C8F30E94230510927002109285
:104740006F0280916F0290917002885E9340C8F36F
:104750001092E4021092700210926F0280916F0228
:1047600090917002885E9340C8F31092E502109217
:10477000700210926F0280916F0290917002885EB9
:104780009340C8F31092E6021092700210926F02EA
:1047900080916F0290917002885E9340C8F31092EE
:1047A000E7021092700210926F0280916F02909156
:1047B0007002885E9340C8F3E5E3F0E080818F7D6E
:1047C00080831092700210926F0280916F0290911C
:1047D0007002885E9340C8F3EBE3F0E080818D7F48
:1047E00080831092700210926F0280916F029091FC
:1047F0007002885E9340C8F3EBE3F0E080818E7F27
:1048000080831092700210926F0280916F029091DB
:104810007002885E9340C8F3E2E3F0E080818F7E0F
:1048200080831092700210926F0280916F029091BB
:104830007002885E9340C8F31092700210926F026B
:1048400080916F0290917002885E9340C8F38091CE
:10485000CE020E94D20D88EE93E063E070E040E863
:104860000E94060E8FEF91E00E94992B88E092E063
:104870000E94992B82EF90E00E94A92B83E091E0A7
:104880000E94A92B0E94B11F84E190E00E94A82CF5
:1048900064E670E00E94532C8AE590E0DC016A9F98
:1048A000C0016B9F900D7A9F900D11249093D802B8
:1048B0008093D702109261020E94D20F0E94E62BD1
:1048C000109276021092700210926F0280916F0225
:1048D00090917002885E9340C8F30F2EF2E16F2E24
:1048E000F2E07F2EF02D0F2EF3E24F2EF2E05F2E3E
:1048F000F02D0F2EF4E12F2EF0E03F2EF02DCC24E2
:10490000DD240F2EF5E0AF2EF0E0BF2EF02D0F2EA0
:10491000FBE3EF2EFF24F02D0F2EFAE88F2EF2E0AE
:104920009F2EF02D0894811C911CEFECF2E0319643
:10493000F887EF8380916C0290916D02892B11F4BE
:104940000E94161380915F02882351F10E94A004F7
:10495000C3010E94DF0480E061E00E94EF04C20115
:104960000E94DF0480915F02882391F088EE93E03B
:1049700063E070E040E80E94060E84EF91E063E09F
:1049800070E040E80E94060E80915F02882371F774
:104990001092C7021092CA02109261020E94D20FB6
:1049A0008091C7028823C1F18130A1F580917802FE
:1049B00090917902892B19F1809178029091790276
:1049C0000197909379028093780280916C02909184
:1049D0006D02029750F021E030E030936D02209399
:1049E0006C028091E2028823E1F7C1010E94A82CA9
:1049F00090936D0280936C020E94720B08C08091AC
:104A00006C0290916D02892B11F40E945412109245
:104A1000C70202C01092C7028091CA02882309F41B
:104A200041C08130E9F5809171028823B1F1809114
:104A30006C0290916D02892B81F50E948D128091FC
:104A4000710281508093710283E090E00E94A02C5B
:104A500090E090937902809378020E9429100E943E
:104A60001B1086010DC0D0927002C0926F0280911F
:104A70006F029091700280549F41C8F30F5F1F4FE7
:104A8000C5010E94A02C90E00817190764F30E944A
:104A90007812D7018C918E7F8C931092CA0202C03B
:104AA0001092CA0280917502813021F0823009F0A3
:104AB00048C032C01092750280E00E945E0D8823CB
:104AC00009F03FC0EAE8F2E09081D4018C91880FB0
:104AD000880F82958F70E5E1F7E0E80FF11DE49112
:104AE0008C919C83EE8382958695869583708D83C9
:104AF000ABEDB2E0FE01349683E001900D9281505F
:104B0000E1F76091DB027091DC028091DD020E948E
:104B1000111C1092750215C0F7018081816080839D
:104B2000D0927002C0926F0280916F0290917002D9
:104B3000805A9F40C8F3D7018C918E7F8C9310923E
:104B4000750280914B028823A9F10E94DB1181300C
:104B500089F580E00E947B0D882361F5EFECF2E09F
:104B60009081AF81B8858C91880F880F82958F7066
:104B7000E5E1F7E0E80FF11DE4918C919983EB8377
:104B800082958695869583708A83A9E6B2E0FE01B8
:104B9000319683E001900D928150E1F760916902B6
:104BA00070916A0280916B020E94111C0E94E62B98
:104BB00010927602809161028330F9F0843028F4FB
:104BC000813041F0823011F515C08430C9F0853054
:104BD000E9F419C08091E302882319F0813039F497
:104BE00004C081E08093E30202C01092E3021092BD
:104BF00061020EC0109261020BC01092610208C0E7
:104C00001092610205C01092610202C0109261020E
:104C10008091C302882309F48DCE0E941B108091DD
:104C2000C30281508093C30285CE1F920F920FB6AC
:104C30000F9211242F938F939F93EF93FF9380B341
:104C400084708093450280914502882351F48091BD
:104C500062029091630201969093630280936202D4
:104C600040C08091E0029091E10201969093E102B0
:104C70008093E00280916E02882309F18091E00226
:104C80009091E10289519240D0F010926E02809191
:104C9000EB029091EC020D9720F081E08093750279
:104CA00003C082E0809375021092770280916002C7
:104CB000882329F4E9E5F0E080818F778083809173
:104CC000E0029091E1028951924058F08091600297
:104CD000882339F410927702E9E5F0E080818F773C
:104CE000808380916002813009F06EC080916402FF
:104CF00090916502892B89F0E5E3F0E09081809145
:104D000068028927808380916402909165020197EF
:104D1000909365028093640257C0E5E3F0E08081E0
:104D20008F7B808380818F7780838091D90290915F
:104D3000DA021816190684F480818F7B80838081C3
:104D40008F7780838091D9029091DA0201979093B6
:104D5000DA028093D90238C0E091EA02F0E0EE0F67
:104D6000FF1FED55FD4F80819181892BC1F020916E
:104D7000EA02E22FF0E0EE0FFF1FED55FD4F8081BC
:104D8000918190936502809364022F5F2093EA02E1
:104D900083E490E09093DA028093D90215C01092D8
:104DA0006002E5E3F0E080818F7D80838091C30223
:104DB0008F5F8093C30280917702882329F4E9E50D
:104DC000F0E080818F778083FF91EF919F918F91A9
:104DD0002F910F900FBE0F901F901895DF93CF93D8
:104DE00000D0CDB7DEB78091E202882349F482E19A
:104DF00090E00E94A02C90E00E94040A8093E202BE
:104E000080916C0290916D02019739F4CE01019668
:104E10000E946B0A1092E20204C0CE0101960E9429
:104E2000590A20916C0230916D028091D7029091C5
:104E3000D8022817390781F50E94010E813061F5EB
:104E4000B29B02C01A8202C081E08A838A818130CB
:104E500019F58091CE028823F9F080917802909123
:104E60007902892BC9F0809178029091790201979B
:104E700090937902809378020E94720BCE01019682
:104E80000E946B0A1092E20284E190E00E94A82C3A
:104E900090936D0280936C0289810F900F90CF9157
:104EA000DF9108951F920F920FB60F9211242F9346
:104EB0003F934F935F936F937F938F939F93AF93A2
:104EC000BF93EF93FF93DF93CF930F92CDB7DEB7EE
:104ED000E9E5F0E080818F7E80837894809178028C
:104EE00090917902892BC9F080916C0290916D02AA
:104EF000892B99F00E94EE268CBF80916C029091D4
:104F00006D02019709F41CBE80916C0290916D02B4
:104F1000019790936D0280936C028091780290913A
:104F20007902892BF1F4EBE3F0E0808181608083EA
:104F300080916C0290916D02892B99F00E94EE266F
:104F40008CBF80916C0290916D02019709F41CBE98
:104F500080916C0290916D02019790936D02809305
:104F60006C0280914302909144022091430230915F
:104F7000440264E670E00E94532C84E690E0AC01A9
:104F8000649FC001659F900D749F900D112482173E
:104F9000930709F0ADC08091DE029091DF02019687
:104FA0009093DF028093DE028091C702882309F08C
:104FB00049C0B29B02C0198202C081E08983898105
:104FC000882319F08130D1F51AC080919202909116
:104FD0009302049750F0E2E9F2E0118210823296D7
:104FE00080818E7F808381E02BC0E2E9F2E0118234
:104FF0001082329680818160808380E021C0809120
:10500000920290919302049750F0E2E9F2E011824B
:105010001082329680818E7F808381E011C0A2E968
:10502000B2E0FD018191919120812170820F911D4B
:1050300011969C938E938091C70202C08091C70203
:105040008093C7028091CA02882309F049C0B09BAF
:1050500002C0198202C081E089838981882319F006
:105060008130D1F51AC080919502909196020497F3
:1050700050F0E5E9F2E011821082329680818E7F55
:10508000808381E02BC0E5E9F2E011821082329644
:1050900080818160808380E021C080919502909121
:1050A0009602049750F0E5E9F2E011821082329600
:1050B00080818E7F808381E011C0A5E9B2E0FD018F
:1050C0008191919120812170820F911D11969C9365
:1050D0008E938091CA0202C08091CA028093CA0254
:1050E00080916102882321F40E94942A80936102B6
:1050F00080914302909144020196909344028093E0
:1051000043028091430290914402895E934008F4E7
:1051100061C010924402109243029091E402809187
:105120003402892331F4E5E3F0E08081877F8083D6
:1051300005C0E5E3F0E08081886080839091E5021E
:1051400080913402892331F4E5E3F0E080818F7EA1
:10515000808305C0E5E3F0E08081806180839091E9
:10516000E60280913402892331F4E5E3F0E08081A6
:105170008B7F808305C0E5E3F0E0808184608083DD
:105180009091E70280913402892331F4E2E3F0E068
:1051900080818F77808305C0E2E3F0E080818068C2
:1051A000808380913402880F80933402809134028E
:1051B000882319F481E080933402859B06C0EBE3D9
:1051C000F0E080818260808305C0EBE3F0E08081C5
:1051D0008D7F80838091CB02882329F08091C40247
:1051E0008CBF1092CB0282991DC085991BC0809103
:1051F000660290916702805A9F4048F4809166024F
:105200009091670201969093670280936602809165
:10521000660290916702805A9F4070F081E080930F
:105220005F020AC0109267021092660280915F02CC
:10523000882311F010925F0280916F0290917002AA
:1052400001969093700280936F02F894E9E5F0E084
:105250008081806180830F90CF91DF91FF91EF91EA
:10526000BF91AF919F918F917F916F915F914F917E
:105270003F912F910F900FBE0F901F9018951F9286
:105280000F920FB60F9211242F933F934F935F937A
:105290006F937F938F939F93AF93BF93EF93FF93FE
:1052A000DF93CF930F92CDB7DEB781E08093740286
:1052B000198289818F5F89830E94CF070F90CF91D8
:1052C000DF91FF91EF91BF91AF919F918F917F916E
:1052D0006F915F914F913F912F910F900FBE0F9063
:1052E0001F9018951F920F920FB60F9211242F93B3
:1052F0003F934F935F936F937F938F939F93AF935E
:10530000BF93EF93FF93E9E5F0E0808180688083AD
:1053100081E08093770205B600FC28C0E5E5F0E067
:1053200080818160808380916E028823B1F08091BA
:10533000E0029091E1028935910530F48091E0021C
:105340009091E1028E9748F410926E021092EC0256
:105350001092EB0282E08093750210926302109229
:1053600062021092E1021092E0026AC0E5E5F0E00C
:1053700080818E7F808380916E02882309F443C0F0
:10538000809162029091630289359105A8F4809121
:105390006202909163028E9778F08091EB02909177
:1053A000EC029C012F5F3F4F3093EC022093EB0205
:1053B00060E00E940C0B3CC08091620290916302FD
:1053C0008C399105B0F4809162029091630281372B
:1053D000910578F08091EB029091EC029C012F5F97
:1053E0003F4F3093EC022093EB0261E00E940C0BE4
:1053F0001FC010926E021092EC021092EB0282E03B
:105400008093750215C0809162029091630282526E
:10541000914070F48091620290916302873F910500
:1054200038F01092EC021092EB0281E080936E0251
:1054300010926302109262021092E1021092E00256
:10544000FF91EF91BF91AF919F918F917F916F915C
:105450005F914F913F912F910F900FBE0F901F9032
:105460001895AAE3B0E08C91877F8C93EBE3F0E092
:105470008081886080838C918B7F8C938081846015
:1054800080838C918F7D8C938081806280838C91CE
:105490008F7B8C938081806480838C918F7E8C93B2
:1054A000808180618083A9E7B2E0FD0111821082D2
:1054B0003296808181608083FD0133961182108253
:1054C000FD013596808181608083FD0136961182D1
:1054D0001082FD013896808181608083FD013996BC
:1054E00011821082FD013B96808181608083FD01E5
:1054F0003C96118210821E968C9181608C93089547
:10550000E9E3F0E080818695869586958095982FD1
:105510009170808182FF9260CD9B9460CE9B986059
:10552000CC9B9061892F08950E94802A823091F14E
:10553000833038F4882309F4A9C0813009F0AAC067
:105540000AC0883009F464C0803109F480C0843016
:1055500009F0A0C03EC08091790290917A02049730
:1055600050F0E9E7F2E011821082329680818E7F5E
:10557000808381E00895A9E7B2E0FD0181919191D6
:1055800020812170820F911D11969C938E938091A2
:105590006102089580917C0290917D02049750F001
:1055A000ECE7F2E011821082329680818E7F808358
:1055B00082E00895ACE7B2E0FD01819191912081F4
:1055C0002170820F911D11969C938E9380916102A0
:1055D000089580917F0290918002049750F0EFE748
:1055E000F2E011821082329680818E7F808383E088
:1055F0000895AFE7B2E0FD01819191912081217082
:10560000820F911D11969C938E9380916102089553
:105610008091820290918302049750F0E2E8F2E0D8
:1056200011821082329680818E7F808384E008957B
:10563000A2E8B2E0FD018191919120812170820F59
:10564000911D11969C938E93809161020895809193
:10565000850290918602049750F0E5E8F2E011820D
:105660001082329680818E7F808385E00895A5E840
:10567000B2E0FD018191919120812170820F911DF5
:1056800011969C938E938091610208950E94312A15
:1056900080E00895A9E7B2E0FD0111821082329600
:1056A00080818E7F8083FD01339611821082FD01FF
:1056B000359680818E7F8083FD013696118210821F
:1056C000FD01389680818E7F8083FD01399611829D
:1056D0001082FD013B9680818E7F8083FD013C9688
:1056E000118210821E968C918E7F8C9380E008959B
:1056F000A0E4B0E01C9287E689B9EBE2F0E080819B
:105700008D7F808388E98AB986E88C93089580919B
:1057100048020895109246021092470210924802E1
:105720000895982FEBE2F0E0808185FFFDCF9CB9D2
:105730000895CF93DF93FC018081882339F0EF0136
:105740000E94912B898121968823D1F7DF91CF91F7
:105750000895CF93DF93FC018491882349F0EF01F2
:1057600021960E94912BFE01219684918823C9F7EE
:10577000DF91CF9108951F920F920FB60F921124CF
:105780008F93EF93FF93809148028823A1F080913B
:105790004702EEEEF2E0E80FF11D80818CB98091B6
:1057A0004802815080934802809147028F5F809326
:1057B000470280914702FF91EF918F910F900FBEAA
:1057C0000F901F90189580914B020895EAE2F0E047
:1057D00080818F7780831092490210924A02109242
:1057E0004B02808180688083089580914B028823DA
:1057F00011F4E0E013C080914A02EEEEF3E0E80F0E
:10580000F11DE08180914B02815080934B02809189
:105810004A028F5F80934A0280914A028E2F089538
:105820001F920F920FB60F9211248F939F93AF93F5
:10583000BF93EF93FF9380914B02809149029CB1FB
:10584000EEEEF3E0DF01A80FB11D9C9380914902B9
:10585000E80FF11D80818D3019F481E08093A20260
:10586000809149028F5F8093490280914902809123
:105870004B028F5F80934B02FF91EF91BF91AF91ED
:105880009F918F910F900FBE0F901F901895991BAD
:1058900079E004C0991F961708F0961B881F7A9527
:1058A000C9F780950895AA1BBB1B51E107C0AA1F29
:1058B000BB1FA617B70710F0A61BB70B881F991FB1
:1058C0005A95A9F780959095BC01CD01089597FB55
:1058D000092E07260AD077FD04D0E5DF06D0002088
:1058E0001AF4709561957F4F0895F6F7909581951C
:1058F0009F4F08952115310511F11F930F93240F28
:10590000351F680F791FFA011191AF01DC01A6174D
:10591000B70780F40D910117D1F7CD01FA01E21715
:10592000F30750F4A617B70728F40D91019000155E
:10593000B1F3ECCF81E090E001970F911F910895B2
:10594000E199FECF9FBB8EBBE09A99278DB3089556
:10595000A8E1B0E042E050E00C94C22C262FE1997F
:10596000FECF9FBB8EBB2DBB0FB6F894E29AE19A97
:105970000FBE019608950E94AE2C272F0C94AF2CD9
:10598000DC01CB01FC01E199FECF06C0FFBBEEBB01
:10599000E09A31960DB20D9241505040B8F70895FB
:0459A000F894FFCFA9
:1059A4002000D3F0EEED20000D0A4F4B0D0A004FFE
:1059B4004B0D0A002020002C0030003100455252CB
:1059C4004F520A0D004552524F523A656570726F3C
:1059D4006D207772697465206572726F720D0A00AA
:1059E4004552524F520D0A00C4F0F3E62EEEE32E58
:1059F40000C4E02000CDE5F20020CF2D4F4B00D1B4
:105A0400EEF5F0E0EDE5ED00CCEEF9ED2E20C8CAA0
:105A140000F3EB2E2000EFEEEC2E00CF2D4F4B00C9
:105A240020C4E0EB2E00494420E8E3F02E00494472
:105A340020EAEEEC2E00D3F0EEED00CFE0F2F0EE33
:105A4400EDEEE200CEE1EEE9EC00CFE5F0E5E72E85
:105A540020F10031313100C4EBFF20E0EAF2E8E24A
:105A6400E0F6E8E800EFF0E8EBEEE6E8F2E520EA3D
:105A7400EBFEF700CEF8E8E1EAE02043524300D31E
:105A8400E4E0F7E82100CDE520F2EEF220EAEBFEB7
:105A9400F7004552524F523A656570726F6D20722D
:105AA400656164206572726F720D0A00C7E0EFE8E9
:105AB400F1FC00EAEBFEF7E020D2CC00CEF8E8E1FE
:105AC400EAE00043524300CAEBFEF720D2CC00E7E1
:105AD400E0EFE8F1E0ED2100CFE5F0E5E7E0F02EBE
