:10780000CFE5D8E0DEBFCDBF11241FBE1DC081363D
:1078100010F087550895813410F087530895803310
:1078200010F480E00895805308950F931F93062F5E
:107830000E94073C182F802F0E94073C1295107F52
:10784000810F1F910F9108952F923F924F925F9257
:107850006F927F928F929F92AF92BF92CF92DF9260
:10786000EF92FF920F931F93DF93CF93CDB7DEB7C5
:10787000C655D0400FB6F894DEBF0FBECDBFF8940A
:1078800082B3836082BB1FBC81E08EBD60E070E08C
:10789000F1E120E030E040E050E00EC02F5F3F4FCC
:1078A0004F4F5F4F21308AE6380788E1480780E074
:1078B000580710F0E1E003C08099F0CFE0E01DBC74
:1078C0001CBC0EC02F5F3F4F4F4F5F4F21309AE6D9
:1078D000390798E1490790E0590710F0E1E002C04C
:1078E000809BF0CFF13120F48CB59DB5680F791FE6
:1078F000F15019F4E13051F402C0EE23E9F21EBC5C
:1079000082B38C7F82BBE0E0F0E00994FB01A4E04D
:10791000F695E795AA95E1F72B96FFAFEEAF2B977B
:1079200080E593EC0197F1F7872F99270E94123F8A
:1079300083E60E94193F84E30E94193F85E30E9479
:10794000193F82E60E94193F82E30E94193F80E2BC
:107950000E94193F86E70E94193F82E30E94193F67
:107960008EE20E94193F89E30E94193F85E30E943D
:10797000193F1D8A8D89823649F08DE00E94193F9A
:107980008EE30E94193F81E10E94193F10E00E949E
:10799000253FE5E1F0E0EC0FFD1FE10FF11D8083D5
:1079A0008535A9F3833019F488E58D8B03C01F5FFB
:1079B0008A3069F7812F90E0E4E1F0E0EC0FFD1FE1
:1079C000E80FF91F1082FC01329725E130E02C0FFF
:1079D0003D1FE20FF31F80818D3009F4108283E197
:1079E0000E94193FCE0145960E94563FFD8837E61A
:1079F000F316E1F13F1540F082E6F81671F095E6D6
:107A0000F91609F009C241C0EDE6FE1609F43DC0C1
:107A1000F0E7FF1609F000C277C00F8900518E8988
:107A20002AE0829FC0011124080F8BE20E94193FB7
:107A30008DE00E94193F8EE30E94193F81E10E9470
:107A4000193F80E593EC0197F1F710E053E0000F48
:107A5000111F5A95E1F72B968EAD9FAD2B97B8016C
:107A60000E94633FCB010E94123F84CF8BE20E94B1
:107A7000193F8DE00E94193F81E10E94193F80E586
:107A800093EC0197F1F71EBC3ECF8F89688D0E9461
:107A9000153C182F898D6A8D0E94153C65961FAF85
:107AA000659764961FAE649765960EAD1FAD65979A
:107AB000080F111D8E89873799F48B8D6C8D0E946C
:107AC000153CE82E25E6F21631F4E199FECFC80107
:107AD0006E2D0E947F3F8D898D3611F4F801E08272
:107AE0008D89853629F4C8010E94773F182F02C07E
:107AF000F80110818BE20E94193F8DE00E94193F2E
:107B0000812F0E94323F36CF8BE20E94193F8DE0D9
:107B10000E94193F2C961FAE2C978E89853621F432
:107B2000F1E02C96FFAF2C9766246A94762C4301E3
:107B3000442455242E961FAE1EAE2E9781E10E943E
:107B4000193F10E00E94253FE5E1F0E0EC0FFD1F3A
:107B5000E10FF11D80831F5F8A30A1F783E10E944E
:107B6000193FE4E1F0E0EC0FFD1FE10FF11D108281
:107B70008E896F890E94153C082F888D698D0E941F
:107B8000153C182F63968FAF639762961FAE62976E
:107B90008A8D6B8D0E94153C6396EEACFFAC6397AB
:107BA000E80EF11C8C8D6D8D0E94153CB12EB00E2F
:107BB000B80EBE0CA02FB0E09D01220F331F6196BE
:107BC0003FAF2EAF6197EEE1F0E0EC0FFD1FE20F4B
:107BD000F31F30812F963FAF2F971596AA0FBB1F2B
:107BE000E1E0F0E0EC0FFD1FAE0FBF1F54962C90AC
:107BF0008230F1F48E8D6F8D0E94153C29968FAFE7
:107C0000299728961FAE289788A169A10E94153C44
:107C100029962EAD3FAD2997280F311D2E963FAFE7
:107C20002EAF2E9729963FAD2997B30EB20E82C084
:107C3000813021F4CC24C39401E07EC0882309F074
:107C400079C08FEF68168FEF78068FEF88068FEF79
:107C5000980619F437018824992421E0C22ED12CEA
:107C6000CC0EDD1EC40CD51C2E960EAD1FAD2E976E
:107C700094E0000F111F9A95E1F7040D151D060DF4
:107C8000171D33244DC0EEE1F0E0EC0FFD1FEE0DAB
:107C9000FF1DAFE1B0E0AC0FBD1FAE0DBF1D808179
:107CA0006C910E94153CA82EE0E2F0E0EC0FFD1F65
:107CB000EE0DFF1D21E230E02C0F3D1FE20EF31E02
:107CC0008081F70160810E94153C282F2C96FFAD22
:107CD0002C97F13021F4F601A082818313C06796BE
:107CE0008FAF679766961FAE669767968EAD9FAD0E
:107CF00067978A0D911D31E0F8010C013093570010
:107D0000E89511242A0DB20E82E090E0480E591E2B
:107D100094E0390EE2E0F0E0CE0EDF1E0E5F1F4F62
:107D2000E32CFF2461962EAD3FAD6197E216F3067A
:107D30000CF4A9CFCC2400E02F968FAD2F97622DA5
:107D40000E94153CB80E09F067C08EE20E94193FF0
:107D500030E84316510408F001E02C968FAD2C97C3
:107D6000813019F0013009F053C02E96EEADFFAD11
:107D70002E977F0100E010E084E0EE0CFF1C001F56
:107D8000111F8A95D1F7E60CF71C081D191DF0E0AC
:107D9000EF16F8E7FF06F0E00F07F0E01F0708F026
:107DA0003BC02C962FAD2C972130B1F4DD240EC0B2
:107DB000E199FECF8E0D9F1DE1E0F0E0EC0FFD1F7D
:107DC000ED0DF11D60810E947F3FD3948D2D90E0D9
:107DD0008415950568F313C0F70133E0309357001D
:107DE000E89507B600FCFDCF85E080935700E89545
:107DF00007B600FCFDCF81E180935700E8958AE249
:107E00000E94193F66246A94762C43014424552429
:107E1000CC2009F493CE02C08DE201C08BE20E9417
:107E2000193FA8CD90BD89B988E18AB986E880BD9F
:107E300008951F93182F8D3019F48AE00E94193F7E
:107E40005D9BFECF1CB91F9108955F9BFECF8CB147
:107E500008958F708A3010F0895A01C0805D0E94A9
:107E6000193F08951F93182F82958F700E94293F04
:107E7000812F0E94293F1F9108950F931F938C011A
:107E8000812F82958F700E94293F812F0E94293F68
:107E9000C80124E0969587952A95E1F70E94293F2D
:107EA000802F0E94293F1F910F910895CF93DF9358
:107EB000EC0103C021960E94193F88818823D1F7E5
:107EC000DF91CF910895AA1BBB1B51E107C0AA1FE8
:107ED000BB1FA617B70710F0A61BB70B881F991F6B
:107EE0005A95A9F780959095BC01CD010895E19927
:107EF000FECF9FBB8EBBE09A99278DB30895262FA6
:107F0000E199FECF9FBB8EBB2DBB0FB6F894E29AD2
:087F1000E19A0FBE01960895ED
:040000030000780081
:00000001FF
