:100000000C949A030C9480240C944D240C94B70304
:100010000C9458210C94B7030C94B7030C949F22B2
:100020000C94B7030C94B7030C94B7030C94B70368
:100030000C94B7030C9414270C94B7030C94BF26AC
:100040000C94B7030C94B7030C94B7030C94B70348
:100050000C94B703131A161A191A1C1A1F1A221A0B
:10006000251A281A2B1A2E1A311A341A371A3A1A44
:100070003D1A401A431A461A491A4C1A4F1A521A74
:10008000551A581A5B1A5E1A611A641A671A6A1AA4
:100090006D1A701A731A761A791A7C1A7F1A821AD4
:1000A000851A881A8B1A8E1A911A941A971A9A1A04
:1000B0009D1A53353B3700807F0080800041A0426D
:1000C000A1E045A3A4A5A64BA74D484FA850435473
:1000D000A9AA58E1ABACE2ADAEADAFB0B161B2B37D
:1000E000B4E365B6B7B8B9BABBBCBD6FBE7063BF89
:1000F00079E478E5C0C1E6C2C3C4C5C6C762756C01
:100100006C6574735F696E5F636C69703D006275E6
:100110006C6C6574735F696E5F636C69703F0070CF
:10012000726F746F636F6C3F00636C6970733D0036
:10013000636C6970733F00707265706172655F74A3
:100140006F5F77726974655F626C6F636B00726575
:1001500061645F626C6F636B00736F756E645F31B7
:100160005F6164726573733D00736F756E645F31B8
:100170005F6164726573733F00736F756E645F31A6
:100180005F73697A653D00736F756E645F315F738D
:10019000697A653F00736F756E645F325F61647288
:1001A0006573733D00736F756E645F325F61647277
:1001B0006573733F00736F756E645F325F73697A46
:1001C000653D00736F756E645F325F73697A653F7A
:1001D00000736F756E645F335F6164726573733D46
:1001E00000736F756E645F335F6164726573733F34
:1001F00000736F756E645F335F73697A653D00737A
:100200006F756E645F335F73697A653F00736F75F6
:100210006E645F345F6164726573733D00736F7504
:100220006E645F345F6164726573733F00736F75F2
:100230006E645F345F73697A653D00736F756E64D9
:100240005F345F73697A653F00736F756E645F3505
:100250005F6164726573733D00736F756E645F35C3
:100260005F6164726573733F00736F756E645F35B1
:100270005F73697A653D00736F756E645F355F7398
:10028000697A653F00736F756E645F365F61647293
:100290006573733D00736F756E645F365F61647282
:1002A0006573733F00736F756E645F365F73697A51
:1002B000653D00736F756E645F365F73697A653F85
:1002C00000706C61795F736F756E6400706C61793A
:1002D0005F73686F745F736F756E6400706C6179C3
:1002E00065725F69643D00706C617965725F696415
:1002F0003F0064616D6167655F696E6465783D00AC
:1003000064616D6167655F696E6465783F006972FD
:100310005F706F7765723D0069725F706F776572AD
:100320003F00667269656E646C795F666972653DEF
:1003300000667269656E646C795F666972653F001C
:100340007465616D5F69643D007465616D5F6964CA
:100350003F00626174745F66756C6C5F766F6C747D
:100360006167653D00626174745F66756C6C5F7691
:100370006F6C746167653F00626174745F6C6F7766
:100380005F766F6C746167653D00626174745F6C69
:100390006F775F766F6C746167653F00FD000E01DB
:1003A0001F012901300137014E015901690179010D
:1003B00087019501A501B501C301D101E101F10159
:1003C000FF010D021D022D023B0249025902690282
:1003D000770285029502A502B302C102CC02DC02BB
:1003E000E702F20200030E03180322033103400365
:1003F00049035203650378038A034552524F523A28
:10040000756E6B6E6F776E20636F6D6D616E640DD0
:100410000A004552524F520D0A004552524F523A6D
:10042000706172616D65746572206973206E6F749E
:10043000207370656369666965640D0A00455252F0
:100440004F523A706172616D65746572206F757498
:10045000206F662072616E67650D0A004552524F2B
:10046000523A696E76616C696420706172616D6583
:100470007465720D0A000D0A4F4B0D0A00CAEEEBAF
:10048000E8F7E5F1F2E2EE20EFE0F2F0EEEDEEE279
:1004900020E220ECE0E3E0E7E8EDE53B696E74285C
:1004A000302C3930293B62756C6C6574735F696EF2
:1004B0005F636C69703F3B62756C6C6574735F69F8
:1004C0006E5F636C69703D0D0ACCE0E3E0E7E8ED38
:1004D000EEE23B696E7428302C313030293B636C7E
:1004E0006970733F3B636C6970733D0D0AC8E4E546
:1004F000EDF2E8F4E8EAE0F2EEF020E8E3F0EEEA0C
:10050000E03B696E7428302C313237293B706C61C6
:100510007965725F69643F3B706C617965725F6990
:10052000643D0D0AD6E2E5F220EAEEECE0EDE4FBF4
:100530003B656E756D28CAF0E0F1EDE0FF2CD1E867
:10054000EDFFFF2CC6E5EBF2E0FF2CC7E5EBE5ED98
:10055000E0FF293B7465616D5F69643F3B746561D1
:100560006D5F69643D0D0ACDE0EDEEF1E8ECFBE96D
:1005700020F3F0EEED3B656E756D2831252C3225AC
:100580002C34252C35252C37252C3130252C313594
:10059000252C3137252C3230252C3235252C333083
:1005A000252C3335252C3430252C3530252C37356A
:1005B000252C31303025293B64616D6167655F69A9
:1005C0006E6465783F3B64616D6167655F696E6409
:1005D00065783D0D0AC4F0F3E6E5F1F2E2E5EDEDF4
:1005E000FBE920EEE3EEEDFC3B656E756D28CDE595
:1005F000F22CC4E0293B667269656E646C795F66B3
:100600006972653F3B667269656E646C795F6669A5
:1006100072653D0D0ACCEEF9EDEEF1F2FC20C8CA90
:1006200020E8E7EBF3F7E5EDE8FF3B656E756D2835
:10063000C4EBFF20E8E3F0FB20E220EFEEECE5F96D
:10064000E5EDE8E82CC4EBFF20E8E3F0FB20EDE06B
:1006500020F3EBE8F6E5293B69725F706F7765720E
:100660003F3B69725F706F7765723D0D0ACDE0EFB9
:10067000F0FFE6E5EDE8E520E7E0F0FFE62E20E11B
:10068000E0F2E0F0E5E820ECC23B696E742835301A
:1006900030302C3435303030293B626174745F6601
:1006A000756C6C5F766F6C746167653F3B626174FB
:1006B000745F66756C6C5F766F6C746167653D0D19
:1006C0000ACDE0EFF0FFE6E5EDE8E520F0E0E7F049
:1006D000FFE62E20E1E0F2E0F0E5E820ECC23B6925
:1006E0006E7428343530302C3435303030293B624C
:1006F0006174745F6C6F775F766F6C746167653F70
:100700003B626174745F6C6F775F766F6C74616766
:10071000653D0D0A00303132333435363738390013
:1007200001020405070A0F1114191E2328324B6415
:10073000816A870011241FBECFE5D8E0DEBFCDBFA0
:1007400012E0A0E6B0E0E6E2F0E502C005900D920E
:10075000A03EB107D9F715E0A0EEB2E001C01D92AE
:10076000A737B107E1F70E942E1D0C9411280C94B5
:100770000000E7E3F0E08081806280838081806810
:100780008083808180648083E8E3F0E080818F7DD6
:10079000808380818F77808380818F7B80830895A1
:1007A000DF93CF9300D0CDB7DEB78A8380E889830B
:1007B00020E030E0E8E3F0E099818A81892321F4A8
:1007C00080818F7D808303C080818062808380816F
:1007D0008068808380818F778083898186958983F3
:1007E0002F5F3F4F2830310539F7E8E3F0E0808193
:1007F0008F7B80838081806480830F900F90CF9166
:10080000DF91089580E00E94D00308958091FD0259
:1008100084608093FD020E94D0038091FD028B7F53
:100820008093FD020E94D00308951F93982F6623A2
:1008300031F08091FD0282608093FD0205C08091BD
:10084000FD028D7F8093FD02992334F48091FD0297
:1008500080648093FD0205C08091FD028F7B8093B0
:10086000FD02192F96FF06C08091FD0280628093E1
:10087000FD0205C08091FD028F7D8093FD0215FF72
:1008800006C08091FD0280618093FD0205C08091C9
:10089000FD028F7E8093FD0214FF06C08091FD0251
:1008A00088608093FD0205C08091FD02877F809360
:1008B000FD028091FD020E94D0030E94060480E4A4
:1008C0009FE10197F1F713FF06C08091FD0280645C
:1008D0008093FD0205C08091FD028F7B8093FD0215
:1008E00012FF06C08091FD0280628093FD0205C068
:1008F0008091FD028F7D8093FD0211FF06C08091E3
:10090000FD0280618093FD0205C08091FD028F7E13
:100910008093FD0210FF06C08091FD0288608093E5
:10092000FD0205C08091FD02877F8093FD028091CA
:10093000FD020E94D0030E94060480E49FE101971B
:10094000F1F71F91089560E00E941504089581E079
:1009500090E00E94A304089561E00E9415040895A8
:1009600080618093FD020E94060480EE9EE2019762
:10097000F1F70895DF93CF930F92CDB7DEB78034B0
:1009800018F480E4898301C01982898180580E940B
:10099000A30489810F90CF91DF9108958A3031F4BB
:1009A0008091EC0290E00E94BA040895803C28F007
:1009B000E82FF0E0E350F040849161E00E941504DC
:1009C0008091EC028F5F8093EC020895CF93DF93C8
:1009D000FC018081882339F0EF010E94CE048981D7
:1009E00021968823D1F7DF91CF9108951F93182F77
:1009F000662331F480580E94A3041093EC0207C0D0
:100A000080540E94A304812F805C8093EC021F918C
:100A1000089582E00E94A30482E08093EC0208958E
:100A2000CF93DF93FC018491882349F0EF01219655
:100A30000E94CE04FE01219684918823C9F7DF919C
:100A4000CF9108958091FD0280688093FD020E94FD
:100A5000D00308958091FD028F778093FD020E945C
:100A6000D003089580E40E94A3048EE00E94AC04A9
:100A700081E10E94AC0481E10E94AC0481E10E940A
:100A8000AC0481E10E94AC0481E10E94AC048FE1DE
:100A90000E94AC0480E00E94AC048EE00E94AC0492
:100AA00081E10E94AC0481E10E94AC0481E10E94DA
:100AB000AC0481E10E94AC048FE10E94AC048FE1A0
:100AC0000E94AC0480E00E94AC048EE00E94AC0462
:100AD00081E10E94AC0481E10E94AC0481E10E94AA
:100AE000AC048FE10E94AC048FE10E94AC048FE162
:100AF0000E94AC0480E00E94AC048EE00E94AC0432
:100B000081E10E94AC0481E10E94AC048FE10E946B
:100B1000AC048FE10E94AC048FE10E94AC048FE131
:100B20000E94AC0480E00E94AC048EE00E94AC0401
:100B300081E10E94AC048FE10E94AC048FE10E942D
:100B4000AC048FE10E94AC048FE10E94AC048FE101
:100B50000E94AC0480E00E94AC048EE00E94AC04D1
:100B60008FE10E94AC048FE10E94AC048FE10E94EF
:100B7000AC048FE10E94AC048FE10E94AC048FE1D1
:100B80000E94AC0480E00E94AC0480E80E94A304B0
:100B900008950E94B9030E9402041092FD0210926F
:100BA000EC022EEB30E040E951E0CA010197F1F789
:100BB00021503040D1F70E94B90324EB30E040E9E6
:100BC00051E0CA010197F1F721503040D1F788E098
:100BD00090E00E94B0040E9406040E94060480E097
:100BE00090E00E94B00488E290E00E94A30488E0B4
:100BF00090E00E94A30481E090E00E94A30484E0BE
:100C000090E00E94A3048CE090E00E94A30486E0A0
:100C100090E00E94A3040E943205089510921803E8
:100C2000E1E3F0E08081877F8083E2E3F0E0808190
:100C3000877F8083E5E5F0E0808188608083808124
:100C40008B7F8083EBE5F0E0808180688083109269
:100C5000FE020895382F20E0E1E3F0E0A8E1B1E0E2
:100C600060E570E040E451E030FF0AC080818860B8
:100C700080838081877F8083CA010197F1F70CC050
:100C8000808188608083CD010197F1F78081877F23
:100C90008083CB010197F1F72F5F283011F0369553
:100CA000E3CF089530E020E0E1E3F0E064E170E0BC
:100CB000A0E3B0E040E253E08081886080838081DF
:100CC000877F8083CB010197F1F78C9188708093A7
:100CD000F50226958091F50281112068CA010197DD
:100CE000F1F73F5F383041F7822F0895282F90E0C9
:100CF00038E1862F822780FF06C0822F83278695C2
:100D0000282F206801C026959F5F983011F06695C6
:100D1000F0CF822F0895CF93DF938091FE02882336
:100D200009F06FC080E098E00197F1F7E1E3F0E0AF
:100D300080818860808380E897E00197F1F7808167
:100D4000877F80838CE190E00197F1F7839B59C006
:100D500080E491E00197F1F7839953C080EC93E030
:100D60000197F1F7839B4DC080E897E00197F1F779
:100D700083E30E942A060E9452068093FF0280911C
:100D8000FF028823F1F16091FF0280E00E94760665
:100D90008093FC0210920103809101038630F8F4E5
:100DA000C6EFD2E00E9452068093000380910103B7
:100DB00090910003FE01E80FF11D90838091FC02E9
:100DC000609100030E9476068093FC0280910103EB
:100DD0008F5F8093010380910103863018F30E9496
:100DE000520680930103909101038091FC029817B1
:100DF00021F082E08093FE0204C081E08093FE0235
:100E000005C0EAE5F0E0808180688083DF91CF91C2
:100E10000895E0E2F0E08CE0808380818A3010F475
:100E20008AE080B9E1E2F0E080818C7F80830895E0
:100E3000CF93DF93582FE6E5F0E044EAA1E2B0E07B
:100E4000C3E2D0E030EA24E8408380818823ECF7D5
:100E50008C91887F8830B1F5388320838081882306
:100E6000ECF78C91887F883179F793B984E886BF55
:100E7000E6E5F0E080818823ECF781B1887F883255
:100E800009F553B984E886BFE6E5F0E08081882360
:100E9000ECF781B1887F8832A9F463B984E886BF12
:100EA000E6E5F0E080818823ECF781B1887F883225
:100EB00049F484E986BFE6E5F0E0808184FDFDCF5A
:100EC00081E001C080E0DF91CF910895CF93DF935F
:100ED000582FE6E5F0E044EAA1E2B0E0C3E2D0E05A
:100EE00030EA24E8408380818823ECF78C91887F66
:100EF000883009F04DC03883208380818823ECF747
:100F00008C91887F883171F793B984E886BFE6E5D4
:100F1000F0E080818823ECF781B1887F8832C1F5C9
:100F200053B984E886BFE6E5F0E080818823ECF7DA
:100F300081B1887F883261F584EA86BFE6E5F0E01A
:100F400080818823ECF781B1887F803109F581EABF
:100F500083B984E886BFE6E5F0E080818823ECF77A
:100F600081B1887F8034A1F484E886BFE6E5F0E0B3
:100F700080818823ECF781B1887F883549F493B16B
:100F800084E986BFE6E5F0E0808184FDFDCF01C005
:100F900090E0892FDF91CF9108950F931F93CF9306
:100FA000DF938C01E6E5F0E034EAA1E2B0E0C3E2D1
:100FB000D0E020EA94E8308380818823ECF78C919C
:100FC000887F883009F048C02883908380818823F7
:100FD000ECF78C91887F883171F773B984E886BF0C
:100FE000E6E5F0E080818823ECF781B1887F8832E4
:100FF00099F563B984E886BFE6E5F0E0808188234F
:10100000ECF781B1887F883239F541155105D9F067
:1010100020E030E0C3E2D0E0E6E5F0E094E861E211
:1010200070E0D8018D918D01888390838081882321
:10103000ECF7DB018C91887F883271F42F5F3F4F92
:101040002417350770F384E986BFE6E5F0E0808178
:1010500084FDFDCF81E001C080E0DF91CF911F9141
:101060000F9108950F931F93CF93DF938C01E6E5C3
:10107000F0E034EAA1E2B0E0C3E2D0E020EA94E894
:10108000308380818823ECF78C91887F883009F049
:1010900071C02883908380818823ECF78C91887FAE
:1010A000883171F773B984E886BFE6E5F0E08081A6
:1010B0008823ECF781B1887F883209F05BC063B97F
:1010C00084E886BFE6E5F0E080818823ECF781B113
:1010D000887F883209F04EC084EA86BFE6E5F0E0FA
:1010E00080818823ECF781B1887F803109F042C08C
:1010F00081EA83B984E886BFE6E5F0E08081882351
:10110000ECF781B1887F8034A9F541505040D9F087
:1011100020E030E0E6E5F0E094EC61E270E0C3E26C
:10112000D0E0908380818823ECF7DB018C91887F6D
:10113000803501F58881D8018D938D012F5F3F4F58
:101140002417350770F384E886BFE6E5F0E0808178
:101150008823ECF781B1887F883561F483B1F80189
:10116000808384E986BFE6E5F0E0808184FDFDCFE1
:1011700081E001C080E0DF91CF911F910F91089530
:10118000CF93DF93582FE6E5F0E044EAA1E2B0E028
:10119000C3E2D0E030EA24E8408380818823ECF782
:1011A0008C91887F8830E1F5388320838081882383
:1011B000ECF78C91887F883179F793B984E886BF02
:1011C000E6E5F0E080818823ECF781B1887F883202
:1011D00039F553B984E886BFE6E5F0E080818823DD
:1011E000ECF781B1887F8832D9F484EA86BFE6E5DE
:1011F000F0E080818823ECF781B1887F803181F431
:1012000081EA83B984E886BFE6E5F0E0808188233F
:10121000ECF781B190E0887F803419F491E001C04F
:1012200090E0892FDF91CF910895DC0184EC86BF97
:10123000E6E5F0E080818823ECF781B1887F803596
:1012400011F080E0089583B18C9381E00895DC0172
:1012500084E886BFE6E5F0E080818823ECF781B181
:10126000887F883511F080E0089583B18C9384E9FC
:1012700086BFE6E5F0E0808184FDFDCF81E0089542
:10128000CF93DF93A4E3B0E08C9182608C938C9138
:1012900080648C93E5E3F0E080818F7B80838C9188
:1012A00080688C9380818F77808321E330E0D9013F
:1012B0008C91806F8C93E7E3F0E08081886080837D
:1012C0004AE350E0EA0188818160888380818460FC
:1012D0008083A8E3B0E08C918B7F8C9380818061C8
:1012E0008083E90188818B7F888380818E7F8083E2
:1012F0008C9181608C9380818B7F80838C918460C2
:101300008C9380818D7F80838C9182608C93FA0195
:1013100080818F778083EBE3F0E080818F7780831B
:10132000DF91CF9108958DED83BD89E085BDE9E51D
:10133000F0E08081806880830895E1E3F0E08081BF
:101340008B7F8083E5E5F0E080818260808380810F
:101350008E7F8083EBE5F0E0808180648083089558
:10136000982F969596959695E92FF0E09F01220F7C
:10137000331F220F331F220F331F821B662389F076
:10138000E45DFC4F408127E030E0281B310981E01B
:1013900090E002C0880F991F2A95E2F7482B4083FE
:1013A0000895E45DFC4F408127E030E0281B3109BF
:1013B00081E090E002C0880F991F2A95E2F780959E
:1013C000842380830895EBE3F0E080818260808352
:1013D0001092730381E0809309030895E7E4F3E03A
:1013E00020E030E09BE246E5880F12F4419301C013
:1013F00091932F5F3F4F27303105B1F78BE28093F8
:1014000046030895813071F0813028F0823091F0E8
:101410008330F1F417C0EFE4F3E08BE2808331977F
:1014200080830895EFE4F3E086E5808331978BE2D3
:1014300080830895EFE4F3E08BE28083319786E5C3
:1014400080830895EFE4F3E086E58083319780831D
:101450000895873009F48DC0883088F4833009F40A
:1014600050C0843028F4813081F18230E0F520C012
:10147000853009F462C0863008F06DC050C08B30F2
:1014800009F4AFC08C3038F4893009F48EC08A304A
:1014900008F099C07CC08D3009F4BFC08D3008F4CD
:1014A000AEC08E3009F4C7C08F3009F0DEC0D1C0A5
:1014B000A3E5B3E08BE28C93FD0131978083FD01BE
:1014C0003297808313978C930895A3E5B3E086E564
:1014D0008C93FD0131978BE28083FD0132978083ED
:1014E00013978C930895A3E5B3E09BE29C93FD01D1
:1014F000319786E58083FD013297908313979C9303
:101500000895A3E5B3E086E58C93FD0131978083D0
:10151000FD0132978BE2808313978C930895A3E5A6
:10152000B3E09BE29C93FD0131979083FD013297DC
:1015300086E5808313979C930895A3E5B3E096E531
:101540009C93FD0131978BE28083FD01329790835C
:1015500013978C930895A3E5B3E09BE29C93FD0160
:10156000319786E58083FD013297808313979C93A2
:101570000895A3E5B3E086E58C93FD013197808360
:10158000FD013297808313978BE28C930895A3E536
:10159000B3E08BE28C93FD0131978083FD0132979C
:1015A0008083139786E58C930895A3E5B3E096E5D1
:1015B0009C93FD0131978BE28083FD0132978083FC
:1015C00013979C930895A3E5B3E09BE29C93FD01E0
:1015D000319786E58083FD013297908313978C9332
:1015E0000895A3E5B3E096E59C93FD0131979083C0
:1015F000FD0132978BE2808313979C930895A3E5B6
:10160000B3E08BE28C93FD0131978083FD0132972B
:1016100086E5808313978C930895A3E5B3E096E560
:101620009C93FD0131978BE28083FD01329790837B
:1016300013979C930895A3E5B3E08BE28C93FD018F
:10164000319786E58083FD013297808313978C93D1
:101650000895A3E5B3E086E58C93FD01319780837F
:10166000FD013297808313978C930895482F282F7C
:1016700026952695269530E0F901E45DFC4F8081A2
:1016800090E0220F331F220F331F220F331F421B04
:1016900027E030E0241B310902C0959587952A95F3
:1016A000E2F78170089580E88CBFE3E5F0E088E41C
:1016B00080838081816080838081806280830895BF
:1016C000AFE4B0E08C918E7F8C938C918D7F8C9366
:1016D000EEE4F0E080818860808380818F7E80836B
:1016E0008C918F7B8C938C918F778C9380818F7E64
:1016F000808380818F7D808380818E7F80838081C5
:101700008260808380818B7F808389EF8ABDE9E559
:10171000F0E08081806180830895982FAEE6B3E089
:10172000FD0111921082FD013296108213961C92D7
:101730008695482F50E01416150674F420E030E02A
:101740006EE673E08FEFFB01E20FF31F80832F5FE4
:101750003F4F24173507BCF39A01220F331F892FFF
:1017600090E0821B930B181619062CF4FA01E2592B
:10177000FC4F8CEC8083089580B390E0807690706D
:101780008032910549F08034910519F0892B39F0A8
:1017900009C080E290E0089580E490E0089580E838
:1017A00090E0089580E190E0089586B38695809555
:1017B00081700895CF92DF92FF920F931F93CF9382
:1017C000DF93EC01062FF72E142F8FE0C13AD807D4
:1017D00008F052C0C0905A03D0905B038FEF9FEF88
:1017E00090935B0380935A039E0140E050E060EACF
:1017F0007CE880E090E00E947E27422F802F9F2D82
:101800009C01213A310510F020EA30E0CE016AE077
:1018100070E00E945727269FD001279FB00D369F6A
:10182000B00D1124109721F160E070E0ECE5F0E0DC
:10183000242F30E0A90110831092620310926103FB
:10184000809161039091620382179307C8F310821D
:101850001092620310926103809161039091620380
:1018600084179507C8F36F5F7F4F6A177B0718F3DC
:10187000D0925B03C0925A03DF91CF911F910F91D9
:10188000FF90DF90CF9008950F931F9308E310E02F
:10189000F80180818061808388EE93E063E070E0EE
:1018A00040E80E94DA0B84EF91E063E070E040E8EA
:1018B0000E94DA0BF80180818F7E80831F910F9147
:1018C00008958F929F92AF92BF92CF92DF92EF9244
:1018D000FF920F931F93DF93CF9300D0CDB7DEB766
:1018E000D62E8983662329F422E030E043E050E0DD
:1018F00007C0462F50E09A01215030400AF476C0CC
:101900000F2EF5E1EF2EF7E0FF2EF02D06EE12E0A0
:1019100089816AE00E944B279A8389810E944B2724
:1019200089838A81F701E80FF11DE491D801A20FA4
:10193000B31FEC93215030405AF7FA01EA51FD4FA2
:101940001082DD2009F041C00F2EF6EECF2EF2E01E
:10195000DF2EF02D56010894A11CB11C07EE12E0F9
:101960004801089481089108B4016E5F7F4FA4017B
:101970004D5F5F4F94012C5F3F4FD40115960F2EA2
:10198000F6E0EF2EFF24F02DE80CF91CF601808123
:10199000F50190818033C9F49923B9F0F801808171
:1019A000F4018083FB018081F8018083FA0180814A
:1019B000FB018083F9018081FA0180838C91F90118
:1019C0008083F70180818C93E1CF86EE92E00F90C7
:1019D0000F90CF91DF911F910F91FF90EF90DF90CB
:1019E000CF90BF90AF909F908F900895FA01EA51E9
:1019F000FD4F1082EACF8F929F92AF92BF92CF920B
:101A0000DF92EF92FF920F931F93DF93CF9300D05B
:101A100000D0CDB7DEB7462F9A838983662341F481
:101A200004E010E00F2EF5E0EF2EFF24F02D07C0AC
:101A3000E62EFF248701015010400AF488C00F2EC3
:101A4000F5E1AF2EF7E0BF2EF02D0F2EF0EECF2EEA
:101A5000F2E0DF2EF02D89819A816AE070E00E9429
:101A60005727282F392F3C832B8389819A816AE05D
:101A700070E00E945727862F972F9A8389838B8146
:101A80009C81F501E80FF91FE491D601A00FB11F69
:101A9000EC9301501040FAF6F701E052FD4F10822E
:101AA000442309F041C00F2EF0EECF2EF2E0DF2EDE
:101AB000F02D56010894A11CB11C01EE12E0480162
:101AC000089481089108B4016E5F7F4FA4014D5FB7
:101AD0005F4F94012C5F3F4FD40115960F2EF6E017
:101AE000EF2EFF24F02DE80CF91CF6018081F501A2
:101AF00090818033C9F49923B9F0F8018081F40111
:101B00008083FB018081F8018083FA018081FB01E1
:101B10008083F9018081FA0180838C91F9018083AF
:101B2000F70180818C93E1CF80EE92E00F900F90CF
:101B30000F900F90CF91DF911F910F91FF90EF9039
:101B4000DF90CF90BF90AF909F908F900895F70156
:101B5000E052FD4F1082E8CF0E94A70480E690E09B
:101B60000E94E604809157039091580360E00E9420
:101B7000610C0E94E60488E690E00E94E60480E0A2
:101B800061E00E94F6048BE690E00E94E6048091FA
:101B90001A0390911B0360E00E94610C0E94E6040E
:101BA0008AE061E00E94F60482E790E00E94E60489
:101BB0008091150360E00E94610C0E94E60486E7B4
:101BC00090E00E94E604089587E060E00E94F60439
:101BD000809157039091580360E00E94610C0E942D
:101BE000E60488E790E00E94E604089586E061E05C
:101BF0000E94F60480911A0390911B0360E00E94FA
:101C0000610C0E94E60486E790E00E94E6040895D5
:101C10008DE061E00E94F6048091150360E00E946F
:101C2000610C0E94E60486E790E00E94E6040895B5
:101C300080EC87B987E886B90895E7E2F0E0908103
:101C40008770892B8083E6E2F0E080818064808366
:101C5000808184FFFDCFE6E2F0E0808180618083B7
:101C600024B135B1822F932F08950F931F930E94B3
:101C7000A7040E9409058DE790E00E94E60407E6AC
:101C800013E0F801808160E00E94610C0E94E6048C
:101C900083E890E00E94E60480E061E00E94F604A0
:101CA0008BE890E00E94E60402501040F801819118
:101CB0008F0160E00E94610C0E94E60480E990E0E0
:101CC0000E94E604F801808160E00E94610C0E949D
:101CD000E6041F910F910895843321F1853360F458
:101CE0008133C1F0823318F4803341F515C082335B
:101CF000A9F0833319F514C08733D1F0883328F461
:101D0000853391F08633D1F411C0883399F089334B
:101D1000A9F412C081E0089580E0089582E008955A
:101D200083E0089584E0089585E0089586E00895AD
:101D300087E0089588E0089589E0089585E508958D
:101D40000895CF93DF93582FE6E5F0E044EAA1E24F
:101D5000B0E0C3E2D0E030EA24E840838081882309
:101D6000ECF78C91887F883009F083C0388320831A
:101D700080818823ECF78C91887F883171F793B943
:101D800084E886BFE6E5F0E080818823ECF781B146
:101D9000887F883209F06DC053B984E886BFE6E5D4
:101DA000F0E080818823ECF781B1887F883209F0E8
:101DB00060C084EA86BFE6E5F0E080818823ECF726
:101DC00081B1887F803109F054C081EA83B984E809
:101DD00086BFE6E5F0E080818823ECF781B1887F5B
:101DE000803409F046C06150704001F120E030E0DD
:101DF000E6E5F0E094ECA1E2B0E0C3E2D0E041E03F
:101E0000908380818823ECF78C91887F803589F5D9
:101E100080915D038823E1F7888180935603409386
:101E20005D032F5F3F4F2617370750F384E886BFC7
:101E3000E6E5F0E080818823ECF781B1887F883582
:101E4000C1F480915D038823E1F783B18093560349
:101E500081E080935D0384E986BFE6E5F0E0808160
:101E600084FDFDCF1CBE1092560310925D0381E0ED
:101E700001C080E0DF91CF9108950F931F9386E218
:101E800090E00E94E9278C0188E290E00E94E92717
:101E9000BC01C8010E94A10E1F910F9108950F93DC
:101EA0001F9382E290E00E94E9278C0184E290E097
:101EB0000E94E927BC01C8010E94A10E1F910F9149
:101EC00008950F931F938EE190E00E94E9278C0103
:101ED00080E290E00E94E927BC01C8010E94A10EA7
:101EE0001F910F9108950E94610F08950F931F9302
:101EF0008AE190E00E94E9278C018CE190E00E9449
:101F0000E927BC01C8010E94A10E1F910F910895FD
:101F10000E94760F08950F931F9386E190E00E9430
:101F2000E9278C0188E190E00E94E927BC01C80103
:101F30000E94A10E1F910F9108958091120390911C
:101F40001303029750F081E090E090931303809385
:101F5000120380916C038823E1F70E948B0F089590
:101F60000F931F9382E190E00E94E9278C0184E1A6
:101F700090E00E94E927BC01C8010E94A10E1F91B8
:101F80000F910895EF92FF920F931F93DF93CF93DA
:101F900000D0CDB7DEB787E00E941D0E9A838983FB
:101FA00086E090E00E94E9277C0188E090E00E94B2
:101FB000E9278C018CE060E00E94F60480916D03BB
:101FC000882321F0813009F07CC041C0C801880F0E
:101FD000991F880F991F6BE470E00E945727862F86
:101FE000972F8C0187E990E00E94E60489819A810D
:101FF0008017910720F480E00E94CE0462C0C701E0
:10200000880F991F880F991F6BE470E00E94572773
:10201000862F972FBC0189819A816817790720F450
:1020200085E00E94CE044DC029813A81201B310BEE
:10203000C901880F991F820F931F601B710B880FB6
:10204000991F0E945727862F0E94CE043AC02981EB
:102050003A81C901880F991F820F931F9C01220F9B
:10206000331F220F331F820F931F969587959695E6
:102070008795969587959A83898389819A8164E665
:1020800070E00E945727862F60E00E94610C0E943A
:10209000E6048BE990E00E94E60489819A8164E677
:1020A00070E00E9457276AE070E00E945727862F51
:1020B00060E00E94610C0E94E60486E790E00E94C6
:1020C000E6040F900F90CF91DF911F910F91FF9039
:1020D000EF90089588E090E00E94E92760E00E9478
:1020E000FB0C0E949D2686E794E00E94AD26089591
:1020F00086E090E00E94E92760E00E94FB0C0E94CD
:102100009D2686E794E00E94AD2608950E94B00FB8
:102110008DE990E00E949D260895CF92DF92EF9284
:10212000FF920F931F93DF93CF9300D0CDB7DEB70D
:102130001A8220E00F2EF7E7EF2EF4E0FF2EF02DAD
:102140000F2EFAE0CF2EF02DDD24D39423C0809102
:10215000F302F701E80FF11D908199838F5F80935F
:10216000F30289818032B1F08981803370F08981F6
:102170008A3358F40A8189810E946C0E0C9D80017B
:102180001124800F8A832D2D05C082EA90E00E94E1
:102190009D2640C08091F302F701E80FF11D808178
:1021A0008D30A9F6222329F48AE194E00E94AD261D
:1021B00031C08A81873018F48A81882329F48DE31D
:1021C00094E00E94AD2626C08A818330A1F084303D
:1021D00028F4813051F08230C9F40AC0853089F08A
:1021E000853060F0863091F40FC00E94B00F0EC0B1
:1021F0000E948B0F0BC00E94760F08C00E94610FD7
:1022000005C00E944F0F02C00E943D0F8DE990E073
:102210000E949D260F900F90CF91DF911F910F91FB
:10222000FF90EF90DF90CF9008950E94E92760E043
:102230000E94FB0C0E949D268AEA90E00E949D2647
:10224000089588E290E00E941511089586E290E0DA
:102250000E941511089584E290E00E9415110895DE
:1022600082E290E00E941511089580E290E00E94C1
:10227000151108958EE190E00E94151108958CE1EA
:1022800090E00E94151108958AE190E00E941511D6
:10229000089588E190E00E941511089586E190E08C
:1022A0000E941511089584E190E00E94151108958F
:1022B00082E190E00E9415110895DF92EF92FF9263
:1022C0000F931F93DF93CF9300D00F92CDB7DEB75C
:1022D0001B821A8220E00F2EF7E7EF2EF4E0FF2E8C
:1022E000F02DDD24D3942EC08091F302F701E80F86
:1022F000F11D908199838F5F8093F30289818032F1
:1023000009F189818033C8F089818A33B0F40A8168
:102310001B8189810E946C0E9801220F331F000FD0
:10232000111F000F111F000F111F200F311F280F49
:10233000311D3B832A832D2D05C082EA90E00E9447
:102340009D264FC08091F302F701E80FF11D8081B7
:102350008D3051F6222329F48AE194E00E94AD26C3
:1023600040C08A819B818150924028F08DE394E0A7
:102370000E94AD2636C00E94EA268DE990E00E94B8
:102380009D261092690310926803809168039091D2
:102390006903885E9D4F20F48091F4028823ACF796
:1023A0008091F4028823CCF46A817B817695762F24
:1023B00066277795679587E794E040E850E00E94AC
:1023C000CD07882329F08DE990E00E949D2609C061
:1023D00081EB90E00E949D2604C08CEC90E00E946E
:1023E0009D260F900F900F90CF91DF911F910F912D
:1023F000FF90EF90DF90089580E090E00E94E12749
:1024000060E00E94610C0E949D2686E794E00E9495
:10241000AD2608958AE290E00E94E12760E00E94E4
:10242000610C0E949D2686E794E00E94AD260895E7
:102430008AE090E00E94E127803439F0803849F446
:1024400084ED90E00E949D2604C086ED90E00E94FD
:102450009D2686E794E00E94AD26089582E090E0F4
:102460000E94E12760E00E94610C0E949D268AEA9A
:1024700090E00E949D26089581E090E00E94E1276F
:1024800060E00E94610C0E949D268AEA90E00E9412
:102490009D26089584E090E00E94E12760E00E947C
:1024A000610C0E949D268AEA90E00E949D26089574
:1024B00083E090E00E94E12760E00E94610C0E94AE
:1024C0009D268AEA90E00E949D26089582E090E091
:1024D0000E94E127089580E090E00E94E12708959E
:1024E000EF92FF920F931F93CF93DF938BE090E0D7
:1024F0000E94E1279091FF028917E1F4C0E0D0E04B
:102500000F2EFBE0EF2EF0E0FF2EF02D06EF12E095
:10251000CE0101968E0D9F1D0E94E127F801EC0F60
:10252000FD1F9081891731F42196C630D10581F7BE
:1025300081E001C080E0DF91CF911F910F91FF906A
:10254000EF900895CF92DF92EF92FF920F931F9337
:10255000DF93CF9300D0CDB7DEB71A8220E00F2EE5
:10256000F7E7EF2EF4E0FF2EF02D0F2EFAE0CF2E3E
:10257000F02DDD24D39423C08091F302F701E80FFE
:10258000F11D908199838F5F8093F302898180325E
:10259000B1F08981803370F089818A3358F40A81DF
:1025A00089810E946C0E0C9D80011124800F8A830A
:1025B0002D2D05C08CE594E00E94AD262DC08091A4
:1025C000F302F701E80FF11D80818D30A9F6222377
:1025D00029F48AE194E00E94AD261EC08A818230EF
:1025E00038F48A818A81882341F0813089F40BC0D4
:1025F0008DE394E00E94AD260FC08AE090E060E891
:102600000E94EF2705C08AE090E060E40E94EF2777
:1026100086E794E00E94AD260F900F90CF91DF9156
:102620001F910F91FF90EF90DF90CF900895CF9280
:10263000DF92EF92FF920F931F93DF93CF9300D01F
:10264000CDB7DEB71A8220E00F2EF7E7EF2EF4E0C9
:10265000FF2EF02D0F2EFAE0CF2EF02DDD24D39497
:1026600023C08091F302F701E80FF11D9081998357
:102670008F5F8093F30289818032B1F0898180334A
:1026800070F089818A3358F40A8189810E946C0E26
:102690000C9D80011124800F8A832D2D05C082EAB4
:1026A00090E00E949D2618C08091F302F701E80F88
:1026B000F11D80818D30A9F6222329F48AE194E06E
:1026C0000E94AD2609C06A8184E090E00E94EF2755
:1026D0008DE990E00E949D260F900F90CF91DF91A1
:1026E0001F910F91FF90EF90DF90CF9008958F9200
:1026F0009F92AF92BF92CF92DF92EF92FF920F9391
:102700001F93DF93CF9300D0CDB7DEB75C01862E49
:10271000942E1A8220E00F2EF7E7EF2EF4E0FF2E22
:10272000F02D0F2EFAE0CF2EF02DDD24D39423C010
:102730008091F302F701E80FF11D908199838F5F7B
:102740008093F30289818032B1F08981803370F007
:1027500089818A3358F40A8189810E946C0E0C9D0C
:1027600080011124800F8A832D2D05C08CE594E013
:102770000E94AD2622C08091F302F701E80FF11DFF
:1027800080818D30A9F6222329F48AE194E00E9409
:10279000AD2613C08A81981618F08A81881528F40E
:1027A0008DE394E00E94AD2608C06A81C5010E94B5
:1027B000EF278DE990E00E949D260F900F90CF911A
:1027C000DF911F910F91FF90EF90DF90CF90BF901E
:1027D000AF909F908F90089580E090E060E043E09C
:1027E0000E94771308958AE290E060E041E00E9441
:1027F0007713089582E090E060E04FE00E94771345
:10280000089581E090E060E04FE70E94771308951B
:1028100083E090E060E04AE50E9477130895EF922C
:10282000FF921F93CF93DF9310920A038AE290E006
:102830000E94E127182F0E94A70488ED90E00E94D3
:10284000E60480E061E00E94F604112329F089EE9D
:1028500090E00E94E60404C08DEE90E00E94E60441
:1028600081EF90E00E94E604CDEED0E00F2EF9EE6D
:10287000EF2EF0E0FF2EF02D36C080910A03882362
:10288000E1F380910A038330E1F0843028F4813051
:1028900041F0823031F508C08430B1F0853009F55F
:1028A00022C010920A031FC0112341F480E061E0AE
:1028B0000E94F604C7010E94E60411E010920A0388
:1028C00012C010920A030FC0112341F080E061E0B2
:1028D0000E94F604CE010E94E60410E010920A0362
:1028E00002C010920A0380910A03853031F68AE211
:1028F00090E00E94E127181759F00E94A7048DEF7D
:1029000090E00E94E6048AE290E0612F0E94EF27A7
:10291000DF91CF911F91FF90EF900895DF92EF929A
:10292000FF920F931F93CF93DF9310920A038AE0D5
:1029300090E00E94E127182F0E94A7048BE091E00D
:102940000E94E60480E061E00E94F604103429F45D
:102950008BE191E00E94E60406C0103821F481E288
:1029600091E00E94E60481EF90E00E94E6040F2EC1
:10297000F1E2EF2EF1E0FF2EF02D00E8CBE1D1E007
:10298000DD246894D6F836C080910A038823E1F3E9
:1029900080910A038330E1F0843028F4813041F0E3
:1029A000823031F508C08430B1F0853009F522C09D
:1029B00010920A031FC0103841F480E061E00E94C9
:1029C000F604CE010E94E6041D2D10920A0312C0E7
:1029D00010920A030FC0103441F480E061E00E94BD
:1029E000F604C7010E94E604102F10920A0302C0E9
:1029F00010920A0380910A03853031F68AE090E054
:102A00000E94E127181759F00E94A7048DEF90E06B
:102A10000E94E6048AE090E0612F0E94EF27DF9198
:102A2000CF911F910F91FF90EF90DF900895BF928B
:102A3000CF92DF92EF92FF920F931F93CF93DF938A
:102A40008C016B01EA01B22E10920A03CB010E94A5
:102A5000E127F82EFE01E80FF11DE4900E94A70483
:102A6000C8010E94E60480E061E00E94F6048E2D19
:102A700063E00E94610C0E94E60487E291E00E94FC
:102A8000E60443C080910A038823E1F380910A039E
:102A9000833019F1843028F4813041F0823099F587
:102AA00008C08430E9F0853071F52FC010920A0318
:102AB0002CC0FB1408F4F39480E061E00E94F6045B
:102AC000FE01EF0DF11DE4918E2F63E00E94610C79
:102AD0000E94E60410920A0318C010920A0315C05F
:102AE000F110FA9480E061E00E94F604FE01EF0D1F
:102AF000F11DE4918E2F63E00E94610C0E94E604B8
:102B000010920A0302C010920A0380910A038530D2
:102B100009F0B8CFC6010E94E127F81651F00E94D3
:102B2000A7048DEF90E00E94E604C6016F2D0E947D
:102B3000EF27DF91CF911F910F91FF90EF90DF90E2
:102B4000CF90BF900895EF92FF920F931F93CF9372
:102B5000DF93EC017B01042F10920A03CB010E944A
:102B6000E127102F801708F4182F0E94A704CE0128
:102B70000E94E60480E061E00E94F604812F63E099
:102B80000E94610C0E94E60487E291E00E94E60444
:102B9000C02FD0E05FC080910A038823E1F38091C9
:102BA0000A03833091F1843030F4813051F0823067
:102BB00009F04EC01AC08430E1F1853009F048C0F8
:102BC00049C0812F90E00A96C817D9070CF0165F0C
:102BD00080E061E00E94F604812F63E00E94610CB6
:102BE0000E94E60410920A0335C0101708F41F5F14
:102BF00080E061E00E94F604812F63E00E94610C96
:102C00000E94E60410920A0325C0812F90E00997E4
:102C1000181619060CF41A5080E061E00E94F604C0
:102C2000812F63E00E94610C0E94E60410920A0367
:102C300011C01111115080E061E00E94F604812F53
:102C400063E00E94610C0E94E60410920A0302C035
:102C500010920A0380910A03853009F09CCFC701C6
:102C60000E94E127181751F00E94A7048DEF90E011
:102C70000E94E604C701612F0E94EF27DF91CF91E8
:102C80001F910F91FF90EF9008950F931F9301E014
:102C900010E085E391E0B8014FE70E94A315C80159
:102CA0000E94E1270E94EE0984E491E060E070E078
:102CB00043E00E94A3150E946B120E94020A84E561
:102CC00091E062E070E040E257E02FE00E941715CB
:102CD0000E9466120E94290A84E691E063E070E097
:102CE0004AE50E94A31586E791E064E070E04AE5BA
:102CF0000E94A31581E891E065E070E048E00E9441
:102D0000A3150E948E148AE090E00E94E127809330
:102D100011030E940F141F910F910895682F80E0F6
:102D200090E00E94EF270895BF92CF92DF92EF923A
:102D3000FF920F931F93DF93CF9300D00F92CDB7E5
:102D4000DEB76C011B821A8220E00F2EF7E7EF2E10
:102D5000F4E0FF2EF02DBB24B3942EC08091F3023B
:102D6000F701E80FF11D908199838F5F8093F30243
:102D70008981803209F189818033C8F089818A3361
:102D8000B0F40A811B8189810E946C0E9801220F88
:102D9000331F000F111F000F111F000F111F200FF5
:102DA000311F280F311D3B832A832B2D05C082EA5A
:102DB00090E00E949D2618C08091F302F701E80F71
:102DC000F11D80818D3051F6222329F48AE194E0AF
:102DD0000E94AD2609C06A817B81C6010E94FC2742
:102DE0008DE990E00E949D260F900F900F90CF915B
:102DF000DF911F910F91FF90EF90DF90CF90BF90E8
:102E0000089588E290E00E949416089586E290E08A
:102E10000E949416089584E290E00E94941608950A
:102E200082E290E00E949416089580E290E00E9471
:102E3000941608958EE190E00E94941608958CE116
:102E400090E00E94941608958AE190E00E94941602
:102E5000089588E190E00E949416089586E190E03C
:102E60000E949416089584E190E00E9494160895BB
:102E700082E190E00E94941608956F927F929F9253
:102E8000AF92BF92CF92DF92EF92FF920F931F9378
:102E9000DF93CF9300D00F92CDB7DEB73C015B013B
:102EA0006A011B821A8220E00F2EF7E7EF2EF4E072
:102EB000FF2EF02D992493942EC08091F302F701F8
:102EC000E80FF11D908199838F5F8093F3028981D0
:102ED000803209F189818033C8F089818A33B0F466
:102EE0000A811B8189810E946C0E9801220F331F79
:102EF000000F111F000F111F000F111F200F311F96
:102F0000280F311D3B832A83292D05C08CE594E0D1
:102F10000E94AD2627C08091F302F701E80FF11D52
:102F200080818D3051F6222329F48AE194E00E94B9
:102F3000AD2618C08A819B81C816D90628F08A81DF
:102F40009B818A159B0528F48DE394E00E94AD26B1
:102F500009C06A817B81C3010E94FC278DE990E052
:102F60000E949D260F900F900F90CF91DF911F919F
:102F70000F91FF90EF90DF90CF90BF90AF909F9018
:102F80007F906F90089588E090E064E971E148ECEB
:102F90005FEA0E943D17089586E090E060E070E0EF
:102FA00048EC5FEA0E943D17089581E090E00E949E
:102FB000E12788232CF481E090E060E00E94EF2775
:102FC00080E090E00E94E127843028F080E090E0EB
:102FD00060E00E94EF2782E090E00E94E1278031CC
:102FE00028F082E090E065E00E94EF2783E090E027
:102FF0000E94E1278B3528F083E090E06EE10E948B
:10300000EF2784E090E00E94E1278B3528F084E0F0
:1030100090E06FE00E94EF2785E090E00E94E127BA
:10302000893028F085E090E061E00E94EF2786E09B
:1030300090E00E94E9278F5F9F4F31F486E090E097
:1030400060E97AE10E94FC2788E090E00E94E9278D
:103050008F5F9F4F31F488E090E06CE775E10E944C
:10306000FC278AE090E00E94E127803459F08AE052
:1030700090E00E94E127803829F08AE090E060E447
:103080000E94EF278AE290E00E94E127823028F038
:103090008AE290E061E00E94EF2708950E94D51730
:1030A0008FEF9FEF90935B0380935A0390930703F6
:1030B000809306031092090381E090E00E94E127CB
:1030C0000E94EE090E946B120E94020A0E94661280
:1030D0000E94290A84E090E00E94E1278093150372
:1030E00010921B0310921A03E5E4F3E08CEA80834C
:1030F0003F9610821092730310921403109275037E
:10310000109274031092190388E080935E0384E6A2
:1031100090E09093580380935703A4E3B3E0FD013C
:10312000118210823296808181608083FD01339606
:103130001182108215968C9181608C9310921003ED
:1031400010920F03109208031092550310926D0312
:103150008AE090E00E94E1278093110310924403DB
:10316000109213031092120310926C0308950E94A0
:103170008E268DE794E00E94AD268DE990E00E94B6
:103180009D260895DF92EF92FF920F931F93DF9396
:10319000CF9300D00F92CDB7DEB71B821A8220E00A
:1031A0000F2EF7E7EF2EF4E0FF2EF02DDD24D39461
:1031B0002EC08091F302F701E80FF11D90819983F1
:1031C0008F5F8093F3028981803209F18981803396
:1031D000C8F089818A33B0F40A811B8189810E94F9
:1031E0006C0E9801220F331F000F111F000F111FCB
:1031F000000F111F200F311F280F311D3B832A8321
:103200002D2D05C082EA90E00E949D2642C080914B
:10321000F302F701E80FF11D80818D3051F6222372
:1032200029F48AE194E00E94AD2633C08A819B8113
:103230008150924028F08DE394E00E94AD2629C091
:103240000E948E266A817B817695762F66277795F8
:10325000679587E793E040E850E00E9432088823B2
:10326000A1F000E010E00F2EF7E7EF2EF3E0FF2EC5
:10327000F02DF701E00FF11F80810E9495260F5F6E
:103280001F4F00381105A9F704C083E991E00E949F
:103290009D260F900F900F90CF91DF911F910F916E
:1032A000FF90EF90DF9008954F925F926F927F9220
:1032B0008F929F92AF92BF92CF92DF92EF92FF9246
:1032C0000F931F93DF93CF93CDB7DEB7A2970FB6BF
:1032D000F894DEBF0FBECDBFEE24FF2420E030E027
:1032E0000F2EFCE94F2EF3E05F2EF02D00E00F2EA5
:1032F000F3E0CF2EDD24F02DCC0EDD1EC6017C2C9C
:10330000692E0F2EF7E78F2EF4E09F2EF02DC901C6
:10331000880F991FF201E80FF91F25913491A90137
:10332000F9018491882311F4102F0FC0102FFA0196
:103330008491F601E10FF11D80831F5F2F5F3F4FE6
:10334000A901F9018491882391F78091F30260919A
:10335000F4029401280F311DC901702F472D562DFD
:10336000212F302F0E94BB275C018091F3026091D6
:10337000F402F401E80FF11DCF01702F472D562DF7
:10338000212F302F0E94BB27892BB9F0C501875709
:1033900094409A8389832091F30289819A81280F2E
:1033A000210F2093F3028091F40229813A81811B3D
:1033B000821B8093F4028E2D0AC00894E11CF11C3C
:1033C0009701FFE2EF16F10409F0A1CF8FEFA2966B
:1033D0000FB6F894DEBF0FBECDBFCF91DF911F9126
:1033E0000F91FF90EF90DF90CF90BF90AF909F90A4
:1033F0008F907F906F905F904F900895EAE2F0E099
:1034000080818F7780830E945419E82FF0E0EF329B
:10341000F10508F095C0E65DFF4FEE0FFF1F059028
:10342000F491E02D09940E9408148EC00E94581255
:103430008BC00E94B71888C00E94171385C00E94D5
:103440004A1282C00E945D117FC00E94C2187CC0D7
:103450000E94381779C00E94581176C00E94331715
:1034600073C00E94531170C00E942E176DC00E943D
:103470004E116AC00E94291767C00E94491164C09A
:103480000E94241761C00E9444115EC00E941F1751
:103490005BC00E943F1158C00E941A1755C00E947D
:1034A0003A1152C00E9415174FC00E9435114CC0EE
:1034B0000E94101749C00E94301146C00E940B178D
:1034C00043C00E942B1140C00E9406173DC00E94BD
:1034D00026113AC00E94011737C00E94211134C042
:1034E0000E948D1031C00E9486102EC00E940114CF
:1034F0002BC00E943C1228C00E94FA1325C00E94D3
:103500002E1222C00E94A2121FC00E9418121CC0BC
:103510000E94F31319C00E940A1216C00E94EC13F5
:1035200013C00E94FC1110C00E94CC170DC00E9455
:1035300078100AC00E94C31707C00E946A1004C016
:103540008AEF93E00E94AD26109244030E94EA267F
:1035500008952F923F924F925F926F927F928F9237
:103560009F92AF92BF92CF92DF92EF92FF920F9312
:103570001F93DF93CF9300D0CDB7DEB785E089836B
:103580000E94A7040E9409058BE090E00E94E127B9
:10359000882339F08BE090E00E94E1278F3F09F00B
:1035A0000DC110920A038DEA91E00E94E60480E0CA
:1035B00061E00E94F6048DEB91E00E94E6040F2E7C
:1035C000FBE0EF2EF0E0FF2EF02DCC24DD240F2EBB
:1035D000F6EFAF2EF2E0BF2EF02D0F2EF9ED6F2E8D
:1035E000F1E07F2EF02D0F2EFEEC4F2EF1E05F2E3E
:1035F000F02D0F2EFDEA2F2EF1E03F2EF02D0F2E95
:10360000FDEB8F2EF1E09F2EF02D70C080914403D2
:10361000882341F480910A03882321F48091FE02DB
:103620008823A1F380914403882311F00E94FE199E
:103630008091FE02813031F1823009F04DC00E944C
:10364000A7040E940905C2010E94E604D092620309
:10365000C0926103809161039091620380569A4EFB
:10366000C8F30E94A7040E940905C1010E94E60454
:1036700080E061E00E94F604C4010E94E60410921A
:10368000FE022AC06091FF02C7010E94EF27C60117
:10369000F501E80FF91F60818C010F5F1F4FC70113
:1036A000800F911F0E94EF27C8010630110581F796
:1036B0000E94A7040E940905C3010E94E604D0925B
:1036C0006203C0926103809161039091620380560E
:1036D0009A4EC8F31092FE0280910A038530B1F031
:1036E00080910A03853011F010920A0380910A0339
:1036F000853031F0C7010E94E127882309F486CF85
:10370000C7010E94E1278F3F09F480CF80910A030F
:10371000853009F03EC010920A030E94A7040E945F
:1037200009058AEE91E00E94E6048981882359F117
:1037300080910A03882339F5109262031092610385
:10374000809161039091620380569A4E20F480919B
:103750000A038823A9F380910A038823A1F48EE049
:1037600061E00E94F604898181508983898160E04B
:103770000E94610C0E94E6048981882321F08091D7
:103780000A038823C9F280910A03853011F40E944C
:10379000451610921B0310921A03EBE3F0E08081B0
:1037A0008160808384E090E00E94E127809315038C
:1037B00010920A03109259031092FE028BE090E0DF
:1037C0000E94E127882309F434C18BE090E00E9435
:1037D000E1278F3F09F42DC11A820BE012E00F2E72
:1037E000FDE2CF2EF2E0DF2EF02D992493940F2EE0
:1037F000F6E2AF2EF2E0BF2EF02D0F2EFEECEF2EF4
:10380000F1E0FF2EF02D5FC00E94A7040E94090581
:10381000C8010E94E60480914403882321F480912A
:10382000FE028823C1F380914403882311F00E9493
:10383000FE198091FE028130C1F0823009F043C050
:103840000E94A7040E940905C7010E94E604109285
:10385000620310926103809161039091620380562C
:103860009A4EC8F31092FE022EC00E947012882356
:10387000B1F09A820E94A7040E940905C5010E9426
:10388000E6041092620310926103809161039091AB
:10389000620380569A4EC8F31092FE0214C00E9432
:1038A000A7040E940905C6010E94E6041092620363
:1038B00010926103809161039091620380569A4E49
:1038C000C8F31092FE028A81882309F49DCF0E94DA
:1038D000A7040E94090510920A031092590310923E
:1038E000FE0289E392E00E94E6048981882399F12F
:1038F0008091FE02882379F580910A03882359F587
:1039000010926203109261038091610390916203AF
:1039100080569A4E20F480910A038823A9F380915F
:103920000A038823C1F48EE061E00E94F6048981D5
:1039300081508983898160E00E94610C0E94E604C5
:103940008981882341F08091FE02882321F48091AF
:103950000A038823A9F28091FE02813049F1823066
:1039600009F054C00E94A7040E9409058EEC91E062
:103970000E94E60410926203109261038091610339
:103980009091620380569A4EC8F30E94A7040E9449
:10399000090586E592E00E94E60480E061E00E946D
:1039A000F60483E692E00E94E6041092FE022EC026
:1039B0000E947012882329F00E9445161092FE0280
:1039C00025C00E94A7040E9409058DE292E00E9492
:1039D000E60410926203109261038091610390915A
:1039E000620380569A4EC8F30E94A7040E940905FC
:1039F00086E592E00E94E60480E061E00E94F60421
:103A000083E692E00E94E6041092FE0210921B03ED
:103A100010921A03EBE3F0E080818160808384E000
:103A200090E00E94E1278093150310920A03109200
:103A300059030F900F90CF91DF911F910F91FF903D
:103A4000EF90DF90CF90BF90AF909F908F907F903E
:103A50006F905F904F903F902F9008952F923F92DC
:103A60004F925F926F927F928F929F92AF92BF928E
:103A7000CF92DF92EF92FF920F931F93DF93CF933A
:103A800000D000D000D0CDB7DEB70E9440090E9420
:103A900093090E949D090E940E060E94600B0E94DD
:103AA000530B0E944E180E94C9050E94A7040E9451
:103AB00035250E94180E0E947C26EAE2F0E0808103
:103AC000806880838081806480830E94090780E60B
:103AD0009AEE0197F1F780E792E00E94E6048CE706
:103AE00092E00E94E60478948FEF80936E03109228
:103AF000620310926103809161039091620380518F
:103B00009742C8F38FEF80936F0310926203109275
:103B10006103809161039091620380519742C8F3E1
:103B20008FEF809370031092620310926103809173
:103B300061039091620380519742C8F38FEF8093A5
:103B4000710310926203109261038091610390915E
:103B5000620380519742C8F38FEF809376031092EF
:103B6000620310926103809161039091620380511E
:103B70009742C8F3EBE3F0E080818160808310928C
:103B800062031092610380916103909162038051FE
:103B90009742C8F3E8E3F0E080818061808310926F
:103BA00062031092610380916103909162038051DE
:103BB0009742C8F3EBE3F0E080818260808310924B
:103BC00062031092610380916103909162038051BE
:103BD0009742C8F30E94220510926203109261037B
:103BE000809161039091620380519742C8F30E94D3
:103BF0002A051092620310926103809161039091F3
:103C0000620380519742C8F310926E0310926203D0
:103C100010926103809161039091620380519742F9
:103C2000C8F310926F0310926203109261038091A7
:103C300061039091620380519742C8F31092700320
:103C4000109262031092610380916103909162036C
:103C500080519742C8F31092710310926203109240
:103C60006103809161039091620380519742C8F390
:103C7000EBE3F0E080818D7F8083109262031092ED
:103C80006103809161039091620380519742C8F370
:103C9000EBE3F0E080818E7F8083109262031092CC
:103CA0006103809161039091620380519742C8F350
:103CB000E8E3F0E080818F7E8083109262031092AF
:103CC0006103809161039091620380519742C8F330
:103CD00010926203109261038091610390916203DC
:103CE00080519742C8F380915E030E948D0B88EE4D
:103CF00093E063E070E04AE00E94DA0B8CE892E027
:103D00000E949D2685E992E00E949D268DEF90E01D
:103D10000E94AD268EE091E00E94AD260E94A91A75
:103D200084E190E00E94E92764E670E00E94572752
:103D30008AE590E09C01629FC001639F900D729F95
:103D4000900D11249093600380935F0310920A03F7
:103D50000E94AC0D10926203109261038091610386
:103D60009091620380519742C8F30F2EFFE9AF2E66
:103D7000F2E0BF2EF02D0F2EF0EB8F2EF2E09F2EF3
:103D8000F02D0F2EF4E16F2EF0E07F2EF02D0F2E90
:103D9000F3E04F2EF0E05F2EF02D0F2EF5E0CF2E4A
:103DA000F0E0DF2EF02D0F2EFCE22F2EF3E03F2E61
:103DB000F02DC10101969E838D830F2EF8E3EF2E27
:103DC000FF24F02D8091120390911303892B11F49D
:103DD0000E94C20F80910803882351F10E94A7041A
:103DE000C5010E94E60480E061E00E94F604C4017F
:103DF0000E94E60480910803882391F088EE93E006
:103E000063E070E040E80E94DA0B84EF91E063E049
:103E100070E040E80E94DA0B80910803882371F774
:103E20001092590310925C0310920A030E94AC0D89
:103E3000809159038823C1F18130A1F580911A0343
:103E400090911B03892B19F180911A0390911B0308
:103E5000019790931B0380931A0380911203909112
:103E60001303029750F081E090E090931303809346
:103E7000120380916C038823E1F7C3010E94E927B4
:103E800090931303809312030E94E30908C080916A
:103E9000120390911303892B11F40E944F0F10927B
:103EA000590302C01092590380915C03882309F4DE
:103EB00043C0813009F03EC0809115038823B9F1D9
:103EC0008091120390911303892B89F50E94880F2A
:103ED00080911503815080931503C2010E94E12750
:103EE00090E090931B0380931A030E94080E0E9497
:103EF000F60D00E010E00DC0109262031092610315
:103F0000809161039091620380509A4FC8F30F5FD4
:103F10001F4FC6010E94E12790E00817190764F3BC
:103F20000E94730FEBE3F0E080818E7F808310921C
:103F30005C0302C010925C0380911903813021F070
:103F4000823009F07AC162C11092190380E00E94A8
:103F5000360B882309F071C1F1019081AD81BE81DA
:103F60008C91880F880F82958F70E0E2F7E0E80F60
:103F7000F11DE4918C919983EB83829586958695CA
:103F800083708A83A5E6B3E0FE01319683E0019059
:103F90000D928150E1F7E6E6F3E010810E946B128A
:103FA000181789F48AE290E00E94E127882309F437
:103FB00044C1A5E6B3E01C9181E090E00E94E127B6
:103FC000181709F43AC1F7018081806180830E944B
:103FD00022050E94350E0E949D0FD7018C918F7E85
:103FE0008C93E7E6F3E080812091570330915803EA
:103FF00090E0821793078CF58091570390915803B6
:104000002081821B9109909358038093570320913C
:10401000570330915803C901880F991F220F331F8E
:10402000220F331F220F331F820F931F6DE770E0A3
:104030000E946B2760935E0380915E03882309F0E2
:10404000DCC08091570390915803181619060CF0A4
:10405000D4C081E080935E03D0C010925E031092C2
:10406000580310925703D7018C9180618C938091F3
:104070005E030E948D0B0E94E40D1C828BE090E099
:104080000E94E127882309F480C08BE090E00E9421
:10409000E1278F3F09F479C010920A031092590367
:1040A0001092FE020E942A0510E10E94A7040E94BD
:1040B000090581EC92E00E94E60480E061E00E9444
:1040C000F6048FEC92E00E94E6040FC0F7018081B5
:1040D00081278083109262031092610380916103B3
:1040E0009091620380519742C8F38091FE02882329
:1040F00069F38091FE028130C1F08230B1F60E94F6
:10410000A7040E9409058EEC91E00E94E60410923B
:104110006203109261038091610390916203805663
:104120009A4EC8F31092FE02C0CF0E9470128823EC
:10413000B1F00E94A7040E94090586E292E00E9465
:10414000E6041092620310926103809161039091E2
:10415000620380569A4EC8F31092FE0242C00E943B
:10416000A7040E9409058DE292E00E94E6041092E5
:104170006203109261038091610390916203805603
:104180009A4EC8F31092FE0290CF0E942A050E9418
:10419000AC0D40E1E6E3F0E021C0D7018C9184272B
:1041A0008C9310926203109261038091610390914D
:1041B000620380519742C8F3808190E09C01247093
:1041C000307082FF04C02430310539F404C08C8182
:1041D0008F5F8C8303C01C8201C01C828C81843160
:1041E000E0F2F70180818F7E80830E944E1810924A
:1041F0000A03109259031092FE0280915E030E94FE
:104200008D0B0E942A050E94AC0D17C0EBE3F0E075
:10421000808181608083109262031092610380919B
:10422000610390916203885B9848C8F3EBE3F0E088
:1042300080818E7F80831092190380910A038330DE
:10424000F9F0843028F4813041F0823011F515C046
:104250008430C9F08530E9F419C080916D0388235A
:1042600019F0813039F404C081E080936D0302C0FD
:1042700010926D0310920A030EC010920A030BC035
:1042800010920A0308C010920A0305C010920A0394
:1042900002C010920A0380915503882309F492CD3D
:1042A0000E94F60D809155038150809355038ACD6D
:1042B0001F920F920FB60F9211242F938F939F93FB
:1042C000EF93FF93DF93CF930F92CDB7DEB780913B
:1042D000610390916203019690936203809361035E
:1042E00080B3847089838981882321F580910B03B1
:1042F00090910C03019690930C0380930B03809193
:104300000F0390911003885F974A48F480910F0340
:104310009091100301969093100380930F03809166
:104320000F0390911003885F974A88F181E0809392
:1043300008032DC01092100310920F038091080300
:10434000882311F01092080380916A0390916B0307
:10435000019690936B0380936A03809114038823E2
:10436000B1F080916A0390916B038955914078F088
:104370001092140380917403909175030D9720F0AF
:1043800081E08093190303C082E080931903809138
:104390000903813009F062C080910D0390910E03F2
:1043A000181619068CF4E5E3F0E090818091110372
:1043B0008927808380910D0390910E03019790933C
:1043C0000E0380930D034AC0E5E3F0E080818F7B0C
:1043D000808380818F7780838091630390916403D1
:1043E0001816190684F480818F7B808380818F77F3
:1043F0008083809163039091640301979093640399
:10440000809363032BC080917303E5E4F3E0E80F2E
:10441000F11D80818823B1F020917303E5E4F3E07E
:10442000E20FF11D808190E090930E0380930D03C5
:104430002F5F209373038BE290E09093640380934B
:1044400063030CC010920903EBE3F0E080818D7FE1
:104450008083809155038F5F809355030F90CF9198
:10446000DF91FF91EF919F918F912F910F900FBE50
:104470000F901F901895DF93CF9300D0CDB7DEB784
:1044800080916C03882349F482E190E00E94E12747
:1044900090E00E94C00880936C0380911203909179
:1044A0001303019739F4CE0101960E942709109257
:1044B0006C0304C0CE0101960E94150920911203DD
:1044C0003091130380915F0390916003281739079F
:1044D00081F50E94D50B813061F5B29B02C01A8232
:1044E00002C081E08A838A81813019F580915E0360
:1044F0008823F9F080911A0390911B03892BC9F04E
:1045000080911A0390911B03019790931B03809352
:104510001A030E94E309CE0101960E942709109216
:104520006C0384E190E00E94E92790931303809349
:10453000120389810F900F90CF91DF9108951F9200
:104540000F920FB60F9211242F933F934F935F93C7
:104550006F937F938F939F93AF93BF93EF93FF934B
:10456000DF93CF930F92CDB7DEB7E9E5F0E080811E
:104570008F7E80837894809168039091690301967F
:10458000909369038093680380911A0390911B03B1
:10459000892BC9F08091120390911303892B99F014
:1045A0000E943B228CBF80911203909113030197CC
:1045B00009F41CBE8091120390911303019790930C
:1045C00013038093120380911A0390911B03892B8C
:1045D000F1F4EBE3F0E0808181608083809112034D
:1045E00090911303892B99F00E943B228CBF8091FC
:1045F000120390911303019709F41CBE80911203DA
:104600009091130301979093130380931203809169
:10461000ED029091EE022091ED023091EE0264E6FF
:1046200070E00E94572784E690E0AC01649FC001CF
:10463000659F900D749F900D11248217930709F0C8
:10464000A4C080915903882309F049C0B29B02C0DD
:10465000198202C081E089838981882319F0813021
:10466000D1F51AC08091340390913503049750F02E
:10467000E4E3F3E011821082329680818E7F8083A2
:1046800081E02BC0E4E3F3E0118210823296808156
:104690008160808380E021C0809134039091350354
:1046A000049750F0E4E3F3E01182108232968081A7
:1046B0008E7F808381E011C0A4E3B3E0FD0181918E
:1046C000919120812170820F911D11969C938E9360
:1046D0008091590302C080915903809359038091BE
:1046E0005C03882309F049C0B09B02C0198202C054
:1046F00081E089838981882319F08130D1F51AC03E
:104700008091370390913803049750F0E7E3F3E08A
:1047100011821082329680818E7F808381E02BC04F
:10472000E7E3F3E01182108232968081816080831A
:1047300080E021C08091370390913803049750F0B6
:10474000E7E3F3E011821082329680818E7F8083CE
:1047500081E011C0A7E3B3E0FD0181919191208137
:104760002170820F911D11969C938E9380915C0312
:1047700002C080915C0380935C0380910A038823CC
:1047800021F40E94982580930A038091ED02909174
:10479000EE0201969093EE028093ED028091ED027D
:1047A0009091EE02895E934008F454C01092EE029C
:1047B0001092ED0290916E038091DE02892331F414
:1047C000E2E3F0E080818F7E808305C0E2E3F0E0E9
:1047D00080818061808390916F038091DE028923C4
:1047E00031F4E2E3F0E080818F7D808305C0E2E375
:1047F000F0E0808180628083909170038091DE027E
:10480000892331F4E2E3F0E080818F7B808305C06F
:10481000E2E3F0E080818064808390917103809175
:10482000DE02892331F4E2E3F0E080818F77808338
:1048300005C0E2E3F0E08081806880838091DE0241
:10484000880F8093DE028091DE02882319F481E0D4
:104850008093DE0280915D03882329F080915603C6
:104860008CBF10925D03F894E9E5F0E080818061EF
:1048700080830F90CF91DF91FF91EF91BF91AF9126
:104880009F918F917F916F915F914F913F912F9168
:104890000F900FBE0F901F9018951F920F920FB69A
:1048A0000F9211242F933F934F935F936F937F93B6
:1048B0008F939F93AF93BF93EF93FF93DF93CF9328
:1048C0000F92CDB7DEB781E08093180319828981FA
:1048D0008F5F89830E948B060F90CF91DF91FF91AC
:1048E000EF91BF91AF919F918F917F916F915F9168
:1048F0004F913F912F910F900FBE0F901F901895E1
:104900001F920F920FB60F9211242F933F934F9344
:104910005F936F937F938F939F93AF93BF93EF9327
:10492000FF9305B600FC27C0E5E5F0E080818160DB
:104930008083809114038823A9F080916A03909169
:104940006B03C99730F480916A0390916B034E9783
:1049500048F410921403109275031092740382E0CD
:104960008093190310920C0310920B0310926B03A7
:1049700010926A0369C0E5E5F0E080818E7F808354
:1049800080911403882309F442C080910B03909115
:104990000C03C997A8F480910B0390910C034E97D8
:1049A00078F080917403909175039C012F5F3F4FC5
:1049B000309375032093740360E00E94B0093CC0FB
:1049C00080910B0390910C0384369105B0F4809193
:1049D0000B0390910C038934910578F08091740356
:1049E000909175039C012F5F3F4F30937503209387
:1049F000740361E00E94B0091FC01092140310926A
:104A000075031092740382E08093190315C080919E
:104A10000B0390910C038A3B910570F480910B037A
:104A200090910C038F39910538F010927503109214
:104A3000740381E08093140310920C0310920B0313
:104A400010926B0310926A03FF91EF91BF91AF91A7
:104A50009F918F917F916F915F914F913F912F9196
:104A60000F900FBE0F901F901895AAE3B0E08C91A5
:104A7000877F8C93EBE3F0E08081886080838C916A
:104A80008B7F8C938081846080838C918F7D8C93CD
:104A90008081806280838C918F7B8C938081806405
:104AA00080838C918F7E8C93808180618083ABE149
:104AB000B3E0FD0111821082329680818160808393
:104AC000FD01339611821082FD013596808181604F
:104AD0008083FD01369611821082FD013896808117
:104AE00081608083FD01399611821082FD013B9621
:104AF000808181608083FD013C96118210821E9628
:104B00008C9181608C930895E9E3F0E08081869533
:104B1000869586958095982F9170808182FF92600E
:104B2000CD9B9460CE9B9860CC9B9061892F08951B
:104B30000E948425823091F1833038F4882309F46F
:104B4000A9C0813009F0AAC00AC0883009F464C045
:104B5000803109F480C0843009F0A0C03EC080914B
:104B60001B0390911C03049750F0EBE1F3E01182DA
:104B70001082329680818E7F808381E00895ABE140
:104B8000B3E0FD018191919120812170820F911DEF
:104B900011969C938E9380910A03089580911E0331
:104BA00090911F03049750F0EEE1F3E01182108220
:104BB000329680818E7F808382E00895AEE1B3E0FB
:104BC000FD018191919120812170820F911D11969B
:104BD0009C938E9380910A03089580912103909174
:104BE0002203049750F0E1E2F3E011821082329642
:104BF00080818E7F808383E00895A1E2B3E0FD0190
:104C00008191919120812170820F911D11969C9329
:104C10008E9380910A030895809124039091250337
:104C2000049750F0E4E2F3E0118210823296808122
:104C30008E7F808384E00895A4E2B3E0FD0181913A
:104C4000919120812170820F911D11969C938E93DA
:104C500080910A0308958091270390912803049777
:104C600050F0E7E2F3E011821082329680818E7F6D
:104C7000808385E00895A7E2B3E0FD0181919191E1
:104C800020812170820F911D11969C938E938091AB
:104C90000A0308950E94352580E00895ABE1B3E052
:104CA000FD0111821082329680818E7F8083FD010A
:104CB000339611821082FD01359680818E7F80832C
:104CC000FD01369611821082FD01389680818E7F1B
:104CD0008083FD01399611821082FD013B9680810F
:104CE0008E7F8083FD013C96118210821E968C91EE
:104CF0008E7F8C9380E00895A0E4B0E01C9287E65C
:104D000089B9EBE2F0E080818D7F808388E98AB900
:104D100086E88C9308958091F10208951092EF0235
:104D20001092F0021092F1020895982FEBE2F0E059
:104D3000808185FFFDCF9CB90895CF93DF93FC015F
:104D40008081882339F0EF010E9495268981219680
:104D50008823D1F7DF91CF910895CF93DF93FC01A2
:104D60008491882349F0EF0121960E949526FE0147
:104D7000219684918823C9F7DF91CF9108951F92DE
:104D80000F920FB60F9211248F93EF93FF938091A0
:104D9000F1028823A1F08091F002E7E7F3E0E80F49
:104DA000F11D80818CB98091F10281508093F102D4
:104DB0008091F0028F5F8093F0028091F002FF916A
:104DC000EF918F910F900FBE0F901F9018958091CB
:104DD000F4020895EAE2F0E080818F7780831092F8
:104DE000F2021092F3021092F402808180688083B4
:104DF00008958091F402882311F4E0E013C08091BB
:104E0000F302E7E7F4E0E80FF11DE0818091F4029E
:104E100081508093F4028091F3028F5F8093F302BC
:104E20008091F3028E2F08951F920F920FB60F926A
:104E300011248F939F93AF93BF93EF93FF93809130
:104E4000F4028091F2029CB1E7E7F4E0DF01A80FE1
:104E5000B11D9C938091F202E80FF11D80818D308D
:104E600019F481E0809344038091F2028F5F809374
:104E7000F2028091F2028091F4028F5F8093F4023B
:104E8000FF91EF91BF91AF919F918F910F900FBEC6
:104E90000F901F901895991B79E004C0991F9617E1
:104EA00008F0961B881F7A95C9F780950895AA1B6C
:104EB000BB1B51E107C0AA1FBB1FA617B70710F005
:104EC000A61BB70B881F991F5A95A9F78095909537
:104ED000BC01CD01089597FB092E07260AD077FD66
:104EE00004D0E5DF06D000201AF4709561957F4F5D
:104EF0000895F6F7909581959F4F089597FB092E99
:104F000005260ED057FD04D014D00AD0001C38F46A
:104F100050954095309521953F4F4F4F5F4F0895E5
:104F2000F6F790958095709561957F4F8F4F9F4FC5
:104F30000895A1E21A2EAA1BBB1BFD010DC0AA1FDA
:104F4000BB1FEE1FFF1FA217B307E407F50720F0F2
:104F5000A21BB30BE40BF50B661F771F881F991F6D
:104F60001A9469F760957095809590959B01AC01B6
:104F7000BD01CF0108952115310511F11F930F9344
:104F8000240F351F680F791FFA011191AF01DC0161
:104F9000A617B70780F40D910117D1F7CD01FA01DB
:104FA000E217F30750F4A617B70728F40D91019004
:104FB0000015B1F3ECCF81E090E001970F911F91C4
:104FC0000895E199FECF9FBB8EBBE09A99278DB3E0
:104FD0000895A8E1B0E042E050E00C940328262FA9
:104FE000E199FECF9FBB8EBB2DBB0FB6F894E29A22
:104FF000E19A0FBE019608950E94EF27272F0C9487
:10500000F027DC01CB01FC01E199FECF06C0FFBB1C
:10501000EEBBE09A31960DB20D9241505040B8F778
:065020000895F894FFCF93
:10502600E6E8E7EDFC3A2000252000EFE0F2F03A52
:105036002000EC3A200020002520202000D3F0EEAE
:10504600ED20002520EDE0EDE5F100E8E32E20005F
:1050560020EAEEEC2E2000202020002C004F4B0DE5
:105066000A004552524F520A0D000D0A4F4B0D0AC7
:10507600004552524F523A656570726F6D207772D5
:10508600697465206572726F720D0A004552524F3F
:10509600520D0A0030003100C4F0F3E6E5F1F2E209
:1050A6002E20EEE3EEEDFC3A00C4E02000CDE5F262
:1050B6000020F6E5ED2EEAED2E2D4F4B00D1EEF554
:1050C600F0E0EDE5EDE8E52E2E2E00CCEEF9EDEE66
:1050D600F1F2FC20C8CA20E4EBFF00F3EBE8F6FB94
:1050E60000EFEEECE5F90020F6E5EDF2F02EEAED44
:1050F6002E2D4F4B00C8E4E5EDF22E20E8E3F0EE4E
:10510600EAE03A00C8E4E5EDF22E20EAEEECE0ED46
:10511600E4FB3A00CDE0EDEEF1E8ECFBE920F3F03C
:10512600EEED3A00C5ECEAEEF1F2FC20ECE0E3E04D
:10513600E7E8EDE03A00CCE0E3E0E7E8EDEEE23A5E
:1051460000C2F0E5ECFF20EFE5F0E5E7E0F0FFE474
:10515600E03A004552524F523A656570726F6D20C3
:1051660072656164206572726F720D0A00C7E0EFA6
:10517600E8F1FC20EAEBFEF7E020D2CC00D6E5ED24
:10518600F2F02EEAED2E2DEEF2ECE5EDE000CEF893
:10519600E8E1EAE02043524300CAEBFEF720D2CC16
:1051A60020E7E0EFE8F1E0ED2100C4EBFF20EDE0C1
:1051B600F1F2F0EEE5EA20E6ECE80AF6E5EDF2F0CB
:1051C6002E20EAEDEEEFEAF3203500C4EBFF20E0F7
:1051D600EAF2E8E2E0F6E8E80AEFF0E8EBEEE6E805
:1051E60020EAEBFEF700D3E4E0F7E82100CDE52066
:1051F600F2EEF220EAEBFEF700C4EBFF20EDE0F161
:10520600F2F0EEE5EA0AEFF0E8EBEEE6E820EAEB8C
:10521600FEF720203500C4EBFF20EDE0F1F2F0EEC2
:10522600E5EA00EFF0E8EBEEE6E820EAEBFEF70051
:105236004C5441736365746963200A007777772E4F
:105246006F70656E2D7461672E72750048656C6CA3
:105256006F210A0D00CFF0E8E2E5F2210A0D00CE3B
:10526600F8E8E1EAE020E4E0F2F7E8EAEEE22C0012
:10527600CFF0EEE2E5F0FC20EFEEE2FFE7EAF32105
:1052860000C4EBFF20E0EAF2E8E2E0F6E8E800EF2F
:10529600F0E8EBEEE6E8F2E520EAEBFEF7000100C7
:00000001FF
