:100000000C940D270C94263C0C94F33B0C942A275B
:100010000C941E390C942A270C942A270C94F53939
:100020000C942A270C942A270C942A270C942A270C
:100030000C942A270C942A270C942A270C942A27FC
:100040000C942A270C942A270C942A270C942A27EC
:100050000C942A2753353B37394041363D3D3F5FAD
:100060004D355B6E94858D8C89939A7C8CA48AA186
:1000700087899899ACB8AEC0B0BCC0B7ABC4C8BA99
:10008000BAB9BB8DAFB09D86889898A4A99E989464
:100090009EBCBAA599988F778C94746F819B815F71
:1000A000656A4C4B45465A674D46564E6B6B7240DF
:1000B000566B5769516E8286808DA8A496A5A6B10D
:1000C000B0ACA8A79486A49AA8B5B8C2AFBFADB08B
:1000D000C9B6B6B3A7A4A5A1B58E8897776863689B
:1000E000664757414A4B42464448414E3A42545B68
:1000F00040513D3B46343C33414B403C3F4A4D53DD
:10010000463C5B52636C6065696455636A7365590C
:10011000675F6E706E6C777A6F8783817D8AA1AC22
:10012000AA98A1B3A19DB1C1C1C3C8C6C7C7C5BC68
:10013000C8C0C7BEBDBDB1C1C1BAA7979C979182C7
:10014000828474747256584E4C6661766959513A7D
:100150004A3A5B8B90A66F6E7E82798B9B8093A4CC
:10016000BBBAC1BCBEC2BCBFA5B8B0A9AFAF96B444
:10017000BFB9B3AABC88939FA594B47B7D766E79F2
:100180004D74464B47473E424B4C524053495054A6
:1001900052566A646E947B907E757E7994678573FF
:1001A0007F856F7E7383678159A66C687B5D8E65E2
:1001B0009A7C8A95A1799CA28A8B767C6D927487B1
:1001C0006C888664778464706A7A7D6D8158895EF4
:1001D0007263988A6B7E836D70837E59568A585CF1
:1001E0006971587D69486A794F736A83495F726F94
:1001F00063668471AB74727995998E9BAC86A265A7
:10020000A9877EA082A28B9B949D9C99A2A983BA68
:10021000909FA59A8198A07C9F7CA3887DA69BAB8C
:10022000A2869C9B8EB4A184A3C6928FB3908DAB03
:10023000A79FA995A48D8AA68D84816591749297B4
:10024000648B9982696C887B6F865C6D4E776B637B
:100250006775775D6F58713E7765627A5274627622
:100260006D5A795F81895C77717C6163836C92845C
:100270009688669775956576736E86917669975EB2
:100280007A87865F9B7C7B778E73728F626B7C85AF
:10029000867175927994829E7A806E8D6482808058
:1002A000776276599852636B656C577B65567E69A9
:1002B00072607A6B7958718C68826968848B7E88E9
:1002C00085956A6F8D78697B648A755B849F7A797E
:1002D0008F8076909B99A99CAB99B7ABB7A5C4B713
:1002E000A5B2B0AAA0A589A8868A7D8295916F81C2
:1002F000988482799E858D897F88888B9466848492
:10030000577F67646369696157556C6B63536C6BA6
:10031000556F4F656B54637A616A7890696F9E750B
:100320007E7B8B7A8686868774848E7B7A8F8080AC
:10033000916AA7858D997B9585A372948285907E1D
:10034000A2957696A58687918E727E959475678D17
:100350009165898E68907C718282855E8F87717EBF
:100360007D87776E7C7D7B866E8F6A6C96726D91D1
:100370007F667F7B7E6A8A796E926A85786E7F91CE
:100380007F6E897C83788079917F7B7C7F976C8678
:100390008E7E93878892769088808A837D84797315
:1003A0008D7F68889078878486707F786A797E757B
:1003B00082836D707E816B827F84677090618079AB
:1003C00065767F756A837772627F6D7977637A7AF3
:1003D0006C6D8B74758183828879828C8691888517
:1003E0009B94808B948E7F8FA46F9391958D92892F
:1003F0008D95718C80876E8373837B6E728578791F
:10040000727B85767D718A7C757D867884808D830C
:100410007C828D8E7D7C8C83897D7A878B8E78879C
:10042000887F818E847B8591857D8D7B7D847A8498
:100430007B8A7B807E7E7B7B897C8288807D8176C7
:100440008874887D6F807A7E6E7D7475796C78771C
:1004500077767B756B7E7E6C74827773817A7B7B1B
:100460007C8179817E7876807E75777E777B7B7FD5
:1004700078798475867B7B8B7E7C8383837B877E88
:1004800084858A78798C7F7C7F857F83857D74875E
:100490008082838684858C7E8189827F8E82868716
:1004A000837E808C7D8584808481868383817C8328
:1004B000807E83827880837D807F817F7C7E7E7951
:1004C0007C7A8C8075858A7080887987877F74882C
:1004D000837E86828183897F82837F8A80828182F4
:1004E00083858582807E808180747C84787A7A7628
:1004F000797873777A70797875757A7C75787B7688
:100500007976807B7381777F7F81827D8182808411
:100510008384868487888087878A85858586817B92
:100520008D8580818E83827E88837F828C877E8D7D
:10053000817B84877B887E7F86847D7A87867A80AC
:1005400082817E7D847D817F7C7985846F838471C7
:1005500083837A7679797C7C7B787C7976817976ED
:1005600079817C79797F7B767F7D7B78817C787FD0
:100570007979817B79807E77797E7D867E7A7D87A9
:100580007E6A88877080897C7A7A827F7A7C85818E
:10059000748381787887817481887C8083827D7D73
:1005A000847E83808483848384827F88877F898814
:1005B0008084888880888B838399888495888488C0
:1005C000908A8A878586908B80888A887D8B8686AC
:1005D00084787F85837A80877F7E7B797D71777B46
:1005E00078747A736F7370737B756883796F7B70BF
:1005F0007D82697D7E737D7A75757579817B7A7D63
:100600007F7E73798478807C787C777F827A7D792D
:10061000777E807C747E7A727F7D7A7B7E7F748128
:100620008480838182808183828286877D818680A7
:100630007E847E8A968186817189907D737F807B9E
:100640008A7E7E7A7888898B827374808D7E7373BC
:100650007B7F8682737A737C848C7888747C717ECD
:100660008968817281827D55758D6F828A72836CF3
:10067000757D7773696688806A7867807C868181FA
:100680006181757F8870607B8E787D6D76789997B3
:10069000785787817D886574767E8E826C7A878FA5
:1006A0009C73617883947E727A6E829A757A78816F
:1006B000AB8D6F6C7B848B85716F7C8A89807E8229
:1006C00093967D776E77957D6C787D7E8589817A2E
:1006D000859A8865748479847C6E6D7D8F81647160
:1006E0007D949C785C5F898187675A7A77A66B6A6C
:1006F0006974A0978E4E6B7A9189735D5B88958B38
:10070000655D6C8FA699765160949E7F6457709852
:100710009884655D789D9F937555739C937B646603
:100720007A959A846E668099988B89686C929A7E85
:100730006E6E72879885766E748A92968B815E77DC
:1007400098897072727C8F8C856D6D7C8D919A8486
:1007500067648A9775796871898F8C716D78828DDD
:1007600094947760729484786F6B76818A7E745FDC
:100770008C777DA4886A58879280795F657E8E86A3
:100780007C706477899C938054629A8977776871CA
:1007900079908B757363889091A283505E9891864F
:1007A0007757698E90878A5C618E8E91A084496BA1
:1007B000A685707961618798887D6D6185A38F9525
:1007C00082526FA28B7B7C5D6587978D886C6A8275
:1007D0009A979A8A5C6499967A7D5D67788F8C89FE
:1007E00081707E8D8B999C7F5271A089777966622A
:1007F0007C819E9273618A8C96A691574697A375C9
:100800007676476C979F887769739099908D7B482F
:100810006DAA8A677B6E4D7AA18E8D7B7B748C9BD3
:100820008D987150719F8B697A5F5486A08D817D00
:100830006981989E9592564F9797737C644B659902
:10084000A28D8D6B698D9F8F99854B5CA399707478
:100850006B437498A081797178A4988B8F7C4473D2
:100860009B83697C6349719B9C9E6F5C7B9CA69F6C
:100870009543478FAA7B6F5F385EA6BB936E62720B
:100880009AA99A8F623A79B38B656A504D7DA8A177
:1008900079737589A4AD9A6C3A5CA78F6E6C4B46E0
:1008A00086BEAE796371879EA8A0733A5EA6A56FD7
:1008B0006D594271A6B57D6A7C95A0A9AD80414E67
:1008C000979F766C514584B8B7805F5C8BA6A3AECA
:1008D000793062BA9E7B643A3E87AEA9906D66A27B
:1008E000BC95917C3C4C9FA073664753AFC8956103
:1008F0004E5696BDA28F6B3B72BF9962583D4174B4
:10090000979E9C877996A79E9D88413D85A37E7A78
:10091000524DA6CAA86641478CABB1AB65337AC3CA
:100920009D72583A3B688D9DA893849DAD8688A59D
:100930005E31659D8B81684E92C7B17040407CAA44
:10094000ADB683385EBAAC6A59403653899FA998D0
:100950008DA1AA9087A4683058A18F746D6396C248
:10096000A86A3D497EA7ABB27E376EB5A5744E38F6
:1009700039568FA2A4918FAFB48E7B9662305C9D66
:100980008E6B6785A1A7916B484787BDCA8134628A
:10099000A298A96A383469BFB89A73678EC3C097A2
:1009A00070473574BA9A593858B3CDAD51334D8329
:1009B000AEB9A355368CC7A1884838366EAC9E8F29
:1009C000818BAAB5AB8E7849377697835C6795B8EB
:1009D000B787573E5A8BB4CB703072BFA19B70392A
:1009E000336BCBB791777187BFBCA0763C3885BE9F
:1009F00084575285BAC7945039548FBEC671305D42
:100A0000BEB4A06E3A3364C5BE8C6A738AB5C5B5F0
:100A10006A38398CBD764E5F96BFC4955439548A76
:100A2000AEB9723165C0B099793E3453A9A8988A9D
:100A30007F83A4B5B58E443368A6936A54719DC074
:100A4000B56D404263A8CCA33D40A7B0AB9D4F36E7
:100A50003B88B89C897E8797B6B19963343F8EAC4A
:100A600088744F61ADCDB05E363E72AFC8BD5A33AB
:100A700075B7B1945D353A4B8C9796A29B9FA4A60F
:100A80008F89703C4386A092765171B8CA944637DC
:100A90004D79B5CABE632E6EC8B0795538374897C0
:100AA000AE9194A3A19C9889878D543572A09184AE
:100AB0006C6486B6B777433B65ADC6C88736499F39
:100AC000B89C683838429CBAA793929098A89885A9
:100AD0008454366E9DA3946A4777B7BD854B3A5EC2
:100AE00096BAC9BE5E2E6DB59A735A3B364F99AD14
:100AF000A3A89B878C9C93978F463982A69F915A77
:100B00003361BACA9F4B3655A9C6CBAD46336EBECC
:100B10009E824F393573C7C0B0986E679AAD938C7B
:100B20008D4F3C8FBB8D7571474796B9935C597B50
:100B30009CB5B5B27B36478A877D7E5D454376A3FB
:100B4000ADA69B8373899892B0943D4182A19698FB
:100B5000773848A2C59E77564F7BAEA8B3A14C35D7
:100B600086AF7B6E5F5B6A6A706C89B4C3B07A686B
:100B70007995CA943C406882A7BA6C334AA0CCA845
:100B80007F57445CA4C5CC792D508297AA894537FC
:100B90004096C5C8AE79617496919CA3653469A3EB
:100BA0009994965C3151A0C4A179534974A1B4CCF5
:100BB000A847356B909D9C6F57403E7799ACA89A9B
:100BC0007D6787ABA1AE8F46356E9CA78F4D3257A0
:100BD000AFCCB171433E6CB1BFB3A054347AA2988C
:100BE0008F6741344C94A6AEAA8E7E85989B98A3BD
:100BF000713546889EA68B423770BCC69B5A394CCD
:100C00008BBEC3C09F493A7F9D96804F3C366CA6F1
:100C10009EACA79B86858273779AAC66356FA49647
:100C20007F653F4A8CC3AE785A5279A5BAA5AC8F7E
:100C30003A43939B7F7B5538407EA7B5B29280762E
:100C40007D8685879A944C438EAD8A6D54345DB110
:100C5000CC9D624F647E97ACA5A08344558D968849
:100C60006A4E3B4077ACB29C9090837F7E6C6794D9
:100C7000BD7C49778E848B7546508DAC8E777963B9
:100C80006292AE96AFBE57367D9075766B443673E2
:100C9000B2A99CA293716F756D769EC8A7555376C5
:100CA00075787B6A586C94A49F87685B6F8C969369
:100CB000ABC47B3D6B6B495C687E8F98A090919430
:100CC0007E615162849C9C93989CAFAE6B404A5E5F
:100CD000667E9F9172686B748F9C8F6F53647EA346
:100CE000B79A898C6744729787787C7A6C81815631
:100CF000476493AB9E85716B6D8CB2CB9E423B6C0F
:100D00007E808077594E8CA99D95968D6F6A6E5B1B
:100D1000708398BCCDA444374C63707C8B7E7B97EA
:100D2000A68E7473776361737986A0BCC8B0683689
:100D3000496E746F7F837778909886807E70636841
:100D40007583ADC8BF6F33536C686E78747488A2B6
:100D50009B806E60608C9E927E798292C0C1743955
:100D6000516167829087725D7489929F8B806A65FA
:100D7000777D798AA2B790505A736655717D7B8CC6
:100D80009E9A958C8667595A64787D92B7C7C686B5
:100D900049514D5A748E9D9170677690A3A88153E6
:100DA00049557192A1A3AC9E5E457990786C7F8F76
:100DB0008C767C6B507197957F7972606A7D869492
:100DC000BBC5843C487896928476687C9AA18769F2
:100DD0004C455F7C8288807C92BDC6C99541354870
:100DE000788EA7B1A17F7781634F5A69777D8A9FFB
:100DF000958885858491AA9854386EA09386876FCC
:100E0000576B8D84605973888C9393836464879245
:100E1000A4C3C272354468757C9C9B807E969D8B72
:100E20006141354781A9A88A7B8E98A5B3BB9647B7
:100E300035486B94A9A18C7B7C7D6C5E616E778F4D
:100E400097827D85868386A0B5A86C3945627996A0
:100E5000A493746E818E856A545474948F868381B2
:100E60008687897E819CAB824A598287859B906365
:100E700060756F5F6785858691846F6E79777593EE
:100E8000BBCAB35C3950545D789285789AB49B8123
:100E90007358455478919387858A97A1947F778278
:100EA00086635A77848C969D8D7866686E767A8B89
:100EB000918072868F7D807C66597AADBF8C574D4C
:100EC0006D87848F9C82666B828876707671718064
:100ED0009089706970798AA7C5B760385E717B9018
:100EE000978B74819AA77F453F4A638AA1907D7A48
:100EF0008A899196958F7A5F537C948E8A938782A4
:100F00008D948B5A3F4C6D8A8B8980726F817B7276
:100F10006E84B5BB8A52668E877781836B6D8A93A8
:100F2000897A6754546D848F8C7F78777677878E33
:100F300093B4BF8A4D607F737A9092817E89866573
:100F40004435497DA9B7A789695A637C92A6B7B988
:100F500090595D858267707A767B86877767666A47
:100F600078818B89817F798D9A8464586D95B4C618
:100F7000BF7A3A496F81868D7A56547A958E7D7301
:100F80006668757A797E7F7A879A938EAAB8975425
:100F9000485D626F9BAFA07F6A7A7F78553F4C783F
:100FA00099AB92817F7B7E7E8D8E8B9297876E64CC
:100FB0007B7D717E8678707B80746B6F767A888F8C
:100FC000908673696E7F898E858AA5BEA05C3F4C32
:100FD000607694A48C737D8E8D7F79654348718E85
:100FE000918D968D80868787858A949F885E5B7AAF
:100FF0007E77787B73687F968D7C797673747E8438
:1010000087878D8B83756D6D7187ACBB95554D6BE7
:10101000655E7792837592AA9274696456698A9420
:101020008D8B8D826E6667697484979EB5C092477A
:101030003C575C729BAD9D8B93907B6D6B5F485270
:101040007CA1A28E7C726465798D9387899EAD9810
:1010500068596364688AABA493938E77615A53513D
:101060006E93A59D897A6A5D5E69777E85929FA25F
:101070009E998B63435E898E859AA78A6F797F6874
:101080005B5D6369819A957A6F716E70767E848AF2
:10109000909B9C9CA590533D6384828BA89B746D10
:1010A000796A565E70778599937C74766E6D7D8CC7
:1010B0008F8989827B8295B0A86D445B82848899F0
:1010C0008F6B5E829581716F594A688E9A8C847D90
:1010D0007A87918E867E6F67738BA2B5AB774F60F0
:1010E00080746B81937E73878C7A6772736F788A52
:1010F00091837D7A7772767D7F7B787A83929CACC0
:10110000A87F51506873839495837C848B8B847AF9
:101110005F4F5B72808E96887B7B827D7473767165
:101120007A929EA2B1A867435E767F8592907E7D7B
:10113000838179726D6873818787868180828483D9
:101140007C788082797A8081858D908E9CA4795676
:101150005C797B798D9085797C82817D776C606606
:101160007A8A979688736A71747D837E767B82878C
:101170008890A2A08E5C4B607C898C9C9376717663
:101180007B797774777E83958397815455988F63A5
:101190008B7D747484693093A16E9EC6825A3B7BAA
:1011A0005468CB6A9379B459863B607E7DA53571CE
:1011B000919629BE729BA2585A798582A69A336568
:1011C000BD70B6AAC893B88D6A413DAD8D91CC8AE9
:1011D0005F62423694A6C67469726286619DA5A953
:1011E0008F9765A4426F659F8782927C9755BDBE9D
:1011F000A2274B324C98DB8C5A8A6F6848B8A353AD
:10120000848C856B653474A89E577DC9874D59932E
:101210007A8991B25E8770777168B7D15F3447453C
:10122000538CBB90A197A55D7635593F7B8370E6C3
:101230008A5D8763918C817964A165705EA469770A
:10124000AB6973A07266AD8C716E56678F798B77C0
:10125000777B85908378767A5D767A9D928B7C63B6
:101260008D80947C7F827684827B7E7F70797F956F
:101270008382856F81A09461697393866BA3807468
:10128000807E9563877B7A847DA78B736A794B7C9C
:10129000907873878F81747A7C6178767D77877F89
:1012A0008176878C84897A788C85686B807F7E8054
:1012B0008A90769086746E69717B7291888889793C
:1012C000675E82807C8192868A7C75716E778F845E
:1012D000859183766F927F6D7581817E9F99706D08
:1012E0006C767E8F83717A7D878F8E7C796D60813D
:1012F000907E82848E787D836B8B81A684675E83EB
:10130000734C9E5C559DCD9E77789C5C646377653D
:1013100054A99E9C8999575C738D897E98826B80B5
:1013200077746D6F6B7A97939C8D8F68626870701D
:101330007B898E9888887E675B6F7F7886878289B5
:1013400083767883767A82837C798675878A9376AA
:101350005A6584837B9688916876837072768288DA
:10136000828D817B72826D7F9A6E7F78867F7E858B
:101370007A7475748488817F8778858672767B78A5
:101380007E84798385898980837E76676D81868A6C
:101390008488738373847E80837A7E7D747785727C
:1013A000847C7E827C7D8477767983767476827F76
:1013B0007E877D777B7B7B81798276827F7B817D57
:1013C000767F807E8D81858E857267787C887C8B28
:1013D00092757C7474787F75847C86928086747133
:1013E000727680868889817D7E6F7A898379777C21
:1013F00081897C847C737D7F7C8083817877787E13
:101400007A7D86787E7E7F8A858888726B6F8082FF
:101410008B848684767D7378777B7C837A85807FE6
:101420007E747977797B897F8B7E878675747976F0
:101430007B81898C7B877B76717B7980838B807EB7
:1014400078757F73817885877F85807B7D828280B8
:10145000877E6F7D7C84818B7E777F767D828878A6
:101460007E797C7B8082827B817D7D84767F7778AC
:101470007C817A87818579797C7D767C8877787D97
:10148000877C837E807A79818384817C7E78737F78
:101490008681817C7B818488898971767775808952
:1014A0008B86857C807A7A7C7C807F747891827B45
:1014B000827B7678816B688F7C7091886F6D71927A
:1014C000668D9274797C8B6B83368E9A9070667E73
:1014D000816B61A0809B68877562887C88914B9640
:1014E0008F7A9590A27B846B7169799394888D7BB8
:1014F00065705D6A96939770817F8878788488821A
:101500008C807C876D8B7B887586668C7681968BCC
:1015100074657B5B6A8FA76D7B85846D709A747030
:101520008B8D827E735E7F8D80628C9378688087DE
:1015300084838F8A707D68786C7D96976A796E6BEC
:101540007091817A8C9381757B5E75618A6F8CA2B4
:10155000787A7A76877A837783877476728C6C8AC6
:10156000887083876B75827784867C7D7E767871C0
:101570007D8084807C7F837C777D7682818A808079
:10158000847E7D78817E82807C7D7A7C7F7A83896F
:101590007A817B7580867778847B837D808674836F
:1015A00083817C72847385868182827D7E80758B47
:1015B00079777B8583807F817A777D7A7C7F857F51
:1015C000817C817D7D7D757985827C7F7E7F7F7C3E
:1015D0008B847B85757B78767D79797E7C7D807E3A
:1015E000787B897880867D808179726F75787C7A46
:1015F0007E9082777D858184808E868490828384AC
:101600007F7F7B817876798C855B737D7A6859736F
:101610008073846A757D94A0747A808C857E7898B6
:1016200070838B7E75AEA7485E598D809A7C5D80F5
:101630008888895BA68731824893A09294317E7F07
:101640006895A57150A57B4C697F789477AF8A8C9B
:10165000A288AC729E8D8CA66E4C714A43495A5A30
:101660007A786177678FB1CABABDABA7A09D8B713D
:101670007E7B7B73767672706C6D6D625E505762A6
:101680006C75737A5F66575B625E6A6E747E858185
:101690008B8D91919790989B9D989C9B98999DA2DA
:1016A000988882908F938D969C92948A8F918F992F
:1016B0009A87878F8F8285877A6A626D52606365A9
:1016C000605B6A66626A6C6068748570585E6F679A
:1016D000666A666B75746D646867616A67706E6D63
:1016E000757877737B7E817F869091878184888EE1
:1016F00091948B8B8F92919096949B9897958B91C8
:101700008E8E8D90908D8F88878B90888C908E7E1A
:101710007C8284837A7A838A837D73777876737800
:101720007772706B716874756E6E6D6D6E6D7372BD
:101730007270767A737276817D7A797877817C7E21
:101740007E7C7D80817E85888B8188888680818073
:10175000808187807A7A757F7D7B7A7981898282A0
:10176000798586828780847D8082827B7B7B807C7A
:10177000787D7C817B7D8184807C7F86828085856D
:101780007E7C837D7E7B81817C7D7D7B79797D7D87
:101790007F7D7B7E7F827D7F7C7F7A7D7F7D7C7E6F
:1017A0007B7C7D7C807B817C7C78787F7E7C7D806F
:1017B0008180827C828082837F7E7A86818182831F
:1017C00081807F7C7D79797877797C797B797B7C66
:1017D0007C7C7D82807F7C817E7D807D7D7C7A7C2F
:1017E0007D7D7F7B7C7D7D7E7D748984767A817F23
:1017F0007777787F81787889767A867782837C8319
:101800007D7B7B7D827F817E7E897C7C80788681EA
:1018100078817E7E7D807E7681827B7C7E7B7C7EF5
:10182000827F7C7C7F837F7E837D7D8181817F80C1
:10183000837F7F807E807E7E7F817F7E7E7D7E7DBA
:10184000807F7B7D807F7D7B807D7D7E807E757FC0
:10185000807E757C7E797E7B7B7B7B7F7C787D7ECA
:10186000817B7F7E7E7F807E7F80807C7D82807C8E
:10187000807F7F7D7A85757C877C7A8585847D787D
:1018800088877E7374878A787C80857C727E857C6D
:101890007F777A7E8B826A807F73767E878178728B
:1018A000798D847C757C7F7C7E797C7B7D81817C5D
:1018B0007D81837A787C81807F807F7E7F7F7E7A46
:1018C0007B7F84817D7F7D7E7E7E817F7C7E7D7D32
:1018D0007E7E7E7D7C7C7D7D7C7D7D7E7F7E7D7D34
:1018E0007F7F7F7E7D7F7E7C7D7F7F7F7F7F7D7D15
:1018F0007F7F7F80817D7D7F7F7E7F7F807F807FF8
:101900007E7F807F80807E7D807F817D7F80807AEA
:10191000778A867978887E80837F7F707582837FDF
:101920008985807C737B7F808280837F7E7E8082BE
:1019300080807C787C7D828280857D7D797E817EC1
:101940007F7D80807F7F8181807E7D7C7B7E8081AA
:101950008181807D7C80807E7D7E7F807E7D7F8199
:101960007F7884837D787B897C7E83807C7D807F8B
:10197000807D817F827F7B7C7D847F7D807F7D7C7D
:101980007D7E81817F807D7D7E7F807F7F7F808067
:10199000807F807E7E807E7D807F807F807F7F8055
:1019A0007E7E7F80807E7E807F807F7F7F807F8045
:1019B0007E7F807F7D7E7E7C80808180807F7E7C3C
:1019C0007C7F818180807F7E7D7C7D7F8080828125
:1019D0007D7D7D7F807F817F7F7F80817F7E7F7E19
:1019E0007F807F80807F7F7E7E7F7F807E7F7F7D08
:1019F0007F7F807E7E807F7F807F7D7F807F7F7EF8
:101A0000807F7F7E7F7D807F7D817D807F7C7F7CEE
:101A10007E807E80817F807E7E817E7E7E7F807DD7
:101A20007E80807F7E7D7D80817F807F7E7D7E7FCA
:101A30007E80807F7F807F7F7F7F807F7F807F80B1
:101A40007F7E7E807F80807F80807F807D7D7F7EA7
:101A50007E8180807F7C7C7C7F80807C00807F7F1B
:101A60007F7F807F808080807F807F7F8080807F7D
:101A7000807F7F7F80807F817E7F7F807E81827E6E
:101A8000837F7F847F817E7D7D7D7C797E8487825C
:101A900086827978787E86848083827D7C7F7E8151
:101AA000807F7F7F828184837E7A7E7D7D7F7F833E
:101AB00085817D7E7F807F81807F81808080817F26
:101AC000827E757C848585867C76808683807D7D1C
:101AD0007B8186877D7381877A858A79827C7F8105
:101AE000777F7E7A86848180867F7A807D7E7F7F05
:101AF0008083847F7B8384827C7A7A7E807F8385E7
:101B00007E7B7E7D7B7D87837F827D7E7C7D7D83EA
:101B1000828182817E7F827A81747E6C9E8B6E88C8
:101B20007F768D70728A87897A7F6F9C866A806CD7
:101B30006ABB81687C8487798780677F9A92846991
:101B40007182767392898489806F8079759191838F
:101B50006E6C8B8B828A8079917F7571689C916E97
:101B60008183848171797F99679689588D96736F87
:101B7000A77E5D788EB3555286C1AA3095536EAB61
:101B8000618ABE7D8B7456706A74A3A48E87687E4A
:101B90006483608C9C87917D79648088837E78865D
:101BA0006C9688708B777D7E797E7D848F80866849
:101BB000768B778E93716F7E888089797F8181782B
:101BC0007B78858A7F817D85788277887F80838313
:101BD000817A7983857F837D7F7E817C878278850A
:101BE000817B7E7F81867D807E7E85827C7C8680F7
:101BF0007D80807B85817E827E7E7D8082848285E1
:101C00007D7A7D817F7F84837B7E837F7F7F807FE2
:101C10008281827B7D7C7F8686807A797F808182CB
:101C20007F7A8A89797C787F868178818582807FB6
:101C30007A7F818481747D858A877A767D84807FAE
:101C40008082837F7B82837A7B8180867E78888096
:101C50007E807E7E827C81857F7681838084807495
:101C60007F877C857D7A83867A81847C7B83807F75
:101C7000847F837B7C87817A7B838A7E7085887969
:101C800072917F7A6F828E89717194759C66678C70
:101C9000948F6E7679948A72877D9F6F6E62989129
:101CA0006D96797F53739DA3547DA97F8368569663
:101CB000B28A6E7D6E82856C786F98998D7E826A0D
:101CC0006F7685927F6269B1A8766A998555678D2E
:101CD0008178788FA96C61789F957D63537A929F04
:101CE00088898770628D8B786F8481B1696FAD69E7
:101CF0004B7BB77B9F516EAC86839095535F975D0E
:101D00005C91E55129A270B4D2882F405D97CAA199
:101D100098592E80B986739E81607C805EACB763D3
:101D20006877548EA85590C197595C688BBD7960CF
:101D30006975A1989B6C3F77AB7F848973BD8A449A
:101D40004B797F9CAC7767739A9F4E6736B9A63301
:101D5000B7B18370875289AE763F72BD9C8D6F5943
:101D60007C8F8B7B868A7574869099745D997D567D
:101D7000928E7F8D6E7F878177778775748A887D55
:101D8000807F7F827768809A80737C81877A6F7981
:101D900099877D7B6396908A7A7980679583728C28
:101DA000947A6D6E88997D856A738B859C6E647854
:101DB0007B96AF9A645D6081898C7D7F897984820E
:101DC000717E9A978A54746E5C838B9BB2A9867FCE
:101DD000645A373C88B3B0AE979790625A4E576AB0
:101DE0008B98AAB9A684645D495B7E8392A8A08F74
:101DF000857B68646A667B90A0A4908974737C3A42
:101E0000808DC0A2568035BD97468F6D6C969CA87C
:101E10007D549796897269635A7C899A669F9A8ADB
:101E20008A6D6D6C9D956E3F92A6A68850467EB6D3
:101E3000937E627B97AF7B47777D82937F60949F91
:101E40007E826C6C748588867A7C8D7E7F778E81AD
:101E50007C836F76859A818B7B73708080768B7E96
:101E60008B8A8C71717A78818494826B708D8A8A66
:101E70007C79797381928E8D8072767474808D9066
:101E80008675807682797B7A8A8C867E6A707B9A68
:101E900090807A717F827F8288857683777D847B4C
:101EA0007D86877F807D757F87807E7C8081807E38
:101EB000817C8885797F7D8281837C7E8888847C13
:101EC00079777E847D7B8788838178767F82817B2A
:101ED000777C858B817B7B8085857B788082807E0B
:101EE000827F7A818185827C807C7A7E8382817BFD
:101EF000828384827F7F7E837C7C7B848588817DD6
:101F00007E7D857C827C7E817E807D818382817BDB
:101F10007D82857E7D7D7C818480808181827B7EC7
:101F20007D80847D7F7C7F8484827F7E7D7F7D81B8
:101F30007E817E7E847E83827F807C7D7F7C8181AA
:101F400080847F7E7F7F80817E817D7D7F7F828296
:101F5000827E817D7E7E7E80818182807F7F7D808A
:101F600080807B7E80838380807C81827F807F7F76
:101F70007D817F8082807F7C8080828180807F7D68
:101F80007E7F7E807E8082807F7F81807F7F827D5A
:101F90007E8080817E807C7F80818481807F7F7D48
:101FA000807F8383817F7D817F817F7D7F8483812B
:101FB0007F7E7F7F80807E808180807F7E8080802A
:101FC0008180807F7F7F8080807E7F808080808016
:101FD0008081817F0080808180808080807F7F7E83
:101FE000808080807F7F7F818180807F7E7F8080F6
:101FF00081807E80807F7F7E808183837E7D7F81E4
:102000007F807D7F8183837F807D7F7E80818480D0
:10201000817F7D807E8280807D7E827F7F80817EC9
:10202000808082807E807E7F7E7D80807F818280B6
:102030007F7D7F8082807F807D7F80808082807CAA
:102040007F808482807D7C8080807D7F7F81828193
:1020500081807E7E7D7E807E8182817F807C7E818C
:102060007E81807F7F7E80847F82817B807D7D807A
:102070007F82827E837E7E817F827D7F7D7F808264
:1020800084847F7D7F7D84807D7E7C838180808051
:1020900084817C7D7D7F85827C7C818283807D8044
:1020A0007E827D7C827D857C7E7D828886837B7C32
:1020B0007C837D7F7F828384817C8182837E797C27
:1020C000807C838582817B80817D818280787B8614
:1020D000847F7B7B828B847C777B81827F757A8215
:1020E0008389867A7E847D76797C8588877D7D82EA
:1020F00081827C7F7986877B827D8181807C7E81E5
:10210000877E757E807F88857D7B847B78827687DD
:1021100087827F827D717B809398786F6B80858DBD
:10212000887A7B7B81778075888F8D7E74747671D9
:10213000828E8F917E727A797D8A8B8C6E6D85937B
:102140008381787A70748C8B8A7E8B74837E7073B3
:102150007D8A839B8276708479848C777F7E8D7A6A
:102160007C868884736B6E827FA28E618392807E70
:10217000744683AE9578638196B67645538EA6A84D
:102180008A3E74969A696F6D8D889F98689D867A4D
:10219000586668758899925284A79C9468728C439B
:1021A000A5B0358454AEB98F783C8070778A92A5FB
:1021B0009F8E79656B646A7C8590A1A78F827C581D
:1021C0004B5F6689A8B8A7978868564F5A6594945C
:1021D00099AFB0B281383B5B668087ACB0998A8199
:1021E0005A7270578D979A7A738383798A7D7F8B21
:1021F000897E5E5D689EAD937A7861739C848C6FF6
:102200006D847E9B846E6D7C9589728892678276E0
:102210007D899392627F7C8B9777707C877F7B72BE
:10222000839A7D6978827F7F807D898973788775BD
:102230007981887D708E7D918D5584955A7A99909B
:102240008573778B847B8B8E7958738D9FBB6842A7
:102250007CB08155886F87B5AD30B6A9376751A579
:102260009472667BAE987F77484793B96F8D808470
:10227000AB703F739C999F7269607FBD8468595DA4
:102280009DC08758AE8556786668BDA35D8378602B
:10229000869B708CB8772C6199A3C9905C3C349173
:1022A000D4AB72A01F63E3895A63985959978E8300
:1022B00088AC64599E7CB8724D6EAE6672AE8083F7
:1022C0006E7A8D8A607488888AA0907752677E982B
:1022D0009C766072AB8A7879848B64578A96697928
:1022E000ADAC6466809382776D6D837E8E9A946EBA
:1022F000786B887E707D6E8EB390546C8381AA74E7
:102300005AA69A6E55817A96699790646C739E7CF2
:1023100087718E9178757092928B626C9B75966DB9
:1023200075888F7F717A8190717B898370808A82B2
:102330007B7B82877B7D827F857F81837B7C8581A0
:102340007B86827A7E847C897D7581838084807798
:1023500081857F7C827E7F7F7D8187777F8680817C
:102360007B7B84807B808481807E7F847C757A8780
:1023700089857C758283807E7B7F80818580788261
:10238000857E797C7A8B887A808281807E797B8158
:1023900086857E7C7D7B8281827F807F7F80837D3E
:1023A0007C83847F7F817C797D868284827F7D7D32
:1023B0007F827D82847B80807D81867C7D83857E1B
:1023C0007F807E86817F7E7B81847784867C807E11
:1023D0007F7D847F8681797A8282837F81877881FD
:1023E00078867B827F8B82787A7A81827E7A8980F6
:1023F000897D6F73968B778C726B868090827D7DE2
:102400007A7F7C798B6E8D916C87778083897C64F1
:102410007B7D92869F856382647F678A8DA89E728A
:102420006B70557A8882BF8264AE635C8F31B7B9B6
:10243000854D60B48A765C85A46C77978956908FB9
:102440006A9B7C78718383847F6F959865747482AE
:102450008F78818A828C886A7084928F747B7F6F78
:102460008289848A90717882706A8693997B688267
:10247000867988827C6689B765707F6A8B996E8160
:102480007A8A868B6E748B7680866D91996C7F7458
:102490008278837E7E81838083827D7D7C7E7D8247
:1024A0007F85877D7B7D7E7B7F85837F807D7A7A3C
:1024B0007C8384827B808483807E7E7F7E80798023
:1024C00085808184867A7E7E77827E7E817A8B8308
:1024D0007B8780737E8886807C7D7E8083867E7607
:1024E0007D858584837C757F827F81808080807EEE
:1024F00080807F817E7E7D8285837F7F7D7D7D7AEA
:102500007F838481827F807F80817E7F7C7E8282C8
:102510008084857D77787983868287847E7A7C7DC6
:102520007E7D7F807F847E80827F83807E7F7F7FB1
:102530007E807F80807F7F7F7F80808080808080A2
:1025400080808080808080807F7F80800041A0426A
:10255000A1E045A3A4A5A64BA74D484FA8504354BE
:10256000A9AA58E1ABACE2ADAEADAFB0B161B2B3C8
:10257000B4E365B6B7B8B9BABBBCBD6FBE7063BFD4
:1025800079E478E5C0C1E6C2C3C4C5C6C7303132FC
:10259000333435363738390001020405070A0F1184
:1025A00014191E2328324B64816A87968B97787A98
:1025B0008F9A9A67517C9E2F6D5BE864045C00865D
:1025C000F3FDDB763BD6B4649974EEA39AFFA6695B
:1025D0004CBBFFEAFFA91B6A99D7B176B3ABFFD614
:1025E0004768254B80846B8C4947683D46775C0083
:1025F0000C002DE4D56695F36728C6FC6B47AC65E7
:102600007878729BFFF3FFC0D3EBDDA9756A077280
:102610009C31030315283CB15E7C380004195492A8
:10262000F23900C3D34523001F2100061902000020
:10263000136820460E00710004000800254F48D69C
:10264000ACA1BD170014194F4AC2FFD0D7A2ADCB21
:102650001C4C3A263C162600523B000C4D5100649F
:10266000C62C00E0970003C8EADCFFECFCFF6F34E7
:10267000ACEECB0435052B009CD5A83C4E0092E671
:10268000B98D30AB77A1AD8C1F00A8A31EFFCFC8BA
:10269000D1FFC6B5A0FA6B96CCDED4C1FF83D3ECD4
:1026A000C495D5D7FFB3FEFFFCFFFCF467396F403C
:1026B0001136A46E6ACEFEFFF9FFF8FFF8FFF8FFAF
:1026C000DC67E4FBEFFFF6DEECDDDCFFF2AD3E7332
:1026D000675C3576C983DFFFC4AA8DEDFFF8FFDFA5
:1026E000BFFFB100000C130C003E3A1D0029B77C5F
:1026F00057319C43A7E1C3AE28991B00193D4B00FD
:10270000175F97617C5BD57700070004000200002B
:10271000030018190004001002102A6A695D409C29
:102720007F10000100000200444B05042873972C21
:10273000000014471E060009002117061F010200B1
:1027400002000C0013009291AE9D98B98BF06E00C0
:1027500005000200052800022A7C7F8D7F816C42E3
:10276000110003000200020026A3ED65AD811E09E1
:1027700000050006004330005EE5D69F6DE0BB30EB
:102780002E96F8706A7FBCBFEFBB09AFEF40002305
:10279000150400B0F8590D64FFFDFFE7FFCB9AD395
:1027A0008C7ABB34431F004608010A4B33B8BDD1B5
:1027B000E7907C7F8729C27155AF483238506E4808
:1027C0005683AA6D0A1E66190002000200040D213C
:1027D0004E4B40564381B4AD0295B7977CCBD5950F
:1027E00093D9AA296C4B2E000900000E1C00086723
:1027F000F0A2B2DE7F7259230003033F45296E8C9D
:1028000051566736555B452823205B797FA32E16EA
:102810000028380D404F754B349D6F2D5E96324F1A
:10282000B0CFB26FA5500406719363B7FFFFFEFFF0
:10283000FCFFF6E8C88A746013010014021E43000E
:10284000050A0008000A2D63787DFFDEE1FB56D102
:102850007F175984DB5C9CCB78C196AA9D5DFDCF28
:10286000A3C712325435796B5E1B439D75643A00E1
:10287000701D77DA2063314CEC9B3F12007B416482
:102880008405010473380D414539999ED0FFFFEE50
:10289000D0DA828FB4A6A8B39FFEFBFEE8F3D7CAB6
:1028A000BA787E9864649B97605B7D8959003D6C23
:1028B000622534130019170200063A51505631525E
:1028C00054669C5F3E5F6C744E9D92461E544F0052
:1028D0000A0020354A362F2F6F954B3F51416082B9
:1028E0003E3415070B0007081539002C2A007A978B
:1028F000DBB9841D006BB1569599493518611D0DE2
:10290000291F0020467C1F3D20140C0004000200FB
:10291000002A756FDAFBB88978B1C07C5C61AD8440
:102920004E0A00373B0009004F9F957091D2D7F2B5
:102930009A92407DC12B00050001000053882D7440
:1029400068160031BDFFC1D37D020C0060007B81A1
:1029500075B6AED09C51223F7BAC767EA48C598359
:102960007FAA937B75442F5A5F130A1E05000B0044
:102970000400000C001F63080D445F7B796E633A0E
:1029800034311F5053411C273E3A507160458187B6
:10299000744259433152808A8E500C634A5E391C0E
:1029A0001E5D5D23172E2E242D0E0302423E8888C5
:1029B000698D70685C5B71B1A7B2BE939FA0A18561
:1029C000A29A736C8699634958683A4A59696E6A43
:1029D000766E68525F5D585F75705D739987847716
:1029E000474742647A484A7B7A6E656A768DA68A42
:1029F0008C8A957E75644ACCFFFEB89E6766BF7D63
:102A000071451B20444A909F5B45364D3228242D4A
:102A10003024422E317C71868A6A687180816769B0
:102A20008F87543A4E45455B6955908242234659FB
:102A3000493E0B66968056395A366B6E285E9BA2CD
:102A4000848B84999495A475606A532B1126381B46
:102A5000285A908277696C9C8583512B4B6D798ABB
:102A600056497037417281678B9CADCBDCFFE39E8A
:102A7000E3D2A6CA937F75A1B890787784806E83DD
:102A80008297AB8A8FB5D1E6DDD4C3AE9F835C6DF0
:102A90006E57564E787B81707E8A75526257303100
:102AA0003E4F375950391B292A64746F5974CEBD73
:102AB000A67B757A8797B3A599C2E1A7A6BE9D7C30
:102AC0009A8A74919B9097BBAC9B9EB88B766A74E4
:102AD0007F6C8390978484B5AFACA9816C74835D5F
:102AE0003F392E24374E5B82929EB893C1CCB3A956
:102AF000A8D5BFCFB48078747A6C564A605D4D809B
:102B00006B595A67825C62755C787F83728B9F8396
:102B1000A9D6FCBC9AA0B678656F807B58758EAB41
:102B2000CDE4BDBEDFE19A8BA58483C2B7AAA09E87
:102B3000998B7A7E9997A671567E95866F727B6F78
:102B4000694E4A7C998D605D6E615245676D2F5A62
:102B5000877D8A8D78787D6C716C6F666A8C9E75C6
:102B60007A8A9F978A8A79939D9F6A80AAA7B28F53
:102B70008A877C8C986E6A897A8854558491878478
:102B80008E8597917B917A657D76766C8A8D875854
:102B900067A8979B8C79878F89846B5F92A98262E3
:102BA0006860517B7A5A536F7C6959596670737AA1
:102BB0006862747E9C7C648488818E978C98958AE8
:102BC00094ADA99F8E7C7A64676E5F5A664F746776
:102BD000637A9CBAA5A69B92A1CFD0BD8B86BCA0E0
:102BE0008F987071562D66704F597B6C5D74525C76
:102BF000777A6D73ABB88C9CA39197AFA5949BB279
:102C0000A3A3A3907F536A848F6A6A7063687E72FD
:102C1000524B65787472816762869081839498952F
:102C200097A293A49AA09498878A7F858F807751E2
:102C3000748B6B646F5D6D837E70939D909A8B93A4
:102C4000AFA88866778E8E7A677C8C778A95758533
:102C500096826D84929088888791A4A9A5A1A3A645
:102C60009D9B987F94958C87889F7E667160807B02
:102C70005E674343434866655E6265475F97799642
:102C80009F929C94A7A98E898089A1939E999BADC0
:102C9000B4937E8C9794908596A29B8F907F654A83
:102CA0005B91866A5461656C6B4D5274926C5E9355
:102CB0008C7888A4A3928B8183938D987C665E66C2
:102CC000867173737B857F787A93918179767E7034
:102CD0008C9892ABA7908F9D9E95716A807A736B4A
:102CE00074877A5F7A7E6A68828C7E7D778682843A
:102CF00079898A8D7C7F869A987C897E75718278A5
:102D00006E5E5C5F63888E6D64798577948A7D9052
:102D1000A29AA5A08B8FA0998E9EA7B6A5A5989FD5
:102D200099927B879171727A74665C615A4A494FB5
:102D300054596A7E7B614954605995946D81736CD6
:102D40007D65947E56786088BAA1978499B37D8614
:102D50007582B9A69A828991957F78978C79767ECB
:102D600091958C877196814C58858C8F7E54566DC9
:102D700075698289868B99AD927B836F73937B6330
:102D80007D8068657C6F747770736E746B748584F6
:102D90008689998F88968382A3947FA3AFAE8C781F
:102DA000839096979EAA8B85A2A799898A808F8CFB
:102DB000858396989EA08C91887F748982866549C8
:102DC00073786F6D776F7A7B78697C79827B738C8F
:102DD000898067858F8B706E7F8B9083889792A098
:102DE000AB9A927E858A7C8A949188847C7498833D
:102DF000706F7069628485879389837C83908984EE
:102E0000717B72706F635653686F6B5566859084E3
:102E10007C7287938C8F7D78889587859079829B4B
:102E2000907876807167727E7A70767B7A85797B0E
:102E300071778E747185958B727B8B8E83617CAB81
:102E40009B878C8F80838B77867D84888692887918
:102E50006775849B8E9D966F81858F9273757D6C4F
:102E60006E7273746662676366706B69676C818982
:102E700088798294AFAA9A8477877F6F80877378E6
:102E8000799A8B6274877B81786B808C81737D816A
:102E9000787D7D706877837266617A6B6881897EE0
:102EA0006B6C69728188898F8B7A85898489757B3F
:102EB00091918A757786817A788F90806F778481F7
:102EC0008476716D7588898A797385808D90715C3F
:102ED00071909C7868778793897184AF988D867795
:102EE000627A8282857353517575777375838F7596
:102EF0005A739596898A978670566D90A1AA989F65
:102F0000A18D72806E6081A9B7885557859D98887C
:102F10008BABAA7C677F958C8C85888875829F8C0B
:102F2000767C5F608684827E709E92637B98A79495
:102F30006868808573615C5D6B6F88805E5E837B93
:102F40006669686867848A7D7374898D82918E83CF
:102F50008B9891857B858B8D84727F8CA2A59984BB
:102F6000818D8E7C7B7B7B8492807588667C95735B
:102F7000869678746C7F887C83777A71778A6962A9
:102F800070776E86906E75909DA17375A88165614E
:102F90007C817E909381646990A68C777A73727736
:102FA00088836272867F7C72697975717B84838A7B
:102FB0008AA49E73718D9C8D8A8D9FA79493958C06
:102FC0008B9A98918778828B808C8F69576A8D8FC6
:102FD0008A7C828083988E6E818A868478757E7CD6
:102FE0007E7F7E8D7D7079868B736677766E697550
:102FF0006C67577B8F79697E8882898C8671808C1B
:1030000094828589848081858C8A949A8A83848D30
:103010008D7F80888D9C90848392908A8577849719
:1030200095827B7D8B7E708080768C8571838B8D85
:1030300073767C7371746E5E7080776A768379784C
:103040007D685F6B73686171706F777E8A83787D4E
:1030500084878A938987868D999F9682928F909193
:103060008E958F95948A8C94908B888C8A80847F9F
:103070007D888888918B87847E797C7F8487797C22
:103080007F898E7C7679838B80766D61768B847672
:103090006C7583827C7977757B7F8079717E82798C
:1030A0008B81707574827E687871749582858A7759
:1030B0007C878385807975787C7F70737D828C8531
:1030C0007C737771757A7079817983868B82857F3D
:1030D000807E737F868F837A7A8E908D90888E849F
:1030E000869294876E7B7F7F837D818B7B878F82A7
:1030F000847680837F7A777C8A8B7E8084857E75D8
:1031000079888B816F75827E808C7F7684898376C7
:1031100065708073707B707583847B77868786800B
:10312000818480818A91958B87887F78818E939521
:1031300091847B8586877E878C7D7F8B8E827A6F5C
:1031400074767F988C7C788181758185767886818C
:103150008A877E7A829291898A9184766D6B718357
:103160008072758A8D786875827F79727B8D937C89
:10317000676988A49A82889A9F7F655D76989C8FFC
:103180007D7E80828380808587836D7288898F8B26
:1031900080828A808681748277778B868084827C25
:1031A0007182837C7983806B77848B8382737E804A
:1031B000757984796C707D8980867974716C71847D
:1031C00083737A837C808C858786737B81868C75FC
:1031D000777D80869388797A7C79767E7683907FF6
:1031E0007A7E8F8777767D8E8C8083998E847777B1
:1031F0008C887D7F88897F6A71908D72788B8788B3
:1032000080718390807887897675737A847F8881CE
:103210007A797675787270817A6C657280737A8447
:103220007A7E86766B6A75858882777A71757D7607
:10323000786D798384797083817978797E7B7785DD
:103240008B928B78767E7C6D81807A7E879183816C
:1032500082796F827C6E81827D8D8B7E726D7A85A4
:103260008B80878E7672706C737F837F8181797299
:1032700072748A7E6E878A81787E8B83747D846F78
:103280007088837A8283867A7B9490727587827540
:10329000798D92838989737F7C6F7E87847F7E7B23
:1032A000797E7F8681777D7A7F8B81747C7E706F5B
:1032B0007A7A7D8082797B84787869778F8A826F49
:1032C0006F7F807B767F8381807D7E807C7670724D
:1032D0007F86776E777E78717B7D867B767870715E
:1032E000767E8C8B8C8A7A787775747F8C807F88D9
:1032F0008B928C8178757073696F7B737F8B8581FE
:103300007C6D6D7D827C767A898279788088817601
:103310007A85878C878481898785806F7A8F928070
:10332000848185828B8B7A7B87908282717285867D
:103330007E83888883837E76747B8582867A7077A5
:103340007D7F776A75898C76808872879A83756DA0
:103350006C75727585857F817A7F7B80867E8D878F
:103360007B837B7177706D7B807B8B937E8581798E
:103370007C87846D78757575747E807E7E867E8090
:10338000786F787E7A7580827E7876767779797DA7
:1033900081828185807D7B737C747C7E7E847D7F51
:1033A000838B83787D817C827C76807F86958C83FD
:1033B0007C7D86858C8D80797A7880847A7C878004
:1033C0007985838684685B76928A7D7785877D7729
:1033D000778992867E776C70777384918F9B9286C3
:1033E00077747C7F8288887F75737E7F81847F7706
:1033F000767C8281817470717C8279767F7E727135
:103400008288818080918372757F8F8F88797B8895
:1034100084736C7281978A8A9185716C6966807EEB
:1034200081848287847E797678767B8485867F83A3
:103430008183857B787C818280828485807E7B7E8F
:10344000897E7683887E848C837B7C7A72707C7D97
:10345000838A7F7E817F858078797C7D827E7A7C7D
:103460007A767581898D807D848880787470737B8D
:10347000887F7D7D7C898576747A7D757E82736A8E
:103480007787807A8082746F757D817A7E807E7D79
:103490007B808182858580888774777C757B858930
:1034A0008C868C8B85827D807E7C828789868281DA
:1034B0007D818789838288857E7F7D7A7F797989FE
:1034C000958B8081827F79757D877D787D858879F0
:1034D000797D7D797A7D7779827C7B827977767543
:1034E0007C83848F8C7A767670748789807E7679F7
:1034F00083837C747C79777B767879707587868511
:1035000082817B76797D86827E7D7A807F7E807FD8
:103510008484837F7B7470787E7A7A80868B8986B8
:10352000847F7C76777F879092958C7D7E7D7E816F
:10353000848E948B7D7B797082958F8A8485857A41
:1035400077787C838483837F797B8386817F7C818A
:10355000857E7E85857C77797B7A7B777677808799
:10356000848380767377828377768281807C7B897F
:10357000857F787F7D78797E7E7E7E797D7C7C8379
:1035800082797C857C7478737B867D7978778C886A
:1035900080808081848B7F7B7A7F7E818382867F1F
:1035A00080837C7B808F89757D7F7F7A797978783D
:1035B0007D86808488786F80837F7D7D8083807B1B
:1035C0008286827C82807F827B79828B887D787400
:1035D00075828B7E787F7B7E7C7C7D6E7181847F23
:1035E0007F7E79808582777B8181807F87827E81E3
:1035F0008987807E7B828781817E787B7A7A7F84CF
:103600007F807F82807C818284837C787F7B777CD3
:10361000808085848288887D7F7F7C86807C83878C
:10362000847F84807E82837E8086807F8084858084
:103630007F837C808A8A888178797C797D84848183
:1036400083838581787D89847C8085858081827C67
:1036500081807B7C7E7D777E8D8B858783796F747F
:103660007B7C7C827E7A7E7F807E807E7C7F7D7983
:10367000797E7B7B7D7E828888787D85807B777D67
:10368000817E7E8583807A74787D7A7A83817D7A63
:10369000797B7C83827F8888807778807B7B85823A
:1036A000868378818080847B7B7D82807E8281831B
:1036B00086807C7D7C7C787F807F7F7F8385837C18
:1036C000787D7F7E78768177798683807B7A818327
:1036D0007C7A7E787985818485797982817B7B7E0D
:1036E0007B7D847F797E7E7E858388877F817C7EDB
:1036F00085808A8C82847C74797B7E8284878388AF
:1037000083838578797E808586857B7D908A7C7DA4
:10371000837E7D8180797C82797A85877F7E797CC2
:103720007D7774777B79797E818182817E7D888BBC
:1037300083807D7A79807E7B848684887D777E7E97
:10374000848586837C8082858178787E857D7E8471
:103750008285817D7E7D7F817B798388807E868264
:103760007D85847880867E798381818182877F7C54
:103770008285817F817F8286817D7A7C7D7E7C7A55
:103780007D7D817F7C7D847F777D7E827E7C7B7763
:103790007A87857F7D7C85807C838485837C7C8023
:1037A0007E808282807F84817F85858183868589F2
:1037B0008A7F828A7C7D86807E84807374777B7E1C
:1037C00080868B8D88807D7C7A797F7D7A7C7F88EE
:1037D000827A81848082817E7C7A72747A7C7D7A1E
:1037E00076777F797B8084847D7D7D7A7977757724
:1037F000797C7E83858984807D7B79787D787378F8
:103800007E7E80827E7F83828382828383818483A3
:103810007D7E807C7F84818488868A878781828779
:1038200086807B858584838385857A777D817F7D8E
:103830007D797C7B7B7C7A7C82847E7D7E797C7AC0
:10384000777C7E82827C80847A7C7C7C818282818F
:103850007F808A8782828281828483807C82858441
:10386000818285818388858384817F8084867E7E32
:10387000858380817F7C7A7F83797A7C7D83817E5A
:1038800079797D817E7F817C7C7F7F78798082825F
:103890007E797C87847E807D7D7D7A7C7E7D828042
:1038A00082878887837F7C7876787E837F80818318
:1038B000827C7D817D7A7D787E7E7F827F85857E1C
:1038C00082857E7C807B797D7A82858583838082F8
:1038D000888684848485858186857D827F7D7C79C8
:1038E0007E818381827F7B7A7E81797B7E7C797EFB
:1038F0007F807E777C7C767A81827E7C81848481E5
:103900007C7B7B7A7B8586818485828287887F79B0
:103910007B7F8182828281808487827F807F84888E
:10392000878280847F80827F7E827F7B8186807C8D
:1039300082807E80817E7E7F7D787B7B7C7E7676BA
:103940007D8081817C7C7E7A7D7F7C7B817E797F9E
:103950007C7D7E8082807E7E8182837F7F7D7B8175
:1039600084807D7F84827F8285838187847F807E3F
:103970007F828081838081838482807F807F818237
:10398000818086837F7A787F8185807D8486827F2F
:103990007F7D7A7D817F7C7A7E818386807C7E7A42
:1039A000787C7E7D7D7E7D7F7F7C7C7D7F7E79794E
:1039B0007F7E7A787D847E7B7E827E7D88857A7C20
:1039C00082837E807F828282807F81807D7E817FF4
:1039D0007F868982817F8082817E7F7F81838183D0
:1039E0008283827D80838587857F80827F7E8283BC
:1039F00081838083828386827D8385807A7A7F7DBE
:103A000079848B82827D78787A7E807D7E828183C4
:103A1000827B7D8080848A7F76797F7D80808082B2
:103A20007F817D79787A7D82857D7C7F807E7A7EBC
:103A30008182817F7B7F827F8183827F7E81837C85
:103A40007E7F82847E8184837D7B79808282838273
:103A5000838182847F7A7E80817F82828082807E61
:103A6000807F81857F7B83837F7F7F7D7D7E7F825B
:103A70008482807F7A7C7F7F7B7B7A7A7A7E838464
:103A80008183837B727177787B7F8688878381824D
:103A90007C797E7A7A7F8383827F7B8286817D8038
:103AA000837E7B7F7D7E81818182807E85847B7A1F
:103AB0007C7E83807F8182838284818483827F7EF7
:103AC0007C7A7C7E8382848B857A7B827E797B7D07
:103AD0007D7C7D8486807E81807F7E807A7B7D7DFB
:103AE0007D7C8083817D7E7F7D7B7C797C838386EA
:103AF0008481817C74757D7E7C81838282838382D4
:103B00007F7E7F7D7D7B7E807D7E7E8185868684B7
:103B100084817C7C7D7E7F80808482807C818083A8
:103B200083827F7C808388837E817F7E817E7F8489
:103B3000838086827D7B7E827F81807B7C86847E83
:103B400083837E8089847F7F7E807F7C7D7D7B7B7D
:103B500083807D8080828281817E7A7A7F8081806D
:103B60007D7D80827F7E7F7D807E7C7F7E8085875D
:103B70008281807F7C7D7D7A80818082838789833A
:103B80007E807E7B7D7E7D808181838481837F7941
:103B90007A7C7F7F7E868682807D7E83828284831C
:103BA0007D787B808282817F7B7B82817D7E807F2E
:103BB0007C7F828083817F817E7C7C7D7C7C7E811A
:103BC0007F7C7E837F7E827E7E7C7A7A7D8081830D
:103BD0007F7D84877F7E81807E7E807F8485807CE0
:103BE0007D807E7E7E7F7E8083848484827D7B7CDC
:103BF0007E83837C7C81847F7F817C7E807F7F81CC
:103C0000808486807B7B7F808080808183848180AC
:103C1000838785807F8080858181808082837F7D8E
:103C2000807D7C82868382838182807D7C7F7E7B97
:103C30007D7F84848183817E7C7A79787C7E7E809E
:103C400082807F8183817C7E7C767A7C7D7F7E7F93
:103C50007F81807E7F7D7C7A7C82817F7F82848071
:103C60007C7B8283848582807E7F838184817E8049
:103C7000828485847F7C80817E7F7D7D8385858233
:103C8000808180827F7D7E7E7B7F848382807F7F38
:103C90007E7D7B7B7D7D7E7E828584827F80837F2F
:103CA00082807E8285848487837D7C7D7E7F828501
:103CB0008080837F7A7A7C7E7D797D807E7C797935
:103CC0007E7F7D807F818181807F7F7C7C7D7C7F0A
:103CD0008384807F807E7B7B7F82827F7C808280EA
:103CE000828180808183827E7E7F7D7E81828384CB
:103CF0008283817B80827E80827C7E7E80818181C6
:103D00007E807E7F7F7F7E7D7D7C7C80807C7B7ED5
:103D10007F7F7F7F7D7D7F7F7E7D7F7E7C7D7F82BD
:103D200081807F7D81848281807F7F838382827E88
:103D30007C80848484827D7D7E7F7E7C7D7F828288
:103D400084827F818385817D8384848485807E8253
:103D50008282827F7C7B7D808383818080817E8262
:103D6000837D81807D807E7D80807C7D8183847F5A
:103D70007D807E7F807E7E81818083827E7F818147
:103D800081808181818282827E807F7B7B7D7A7946
:103D90007F81817F7F83827E7E7F7F7C797C7E7E38
:103DA0007F807D7C818483807D7D7E7C7F807B7E27
:103DB0008080827F7F83817F807F8084827F8283F7
:103DC00082838282848282807D8287838082807ED9
:103DD00080817F7F80807F7E7E808081807D7D7EF0
:103DE0007D7E81827E7D7D7F807F7E7D7D80817FE7
:103DF0007E7C7D81807E82817E7D7E7E80807F82D2
:103E0000838180808080818081808283807E7F82A8
:103E100082817F7F7E7B7B7D7E81807F82838281AA
:103E200081807D7C7B7A7E7F7D7F7E7E7F808081AE
:103E300083807E7D7E80807E7F807E7E7F7F7F7E92
:103E400082857F80827E7E7E7C808280818281816D
:103E5000838280817F7F807F807F81817F7F808060
:103E60007F818080807F82807F7F8283817F7F7F50
:103E70007F807F7E7E83857F7E7E8083807F82833E
:103E8000848483807D7F7E7E808080808183848423
:103E900083817F7D7B7B8081807E7F8080817F802E
:103EA000817E7D7D7D7E7D80807F7D7E7E7F807E2C
:103EB0007E7D7E7F807E7D7E7E7E8181817F807E15
:103EC0007D7C7E81808081818280818080817E7EF8
:103ED0007E807F7F7F817F7F7F7F7E807D7D7F80F3
:103EE0008181817E7D7E817F7E7F7D7C81828281DA
:103EF0007D7F8180808080807F828283807D8082C0
:103F0000807E81828283817F7E7E808383817F80A9
:103F1000807F7F807F7E81828281808080808080A0
:103F2000807F80808182837F7C7D7D7D8182828491
:103F300081828483807F7F7E7D817E7C7E80818084
:103F40008182828080807F7E7C7D7D7F81817E7C7E
:103F50007E8081828182817C7C7F807D7F81828264
:103F60008180817F7E7E7D7E7D7C7D7D7F80818561
:103F700083808081807F7C7B7D7E7E7F8082817F4D
:103F80008083807D7C7C7D7D7E81838484827E7B3A
:103F90007B7D7E7F7F82827F818280807F7C7D802F
:103FA0007F7F82827F7E7D7E82827F7F828382810D
:103FB0008282838382818281807F7F7F81808081F2
:103FC00083848282818383807E7D7E7D7E828585DF
:103FD000838183817F7F7F7D7D7F7E8081807F7CE9
:103FE0007E818082817D7C7C7C7F808083807D7FE0
:103FF0007F7D807F7D7E7F7F7F7F8081817E7D82D0
:10400000817E7F807E7E7F807F80808182808282B1
:104010008080807E7D7F808080808080817F7E80A8
:104020008281818281817F80818080808081818086
:1040300080807F7F7E7E82827E7E81817F807F7F87
:104040007F7E8183817F7F7D7C7F7E7E808081817A
:104050007F7F83827E7F80807E7E7F808080808164
:1040600082807D7B7C7C7E807F80807E7D80808066
:10407000818181817F7D7F7F7D7E81818181808043
:104080008181827F7D7F7F7F7F7E80838181817E32
:104090007D7F7F807F7F7F7E7F808180807F80812A
:1040A00080807E7C7D7E7D7E808282828181818017
:1040B0007F7D7D7E7F7E7F8082807E7F80817F7E10
:1040C000818381807F7F7F7F7F7E7D7F82818081F2
:1040D000828182817E7F7E7E7E7F7F8082808082E1
:1040E000817F7F7E808282807E7F808081818281CD
:1040F0007F8181818080807F8182818083828080B6
:104100008180828181818081807E7F8080818180A9
:104110007F8081828383828080807E7E8080807F9A
:104120007F807F818281817F8081807F7D7F7F7D95
:104130007F80807E7F807F7E7F7F7E7E808081808B
:104140007F80817F7D7F7F7E7E7E7F7F7E7F807E82
:104150007E818181807F7E7D7F7E7D7D7D7D7E7F76
:10416000808081828181807F7E7D7F7F7E7F7F8056
:104170008181828282807F7F7F7F7F80808080803C
:10418000808080808181818180807F7F8080807F2E
:104190008081838382828381807F7E7F7F80828112
:1041A000818281808081818080807F7F818080800A
:1041B0007F808182818180807F7E7E7E7E7F808302
:1041C0008381807F7E80807F7F7F7E7F81808081F2
:1041D0008080807F7F7E7E7F7F7E808180807F7EEB
:1041E0007D7F817F7F7F7E7D7E7F7F7F80817F7FE0
:1041F00081807F7F7F7F7E7E7C7D808081838282C5
:10420000817F7E7E7F7F7E7E8082828181818080B1
:104210007E7E7F7F8081818182808080808183819A
:104220007F7F807F7E808281808082828283818086
:104230007F7F7F7F7F7F80828181828180807F7E80
:104240007E7F7F7F7F8081808181807F7F7F7F8174
:10425000807E7E7F7F7F808081817F7F7F7E7F7F6A
:104260007F7F7F807F808180807F7F7E7D7E80805A
:104270007F7F808080807F807D7C7E828381807F45
:104280007F80807E7E80818181807F7F80807F7F34
:1042900080848583807E7C7B7C7E7F80807F7F8026
:1042A00082838382807E7E7F808080818180817F07
:1042B000808182828280808080807E7F80807F7FFC
:1042C0008182838381807F7D7E7F7F807F808080ED
:1042D000808181808080807F7F7F7F7F7F7F8081E2
:1042E000818080807F7E7E7F7F81828180808080D0
:1042F0007F7E7E7F8080808080807F807F7F7F7FC9
:104300007F7E807F7F7F7F7F80807E7E7E7F8080BC
:104310008081807E7F807F7F7F7F808080808080A3
:1043200081818080808080807E7F807F7F8081818E
:1043300081818080807F80817F7F8181808080807B
:104340008080807F7E7F8080808181818181807F6D
:104350007E7E7F80807F80807E80818180807F8064
:10436000808080808180807F7F7F8081818081814B
:10437000818180808080808080807F7F808080803D
:104380008080808181807F7F7F7F80818080807F2F
:104390008080807F7F7F808080808081807F7F7F22
:1043A0008081807F7F7F80808181818080807F7F0E
:1043B0008080807F80807E8080807F808180807F01
:1043C0007F7F8081818180808080807F7F808081ED
:1043D000807F7F7F80807F7F8081807F7F7F7F7FE6
:1043E0007F7F807F7F7F7F7F808081817F7F7F80D5
:1043F0007F7F808181808080808080807F7F8080BF
:104400007F80808181818181808080807F7F8080AA
:104410008080808080818180807F7F7F7F80807F9F
:1044200080818080808080807F7F7F7F8081807E90
:104430007F817F7F80807F7F7F7E7F808180807F84
:104440007F80807F8081808080807F80808181806C
:1044500081808080807F8080808080808182807F5A
:104460007F7F7F7F7F8181808181828382817F7E48
:104470007E7E7F8080808181818180808080807F3E
:104480007F7F80818181818181807F7F8081807F2A
:1044900080807F7F808080807F808080807F7F8021
:1044A000807F80807F8081807E7E7F81817F808011
:1044B0007F7E7E7F7F807F7F7F808080807F7F8008
:1044C000807F7F7F7E7F807F80808080807F8080F4
:1044D0007F7F7F7F80808080808080808081807FE0
:1044E0007F8080807F8081807F80808080808080CE
:1044F000808181807F8081807F80818080808080BA
:104500007F808080808080808080808181818080A9
:104510008080808080818181818080808080808097
:1045200081828281808080807F7F807F8080818186
:104530008181807F7F7F7F7F808080807F7F808080
:104540007F7F807F7F7F7E7F7F80818080807F7E76
:104550007F807F7E7F808080807F807F8081818060
:104560007F7F80807F7F8080808080808080807F50
:1045700080808080818080807F7F7F807F7F80803F
:1045800080818080818080808080808180807F7F2A
:10459000807F808080807F8182807F7F7F7F7F801F
:1045A00080808081818181807F7D7E7F808082800C
:1045B0007F7F8081818180807E7E7E7F7F7F808003
:1045C000808080807F808080807F7F7F80808080EF
:1045D000818181817F7F7F7F8080808181818080D8
:1045E0008080808081818181808080808080807FC8
:1045F0007F8080808080807F7F80818080807F80BE
:10460000808181807F7F80807F80808080808080AB
:104610007F7F808080807F7F7F7F7F7F7F807F7FA5
:10462000808180807F8081818080807F7F8080808A
:104630008080807F7F8080808080807F808080807D
:10464000808181817F7F80808080807F808080806A
:104650008081808080808080808080808081818156
:1046600080808180807F807F7F807F80808080804D
:104670008080807F7F7F7F7F7E7F80807F80818042
:10468000807F7F808080818180807F7F807F7F7F2F
:104690007F80818180818180808080807F7F7F801A
:1046A0007F80808080808080808181818181808006
:1046B0007F7F7F80808080808080808181808080FB
:1046C0007F7F80807F8081808080808080818181E9
:1046D0008080808080808080807F80818180807FDA
:1046E0007F7F7F7F80818181808080807F7F8080CD
:1046F00080808080808080808080807F7F7F7F7FBF
:104700007F7F7F8080808080808080808080807FAD
:104710007F7F808080807F8080808080807F7F7F9F
:104720008080808080808080818181807F80808087
:104730008080808081808080808081818180808075
:104740008080808080808080808181818180808065
:104750008080808080808080807F80808080807F5B
:104760007F808080808080807F7F7F7F7F7F7F7F52
:104770008080808080807F7F7F7F80808080807F3E
:104780007F8080807F80808080808080808080802B
:104790008080808080808080808080808080818018
:1047A000808080808080808080807F808080808109
:1047B00080808080808080808080808080808080F9
:1047C0008180808080808080808080807F7F8080EA
:1047D00080808081818180807F7F7F8080808080D9
:1047E000808081808081808080808080807F8080C8
:1047F00080818180808080808080808080808080B7
:10480000808080808080808080807F7F7F808081AA
:104810008180808080808080808080808080808097
:104820008080808080808080808080808080808088
:1048300080808180808080807F7F80808080808079
:1048400080808080807F8080808080808080808069
:10485000807F7F8080807F7F80808080808080805C
:104860008080808080808080808080808080808048
:104870008080808080808080808080818080808037
:10488000807F808080808080808080808080808029
:10489000808080807F7F808080808080808080801A
:1048A00080808080807F808080808080807F80800A
:1048B00080808080808080808080808080808080F8
:1048C0008080808080808080808080807F808080E9
:1048D00080808080808080808080807F80808080D9
:1048E00080808080808080808080808080808080C8
:1048F00080808080808080808080808080808080B8
:10490000807F80808080808080808080807F7F80AA
:10491000808080808080808080808080807F7F7F9A
:104920007F7F7F7F7F80808080808080808080808C
:104930008080808080808080808080808080808077
:104940008080808080808080808080808080808067
:104950008080808080808080808080808080808057
:104960008080808080808080808080808080808047
:10497000807F7F7F7F7F808080808080808080803C
:104980008080808080808080808080808080808027
:104990008080808080808080808080808080808017
:1049A0008080808080808080808080808080808007
:1049B00080808080808080808080808080808080F7
:1049C00080808080808080808080808180808080E6
:1049D00080808080808080808080808080808080D7
:1049E00080808080808080808080808080808080C7
:1049F00080808080808080808080808080808080B7
:104A000080808080808080808080808080808080A6
:104E10008080808080808080000011241FBECFE5CC
:104E2000D8E0DEBFCDBF12E0A0E6B0E0EEE8FDE7DF
:104E300002C005900D92AE35B107D9F712E0AEE58C
:104E4000B2E001C01D92AD3DB107E1F70E946435AB
:104E50000C94C53E0C940000E7E3F0E08081806292
:104E60008083808180688083808180648083E8E3A0
:104E7000F0E080818F7D808380818F778083808147
:104E80008F7B80830895DF93CF9300D0CDB7DEB7BB
:104E90008A8380E8898320E030E0E8E3F0E09981CC
:104EA0008A81892321F480818F7D808303C0808162
:104EB0008062808380818068808380818F77808317
:104EC0008981869589832F5F3F4F2830310539F7D7
:104ED000E8E3F0E080818F7B808380818064808341
:104EE0000F900F90CF91DF91089580E00E944327AB
:104EF000089580916F02846080936F020E9443271F
:104F000080916F028B7F80936F020E9443270895E8
:104F10001F93982F662331F080916F0282608093F7
:104F20006F0205C080916F028D7F80936F0299237D
:104F300034F480916F02806480936F0205C0809189
:104F40006F028F7B80936F02192F96FF06C08091AE
:104F50006F02806280936F0205C080916F028F7D27
:104F600080936F0215FF06C080916F02806180936D
:104F70006F0205C080916F028F7E80936F0214FFD5
:104F800006C080916F02886080936F0205C0809197
:104F90006F02877F80936F0280916F020E94432788
:104FA0000E94792780E49FE10197F1F713FF06C083
:104FB00080916F02806480936F0205C080916F02C0
:104FC0008F7B80936F0212FF06C080916F02806218
:104FD00080936F0205C080916F028F7D80936F0276
:104FE00011FF06C080916F02806180936F0205C03F
:104FF00080916F028F7E80936F0210FF06C08091B8
:105000006F02886080936F0205C080916F02877F76
:1050100080936F0280916F020E9443270E9479273C
:1050200080E49FE10197F1F71F91089560E00E94ED
:105030008827089581E090E00E941628089561E095
:105040000E9488270895806180936F020E947927CB
:1050500080EE9EE20197F1F70895DF93CF930F92D0
:10506000CDB7DEB7803418F480E4898301C019829B
:10507000898180580E94162889810F90CF91DF91F5
:1050800008958A3031F48091640290E00E942D28C6
:105090000895803C28F0E82FF0E0E357FB4D849121
:1050A00061E00E948827809164028F5F8093640290
:1050B0000895CF93DF93FC018081882339F0EF01BD
:1050C0000E944128898121968823D1F7DF91CF91D1
:1050D00008951F93182F662331F480580E941628D4
:1050E0001093640207C080540E941628812F805CB0
:1050F000809364021F91089582E00E94162882E046
:10510000809364020895CF93DF93FC0184918823F8
:1051100049F0EF0121960E944128FE0121968491D9
:105120008823C9F7DF91CF91089580916F0280683D
:1051300080936F020E944327089580916F028F77BA
:1051400080936F020E944327089580E40E941628EE
:105150008EE00E941F2881E10E941F2881E10E94A9
:105160001F2881E10E941F2881E10E941F2881E100
:105170000E941F288FE10E941F2880E00E941F28A4
:105180008EE00E941F2881E10E941F2881E10E9479
:105190001F2881E10E941F2881E10E941F288FE1C2
:1051A0000E941F288FE10E941F2880E00E941F2874
:1051B0008EE00E941F2881E10E941F2881E10E9449
:1051C0001F2881E10E941F288FE10E941F288FE184
:1051D0000E941F288FE10E941F2880E00E941F2844
:1051E0008EE00E941F2881E10E941F2881E10E9419
:1051F0001F288FE10E941F288FE10E941F288FE146
:105200000E941F288FE10E941F2880E00E941F2813
:105210008EE00E941F2881E10E941F288FE10E94DA
:105220001F288FE10E941F288FE10E941F288FE115
:105230000E941F288FE10E941F2880E00E941F28E3
:105240008EE00E941F288FE10E941F288FE10E949C
:105250001F288FE10E941F288FE10E941F288FE1E5
:105260000E941F288FE10E941F2880E00E941F28B3
:1052700080E80E94162808950E942C270E94752716
:1052800010926F02109264022EEB30E040E951E080
:10529000CA010197F1F721503040D1F70E942C2725
:1052A00024EB30E040E951E0CA010197F1F72150C9
:1052B0003040D1F788E090E00E9423280E947927AF
:1052C0000E94792780E090E00E94232888E290E005
:1052D0000E94162888E090E00E94162881E090E065
:1052E0000E94162884E090E00E9416288CE090E04E
:1052F0000E94162886E090E00E9416280E94A528A9
:10530000089510928602E1E3F0E08081877F808338
:10531000E2E3F0E08081877F8083E5E5F0E0808153
:105320008860808380818B7F8083EBE5F0E08081E3
:1053300080688083109270020895382F20E0E1E3A6
:10534000F0E0A8E1B1E060E570E040E451E030FF5A
:105350000AC08081886080838081877F8083CA01C2
:105360000197F1F70CC0808188608083CD0101979F
:10537000F1F78081877F8083CB010197F1F72F5F61
:10538000283011F03695E3CF089530E020E0E1E3D6
:10539000F0E064E170E0A0E3B0E040E253E080813F
:1053A000886080838081877F8083CB010197F1F7BC
:1053B0008C91887080936702269580916702811195
:1053C0002068CA010197F1F73F5F383041F7822F1B
:1053D0000895282F90E038E1862F822780FF06C0AD
:1053E000822F83278695282F206801C026959F5FEE
:1053F000983011F06695F0CF822F0895CF93DF9308
:1054000080917002882309F06FC080E098E00197D6
:10541000F1F7E1E3F0E080818860808380E897E045
:105420000197F1F78081877F80838CE190E001977D
:10543000F1F7839B59C080E491E00197F1F78399DC
:1054400053C080EC93E00197F1F7839B4DC080E857
:1054500097E00197F1F783E30E949D290E94C529F7
:1054600080937102809171028823F1F16091710241
:1054700080E00E94E92980936E021092730280916D
:1054800073028630F8F4C8E6D2E00E94C529809302
:1054900072028091730290917202FE01E80FF11D79
:1054A000908380916E02609172020E94E92980933C
:1054B0006E02809173028F5F8093730280917302FA
:1054C000863018F30E94C52980937302909173026D
:1054D00080916E02981721F082E08093700204C0E0
:1054E00081E08093700205C0EAE5F0E08081806889
:1054F0008083DF91CF910895CF93DF93AAE3B0E04B
:105500008C9182608C938C9182608C934BE350E001
:10551000EA0188818D7F88838C9184608C93888157
:105520008B7F88838C9188678C93E7E3F0E08081A0
:105530008860808324E330E0E9018881816088838A
:10554000808184608083E8E3F0E080818B7F8083CA
:10555000E1E3F0E080818062808380818B7F8083C3
:1055600080818F7B8083E2E3F0E0808180648083B0
:1055700088818D7F8883E5E3F0E08081826080838D
:1055800088818F7B88838081806480838C918F77F2
:105590008C93FA0180818F778083DF91CF9108957A
:1055A0008DED83BD89E085BDE9E5F0E0808180680F
:1055B00080830895E1E3F0E080818B7F8083E5E5DF
:1055C000F0E080818260808380818E7F8083EBE544
:1055D000F0E08081806480830895982F9695969559
:1055E0009695E92FF0E09F01220F331F220F331F02
:1055F000220F331F821B662389F0E656FD4F408140
:1056000027E030E0281B310981E090E002C0880FDC
:10561000991F2A95E2F7482B40830895E656FD4FDF
:10562000408127E030E0281B310981E090E002C092
:10563000880F991F2A95E2F7809584238083089527
:10564000E2E3F0E08081806880831092D90281E0FB
:1056500080937B020895E4EBF2E020E030E09BE2EF
:1056600046E5880F12F4419301C091932F5F3F4F9D
:1056700027303105B1F78BE28093B3020895813072
:1056800071F0813028F0823091F08330F1F417C04E
:10569000ECEBF2E08BE28083319780830895ECEBB2
:1056A000F2E086E5808331978BE280830895ECEB0E
:1056B000F2E08BE28083319786E580830895ECEBFE
:1056C000F2E086E58083319780830895873009F47E
:1056D0008DC0883088F4833009F450C0843028F4B9
:1056E000813081F18230E0F520C0853009F462C05C
:1056F000863008F06DC050C08B3009F4AFC08C30DC
:1057000038F4893009F48EC08A3008F099C07CC022
:105710008D3009F4BFC08D3008F4AEC08E3009F46E
:10572000C7C08F3009F0DEC0D1C0A0ECB2E08BE280
:105730008C93FD0131978083FD013297808313970D
:105740008C930895A0ECB2E086E58C93FD0131972F
:105750008BE28083FD013297808313978C930895A9
:10576000A0ECB2E09BE29C93FD01319786E580833B
:10577000FD013297908313979C930895A0ECB2E0BB
:1057800086E58C93FD0131978083FD0132978BE292
:10579000808313978C930895A0ECB2E09BE29C93D6
:1057A000FD0131979083FD01329786E58083139741
:1057B0009C930895A0ECB2E096E59C93FD0131978F
:1057C0008BE28083FD013297908313978C93089529
:1057D000A0ECB2E09BE29C93FD01319786E58083CB
:1057E000FD013297808313979C930895A0ECB2E05B
:1057F00086E58C93FD0131978083FD01329780838C
:1058000013978BE28C930895A0ECB2E08BE28C931B
:10581000FD0131978083FD0132978083139786E5E0
:105820008C930895A0ECB2E096E59C93FD0131972E
:105830008BE28083FD013297808313979C930895B8
:10584000A0ECB2E09BE29C93FD01319786E580835A
:10585000FD013297908313978C930895A0ECB2E0EA
:1058600096E59C93FD0131979083FD0132978BE281
:10587000808313979C930895A0ECB2E08BE28C9305
:10588000FD0131978083FD01329786E58083139770
:105890008C930895A0ECB2E096E59C93FD013197BE
:1058A0008BE28083FD013297908313979C93089538
:1058B000A0ECB2E08BE28C93FD01319786E580830A
:1058C000FD013297808313978C930895A0ECB2E08A
:1058D00086E58C93FD0131978083FD0132978083AB
:1058E00013978C930895482F282F26952695269553
:1058F00030E0F901E656FD4F808190E0220F331F22
:10590000220F331F220F331F421B27E030E0241BDE
:10591000310902C0959587952A95E2F7817008951F
:1059200080E88CBFE3E5F0E088E4808380818160DB
:1059300080838081806280830895AFE4B0E08C91A1
:105940008E7F8C938C918D7F8C93EEE4F0E0808140
:105950008860808380818F7E80838C918F7B8C9305
:105960008C918F778C9380818F7E808380818F7DD7
:10597000808380818E7F808380818260808380812C
:105980008B7F808389EF8ABDE9E5F0E080818061CB
:1059900080830895982FA4EDB2E0FD01119210824A
:1059A000FD013296108213961C928695482F50E086
:1059B0001416150674F420E030E064ED72E08FEF09
:1059C000FB01E20FF31F80832F5F3F4F2417350742
:1059D000BCF39A01220F331F892F90E0821B930B97
:1059E000181619062CF4FA01EC52FD4F8CEC80834A
:1059F000089580B390E0807690708032910549F0F0
:105A00008034910519F0892B39F009C080E290E0CB
:105A1000089580E490E0089580E890E0089580E1A2
:105A200090E0089583B382958695869583708095DE
:105A300081700895CF92DF92FF920F931F93CF93BF
:105A4000DF93EC01062FF72E142F8FE0C13AD80711
:105A500008F052C0C090C602D090C7028FEF9FEFEF
:105A60009093C7028093C6029E0140E050E060EA36
:105A70007CE880E090E00E94583E422F802F9F2DCE
:105A80009C01213A310510F020EA30E0CE016AE0B5
:105A900070E00E94313E269FD001279FB00D369FB7
:105AA000B00D1124109721F160E070E0ECE5F0E01A
:105AB000242F30E0A90110831092CB021092CA0269
:105AC0008091CA029091CB0282179307C8F310828B
:105AD0001092CB021092CA028091CA029091CB021E
:105AE00084179507C8F36F5F7F4F6A177B0718F31A
:105AF000D092C702C092C602DF91CF911F910F9141
:105B0000FF90DF90CF9008950F931F9302E310E072
:105B1000F80180818062808388EE93E063E070E02A
:105B200040E80E941A2D84EF91E063E070E040E8C5
:105B30000E941A2DF80180818F7D80831F910F9123
:105B4000089524E530E0A4E7B2E0FD01318320832D
:105B500032968CE59AE191838083149611963C935A
:105B60002E9381E08093D8028091D8028823E1F7B8
:105B700008952DE53AE1A4E7B2E0FD0131832083E9
:105B8000329684ED9FE191838083149611963C9325
:105B90002E9381E08093D8028091D8028823E1F788
:105BA000089525ED3FE1A4E7B2E0FD0131832083B4
:105BB00032968CE495E291838083149611963C93FF
:105BC0002E9381E08093D8028091D8028823E1F758
:105BD00008958F929F92AF92BF92CF92DF92EF92F1
:105BE000FF920F931F93DF93CF9300D0CDB7DEB713
:105BF000D62E8983662329F422E030E043E050E08A
:105C000007C0462F50E09A01215030400AF476C078
:105C10000F2EFDE8EF2EF5E2FF2EF02D0EE512E03F
:105C200089816AE00E94253E9A8389810E94253EEF
:105C300089838A81F701E80FF11DE491D801A20F51
:105C4000B31FEC93215030405AF7FA01E25AFD4F4E
:105C50001082DD2009F041C00F2EFEE5CF2EF2E0CC
:105C6000DF2EF02D56010894A11CB11C0FE512E0A7
:105C70004801089481089108B4016E5F7F4FA40128
:105C80004D5F5F4F94012C5F3F4FD40115960F2E4F
:105C9000F6E0EF2EFF24F02DE80CF91CF6018081D0
:105CA000F50190818033C9F49923B9F0F80180811E
:105CB000F4018083FB018081F8018083FA018081F7
:105CC000FB018083F9018081FA0180838C91F901C5
:105CD0008083F70180818C93E1CF8EE592E00F9075
:105CE0000F90CF91DF911F910F91FF90EF90DF9078
:105CF000CF90BF90AF909F908F900895FA01E25A95
:105D0000FD4F1082EACF0E941A2880E690E00E94A0
:105D100059288091C3029091C40260E00E94E92D4D
:105D20000E94592888E690E00E94592880E061E0AE
:105D30000E9469288BE690E00E9459288091880291
:105D40009091890260E00E94E92D0E9459288AE022
:105D500061E00E94692882E790E00E9459288091C2
:105D6000850260E00E94E92D0E94592886E790E0B4
:105D70000E945928089587E060E00E946928809178
:105D8000C3029091C40260E00E94E92D0E9459284C
:105D900088E790E00E945928089586E061E00E941B
:105DA0006928809188029091890260E00E94E92D23
:105DB0000E94592886E790E00E94592808958DE0B6
:105DC00061E00E9469288091850260E00E94E92DCF
:105DD0000E94592886E790E00E945928089580EC97
:105DE00087B987E886B90895E7E2F0E09081877087
:105DF000892B8083E6E2F0E080818064808380816B
:105E000084FFFDCFE6E2F0E080818061808324B1F1
:105E100035B1822F932F08950F931F930E941A2854
:105E20000E947C288DE790E00E94592800ED12E046
:105E3000F801808160E00E94E92D0E94592883E8E2
:105E400090E00E94592880E061E00E9469288BE878
:105E500090E00E94592802501040F80181918F0172
:105E600060E00E94E92D0E94592880E990E00E949C
:105E70005928F801808160E00E94E92D0E9459288C
:105E80001F910F91089582E090E00E94953E089541
:105E900080E090E00E94953E0895EF92FF920F936C
:105EA0001F93CF93DF938BE090E00E94953E9091FB
:105EB00071028917E1F4C0E0D0E00F2EFBE0EF2E75
:105EC000F0E0FF2EF02D08E612E0CE0101968E0DD7
:105ED0009F1D0E94953EF801EC0FFD1F90818917D0
