:100000000C9451050C9420330C94ED320C946E0535
:100010000C94E92E0C946E050C946E050C947E30B5
:100020000C946E050C946E050C946E050C946E0584
:100030000C946E050C9408360C946E050C94B33534
:100040000C946E050C946E050C946E050C946E0564
:100050000C946E05162719271C271F2722272527F2
:1000600028272B272E273127342737273A273D27C4
:1000700040274327462749274C274F2752275527F4
:1000800058275B275E276127642767276A276D2724
:1000900070277327762779277C277F278227852754
:1000A00088278B278E279127942797279A279D2784
:1000B000A027A327A627A927AC27AF27B227B527B4
:1000C000B827BB27BE27C127C427C727CA27CD27E4
:1000D000D027D327D627D927DC27DF27E227E52714
:1000E000E827EB27EE27F12741A042A1E045A3A492
:1000F000A5A64BA74D484FA8504354A9AA58E1AB19
:10010000ACE2ADAEADAFB0B161B2B3B4E365B6B71A
:10011000B8B9BABBBCBD6FBE7063BF79E478E5C047
:10012000C1E6C2C3C4C5C6C762756C6C6574735F33
:10013000696E5F636C69703D0062756C6C657473A9
:100140005F696E5F636C69703F0070726F746F639C
:100150006F6C3F00636C6970733D00636C69707312
:100160003F00707265706172655F746F5F7772696E
:1001700074655F626C6F636B00726561645F626C73
:100180006F636B00736F756E645F315F616472657E
:1001900073733D00736F756E645F315F6164726588
:1001A00073733F00736F756E645F315F73697A6557
:1001B0003D00736F756E645F315F73697A653F00F0
:1001C000736F756E645F325F6164726573733D0057
:1001D000736F756E645F325F6164726573733F0045
:1001E000736F756E645F325F73697A653D00736F1C
:1001F000756E645F325F73697A653F00736F756E09
:10020000645F335F6164726573733D00736F756E15
:10021000645F335F6164726573733F00736F756E03
:10022000645F335F73697A653D00736F756E645FF9
:10023000335F73697A653F00736F756E645F345F17
:100240006164726573733D00736F756E645F345FD4
:100250006164726573733F00736F756E645F345FC2
:1002600073697A653D00736F756E645F345F73699F
:100270007A653F00736F756E645F355F61647265A8
:1002800073733D00736F756E645F355F6164726593
:1002900073733F00736F756E645F355F73697A6562
:1002A0003D00736F756E645F355F73697A653F00FB
:1002B000736F756E645F365F6164726573733D0062
:1002C000736F756E645F365F6164726573733F0050
:1002D000736F756E645F365F73697A653D00736F27
:1002E000756E645F365F73697A653F00706C617923
:1002F0005F736F756E6400706C61795F73686F74A3
:100300005F736F756E6400706C617965725F6964AC
:100310003D00706C617965725F69643F0064616D76
:100320006167655F696E6465783D0064616D6167F2
:10033000655F696E6465783F0069725F706F7765AD
:10034000723D0069725F706F7765723F0066726917
:10035000656E646C795F666972653D006672696599
:100360006E646C795F666972653F007465616D5F8C
:1003700069643D007465616D5F69643F006261742A
:10038000745F66756C6C5F766F6C746167653D0059
:10039000626174745F66756C6C5F766F6C746167B4
:1003A000653F00626174745F6C6F775F766F6C7429
:1003B0006167653D00626174745F6C6F775F766F33
:1003C0006C746167653F00736F756E645F375F6162
:1003D00064726573733D00736F756E645F375F6140
:1003E00064726573733F00736F756E645F375F731C
:1003F000697A653D00736F756E645F375F73697A04
:10040000653F00736F756E645F385F61647265731A
:10041000733D00736F756E645F385F6164726573FE
:10042000733F00736F756E645F385F73697A653D03
:1004300000736F756E645F385F73697A653F007330
:100440006F756E645F395F6164726573733D0073CD
:100450006F756E645F395F6164726573733F0073BB
:100460006F756E645F395F73697A653D00736F7590
:100470006E645F395F73697A653F00736F756E6490
:100480005F31305F6164726573733D00736F756EC9
:10049000645F31305F6164726573733F00736F75C1
:1004A0006E645F31305F73697A653D00736F756E9E
:1004B000645F31305F73697A653F0069725F6361C1
:1004C00072726965725F6672657175656E63793D9A
:1004D0000069725F636172726965725F66726571ED
:1004E00075656E63793F00636C6561725F746D0062
:1004F00072656C6F61645F6475726174696F6E3D83
:100500000072656C6F61645F6475726174696F6EAF
:100510003F006C6966655F61667465725F737461E4
:1005200072743D006C6966655F61667465725F73C5
:10053000746172743F006379636C69635F726174A4
:10054000653D006379636C69635F726174653F0048
:10055000736166655F6475726174696F6E3D007387
:100560006166655F6475726174696F6E3F00280132
:1005700039014A0154015B0162017901840194014E
:10058000A401B201C001D001E001EE01FC010C02A6
:100590001C022A02380248025802660274028402CF
:1005A0009402A202B002C002D002DE02EC02F70204
:1005B000070312031D032B03390343034D035C039D
:1005C0006B0374037D039003A303B503C703D70331
:1005D000E703F50303041304230431043F044F0429
:1005E0005F046D047B048C049D04AC04BB04D10443
:1005F000E704F004010512052405360543055005FE
:100600005F054552524F523A756E6B6E6F776E2092
:10061000636F6D6D616E640D0A004552524F520D4D
:100620000A004552524F523A706172616D657465AD
:1006300072206973206E6F742073706563696669D8
:1006400065640D0A004552524F523A706172616DF5
:1006500065746572206F7574206F662072616E67B5
:10066000650D0A004552524F523A696E76616C69C7
:100670006420706172616D657465720D0A000D0A07
:100680004F4B0D0A00CAEEEBE8F7E5F1F2E2EE207F
:10069000EFE0F2F0EEEDEEE220E220ECE0E3E0E766
:1006A000E8EDE53B696E7428302C3930293B6275E2
:1006B0006C6C6574735F696E5F636C69703F3B62FD
:1006C000756C6C6574735F696E5F636C69703D0D0A
:1006D0000ACCE0E3E0E7E8EDEEE23B696E74283037
:1006E0002C313030293B636C6970733F3B636C691C
:1006F00070733D0D0AD1EAEEF0EEF1F2F0E5EBFC9D
:10070000EDEEF1F2FC3B696E742833302C3830305A
:10071000293B6379636C69635F726174653F3B6316
:1007200079636C69635F726174653D0D0AC8E4E5C5
:10073000EDF2E8F4E8EAE0F2EEF020E8E3F0EEEAC9
:10074000E03B696E7428302C313237293B706C6184
:100750007965725F69643F3B706C617965725F694E
:10076000643D0D0AD6E2E5F220EAEEECE0EDE4FBB2
:100770003B656E756D28CAF0E0F1EDE0FF2CD1E825
:10078000EDFFFF2CC6E5EBF2E0FF2CC7E5EBE5ED56
:10079000E0FF293B7465616D5F69643F3B7465618F
:1007A0006D5F69643D0D0ACDE0EDEEF1E8ECFBE92B
:1007B00020F3F0EEED3B656E756D2831252C32256A
:1007C0002C34252C35252C37252C3130252C313552
:1007D000252C3137252C3230252C3235252C333041
:1007E000252C3335252C3430252C3530252C373528
:1007F000252C31303025293B64616D6167655F6967
:100800006E6465783F3B64616D6167655F696E64C6
:1008100065783D0D0AC4F0F3E6E5F1F2E2E5EDEDB1
:10082000FBE920EEE3EEEDFC3B656E756D28CDE552
:10083000F22CC4E0293B667269656E646C795F6670
:100840006972653F3B667269656E646C795F666963
:1008500072653D0D0AC6E8E7EDFC20EFEEF1EBE531
:1008600020F1F2E0F0F2E03B696E7428302C313078
:1008700030293B6C6966655F61667465725F73748D
:100880006172743F3B6C6966655F61667465725F37
:1008900073746172743D0D0ACDE5F3FFE7E2E8EC95
:1008A000EEF1F2FC20EFEEF1EBE520F0E0EDE5ED0E
:1008B000E8FF28E220E4E5F1FFF2FBF520F1E5EAAC
:1008C0002E293B696E7428302C3330293B736166C6
:1008D000655F6475726174696F6E3F3B73616665D5
:1008E0005F6475726174696F6E3D0D0ACCEEF9ED4F
:1008F000EEF1F2FC20C8CA20E8E7EBF3F7E5EDE8FB
:10090000FF3B656E756D28C4EBFF20E8E3F0FB202C
:10091000E220EFEEECE5F9E5EDE8E82CC4EBFF2092
:10092000E8E3F0FB20EDE020F3EBE8F6E5293B6996
:10093000725F706F7765723F3B69725F706F77654A
:10094000723D0D0AD7E0F1F2EEF2E020EDE5F1F3B1
:10095000F9E5E920C8CA20F1E8E3EDE0EBE03B650A
:100960006E756D28333620EAC3F62C353620EAC37F
:10097000F6293B69725F636172726965725F6672C4
:10098000657175656E63793F3B69725F6361727211
:100990006965725F6672657175656E63793D0D0A92
:1009A000C2F0E5ECFF20EFE5F0E5E7E0F0FFE4E082
:1009B0003B696E7428302C38293B72656C6F61641A
:1009C0005F6475726174696F6E3F3B72656C6F61D5
:1009D000645F6475726174696F6E3D0D0ACDE0EFFE
:1009E000F0FFE6E5EDE8E520E7E0F0FFE62E20E1A8
:1009F000E0F2E0F0E5E820ECC23B696E74283330A9
:100A000030302C3435303030293B626174745F668D
:100A1000756C6C5F766F6C746167653F3B62617487
:100A2000745F66756C6C5F766F6C746167653D0DA5
:100A30000ACDE0EFF0FFE6E5EDE8E520F0E0E7F0D5
:100A4000FFE62E20E1E0F2E0F0E5E820ECC23B69B1
:100A50006E7428323730302C3435303030293B62D8
:100A60006174745F6C6F775F766F6C746167653FFC
:100A70003B626174745F6C6F775F766F6C746167F3
:100A8000653D0D0A003031323334353637383900A0
:100A900001020405070A0F1114191E2328324B64A2
:100AA000243811241FBECFE5D8E0DEBFCDBF12E051
:100AB000A0E6B0E0ECE4FEE602C005900D92A8339B
:100AC000B107D9F714E0A8E3B2E001C01D92A33F3B
:100AD000B107E1F70E94052B0C9424370C94000019
:100AE000E7E3F0E08081806280838081806880839A
:100AF000808180648083E8E3F0E080818F7D808363
:100B000080818F77808380818F7B80830895DF93BE
:100B1000CF9300D0CDB7DEB78A8380E8898320E009
:100B200030E0E8E3F0E099818A81892321F4808133
:100B30008F7D808303C08081806280838081806814
:100B4000808380818F7780838981869589832F5FD9
:100B50003F4F2830310539F7E8E3F0E080818F7BA3
:100B600080838081806480830F900F90CF91DF918C
:100B7000089580E00E948705089580915602846060
:100B8000809356020E948705809156028B7F809346
:100B900056020E94870508951F93982F662331F00F
:100BA0008091560282608093560205C08091560261
:100BB0008D7F80935602992334F48091560280648D
:100BC0008093560205C0809156028F7B8093560217
:100BD000192F96FF06C080915602806280935602BC
:100BE00005C0809156028F7D8093560215FF06C086
:100BF0008091560280618093560205C08091560212
:100C00008F7E8093560214FF06C080915602886042
:100C10008093560205C080915602877F80935602CA
:100C2000809156020E9487050E94BD0580E49FE1E5
:100C30000197F1F713FF06C08091560280648093FC
:100C4000560205C0809156028F7B8093560212FF98
:100C500006C08091560280628093560205C0809142
:100C600056028F7D8093560211FF06C08091560276
:100C700080618093560205C0809156028F7E8093DA
:100C8000560210FF06C0809156028860809356027B
:100C900005C080915602877F80935602809156024C
:100CA0000E9487050E94BD0580E49FE10197F1F74E
:100CB0001F91089560E00E94CC05089581E00E9494
:100CC0005A06089561E00E94CC05089580618093E2
:100CD00056020E94BD0580EE9EE20197F1F708954D
:100CE000DF93CF930F92CDB7DEB78A3071F4809146
:100CF0004402803418F480E4898301C01982898118
:100D000080580E945A0689810FC0803C28F0E82F45
:100D1000F0E0E85DFF4F849161E00E94CC05809196
:100D200044028F5F809344020F90CF91DF9108952A
:100D3000CF93DF93FC018081882339F0EF010E947B
:100D40007006898121968823D1F7DF91CF9108958C
:100D50001F93182F662331F480580E945A0610936F
:100D6000440207C080540E945A06812F805C809301
:100D700044021F91089582E00E945A0682E0809307
:100D800044020895CF93DF93FC018491882349F0B6
:100D9000EF0121960E947006FE012196849188231E
:100DA000C9F7DF91CF9108958091560280688093B2
:100DB00056020E9487050895809156028F7780938E
:100DC00056020E948705089580E40E945A068EE02C
:100DD0000E94620681E10E94620681E10E94620631
:100DE00081E10E94620681E10E94620681E10E9427
:100DF00062068FE10E94620680E00E9462068EE039
:100E00000E94620681E10E94620681E10E94620600
:100E100081E10E94620681E10E9462068FE10E94E8
:100E200062068FE10E94620680E00E9462068EE008
:100E30000E94620681E10E94620681E10E946206D0
:100E400081E10E9462068FE10E9462068FE10E94AA
:100E500062068FE10E94620680E00E9462068EE0D8
:100E60000E94620681E10E94620681E10E946206A0
:100E70008FE10E9462068FE10E9462068FE10E946C
:100E800062068FE10E94620680E00E9462068EE0A8
:100E90000E94620681E10E9462068FE10E94620662
:100EA0008FE10E9462068FE10E9462068FE10E943C
:100EB00062068FE10E94620680E00E9462068EE078
:100EC0000E9462068FE10E9462068FE10E94620624
:100ED0008FE10E9462068FE10E9462068FE10E940C
:100EE00062068FE10E94620680E00E94620680E84E
:100EF0000E945A0608950E9470050E94B90510923A
:100F00005602109244022EEB30E040E951E0CA0153
:100F10000197F1F721503040D1F70E94700524EB82
:100F200030E040E951E0CA010197F1F7215030402B
:100F3000D1F788E00E9466060E94BD050E94BD05AB
:100F400080E00E94660688E20E945A0688E00E94BD
:100F50005A0681E00E945A0684E00E945A068CE0FC
:100F60000E945A0686E00E945A060E94E4060895EE
:100F700080E40E945A068EE00E9462068FE10E9481
:100F800062068FE10E9462068FE10E9462068FE195
:100F90000E9462068FE10E9462068FE10E94620653
:100FA00080E00E94620680E00E94620680E00E946B
:100FB00062068AE00E9462068FE10E9462068EE06D
:100FC0000E94620684E00E94620680E00E9462063F
:100FD00080E00E94620686E00E9462068FE00E9426
:100FE00062068FE00E9462068FE00E9462068FE038
:100FF0000E94620686E00E9462068FE00E946206FE
:1010000080E00E9462068EE00E9462068AE10E94F1
:1010100062068EE10E9462068AE10E9462068EE10B
:101020000E9462068AE10E9462068FE00E946206C8
:1010300080E00E94620686E00E94620689E00E94CB
:10104000620686E00E9462068FE00E9462068FE4DC
:101050000E9462068FE00E94620686E00E9462069D
:1010600086E00E94620680E10E9462068FE10E9493
:1010700062068FE10E9462068FE10E94620680E1B3
:101080000E94620680E10E94620680E10E94620680
:1010900080E10E94620680E80E945A0608951F932C
:1010A000182F80E40E945A06123009F444C013300D
:1010B00030F4112371F0113009F0A0C023C01430B6
:1010C00009F46BC0143008F44FC0153009F096C015
:1010D0007DC08EE00E94620681E10E94620681E18D
:1010E0000E94620681E10E94620681E10E9462061E
:1010F00081E10E9462068FE10E94620680E00E9408
:1011000062067CC08EE00E94620681E10E94620657
:1011100081E10E94620681E10E94620681E10E94F3
:1011200062068FE10E9462068FE10E94620680E003
:101130000E94620663C08EE00E94620681E10E9406
:10114000620681E10E94620681E10E9462068FE1EF
:101150000E9462068FE10E9462068FE10E94620691
:1011600080E00E9462064AC08EE00E94620681E131
:101170000E94620681E10E9462068FE10E9462067F
:101180008FE10E9462068FE10E9462068FE10E9459
:10119000620680E00E94620631C08EE00E94620614
:1011A00081E10E9462068FE10E9462068FE10E9447
:1011B00062068FE10E9462068FE10E9462068FE163
:1011C0000E94620680E00E94620618C08EE00E94C3
:1011D00062068FE10E9462068FE10E9462068FE143
:1011E0000E9462068FE10E9462068FE10E94620601
:1011F0008FE10E94620680E00E94620680E80E9401
:101200005A061F91089510928302E1E3F0E0808175
:10121000877F8083E2E3F0E08081877F8083E5E55C
:10122000F0E080818860808380818B7F8083EBE524
:10123000F0E0808180688083109257020895382FF3
:1012400020E0E1E3F0E0A8E1B1E060E570E040E437
:1012500051E030FF0AC08081886080838081877F71
:101260008083CA010197F1F70CC080818860808378
:10127000CD010197F1F78081877F8083CB010197B2
:10128000F1F72F5F283011F03695E3CF089530E065
:1012900020E0E1E3F0E064E170E0A0E3B0E040E2F0
:1012A00053E08081886080838081877F8083CB0149
:1012B0000197F1F78C91887080934E02269580916A
:1012C0004E0281112068CA010197F1F73F5F383063
:1012D00041F7822F0895282F90E038E1862F82274A
:1012E00080FF06C0822F83278695282F206801C0A3
:1012F00026959F5F983011F06695F0CF822F089564
:10130000CF93DF9380915702882309F06FC080E06C
:1013100098E00197F1F7E1E3F0E080818860808355
:1013200080E897E00197F1F78081877F80838CE1E7
:1013300090E00197F1F7839B59C080E491E0019719
:10134000F1F7839953C080EC93E00197F1F7839B09
:101350004DC080E897E00197F1F783E30E941F09F1
:101360000E94470980935802809158028823F1F126
:101370006091580280E00E946B09809355021092A0
:101380005A0280915A028630F8F4CFE4D2E00E94EB
:1013900047098093590280915A0290915902FE01A7
:1013A000E80FF11D908380915502609159020E94CF
:1013B0006B098093550280915A028F5F80935A0285
:1013C00080915A02863018F30E94470980935A028E
:1013D00090915A0280915502981721F082E08093F3
:1013E000570204C081E08093570205C0EAE5F0E0AF
:1013F000808180688083DF91CF910895E0E2F0E002
:101400008CE0808380818A3010F48AE080B9E1E248
:10141000F0E080818C7F80830895CF93DF93582FF5
:10142000E6E5F0E044EAA1E2B0E0C3E2D0E030EA71
:1014300024E8408380818823ECF78C91887F883072
:10144000B1F53883208380818823ECF78C91887FE5
:10145000883179F793B984E886BFE6E5F0E08081CA
:101460008823ECF781B1887F883209F553B984E885
:1014700086BFE6E5F0E080818823ECF781B1887FC4
:101480008832A9F463B984E886BFE6E5F0E080819C
:101490008823ECF781B1887F883249F484E986BFDC
:1014A000E6E5F0E0808184FDFDCF81E001C080E0D1
:1014B000DF91CF910895CF93DF93582FE6E5F0E0C9
:1014C00044EAA1E2B0E0C3E2D0E030EA24E840839D
:1014D00080818823ECF78C91887F883009F04DC09B
:1014E0003883208380818823ECF78C91887F883132
:1014F00071F793B984E886BFE6E5F0E08081882340
:10150000ECF781B1887F8832C1F553B984E886BF92
:10151000E6E5F0E080818823ECF781B1887F8832AE
:1015200061F584EA86BFE6E5F0E080818823ECF788
:1015300081B1887F803109F581EA83B984E886BF6B
:10154000E6E5F0E080818823ECF781B1887F803484
:10155000A1F484E886BFE6E5F0E080818823ECF71B
:1015600081B1887F883549F493B184E986BFE6E587
:10157000F0E0808184FDFDCF01C090E0892FDF91F4
:10158000CF9108950F931F93CF93DF938C01E6E5DE
:10159000F0E034EAA1E2B0E0C3E2D0E020EA94E86F
:1015A000308380818823ECF78C91887F883009F024
:1015B00048C02883908380818823ECF78C91887FB2
:1015C000883171F773B984E886BFE6E5F0E0808181
:1015D0008823ECF781B1887F883299F563B984E874
:1015E00086BFE6E5F0E080818823ECF781B1887F53
:1015F000883239F541155105D9F020E030E0C3E2D9
:10160000D0E0E6E5F0E094E861E270E0D8018D9189
:101610008D018883908380818823ECF7DB018C9196
:10162000887F883271F42F5F3F4F2417350770F39E
:1016300084E986BFE6E5F0E0808184FDFDCF81E0AE
:1016400001C080E0DF91CF911F910F9108950F931A
:101650001F93CF93DF938C01E6E5F0E034EAA1E23B
:10166000B0E0C3E2D0E020EA94E8308380818823B0
:10167000ECF78C91887F883009F071C028839083C3
:1016800080818823ECF78C91887F883171F773B95A
:1016900084E886BFE6E5F0E080818823ECF781B13D
:1016A000887F883209F05BC063B984E886BFE6E5CD
:1016B000F0E080818823ECF781B1887F883209F0DF
:1016C0004EC084EA86BFE6E5F0E080818823ECF72F
:1016D00081B1887F803109F042C081EA83B984E812
:1016E00086BFE6E5F0E080818823ECF781B1887F52
:1016F0008034A9F541505040D9F020E030E0E6E5D3
:10170000F0E094EC61E270E0C3E2D0E0908380818D
:101710008823ECF7DB018C91887F803501F5888187
:10172000D8018D938D012F5F3F4F2417350770F33C
:1017300084E886BFE6E5F0E080818823ECF781B19C
:10174000887F883561F483B1F801808384E986BF9E
:10175000E6E5F0E0808184FDFDCF81E001C080E01E
:10176000DF91CF911F910F910895CF93DF93582F61
:10177000E6E5F0E044EAA1E2B0E0C3E2D0E030EA1E
:1017800024E8408380818823ECF78C91887F88301F
:10179000E1F53883208380818823ECF78C91887F62
:1017A000883179F793B984E886BFE6E5F0E0808177
:1017B0008823ECF781B1887F883239F553B984E802
:1017C00086BFE6E5F0E080818823ECF781B1887F71
:1017D0008832D9F484EA86BFE6E5F0E08081882388
:1017E000ECF781B1887F803181F481EA83B984E8A4
:1017F00086BFE6E5F0E080818823ECF781B190E0D8
:10180000887F803419F491E001C090E0892FDF9146
:10181000CF910895DC0184EC86BFE6E5F0E080819D
:101820008823ECF781B1887F803511F080E008953E
:1018300083B18C9381E00895DC0184E886BFE6E5FE
:10184000F0E080818823ECF781B1887F883511F042
:1018500080E0089583B18C9384E986BFE6E5F0E0EB
:10186000808184FDFDCF81E00895CF93DF93E4E391
:10187000F0E08081806280834AE350E0DA018C915D
:1018800082608C93808180648083A5E3B0E08C913A
:101890008F7B8C938081806880838C918F778C93F1
:1018A0008081886080838081806180838081846082
:1018B000808321E330E0E901888180688883E7E361
:1018C000F0E0808188608083808180618083A8E3EC
:1018D000B0E08C9180618C93EA018881816088837B
:1018E0008081846080838C918B7F8C93E9018881D7
:1018F0008061888388818B7F888380818E7F8083CD
:101900008C9181608C9380818B7F80838C918460AB
:101910008C9380818D7F80838C9182608C93E2E3B5
:10192000F0E080818F7D8083FA0180818F778083D2
:10193000EBE3F0E080818F778083DF91CF91089592
:1019400080918A0290918B0268EE73E00E946A3661
:1019500080E49FE10E946A36615063BD89E085BDE5
:10196000E9E5F0E080818F778083089580918A0295
:1019700090918B0268EE73E00E946A3680E49FE1EA
:101980000E946A36615063BD0895E1E3F0E0808112
:101990008B7F8083E5E5F0E08081826080838081B9
:1019A0008E7F8083EBE5F0E0808180648083089502
:1019B000982F969596959695E92FF0E09F01220F26
:1019C000331F220F331F220F331F821B662389F020
:1019D000E655FD4F408127E030E0281B310981E0CA
:1019E00090E002C0880F991F2A95E2F7482B4083A8
:1019F0000895E655FD4F408127E030E0281B31096E
:101A000081E090E002C0880F991F2A95E2F7809547
:101A1000842380830895982F969596959695E92F1F
:101A2000F0E09F01220F331F220F331F220F331FBD
:101A3000821B662389F0EE52FD4F408127E030E0A3
:101A4000281B310981E090E002C0880F991F2A9578
:101A5000E2F7482B40830895EE52FD4F408127E086
:101A600030E0281B310981E090E002C0880F991F07
:101A70002A95E2F78095842380830895EAEBF2E0CB
:101A8000808380818F7780830895EBEBF2E09081F3
:101A90009F73908390818295880F880F807C892B1B
:101AA00080830895EBEBF2E09081937C90839081AA
:101AB000880F880F892B80830895482F282F26951B
:101AC0002695269530E0F901E655FD4F808190E09E
:101AD000220F331F220F331F220F331F421B27E019
:101AE00030E0241B310902C0959587952A95E2F7CD
:101AF00081700895482F282F26952695269530E049
:101B0000F901EE52FD4F808190E0220F331F220F2A
:101B1000331F220F331F421B27E030E0241B310903
:101B200002C0959587952A95E2F78170089580E81F
:101B30008CBFE3E5F0E088E480838081816080836E
:101B40008081806280830895AFE4B0E08C918E7FC5
:101B50008C938C918D7F8C93EEE4F0E08081886093
:101B6000808380818F7E80838C918F7B8C938C91FE
:101B70008F778C9380818F7E808380818F7D80831F
:101B800080818E7F808380818260808380818B7F53
:101B9000808389EF8ABDE9E5F0E080818061808300
:101BA0000895982FA9EEB2E0FD0111921082FD0177
:101BB0003296108213961C928695482F50E0141688
:101BC000150674F420E030E069EE72E08FEFFB015F
:101BD000E20FF31F80832F5F3F4F24173507BCF3BD
:101BE0009A01220F331F892F90E0821B930B181646
:101BF00019062CF4FA01E751FD4F8CEC808308950F
:101C000086B38695809581700895EF92FF920F9329
:101C10001F93CF93DF93FC01062FF72E142F8FE035
:101C2000E13AF80708F04EC0C091CA02D091CB0249
:101C30008FEF9FEF9093CB028093CA0280EA9FE0E0
:101C4000BF010E946A36E62E802F9F2D9C01213A0B
:101C5000310510F020EA30E0CF016AE070E00E9428
:101C60006A36269FA001279F500D369F500D1124E4
:101C70004115510519F1E0E0F0E0ACE5B0E06E2D62
:101C800070E09B011C93109273021092720280917B
:101C900072029091730286179707C8F31C921092F4
:101CA00073021092720280917202909173028217F5
:101CB0009307C8F33196E417F50720F3D093CB02CE
:101CC000C093CA02DF91CF911F910F91FF90EF90C7
:101CD00008950F931F9302E310E0F8018081806163
:101CE000808388EE93E063E070E040E80E94050E98
:101CF00084EF91E063E070E040E80E94050EF80197
:101D000080818F7E80831F910F9108958F929F9283
:101D1000AF92BF92CF92DF92EF92FF920F931F93F9
:101D2000DF93CF9300D0CDB7DEB7D62E898366235D
:101D300029F422E030E043E050E007C0462F50E0B5
:101D40009A01215030400AF476C00F2EF5E8EF2EAC
:101D5000FAE0FF2EF02D0EE312E089816AE00E9486
:101D60005E369A8389810E945E3689838A81F70173
:101D7000E80FF11DE491D801A20FB31FEC9321509D
:101D800030405AF7FA01E25CFD4F1082DD2009F085
:101D900041C00F2EFEE3CF2EF2E0DF2EF02D5601D4
:101DA0000894A11CB11C0FE312E0480108948108BB
:101DB0009108B4016E5F7F4FA4014D5F5F4F9401A6
:101DC0002C5F3F4FD40115960F2EF6E0EF2EFF2427
:101DD000F02DE80CF91CF6018081F501908180332B
:101DE000C9F49923B9F0F8018081F4018083FB01E3
:101DF0008081F8018083FA018081FB018083F901F1
:101E00008081FA0180838C91F9018083F7018081C0
:101E10008C93E1CF8EE392E00F900F90CF91DF9102
:101E20001F910F91FF90EF90DF90CF90BF90AF90F8
:101E30009F908F900895FA01E25CFD4F1082EACFE7
:101E40008F929F92AF92BF92CF92DF92EF92FF92CA
:101E50000F931F93DF93CF9300D000D0CDB7DEB7A1
:101E6000462F9A838983662341F404E010E00F2E05
:101E7000F5E0EF2EFF24F02D07C0E62EFF248701AA
:101E8000015010400AF488C00F2EF5E8AF2EFAE09A
:101E9000BF2EF02D0F2EF8E3CF2EF2E0DF2EF02D27
:101EA00089819A816AE070E00E946A36282F392F72
:101EB0003C832B8389819A816AE070E00E946A36B4
:101EC000862F972F9A8389838B819C81F501E80F58
:101ED000F91FE491D601A00FB11FEC9301501040FF
:101EE000FAF6F701E85CFD4F1082442309F041C087
:101EF0000F2EF8E3CF2EF2E0DF2EF02D56010894DE
:101F0000A11CB11C09E312E0480108948108910862
:101F1000B4016E5F7F4FA4014D5F5F4F94012C5F52
:101F20003F4FD40115960F2EF6E0EF2EFF24F02D33
:101F3000E80CF91CF6018081F50190818033C9F429
:101F40009923B9F0F8018081F4018083FB0180813D
:101F5000F8018083FA018081FB018083F90180818F
:101F6000FA0180838C91F9018083F70180818C9341
:101F7000E1CF88E392E00F900F900F900F90CF91F8
:101F8000DF911F910F91FF90EF90DF90CF90BF9066
:101F9000AF909F908F900895F701E85CFD4F1082FD
:101FA000E8CF0E945E0681E00E9470068091C80220
:101FB00060E00E94860E0E94980687E060E00E9422
:101FC000A80680E00E94700680E061E00E94A806FA
:101FD00082E00E947006809198029091990263E0DD
:101FE0000E94860E0E9498068FE20E94700685E08D
:101FF00061E00E94A80683E00E947006809174024E
:1020000062E00E94860E0E94980680E690E00E94A0
:102010009806089581E060E00E94A8068091C802B9
:1020200063E00E94860E0E949806089581E061E0B8
:102030000E94A806809198029091990263E00E9404
:10204000860E0E949806089586E061E00E94A80628
:102050008091740262E00E94860E0E94980680E6DB
:1020600090E00E949806089580EC87B987E886B9C9
:102070000895E7E2F0E090818770892B8083E6E2A3
:10208000F0E0808180648083808184FFFDCFE6E280
:10209000F0E080818061808324B135B1822F932F5D
:1020A0000895FF920F931F93DF93CF9300D00F9269
:1020B000CDB7DEB7162F6983072F7A838B83F82E6F
:1020C0000E945E060E94BB0682E690E00E9498068F
:1020D0008F2D60E00E94860E0E94980680E061E0ED
:1020E0000E94A80684E00E947006812F60E00E9492
:1020F000860E0E94980685E061E00E94A80685E0B1
:102100000E947006802F60E00E94860E0E94980652
:102110000F900F900F90CF91DF911F910F91FF9033
:102120000895843321F1853360F48133C1F0823323
:1021300018F4803341F515C08233A9F0833319F5C3
:1021400014C08733D1F0883328F4853391F0863377
:10215000D1F411C0883399F08933A9F412C081E019
:10216000089580E0089582E0089583E0089584E072
:10217000089585E0089586E0089587E0089588E051
:10218000089589E0089585E508950895CF93DF9334
:10219000582FE6E5F0E044EAA1E2B0E0C3E2D0E087
:1021A00030EA24E8408380818823ECF78C91887F93
:1021B000883009F083C03883208380818823ECF73E
:1021C0008C91887F883171F793B984E886BFE6E502
:1021D000F0E080818823ECF781B1887F883209F0B4
:1021E0006DC053B984E886BFE6E5F0E080818823BE
:1021F000ECF781B1887F883209F060C084EA86BF3D
:10220000E6E5F0E080818823ECF781B1887F8031BA
:1022100009F054C081EA83B984E886BFE6E5F0E0BE
:1022200080818823ECF781B1887F803409F046C033
:102230006150704001F120E030E0E6E5F0E094EC20
:10224000A1E2B0E0C3E2D0E041E090838081882346
:10225000ECF78C91887F803589F58091CE028823B8
:10226000E1F788818093C5024093CE022F5F3F4FF4
:102270002617370750F384E886BFE6E5F0E0808153
:102280008823ECF781B1887F8835C1F48091CE0234
:102290008823E1F783B18093C50281E08093CE0269
:1022A00084E986BFE6E5F0E0808184FDFDCF1CBEB9
:1022B0001092C5021092CE0281E001C080E0DF9151
:1022C000CF910895EDE7F2E0119280E88083E2E992
:1022D000F2E08191919190936702809366028081F0
:1022E00091819093DD028093DC020895DF93CF9378
:1022F00000D00F92CDB7DEB7AAEAB2E0FD0161913E
:10230000708112968C9190E00F900F900F90CF916A
:10231000DF910895DF93CF9300D00F92CDB7DEB752
:10232000A2EDB2E0FD016191708112968C9190E076
:102330000F900F900F90CF91DF9108950F931F93FF
:102340008DE390E00E94FC369C0140E050E060E6A6
:102350007AEE80E090E00E949136220F331F441FF6
:10236000551F220F331F441F551F220F331F441FB9
:10237000551F309389022093880285E190E00E94E6
:10238000FC3620918802309189022817390728F5F8
:1023900085E190E00E94FC368C018DE390E00E9484
:1023A000FC369C0140E050E060E67AEE80E090E090
:1023B0000E949136CA01B90128EF3FEF4FEF5FEF5E
:1023C0000E943F36060F171F1093DB020093DA02BC
:1023D000109289021092880204C01092DB021092BF
:1023E000DA021F910F91089580E590E09093E70243
:1023F0008093E6020E949E110E9462118EE090E09E
:102400009093800280937F0281E080936202E9E5ED
:10241000F0E0808180688083E5E3F0E08081806285
:1024200080830895CF92DF92EF92FF920F931F93D4
:10243000282F80917A0290917B02029750F081E0E0
:1024400090E090937B0280937A028091E50288234A
:10245000E1F7243009F466C0253048F42230D9F180
:10246000233008F086C0213009F052C10DC026305B
:1024700009F41BC1263008F4A3C0273009F4C7C0F3
:10248000283009F045C1EAC00F2EF5E7EF2EF2E043
:10249000FF2EF02DDD24D394F701D1928F0183E13B
:1024A00090E00E94FC36F8019183808385E190E002
:1024B0000E94FC36F701339691838083808191815D
:1024C000F70135969183808387E090E0E80EF91E4E
:1024D000F701D08227C10F2EF5E7EF2EF2E0FF2E95
:1024E000F02D82E0F70181938F0187E190E00E9457
:1024F000FC36F8019183808389E190E00E94FC36EC
:10250000F70133969183808380819181F70135961D
:102510009183808387E090E0E80EF91E81E0F70167
:10252000808300C10F2EF5E7EF2EF2E0FF2EF02D95
:1025300084E0F70181938F018BE190E00E94FC36EB
:10254000F801918380838DE190E00E94FC36F701D1
:1025500033969183808380819181F70135969183B1
:10256000808387E090E0E80EF91E81E0F701808328
:10257000D9C00F2EF5E7EF2EF2E0FF2EF02D83E00D
:10258000F70181938F018FE190E00E94FC36F80102
:102590009183808381E290E00E94FC36F7013396BC
:1025A0009183808380819181F70135969183808327
:1025B00087E090E0E80EF91E81E0F7018083B2C069
:1025C0000F2EF5E7EF2EF2E0FF2EF02D85E0F7015C
:1025D00081938F0183E290E00E94FC36F8019183A1
:1025E000808385E290E00E94FC36F7013396918368
:1025F000808380819181F70135969183808387E084
:1026000090E0E80EF91E81E0F70180838BC00F2E69
:10261000F5E7EF2EF2E0FF2EF02D87E0F701819332
:102620008F0187E290E00E94FC36F801918380835D
:1026300089E290E00E94FC36F70133969183808313
:1026400080819181F70135969183808387E090E0C6
:10265000E80EF91E81E0F701808364C00F2EF5E7D4
:10266000EF2EF2E0FF2EF02D88E0F70181938F012D
:102670008BE290E00E94FC36F801918380838DE22A
:1026800090E00E94FC36F70133969183808380812D
:102690009181F70135969183808387E090E0E80E81
:1026A000F91E81E0F70180833DC00F2EF1E3CF2EAC
:1026B000F0E0DF2EF02DC6010E94FC3690937002F0
:1026C00080936F020F2EF5E7EF2EF2E0FF2EF02D34
:1026D00086E0F70181938F018FE290E00E94FC3643
:1026E000F80191838083C6010E94FC36F70133967E
:1026F0009183808380819181F701359691838083D6
:1027000087E090E0E80EF91E81E0F70180830AC0BF
:10271000E5E7F2E01082DF01159611961C921E92F9
:10272000379610821F910F91FF90EF90DF90CF901E
:1027300008950F931F9387E390E00E94FC368C016D
:1027400089E390E00E94FC36BC01C8010E94C610DB
:102750001F910F9108950F931F9383E390E00E94C0
:10276000FC368C0185E390E00E94FC36BC01C80178
:102770000E94C6101F910F9108950F931F938FE22F
:1027800090E00E94FC368C0181E390E00E94FC36D0
:10279000BC01C8010E94C6101F910F9108950F93AC
:1027A0001F938BE290E00E94FC368C018DE290E05A
:1027B0000E94FC36BC01C8010E94C6101F910F91F7
:1027C000089580916F0290917002029750F081E01D
:1027D00090E09093700280936F028091E5028823CD
:1027E000E1F70E94CF1308950F931F9387E290E0C3
:1027F0000E94FC368C0189E290E00E94FC36BC010C
:10280000C8010E94C6101F910F91089580916F0218
:1028100090917002029750F081E090E090937002E6
:1028200080936F028091E5028823E1F70E94F41300
:1028300008950F931F9383E290E00E94FC368C0171
:1028400085E290E00E94FC36BC01C8010E94C610DF
:102850001F910F9108950F931F938FE190E00E94B5
:10286000FC368C0181E290E00E94FC36BC01C8017C
:102870000E94C6101F910F9108950E942B14089575
:102880000F931F938BE190E00E94FC368C018DE149
:1028900090E00E94FC36BC01C8010E94C6101F9146
:1028A0000F9108950E94401408950F931F9387E19C
:1028B00090E00E94FC368C0189E190E00E94FC3699
:1028C000BC01C8010E94C6101F910F91089580910C
:1028D0006F0290917002029750F081E090E0909327
:1028E000700280936F028091E5028823E1F70E94D5
:1028F000551408950F931F9383E190E00E94FC36D6
:102900008C0185E190E00E94FC36BC01C8010E9468
:10291000C6101F910F910895EF92FF920F931F938E
:10292000DF93CF9300D0CDB7DEB787E00E94391098
:102930009A83898386E090E00E94FC367C0188E0DF
:1029400090E00E94FC362091E802222321F0213001
:1029500009F08AC04BC0880F991F880F991F6BE43C
:1029600070E00E946A36862F972F8C0185E060E028
:102970000E94A80688E690E00E94980680E00E94E7
:10298000700687E060E00E94A80689819A8180171E
:10299000910720F480E00E944F0866C0C701880FAD
:1029A000991F880F991F6BE470E00E946A36862F8A
:1029B000972FBC0189819A816817790720F485E0F7
:1029C0000E944F0851C029813A81201B310BC90157
:1029D000880F991F820F931F601B710B880F991F1F
:1029E0000E946A36862F0E944F083EC085E060E054
:1029F0000E94A80629813A81C901880F991F820F78
:102A0000931F9C01220F331F220F331F820F931F2E
:102A10009695879596958795969587959A838983B8
:102A200089819A8164E670E00E946A36862F60E0B0
:102A30000E94860E0E9498068BE690E00E949806FF
:102A400089819A8164E670E00E946A366AE070E0EB
:102A50000E946A36862F60E00E94860E0E949806C9
:102A600080E690E00E9498060F900F90CF91DF9142
:102A70001F910F91FF90EF900895682F80E090E0F4
:102A80000E940237089582E190E00E94F436882384
:102A900019F08130C9F40CC0EAE8F2E080EA9CE861
:102AA0009183808332968CE090E09183808317C07D
:102AB000EAE8F2E080EC9AED91838083329683E13C
:102AC00090E0918380830BC0EAE8F2E080EA9CE822
:102AD0009183808332968CE090E0918380832AE812
:102AE00032E0F9018081918168EE73E00E946A36DC
:102AF000CB01880F991F860F971F880F991F65E0DC
:102B000070E00E946A36862F972F349691838083D7
:102B1000F9018081918168EE73E00E946A36CB01F1
:102B2000880F991F860F971F880F991F880F991F6D
:102B300065E070E00E946A36862F972F3696918363
:102B40008083F9018081918168EE73E00E946A368A
:102B5000CB01880F991F860F971F880F991F880F29
:102B6000991F880F991F65E070E00E946A36862FD2
:102B7000972F389691838083F9018081918168EE47
:102B800073E00E946A36CB01880F991F860F971F4A
:102B9000880F991F65E070E00E946A36862F972F94
:102BA000265F3F4FF901918380830895EF92FF9252
:102BB0001F93CF93DF93109263021092CD02109275
:102BC000C9028CE390E00E94F436182F0E945E0642
:102BD00088E00E945A068CE00E945A068DE690E03A
:102BE0000E94980680E061E00E94A806112329F067
:102BF00086E790E00E94980604C08AE790E00E9471
:102C000098068EE790E00E949806C6E7D0E00F2E67
:102C1000FAE7EF2EF0E0FF2EF02D21C08091CD02DB
:102C2000813021F08091C9028130C1F78091C902C1
:102C30008130A9F41092C902112349F080E061E0CB
:102C40000E94A806C7010E94980610E008C080E014
:102C500061E00E94A806CE010E94980611E08091D2
:102C6000CD028130D9F61092CD028CE390E00E9423
:102C7000F436181759F00E945E0684E890E00E942E
:102C800098068CE390E0612F0E940237DF91CF918C
:102C90001F91FF90EF900895DF92EF92FF920F93B4
:102CA0001F93CF93DF93109263021092CD02109284
:102CB000C9028AE090E00E94F436182F0E945E0656
:102CC00088E00E945A068CE00E945A068DE890E047
:102CD0000E94980680E061E00E94A806103429F462
:102CE00086E990E00E94980606C0103821F48BE92E
:102CF00090E00E94980680EA90E00E949806CBE956
:102D0000D0E000E80F2EF6E9EF2EF0E0FF2EF02DD8
:102D1000DD246894D6F821C08091CD02813021F065
:102D20008091C9028130C1F78091C9028130A9F434
:102D30001092C902103849F480E061E00E94A806B0
:102D4000C7010E9498061D2D08C080E061E00E9426
:102D5000A806CE010E949806102F8091CD028130E6
:102D6000D9F61092CD028AE090E00E94F43618174E
:102D700059F00E945E0684E890E00E9498068AE07E
:102D800090E0612F0E940237DF91CF911F910F9148
:102D9000FF90EF90DF900895AF92BF92CF92DF92B5
:102DA000EF92FF920F93CF93DF937C01EB016A01C7
:102DB000A22E109263021092CD021092C902CB0192
:102DC0000E94F436082FF601E80FF11DB4900E941E
:102DD0005E0688E00E945A068CE00E945A06C701EF
:102DE0000E94980680E061E00E94A8068B2D63E0B7
:102DF0000E94860E0E9498068EE790E00E94980638
:102E000021C08091C902813021F08091CD028130B2
:102E1000C1F78091C9028130A9F40A1510F000E0D1
:102E200001C00F5F1092C90280E061E00E94A80615
:102E3000F601E00FF11DE4918E2F63E00E94860EF3
:102E40000E9498068091CD028130D9F61092CD0271
:102E5000CE010E94F436081751F00E945E0684E805
:102E600090E00E949806CE01602F0E940237DF9109
:102E7000CF910F91FF90EF90DF90CF90BF90AF90E8
:102E800008955F926F927F928F929F92AF92BF92BE
:102E9000CF92DF92EF92FF920F931F93DF93CF9326
:102EA0000F92CDB7DEB78C015B01E42E1982109230
:102EB000CD021092C902CB010E94F436FE2C8E1571
:102EC00008F4F82E0E945E0688E00E945A068DE003
:102ED0000E945A06C8010E94980680E061E00E94A4
:102EE000A8068F2D63E00E94860E0E94980685EA50
:102EF00090E00E94980684E061E00E94A806898123
:102F0000882309F019C18F2D64E60E945E36C82E11
:102F1000482F50E09A01220F331FCA01880F991FD2
:102F2000880F991F880F991F280F391F8F2D6AE06E
:102F30000E945E36082F021B8CE99FEF9C01429F86
:102F4000C001439F900D529F900D11244F2D480FAB
:102F5000802F90E09C01220F331F880F991F880F4C
:102F6000991F880F991F280F391FD42ED21A8E2D22
:102F700064E60E945E36682E772414E00F2EF4E695
:102F80005F2EF02D8E2C99240F2EFAE0EF2EF02DCF
:102F90008091CD02882321F48091C9028130C1F74C
:102FA0001130D1F1113038F0123009F479C01430F9
:102FB00009F0BAC0ABC08091CD02813031F484E019
:102FC00061E00E94A80614E0AFC08091C902813080
:102FD00009F0AAC08C2D90E001966816790614F4C9
:102FE000CC2401C0C3940E9DC00111242D2D280FA7
:102FF000C59CC0011124F22EF80E80E061E00E9411
:10300000A8068F2D63E00E94860E0E94980680E03D
:1030100061E00E94A80688C08091CD02813031F421
:1030200080E061E00E94A80610E07EC08091C902A5
:10303000813009F079C0C59CB0011124CB018D0D00
:10304000911D202F30E02F5F3F4FA901440F551FE6
:10305000220F331F220F331F220F331F420F531F24
:10306000840F951F8816990624F0093010F40F5F1D
:1030700001C000E02D2D260F0E9DC0011124F22E5F
:10308000F80E80E061E00E94A8068F2D63E00E94A8
:10309000860E0E94980681E061E00E94A80644C066
:1030A0008091CD02813029F461E00E94A80611E0F0
:1030B0003BC08091C9028130B9F5C59CA0011124A3
:1030C0000E9D900111248D2D90E00196840F951F87
:1030D000820F931F881699062CF088E08D1510F04A
:1030E000D39401C0DD24822F840FF82EFD0C80E0E4
:1030F00061E00E94A8068F2D63E00E94860E0E9468
:10310000980682E061E00E94A8060EC08091CD0280
:10311000813029F482E061E00E94A80612E08091EB
:10312000C902813009F489831092CD021092C9023C
:103130008981882309F42CCFC5010E94F4368F15AC
:1031400051F00E945E0684E890E00E949806C50156
:103150006F2D0E9402370F90CF91DF911F910F9139
:10316000FF90EF90DF90CF90BF90AF909F908F90A7
:103170007F906F905F90089582E090E00E94F43617
:10318000089580E090E00E94F4360895EF92FF9257
:103190000F931F93CF93DF938BE090E00E94F43660
:1031A000909158028917E1F4C0E0D0E00F2EFBE0C7
:1031B000EF2EF0E0FF2EF02D0FE412E0CE0101968D
:1031C0008E0D9F1D0E94F436F801EC0FFD1F9081BB
:1031D000891731F42196C630D10581F781E001C00D
:1031E00080E0DF91CF911F910F91FF90EF900895B4
:1031F0000F931F93CF93DF938BE090E06FEF0E94CC
:10320000023780E090E0CBE0D0E08C010F5F1F4FF1
:10321000CE01800F911F6FEF0E940237C801063068
:10322000110599F70E945E060E94BB068BEA90E0AA
:103230000E94980680E061E00E94A80683EB90E07F
:103240000E9498068BEB90E00E94913510927302D9
:10325000109272028091720290917302805797418E
:10326000C8F3DF91CF911F910F91089582E190E013
:103270000E94F43660E00E94860E0E9491358BEB2E
:1032800090E00E949135089582E090E00E94F4362B
:1032900060E00E94860E0E9491358BEB90E00E94C8
:1032A0009135089581E090E00E94F43660E00E943C
:1032B000860E0E9491358BEB90E00E949135089527
:1032C0000E947A1482EC90E00E94913508950E9449
:1032D000FC3660E00E94200F0E9491358BEB90E05D
:1032E0000E949135089589E390E00E94671908953E
:1032F00087E390E00E946719089585E390E00E94BB
:103300006719089583E390E00E946719089581E3A7
:1033100090E00E94671908958FE290E00E9467197B
:1033200008958DE290E00E94671908958BE290E085
:103330000E946719089589E290E00E946719089534
:1033400087E290E00E946719089585E290E00E946C
:103350006719089583E290E00E946719089581E259
:1033600090E00E94671908958FE190E00E9467192C
:1033700008958DE190E00E94671908958BE190E037
:103380000E946719089589E190E00E9467190895E5
:1033900087E190E00E946719089585E190E00E941E
:1033A0006719089583E190E00E946719089584E009
:1033B00090E00E94F43660E00E94860E0E949135F3
:1033C0008BEB90E00E949135089583E090E00E949D
:1033D000F43660E00E94860E0E9491358BEB90E0FF
:1033E0000E94913508951F93DF93CF930F92CDB72D
:1033F000DEB711E063C00E94ED358983898185368F
:10340000E1F1863630F4803389F0813309F056C01B
:1034100021C0883621F0843709F050C032C01093A3
:1034200096021092D0021092CF0248C0809196026C
:10343000882309F443C08091CF029091D0029C016F
:103440002F5F3F4F3093D0022093CF0260E00E9465
:103450000B0D34C080919602882381F18091CF02B8
:103460009091D0029C012F5F3F4F3093D002209368
:10347000CF02612F0E940B0D21C01092960283E0B3
:1034800022C0809196028823B9F08091CF0290915A
:10349000D002892B89F08091CF029091D0028E309A
:1034A000910521F0489721F482E003C081E001C03A
:1034B00083E01092960207C01092960280914D020E
:1034C000882309F098CF0F90CF91DF911F91089535
:1034D000DF93CF9300D00F92CDB7DEB70E94F319E0
:1034E00082508230A8F480E00E947A0D882381F017
:1034F0000E948A1169837A838B83A5E8B2E0FE017A
:10350000319683E001900D928150E1F71092840290
:103510000F900F900F90CF91DF9108958FE390E07F
:103520000E94F43660E00E94860E0E9491358EE77C
:1035300096E00E94A13508958DE390E00E94FC364C
:1035400060E00E94200F0E9491358EE796E00E9475
:10355000A13508958BE390E00E94F43660E00E946C
:10356000860E0E9491358EE796E00E94A13508955F
:1035700085E090E00E94F43660E00E94860E0E9492
:1035800091358EE796E00E94A135089588E090E09D
:103590000E94FC3660E00E94200F0E9491358EE769
:1035A00096E00E94A135089586E090E00E94FC36E6
:1035B00060E00E94200F0E9491358EE796E00E9405
:1035C000A135089580E090E00E94F43660E00E940A
:1035D000860E0E9491358EE796E00E94A1350895EF
:1035E0008CE390E00E94F43660E00E94860E0E9418
:1035F00091358EE796E00E94A13508958AE090E02B
:103600000E94F436803439F0803849F487EC90E039
:103610000E94913504C089EC90E00E9491358EE7BC
:1036200096E00E94A1350895CF92DF92EF92FF922B
:103630000F931F93DF93CF9300D0CDB7DEB71A82DD
:1036400020E00F2EF3EFEF2EF3E0FF2EF02D0F2EE4
:10365000FAE0CF2EF02DDD24D39423C080914C02CC
:10366000F701E80FF11D908199838F5F80934C02E1
:1036700089818032B1F08981803370F089818A3309
:1036800058F40A8189810E9491100C9D80011124B7
:10369000800F8A832D2D05C084E696E00E94A13517
:1036A0002DC080914C02F701E80FF11D80818D3013
:1036B000A9F6222329F482E296E00E94A1351EC0D9
:1036C0008A81823038F48A818A81882341F081306E
:1036D00089F40BC085E496E00E94A1350FC08AE012
:1036E00090E060E80E94023705C08AE090E060E464
:1036F0000E94023782EC90E00E9491350F900F906B
:10370000CF91DF911F910F91FF90EF90DF90CF90BD
:103710000895CF92DF92EF92FF920F931F93DF9362
:10372000CF9300D0CDB7DEB71A8220E00F2EF3EF93
:10373000EF2EF3E0FF2EF02D0F2EFAE0CF2EF02D1E
:10374000DD24D39423C080914C02F701E80FF11DD2
:10375000908199838F5F80934C0289818032B1F090
:103760008981803370F089818A3358F40A81898194
:103770000E9491100C9D80011124800F8A832D2DB1
:1037800005C08BEC90E00E9491355AC080914C02AC
:10379000F701E80FF11D80818D30A9F6222329F46D
:1037A00082E296E00E94A1354BC08A818B3018F4EA
:1037B0008A81882329F485E496E00E94A13540C0DF
:1037C0008A81853041F1863060F48230D9F08330CF
:1037D00018F4813089F513C08330B9F0843061F575
:1037E00017C0883009F1893028F48630B9F0873065
:1037F00019F517C08930D9F08A30F1F41BC00E9446
:103800007A141AC00E94551417C00E94401414C0A4
:103810000E942B1411C00E9419140EC00E94F413B0
:103820000BC00E94CF1308C00E94BD1305C00E94A8
:10383000AB1302C00E94991382EC90E00E94913574
:103840000F900F90CF91DF911F910F91FF90EF900C
:10385000DF90CF900895DF92EF92FF920F931F9326
:10386000DF93CF9300D00F92CDB7DEB71B821A82C1
:1038700020E00F2EF3EFEF2EF3E0FF2EF02DDD24EE
:10388000D3942EC080914C02F701E80FF11D908176
:1038900099838F5F80934C028981803209F18981FD
:1038A0008033C8F089818A33B0F40A811B81898111
:1038B0000E9491109801220F331F000F111F000F5B
:1038C000111F000F111F200F311F280F311D3B83C7
:1038D0002A832D2D05C08BEC90E00E9491354FC0BE
:1038E00080914C02F701E80FF11D80818D3051F677
:1038F000222329F482E296E00E94A13540C08A8109
:103900009B818150924028F085E496E00E94A13589
:1039100036C00E94DE3582EC90E00E949135109214
:10392000E2021092E1028091E1029091E2028A5853
:10393000924020F480914D028823ACF780914D0293
:103940008823CCF46A817B817695762F66277795DC
:10395000679583EF93E040E850E00E94C20A882315
:1039600029F082EC90E00E94913509C083ED90E04F
:103970000E94913504C08EEE90E00E9491350F9028
:103980000F900F90CF91DF911F910F91FF90EF90CB
:10399000DF900895CF92DF92EF92FF920F931F93E3
:1039A000DF93CF9300D0CDB7DEB71A8220E00F2E81
:1039B000F3EFEF2EF3E0FF2EF02D0F2EFAE0CF2ED7
:1039C000F02DDD24D39423C080914C02F701E80F41
:1039D000F11D908199838F5F80934C0289818032A1
:1039E000B1F08981803370F089818A3358F40A817B
:1039F00089810E9491100C9D80011124800F8A837F
:103A00002D2D05C08BEC90E00E94913518C080915F
:103A10004C02F701E80FF11D80818D30A9F62223B9
:103A200029F482E296E00E94A13509C06A8184E00F
:103A300090E00E94023782EC90E00E9491350F9056
:103A40000F90CF91DF911F910F91FF90EF90DF903A
:103A5000CF9008958F929F92AF92BF92CF92DF92B4
:103A6000EF92FF920F931F93DF93CF9300D0CDB7C8
:103A7000DEB75C01862E942E1A8220E00F2EF3EF23
:103A8000EF2EF3E0FF2EF02D0F2EFAE0CF2EF02DCB
:103A9000DD24D39423C080914C02F701E80FF11D7F
:103AA000908199838F5F80934C0289818032B1F03D
:103AB0008981803370F089818A3358F40A81898141
:103AC0000E9491100C9D80011124800F8A832D2D5E
:103AD00005C084E696E00E94A13522C080914C0288
:103AE000F701E80FF11D80818D30A9F6222329F41A
:103AF00082E296E00E94A13513C08A81981618F0E0
:103B00008A81881528F485E496E00E94A13508C0D2
:103B10006A81C5010E94023782EC90E00E949135D3
:103B20000F900F90CF91DF911F910F91FF90EF9029
:103B3000DF90CF90BF90AF909F908F9008958FE3CC
:103B400090E060E04EE10E942A1D08958BE390E032
:103B500060E044E60E942A1D089585E090E060E060
:103B600048E00E942A1D089582E190E060E041E073
:103B70000E942A1D0E9443150E94B60C089580E001
:103B800090E060E043E00E942A1D08958CE390E0FD
:103B900060E041E00E942A1D089582E090E060E02C
:103BA0004FE00E942A1D089581E090E060E04FE719
:103BB0000E942A1D089583E090E060E04AE50E949B
:103BC0002A1D0895BF92CF92DF92EF92FF920F933A
:103BD0001F93DF93CF9300D00F92CDB7DEB76C0168
:103BE0001B821A8220E00F2EF3EFEF2EF3E0FF2E60
:103BF000F02DBB24B3942EC080914C02F701E80F46
:103C0000F11D908199838F5F80934C02898180326E
:103C100009F189818033C8F089818A33B0F40A813F
:103C20001B8189810E9491109801220F331F000F80
:103C3000111F000F111F000F111F200F311F280F20
:103C4000311D3B832A832B2D05C08BEC90E00E9415
:103C5000913518C080914C02F701E80FF11D808169
:103C60008D3051F6222329F482E296E00E94A1359C
:103C700009C06A817B81C6010E940F3782EC90E007
:103C80000E9491350F900F900F90CF91DF911F916F
:103C90000F91FF90EF90DF90CF90BF90089589E350
:103CA00090E00E94E21D089587E390E00E94E21DEB
:103CB000089585E390E00E94E21D089583E390E07B
:103CC0000E94E21D089581E390E00E94E21D0895A4
:103CD0008FE290E00E94E21D08958DE290E00E9444
:103CE000E21D08958BE290E00E94E21D089589E2B2
:103CF00090E00E94E21D089587E290E00E94E21D9C
:103D0000089585E290E00E94E21D089583E290E02C
:103D10000E94E21D089581E290E00E94E21D089554
:103D20008FE190E00E94E21D08958DE190E00E94F5
:103D3000E21D08958BE190E00E94E21D089589E163
:103D400090E00E94E21D089587E190E00E94E21D4C
:103D5000089585E190E00E94E21D089583E190E0DE
:103D60000E94E21D08956F927F929F92AF92BF9240
:103D7000CF92DF92EF92FF920F931F93DF93CF9337
:103D800000D00F92CDB7DEB73C015B016A011B8208
:103D90001A8220E00F2EF3EFEF2EF3E0FF2EF02D2E
:103DA000992493942EC080914C02F701E80FF11DE5
:103DB000908199838F5F80934C028981803209F1D1
:103DC00089818033C8F089818A33B0F40A811B81EC
:103DD00089810E9491109801220F331F000F111F3B
:103DE000000F111F000F111F200F311F280F311D51
:103DF0003B832A83292D05C084E696E00E94A135E5
:103E000027C080914C02F701E80FF11D80818D30B1
:103E100051F6222329F482E296E00E94A13518C0CF
:103E20008A819B81C816D90628F08A819B818A15D0
:103E30009B0528F485E496E00E94A13509C06A81BB
:103E40007B81C3010E940F3782EC90E00E94913584
:103E50000F900F900F90CF91DF911F910F91FF90D6
:103E6000EF90DF90CF90BF90AF909F907F906F903A
:103E700008958DE390E06EE170E040E253E00E942F
:103E8000B31E089588E090E06CE87AE048EC5FEAC1
:103E90000E94B31E089586E090E068EB7BE048EC5A
:103EA0005FEA0E94B31E089581E090E00E94F4361C
:103EB00088232CF481E090E060E00E94023780E0EB
:103EC00090E00E94F436843028F080E090E060E0DA
:103ED0000E94023782E090E00E94F436803128F0A0
:103EE00082E090E065E00E94023783E090E00E946B
:103EF000F4368B3528F083E090E06EE10E940237C3
:103F000084E090E00E94F4368B3528F084E090E065
:103F10006FE00E94023785E090E00E94F43689301D
:103F200028F085E090E061E00E94023786E090E0B2
:103F30000E94FC368F5F9F4F31F486E090E060E98D
:103F40007AE10E940F3788E090E00E94FC368F5F94
:103F50009F4F31F488E090E06CE775E10E940F37E5
:103F600082E190E00E94F436882359F082E190E0EB
:103F70000E94F436813029F082E190E060E00E94F6
:103F800002378AE090E00E94F436803459F08AE0EB
:103F900090E00E94F436803829F08AE090E060E4F6
:103FA0000E9402378CE390E00E94F436823028F0C1
:103FB0008CE390E061E00E9402378BE390E00E9486
:103FC000F436853628F08BE390E064E60E940237F1
:103FD0008DE390E00E94FC368152934030F08DE3F7
:103FE00090E060E273E00E940F378DE390E00E9462
:103FF000FC364E9730F48DE390E06EE170E00E9465
:104000000F378FE390E00E94F4368F3128F08FE372
:1040100090E06EE10E94023708950E94541F8FEFD6
:104020009FEF9093CB028093CA029093600280939B
:104030005F021092620281E090E00E94F4360E94DA
:104040003E0D0E94C1180E94450D0E94BC180E949E
:10405000520D84E090E00E94F43680937402109236
:104060009902109298021092EF021092710210922F
:10407000F1021092F0021092D0021092CF02109230
:1040800084021092EE0288E08093D1028BE390E0EC
:104090000E94F4368093C802A2EBB2E0FD011182C7
:1040A00010823296808181608083FD013396118277
:1040B000108215968C9181608C93109269021092F7
:1040C0006802109261021092C3021092E8028AE024
:1040D00090E00E94F43680936A021092C20210921D
:1040E00096021092700210926F0210927B02109250
:1040F0007A021092E502109297021092E702109253
:10410000E6021092CC021092C7021092C60281E021
:104110008093C40210926B028DE390E00E94FC3603
:104120009C0140E050E060E67AEE80E090E00E9482
:104130009136220F331F441F551F220F331F441F78
:10414000551F220F331F441F551F309389022093A0
:10415000880208956F927F928F929F92AF92BF9242
:10416000CF92DF92EF92FF920F931F93DF93CF9343
:10417000CDB7DEB727970FB6F894DEBF0FBECDBF21
:104180006A837B838C83172F062FF82E80916B0216
:10419000882309F0DBC10E94C118811771F48CE3F8
:1041A00090E00E94F436882309F4D0C181E090E0C9
:1041B0000E94F436801709F4C9C110928902109246
:1041C0008802E2E3F0E080818061808386EF90E006
:1041D0000E9491358091C802F816C8F58FE390E0EF
:1041E0000E94F43690E0880F991F880F991F880F5E
:1041F000991F80936B028091C8028F198093C80227
:104200009091C8028AE0989FC00111246DE770E088
:104210000E947E366093D1028091D102882339F4C6
:104220008091C802882319F081E08093D1028091A7
:104230007502823031F480917A0290917B0202976C
:1042400018F482E00E9412121092C9027CC11092EE
:10425000D1021092C802E2E3F0E0808180618083A5
:104260008091D1020E94D10D0E940A101982809182
:10427000E5028823E1F70E94E1138BE090E00E94C1
:10428000F436882309F4AAC08BE090E00E94F4364B
:104290008F3F09F4A3C0109263021092C9021092DA
:1042A00057020E94DC060F2EFAEFCF2EF0E0DF2E31
:1042B000F02D0F2EF8E0AF2EF1E0BF2EF02D02E32F
:1042C00010E0FF246894F4F80F2EF9E28F2EF1E04D
:1042D0009F2EF02D0F2EF7E16F2EF1E07F2EF02DA7
:1042E0000E945E060E94BB06C6010E94980680E0FE
:1042F00061E00E94A806C5010E94980621C0F8014D
:1043000080818F25808381E30E948935109273021A
:10431000109272028091720290917302885E9340B3
:10432000C8F3F80180818F25808310927302109268
:1043300072028091720290917302885E9340C8F37A
:10434000809157028823D9F2809157028130B9F0C9
:10435000823031F60E945E060E94BB06C3010E94B5
:1043600098061092730210927202809172029091DC
:10437000730280579741C8F310925702B1CF0E9441
:10438000C6188823B1F00E945E060E94BB0682E236
:1043900091E00E949806109273021092720280912E
:1043A00072029091730280579741C8F3109257029E
:1043B000A2C00E945E060E94BB06C4010E9498062D
:1043C00010927302109272028091720290917302A5
:1043D00080579741C8F31092570282CF0E94DC06A3
:1043E0000E94D10F109284028091840280938402F3
:1043F000109287020F2EF7E8CF2EF2E0DF2EF02D7D
:104400000F2EF5E8AF2EF2E0BF2EF02D0F2EF6E8BE
:104410008F2EF2E09F2EF02D02E310E0FF2468942F
:10442000F4F80F2EF5E06F2E7724F02D6C0E7D1E24
:104430000F2EF3E0EF2EF02D4DC01092840221C01C
:10444000F80180818F25808381E30E948935109255
:104450007302109272028091720290917302885ED0
:104460009340C8F3F80180818F25808310927302F6
:10447000109272028091720290917302885E934052
:10448000C8F380914D02882341F4809184028230E8
:1044900021F080916302882399F280916302853034
:1044A00011F01092630280918402823069F40E94BC
:1044B00076116D837E838F83D501F3018E2D01905C
:1044C0000D928150E1F706C080914D02882311F0D2
:1044D0000E94681AF6018081883E41F4F5018081CE
:1044E000833821F4F4018081853029F080916302C2
:1044F000853009F0A2CF80916F02909170020297EF
:1045000050F081E090E09093700280936F02809170
:10451000E5028823E1F70E940D20109263021092B9
:10452000C9021092CD02109284020E94D10F02E3C0
:1045300010E0F8018081806180830E940614F801F8
:1045400080818F7E808381E08093C40227960FB69E
:10455000F894DEBF0FBECDBFCF91DF911F910F91B9
:10456000FF90EF90DF90CF90BF90AF909F908F9093
:104570007F906F900895EF92FF920F931F93DF93B8
:10458000CF9300D000D000D0CDB7DEB70E94F31992
:10459000823009F447C08330A1F1813009F0E7C0CF
:1045A00080E00E947A0D882309F0E1C0A2EDB2E01C
:1045B0009D918C91880F880F82958F70E0E9FAE0C9
:1045C000E80FF11DE4918C919983EB838295869598
:1045D000869583708A83ACE6B2E0FE01319683E073
:1045E00001900D928150E1F760916C0270916D0223
:1045F00080916E020E94AA200E94DE3510929602DF
:10460000B6C08091E6029091E702892B09F0AFC015
:104610008091E502882309F0AAC00E94BD13109280
:10462000C902A5C080E00E947A0D882309F49DC0CC
:104630000E948A116C837D838E83A5E8B2E0FE011F
:10464000349683E001900D928150E1F780918702CA
:10465000883E09F08AC080918502833809F455C0EC
:10466000893A09F082C0E6E8F2E0808180818430F6
:1046700078F58F01608180E090E00E9402370E940F
:10468000C1180E94450DF80180818823C9F000E01F
:104690007F0188EE93E062E070E040E80E94050E42
:1046A00010927302109272028091720290917302C2
:1046B000885E9340C8F30F5FF7018081081748F3C5
:1046C00088EE93E062E070E040E80E94050E4DC085
:1046D00088EE93E063E070E040E80E94050E84EF0E
:1046E00091E063E070E040E80E94050E88EE93E000
:1046F00063E070E040E80E94050E84EF91E063E023
:1047000070E040E80E94050E30C08091860285303E
:1047100061F580916F0290917002029750F081E0F4
:1047200090E09093700280936F028091E50288235D
:10473000E1F70E940D20109263021092C9021092BC
:10474000CD02109284020E94D10F8091D1020E946A
:10475000D10D02E310E0F8018081806180830E9426
:104760000614F80180818F7E808310928402269641
:104770000FB6F894DEBF0FBECDBFCF91DF911F9172
:104780000F91FF90EF9008952F923F924F925F927A
:104790006F927F928F929F92AF92BF92CF92DF9251
:1047A000EF92FF920F931F93DF93CF930F92CDB7AA
:1047B000DEB78C01962E872E6A0119821092CD02E7
:1047C0001092C902562E472E862F972F0E94FC3634
:1047D00076018C159D0508F47C010E945E0688E038
:1047E0000E945A068DE00E945A06C8010E9498064F
:1047F00080E061E00E94A806C70163E00E94200FEC
:104800000E94980685EA90E00E94980684E061E0A4
:104810000E94A8068981882309F021C1C70164E6A6
:1048200070E00E946A36B62EE62FF0E09F01220F5C
:10483000331FCF01880F991F880F991F880F991F69
:10484000280F391FC7016AE070E00E946A36062F00
:10485000021B8CE99FEFE89FA001E99F500DF89F94
:10486000500D11244E0D802F90E09C01220F331F1C
:10487000880F991F880F991F880F991F280F391FBC
:10488000A42EA21A14E00F2EF4E67F2EF02D0F2E88
:10489000FAE06F2EF02D0F2EF4E62F2E3324F02D9C
:1048A0008091CD02882321F48091C9028130C1F723
:1048B000113009F446C0113038F0123009F484C0C8
:1048C000143009F0C4C0B5C08091CD02813031F4FC
:1048D00084E061E00E94A80614E0B9C08091C9029A
:1048E000813009F0B4C0069DC0011124BC016A0DDD
:1048F000711D8B2D90E001969C01229DC001239D8E
:10490000900D329D900D1124860F971FC816D90661
:1049100010F4BB2401C0B394B79CC00111247B01E7
:10492000E80EF91E80E061E00E94A806C70163E07E
:104930000E94200F0E94980680E061E00E94A80675
:1049400086C08091CD02813031F480E061E00E9428
:10495000A80610E07CC08091C902813009F077C0C0
:10496000B79CC0011124BC016A0D711D802F90E01D
:1049700001969C01220F331F880F991F880F991FE2
:10498000880F991F280F391FCB01820F931FC8165C
:10499000D90620F0093010F40F5F01C000E0069D39
:1049A000C00111247B01E80EF91E80E061E00E9445
:1049B000A806C70163E00E94200F0E94980681E0CC
:1049C00061E00E94A80643C08091CD02813029F4A5
:1049D00061E00E94A80611E03AC08091C9028130CE
:1049E000B1F5069D90011124B79CC0011124280F38
:1049F000391F8A2D90E00196820F931FC816D906A1
:104A000028F088E08A1510F0A39401C0AA24790147
:104A1000EA0CF11C80E061E00E94A806C70163E097
:104A20000E94200F0E94980682E061E00E94A80682
:104A30000EC08091CD02813029F482E061E00E94B5
:104A4000A80612E08091C902813009F4898310928E
:104A5000CD021092C9028981882309F421CF852DC6
:104A6000942D0E94FC368E159F0559F00E945E061B
:104A700084E890E00E949806892D982DB7010E9445
:104A80000F370F90CF91DF911F910F91FF90EF9013
:104A9000DF90CF90BF90AF909F908F907F906F905E
:104AA0005F904F903F902F9008950F931F9301E0D8
:104AB00010E085E391E0B8014FE70E944117C8017B
:104AC0000E94F4360E943E0D8DE391E060E070E0BC
:104AD00043E00E9441170E94C1180E94450D85E4E1
:104AE00091E062E070E040E95AE02FE00E94CC16CD
:104AF0000E94BC180E94520D8AE491E062E170E0CD
:104B000040EA5AE021E00E94CC160E9443150E9420
:104B1000B60C83E591E063E070E04AE50E9441173E
:104B20008CE591E064E070E04AE50E94411782E67E
:104B300091E06DE370E040E253E00E94C4238BE615
:104B400091E065E070E048E00E9441170E944C1639
:104B50008AE090E00E94F43680936A020E94D615A3
:104B600084E791E06BE370E044E60E9441171F91F7
:104B70000F910895DF92EF92FF920F931F93DF93AF
:104B8000CF9300D00F92CDB7DEB71B821A8220E000
:104B90000F2EF3EFEF2EF3E0FF2EF02DDD24D39454
:104BA0002EC080914C02F701E80FF11D908199838E
:104BB0008F5F80934C028981803209F18981803333
:104BC000C8F089818A33B0F40A811B8189810E94EF
:104BD00091109801220F331F000F111F000F111F9A
:104BE000000F111F200F311F280F311D3B832A8317
:104BF0002D2D05C08BEC90E00E94913542C0809134
:104C00004C02F701E80FF11D80818D3051F622230F
:104C100029F482E296E00E94A13533C08A819B810B
:104C20008150924028F085E496E00E94A13529C089
:104C30000E9482356A817B817695762F66277795EB
:104C4000679583EF92E040E850E00E94270B8823AD
:104C5000A1F000E010E00F2EF3EFEF2EF2E0FF2EB8
:104C6000F02DF701E00FF11F80810E9489350F5F61
:104C70001F4F00381105A9F704C08AE791E00E9490
:104C800091350F900F900F90CF91DF911F910F9161
:104C9000FF90EF90DF9008950E94823585E896E0BE
:104CA0000E94A13582EC90E00E94913508954F92C8
:104CB0005F926F927F928F929F92AF92BF92CF92AC
:104CC000DF92EF92FF920F931F93DF93CF93CDB7B5
:104CD000DEB7A2970FB6F894DEBF0FBECDBFEE24AD
:104CE000FF2420E030E00F2EFEE64F2EF5E05F2E91
:104CF000F02D00E00F2EF3E0CF2EDD24F02DCC0EB2
:104D0000DD1EC6017C2C692E0F2EF3EF8F2EF3E0F3
:104D10009F2EF02DC901880F991FF201E80FF91F8E
:104D200025913491A901F9018491882311F4102F60
:104D30000FC0102FFA018491F601E10FF11D80835D
:104D40001F5F2F5F3F4FA901F9018491882391F7DD
:104D500080914C0260914D029401280F311DC901D0
:104D6000702F472D562D212F302F0E94CE365C01FB
:104D700080914C0260914D02F401E80FF11DCF01CA
:104D8000702F472D562D212F302F0E94CE36892B84
:104D9000B9F0C501835F93409A83898320914C02C7
:104DA00089819A81280F210F20934C0280914D0216
:104DB00029813A81811B821B80934D028E2D0AC06E
:104DC0000894E11CF11C9701FAE4EF16F10409F0D4
:104DD000A1CF8FEFA2960FB6F894DEBF0FBECDBF66
:104DE000CF91DF911F910F91FF90EF90DF90CF90C7
:104DF000BF90AF909F908F907F906F905F904F90FB
:104E00000895EAE2F0E080818F7780830E94572640
:104E1000E82FF0E0EA34F10508F0E6C0E65DFF4F68
:104E2000EE0FFF1F0590F491E02D09940E94DB1D09
:104E3000DFC00E94E519DCC00E944C26D9C00E9448
:104E4000CA1CD6C00E94D719D3C00E942B1CD0C048
:104E50000E94BA25CDC00E94AE1ECAC00E94D219BF
:104E6000C7C00E94A91EC4C00E94CD19C1C00E9423
:104E7000A41EBEC00E94C819BBC00E949F1EB8C01D
:104E80000E94C319B5C00E949A1EB2C00E94BE19EA
:104E9000AFC00E94951EACC00E94B919A9C00E9463
:104EA000901EA6C00E94B419A3C00E948B1EA0C071
:104EB0000E94AF199DC00E94861E9AC00E94AA1926
:104EC00097C00E94811E94C00E94A51991C00E94A3
:104ED0007C1E8EC00E94A0198BC00E94771E88C0C5
:104EE0000E949B1985C00E94891B82C00E94601984
:104EF0007FC00E94D41D7CC00E94521979C00E94BC
:104F0000CD1D76C00E94441973C00E94141B70C04E
:104F10000E94FE1A6DC00E94C61D6AC00E94F01A4F
:104F200067C00E94BF1D64C00E94E21A61C00E9457
:104F30004B1F5EC00E94D41A5BC00E94421F58C023
:104F40000E94C61A55C00E94721E52C00E94961935
:104F50004FC00E946D1E4CC00E94911949C00E9412
:104F6000681E46C00E948C1943C00E94631E40C048
:104F70000E9487193DC00E945E1E3AC00E9482199D
:104F800037C00E94591E34C00E947D1931C00E9452
:104F9000541E2EC00E9478192BC00E944F1E28C09C
:104FA0000E94731925C00E94B41D22C00E943619A8
:104FB0001FC00E94F8181CC00E94AD1D19C00E949D
:104FC000B81A16C00E94A61D13C00E94AA1A10C0CB
:104FD0000E94391F0DC00E949C1A0AC00E949F1D8A
:104FE00007C00E948E1A04C082E096E00E94A1359C
:104FF0001092C2020E94DE3508952F923F924F9286
:105000005F926F927F928F929F92AF92BF92CF9258
:10501000DF92EF92FF920F931F93DF93CF9300D015
:10502000CDB7DEB785E089830E945E060E94BB068D
:105030008BE090E00E94F436882339F08BE090E01A
:105040000E94F4368F3F09F03CC11092630284E95C
:1050500091E00E94980680E061E00E94A8068BE93A
:1050600091E00E9498060F2EFBE0EF2EF0E0FF2E5D
:10507000F02D0F2EF0E36F2E7724F02D0F2EF6E398
:10508000AF2EBB24F02D0F2EFFE4CF2EF2E0DF2E4B
:10509000F02D0F2EFBEA4F2EF0E05F2EF02D0F2E9D
:1050A000FFEA2F2EF1E03F2EF02D0F2EFBE98F2E81
:1050B000F1E09F2EF02D9DC08091C202882361F403
:1050C0008091C902882341F48091CD02882321F484
:1050D00080915702882381F38091C202882311F0C6
:1050E0000E9401278091C9028130C9F4F3018081B7
:1050F00085FD0FC012C081E30E94893510927302B2
:1051000010927202809172029091730280579741BF
:10511000C8F3F501808182FFEECF1092C902809121
:105120005702813081F1823009F05FC00E945E0633
:105130000E94BB0684EA91E00E94980680E061E04C
:105140000E94A8068BEA91E00E94980610927302D2
:10515000109272028091720290917302805797416F
:10516000C8F30E945E060E94BB0684E991E00E949B
:10517000980680E061E00E94A806C4010E9498069B
:105180001092570232C060915802C7010E94023744
:1051900080E090E0F601E80FF91F60818C010F5F5D
:1051A0001F4FC701800F911F0E940237C8010630B0
:1051B000110581F70E945E060E94BB06C2010E9493
:1051C000980680E061E00E94A806C1010E9498064E
:1051D0001092730210927202809172029091730287
:1051E00080579741C8F3109257028091CD028130C9
:1051F00081F08091CD02813031F0C7010E94F436F8
:10520000882309F459CFC7010E94F4368F3F09F46F
:1052100053CF8091CD02813009F03EC01092CD0273
:105220000E945E060E94BB0688EB91E00E949806F1
:105230008981882359F18091CD02882339F5109214
:1052400073021092720280917202909173028057E1
:10525000974120F48091CD028823A9F38091CD025B
:105260008823A1F487E061E00E94A806898181502B
:105270008983898160E00E94860E0E949806898158
:10528000882321F08091CD028823C9F28091CD023C
:10529000813011F40E9455251092990210929802C3
:1052A000EBE3F0E080818160808384E090E00E9405
:1052B000F43680937402109263021092C902109225
:1052C00057028BE090E00E94F436882309F488C1ED
:1052D0008BE090E00E94F4368F3F09F481C11A827E
:1052E0000AEC11E00F2EF0E3CF2EDD24F02D0F2E6F
:1052F000F6E3EF2EFF24F02D0F2EFAED6F2EF1E0E6
:105300007F2EF02D0F2EF1EE4F2EF1E05F2EF02DBF
:105310000F2EF2E22F2EF1E03F2EF02D0F2EF4EAA9
:10532000AF2EF1E0BF2EF02D0F2EFBEA8F2EF1E015
:105330009F2EF02D8FC00E945E060E94BB06C80102
:105340000E9498068091C202882341F48091C9028C
:10535000882321F4809157028823A1F38091C2020F
:10536000882311F00E9401278091C9028130C9F47D
:10537000F601808185FD0FC012C081E30E9489354E
:1053800010927302109272028091720290917302D5
:1053900080579741C8F3F701808182FFEECF1092CA
:1053A000C902809157028130F9F0823009F052C071
:1053B0000E945E060E94BB06C5010E94980680E01E
:1053C00061E00E94A806C4010E9498061092730230
:1053D00010927202809172029091730280579741ED
:1053E000C8F31092570236C00E94C6188823B9F03D
:1053F00081E08A830E945E060E94BB06C1010E9472
:10540000980610927302109272028091720290912B
:10541000730280579741C8F3109257021BC00E9435
:105420005E060E94BB06C3010E94980680E061E010
:105430000E94A806C2010E94980610927302109260
:105440007202809172029091730280579741C8F363
:10545000109257028A81882309F46DCF0E945E065C
:105460000E94BB06109263021092C902109257026A
:1054700086EE91E00E9498068981882399F18091B7
:105480005702882379F580916302882359F5109299
:10549000730210927202809172029091730280578F
:1054A000974120F4809163028823A9F380916302DD
:1054B0008823C1F487E061E00E94A80689818150B9
:1054C0008983898160E00E94860E0E949806898106
:1054D000882341F080915702882321F48091630250
:1054E0008823A9F280915702813089F1823009F036
:1054F00064C00E945E060E94BB0684EA91E00E949E
:10550000980680E061E00E94A8068BEA91E00E9484
:10551000980610927302109272028091720290911A
:10552000730280579741C8F30E945E060E94BB0633
:1055300088EF91E00E94980680E061E00E94A80652
:1055400081E092E00E9498061092570236C00E94B5
:10555000C618882329F00E945525109257022DC0A5
:105560000E945E060E94BB068AED91E00E949806AA
:1055700080E061E00E94A80681EE91E00E9498061A
:1055800010927302109272028091720290917302D3
:1055900080579741C8F30E945E060E94BB0688EFC1
:1055A00091E00E94980680E061E00E94A80681E0F8
:1055B00092E00E949806109257021092990210925F
:1055C0009802EBE3F0E080818160808384E090E0EA
:1055D0000E94F43680937402109263021092C90202
:1055E0000F900F90CF91DF911F910F91FF90EF904F
:1055F000DF90CF90BF90AF909F908F907F906F90F3
:105600005F904F903F902F9008952F923F924F922E
:105610005F926F927F928F929F92AF92BF92CF9242
:10562000DF92EF92FF920F931F93DF93CF9300D0FF
:1056300000D000D0CDB7DEB70E94350C0E944315D4
:105640000E94A00C0E94C50C0E9403090E94A40D98
:105650000E94970D0E940D200E947B070E945E060B
:105660000E9429340E9434100E947035EAE2F0E072
:105670008081806880838081806480830E94FE09AD
:1056800080E69AEE0197F1F78AE092E00E94980690
:1056900080E061E00E94A80682E192E00E94980604
:1056A0000E94B80778948FEF8093E90210927302FA
:1056B000109272028091720290917302885E934000
:1056C000C8F38FEF8093EA02109273021092720275
:1056D0008091720290917302885E9340C8F38FEFBD
:1056E0008093EB0210927302109272028091720208
:1056F00090917302885E9340C8F38FEF8093EC0221
:105700001092730210927202809172029091730251
:10571000885E9340C8F38FEF8093F2021092730279
:10572000109272028091720290917302885E93408F
:10573000C8F3EBE3F0E08081816080831092730214
:10574000109272028091720290917302885E93406F
:10575000C8F3EBE3F0E080818260808310927302F3
:10576000109272028091720290917302885E93404F
:10577000C8F3E2E3F0E080818061808310927302DD
:10578000109272028091720290917302885E93402F
:10579000C8F3E5E3F0E080818062808310927302B9
:1057A000109272028091720290917302885E93400F
:1057B000C8F30E94D4061092730210927202809174
:1057C000720290917302885E9340C8F30E94DC06D7
:1057D0001092730210927202809172029091730281
:1057E000885E9340C8F31092E902109273021092FF
:1057F00072028091720290917302885E9340C8F3A6
:105800001092EA0210927302109272028091720258
:1058100090917302885E9340C8F31092EB0210924D
:105820007302109272028091720290917302885EEC
:105830009340C8F31092EC0210927302109272021D
:105840008091720290917302885E9340C8F3E5E301
:10585000F0E080818F7D808310927302109272023B
:105860008091720290917302885E9340C8F3EBE3DB
:10587000F0E080818D7F808310927302109272021B
:105880008091720290917302885E9340C8F3EBE3BB
:10589000F0E080818E7F80831092730210927202FA
:1058A0008091720290917302885E9340C8F3E2E3A4
:1058B000F0E080818F7E80831092730210927202DA
:1058C0008091720290917302885E9340C8F31092A7
:1058D0007302109272028091720290917302885E3C
:1058E0009340C8F38091D1020E94D10D88EE93E0DD
:1058F00063E070E040E80E94050E89E192E00E94BA
:1059000091350E94FD278BE390E00E94F43680934E
:10591000C8020E949E11109263020E94D10F0E9441
:10592000DE351092960210927302109272028091EC
:10593000720290917302885E9340C8F30F2EF5E2D5
:105940008F2EF2E09F2EF02D0F2EFEE26F2EF2E052
:105950007F2EF02D0F2EFAE7AF2EF2E0BF2EF02DA6
:1059600003E00F2EFBE3CF2EDD24F02D0F2EFAEAFD
:105970004F2EF2E05F2EF02D0894411C511C0F2E8B
:10598000F5E7EF2EF2E0FF2EF02D0F2EF3E02F2E95
:10599000F0E03F2EF02D80916F0290917002892BE4
:1059A00011F40E948C1480916102882361F10E949D
:1059B0005E06C4010E94980680E061E00E94A8068D
:1059C000C3010E94980680916102882391F088EEBD
:1059D00093E063E070E040E80E94050E84EF91E000
:1059E00063E070E040E80E94050E80916102882328
:1059F00071F70E94DE351092C9021092CD0210920A
:105A000063020E94D10F8091CD02882349F1813039
:105A100029F58091CC02882319F58091740288239E
:105A2000F9F0D5018D919C91892BD1F485E090E01E
:105A30000E94F43690E0880F991F880F991F880FF5
:105A4000991F9093C7028093C60281E08093CC0295
:105A500084E00E9412121092CD0202C01092CD0278
:105A6000809184028230C1F1833009F4E0C081303A
:105A700009F0F3C01092840280E00E945D0D88233B
:105A800009F0EBC0EAEAF2E09081D2018C91880F34
:105A9000880F82958F70E0E9FAE0E80FF11DE4913C
:105AA0008C919983EB8382958695869583708A8302
:105AB000AEEDB2E0FE013196802F01900D92815043
:105AC000E1F76091DE027091DF028091E0020E94B6
:105AD000AA2010928402C1C01092840280E00E9429
