:100000000C947C040C94CF2C0C949C2C0C94990490
:100010000C9424290C9499040C9499040C94A02A0F
:100020000C9499040C9499040C9499040C949904DC
:100030000C9499040C94B72F0C9499040C94622F8F
:100040000C9499040C9499040C9499040C949904BC
:100050000C949904D521D821DB21DE21E121E42172
:10006000E721EA21ED21F021F321F621F921FC21FC
:10007000FF210222052208220B220E221122142225
:1000800017221A221D2220222322262229222C2254
:100090002F223222352238223B223E224122442284
:1000A00047224A224D2250225322562259225C22B4
:1000B0005F226222652268226B226E2271227422E4
:1000C00077227A227D2280228322862289228C2214
:1000D0008F2292229522982241A042A1E045A3A41A
:1000E000A5A64BA74D484FA8504354A9AA58E1AB29
:1000F000ACE2ADAEADAFB0B161B2B3B4E365B6B72B
:10010000B8B9BABBBCBD6FBE7063BF79E478E5C057
:10011000C1E6C2C3C4C5C6C762756C6C6574735F43
:10012000696E5F636C69703D0062756C6C657473B9
:100130005F696E5F636C69703F0070726F746F63AC
:100140006F6C3F00636C6970733D00636C69707322
:100150003F00707265706172655F746F5F7772697E
:1001600074655F626C6F636B00726561645F626C83
:100170006F636B00736F756E645F315F616472658E
:1001800073733D00736F756E645F315F6164726598
:1001900073733F00736F756E645F315F73697A6567
:1001A0003D00736F756E645F315F73697A653F0000
:1001B000736F756E645F325F6164726573733D0067
:1001C000736F756E645F325F6164726573733F0055
:1001D000736F756E645F325F73697A653D00736F2C
:1001E000756E645F325F73697A653F00736F756E19
:1001F000645F335F6164726573733D00736F756E26
:10020000645F335F6164726573733F00736F756E13
:10021000645F335F73697A653D00736F756E645F09
:10022000335F73697A653F00736F756E645F345F27
:100230006164726573733D00736F756E645F345FE4
:100240006164726573733F00736F756E645F345FD2
:1002500073697A653D00736F756E645F345F7369AF
:100260007A653F00736F756E645F355F61647265B8
:1002700073733D00736F756E645F355F61647265A3
:1002800073733F00736F756E645F355F73697A6572
:100290003D00736F756E645F355F73697A653F000B
:1002A000736F756E645F365F6164726573733D0072
:1002B000736F756E645F365F6164726573733F0060
:1002C000736F756E645F365F73697A653D00736F37
:1002D000756E645F365F73697A653F00706C617933
:1002E0005F736F756E6400706C61795F73686F74B3
:1002F0005F736F756E6400706C617965725F6964BD
:100300003D00706C617965725F69643F0064616D86
:100310006167655F696E6465783D0064616D616702
:10032000655F696E6465783F0069725F706F7765BD
:10033000723D0069725F706F7765723F0066726927
:10034000656E646C795F666972653D0066726965A9
:100350006E646C795F666972653F007465616D5F9C
:1003600069643D007465616D5F69643F006261743A
:10037000745F66756C6C5F766F6C746167653D0069
:10038000626174745F66756C6C5F766F6C746167C4
:10039000653F00626174745F6C6F775F766F6C7439
:1003A0006167653D00626174745F6C6F775F766F43
:1003B0006C746167653F00736F756E645F375F6172
:1003C00064726573733D00736F756E645F375F6150
:1003D00064726573733F00736F756E645F375F732C
:1003E000697A653D00736F756E645F375F73697A14
:1003F000653F00736F756E645F385F61647265732B
:10040000733D00736F756E645F385F61647265730E
:10041000733F00736F756E645F385F73697A653D13
:1004200000736F756E645F385F73697A653F007340
:100430006F756E645F395F6164726573733D0073DD
:100440006F756E645F395F6164726573733F0073CB
:100450006F756E645F395F73697A653D00736F75A0
:100460006E645F395F73697A653F00736F756E64A0
:100470005F31305F6164726573733D00736F756ED9
:10048000645F31305F6164726573733F00736F75D1
:100490006E645F31305F73697A653D00736F756EAE
:1004A000645F31305F73697A653F0069725F6361D1
:1004B00072726965725F6672657175656E63793DAA
:1004C0000069725F636172726965725F66726571FD
:1004D00075656E63793F00636C6561725F746D0072
:1004E000180129013A0144014B01520169017401CB
:1004F00084019401A201B001C001D001DE01EC0130
:10050000FC010C021A022802380248025602640258
:10051000740284029202A002B002C002CE02DC0287
:10052000E702F70202030D031B03290333033D0314
:100530004C035B0364036D0380039303A503B703BC
:10054000C703D703E503F3030304130421042F04B3
:100550003F044F045D046B047C048D049C04AB04D5
:10056000C104D7044552524F523A756E6B6E6F7785
:100570006E20636F6D6D616E640D0A004552524FBF
:10058000520D0A004552524F523A706172616D65C8
:10059000746572206973206E6F742073706563696F
:1005A000666965640D0A004552524F523A70617295
:1005B000616D65746572206F7574206F662072615D
:1005C0006E67650D0A004552524F523A696E766168
:1005D0006C696420706172616D657465720D0A00EA
:1005E0000D0A4F4B0D0A00CAEEEBE8F7E5F1F2E217
:1005F000EE20EFE0F2F0EEEDEEE220E220ECE0E3C0
:10060000E0E7E8EDE53B696E7428302C3930293B92
:1006100062756C6C6574735F696E5F636C69703F63
:100620003B62756C6C6574735F696E5F636C697057
:100630003D0D0ACCE0E3E0E7E8EDEEE23B696E74E5
:1006400028302C313030293B636C6970733F3B6339
:100650006C6970733D0D0AC8E4E5EDF2E8F4E8EA70
:10066000E0F2EEF020E8E3F0EEEAE03B696E742899
:10067000302C313237293B706C617965725F696467
:100680003F3B706C617965725F69643D0D0AD6E22B
:10069000E5F220EAEEECE0EDE4FB3B656E756D28DB
:1006A000CAF0E0F1EDE0FF2CD1E8EDFFFF2CC6E54C
:1006B000EBF2E0FF2CC7E5EBE5EDE0FF293B7465CD
:1006C000616D5F69643F3B7465616D5F69643D0D99
:1006D0000ACDE0EDEEF1E8ECFBE920F3F0EEED3BC6
:1006E000656E756D2831252C32252C34252C352549
:1006F0002C37252C3130252C3135252C3137252C24
:100700003230252C3235252C3330252C3335252C11
:100710003430252C3530252C3735252C31303025FB
:10072000293B64616D6167655F696E6465783F3B15
:1007300064616D6167655F696E6465783D0D0AC4CB
:10074000F0F3E6E5F1F2E2E5EDEDFBE920EEE3EEB4
:10075000EDFC3B656E756D28CDE5F22CC4E0293BC0
:10076000667269656E646C795F666972653F3B6647
:100770007269656E646C795F666972653D0D0ACC5D
:10078000EEF9EDEEF1F2FC20C8CA20E8E7EBF3F752
:10079000E5EDE8FF3B656E756D28C4EBFF20E8E3EF
:1007A000F0FB20E220EFEEECE5F9E5EDE8E82CC403
:1007B000EBFF20E8E3F0FB20EDE020F3EBE8F6E5CB
:1007C000293B69725F706F7765723F3B69725F703A
:1007D0006F7765723D0D0AD7E0F1F2EEF2E020EDA1
:1007E000E5F1F3F9E5E920C8CA20F1E8E3EDE0EB33
:1007F000E03B656E756D28333620EAC3F62C35363E
:1008000020EAC3F6293B69725F636172726965729F
:100810005F6672657175656E63793F3B69725F6390
:100820006172726965725F6672657175656E637912
:100830003D0D0ACDE0EFF0FFE6E5EDE8E520E7E06D
:10084000F0FFE62E20E1E0F2E0F0E5E820ECC23B2C
:10085000696E7428333030302C3435303030293BD9
:10086000626174745F66756C6C5F766F6C746167DF
:10087000653F3B626174745F66756C6C5F766F6C2C
:10088000746167653D0D0ACDE0EFF0FFE6E5EDE848
:10089000E520F0E0E7F0FFE62E20E1E0F2E0F0E511
:1008A000E820ECC23B696E7428323730302C343586
:1008B000303030293B626174745F6C6F775F766FA4
:1008C0006C746167653F3B626174745F6C6F775FE6
:1008D000766F6C746167653D0D0A003031323334D8
:1008E00035363738390001020405070A0F1114198B
:1008F0001E2328324B64243811241FBECFE5D8E0D4
:10090000DEBFCDBF12E0A0E6B0E0E2EFF0E602C04D
:1009100005900D92A033B107D9F714E0A0E3B2E03F
:1009200001C01D92AD3DB107E1F70E94AC250C94CA
:1009300077300C940000E7E3F0E0808180628083F0
:10094000808180688083808180648083E8E3F0E038
:1009500080818F7D808380818F77808380818F7B72
:1009600080830895DF93CF9300D0CDB7DEB78A831D
:1009700080E8898320E030E0E8E3F0E099818A8133
:10098000892321F480818F7D808303C080818062F0
:10099000808380818068808380818F778083898154
:1009A000869589832F5F3F4F2830310539F7E8E37B
:1009B000F0E080818F7B80838081806480830F90D2
:1009C0000F90CF91DF91089580E00E94B2040895C6
:1009D00080914E02846080934E020E94B204809106
:1009E0004E028B7F80934E020E94B20408951F93A3
:1009F000982F662331F080914E02826080934E02E0
:100A000005C080914E028D7F80934E02992334F46D
:100A100080914E02806480934E0205C080914E0208
:100A20008F7B80934E02192F96FF06C080914E0255
:100A3000806280934E0205C080914E028F7D80932C
:100A40004E0215FF06C080914E02806180934E02D7
:100A500005C080914E028F7E80934E0214FF06C027
:100A600080914E02886080934E0205C080914E02B4
:100A7000877F80934E0280914E020E94B2040E94B2
:100A8000E80480E49FE10197F1F713FF06C080912D
:100A90004E02806480934E0205C080914E028F7B8F
:100AA00080934E0212FF06C080914E0280628093B6
:100AB0004E0205C080914E028F7D80934E0211FF41
:100AC00006C080914E02806180934E0205C08091E5
:100AD0004E028F7E80934E0210FF06C080914E0220
:100AE000886080934E0205C080914E02877F80937C
:100AF0004E0280914E020E94B2040E94E80480E4FB
:100B00009FE10197F1F71F91089560E00E94F704BB
:100B1000089581E090E00E948505089561E00E94BB
:100B2000F7040895806180934E020E94E80480EEED
:100B30009EE20197F1F70895DF93CF930F92CDB71F
:100B4000DEB7803418F480E4898301C0198289817A
:100B500080580E94850589810F90CF91DF9108957B
:100B60008A3031F480913C0290E00E949C05089507
:100B7000803C28F0E82FF0E0E85EFF4F849161E0D0
:100B80000E94F70480913C028F5F80933C0208959D
:100B9000CF93DF93FC018081882339F0EF010E941D
:100BA000B005898121968823D1F7DF91CF910895EF
:100BB0001F93182F662331F480580E9485051093E7
:100BC0003C0207C080540E948505812F805C809381
:100BD0003C021F91089582E00E94850582E0809387
:100BE0003C020895CF93DF93FC018491882349F060
:100BF000EF0121960E94B005FE0121968491882381
:100C0000C9F7DF91CF91089580914E02806880935B
:100C10004E020E94B204089580914E028F77809315
:100C20004E020E94B204089580E40E9485058EE081
:100C30000E948E0581E10E948E0581E10E948E0551
:100C400081E10E948E0581E10E948E0581E10E9472
:100C50008E058FE10E948E0580E00E948E058EE059
:100C60000E948E0581E10E948E0581E10E948E0521
:100C700081E10E948E0581E10E948E058FE10E9434
:100C80008E058FE10E948E0580E00E948E058EE029
:100C90000E948E0581E10E948E0581E10E948E05F1
:100CA00081E10E948E058FE10E948E058FE10E94F6
:100CB0008E058FE10E948E0580E00E948E058EE0F9
:100CC0000E948E0581E10E948E0581E10E948E05C1
:100CD0008FE10E948E058FE10E948E058FE10E94B8
:100CE0008E058FE10E948E0580E00E948E058EE0C9
:100CF0000E948E0581E10E948E058FE10E948E0583
:100D00008FE10E948E058FE10E948E058FE10E9487
:100D10008E058FE10E948E0580E00E948E058EE098
:100D20000E948E058FE10E948E058FE10E948E0544
:100D30008FE10E948E058FE10E948E058FE10E9457
:100D40008E058FE10E948E0580E00E948E0580E86E
:100D50000E94850508950E949B040E94E40410925D
:100D60004E0210923C022EEB30E040E951E0CA0105
:100D70000197F1F721503040D1F70E949B0424EBFA
:100D800030E040E951E0CA010197F1F721503040CD
:100D9000D1F788E090E00E9492050E94E8040E944A
:100DA000E80480E090E00E94920588E290E00E94D2
:100DB000850588E090E00E94850581E090E00E9432
:100DC000850584E090E00E9485058CE090E00E941B
:100DD000850586E090E00E9485050E94140608952E
:100DE00080E40E9485058EE00E948E058FE10E94BE
:100DF0008E058FE10E948E058FE10E948E058FE1A6
:100E00000E948E058FE10E948E058FE10E948E0563
:100E100080E00E948E0580E00E948E0580E00E94A6
:100E20008E058AE00E948E058FE10E948E058EE07D
:100E30000E948E0584E00E948E0580E00E948E054F
:100E400080E00E948E0586E00E948E058FE00E9461
:100E50008E058FE00E948E058FE00E948E058FE048
:100E60000E948E0586E00E948E058FE00E948E050E
:100E700080E00E948E058EE00E948E058AE10E942D
:100E80008E058EE10E948E058AE10E948E058EE11C
:100E90000E948E058AE10E948E058FE00E948E05D9
:100EA00080E00E948E0586E00E948E0589E00E9407
:100EB0008E0586E00E948E058FE00E948E058FE4ED
:100EC0000E948E058FE00E948E0586E00E948E05AE
:100ED00086E00E948E0580E10E948E058FE10E94CF
:100EE0008E058FE10E948E058FE10E948E0580E1C4
:100EF0000E948E0580E10E948E0580E10E948E0591
:100F000080E10E948E0580E80E94850508951F9368
:100F1000182F80E40E948505123009F444C0133074
:100F200030F4112371F0113009F0A0C023C0143047
:100F300009F46BC0143008F44FC0153009F096C0A6
:100F40007DC08EE00E948E0581E10E948E0581E1C8
:100F50000E948E0581E10E948E0581E10E948E052E
:100F600081E10E948E058FE10E948E0580E00E9443
:100F70008E057CC08EE00E948E0581E10E948E0568
:100F800081E10E948E0581E10E948E0581E10E942F
:100F90008E058FE10E948E058FE10E948E0580E014
:100FA0000E948E0563C08EE00E948E0581E10E9442
:100FB0008E0581E10E948E0581E10E948E058FE100
:100FC0000E948E058FE10E948E058FE10E948E05A2
:100FD00080E00E948E054AC08EE00E948E0581E16D
:100FE0000E948E0581E10E948E058FE10E948E0590
:100FF0008FE10E948E058FE10E948E058FE10E9495
:101000008E0580E00E948E0531C08EE00E948E0524
:1010100081E10E948E058FE10E948E058FE10E9482
:101020008E058FE10E948E058FE10E948E058FE173
:101030000E948E0580E00E948E0518C08EE00E94FE
:101040008E058FE10E948E058FE10E948E058FE153
:101050000E948E058FE10E948E058FE10E948E0511
:101060008FE10E948E0580E00E948E0580E80E943C
:1010700085051F91089510927202E1E3F0E08081EE
:10108000877F8083E2E3F0E08081877F8083E5E5EE
:10109000F0E080818860808380818B7F8083EBE5B6
:1010A000F0E080818068808310924F020895382F8D
:1010B00020E0E1E3F0E0A8E1B1E060E570E040E4C9
:1010C00051E030FF0AC08081886080838081877F03
:1010D0008083CA010197F1F70CC08081886080830A
:1010E000CD010197F1F78081877F8083CB01019744
:1010F000F1F72F5F283011F03695E3CF089530E0F7
:1011000020E0E1E3F0E064E170E0A0E3B0E040E281
:1011100053E08081886080838081877F8083CB01DA
:101120000197F1F78C918870809346022695809103
:10113000460281112068CA010197F1F73F5F3830FC
:1011400041F7822F0895282F90E038E1862F8227DB
:1011500080FF06C0822F83278695282F206801C034
:1011600026959F5F983011F06695F0CF822F0895F5
:10117000CF93DF9380914F02882309F06FC080E006
:1011800098E00197F1F7E1E3F0E0808188608083E7
:1011900080E897E00197F1F78081877F80838CE179
:1011A00090E00197F1F7839B59C080E491E00197AB
:1011B000F1F7839953C080EC93E00197F1F7839B9B
:1011C0004DC080E897E00197F1F783E30E9457084C
:1011D0000E947F0880935002809150028823F1F191
:1011E0006091500280E00E94A30880934D0210920B
:1011F0005202809152028630F8F4C7E4D2E00E9495
:101200007F08809351028091520290915102FE0119
:10121000E80FF11D908380914D02609151020E9470
:10122000A30880934D02809152028F5F80935202F7
:1012300080915202863018F30E947F0880935202F8
:101240009091520280914D02981721F082E0809394
:101250004F0204C081E080934F0205C0EAE5F0E050
:10126000808180688083DF91CF910895E0E2F0E093
:101270008CE0808380818A3010F48AE080B9E1E2DA
:10128000F0E080818C7F80830895CF93DF93582F87
:10129000E6E5F0E044EAA1E2B0E0C3E2D0E030EA03
:1012A00024E8408380818823ECF78C91887F883004
:1012B000B1F53883208380818823ECF78C91887F77
:1012C000883179F793B984E886BFE6E5F0E080815C
:1012D0008823ECF781B1887F883209F553B984E817
:1012E00086BFE6E5F0E080818823ECF781B1887F56
:1012F0008832A9F463B984E886BFE6E5F0E080812E
:101300008823ECF781B1887F883249F484E986BF6D
:10131000E6E5F0E0808184FDFDCF81E001C080E062
:10132000DF91CF910895CF93DF93582FE6E5F0E05A
:1013300044EAA1E2B0E0C3E2D0E030EA24E840832E
:1013400080818823ECF78C91887F883009F04DC02C
:101350003883208380818823ECF78C91887F8831C3
:1013600071F793B984E886BFE6E5F0E080818823D1
:10137000ECF781B1887F8832C1F553B984E886BF24
:10138000E6E5F0E080818823ECF781B1887F883240
:1013900061F584EA86BFE6E5F0E080818823ECF71A
:1013A00081B1887F803109F581EA83B984E886BFFD
:1013B000E6E5F0E080818823ECF781B1887F803416
:1013C000A1F484E886BFE6E5F0E080818823ECF7AD
:1013D00081B1887F883549F493B184E986BFE6E519
:1013E000F0E0808184FDFDCF01C090E0892FDF9186
:1013F000CF9108950F931F93CF93DF938C01E6E570
:10140000F0E034EAA1E2B0E0C3E2D0E020EA94E800
:10141000308380818823ECF78C91887F883009F0B5
:1014200048C02883908380818823ECF78C91887F43
:10143000883171F773B984E886BFE6E5F0E0808112
:101440008823ECF781B1887F883299F563B984E805
:1014500086BFE6E5F0E080818823ECF781B1887FE4
:10146000883239F541155105D9F020E030E0C3E26A
:10147000D0E0E6E5F0E094E861E270E0D8018D911B
:101480008D018883908380818823ECF7DB018C9128
:10149000887F883271F42F5F3F4F2417350770F330
:1014A00084E986BFE6E5F0E0808184FDFDCF81E040
:1014B00001C080E0DF91CF911F910F9108950F93AC
:1014C0001F93CF93DF938C01E6E5F0E034EAA1E2CD
:1014D000B0E0C3E2D0E020EA94E830838081882342
:1014E000ECF78C91887F883009F071C02883908355
:1014F00080818823ECF78C91887F883171F773B9EC
:1015000084E886BFE6E5F0E080818823ECF781B1CE
:10151000887F883209F05BC063B984E886BFE6E55E
:10152000F0E080818823ECF781B1887F883209F070
:101530004EC084EA86BFE6E5F0E080818823ECF7C0
:1015400081B1887F803109F042C081EA83B984E8A3
:1015500086BFE6E5F0E080818823ECF781B1887FE3
:101560008034A9F541505040D9F020E030E0E6E564
:10157000F0E094EC61E270E0C3E2D0E0908380811F
:101580008823ECF7DB018C91887F803501F5888119
:10159000D8018D938D012F5F3F4F2417350770F3CE
:1015A00084E886BFE6E5F0E080818823ECF781B12E
:1015B000887F883561F483B1F801808384E986BF30
:1015C000E6E5F0E0808184FDFDCF81E001C080E0B0
:1015D000DF91CF911F910F910895CF93DF93582FF3
:1015E000E6E5F0E044EAA1E2B0E0C3E2D0E030EAB0
:1015F00024E8408380818823ECF78C91887F8830B1
:10160000E1F53883208380818823ECF78C91887FF3
:10161000883179F793B984E886BFE6E5F0E0808108
:101620008823ECF781B1887F883239F553B984E893
:1016300086BFE6E5F0E080818823ECF781B1887F02
:101640008832D9F484EA86BFE6E5F0E08081882319
:10165000ECF781B1887F803181F481EA83B984E835
:1016600086BFE6E5F0E080818823ECF781B190E069
:10167000887F803419F491E001C090E0892FDF91D8
:10168000CF910895DC0184EC86BFE6E5F0E080812F
:101690008823ECF781B1887F803511F080E00895D0
:1016A00083B18C9381E00895DC0184E886BFE6E590
:1016B000F0E080818823ECF781B1887F883511F0D4
:1016C00080E0089583B18C9384E986BFE6E5F0E07D
:1016D000808184FDFDCF81E00895CF93DF93E4E323
:1016E000F0E08081806280834AE350E0DA018C91EF
:1016F00082608C93808180648083A5E3B0E08C91CC
:101700008F7B8C938081806880838C918F778C9382
:101710008081886080838081806180838081846013
:10172000808321E330E0E901888180688883E7E3F2
:10173000F0E0808188608083808180618083A8E37D
:10174000B0E08C9180618C93EA018881816088830C
:101750008081846080838C918B7F8C93E901888168
:101760008061888388818B7F888380818E7F80835E
:101770008C9181608C9380818B7F80838C9184603D
:101780008C9380818D7F80838C9182608C93E2E347
:10179000F0E080818F7D8083FA0180818F77808364
:1017A000EBE3F0E080818F778083DF91CF91089524
:1017B000809177029091780268EE73E00E94FA2F90
:1017C00080E49FE10E94FA2F615063BD89E085BDEE
:1017D000E9E5F0E080818F7780830895809177023A
:1017E0009091780268EE73E00E94FA2F80E49FE106
:1017F0000E94FA2F615063BD0895E1E3F0E080811B
:101800008B7F8083E5E5F0E080818260808380814A
:101810008E7F8083EBE5F0E0808180648083089593
:10182000982F969596959695E92FF0E09F01220FB7
:10183000331F220F331F220F331F821B662389F0B1
:10184000E956FD4F408127E030E0281B310981E057
:1018500090E002C0880F991F2A95E2F7482B408339
:101860000895E956FD4F408127E030E0281B3109FB
:1018700081E090E002C0880F991F2A95E2F78095D9
:10188000842380830895982F969596959695E92FB1
:10189000F0E09F01220F331F220F331F220F331F4F
:1018A000821B662389F0E454FD4F408127E030E03D
:1018B000281B310981E090E002C0880F991F2A950A
:1018C000E2F7482B40830895E454FD4F408127E020
:1018D00030E0281B310981E090E002C0880F991F99
:1018E0002A95E2F78095842380830895E7EAF2E061
:1018F000808380818F7780830895E8EAF2E0908189
:101900009F73908390818295880F880F807C892BAC
:1019100080830895E8EAF2E09081937C908390813F
:10192000880F880F892B80830895482F282F2695AC
:101930002695269530E0F901E956FD4F808190E02B
:10194000220F331F220F331F220F331F421B27E0AA
:1019500030E0241B310902C0959587952A95E2F75E
:1019600081700895482F282F26952695269530E0DA
:10197000F901E454FD4F808190E0220F331F220FC4
:10198000331F220F331F421B27E030E0241B310995
:1019900002C0959587952A95E2F78170089580E8B1
:1019A0008CBFE3E5F0E088E4808380818160808300
:1019B0008081806280830895AFE4B0E08C918E7F57
:1019C0008C938C918D7F8C93EEE4F0E08081886025
:1019D000808380818F7E80838C918F7B8C938C9190
:1019E0008F778C9380818F7E808380818F7D8083B1
:1019F00080818E7F808380818260808380818B7FE5
:101A0000808389EF8ABDE9E5F0E080818061808391
:101A10000895982FA3EDB2E0FD0111921082FD010F
:101A20003296108213961C928695482F50E0141619
:101A3000150674F420E030E063ED72E08FEFFB01F7
:101A4000E20FF31F80832F5F3F4F24173507BCF34E
:101A50009A01220F331F892F90E0821B930B1816D7
:101A600019062CF4FA01ED52FD4F8CEC8083089599
:101A700086B38695809581700895EF92FF920F93BB
:101A80001F93CF93DF93FC01062FF72E142F8FE0C7
:101A9000E13AF80708F04EC0C091B502D091B60205
:101AA0008FEF9FEF9093B6028093B50280EA9FE09C
:101AB000BF010E94FA2FE62E802F9F2D9C01213A14
:101AC000310510F020EA30E0CF016AE070E00E94BA
:101AD000FA2F269FA001279F500D369F500D1124ED
:101AE0004115510519F1E0E0F0E0ACE5B0E06E2DF4
:101AF00070E09B011C9310926A021092690280911F
:101B0000690290916A0286179707C8F31C92109297
:101B10006A02109269028091690290916A028217AA
:101B20009307C8F33196E417F50720F3D093B60274
:101B3000C093B502DF91CF911F910F91FF90EF906D
:101B400008950F931F9302E310E0F80180818061F4
:101B5000808388EE93E063E070E040E80E943D0DF2
:101B600084EF91E063E070E040E80E943D0DF801F1
:101B700080818F7E80831F910F9108958F929F9215
:101B8000AF92BF92CF92DF92EF92FF920F931F938B
:101B9000DF93CF9300D0CDB7DEB7D62E89836623EF
:101BA00029F422E030E043E050E007C0462F50E047
:101BB0009A01215030400AF476C00F2EFBEDEF2E33
:101BC000F8E0FF2EF02D06E312E089816AE00E9422
:101BD000EE2F9A8389810E94EE2F89838A81F701F3
:101BE000E80FF11DE491D801A20FB31FEC9321502F
:101BF00030405AF7FA01EA5CFD4F1082DD2009F00F
:101C000041C00F2EF6E3CF2EF2E0DF2EF02D56016D
:101C10000894A11CB11C07E312E048010894810854
:101C20009108B4016E5F7F4FA4014D5F5F4F940137
:101C30002C5F3F4FD40115960F2EF6E0EF2EFF24B8
:101C4000F02DE80CF91CF6018081F50190818033BC
:101C5000C9F49923B9F0F8018081F4018083FB0174
:101C60008081F8018083FA018081FB018083F90182
:101C70008081FA0180838C91F9018083F701808152
:101C80008C93E1CF86E392E00F900F90CF91DF919C
:101C90001F910F91FF90EF90DF90CF90BF90AF908A
:101CA0009F908F900895FA01EA5CFD4F1082EACF71
:101CB0008F929F92AF92BF92CF92DF92EF92FF925C
:101CC0000F931F93DF93CF9300D000D0CDB7DEB733
:101CD000462F9A838983662341F404E010E00F2E97
:101CE000F5E0EF2EFF24F02D07C0E62EFF2487013C
:101CF000015010400AF488C00F2EFBEDAF2EF8E023
:101D0000BF2EF02D0F2EF0E3CF2EF2E0DF2EF02DC0
:101D100089819A816AE070E00E94FA2F282F392F7A
:101D20003C832B8389819A816AE070E00E94FA2FBC
:101D3000862F972F9A8389838B819C81F501E80FE9
:101D4000F91FE491D601A00FB11FEC930150104090
:101D5000FAF6F701E05DFD4F1082442309F041C01F
:101D60000F2EF0E3CF2EF2E0DF2EF02D5601089477
:101D7000A11CB11C01E312E04801089481089108FC
:101D8000B4016E5F7F4FA4014D5F5F4F94012C5FE4
:101D90003F4FD40115960F2EF6E0EF2EFF24F02DC5
:101DA000E80CF91CF6018081F50190818033C9F4BB
:101DB0009923B9F0F8018081F4018083FB018081CF
:101DC000F8018083FA018081FB018083F901808121
:101DD000FA0180838C91F9018083F70180818C93D3
:101DE000E1CF80E392E00F900F900F900F90CF9192
:101DF000DF911F910F91FF90EF90DF90CF90BF90F8
:101E0000AF909F908F900895F701E05DFD4F108295
:101E1000E8CF0E94890581E00E94B0058091B2025E
:101E20009091B30260E00E94BE0D0E94C80587E059
:101E300060E00E94D80580E00E94B00580E061E08B
:101E40000E94D80582E00E94B005809185029091A1
:101E5000860263E00E94BE0D0E94C8058FE20E94C8
:101E6000B00585E061E00E94D80583E00E94B005DE
:101E700080916B0262E00E94BE0D0E94C80580E660
:101E800090E00E94C805089581E060E00E94D805B6
:101E90008091B2029091B30263E00E94BE0D0E9455
:101EA000C805089581E061E00E94D805809185020F
:101EB0009091860263E00E94BE0D0E94C8050895BD
:101EC00086E061E00E94D80580916B0262E00E948A
:101ED000BE0D0E94C80580E690E00E94C8050895E6
:101EE00080EC87B987E886B90895E7E2F0E0908151
:101EF0008770892B8083E6E2F0E0808180648083B4
:101F0000808184FFFDCFE6E2F0E080818061808304
:101F100024B135B1822F932F0895FF920F931F9311
:101F2000DF93CF9300D00F92CDB7DEB7162F698322
:101F3000072F7A838B83F82E0E9489050E94EB0578
:101F400082E690E00E94C8058F2D60E00E94BE0DE1
:101F50000E94C80580E061E00E94D80584E00E94EC
:101F6000B005812F60E00E94BE0D0E94C80585E08B
:101F700061E00E94D80585E00E94B005802F60E0F6
:101F80000E94BE0D0E94C8050F900F900F90CF9138
:101F9000DF911F910F91FF900895843321F18533D4
:101FA00060F48133C1F0823318F4803341F515C0F9
:101FB0008233A9F0833319F514C08733D1F0883305
:101FC00028F4853391F08633D1F411C0883399F029
:101FD0008933A9F412C081E0089580E0089582E079
:101FE000089583E0089584E0089585E0089586E0EB
:101FF000089587E0089588E0089589E0089585E5CB
:1020000008950895CF93DF93582FE6E5F0E044EA72
:10201000A1E2B0E0C3E2D0E030EA24E8408380816E
:102020008823ECF78C91887F883009F083C038834F
:10203000208380818823ECF78C91887F883171F729
:1020400093B984E886BFE6E5F0E080818823ECF769
:1020500081B1887F883209F06DC053B984E886BFAA
:10206000E6E5F0E080818823ECF781B1887F883253
:1020700009F060C084EA86BFE6E5F0E0808188234D
:10208000ECF781B1887F803109F054C081EA83B9CF
:1020900084E886BFE6E5F0E080818823ECF781B133
:1020A000887F803409F046C06150704001F120E023
:1020B00030E0E6E5F0E094ECA1E2B0E0C3E2D0E08D
:1020C00041E0908380818823ECF78C91887F803574
:1020D00089F58091B8028823E1F788818093B10265
:1020E0004093B8022F5F3F4F2617370750F384E81D
:1020F00086BFE6E5F0E080818823ECF781B1887F38
:102100008835C1F48091B8028823E1F783B18093C8
:10211000B10281E08093B80284E986BFE6E5F0E091
:10212000808184FDFDCF1CBE1092B1021092B802D6
:1021300081E001C080E0DF91CF910895ECE6F2E00C
:10214000119280E88083EFE7F2E081919191909382
:102150005F0280935E02808191819093C702809399
:10216000C602089580E590E09093D1028093D0025A
:102170000E949E108EE090E090936F0280936E021A
:1021800081E080935A02E9E5F0E0808180688083F5
:10219000E5E3F0E08081806280830895DF93CF9350
:1021A00000D00F92CDB7DEB7A7E9B2E0FD01619193
:1021B000708112968C9190E00F900F900F90CF91BC
:1021C000DF910895DF93CF9300D00F92CDB7DEB7A4
:1021D000ACEBB2E0FD016191708112968C9190E0C0
:1021E0000F900F900F90CF91DF91089582E190E0D2
:1021F0000E944730882319F08130C9F40CC0E7E70A
:10220000F2E080EA9CE89183808332968EE090E051
:102210009183808317C0E7E7F2E080EC9AED918329
:102220008083329686E190E0918380830BC0E7E75C
:10223000F2E080EA9CE89183808332968EE090E021
:102240009183808327E732E0F9018081918168EEF4
:1022500073E00E94FA2FCB01880F991F860F971FFA
:10226000880F991F65E070E00E94FA2F862F972F44
:10227000349691838083F9018081918168EE73E0C7
:102280000E94FA2FCB01880F991F860F971F880F86
:10229000991F880F991F65E070E00E94FA2F862F22
:1022A000972F369691838083F9018081918168EE22
:1022B00073E00E94FA2FCB01880F991F860F971F9A
:1022C000880F991F880F991F880F991F65E070E08C
:1022D0000E94FA2F862F972F389691838083F901D9
:1022E0008081918168EE73E00E94FA2FCB01880F04
:1022F000991F860F971F880F991F65E070E00E9455
:10230000FA2F862F972F265F3F4FF9019183808305
:10231000089582E090E00E944730089580E090E0C8
:102320000E9447300895EF92FF920F931F93CF932F
:10233000DF938BE090E00E94473090915002891724
:10234000E1F4C0E0D0E00F2EFBE0EF2EF0E0FF2E36
:10235000F02D07E412E0CE0101968E0D9F1D0E9424
:102360004730F801EC0FFD1F9081891731F4219659
:10237000C630D10581F781E001C080E0DF91CF91C7
:102380001F910F91FF90EF90089582E190E00E94DD
:10239000473060E00E94BE0D0E94402F88E690E02A
:1023A0000E94402F089582E090E00E94473060E054
:1023B0000E94BE0D0E94402F88E690E00E94402FB0
:1023C000089581E090E00E94473060E00E94BE0DD9
:1023D0000E94402F88E690E00E94402F089584E0FC
:1023E00090E00E94473060E00E94BE0D0E94402FA6
:1023F00088E690E00E94402F089583E090E00E94DC
:10240000473060E00E94BE0D0E94402F88E690E0B9
:102410000E94402F0895EF92FF920F931F93DF9336
:10242000CF930F92CDB7DEB710E001E00F2EF3E0AF
:10243000EF2EF02DFF246894F1F863C00E949C2FCA
:10244000898389818536E1F1863630F4803389F0DD
:10245000813309F056C021C0883621F0843709F055
:1024600050C032C0009383021092BA021092B90297
:1024700048C080918302882309F443C08091B90247
:102480009091BA029C012F5F3F4F3093BA02209384
:10249000B90260E00E94430C34C08091830288231B
:1024A00081F18091B9029091BA029C012F5F3F4F58
:1024B0003093BA022093B902602F0E94430C21C0CE
:1024C0001092830213E022C0809183028823B9F026
:1024D0008091B9029091BA02892B89F08091B9025A
:1024E0009091BA028E30910521F0489721F41F2D6A
:1024F00003C0102F01C01E2D1092830202C0109243
:10250000830280914502882309F098CF812F0F9094
:10251000CF91DF911F910F91FF90EF900895DF937E
:10252000CF9300D00F92CDB7DEB70E940B1282502E
:102530008230A8F480E00E94B20C882381F00E94CF
:10254000E21069837A838B83A4E7B2E0FE013196BF
:1025500083E001900D928150E1F7109273020F9089
:102560000F900F90CF91DF9108950F931F9387E302
:1025700090E00E944F308C0189E390E00E944F3040
:10258000BC01C8010E9402101F910F9108950F9382
:102590001F9383E390E00E944F308C0185E390E02D
:1025A0000E944F30BC01C8010E9402101F910F9180
:1025B00008950F931F938FE290E00E944F308C019B
:1025C00081E390E00E944F30BC01C8010E940210DC
:1025D0001F910F9108950F931F938BE290E00E943B
:1025E0004F308C018DE290E00E944F30BC01C80159
:1025F0000E9402101F910F910895809166029091A0
:102600006702029750F081E090E090936702809318
:1026100066028091CF028823E1F70E94EB120895B1
:102620000F931F9387E290E00E944F308C0189E264
:1026300090E00E944F30BC01C8010E9402101F911F
:102640000F9108958091660290916702029750F071
:1026500081E090E090936702809366028091CF02C0
:102660008823E1F70E94101308950F931F9383E2CC
:1026700090E00E944F308C0185E290E00E944F3044
:10268000BC01C8010E9402101F910F9108950F9381
:102690001F938FE190E00E944F308C0181E290E027
:1026A0000E944F30BC01C8010E9402101F910F917F
:1026B00008950E94471308950F931F938BE190E0B4
:1026C0000E944F308C018DE190E00E944F30BC01A0
:1026D000C8010E9402101F910F9108950E945C137F
:1026E00008950F931F9387E190E00E944F308C0173
:1026F00089E190E00E944F30BC01C8010E940210A5
:102700001F910F9108958091660290916702029740
:1027100050F081E090E09093670280936602809190
:10272000CF028823E1F70E94711308950F931F933E
:1027300083E190E00E944F308C0185E190E00E949F
:102740004F30BC01C8010E9402101F910F910895E3
:102750000E9496138FE690E00E94402F08950E94F9
:102760004F3060E00E94580E0E94402F88E690E0B3
:102770000E94402F089589E390E00E94AF130895CE
:1027800087E390E00E94AF13089585E390E00E94F4
:10279000AF13089583E390E00E94AF13089581E39F
:1027A00090E00E94AF1308958FE290E00E94AF1373
:1027B00008958DE290E00E94AF1308958BE290E0BF
:1027C0000E94AF13089589E290E00E94AF1308952C
:1027D00087E290E00E94AF13089585E290E00E94A6
:1027E000AF13089583E290E00E94AF13089581E251
:1027F00090E00E94AF1308958FE190E00E94AF1324
:1028000008958DE190E00E94AF1308958BE190E070
:102810000E94AF13089589E190E00E94AF130895DC
:1028200087E190E00E94AF13089585E190E00E9457
:10283000AF13089583E190E00E94AF130895EF92E3
:10284000FF920F931F93DF93CF9300D0CDB7DEB7E6
:1028500087E00E94750F9A83898386E090E00E944A
:102860004F307C0188E090E00E944F302091D202EE
:10287000222321F0213009F08AC04BC0880F991F14
:10288000880F991F6BE470E00E94FA2F862F972F14
:102890008C0185E060E00E94D80584E790E00E940A
:1028A000C80580E00E94B00587E060E00E94D8057E
:1028B00089819A818017910720F480E00E94870720
:1028C00066C0C701880F991F880F991F6BE470E0DD
:1028D0000E94FA2F862F972FBC0189819A81681751
:1028E000790720F485E00E94870751C029813A8149
:1028F000201B310BC901880F991F820F931F601B8A
:10290000710B880F991F0E94FA2F862F0E9487074C
:102910003EC085E060E00E94D80529813A81C90166
:10292000880F991F820F931F9C01220F331F220FC4
:10293000331F820F931F9695879596958795969549
:1029400087959A83898389819A8164E670E00E94E1
:10295000FA2F862F60E00E94BE0D0E94C80587E70F
:1029600090E00E94C80589819A8164E670E00E9427
:10297000FA2F6AE070E00E94FA2F862F60E00E9432
:10298000BE0D0E94C80580E690E00E94C8050F9029
:102990000F90CF91DF911F910F91FF90EF900895CD
:1029A00088E090E00E944F3060E00E94580E0E9444
:1029B000402F80EE95E00E94502F089586E090E031
:1029C0000E944F3060E00E94580E0E94402F80EE1F
:1029D00095E00E94502F089580E090E00E944730DB
:1029E00060E00E94BE0D0E94402F80EE95E00E94A4
:1029F000502F08958BE390E00E94473060E00E94E2
:102A0000BE0D0E94402F80EE95E00E94502F089549
:102A10008AE090E00E944730803439F0803849F4F1
:102A200089E790E00E94402F04C08BE790E00E946D
:102A3000402F80EE95E00E94502F0895CF92DF92B4
:102A4000EF92FF920F931F93DF93CF9300D0CDB7F8
:102A5000DEB71A8220E00F2EFDEDEF2EF3E0FF2E01
:102A6000F02D0F2EFAE0CF2EF02DDD24D39423C0CD
:102A700080914402F701E80FF11D908199838F5FE7
:102A80008093440289818032B1F08981803370F073
:102A900089818A3358F40A8189810E94CD0F0C9D67
:102AA00080011124800F8A832D2D05C08DE790E0D1
:102AB0000E94402F5AC080914402F701E80FF11D97
:102AC00080818D30A9F6222329F484E895E00E94C4
:102AD000502F4BC08A818B3018F48A81882329F4C7
:102AE00087EA95E00E94502F40C08A81853041F1ED
:102AF000863060F48230D9F0833018F4813089F563
:102B000013C08330B9F0843061F517C0883009F103
:102B1000893028F48630B9F0873019F517C089302C
:102B2000D9F08A30F1F41BC00E9496131AC00E949B
:102B3000711317C00E945C1314C00E94471311C088
:102B40000E9435130EC00E9410130BC00E94EB129E
:102B500008C00E94D91205C00E94C71202C00E947C
:102B6000B5128FE690E00E94402F0F900F90CF910A
:102B7000DF911F910F91FF90EF90DF90CF9008951C
:102B8000DF92EF92FF920F931F93DF93CF9300D0CA
:102B90000F92CDB7DEB71B821A8220E00F2EFDED1B
:102BA000EF2EF3E0FF2EF02DDD24D3942EC0809184
:102BB0004402F701E80FF11D908199838F5F8093A4
:102BC00044028981803209F189818033C8F089818A
:102BD0008A33B0F40A811B8189810E94CD0F98014C
:102BE000220F331F000F111F000F111F000F111FA5
:102BF000200F311F280F311D3B832A832D2D05C047
:102C00008DE790E00E94402F4FC080914402F70171
:102C1000E80FF11D80818D3051F6222329F484E8DC
:102C200095E00E94502F40C08A819B818150924044
:102C300028F087EA95E00E94502F36C00E948D2F21
:102C40008FE690E00E94402F1092CC021092CB02AF
:102C50008091CB029091CC028A58924020F48091CE
:102C600045028823ACF7809145028823CCF46A8121
:102C70007B817695762F6627779567958DED93E026
:102C800040E850E00E94FA09882329F08FE690E09E
:102C90000E94402F09C085E890E00E94402F04C0A8
:102CA00080EA90E00E94402F0F900F900F90CF91FC
:102CB000DF911F910F91FF90EF90DF9008950F9398
:102CC0001F93CF93DF938BE090E06FEF0E9455301E
:102CD00080E090E0CBE0D0E08C010F5F1F4FCE0191
:102CE000800F911F6FEF0E945530C801063011050B
:102CF00099F70E9489050E94EB0588EA90E00E94FE
:102D0000C80580E061E00E94D80580EB90E00E9459
:102D1000C80588E690E00E94402F10926A02109247
:102D200069028091690290916A0280579741C8F3C5
:102D3000DF91CF911F910F910895CF92DF92EF9283
:102D4000FF920F931F93DF93CF9300D0CDB7DEB7E1
:102D50001A8220E00F2EFDEDEF2EF3E0FF2EF02D76
:102D60000F2EFAE0CF2EF02DDD24D39423C08091D6
:102D70004402F701E80FF11D908199838F5F8093E2
:102D8000440289818032B1F08981803370F0898179
:102D90008A3358F40A8189810E94CD0F0C9D8001ED
:102DA0001124800F8A832D2D05C086EC95E00E94AA
:102DB000502F2DC080914402F701E80FF11D808152
:102DC0008D30A9F6222329F484E895E00E94502F43
:102DD0001EC08A81823038F48A818A81882341F03A
:102DE000813089F40BC087EA95E00E94502F0FC014
:102DF0008AE090E060E80E94553005C08AE090E0EB
:102E000060E40E94553080EE95E00E94502F0F90B4
:102E10000F90CF91DF911F910F91FF90EF90DF9076
:102E2000CF900895CF92DF92EF92FF920F931F936E
:102E3000DF93CF9300D0CDB7DEB71A8220E00F2EFC
:102E4000FDEDEF2EF3E0FF2EF02D0F2EFAE0CF2E4A
:102E5000F02DDD24D39423C080914402F701E80FC4
:102E6000F11D908199838F5F809344028981803224
:102E7000B1F08981803370F089818A3358F40A81F6
:102E800089810E94CD0F0C9D80011124800F8A83BF
:102E90002D2D05C08DE790E00E94402F18C0809135
:102EA0004402F701E80FF11D80818D30A9F622233D
:102EB00029F484E895E00E94502F09C06A8184E0DB
:102EC00090E00E9455308FE690E00E94402F0F90D6
:102ED0000F90CF91DF911F910F91FF90EF90DF90B6
:102EE000CF9008958F929F92AF92BF92CF92DF9230
:102EF000EF92FF920F931F93DF93CF9300D0CDB744
:102F0000DEB75C01862E942E1A8220E00F2EFDED96
:102F1000EF2EF3E0FF2EF02D0F2EFAE0CF2EF02D46
:102F2000DD24D39423C080914402F701E80FF11D02
:102F3000908199838F5F8093440289818032B1F0C0
:102F40008981803370F089818A3358F40A818981BC
:102F50000E94CD0F0C9D80011124800F8A832D2D9E
:102F600005C086EC95E00E94502F22C0809144025B
:102F7000F701E80FF11D80818D30A9F6222329F495
:102F800084E895E00E94502F13C08A81981618F0AB
:102F90008A81881528F487EA95E00E94502F08C09E
:102FA0006A81C5010E9455308FE690E00E94402F53
:102FB0000F900F90CF91DF911F910F91FF90EF90A5
:102FC000DF90CF90BF90AF909F908F90089582E157
:102FD00090E060E041E00E9472170E94F6100E94AB
:102FE000EE0B089580E090E060E043E00E947217ED
:102FF00008958BE390E060E041E00E94721708952D
:1030000082E090E060E04FE00E947217089581E056
:1030100090E060E04FE70E947217089583E090E02F
:1030200060E04AE50E9472170895EF92FF921F93A5
:10303000CF93DF9310925B021092B7021092B4020A
:103040008BE390E00E944730182F0E94890588E0AA
:103050000E9485058CE00E94850588EB90E00E9427
:10306000C80580E061E00E94D805112329F081ECB9
:1030700090E00E94C80504C085EC90E00E94C8055D
:1030800089EC90E00E94C805C1ECD0E00F2EF5EC71
:10309000EF2EF0E0FF2EF02D21C08091B70281309D
:1030A00021F08091B4028130C1F78091B402813067
:1030B000A9F41092B402112349F080E061E00E946B
:1030C000D805C7010E94C80510E008C080E061E093
:1030D0000E94D805CE010E94C80511E08091B70278
:1030E0008130D9F61092B7028BE390E00E9447300E
:1030F000181759F00E9489058FEC90E00E94C805CE
:103100008BE390E0612F0E945530DF91CF911F91AA
:10311000FF90EF900895DF92EF92FF920F931F932D
:10312000CF93DF9310925B021092B7021092B40219
:103130008AE090E00E944730182F0E94890588E0BD
:103140000E9485058CE00E94850588ED90E00E9434
:10315000C80580E061E00E94D805103429F481EEB2
:1031600090E00E94C80506C0103821F486EE90E079
:103170000E94C8058BEE90E00E94C805C6EED0E024
:1031800000E80F2EF1EEEF2EF0E0FF2EF02DDD2403
:103190006894D6F821C08091B702813021F08091E7
:1031A000B4028130C1F78091B4028130A9F4109249
:1031B000B402103849F480E061E00E94D805C701EC
:1031C0000E94C8051D2D08C080E061E00E94D8055E
:1031D000CE010E94C805102F8091B7028130D9F628
:1031E0001092B7028AE090E00E944730181759F019
:1031F0000E9489058FEC90E00E94C8058AE090E06B
:10320000612F0E945530DF91CF911F910F91FF9058
:10321000EF90DF900895AF92BF92CF92DF92EF923E
:10322000FF920F93CF93DF937C01EB016A01A22EF3
:1032300010925B021092B7021092B402CB010E946E
:103240004730082FF601E80FF11DB4900E94890560
:1032500088E00E9485058CE00E948505C7010E94D8
:10326000C80580E061E00E94D8058B2D63E00E94D4
:10327000BE0D0E94C80589EC90E00E94C80521C0DF
:103280008091B402813021F08091B7028130C1F782
:103290008091B4028130A9F40A1510F000E001C059
:1032A0000F5F1092B40280E061E00E94D805F60141
:1032B000E00FF11DE4918E2F63E00E94BE0D0E948D
:1032C000C8058091B7028130D9F61092B702CE01BD
:1032D0000E944730081751F00E9489058FEC90E05A
:1032E0000E94C805CE01602F0E945530DF91CF911A
:1032F0000F91FF90EF90DF90CF90BF90AF90089527
:103300005F926F927F928F929F92AF92BF92CF9275
:10331000DF92EF92FF920F931F93DF93CF930F9261
:10332000CDB7DEB78C015B01E42E19821092B70293
:103330001092B402CB010E944730FE2C8E1508F487
:10334000F82E0E94890588E00E9485058DE00E9484
:103350008505C8010E94C80580E061E00E94D8058B
:103360008F2D63E00E94BE0D0E94C80580EF90E0A3
:103370000E94C80584E061E00E94D8058981882305
:1033800009F019C18F2D64E60E94EE2FC82E482F38
:1033900050E09A01220F331FCA01880F991F880F2E
:1033A000991F880F991F280F391F8F2D6AE00E94DF
:1033B000EE2F082F021B8CE99FEF9C01429FC0015A
:1033C000439F900D529F900D11244F2D480F802F39
:1033D00090E09C01220F331F880F991F880F991FBF
:1033E000880F991F280F391FD42ED21A8E2D64E60C
:1033F0000E94EE2F682E772414E00F2EF4E65F2E45
:10340000F02D8E2C99240F2EFAE0EF2EF02D8091C6
:10341000B702882321F48091B4028130C1F71130C2
:10342000D1F1113038F0123009F479C0143009F0BC
:10343000BAC0ABC08091B702813031F484E061E062
:103440000E94D80514E0AFC08091B402813009F029
:10345000AAC08C2D90E001966816790614F4CC244D
:1034600001C0C3940E9DC00111242D2D280FC59CB1
:10347000C0011124F22EF80E80E061E00E94D80510
:103480008F2D63E00E94BE0D0E94C80580E061E0C0
:103490000E94D80588C08091B702813031F480E065
:1034A00061E00E94D80510E07EC08091B4028130B6
:1034B00009F079C0C59CB0011124CB018D0D911D7F
:1034C000202F30E02F5F3F4FA901440F551F220FDF
:1034D000331F220F331F220F331F420F531F840F3E
:1034E000951F8816990624F0093010F40F5F01C06B
:1034F00000E02D2D260F0E9DC0011124F22EF80E96
:1035000080E061E00E94D8058F2D63E00E94BE0D2F
:103510000E94C80581E061E00E94D80544C0809106
:10352000B702813029F461E00E94D80511E03BC068
:103530008091B4028130B9F5C59CA00111240E9D83
:10354000900111248D2D90E00196840F951F820F1C
:10355000931F881699062CF088E08D1510F0D394EF
:1035600001C0DD24822F840FF82EFD0C80E061E085
:103570000E94D8058F2D63E00E94BE0D0E94C805F1
:1035800082E061E00E94D8050EC08091B7028130D0
:1035900029F482E061E00E94D80512E08091B40233
:1035A000813009F489831092B7021092B4028981A4
:1035B000882309F42CCFC5010E9447308F1551F0A4
:1035C0000E9489058FEC90E00E94C805C5016F2D0F
:1035D0000E9455300F90CF91DF911F910F91FF9076
:1035E000EF90DF90CF90BF90AF909F908F907F90A3
:1035F0006F905F9008950F931F9301E010E086EFA6
:1036000090E0B8014FE70E948019C8010E9447303E
:103610000E94760C8EEF90E060E070E043E00E9444
:1036200080190E948E110E947D0C86E091E062E07C
:1036300070E046EE58E02FE00E940B190E948911BD
:103640000E948A0C8BE091E062E170E046EF58E066
:1036500021E00E940B190E94F6100E94EE0B84E1FB
:1036600091E063E070E04AE50E9480198DE191E00D
:1036700064E070E04AE50E94801983E291E065E031
:1036800070E048E00E9480190E948B188AE090E068
:103690000E944730809362020E9415181F910F917B
:1036A0000895682F80E090E00E9455300895BF9201
:1036B000CF92DF92EF92FF920F931F93DF93CF93FE
:1036C00000D00F92CDB7DEB76C011B821A8220E0CA
:1036D0000F2EFDEDEF2EF3E0FF2EF02DBB24B39463
:1036E0002EC080914402F701E80FF11D908199836B
:1036F0008F5F809344028981803209F18981803310
:10370000C8F089818A33B0F40A811B8189810E94C3
:10371000CD0F9801220F331F000F111F000F111F33
:10372000000F111F200F311F280F311D3B832A83EB
:103730002B2D05C08DE790E00E94402F18C080918E
:103740004402F701E80FF11D80818D3051F62223EC
:1037500029F484E895E00E94502F09C06A817B819A
:10376000C6010E9462308FE690E00E94402F0F90C9
:103770000F900F90CF91DF911F910F91FF90EF90DD
:10378000DF90CF90BF90089589E390E00E94571B8F
:10379000089587E390E00E94571B089585E390E029
:1037A0000E94571B089583E390E00E94571B0895E1
:1037B00081E390E00E94571B08958FE290E00E9401
:1037C000571B08958DE290E00E94571B08958BE2ED
:1037D00090E00E94571B089589E290E00E94571BD9
:1037E000089587E290E00E94571B089585E290E0DB
:1037F0000E94571B089583E290E00E94571B089592
:1038000081E290E00E94571B08958FE190E00E94B2
:10381000571B08958DE190E00E94571B08958BE19E
:1038200090E00E94571B089589E190E00E94571B89
:10383000089587E190E00E94571B089585E190E08C
:103840000E94571B089583E190E00E94571B089542
:103850006F927F929F92AF92BF92CF92DF92EF9240
:10386000FF920F931F93DF93CF9300D00F92CDB7AA
:10387000DEB73C015B016A011B821A8220E00F2E39
:10388000FDEDEF2EF3E0FF2EF02D992493942EC042
:1038900080914402F701E80FF11D908199838F5FB9
:1038A000809344028981803209F189818033C8F094
:1038B00089818A33B0F40A811B8189810E94CD0FEE
:1038C0009801220F331F000F111F000F111F000F4F
:1038D000111F200F311F280F311D3B832A83292DF3
:1038E00005C086EC95E00E94502F27C080914402CD
:1038F000F701E80FF11D80818D3051F6222329F464
:1039000084E895E00E94502F18C08A819B81C816D8
:10391000D90628F08A819B818A159B0528F487EABD
:1039200095E00E94502F09C06A817B81C3010E94EB
:1039300062308FE690E00E94402F0F900F900F9022
:10394000CF91DF911F910F91FF90EF90DF90CF907B
:10395000BF90AF909F907F906F90089588E090E027
:103960006CE87AE048EC5FEA0E94281C089586E043
:1039700090E068EB7BE048EC5FEA0E94281C089529
:1039800081E090E00E94473088232CF481E090E0B1
:1039900060E00E94553080E090E00E944730843023
:1039A00028F080E090E060E00E94553082E090E0F6
:1039B0000E944730803128F082E090E065E00E946C
:1039C000553083E090E00E9447308B3528F083E04B
:1039D00090E06EE10E94553084E090E00E94473014
:1039E0008B3528F084E090E06FE00E94553085E050
:1039F00090E00E944730893028F085E090E061E057
:103A00000E94553086E090E00E944F308F5F9F4FBC
:103A100031F486E090E060E97AE10E94623088E06B
:103A200090E00E944F308F5F9F4F31F488E090E02C
:103A30006CE775E10E94623082E190E00E944730BD
:103A4000882359F082E190E00E944730813029F0CC
:103A500082E190E060E00E9455308AE090E00E94B0
:103A60004730803459F08AE090E00E944730803837
:103A700029F08AE090E060E40E9455308BE390E00A
:103A80000E944730823028F08BE390E061E00E9492
:103A9000553008950E94C01C8FEF9FEF9093B6029F
:103AA0008093B502909358028093570210925A0265
:103AB00081E090E00E9447300E94760C0E948E11B7
:103AC0000E947D0C0E9489110E948A0C84E090E083
:103AD0000E94473080936B021092860210928502FA
:103AE0001092D902109268021092DB021092DA0250
:103AF0001092BA021092B902109273021092D80278
:103B000088E08093BB0284E690E09093B3028093B8
:103B1000B202AFE9B2E0FD011182108232968081DB
:103B200081608083FD0133961182108215968C91FD
:103B300081608C931092610210926002109259027F
:103B40001092B0021092D2028AE090E00E944730B8
:103B5000809362021092AF02109283021092670269
:103B6000109266021092CF02109284021092D1023B
:103B70001092D00208956F927F928F929F92AF928F
:103B8000BF92CF92DF92EF92FF920F931F93DF933A
:103B9000CF93CDB7DEB727970FB6F894DEBF0FBE31
:103BA000CDBF6A837B838C83E72EF62ED82E0E94AE
:103BB0008E118E1571F48BE390E00E9447308823BC
:103BC00009F4D4C181E090E00E9447308F1509F4D8
:103BD000CDC102E310E0F8018081806180838CE236
:103BE00091E00E94402F0E940406EB82FA82DC8260
:103BF0006F2D7E2D8D2D0E948D0FF80180818F7E7F
:103C000080832D2D30E08091B2029091B30228176D
:103C1000390794F58091B2029091B302821B930B05
:103C20009093B3028093B2022091B2023091B3021A
:103C3000C901880F991F220F331F220F331F220F34
:103C4000331F820F931F6DE770E00E940E30609368
:103C5000BB028091BB02882351F48091B202909103
:103C6000B302181619061CF481E08093BB020E946F
:103C700083131092B40272C11092BB021092B3026D
:103C80001092B202E2E3F0E0808180618083809153
:103C9000BB020E94090D0E94440F19820E94FD126E
:103CA0008BE090E00E944730882309F4AAC08BE0A3
:103CB00090E00E9447308F3F09F4A3C010925B024E
:103CC0001092B40210924F020E940C060F2EF0E3E5
:103CD000CF2EF1E0DF2EF02D0F2EFEE3AF2EF1E020
:103CE000BF2EF02D02E310E0FF246894F4F80F2EAD
:103CF000FFE58F2EF1E09F2EF02D0F2EFDE46F2EAD
:103D0000F1E07F2EF02D0E9489050E94EB05C6018F
:103D10000E94C80580E061E00E94D805C5010E94AC
:103D2000C80521C0F80180818F25808381E30E942E
:103D3000382F10926A021092690280916902909164
:103D40006A02885E9340C8F3F80180818F258083E2
:103D500010926A02109269028091690290916A023F
:103D6000885E9340C8F380914F028823D9F28091F6
:103D70004F028130B9F0823031F60E9489050E94ED
:103D8000EB05C3010E94C80510926A0210926902F5
:103D90008091690290916A0280579741C8F310920E
:103DA0004F02B1CF0E9493118823B1F00E94890580
:103DB0000E94EB0588E591E00E94C80510926A0216
:103DC000109269028091690290916A02805797412E
:103DD000C8F310924F029AC00E9489050E94EB0519
:103DE000C4010E94C80510926A0210926902809173
:103DF000690290916A0280579741C8F310924F026E
:103E000082CF0E940C060E94090F109273028091CB
:103E1000730280937302109276020F2EF6E7CF2E74
:103E2000F2E0DF2EF02D0F2EF4E7AF2EF2E0BF2EE2
:103E3000F02D0F2EF5E78F2EF2E09F2EF02D02E3EE
:103E400010E0FF246894F4F80F2EF5E06F2E77242D
:103E5000F02D6C0E7D1E0F2EF3E0EF2EF02D47C0DF
:103E600010927302809173028093730221C0F80153
:103E700080818F25808381E30E94382F10926A020F
:103E8000109269028091690290916A02885E934063
:103E9000C8F3F80180818F25808310926A02109206
:103EA00069028091690290916A02885E9340C8F32A
:103EB00080914502882321F4809173028230B9F603
:103EC00080917302823069F40E94CE106D837E83EC
:103ED0008F83D501F3018E2D01900D928150E1F772
:103EE00006C080914502882311F00E948F12F601CE
:103EF0008081883E09F0B4CFF5018081833809F0D4
:103F0000AFCFF4018081853009F0AACF809166029D
:103F100090916702029750F081E090E090936702E1
:103F2000809366028091CF028823E1F70E944A1DA8
:103F300010925B021092B4021092B70210927302B8
:103F40000E94090F02E310E0F80180818061808304
:103F50000E942213F80180818F7E80838091BB02B2
:103F60000E94090D0E940C060E94090F27960FB6A9
:103F7000F894DEBF0FBECDBFCF91DF911F910F919F
:103F8000FF90EF90DF90CF90BF90AF909F908F9079
:103F90007F906F9008950F931F93DF93CF9300D07E
:103FA00000D000D0CDB7DEB70E940B12823009F4EA
:103FB00047C08330A1F1813009F090C080E00E94B9
:103FC000B20C882309F08AC0ACEBB2E09D918C91D1
:103FD000880F880F82958F70E6EEF8E0E80FF11DEC
:103FE000E4918C919983EB83829586958695837075
:103FF0008A83A3E6B2E0FE01319683E001900D9240
:104000008150E1F7609163027091640280916502D2
:104010000E94BB1D0E948D2F109283025FC0809171
:10402000D0029091D102892B09F058C08091CF0223
:10403000882309F053C00E94D9121092B4024EC0D6
:1040400080E00E94B20C882309F446C00E94E2106E
:104050006C837D838E83A4E7B2E0FE01349683E017
:1040600001900D928150E1F780917602883EA1F592
:1040700080917402833881F580917502853061F5F5
:104080008091660290916702029750F081E090E083
:1040900090936702809366028091CF028823E1F7B4
:1040A0000E944A1D10925B021092B4021092B70255
:1040B000109273020E94090F8091BB020E94090DA9
:1040C00002E310E0F8018081806180830E94221366
:1040D000F80180818F7E80831092730226960FB63E
:1040E000F894DEBF0FBECDBFCF91DF911F910F912E
:1040F0000895DF92EF92FF920F931F93DF93CF9378
:1041000000D00F92CDB7DEB71B821A8220E00F2EAF
:10411000FDEDEF2EF3E0FF2EF02DDD24D3942EC025
:1041200080914402F701E80FF11D908199838F5F20
:10413000809344028981803209F189818033C8F0FB
:1041400089818A33B0F40A811B8189810E94CD0F55
:104150009801220F331F000F111F000F111F000FB6
:10416000111F200F311F280F311D3B832A832D2D56
:1041700005C08DE790E00E94402F42C0809144022C
:10418000F701E80FF11D80818D3051F6222329F4CB
:1041900084E895E00E94502F33C08A819B81815032
:1041A000924028F087EA95E00E94502F29C00E9493
:1041B000312F6A817B817695762F66277795679573
:1041C0008DED92E040E850E00E945F0A8823A1F064
:1041D00000E010E00F2EFDEDEF2EF2E0FF2EF02DAF
:1041E000F701E00FF11F80810E94382F0F5F1F4FF2
:1041F00000381105A9F704C08BE691E00E94402F1A
:104200000F900F900F90CF91DF911F910F91FF9022
:10421000EF90DF9008950E94312F87EE95E00E9485
:10422000502F8FE690E00E94402F08954F925F92AA
:104230006F927F928F929F92AF92BF92CF92DF92B6
:10424000EF92FF920F931F93DF93CF93CDB7DEB71B
:10425000A2970FB6F894DEBF0FBECDBFEE24FF24A9
:1042600020E030E00F2EF0EE4F2EF4E05F2EF02D28
:1042700000E00F2EF3E0CF2EDD24F02DCC0EDD1E5E
:10428000C6017C2C692E0F2EFDED8F2EF3E09F2EA4
:10429000F02DC901880F991FF201E80FF91F259130
:1042A0003491A901F9018491882311F4102F0FC0D2
:1042B000102FFA018491F601E10FF11D80831F5F39
:1042C0002F5F3F4FA901F9018491882391F78091D5
:1042D0004402609145029401280F311DC901702FDD
:1042E000472D562D212F302F0E9421305C018091C7
:1042F000440260914502F401E80FF11DCF01702FD7
:10430000472D562D212F302F0E942130892BB9F0B7
:10431000C5018D5D93409A838983209144028981F0
:104320009A81280F210F2093440280914502298110
:104330003A81811B821B809345028E2D0AC008940E
:10434000E11CF11C9701F2E4EF16F10409F0A1CF92
:104350008FEFA2960FB6F894DEBF0FBECDBFCF9100
:10436000DF911F910F91FF90EF90DF90CF90BF9062
:10437000AF909F908F907F906F905F904F90089537
:10438000EAE2F0E080818F7780830E941621E82F97
:10439000F0E0E234F10508F0CEC0E65DFF4FEE0F2D
:1043A000FF1F0590F491E02D09940E940E18C7C0DC
:1043B0000E94FD11C4C00E940B21C1C00E941217AF
:1043C000BEC00E94EF11BBC00E94C015B8C00E94C1
:1043D0007920B5C00E94231CB2C00E941A14AFC03D
:1043E0000E941E1CACC00E941514A9C00E94191C7A
:1043F000A6C00E941014A3C00E94141CA0C00E945A
:104400000B149DC00E940F1C9AC00E94061497C0F6
:104410000E940A1C94C00E94011491C00E94051CB5
:104420008EC00E94FC138BC00E94001C88C00E949A
:10443000F71385C00E94FB1B82C00E94F2137FC04D
:104440000E94F61B7CC00E94ED1379C00E94F11BF4
:1044500076C00E94E81373C00E94EC1B70C00E94DB
:10446000E3136DC00E941E156AC00E94A81367C0A6
:104470000E94071864C00E94E11161C00E940018E8
:104480005EC00E94D3115BC00E949D1658C00E945E
:10449000081555C00E94F91752C00E94FA144FC067
:1044A0000E94F2174CC00E94EC1449C00E94B71C35
:1044B00046C00E94DE1443C00E94AE1C40C00E9451
:1044C000D0143DC00E94E71B3AC00E94DE1337C0E3
:1044D0000E94E21B34C00E94D91331C00E94DD1B30
:1044E0002EC00E94D4132BC00E94D81B28C00E944B
:1044F000CF1325C00E94D31B22C00E94CA131FC025
:104500000E94CE1B1CC00E94C51319C00E94C91B6B
:1045100016C00E94C01313C00E94C41B10C00E948A
:10452000BB130DC00E94E7170AC00E94C51107C047
:104530000E945F1604C084E695E00E94502F1092FE
:10454000AF020E948D2F08952F923F924F925F925B
:104550006F927F928F929F92AF92BF92CF92DF9293
:10456000EF92FF920F931F93DF93CF9300D0CDB7BD
:10457000DEB785E089830E9489050E94EB058BE008
:1045800090E00E944730882339F08BE090E00E9451
:1045900047308F3F09F03CC110925B0285E891E003
:1045A0000E94C80580E061E00E94D8058CE891E097
:1045B0000E94C8050F2EFBE0EF2EF0E0FF2EF02D3D
:1045C0000F2EF0E36F2E7724F02D0F2EF6E3AF2E93
:1045D000BB24F02D0F2EF7E4CF2EF2E0DF2EF02DCE
:1045E0000F2EF8EA4F2EF0E05F2EF02D0F2EF0EA9E
:1045F0002F2EF1E03F2EF02D0F2EFCE88F2EF1E054
:104600009F2EF02D9DC08091AF02882361F4809190
:10461000B402882341F48091B702882321F4809169
:104620004F02882381F38091AF02882311F00E940A
:10463000C0218091B4028130C9F4F301808185FDED
:104640000FC012C081E30E94382F10926A021092AC
:1046500069028091690290916A0280579741C8F37C
:10466000F501808182FFEECF1092B40280914F025B
:10467000813081F1823009F05FC00E9489050E947B
:10468000EB0585E991E00E94C80580E061E00E94A9
:10469000D8058CE991E00E94C80510926A02109238
:1046A00069028091690290916A0280579741C8F32C
:1046B0000E9489050E94EB0585E891E00E94C805EB
:1046C00080E061E00E94D805C4010E94C8051092F4
:1046D0004F0232C060915002C7010E94553080E005
:1046E00090E0F601E80FF91F60818C010F5F1F4F0A
:1046F000C701800F911F0E945530C8010630110577
:1047000081F70E9489050E94EB05C2010E94C8053D
:1047100080E061E00E94D805C1010E94C8051092A6
:104720006A02109269028091690290916A02805730
:104730009741C8F310924F028091B702813081F007
:104740008091B702813031F0C7010E944730882341
:1047500009F459CFC7010E9447308F3F09F453CF66
:104760008091B702813009F03EC01092B7020E94DA
:1047700089050E94EB0589EA91E00E94C8058981BC
:10478000882359F18091B702882339F510926A0283
:10479000109269028091690290916A028057974154
:1047A00020F48091B7028823A9F38091B70288236F
:1047B000A1F487E061E00E94D80589818150898356
:1047C000898160E00E94BE0D0E94C805898188230E
:1047D00021F08091B7028823C9F28091B70281301D
:1047E00011F40E94FB1A1092860210928502EBE3EC
:1047F000F0E080818160808384E090E00E94473017
:1048000080936B0210925B021092B40210924F02DE
:104810008BE090E00E944730882309F488C18BE048
:1048200090E00E9447308F3F09F481C11A820BEB60
:1048300011E00F2EF0E3CF2EDD24F02D0F2EF6E346
:10484000EF2EFF24F02D0F2EFBEC6F2EF1E07F2ECC
:10485000F02D0F2EF2ED4F2EF1E05F2EF02D0F2EEA
:10486000F8E52F2EF1E03F2EF02D0F2EF5E9AF2EBB
:10487000F1E0BF2EF02D0F2EFCE98F2EF1E09F2EE0
:10488000F02D8FC00E9489050E94EB05C8010E948F
:10489000C8058091AF02882341F48091B402882337
:1048A00021F480914F028823A1F38091AF028823E5
:1048B00011F00E94C0218091B4028130C9F4F60148
:1048C000808185FD0FC012C081E30E94382F1092B5
:1048D0006A02109269028091690290916A0280577F
:1048E0009741C8F3F701808182FFEECF1092B402A6
:1048F00080914F028130F9F0823009F052C00E945D
:1049000089050E94EB05C5010E94C80580E061E0B1
:104910000E94D805C4010E94C80510926A02109234
:1049200069028091690290916A0280579741C8F3A9
:1049300010924F0236C00E9493118823B9F081E093
:104940008A830E9489050E94EB05C1010E94C80567
:1049500010926A02109269028091690290916A0233
:1049600080579741C8F310924F021BC00E948905DF
:104970000E94EB05C3010E94C80580E061E00E942F
:10498000D805C2010E94C80510926A0210926902FD
:104990008091690290916A0280579741C8F3109202
:1049A0004F028A81882309F46DCF0E9489050E94F5
:1049B000EB0510925B021092B40210924F0287ED49
:1049C00091E00E94C8058981882399F180914F0266
:1049D000882379F580915B02882359F510926A0249
:1049E000109269028091690290916A028057974102
:1049F00020F480915B028823A9F380915B028823D5
:104A0000C1F487E061E00E94D805898181508983E3
:104A1000898160E00E94BE0D0E94C80589818823BB
:104A200041F080914F02882321F480915B0288231A
:104A3000A9F280914F02813089F1823009F064C07F
:104A40000E9489050E94EB0585E991E00E94C80556
:104A500080E061E00E94D8058CE991E00E94C805E1
:104A600010926A02109269028091690290916A0222
:104A700080579741C8F30E9489050E94EB0589EE93
:104A800091E00E94C80580E061E00E94D80582EFB5
:104A900091E00E94C80510924F0236C00E94931107
:104AA000882329F00E94FB1A10924F022DC00E9409
:104AB00089050E94EB058BEC91E00E94C80580E01F
:104AC00061E00E94D80582ED91E00E94C805109235
:104AD0006A02109269028091690290916A0280577D
:104AE0009741C8F30E9489050E94EB0589EE91E089
:104AF0000E94C80580E061E00E94D80582EF91E045
:104B00000E94C80510924F021092860210928502F0
:104B1000EBE3F0E080818160808384E090E00E949C
:104B2000473080936B0210925B021092B4020F9098
:104B30000F90CF91DF911F910F91FF90EF90DF9039
:104B4000CF90BF90AF909F908F907F906F905F902D
:104B50004F903F902F9008952F923F924F925F92E7
:104B60006F927F928F929F92AF92BF92CF92DF927D
:104B7000EF92FF920F931F93DF93CF9300D000D05B
:104B800000D0CDB7DEB70E946D0B0E94F6100E94D8
:104B9000D80B0E94FD0B0E943B080E94DC0C0E9477
:104BA000CF0C0E944A1D0E94AB060E9489050E94FC
:104BB000D82D0E94700F0E941F2FEAE2F0E0808142
:104BC000806880838081806480830E94360980E6CB
:104BD0009AEE0197F1F78BEF91E00E94C80580E013
:104BE00061E00E94D80583E092E00E94C8050E941F
:104BF000F00678948FEF8093D30210926A0210929D
:104C000069028091690290916A02885E9340C8F3BC
:104C10008FEF8093D40210926A0210926902809101
:104C2000690290916A02885E9340C8F38FEF809387
:104C3000D50210926A0210926902809169029091E5
:104C40006A02885E9340C8F38FEF8093D602109279
:104C50006A02109269028091690290916A02885EEC
:104C60009340C8F38FEF8093DC0210926A02109297
:104C700069028091690290916A02885E9340C8F34C
:104C8000EBE3F0E080818160808310926A021092F1
:104C900069028091690290916A02885E9340C8F32C
:104CA000EBE3F0E080818260808310926A021092D0
:104CB00069028091690290916A02885E9340C8F30C
:104CC000E2E3F0E080818061808310926A021092BA
:104CD00069028091690290916A02885E9340C8F3EC
:104CE000E5E3F0E080818062808310926A02109296
:104CF00069028091690290916A02885E9340C8F3CC
:104D00000E94040610926A02109269028091690260
:104D100090916A02885E9340C8F30E940C0610923C
:104D20006A02109269028091690290916A02885E1B
:104D30009340C8F31092D30210926A021092690253
:104D40008091690290916A02885E9340C8F3109244
:104D5000D40210926A0210926902809169029091C5
:104D60006A02885E9340C8F31092D50210926A02DC
:104D7000109269028091690290916A02885E934064
:104D8000C8F31092D60210926A02109269028091C2
:104D9000690290916A02885E9340C8F3E5E3F0E00F
:104DA00080818F7D808310926A02109269028091C7
:104DB000690290916A02885E9340C8F3EBE3F0E0E9
:104DC00080818D7F808310926A02109269028091A7
:104DD000690290916A02885E9340C8F3EBE3F0E0C9
:104DE00080818E7F808310926A0210926902809186
:104DF000690290916A02885E9340C8F3E2E3F0E0B2
:104E000080818F7E808310926A0210926902809165
:104E1000690290916A02885E9340C8F310926A0218
:104E2000109269028091690290916A02885E9340B3
:104E3000C8F38091BB020E94090D88EE93E063E005
:104E400070E040E80E943D0D8AE092E00E94402F11
:104E500083E192E00E94402F88E191E00E94502F70
:104E600089E291E00E94502F0E94A42285E190E007
:104E70000E944F3064E670E00E94FA2F8AE590E0CD
:104E8000DC016A9FC0016B9F900D7A9F900D1124E9
:104E90009093C5028093C40210925B020E94090F96
:104EA0000E948D2F1092830210926A021092690262
:104EB0008091690290916A02885E9340C8F30F2E38
:104EC000FDE18F2EF2E09F2EF02D0F2EF6E26F2ED9
:104ED000F2E07F2EF02D0F2EF5E12F2EF0E03F2E89
:104EE000F02DEE24FF240F2EF5E0CF2EF0E0DF2E84
:104EF000F02D0F2EFBE3AF2EBB24F02D0F2EF7E984
:104F00004F2EF2E05F2EF02D0894411C511C809131
:104F1000660290916702892B11F40E941F14809100
:104F20005902882361F10E948905C4010E94C805C5
:104F300080E061E00E94D805C3010E94C80580910D
:104F40005902882391F088EE93E063E070E040E836
:104F50000E943D0D84EF91E063E070E040E80E9424
:104F60003D0D80915902882371F70E948D2F109278
:104F7000B4021092B70210925B020E94090F809156
:104F8000B4028823C1F18130A1F58091850290910E
:104F90008602892B19F180918502909186020197F2
:104FA00090938602809385028091660290916702B9
:104FB000029750F0E1E0F0E0F0936702E0936602C0
:104FC0008091CF028823E1F7C1010E944F30909376
:104FD0006702809366020E94B21008C08091660248
:104FE00090916702892B11F40E9435131092B4023C
:104FF00002C01092B4028091B702882309F441C024
:105000008130E9F580916B028823B1F180916602CD
:1050100090916702892B81F50E946E1380916B023B
:10502000815080936B0283E090E00E94473090E0D3
:1050300090938602809385020E94600F0E94520F17
:1050400087010DC0F0926A02E092690280916902C4
:1050500090916A0280549F41C8F30F5F1F4FC601B1
:105060000E94473090E00817190764F30E94591313
:10507000D5018C918E7F8C931092B70202C0109252
:10508000B702809173028230C1F1833009F485C088
:10509000813009F098C01092730280E00E94950C54
:1050A000882309F090C0E7E9F2E09081D2018C9169
:1050B000880F880F82958F70E6EEF8E0E80FF11DFB
:1050C000E4918C919983EB83829586958695837084
:1050D0008A83A8ECB2E0FE01319683E001900D9244
:1050E0008150E1F76091C8027091C9028091CA02B3
:1050F0000E94BB1D1092730266C01092730280E082
:105100000E94950C882309F445C00E94CE106C8340
:105110007D838E83A4E7B2E0FE01349683E00190A4
:105120000D928150E1F7E6E7F2E08081883E91F54B
:10513000A4E7B2E08C91833869F5E5E7F2E080817D
:10514000853041F58091660290916702029750F098
:1051500021E030E030936702209366028091CF0215
:105160008823E1F70E944A1D10925B021092B4025C
:105170001092B702109273020E94090FA2E3B0E0EE
:105180008C9180618C930E942213E2E3F0E0808195
:105190008F7E80831092730216C08091D00290910E
:1051A000D102892B71F48091CF02882351F4D5016B
:1051B0008C9181608C930E94D912F50180818E7F41
:1051C00080831092730280914502882311F00E941F
:1051D000CB1F80915B028330F9F0843028F481305A
:1051E00041F0823011F515C08430C9F08530E9F402
:1051F00019C08091D202882319F0813039F404C09B
:1052000081E08093D20202C01092D20210925B021F
:105210000EC010925B020BC010925B0208C010928D
:105220005B0205C010925B0202C010925B0280918B
:10523000B002882309F46BCE0E94520F8091B00215
:1052400081508093B00263CE1F920F920FB60F92DF
:1052500011242F933F938F939F93AF93BF93EF931B
:10526000FF9380B3847080933F0280913F02882334
:1052700051F480915C0290915D02019690935D02E1
:1052800080935C025CC08091CD029091CE02019629
:105290009093CE028093CD0280916802882399F189
:1052A00080917B0290917C022091CD023091CE02C0
:1052B000880F991F880F991F880F991F82179307CE
:1052C00010F5109268028091DA029091DB028E3024
:1052D000910519F0489749F404C081E08093730266
:1052E00007C082E08093730203C083E0809373025F
:1052F0001092840280915A02882329F4E9E5F0E0B3
:1053000080818F77808380917B0290917C022091B5
:10531000CD023091CE02880F991F880F991F880FF8
:10532000991F8217930758F480915A02882339F401
:1053300010928402E9E5F0E080818F77808380918C
:105340005A02813009F08BC080915E0290915F0219
:10535000892B89F0E5E3F0E0908180916202892752
:10536000808380915E0290915F02019790935F022B
:1053700080935E0274C0E5E3F0E080818F7B8083E0
:1053800080818F7780838091C6029091C702181622
:10539000190684F480818F7B808380818F7780835E
:1053A0008091C6029091C70201979093C7028093A3
:1053B000C60255C080916E0290916F02892BD1F187
:1053C00080916D02882339F4ECE6F2E080818F5FF2
:1053D000819380E88083ACE6B2E08D91E7EAF2E069
:1053E000E80FF11D80819C91892349F080917D0215
:1053F00090917E0290935F0280935E0208C080913C
:105400007B0290917C0290935F0280935E02809178
:105410008102909182029093C7028093C602EDE6CA
:10542000F2E08081869581938081918101979183BB
:10543000808315C010925A02E5E3F0E080818F7DF1
:1054400080838091B0028F5F8093B002809184024C
:10545000882329F4E9E5F0E080818F778083FF914C
:10546000EF91BF91AF919F918F913F912F910F90AD
:105470000FBE0F901F901895DF93CF9300D0CDB73C
:10548000DEB78091CF02882349F483E190E00E9447
:10549000473090E00E94ED0A8093CF02809166022F
:1054A00090916702019739F4CE0101960E94540B46
:1054B0001092CF0204C0CE0101960E94420B2091AF
:1054C0006602309167028091C4029091C50228174C
:1054D000390781F50E94380D813061F5B29B02C019
:1054E0001A8202C081E08A838A81813019F5809115
:1054F000BB028823F9F08091850290918602892B66
:10550000C9F080918502909186020197909386025E
:10551000809385020E94B210CE0101960E94540B26
:105520001092CF0285E190E00E944F309093670285
:105530008093660289810F900F90CF91DF9108953B
:105540001F920F920FB60F9211242F933F934F93F8
:105550005F936F937F938F939F93AF93BF93EF93DB
:10556000FF93DF93CF930F92CDB7DEB7E9E5F0E07D
:1055700080818F7E808378948091850290918602CD
:10558000892BC9F08091660290916702892B99F06E
:105590000E943C2A8CBF809166029091670201971D
:1055A00009F41CBE80916602909167020197909366
:1055B0006702809366028091850290918602892B12
:1055C000F1F4EBE3F0E080818160808380916602FA
:1055D00090916702892B99F00E943C2A8CBF8091A0
:1055E000660290916702019709F41CBE80916602E1
:1055F0009091670201979093670280936602809171
:105600003D0290913E0220913D0230913E0264E6BF
:1056100070E00E94FA2F84E690E0AC01649FC00124
:10562000659F900D749F900D11248217930709F0C8
:10563000BCC08091CB029091CC0201969093CC0299
:105640008093CB028091D0029091D102892B49F0B6
:105650008091D0029091D10201979093D1028093D2
:10566000D0028091B402882309F049C0B29B02C0E5
:10567000198202C081E089838981882319F08130F1
:10568000D1F51AC080919F029091A002049750F02A
:10569000EFE9F2E011821082329680818E7F808362
:1056A00081E02BC0EFE9F2E0118210823296808116
:1056B0008160808380E021C080919F029091A00250
:1056C000049750F0EFE9F2E0118210823296808167
:1056D0008E7F808381E011C0AFE9B2E0FD0181914E
:1056E000919120812170820F911D11969C938E9330
:1056F0008091B40202C08091B4028093B402809180
:10570000B702882309F049C0B09B02C0198202C0C9
:1057100081E089838981882319F08130D1F51AC00D
:105720008091A2029091A302049750F0E2EAF2E085
:1057300011821082329680818E7F808381E02BC01F
:10574000E2EAF2E0118210823296808181608083E9
:1057500080E021C08091A2029091A302049750F0B2
:10576000E2EAF2E011821082329680818E7F80839D
:1057700081E011C0A2EAB2E0FD0181919191208106
:105780002170820F911D11969C938E938091B70288
:1057900002C08091B7028093B70280915B02882398
:1057A00021F40E943B2E80935B0280913D029091F8
:1057B0003E02019690933E0280933D0280913D020D
:1057C00090913E02895E934008F461C010923E02BF
:1057D00010923D029091D30280912F02892331F4DF
:1057E000E5E3F0E08081877F808305C0E5E3F0E0BA
:1057F0008081886080839091D40280912F028923D8
:1058000031F4E5E3F0E080818F7E808305C0E5E33D
:10581000F0E08081806180839091D50280912F0299
:10582000892331F4E5E3F0E080818B7F808305C03C
:10583000E5E3F0E08081846080839091D6028091DE
:105840002F02892331F4E2E3F0E080818F778083B7
:1058500005C0E2E3F0E080818068808380912F02C0
:10586000880F80932F0280912F02882319F481E002
:1058700080932F02859B06C0EBE3F0E0808182607D
:10588000808305C0EBE3F0E080818D7F8083809191
:10589000B802882329F08091B1028CBF1092B8021F
:1058A00082991DC085991BC0809160029091610210
:1058B000805A9F4048F48091600290916102019665
:1058C00090936102809360028091600290916102E6
:1058D000805A9F4070F081E0809359020AC0109274
:1058E00061021092600280915902882311F0109297
:1058F00059028091690290916A02019690936A021E
:1059000080936902F894E9E5F0E08081806180830A
:105910000F90CF91DF91FF91EF91BF91AF919F9148
:105920008F917F916F915F914F913F912F910F9048
:105930000FBE0F901F9018951F920F920FB60F92E7
:1059400011242F933F934F935F936F937F938F9384
:105950009F93AF93BF93EF93FF93DF93CF930F92F8
:10596000CDB7DEB781E080937202198289818F5FA3
:1059700089830E94B8080F90CF91DF91FF91EF913A
:10598000BF91AF919F918F917F916F915F914F9157
:105990003F912F910F900FBE0F901F9018951F925F
:1059A0000F920FB60F9211242F933F934F935F9353
:1059B0006F937F938F939F93AF93BF93EF93FF93D7
:1059C000E9E5F0E080818068808381E08093840253
:1059D00005B600FC3BC0E5E5F0E080818160808396
:1059E00080916802882349F1E1E8F2E04081518129
:1059F0003897808191812091CD023091CE02840F21
:105A0000951F2817390780F4E1E8F2E08081918141
:105A10003897208131814091CD025091CE02821B76
:105A2000930B8417950748F0109268021092DB02DE
:105A30001092DA0283E08093730210925D0210925A
:105A40005C021092CE021092CD02A1C0E5E5F0E01A
:105A500080818E7F808380916802882309F468C0EA
:105A6000EBE7F2E040815181329780819181209172
:105A70005C0230915D02840F951F28173907F8F4F6
:105A8000EBE7F2E080819181329720813181409172
:105A90005C0250915D02821B930B8417950778F48A
:105AA0008091DA029091DB029C012F5F3F4F30938F
:105AB000DB022093DA0260E00E94100C60C0EDE788
:105AC000F2E04081518134978081918120915C0284
:105AD00030915D02840F951F28173907F8F4EDE720
