:100000000C94E7040C943A2D0C94072D0C940405E1
:100010000C9478290C9404050C9404050C94F42A8F
:100020000C9404050C9404050C9404050C9404052C
:100030000C9404050C941C300C9404050C94CA2FE9
:100040000C9404050C9404050C9404050C9404050C
:100050000C940405C221C521C821CB21CE21D12178
:10006000D421D721DA21DD21E021E321E621E92194
:10007000EC21EF21F221F521F821FB21FE210122C3
:10008000042207220A220D221022132216221922EC
:100090001C221F222222252228222B222E2231221C
:1000A000342237223A223D2240224322462249224C
:1000B0004C224F225222552258225B225E2261227C
:1000C000642267226A226D227022732276227922AC
:1000D0007C227F228222852288228B228E229122DC
:1000E00041A042A1E045A3A4A5A64BA74D484FA817
:1000F000504354A9AA58E1ABACE2ADAEADAFB0B13C
:1001000061B2B3B4E365B6B7B8B9BABBBCBD6FBE34
:100110007063BF79E478E5C0C1E6C2C3C4C5C6C791
:1001200062756C6C6574735F696E5F636C69703D5A
:100130000062756C6C6574735F696E5F636C697087
:100140003F0070726F746F636F6C3F00636C697017
:10015000733D00636C6970733F007072657061720B
:10016000655F746F5F77726974655F626C6F636BF4
:1001700000726561645F626C6F636B00736F756EB4
:10018000645F315F6164726573733D00736F756E98
:10019000645F315F6164726573733F00736F756E86
:1001A000645F315F73697A653D00736F756E645F7C
:1001B000315F73697A653F00736F756E645F325F9C
:1001C0006164726573733D00736F756E645F325F57
:1001D0006164726573733F00736F756E645F325F45
:1001E00073697A653D00736F756E645F325F736922
:1001F0007A653F00736F756E645F335F616472652B
:1002000073733D00736F756E645F335F6164726515
:1002100073733F00736F756E645F335F73697A65E4
:100220003D00736F756E645F335F73697A653F007D
:10023000736F756E645F345F6164726573733D00E4
:10024000736F756E645F345F6164726573733F00D2
:10025000736F756E645F345F73697A653D00736FA9
:10026000756E645F345F73697A653F00736F756E96
:10027000645F355F6164726573733D00736F756EA3
:10028000645F355F6164726573733F00736F756E91
:10029000645F355F73697A653D00736F756E645F87
:1002A000355F73697A653F00736F756E645F365FA3
:1002B0006164726573733D00736F756E645F365F62
:1002C0006164726573733F00736F756E645F365F50
:1002D00073697A653D00736F756E645F365F73692D
:1002E0007A653F00706C61795F736F756E64007042
:1002F0006C61795F73686F745F736F756E640070A3
:100300006C617965725F69643D00706C61796572DA
:100310005F69643F0064616D6167655F696E646514
:10032000783D0064616D6167655F696E6465783F03
:100330000069725F706F7765723D0069725F706F00
:100340007765723F00667269656E646C795F666995
:1003500072653D00667269656E646C795F6669728C
:10036000653F007465616D5F69643D007465616D32
:100370005F69643F00626174745F66756C6C5F7680
:100380006F6C746167653D00626174745F66756C63
:100390006C5F766F6C746167653F00626174745F57
:1003A0006C6F775F766F6C746167653D0062617436
:1003B000745F6C6F775F766F6C746167653F007315
:1003C0006F756E645F375F6164726573733D007350
:1003D0006F756E645F375F6164726573733F00733E
:1003E0006F756E645F375F73697A653D00736F7513
:1003F0006E645F375F73697A653F00736F756E6413
:100400005F385F6164726573733D00736F756E640E
:100410005F385F6164726573733F00736F756E64FC
:100420005F385F73697A653D00736F756E645F381E
:100430005F73697A653F00736F756E645F395F61E2
:1004400064726573733D00736F756E645F395F61CD
:1004500064726573733F00736F756E645F395F73A9
:10046000697A653D00736F756E645F395F73697A91
:10047000653F00736F756E645F31305F61647265F4
:1004800073733D00736F756E645F31305F616472CA
:100490006573733F00736F756E645F31305F7369AE
:1004A0007A653D00736F756E645F31305F73697A92
:1004B000653F0069725F636172726965725F66723F
:1004C000657175656E63793D0069725F6361727213
:1004D0006965725F6672657175656E63793F006309
:1004E0006C6561725F746D0072656C6F61645F64EE
:1004F00075726174696F6E3D0072656C6F61645FE7
:100500006475726174696F6E3F006C6966655F61E6
:10051000667465725F73746172743D006C696665C0
:100520005F61667465725F73746172743F0020016D
:10053000310142014C0153015A0171017C018C01CE
:100540009C01AA01B801C801D801E601F401040226
:10055000140222023002400250025E026C027C024F
:100560008C029A02A802B802C802D602E402EF0284
:10057000FF020A031503230331033B03450354031E
:1005800063036C03750388039B03AD03BF03CF03B1
:10059000DF03ED03FB030B041B04290437044704AA
:1005A00057046504730484049504A404B304C904C3
:1005B000DF04E804F9040A051C054552524F523A7B
:1005C000756E6B6E6F776E20636F6D6D616E640D0F
:1005D0000A004552524F520D0A004552524F523AAC
:1005E000706172616D65746572206973206E6F74DD
:1005F000207370656369666965640D0A004552522F
:100600004F523A706172616D65746572206F7574D6
:10061000206F662072616E67650D0A004552524F69
:10062000523A696E76616C696420706172616D65C1
:100630007465720D0A000D0A4F4B0D0A00CAEEEBED
:10064000E8F7E5F1F2E2EE20EFE0F2F0EEEDEEE2B7
:1006500020E220ECE0E3E0E7E8EDE53B696E74289A
:10066000302C3930293B62756C6C6574735F696E30
:100670005F636C69703F3B62756C6C6574735F6936
:100680006E5F636C69703D0D0ACCE0E3E0E7E8ED76
:10069000EEE23B696E7428302C313030293B636CBC
:1006A0006970733F3B636C6970733D0D0AC8E4E584
:1006B000EDF2E8F4E8EAE0F2EEF020E8E3F0EEEA4A
:1006C000E03B696E7428302C313237293B706C6105
:1006D0007965725F69643F3B706C617965725F69CF
:1006E000643D0D0AD6E2E5F220EAEEECE0EDE4FB33
:1006F0003B656E756D28CAF0E0F1EDE0FF2CD1E8A6
:10070000EDFFFF2CC6E5EBF2E0FF2CC7E5EBE5EDD6
:10071000E0FF293B7465616D5F69643F3B7465610F
:100720006D5F69643D0D0ACDE0EDEEF1E8ECFBE9AB
:1007300020F3F0EEED3B656E756D2831252C3225EA
:100740002C34252C35252C37252C3130252C3135D2
:10075000252C3137252C3230252C3235252C3330C1
:10076000252C3335252C3430252C3530252C3735A8
:10077000252C31303025293B64616D6167655F69E7
:100780006E6465783F3B64616D6167655F696E6447
:1007900065783D0D0AC4F0F3E6E5F1F2E2E5EDED32
:1007A000FBE920EEE3EEEDFC3B656E756D28CDE5D3
:1007B000F22CC4E0293B667269656E646C795F66F1
:1007C0006972653F3B667269656E646C795F6669E4
:1007D00072653D0D0AC6E8E7EDFC20EFEEF1EBE5B2
:1007E00020F1F2E0F0F2E03B696E7428302C3130F9
:1007F00030293B6C6966655F61667465725F73740E
:100800006172743F3B6C6966655F61667465725FB7
:1008100073746172743D0D0ACCEEF9EDEEF1F2FCE9
:1008200020C8CA20E8E7EBF3F7E5EDE8FF3B656E8B
:10083000756D28C4EBFF20E8E3F0FB20E220EFEE2B
:10084000ECE5F9E5EDE8E82CC4EBFF20E8E3F0FB8C
:1008500020EDE020F3EBE8F6E5293B69725F706F6D
:100860007765723F3B69725F706F7765723D0D0A05
:10087000D7E0F1F2EEF2E020EDE5F1F3F9E5E92061
:10088000C8CA20F1E8E3EDE0EBE03B656E756D284A
:10089000333620EAC3F62C353620EAC3F6293B6905
:1008A000725F636172726965725F667265717565A8
:1008B0006E63793F3B69725F636172726965725FF3
:1008C0006672657175656E63793D0D0AC2F0E5EC7F
:1008D000FF20EFE5F0E5E7E0F0FFE4E03B696E7450
:1008E00028302C38293B72656C6F61645F647572C7
:1008F0006174696F6E3F3B72656C6F61645F6475B4
:10090000726174696F6E3D0D0ACDE0EFF0FFE6E5B0
:10091000EDE8E520E7E0F0FFE62E20E1E0F2E0F090
:10092000E5E820ECC23B696E7428333030302C345B
:1009300035303030293B626174745F66756C6C5F72
:10094000766F6C746167653F3B626174745F667556
:100950006C6C5F766F6C746167653D0D0ACDE0EF7E
:10096000F0FFE6E5EDE8E520F0E0E7F0FFE62E2019
:10097000E1E0F2E0F0E5E820ECC23B696E74283279
:100980003730302C3435303030293B626174745F3D
:100990006C6F775F766F6C746167653F3B62617403
:1009A000745F6C6F775F766F6C746167653D0D0A7D
:1009B000003031323334353637383900010204051E
:1009C000070A0F1114191E2328324B6424381124EE
:1009D0001FBECFE5D8E0DEBFCDBF12E0A0E6B0E09D
:1009E000ECEBF1E602C005900D92A033B107D9F708
:1009F00014E0A0E3B2E001C01D92AF3DB107E1F702
:100A00000E94A5250C94DC300C940000E7E3F0E094
:100A1000808180628083808180688083808180641F
:100A20008083E8E3F0E080818F7D808380818F7711
:100A3000808380818F7B80830895DF93CF9300D064
:100A4000CDB7DEB78A8380E8898320E030E0E8E331
:100A5000F0E099818A81892321F480818F7D8083D0
:100A600003C08081806280838081806880838081F0
:100A70008F7780838981869589832F5F3F4F2830C8
:100A8000310539F7E8E3F0E080818F7B8083808156
:100A9000806480830F900F90CF91DF91089580E064
:100AA0000E941D05089580914E02846080934E023D
:100AB0000E941D0580914E028B7F80934E020E9402
:100AC0001D0508951F93982F662331F080914E02E3
:100AD000826080934E0205C080914E028D7F80938C
:100AE0004E02992334F480914E02806480934E022A
:100AF00005C080914E028F7B80934E02192F96FF86
:100B000006C080914E02806280934E0205C08091A3
:100B10004E028F7D80934E0215FF06C080914E02DB
:100B2000806180934E0205C080914E028F7E80933B
:100B30004E0214FF06C080914E02886080934E02E0
:100B400005C080914E02877F80934E0280914E02B5
:100B50000E941D050E94530580E49FE10197F1F773
:100B600013FF06C080914E02806480934E0205C040
:100B700080914E028F7B80934E0212FF06C08091BF
:100B80004E02806280934E0205C080914E028F7D9E
:100B900080934E0211FF06C080914E0280618093C7
:100BA0004E0205C080914E028F7E80934E0210FF50
:100BB00006C080914E02886080934E0205C08091ED
:100BC0004E02877F80934E0280914E020E941D0547
:100BD0000E94530580E49FE10197F1F71F9108956A
:100BE00060E00E946205089581E00E94F00508958A
:100BF00061E00E9462050895806180934E020E9428
:100C0000530580EE9EE20197F1F70895DF93CF93AD
:100C10000F92CDB7DEB78A3071F480913C028034F8
:100C200018F480E4898301C01982898180580E9468
:100C3000F00589810FC0803C28F0E82FF0E0E05EED
:100C4000FF4F849161E00E94620580913C028F5FBA
:100C500080933C020F90CF91DF910895CF93DF9363
:100C6000FC018081882339F0EF010E94060689810A
:100C700021968823D1F7DF91CF9108951F93182FE4
:100C8000662331F480580E94F00510933C0207C09F
:100C900080540E94F005812F805C80933C021F915C
:100CA000089582E00E94F00582E080933C0208955E
:100CB00080914E02806880934E020E941D05089527
:100CC00080914E028F7780934E020E941D050895F9
:100CD00080E40E94F0058EE00E94F80581E10E9408
:100CE000F80581E10E94F80581E10E94F80581E1A3
:100CF0000E94F80581E10E94F8058FE10E94F80545
:100D000080E00E94F8058EE00E94F80581E10E94D3
:100D1000F80581E10E94F80581E10E94F80581E172
:100D20000E94F8058FE10E94F8058FE10E94F80506
:100D300080E00E94F8058EE00E94F80581E10E94A3
:100D4000F80581E10E94F80581E10E94F8058FE134
:100D50000E94F8058FE10E94F8058FE10E94F805D6
:100D600080E00E94F8058EE00E94F80581E10E9473
:100D7000F80581E10E94F8058FE10E94F8058FE1F6
:100D80000E94F8058FE10E94F8058FE10E94F805A6
:100D900080E00E94F8058EE00E94F80581E10E9443
:100DA000F8058FE10E94F8058FE10E94F8058FE1B8
:100DB0000E94F8058FE10E94F8058FE10E94F80576
:100DC00080E00E94F8058EE00E94F8058FE10E9405
:100DD000F8058FE10E94F8058FE10E94F8058FE188
:100DE0000E94F8058FE10E94F8058FE10E94F80546
:100DF00080E00E94F80580E80E94F00508950E94B6
:100E000006050E944F0510924E0210923C022EEBF6
:100E100030E040E951E0CA010197F1F7215030403C
:100E2000D1F70E94060524EB30E040E951E0CA0109
:100E30000197F1F721503040D1F788E00E94FC057E
:100E40000E9453050E94530580E00E94FC0588E241
:100E50000E94F00588E00E94F00581E00E94F00504
:100E600084E00E94F0058CE00E94F00586E00E947C
:100E7000F0050E946806089580E40E94F0058EE067
:100E80000E94F8058FE10E94F8058FE10E94F805A5
:100E90008FE10E94F8058FE10E94F8058FE10E9422
:100EA000F8058FE10E94F80580E00E94F80580E0D7
:100EB0000E94F80580E00E94F8058AE00E94F8058B
:100EC0008FE10E94F8058EE00E94F80584E00E9400
:100ED000F80580E00E94F80580E00E94F80586E0B1
:100EE0000E94F8058FE00E94F8058FE00E94F80547
:100EF0008FE00E94F8058FE00E94F80586E00E94CE
:100F0000F8058FE00E94F80580E00E94F8058EE069
:100F10000E94F8058AE10E94F8058EE10E94F8051A
:100F20008AE10E94F8058EE10E94F8058AE10E949C
:100F3000F8058FE00E94F80580E00E94F80586E041
:100F40000E94F80589E00E94F80586E00E94F805F5
:100F50008FE00E94F8058FE40E94F8058FE00E9460
:100F6000F80586E00E94F80586E00E94F80580E119
:100F70000E94F8058FE10E94F8058FE10E94F805B4
:100F80008FE10E94F80580E10E94F80580E10E944F
:100F9000F80580E10E94F80580E10E94F80580E8EC
:100FA0000E94F00508951F93182F80E40E94F00519
:100FB000123009F444C0133030F4112371F01130B1
:100FC00009F0A0C023C0143009F46BC0143008F439
:100FD0004FC0153009F096C07DC08EE00E94F80524
:100FE00081E10E94F80581E10E94F80581E10E94FB
:100FF000F80581E10E94F80581E10E94F8058FE182
:101000000E94F80580E00E94F8057CC08EE00E94F6
:10101000F80581E10E94F80581E10E94F80581E16F
:101020000E94F80581E10E94F8058FE10E94F80511
:101030008FE10E94F80580E00E94F80563C08EE011
:101040000E94F80581E10E94F80581E10E94F805FF
:1010500081E10E94F8058FE10E94F8058FE10E946E
:10106000F8058FE10E94F80580E00E94F8054AC06B
:101070008EE00E94F80581E10E94F80581E10E945E
:10108000F8058FE10E94F8058FE10E94F8058FE1D5
:101090000E94F8058FE10E94F80580E00E94F805A3
:1010A00031C08EE00E94F80581E10E94F8058FE1D1
:1010B0000E94F8058FE10E94F8058FE10E94F80573
:1010C0008FE10E94F8058FE10E94F80580E00E9400
:1010D000F80518C08EE00E94F8058FE10E94F8051F
:1010E0008FE10E94F8058FE10E94F8058FE10E94D0
:1010F000F8058FE10E94F8058FE10E94F80580E075
:101100000E94F80580E80E94F0051F910895109252
:101110007202E1E3F0E08081877F8083E2E3F0E028
:101120008081877F8083E5E5F0E08081886080832F
:1011300080818B7F8083EBE5F0E080818068808315
:1011400010924F020895382F20E0E1E3F0E0A8E18B
:10115000B1E060E570E040E451E030FF0AC080811A
:10116000886080838081877F8083CA010197F1F73F
:101170000CC0808188608083CD010197F1F7808168
:10118000877F8083CB010197F1F72F5F283011F023
:101190003695E3CF089530E020E0E1E3F0E064E14C
:1011A00070E0A0E3B0E040E253E08081886080839B
:1011B0008081877F8083CB010197F1F78C918870C4
:1011C0008093460226958091460281112068CA01CB
:1011D0000197F1F73F5F383041F7822F0895282FAC
:1011E00090E038E1862F822780FF06C0822F832778
:1011F0008695282F206801C026959F5F983011F0B2
:101200006695F0CF822F0895CF93DF9380914F02A0
:10121000882309F06FC080E098E00197F1F7E1E3DF
:10122000F0E080818860808380E897E00197F1F7A3
:101230008081877F80838CE190E00197F1F7839B29
:1012400059C080E491E00197F1F7839953C080EC95
:1012500093E00197F1F7839B4DC080E897E00197F9
:10126000F1F783E30E94A3080E94CB088093500209
:10127000809150028823F1F16091500280E00E9439
:10128000EF0880934D0210925202809152028630F4
:10129000F8F4C7E4D2E00E94CB0880935102809119
:1012A000520290915102FE01E80FF11D908380914E
:1012B0004D02609151020E94EF0880934D0280918F
:1012C00052028F5F8093520280915202863018F34F
:1012D0000E94CB08809352029091520280914D025D
:1012E000981721F082E080934F0204C081E0809340
:1012F0004F0205C0EAE5F0E0808180688083DF91DD
:10130000CF910895E0E2F0E08CE0808380818A3024
:1013100010F48AE080B9E1E2F0E080818C7F808384
:1013200008950F931F93CF93DF938C01E6E5F0E0D0
:1013300034EAA1E2B0E0C3E2D0E020EA94E83083EE
:1013400080818823ECF78C91887F883009F048C031
:101350002883908380818823ECF78C91887F883163
:1013600071F773B984E886BFE6E5F0E080818823F1
:10137000ECF781B1887F883299F563B984E886BF3C
:10138000E6E5F0E080818823ECF781B1887F883240
:1013900039F541155105D9F020E030E0C3E2D0E045
:1013A000E6E5F0E094E861E270E0D8018D918D010E
:1013B0008883908380818823ECF7DB018C91887F80
:1013C000883271F42F5F3F4F2417350770F384E99B
:1013D00086BFE6E5F0E0808184FDFDCF81E001C0BD
:1013E00080E0DF91CF911F910F9108950F931F938C
:1013F000CF93DF938C01E6E5F0E034EAA1E2B0E0C0
:10140000C3E2D0E020EA94E8308380818823ECF7BF
:101410008C91887F883009F071C028839083808107
:101420008823ECF78C91887F883171F773B984E851
:1014300086BFE6E5F0E080818823ECF781B1887F04
:10144000883209F05BC063B984E886BFE6E5F0E066
:1014500080818823ECF781B1887F883209F04EC003
:1014600084EA86BFE6E5F0E080818823ECF781B16D
:10147000887F803109F042C081EA83B984E886BF61
:10148000E6E5F0E080818823ECF781B1887F803445
:10149000A9F541505040D9F020E030E0E6E5F0E019
:1014A00094EC61E270E0C3E2D0E090838081882315
:1014B000ECF7DB018C91887F803501F58881D801BC
:1014C0008D938D012F5F3F4F2417350770F384E80C
:1014D00086BFE6E5F0E080818823ECF781B1887F64
:1014E000883561F483B1F801808384E986BFE6E53D
:1014F000F0E0808184FDFDCF81E001C080E0DF91DC
:10150000CF911F910F910895CF93DF93582FE6E568
:10151000F0E044EAA1E2B0E0C3E2D0E030EA24E83F
:10152000408380818823ECF78C91887F8830E1F5B7
:101530003883208380818823ECF78C91887F8831E1
:1015400079F793B984E886BFE6E5F0E080818823E7
:10155000ECF781B1887F883239F553B984E886BFCA
:10156000E6E5F0E080818823ECF781B1887F88325E
:10157000D9F484EA86BFE6E5F0E080818823ECF7C1
:1015800081B1887F803181F481EA83B984E886BFA4
:10159000E6E5F0E080818823ECF781B190E0887F78
:1015A000803419F491E001C090E0892FDF91CF9150
:1015B0000895DC0184EC86BFE6E5F0E080818823B5
:1015C000ECF781B1887F803511F080E0089583B118
:1015D0008C9381E00895DC0184E886BFE6E5F0E0C5
:1015E00080818823ECF781B1887F883511F080E015
:1015F000089583B18C9384E986BFE6E5F0E08081AD
:1016000084FDFDCF81E00895CF93DF93E4E3F0E024
:101610008081806280834AE350E0DA018C918260AD
:101620008C93808180648083A5E3B0E08C918F7B74
:101630008C938081806880838C918F778C9380815C
:1016400088608083808180618083808184608083E2
:1016500021E330E0E901888180688883E7E3F0E0F6
:10166000808188608083808180618083A8E3B0E08E
:101670008C9180618C93EA0188818160888380816C
:10168000846080838C918B7F8C93E9018881806159
:10169000888388818B7F888380818E7F80838C91F3
:1016A00081608C9380818B7F80838C9184608C930C
:1016B00080818D7F80838C9182608C93E2E3F0E067
:1016C00080818F7D8083FA0180818F778083EBE337
:1016D000F0E080818F778083DF91CF9108958091B2
:1016E00077029091780268EE73E00E945F3080E4A8
:1016F0009FE10E945F30615063BD89E085BDE9E5EF
:10170000F0E080818F7780830895809177029091B7
:10171000780268EE73E00E945F3080E49FE10E94EF
:101720005F30615063BD0895E1E3F0E080818B7F1D
:101730008083E5E5F0E080818260808380818E7F18
:101740008083EBE5F0E08081806480830895982FAA
:10175000969596959695E92FF0E09F01220F331FFD
:10176000220F331F220F331F821B662389F0E95695
:10177000FD4F408127E030E0281B310981E090E0F7
:1017800002C0880F991F2A95E2F7482B40830895DD
:10179000E956FD4F408127E030E0281B310981E008
:1017A00090E002C0880F991F2A95E2F78095842364
:1017B00080830895982F969596959695E92FF0E059
:1017C0009F01220F331F220F331F220F331F821B53
:1017D000662389F0E254FD4F408127E030E0281B6A
:1017E000310981E090E002C0880F991F2A95E2F745
:1017F000482B40830895E254FD4F408127E030E0BC
:10180000281B310981E090E002C0880F991F2A95BA
:10181000E2F78095842380830895E7EAF2E08083ED
:1018200080818F7780830895E8EAF2E090819F734A
:10183000908390818295880F880F807C892B80838C
:101840000895E8EAF2E09081937C90839081880F7C
:10185000880F892B80830895482F282F2695269559
:10186000269530E0F901E956FD4F808190E0220F86
:10187000331F220F331F220F331F421B27E030E09C
:10188000241B310902C0959587952A95E2F781704E
:101890000895482F282F26952695269530E0F901A2
:1018A000E254FD4F808190E0220F331F220F331F3F
:1018B000220F331F421B27E030E0241B310902C0F6
:1018C000959587952A95E2F78170089580E88CBFF9
:1018D000E3E5F0E088E4808380818160808380811B
:1018E000806280830895AFE4B0E08C918E7F8C930A
:1018F0008C918D7F8C93EEE4F0E080818860808312
:1019000080818F7E80838C918F7B8C938C918F775D
:101910008C9380818F7E808380818F7D8083808186
:101920008E7F808380818260808380818B7F8083B3
:1019300089EF8ABDE9E5F0E08081806180830895C8
:10194000982FA5EDB2E0FD0111921082FD013296B3
:10195000108213961C928695482F50E01416150697
:1019600074F420E030E065ED72E08FEFFB01E20FF0
:10197000F31F80832F5F3F4F24173507BCF39A0175
:10198000220F331F892F90E0821B930B1816190624
:101990002CF4FA01EB52FD4F8CEC8083089586B352
:1019A0008695809581700895EF92FF920F931F9313
:1019B000CF93DF93FC01062FF72E142F8FE0E13A2F
:1019C000F80708F04EC0C091B602D091B7028FEF71
:1019D0009FEF9093B7028093B60280EA9FE0BF0129
:1019E0000E945F30E62E802F9F2D9C01213A310509
:1019F00010F020EA30E0CF016AE070E00E945F3032
:101A0000269FA001279F500D369F500D1124411590
:101A1000510519F1E0E0F0E0ACE5B0E06E2D70E0CA
:101A20009B011C9310926A021092690280916902D4
:101A300090916A0286179707C8F31C9210926A0267
:101A4000109269028091690290916A02821793074D
:101A5000C8F33196E417F50720F3D093B702C0938B
:101A6000B602DF91CF911F910F91FF90EF900895F3
:101A70008F929F92AF92BF92CF92DF92EF92FF929E
:101A80000F931F93DF93CF9300D0CDB7DEB7D62E41
:101A90008983662329F422E030E043E050E007C068
:101AA000462F50E09A01215030400AF476C00F2EA4
:101AB000F1EBEF2EF9E0FF2EF02D06E312E0898125
:101AC0006AE00E9453309A8389810E94533089834F
:101AD0008A81F701E80FF11DE491D801A20FB31F2D
:101AE000EC93215030405AF7FA01EA5CFD4F108226
:101AF000DD2009F041C00F2EF6E3CF2EF2E0DF2EFD
:101B0000F02D56010894A11CB11C07E312E0480116
:101B1000089481089108B4016E5F7F4FA4014D5F66
:101B20005F4F94012C5F3F4FD40115960F2EF6E0C6
:101B3000EF2EFF24F02DE80CF91CF6018081F50151
:101B400090818033C9F49923B9F0F8018081F401C0
:101B50008083FB018081F8018083FA018081FB0191
:101B60008083F9018081FA0180838C91F90180835F
:101B7000F70180818C93E1CF86E392E00F900F9084
:101B8000CF91DF911F910F91FF90EF90DF90CF9059
:101B9000BF90AF909F908F900895FA01EA5CFD4F3F
:101BA0001082EACF8F929F92AF92BF92CF92DF9234
:101BB000EF92FF920F931F93DF93CF9300D000D04B
:101BC000CDB7DEB7462F9A838983662341F404E0BC
:101BD00010E00F2EF5E0EF2EFF24F02D07C0E62ECB
:101BE000FF248701015010400AF488C00F2EF1EB4A
:101BF000AF2EF9E0BF2EF02D0F2EF0E3CF2EF2E046
:101C0000DF2EF02D89819A816AE070E00E945F30BA
:101C1000282F392F3C832B8389819A816AE070E0D9
:101C20000E945F30862F972F9A8389838B819C81B6
:101C3000F501E80FF91FE491D601A00FB11FEC9355
:101C400001501040FAF6F701E05DFD4F1082442389
:101C500009F041C00F2EF0E3CF2EF2E0DF2EF02D81
:101C600056010894A11CB11C01E312E0480108943C
:101C700081089108B4016E5F7F4FA4014D5F5F4FF3
:101C800094012C5F3F4FD40115960F2EF6E0EF2EF6
:101C9000FF24F02DE80CF91CF6018081F5019081FC
:101CA0008033C9F49923B9F0F8018081F40180836D
:101CB000FB018081F8018083FA018081FB01808330
:101CC000F9018081FA0180838C91F9018083F70109
:101CD00080818C93E1CF80E392E00F900F900F9082
:101CE0000F90CF91DF911F910F91FF90EF90DF90B8
:101CF000CF90BF90AF909F908F900895F701E05DD7
:101D0000FD4F1082E8CF0E94F40581E00E94060694
:101D10008091B40260E00E94380D0E942E0687E098
:101D200060E00E943E0680E00E94060680E061E0DE
:101D30000E943E0682E00E940606809185029091F4
:101D4000860263E00E94380D0E942E068FE20E94F8
:101D5000060685E061E00E943E0683E00E940606DA
:101D600080916B0262E00E94380D0E942E0680E690
:101D700090E00E942E06089581E060E00E943E06F9
:101D80008091B40263E00E94380D0E942E060895EF
:101D900081E061E00E943E0680918502909186027A
:101DA00063E00E94380D0E942E06089586E061E0EF
:101DB0000E943E0680916B0262E00E94380D0E94F4
:101DC0002E0680E690E00E942E06089580EC87B9EA
:101DD00087E886B90895E7E2F0E090818770892B63
:101DE0008083E6E2F0E0808180648083808184FFEC
:101DF000FDCFE6E2F0E080818061808324B135B1DF
:101E0000822F932F0895FF920F931F93DF93CF9309
:101E100000D00F92CDB7DEB7162F6983072F7A83D4
:101E20008B83F82E0E94F4050E94510682E690E012
:101E30000E942E068F2D60E00E94380D0E942E0613
:101E400080E061E00E943E0684E00E940606812F49
:101E500060E00E94380D0E942E0685E061E00E943D
:101E60003E0685E00E940606802F60E00E94380D45
:101E70000E942E060F900F900F90CF91DF911F912F
:101E80000F91FF900895843321F1853360F48133FD
:101E9000C1F0823318F4803341F515C08233A9F0C4
:101EA000833319F514C08733D1F0883328F4853390
:101EB00091F08633D1F411C0883399F08933A9F4B5
:101EC00012C081E0089580E0089582E0089583E0E3
:101ED000089584E0089585E0089586E0089587E0F8
:101EE000089588E0089589E0089585E50895CF93E1
:101EF000DF93582FE6E5F0E044EAA1E2B0E0C3E268
:101F0000D0E030EA24E8408380818823ECF78C918C
:101F1000887F883009F083C03883208380818823BC
:101F2000ECF78C91887F883171F793B984E886BF8C
:101F3000E6E5F0E080818823ECF781B1887F883284
:101F400009F06DC053B984E886BFE6E5F0E0808112
:101F50008823ECF781B1887F883209F060C084EA79
:101F600086BFE6E5F0E080818823ECF781B1887FC9
:101F7000803109F054C081EA83B984E886BFE6E580
:101F8000F0E080818823ECF781B1887F803409F00C
:101F900046C06150704001F120E030E0E6E5F0E03D
:101FA00094ECA1E2B0E0C3E2D0E041E09083808114
:101FB0008823ECF78C91887F803589F58091BA026F
:101FC0008823E1F788818093B1024093BA022F5FA2
:101FD0003F4F2617370750F384E886BFE6E5F0E069
:101FE00080818823ECF781B1887F8835C1F48091A6
:101FF000BA028823E1F783B18093B10281E0809334
:10200000BA0284E986BFE6E5F0E0808184FDFDCF79
:102010001CBE1092B1021092BA0281E001C080E0B1
:10202000DF91CF910895ECE6F2E0119280E8808391
:10203000EFE7F2E08191919190935F0280935E02CD
:10204000808191819093C9028093C802089580E5B0
:1020500090E09093D3028093D2020E9413108EE0FE
:1020600090E090936F0280936E0281E080935A0219
:10207000E9E5F0E0808180688083E5E3F0E080813D
:10208000806280830895DF93CF9300D00F92CDB705
:10209000DEB7A7E9B2E0FD016191708112968C91E3
:1020A00090E00F900F900F90CF91DF910895DF9304
:1020B000CF9300D00F92CDB7DEB7AEEBB2E0FD010B
:1020C0006191708112968C9190E00F900F900F901B
:1020D000CF91DF91089582E190E00E94AC30882397
:1020E00019F08130C9F40CC0E7E7F2E080EA9CE81F
:1020F0009183808332968CE090E09183808317C037
:10210000E7E7F2E080EC9AED91838083329683E1F9
:1021100090E0918380830BC0E7E7F2E080EA9CE8DF
:102120009183808332968CE090E09183808327E7CF
:1021300032E0F9018081918168EE73E00E945F30A6
:10214000CB01880F991F860F971F880F991F65E095
:1021500070E00E945F30862F972F349691838083A2
:10216000F9018081918168EE73E00E945F30CB01BC
:10217000880F991F860F971F880F991F880F991F27
:1021800065E070E00E945F30862F972F369691832E
:102190008083F9018081918168EE73E00E945F3055
:1021A000CB01880F991F860F971F880F991F880FE3
:1021B000991F880F991F65E070E00E945F30862F9D
:1021C000972F389691838083F9018081918168EE01
:1021D00073E00E945F30CB01880F991F860F971F15
:1021E000880F991F65E070E00E945F30862F972F5F
:1021F000265F3F4FF901918380830895EF92FF920C
:102200001F93CF93DF9310925B021092B90210924A
:10221000B5028CE390E00E94AC30182F0E94F405C8
:1022200088E00E94F0058CE00E94F00588E690E0CE
:102230000E942E0680E061E00E943E06112329F0F4
:1022400081E790E00E942E0604C085E790E00E949E
:102250002E0689E790E00E942E06C1E7D0E00F2EFF
:10226000F5E7EF2EF0E0FF2EF02D21C08091B902AE
:10227000813021F08091B5028130C1F78091B502A3
:102280008130A9F41092B502112349F080E061E099
:102290000E943E06C7010E942E0610E008C080E0A2
:1022A00061E00E943E06CE010E942E0611E0809160
:1022B000B9028130D9F61092B9028CE390E00E9405
:1022C000AC30181759F00E94F4058FE790E00E9497
:1022D0002E068CE390E0612F0E94BA30DF91CF91FF
:1022E0001F91FF90EF900895DF92EF92FF920F936E
:1022F0001F93CF93DF9310925B021092B90210925A
:10230000B5028AE090E00E94AC30182F0E94F405DC
:1023100088E00E94F0058CE00E94F00588E890E0DB
:102320000E942E0680E061E00E943E06103429F4EF
:1023300081E990E00E942E0606C0103821F486E95B
:1023400090E00E942E068BE990E00E942E06C6E9DE
:10235000D0E000E80F2EF1E9EF2EF0E0FF2EF02D97
:10236000DD246894D6F821C08091B902813021F033
:102370008091B5028130C1F78091B5028130A9F416
:102380001092B502103849F480E061E00E943E06E8
:10239000C7010E942E061D2D08C080E061E00E944A
:1023A0003E06CE010E942E06102F8091B902813088
:1023B000D9F61092B9028AE090E00E94AC3018176A
:1023C00059F00E94F4058FE790E00E942E068AE003
:1023D00090E0612F0E94BA30DF91CF911F910F9151
:1023E000FF90EF90DF900895AF92BF92CF92DF926F
:1023F000EF92FF920F93CF93DF937C01EB016A0181
:10240000A22E10925B021092B9021092B502CB017B
:102410000E94AC30082FF601E80FF11DB4900E9425
:10242000F40588E00E94F0058CE00E94F005C701E9
:102430000E942E0680E061E00E943E068B2D63E044
:102440000E94380D0E942E0689E790E00E942E0619
:1024500021C08091B502813021F08091B902813094
:10246000C1F78091B5028130A9F40A1510F000E09F
:1024700001C00F5F1092B50280E061E00E943E064D
:10248000F601E00FF11DE4918E2F63E00E94380DFC
:102490000E942E068091B9028130D9F61092B902BD
:1024A000CE010E94AC30081751F00E94F4058FE76E
:1024B00090E00E942E06CE01602F0E94BA30DF917C
:1024C000CF910F91FF90EF90DF90CF90BF90AF90A2
:1024D00008955F926F927F928F929F92AF92BF9278
:1024E000CF92DF92EF92FF920F931F93DF93CF93E0
:1024F0000F92CDB7DEB78C015B01E42E19821092EA
:10250000B9021092B502CB010E94AC30FE2C8E15A0
:1025100008F4F82E0E94F40588E00E94F0058DE092
:102520000E94F005C8010E942E0680E061E00E9432
:102530003E068F2D63E00E94380D0E942E0680EA31
:1025400090E00E942E0684E061E00E943E068981B0
:10255000882309F019C18F2D64E60E945330C82EDC
:10256000482F50E09A01220F331FCA01880F991F8C
:10257000880F991F880F991F280F391F8F2D6AE028
:102580000E945330082F021B8CE99FEF9C01429F51
:10259000C001439F900D529F900D11244F2D480F65
:1025A000802F90E09C01220F331F880F991F880F06
:1025B000991F880F991F280F391FD42ED21A8E2DDC
:1025C00064E60E945330682E772414E00F2EF4E660
:1025D0005F2EF02D8E2C99240F2EFAE0EF2EF02D89
:1025E0008091B902882321F48091B5028130C1F72E
:1025F0001130D1F1113038F0123009F479C01430B3
:1026000009F0BAC0ABC08091B902813031F484E0E6
:1026100061E00E943E0614E0AFC08091B5028130B7
:1026200009F0AAC08C2D90E001966816790614F482
:10263000CC2401C0C3940E9DC00111242D2D280F60
:10264000C59CC0011124F22EF80E80E061E00E94CA
:102650003E068F2D63E00E94380D0E942E0680E01A
:1026600061E00E943E0688C08091B902813031F459
:1026700080E061E00E943E0610E07EC08091B502DD
:10268000813009F079C0C59CB0011124CB018D0DBA
:10269000911D202F30E02F5F3F4FA901440F551FA0
:1026A000220F331F220F331F220F331F420F531FDE
:1026B000840F951F8816990624F0093010F40F5FD7
:1026C00001C000E02D2D260F0E9DC0011124F22E19
:1026D000F80E80E061E00E943E068F2D63E00E94CC
:1026E000380D0E942E0681E061E00E943E0644C043
:1026F0008091B902813029F461E00E943E0611E028
:102700003BC08091B5028130B9F5C59CA001112470
:102710000E9D900111248D2D90E00196840F951F40
:10272000820F931F881699062CF088E08D1510F003
:10273000D39401C0DD24822F840FF82EFD0C80E09D
:1027400061E00E943E068F2D63E00E94380D0E94DA
:102750002E0682E061E00E943E060EC08091B90222
:10276000813029F482E061E00E943E0612E080910F
:10277000B502813009F489831092B9021092B50232
:102780008981882309F42CCFC5010E94AC308F15B4
:1027900051F00E94F4058FE790E00E942E06C501DB
:1027A0006F2D0E94BA300F90CF91DF911F910F9142
:1027B000FF90EF90DF90CF90BF90AF909F908F9061
:1027C0007F906F905F90089582E090E00E94AC301F
:1027D000089580E090E00E94AC3008950F931F931D
:1027E00001E010E086EA90E0B8014FE70E9469122C
:1027F000C8010E94AC300E940D0C8EEA90E060E0AF
:1028000070E043E00E9469120E94E9130E94140CD8
:1028100086EB90E062E070E04CEB59E02FE00E9424
:10282000F4110E94E4130E94210C8BEB90E062E112
:1028300070E04CEC59E021E00E94F4110E946B1012
:102840000E94850B84EC90E063E070E04AE50E9412
:1028500069128DEC90E064E070E04AE50E94691234
:1028600083ED90E065E070E048E00E9469120E940C
:1028700074118AE090E00E94AC30809362020E9462
:10288000FE108CED90E06BE370E044E60E9469126C
:102890001F910F910895EF92FF920F931F93CF9383
:1028A000DF938BE090E00E94AC309091500289174A
:1028B000E1F4C0E0D0E00F2EFBE0EF2EF0E0FF2EC1
:1028C000F02D07E412E0CE0101968E0D9F1D0E94AF
:1028D000AC30F801EC0FFD1F9081891731F421967F
:1028E000C630D10581F781E001C080E0DF91CF9152
:1028F0001F910F91FF90EF9008950F931F93CF9327
:10290000DF938BE090E06FEF0E94BA3080E090E0C0
:10291000CBE0D0E08C010F5F1F4FCE01800F911FE5
:102920006FEF0E94BA30C8010630110599F70E9476
:10293000F4050E94510682EE90E00E942E0680E08F
:1029400061E00E943E068AEE90E00E942E0682EF31
:1029500090E00E94A82F10926A0210926902809162
:10296000690290916A0280579741C8F3DF91CF9135
:102970001F910F91089582E190E00E94AC3060E0D9
:102980000E94380D0E94A82F82EF90E00E94A82F8D
:10299000089582E090E00E94AC3060E00E94380D23
:1029A0000E94A82F82EF90E00E94A82F089581E056
:1029B00090E00E94AC3060E00E94380D0E94A82F89
:1029C00082EF90E00E94A82F089584E090E00E949A
:1029D000AC3060E00E94380D0E94A82F82EF90E09A
:1029E0000E94A82F089583E090E00E94AC3060E040
:1029F0000E94380D0E94A82F82EF90E00E94A82F1D
:102A000008951F93DF93CF930F92CDB7DEB711E0F8
:102A100063C00E940130898389818536E1F1863661
:102A200030F4803389F0813309F056C021C08836F4
:102A300021F0843709F050C032C010938302109205
:102A4000BC021092BB0248C080918302882309F423
:102A500043C08091BB029091BC029C012F5F3F4F0D
:102A60003093BC022093BB0260E00E94DA0B34C0BA
:102A700080918302882381F18091BB029091BC02F6
:102A80009C012F5F3F4F3093BC022093BB02612F0C
:102A90000E94DA0B21C01092830283E022C0809151
:102AA00083028823B9F08091BB029091BC02892BEC
:102AB00089F08091BB029091BC028E30910521F08B
:102AC000489721F482E003C081E001C083E01092C6
:102AD000830207C01092830280914502882309F087
:102AE00098CF0F90CF91DF911F910895DF93CF93EF
:102AF00000D00F92CDB7DEB70E9401158250823010
:102B0000A8F480E00E94490C882381F00E945710AD
:102B100069837A838B83A4E7B2E0FE01319683E078
:102B200001900D928150E1F7109273020F900F9077
:102B30000F90CF91DF9108950F931F9387E390E05B
:102B40000E94B4308C0189E390E00E94B430BC0153
:102B5000C8010E94770F1F910F9108950F931F9343
:102B600083E390E00E94B4308C0185E390E00E9402
:102B7000B430BC01C8010E94770F1F910F910895D6
:102B80000F931F938FE290E00E94B4308C0181E399
:102B900090E00E94B430BC01C8010E94770F1F91E1
:102BA0000F9108950F931F938BE290E00E94B43031
:102BB0008C018DE290E00E94B430BC01C8010E94FB
:102BC000770F1F910F91089580916602909167028F
:102BD000029750F081E090E0909367028093660244
:102BE0008091D1028823E1F70E94D21508950F93B6
:102BF0001F9387E290E00E94B4308C0189E290E05C
:102C00000E94B430BC01C8010E94770F1F910F9140
:102C100008958091660290916702029750F081E0DA
:102C200090E090936702809366028091D10288239E
:102C3000E1F70E94F71508950F931F9383E290E048
:102C40000E94B4308C0185E290E00E94B430BC0157
:102C5000C8010E94770F1F910F9108950F931F9342
:102C60008FE190E00E94B4308C0181E290E00E94FC
:102C7000B430BC01C8010E94770F1F910F910895D5
:102C80000E942E1608950F931F938BE190E00E94EF
:102C9000B4308C018DE190E00E94B430BC01C801D9
:102CA0000E94770F1F910F9108950E944316089577
:102CB0000F931F9387E190E00E94B4308C0189E16B
:102CC00090E00E94B430BC01C8010E94770F1F91B0
:102CD0000F9108958091660290916702029750F0DB
:102CE00081E090E090936702809366028091D10228
:102CF0008823E1F70E94581608950F931F9383E1EC
:102D000090E00E94B4308C0185E190E00E94B430E4
:102D1000BC01C8010E94770F1F910F9108950E9476
:102D20007D1689EF90E00E94A82F08950E94B4308C
:102D300060E00E94D20D0E94A82F82EF90E00E94D6
:102D4000A82F089589E390E00E949616089587E3DE
:102D500090E00E949616089585E390E00E949616F2
:102D6000089583E390E00E949616089581E390E031
:102D70000E94961608958FE290E00E94961608959C
:102D80008DE290E00E94961608958BE290E00E94FA
:102D90009616089589E290E00E949616089587E2BB
:102DA00090E00E949616089585E290E00E949616A3
:102DB000089583E290E00E949616089581E290E0E3
:102DC0000E94961608958FE190E00E94961608954D
:102DD0008DE190E00E94961608958BE190E00E94AC
:102DE0009616089589E190E00E949616089587E16D
:102DF00090E00E949616089585E190E00E94961654
:102E0000089583E190E00E9496160895EF92FF9254
:102E10000F931F93DF93CF9300D0CDB7DEB787E03A
:102E20000E94EB0E9A83898386E090E00E94B43082
:102E30007C0188E090E00E94B4302091D4022223EB
:102E400021F0213009F08AC04BC0880F991F880FEC
:102E5000991F6BE470E00E945F30862F972F8C01E2
:102E600085E060E00E943E068EEF90E00E942E0614
:102E700080E00E94060687E060E00E943E068981AD
:102E80009A818017910720F480E00E94D30766C0E2
:102E9000C701880F991F880F991F6BE470E00E948B
:102EA0005F30862F972FBC0189819A816817790737
:102EB00020F485E00E94D30751C029813A81201B6C
:102EC000310BC901880F991F820F931F601B710B73
:102ED000880F991F0E945F30862F0E94D3073EC043
:102EE00085E060E00E943E0629813A81C901880F91
:102EF000991F820F931F9C01220F331F220F331F34
:102F0000820F931F969587959695879596958795A9
:102F10009A83898389819A8164E670E00E945F3098
:102F2000862F60E00E94380D0E942E0681E091E01D
:102F30000E942E0689819A8164E670E00E945F30CB
:102F40006AE070E00E945F30862F60E00E94380DDA
:102F50000E942E0680E690E00E942E060F900F90B1
:102F6000CF91DF911F910F91FF90EF9008958BE328
:102F700090E00E94AC3060E00E94380D0E94A82FC3
:102F800086E396E00E94B82F089585E090E00E94C5
:102F9000AC3060E00E94380D0E94A82F86E396E0D6
:102FA0000E94B82F089588E090E00E94B43060E05D
:102FB0000E94D20D0E94A82F86E396E00E94B82FAF
:102FC000089586E090E00E94B43060E00E94D20D47
:102FD0000E94A82F86E396E00E94B82F089580E013
:102FE00090E00E94AC3060E00E94380D0E94A82F53
:102FF00086E396E00E94B82F08958CE390E00E944B
:10300000AC3060E00E94380D0E94A82F86E396E065
:103010000E94B82F08958AE090E00E94AC3080347E
:1030200039F0803849F483E091E00E94A82F04C071
:1030300085E091E00E94A82F86E396E00E94B82FD9
:103040000895CF92DF92EF92FF920F931F93DF9339
:10305000CF9300D0CDB7DEB71A8220E00F2EFFED60
:10306000EF2EF3E0FF2EF02D0F2EFAE0CF2EF02DF5
:10307000DD24D39423C080914402F701E80FF11DB1
:10308000908199838F5F8093440289818032B1F06F
:103090008981803370F089818A3358F40A8189816B
:1030A0000E94430F0C9D80011124800F8A832D2DD7
:1030B00005C08CE196E00E94B82F2DC0809144029B
:1030C000F701E80FF11D80818D30A9F6222329F444
:1030D0008AED95E00E94B82F1EC08A81823038F4B4
:1030E0008A818A81882341F0813089F40BC08DEF79
:1030F00095E00E94B82F0FC08AE090E060E80E943F
:10310000BA3005C08AE090E060E40E94BA3089EFEE
:1031100090E00E94A82F0F900F90CF91DF911F9108
:103120000F91FF90EF90DF90CF900895CF92DF92B4
:10313000EF92FF920F931F93DF93CF9300D0CDB701
:10314000DEB71A8220E00F2EFFEDEF2EF3E0FF2E08
:10315000F02D0F2EFAE0CF2EF02DDD24D39423C0D6
:1031600080914402F701E80FF11D908199838F5FF0
:103170008093440289818032B1F08981803370F07C
:1031800089818A3358F40A8189810E94430F0C9DFA
:1031900080011124800F8A832D2D05C087E091E0E6
:1031A0000E94A82F5AC080914402F701E80FF11D38
:1031B00080818D30A9F6222329F48AED95E00E94C2
:1031C000B82F4BC08A818B3018F48A81882329F468
:1031D0008DEF95E00E94B82F40C08A81853041F183
:1031E000863060F48230D9F0833018F4813089F56C
:1031F00013C08330B9F0843061F517C0883009F10D
:10320000893028F48630B9F0873019F517C0893035
:10321000D9F08A30F1F41BC00E947D161AC00E94BA
:10322000581617C00E94431614C00E942E1611C0D3
:103230000E941C160EC00E94F7150BC00E94D215EA
:1032400008C00E94C01505C00E94AE1502C00E94B1
:103250009C1589EF90E00E94A82F0F900F90CF91BE
:10326000DF911F910F91FF90EF90DF90CF90089525
:10327000DF92EF92FF920F931F93DF93CF9300D0D3
:103280000F92CDB7DEB71B821A8220E00F2EFFED22
:10329000EF2EF3E0FF2EF02DDD24D3942EC080918D
:1032A0004402F701E80FF11D908199838F5F8093AD
:1032B00044028981803209F189818033C8F0898193
:1032C0008A33B0F40A811B8189810E94430F9801DF
:1032D000220F331F000F111F000F111F000F111FAE
:1032E000200F311F280F311D3B832A832D2D05C050
:1032F00087E091E00E94A82F4FC080914402F7011F
:10330000E80FF11D80818D3051F6222329F48AEDDA
:1033100095E00E94B82F40C08A819B8181509240E5
:1033200028F08DEF95E00E94B82F36C00E94F22F52
:1033300089EF90E00E94A82F1092CE021092CD0249
:103340008091CD029091CE028A58924020F48091D3
:1033500045028823ACF7809145028823CCF46A812A
:103360007B817695762F6627779567958FED93E02D
:1033700040E850E00E949109882329F089EF90E00D
:103380000E94A82F09C08FE091E00E94A82F04C0DE
:103390008AE291E00E94A82F0F900F900F90CF919A
:1033A000DF911F910F91FF90EF90DF900895CF92E2
:1033B000DF92EF92FF920F931F93DF93CF9300D092
:1033C000CDB7DEB71A8220E00F2EFFEDEF2EF3E02F
:1033D000FF2EF02D0F2EFAE0CF2EF02DDD24D3940A
:1033E00023C080914402F701E80FF11D9081998379
:1033F0008F5F8093440289818032B1F0898180336C
:1034000070F089818A3358F40A8189810E94430FC0
:103410000C9D80011124800F8A832D2D05C087E02B
:1034200091E00E94A82F18C080914402F701E80F94
:10343000F11D80818D30A9F6222329F48AED95E0D3
:103440000E94B82F09C06A8184E090E00E94BA30DF
:1034500089EF90E00E94A82F0F900F90CF91DF91FD
:103460001F910F91FF90EF90DF90CF9008958F9272
:103470009F92AF92BF92CF92DF92EF92FF920F9303
:103480001F93DF93CF9300D0CDB7DEB75C01862EBC
:10349000942E1A8220E00F2EFFEDEF2EF3E0FF2E88
:1034A000F02D0F2EFAE0CF2EF02DDD24D39423C083
:1034B00080914402F701E80FF11D908199838F5F9D
:1034C0008093440289818032B1F08981803370F029
:1034D00089818A3358F40A8189810E94430F0C9DA7
:1034E00080011124800F8A832D2D05C08CE196E088
:1034F0000E94B82F22C080914402F701E80FF11D0D
:1035000080818D30A9F6222329F48AED95E00E946E
:10351000B82F13C08A81981618F08A81881528F46C
:103520008DEF95E00E94B82F08C06A81C5010E9406
:10353000BA3089EF90E00E94A82F0F900F90CF91A2
:10354000DF911F910F91FF90EF90DF90CF90BF9090
:10355000AF909F908F9008958BE390E060E044E6F9
:103560000E94371A089585E090E060E048E00E94EC
:10357000371A089582E190E060E041E00E94371A36
:103580000E946B100E94850B089580E090E060E03F
:1035900043E00E94371A08958CE390E060E041E038
:1035A0000E94371A089582E090E060E04FE00E94A8
:1035B000371A089581E090E060E04FE70E94371AE3
:1035C000089583E090E060E04AE50E94371A08958C
:1035D000BF92CF92DF92EF92FF920F931F93DF93F0
:1035E000CF9300D00F92CDB7DEB76C011B821A8249
:1035F00020E00F2EFFEDEF2EF3E0FF2EF02DBB2489
:10360000B3942EC080914402F701E80FF11D908120
:1036100099838F5F809344028981803209F1898187
:103620008033C8F089818A33B0F40A811B81898193
:103630000E94430F9801220F331F000F111F000F2C
:10364000111F000F111F200F311F280F311D3B8349
:103650002A832B2D05C087E091E00E94A82F18C077
:1036600080914402F701E80FF11D80818D3051F601
:10367000222329F48AED95E00E94B82F09C06A81BF
:103680007B81C6010E94C73089EF90E00E94A82F7D
:103690000F900F900F90CF91DF911F910F91FF909E
:1036A000EF90DF90CF90BF90089589E390E00E9463
:1036B000E81A089587E390E00E94E81A089585E3E8
:1036C00090E00E94E81A089583E390E00E94E81ACF
:1036D000089581E390E00E94E81A08958FE290E057
:1036E0000E94E81A08958DE290E00E94E81A089579
:1036F0008BE290E00E94E81A089589E290E00E942F
:10370000E81A089587E290E00E94E81A089585E299
:1037100090E00E94E81A089583E290E00E94E81A7F
:10372000089581E290E00E94E81A08958FE190E008
:103730000E94E81A08958DE190E00E94E81A089529
:103740008BE190E00E94E81A089589E190E00E94E0
:10375000E81A089587E190E00E94E81A089585E14B
:1037600090E00E94E81A089583E190E00E94E81A30
:1037700008956F927F929F92AF92BF92CF92DF9205
:10378000EF92FF920F931F93DF93CF9300D00F928E
:10379000CDB7DEB73C015B016A011B821A8220E0D3
:1037A0000F2EFFEDEF2EF3E0FF2EF02D99249394D2
:1037B0002EC080914402F701E80FF11D908199839A
:1037C0008F5F809344028981803209F1898180333F
:1037D000C8F089818A33B0F40A811B8189810E94F3
:1037E000430F9801220F331F000F111F000F111FED
:1037F000000F111F200F311F280F311D3B832A831B
:10380000292D05C08CE196E00E94B82F27C0809139
:103810004402F701E80FF11D80818D3051F622231B
:1038200029F48AED95E00E94B82F18C08A819B8107
:10383000C816D90628F08A819B818A159B0528F431
:103840008DEF95E00E94B82F09C06A817B81C3018A
:103850000E94C73089EF90E00E94A82F0F900F9030
:103860000F90CF91DF911F910F91FF90EF90DF901C
:10387000CF90BF90AF909F907F906F90089588E019
:1038800090E06CE87AE048EC5FEA0E94B91B08958A
:1038900086E090E068EB7BE048EC5FEA0E94B91BB1
:1038A000089581E090E00E94AC3088232CF481E000
:1038B00090E060E00E94BA3080E090E00E94AC307E
:1038C000843028F080E090E060E00E94BA3082E02E
:1038D00090E00E94AC30803128F082E090E065E01A
:1038E0000E94BA3083E090E00E94AC308B3528F023
:1038F00083E090E06EE10E94BA3084E090E00E94A4
:10390000AC308B3528F084E090E06FE00E94BA3054
:1039100085E090E00E94AC30893028F085E090E0AE
:1039200061E00E94BA3086E090E00E94B4308F5F80
:103930009F4F31F486E090E060E97AE10E94C73061
:1039400088E090E00E94B4308F5F9F4F31F488E0B0
:1039500090E06CE775E10E94C73082E190E00E9440
:10396000AC30882359F082E190E00E94AC30813085
:1039700029F082E190E060E00E94BA308AE090E0B5
:103980000E94AC30803459F08AE090E00E94AC3064
:10399000803829F08AE090E060E40E94BA308CE33D
:1039A00090E00E94AC30823028F08CE390E061E03F
:1039B0000E94BA308BE390E00E94AC30853628F04C
:1039C0008BE390E064E60E94BA3008950E94511C97
:1039D0008FEF9FEF9093B7028093B60290935802B7
:1039E0008093570210925A0281E090E00E94AC301E
:1039F0000E940D0C0E94E9130E94140C0E94E41313
:103A00000E94210C84E090E00E94AC3080936B0215
:103A100010928602109285021092DB0210926802C8
:103A20001092DD021092DC021092BC021092BB02D6
:103A3000109273021092DA0288E08093BD028BE349
:103A400090E00E94AC308093B402AFE9B2E0FD0197
:103A5000118210823296808181608083FD013396CD
:103A60001182108215968C9181608C931092610264
:103A700010926002109259021092B0021092D40279
:103A80008AE090E00E94AC30809362021092AF0214
:103A90001092830210926702109266021092D10275
:103AA000109284021092D3021092D2021092B802A5
:103AB0001092B3021092B20208956F927F928F9289
:103AC0009F92AF92BF92CF92DF92EF92FF920F93AD
:103AD0001F93DF93CF93CDB7DEB727970FB6F89438
:103AE000DEBF0FBECDBF6A837B838C83072FF62E8C
:103AF000182F0E94E913801771F48CE390E00E9464
:103B0000AC30882309F4C4C181E090E00E94AC305D
:103B10008F1509F4BDC1E2E3F0E08081806180830C
:103B200082E391E00E94A82F0E9458060B83FA823C
:103B30001C836F2D702F812F0E94030F8091B40280
:103B4000181730F58091B402811B8093B4029091D4
:103B5000B4028AE0989FC00111246DE770E00E94D2
:103B600073306093BD028091BD02882339F4809147
:103B7000B402882319F081E08093BD020E946A1686
:103B8000E2E3F0E080818F7E80831092B50278C1FD
:103B90001092BD021092B402E2E3F0E080818061F5
:103BA00080838091BD020E94A00C0E94BC0E1982ED
:103BB0000E94E4158BE090E00E94AC30882309F469
:103BC000AAC08BE090E00E94AC308F3F09F4A3C004
:103BD00010925B021092B50210924F020E94600692
:103BE0000F2EF6E3CF2EF1E0DF2EF02D0F2EF4E4B2
:103BF000AF2EF1E0BF2EF02D02E310E0FF24689419
:103C0000F4F80F2EF5E68F2EF1E09F2EF02D0F2EFB
:103C1000F3E56F2EF1E07F2EF02D0E94F4050E9457
:103C20005106C6010E942E0680E061E00E943E0619
:103C3000C5010E942E0621C0F80180818F25808356
:103C400081E30E94A02F10926A0210926902809173
:103C5000690290916A02885E9340C8F3F8018081FE
:103C60008F25808310926A02109269028091690206
:103C700090916A02885E9340C8F380914F02882336
:103C8000D9F280914F028130B9F0823031F60E9432
:103C9000F4050E945106C3010E942E0610926A028A
:103CA000109269028091690290916A02805797414F
:103CB000C8F310924F02B1CF0E944B148823B1F089
:103CC0000E94F4050E9451068EE591E00E942E06A6
:103CD00010926A02109269028091690290916A02C0
:103CE00080579741C8F310924F02A2C00E94F4057A
:103CF0000E945106C4010E942E0610926A02109280
:103D000069028091690290916A0280579741C8F3D5
:103D100010924F0282CF0E9460060E94830E109282
:103D200073028091730280937302109276020F2EB9
:103D3000F6E7CF2EF2E0DF2EF02D0F2EF4E7AF2EB8
:103D4000F2E0BF2EF02D0F2EF5E78F2EF2E09F2E22
:103D5000F02D02E310E0FF246894F4F80F2EF5E054
:103D60006F2E7724F02D6C0E7D1E0F2EF3E0EF2EBC
:103D7000F02D4DC01092730221C0F80180818F2573
:103D8000808381E30E94A02F10926A021092690240
:103D90008091690290916A02885E9340C8F3F801AD
:103DA00080818F25808310926A021092690280912F
:103DB000690290916A02885E9340C8F3809145023F
:103DC000882341F480917302823021F080915B025C
:103DD000882399F280915B02853011F010925B028A
:103DE00080917302823069F40E9443106D837E8358
:103DF0008F83D501F3018E2D01900D928150E1F753
:103E000006C080914502882311F00E947615F601C4
:103E10008081883E41F4F5018081833821F4F401EA
:103E20008081853029F080915B02853009F0A2CF36
:103E30008091660290916702029750F081E090E0D5
:103E400090936702809366028091D1028823E1F704
:103E50000E94E61C10925B021092B5021092B90209
:103E6000109273020E94830E02E310E0F801808139
:103E7000806180830E940916F80180818F7E808393
:103E80008091BD020E94A00C0E9460060E94830ED9
:103E900027960FB6F894DEBF0FBECDBFCF91DF914E
:103EA0001F910F91FF90EF90DF90CF90BF90AF9058
:103EB0009F908F907F906F900895EF92FF920F9355
:103EC0001F93DF93CF9300D000D000D0CDB7DEB7E3
:103ED0000E940115823009F447C08330A1F181307E
:103EE00009F0E7C080E00E94490C882309F0E1C096
:103EF000AEEBB2E09D918C91880F880F82958F7008
:103F0000ECEBF9E0E80FF11DE4918C919983EB83E0
:103F100082958695869583708A83A3E6B2E0FE013A
:103F2000319683E001900D928150E1F76091630238
:103F300070916402809165020E945D1D0E94F22FC3
:103F400010928302B6C08091D2029091D302892B45
:103F500009F0AFC08091D102882309F0AAC00E9465
:103F6000C0151092B502A5C080E00E94490C8823BC
:103F700009F49DC00E9457106C837D838E83A4E753
:103F8000B2E0FE01349683E001900D928150E1F79A
:103F900080917602883E09F08AC08091740283384D
:103FA00009F455C0893A09F082C0E5E7F2E0808162
:103FB0008081843078F58F01608180E090E00E94FC
:103FC000BA300E94E9130E94140CF8018081882302
:103FD000C9F000E07F0188EE93E062E070E040E825
:103FE0000E94D40C10926A021092690280916902B8
:103FF00090916A02885E9340C8F30F5FF701808159
:10400000081748F388EE93E062E070E040E80E9411
:10401000D40C4DC088EE93E063E070E040E80E946D
:10402000D40C84EF91E063E070E040E80E94D40C8F
:1040300088EE93E063E070E040E80E94D40C84EFE7
:1040400091E063E070E040E80E94D40C30C08091C1
:104050007502853061F58091660290916702029742
:1040600050F081E090E09093670280936602809127
:10407000D1028823E1F70E94E61C10925B021092A5
:10408000B5021092B902109273020E94830E8091C1
:10409000BD020E94A00C02E310E0F8018081806163
:1040A00080830E940916F80180818F7E80831092A0
:1040B000730226960FB6F894DEBF0FBECDBFCF9128
:1040C000DF911F910F91FF90EF900895DF92EF9293
:1040D000FF920F931F93DF93CF9300D00F92CDB732
:1040E000DEB71B821A8220E00F2EFFEDEF2EF3E0E9
:1040F000FF2EF02DDD24D3942EC080914402F701D1
:10410000E80FF11D908199838F5F8093440289812C
:10411000803209F189818033C8F089818A33B0F413
:104120000A811B8189810E94430F9801220F331F4E
:10413000000F111F000F111F000F111F200F311F43
:10414000280F311D3B832A832D2D05C087E091E088
:104150000E94A82F42C080914402F701E80FF11D90
:1041600080818D3051F6222329F48AED95E00E945A
:10417000B82F33C08A819B818150924028F08DEF07
:1041800095E00E94B82F29C00E94992F6A817B81F7
:104190007695762F6627779567958FED92E040E8C4
:1041A00050E00E94F6098823A1F000E010E00F2EF5
:1041B000FFEDEF2EF2E0FF2EF02DF701E00FF11FE3
:1041C00080810E94A02F0F5F1F4F00381105A9F7B3
:1041D00004C081E791E00E94A82F0F900F900F90EC
:1041E000CF91DF911F910F91FF90EF90DF90089595
:1041F0000E94992F8DE396E00E94B82F89EF90E0FE
:104200000E94A82F08954F925F926F927F928F9293
:104210009F92AF92BF92CF92DF92EF92FF920F9355
:104220001F93DF93CF93CDB7DEB7A2970FB6F89465
:10423000DEBF0FBECDBFEE24FF2420E030E00F2E06
:10424000FEE24F2EF5E05F2EF02D00E00F2EF3E0A2
:10425000CF2EDD24F02DCC0EDD1EC6017C2C692E68
:104260000F2EFFED8F2EF3E09F2EF02DC901880F4A
:10427000991FF201E80FF91F25913491A901F90165
:104280008491882311F4102F0FC0102FFA0184910C
:10429000F601E10FF11D80831F5F2F5F3F4FA901E2
:1042A000F9018491882391F780914402609145023D
:1042B0009401280F311DC901702F472D562D212F34
:1042C000302F0E9486305C0180914402609145024B
:1042D000F401E80FF11DCF01702F472D562D212F2E
:1042E000302F0E948630892BB9F0C5018F5D934035
:1042F0009A8389832091440289819A81280F210F12
:10430000209344028091450229813A81811B821BBE
:10431000809345028E2D0AC00894E11CF11C970180
:10432000F6E4EF16F10409F0A1CF8FEFA2960FB6D5
:10433000F894DEBF0FBECDBFCF91DF911F910F91DB
:10434000FF90EF90DF90CF90BF90AF909F908F90B5
:104350007F906F905F904F900895EAE2F0E0808147
:104360008F7780830E940321E82FF0E0E634F10587
:1043700008F0DAC0E65DFF4FEE0FFF1F0590F491E5
:10438000E02D09940E94E11AD3C00E94F314D0C01A
:104390000E94F820CDC00E94D719CAC00E94E5141F
:1043A000C7C00E943819C4C00E946620C1C00E94C4
:1043B000B41BBEC00E940117BBC00E94AF1BB8C097
:1043C0000E94FC16B5C00E94AA1BB2C00E94F7163C
:1043D000AFC00E94A51BACC00E94F216A9C00E94EB
:1043E000A01BA6C00E94ED16A3C00E949B1BA0C0EC
:1043F0000E94E8169DC00E94961B9AC00E94E31678
:1044000097C00E94911B94C00E94DE1691C00E942A
:104410008C1B8EC00E94D9168BC00E94871B88C03F
:104420000E94D41685C00E94821B82C00E94CF16B3
:104430007FC00E947D1B7CC00E94CA1679C00E946A
:10444000961876C00E948F1673C00E94DA1A70C048
:104450000E94D7146DC00E94D31A6AC00E94C9146A
:1044600067C00E94211864C00E940B1861C00E949E
:10447000CC1A5EC00E94FD175BC00E94C51A58C0CE
:104480000E94EF1755C00E94481C52C00E94E117BD
:104490004FC00E943F1C4CC00E94D31749C00E94CD
:1044A000781B46C00E94C51643C00E94731B40C0C3
:1044B0000E94C0163DC00E946E1B3AC00E94BB16EF
:1044C00037C00E94691B34C00E94B61631C00E94DA
:1044D000641B2EC00E94B1162BC00E945F1B28C017
:1044E0000E94AC1625C00E945A1B22C00E94A7162B
:1044F0001FC00E94551B1CC00E94A21619C00E941A
:10450000BA1A16C00E94BB1413C00E947D1410C0BA
:104510000E94B31A0DC00E94C5170AC00E94AC1AAF
:1045200007C00E94B71704C08AEB95E00E94B82F1D
:104530001092AF020E94F22F08952F923F924F9255
:104540005F926F927F928F929F92AF92BF92CF9223
:10455000DF92EF92FF920F931F93DF93CF9300D0E0
:10456000CDB7DEB785E089830E94F4050E9451062D
:104570008BE090E00E94AC30882339F08BE090E033
:104580000E94AC308F3F09F03CC110925B028BE877
:1045900091E00E942E0680E061E00E943E0682E9E2
:1045A00091E00E942E060F2EFBE0EF2EF0E0FF2E92
:1045B000F02D0F2EF0E36F2E7724F02D0F2EF6E363
:1045C000AF2EBB24F02D0F2EF7E4CF2EF2E0DF2E1E
:1045D000F02D0F2EF2EE4F2EF0E05F2EF02D0F2E6D
:1045E000F6EA2F2EF1E03F2EF02D0F2EF2E98F2E5E
:1045F000F1E09F2EF02D9DC08091AF02882361F4E1
:104600008091B502882341F48091B902882321F476
:1046100080914F02882381F38091AF02882311F0AB
:104620000E94AD218091B5028130C9F4F3018081EF
:1046300085FD0FC012C081E30E94A02F10926A0274
:10464000109269028091690290916A0280579741A5
:10465000C8F3F501808182FFEECF1092B502809100
:104660004F02813081F1823009F05FC00E94F40571
:104670000E9451068BE991E00E942E0680E061E0E5
:104680000E943E0682EA91E00E942E0610926A0283
:10469000109269028091690290916A028057974155
:1046A000C8F30E94F4050E9451068BE891E00E9435
:1046B0002E0680E061E00E943E06C4010E942E06A4
:1046C00010924F0232C060915002C7010E94BA306E
:1046D00080E090E0F601E80FF91F60818C010F5F28
:1046E0001F4FC701800F911F0E94BA30C8010630CA
:1046F000110581F70E94F4050E945106C2010E9433
:104700002E0680E061E00E943E06C1010E942E0656
:1047100010926A02109269028091690290916A0275
:1047200080579741C8F310924F028091B9028130AF
:1047300081F08091B902813031F0C7010E94AC3024
:10474000882309F459CFC7010E94AC308F3F09F488
:1047500053CF8091B902813009F03EC01092B90266
:104760000E94F4050E9451068FEA91E00E942E06F5
:104770008981882359F18091B902882339F51092F3
:104780006A02109269028091690290916A028057D0
:10479000974120F48091B9028823A9F38091B9024E
:1047A0008823A1F487E061E00E943E068981815060
:1047B0008983898160E00E94380D0E942E068981DC
:1047C000882321F08091B9028823C9F28091B9022F
:1047D000813011F40E94EE1310928602109285022D
:1047E000EBE3F0E080818160808384E090E00E94D0
:1047F000AC3080936B0210925B021092B502109263
:104800004F028BE090E00E94AC30882309F488C10D
:104810008BE090E00E94AC308F3F09F481C11A8296
:1048200001EC11E00F2EF0E3CF2EDD24F02D0F2E42
:10483000F6E3EF2EFF24F02D0F2EF1ED6F2EF1E0B9
:104840007F2EF02D0F2EF8ED4F2EF1E05F2EF02D84
:104850000F2EFEE52F2EF1E03F2EF02D0F2EFBE95F
:10486000AF2EF1E0BF2EF02D0F2EF2EA8F2EF1E0E9
:104870009F2EF02D8FC00E94F4050E945106C801A2
:104880000E942E068091AF02882341F48091B502E8
:10489000882321F480914F028823A1F38091AF02F5
:1048A000882311F00E94AD218091B5028130C9F4B6
:1048B000F601808185FD0FC012C081E30E94A02F08
:1048C00010926A02109269028091690290916A02C4
:1048D00080579741C8F3F701808182FFEECF109295
:1048E000B50280914F028130F9F0823009F052C058
:1048F0000E94F4050E945106C5010E942E0680E028
:1049000061E00E943E06C4010E942E0610926A02D7
:10491000109269028091690290916A0280579741D2
:10492000C8F310924F0236C00E944B148823B9F08E
:1049300081E08A830E94F4050E945106C1010E9411
:104940002E0610926A02109269028091690290917B
:104950006A0280579741C8F310924F021BC00E9411
:10496000F4050E945106C3010E942E0680E061E01A
:104970000E943E06C2010E942E0610926A02109208
:1049800069028091690290916A0280579741C8F349
:1049900010924F028A81882309F46DCF0E94F4059A
:1049A0000E94510610925B021092B50210924F02C3
:1049B0008DED91E00E942E068981882399F18091E6
:1049C0004F02882379F580915B02882359F5109274
:1049D0006A02109269028091690290916A0280577E
:1049E000974120F480915B028823A9F380915B02B8
:1049F0008823C1F487E061E00E943E0689818150EE
:104A00008983898160E00E94380D0E942E06898189
:104A1000882341F080914F02882321F480915B022A
:104A20008823A9F280914F02813089F1823009F008
:104A300064C00E94F4050E9451068BE991E00E9437
:104A40002E0680E061E00E943E0682EA91E00E942C
:104A50002E0610926A02109269028091690290916A
:104A60006A0280579741C8F30E94F4050E945106DC
:104A70008FEE91E00E942E0680E061E00E943E06EB
:104A800088EF91E00E942E0610924F0236C00E94DD
:104A90004B14882329F00E94EE1310924F022DC070
:104AA0000E94F4050E94510681ED91E00E942E06BD
:104AB00080E061E00E943E0688ED91E00E942E06B3
:104AC00010926A02109269028091690290916A02C2
:104AD00080579741C8F30E94F4050E9451068FEE5B
:104AE00091E00E942E0680E061E00E943E0688EF81
:104AF00091E00E942E0610924F02109286021092B0
:104B00008502EBE3F0E080818160808384E090E0C7
:104B10000E94AC3080936B0210925B021092B5023F
:104B20000F900F90CF91DF911F910F91FF90EF9019
:104B3000DF90CF90BF90AF909F908F907F906F90BD
:104B40005F904F903F902F9008952F923F924F92F9
:104B50005F926F927F928F929F92AF92BF92CF920D
:104B6000DF92EF92FF920F931F93DF93CF9300D0CA
:104B700000D000D0CDB7DEB70E94040B0E946B10AE
:104B80000E946F0B0E94940B0E9487080E94730C76
:104B90000E94660C0E94E61C0E94FF060E94F4051B
:104BA0000E94432E0E94E60E0E948A2FEAE2F0E065
:104BB0008081806880838081806480830E948209F4
:104BC00080E69AEE0197F1F781E092E00E942E06CE
:104BD00080E061E00E943E0689E092E00E942E069D
:104BE0000E943C0778948FEF8093D50210926A025E
:104BF000109269028091690290916A02885E9340E6
:104C0000C8F38FEF8093D60210926A021092690265
:104C10008091690290916A02885E9340C8F38FEF99
:104C20008093D70210926A02109269028091690201
:104C300090916A02885E9340C8F38FEF8093D80208
:104C400010926A02109269028091690290916A0240
:104C5000885E9340C8F38FEF8093DE0210926A0261
:104C6000109269028091690290916A02885E934075
:104C7000C8F3EBE3F0E080818160808310926A02E8
:104C8000109269028091690290916A02885E934055
:104C9000C8F3EBE3F0E080818260808310926A02C7
:104CA000109269028091690290916A02885E934035
:104CB000C8F3E2E3F0E080818061808310926A02B1
:104CC000109269028091690290916A02885E934015
:104CD000C8F3E5E3F0E080818062808310926A028D
:104CE000109269028091690290916A02885E9340F5
:104CF000C8F30E94580610926A02109269028091CD
:104D0000690290916A02885E9340C8F30E9460062F
:104D100010926A02109269028091690290916A026F
:104D2000885E9340C8F31092D50210926A021092E6
:104D300069028091690290916A02885E9340C8F38B
:104D40001092D60210926A02109269028091690252
:104D500090916A02885E9340C8F31092D702109235
:104D60006A02109269028091690290916A02885EDB
:104D70009340C8F31092D80210926A02109269020E
:104D80008091690290916A02885E9340C8F3E5E3DE
:104D9000F0E080818F7D808310926A021092690218
:104DA0008091690290916A02885E9340C8F3EBE3B8
:104DB000F0E080818D7F808310926A0210926902F8
:104DC0008091690290916A02885E9340C8F3EBE398
:104DD000F0E080818E7F808310926A0210926902D7
:104DE0008091690290916A02885E9340C8F3E2E381
:104DF000F0E080818F7E808310926A0210926902B7
:104E00008091690290916A02885E9340C8F3109283
:104E10006A02109269028091690290916A02885E2A
:104E20009340C8F38091BD020E94A00C88EE93E0ED
:104E300063E070E040E80E94D40C80E192E00E94C0
:104E4000A82F0E949D228BE390E00E94AC308093BB
:104E5000B40285E190E00E94B43064E670E00E9404
:104E60005F308AE590E0DC016A9FC0016B9F900D86
:104E70007A9F900D11249093C7028093C6021092DE
:104E80005B020E94830E0E94F22F10928302109206
:104E90006A02109269028091690290916A02885EAA
:104EA0009340C8F30F2EFCE1EF2EF2E0FF2EF02D21
:104EB0000F2EF5E2CF2EF2E0DF2EF02D0F2EF5E1D2
:104EC0002F2EF0E03F2EF02D03E00F2EF5E74F2EB2
:104ED000F2E05F2EF02D0F2EFBE3AF2EBB24F02D62
:104EE0000F2EF7E98F2EF2E09F2EF02D0894811CF3
:104EF000911C0F2EF3E06F2EF0E07F2EF02D8091AD
:104F0000660290916702892B11F40E940617809126
:104F10005902882361F10E94F405C7010E942E0600
:104F200080E061E00E943E06C6010E942E0680914C
:104F30005902882391F088EE93E063E070E040E846
:104F40000E94D40C84EF91E063E070E040E80E949E
:104F5000D40C80915902882371F70E94F22F10928D
:104F6000B5021092B90210925B020E94830E8091EA
:104F7000B5028823E1F18130C1F58091B802882320
:104F800089F58091850290918602892B19F1809193
:104F90008502909186020197909386028093850204
:104FA0008091660290916702029750F0E1E0F0E094
:104FB000F0936702E09366028091D1028823E1F7C3
:104FC000C1010E94B43090936702809366020E94F0
:104FD000271008C08091660290916702892B11F416
:104FE0000E941C161092B50202C01092B502809168
:104FF000B902882349F1813029F58091B8028823CC
:10500000F1F480916B028823D1F080916602909137
:105010006702892BA1F485E090E00E94AC3090E01B
:10502000880F991F880F991F880F991F9093B302BB
:105030008093B20281E08093B8020E9455161092CC
:10504000B90202C01092B902809173028230C9F194
:10505000833009F4DDC0813009F0F0C01092730292
:1050600080E00E942C0C882309F0E8C0A7E9B2E098
:105070009C91F4018081880F880F82958F70ECEBF2
:10508000F9E0E80FF11DE491D4018C919983EB8351
:1050900082958695869583708A83AAECB2E0FE019C
:1050A0003196802F01900D928150E1F76091CA02F4
:1050B0007091CB028091CC020E945D1D1092730210
:1050C000BDC01092730280E00E942C0C882309F46A
:1050D0009CC00E9443106C837D838E83A4E7B2E062
:1050E000FE013496802F01900D928150E1F7E6E7A2
:1050F000F2E08081883E09F088C0A4E7B2E08C919C
:10510000833809F452C0893A09F07FC0F2018081E6
:105110008081843068F5608180E090E00E94BA3040
:105120000E94E9130E94140CD2018C918823C1F0D3
:1051300010E088EE93E062E070E040E80E94D40C5A
:1051400010926A02109269028091690290916A023B
:10515000885E9340C8F31F5FF2018081181748F3FF
:1051600088EE93E062E070E040E80E94D40C4DC00D
:1051700088EE93E063E070E040E80E94D40C84EF96
:1051800091E063E070E040E80E94D40C88EE93E088
:1051900063E070E040E80E94D40C84EF91E063E0AB
:1051A00070E040E80E94D40C30C0D2018C91853070
:1051B00061F58091660290916702029750F0E1E0FC
:1051C000F0E0F0936702E09366028091D1028823B9
:1051D000E1F70E94E61C10925B021092B502109259
:1051E000B902109273020E94830E8091BD020E9448
:1051F000A00CA2E3B0E08C9180618C930E94091610
:10520000E2E3F0E080818F7E80831092730216C00B
:105210008091D2029091D302892B71F48091D102B6
:10522000882351F4D5018C9181608C930E94C01524
:10523000F50180818E7F80831092730280914502F8
:10524000882311F00E945D1F8091B8028230A9F47A
:1052500080916B02815080936B02C3010E94AC303D
:1052600090E090938602809385020E94D60E0E9461
:10527000C80E0E9440161092B80280915B028330E3
:10528000F9F0843028F4813041F0823011F515C0F6
:105290008430C9F08530E9F419C08091D4028823A4
:1052A00019F0813039F404C081E08093D40202C047
:1052B0001092D40210925B020EC010925B020BC0DF
:1052C00010925B0208C010925B0205C010925B0254
:1052D00002C010925B028091B002882309F40FCEC5
:1052E0000E94C80E8091B00281508093B00207CE18
:1052F0001F920F920FB60F9211242F933F938F930B
:105300009F93AF93BF93EF93FF9380B38470809389
:105310003F0280913F02882351F480915C0290917A
:105320005D02019690935D0280935C025CC0809167
:10533000CF029091D00201969093D0028093CF0239
:1053400080916802882399F180917B0290917C0280
:105350002091CF023091D002880F991F880F991F9A
:10536000880F991F8217930710F510926802809199
:10537000DC029091DD028E30910519F0489749F4D6
:1053800004C081E08093730207C082E080937302BF
:1053900003C083E0809373021092840280915A02CA
:1053A000882329F4E9E5F0E080818F77808380917C
:1053B0007B0290917C022091CF023091D002880F25
:1053C000991F880F991F880F991F8217930758F408
:1053D00080915A02882339F410928402E9E5F0E0C2
:1053E00080818F77808380915A02813009F08BC051
:1053F00080915E0290915F02892B89F0E5E3F0E0F5
:105400009081809162028927808380915E029091D1
:105410005F02019790935F0280935E0274C0E5E3A0
:10542000F0E080818F7B808380818F778083809183
:10543000C8029091C9021816190684F480818F7BE6
:10544000808380818F7780838091C8029091C90288
:1054500001979093C9028093C80255C080916E0253
:1054600090916F02892BD1F180916D02882339F4DC
:10547000ECE6F2E080818F5F819380E88083ACE688
:10548000B2E08D91E7EAF2E0E80FF11D80819C9196
:10549000892349F080917D0290917E0290935F0272
:1054A00080935E0208C080917B0290917C02909371
:1054B0005F0280935E0280918102909182029093BC
:1054C000C9028093C802EDE6F2E08081869581935F
:1054D0008081918101979183808315C010925A0237
:1054E000E5E3F0E080818F7D80838091B0028F5F63
:1054F0008093B00280918402882329F4E9E5F0E0EA
:1055000080818F778083FF91EF91BF91AF919F91C1
:105510008F913F912F910F900FBE0F901F90189574
:10552000DF93CF9300D0CDB7DEB78091D10288232F
:1055300049F483E190E00E94AC3090E00E94840A3C
:105540008093D1028091660290916702019739F4AD
:10555000CE0101960E94EB0A1092D10204C0CE0146
:1055600001960E94D90A20916602309167028091CB
:10557000C6029091C7022817390781F50E94CF0C07
:10558000813061F5B29B02C01A8202C081E08A8339
:105590008A81813019F58091BD028823F9F08091CC
:1055A000850290918602892BC9F0809185029091A5
:1055B0008602019790938602809385020E942710AD
:1055C000CE0101960E94EB0A1092D10285E190E093
:1055D0000E94B430909367028093660289810F9095
:1055E0000F90CF91DF9108951F920F920FB60F92F7
:1055F00011242F933F934F935F936F937F938F93D8
:105600009F93AF93BF93EF93FF93DF93CF930F924B
:10561000CDB7DEB7E9E5F0E080818F7E80837894B6
:105620008091850290918602892BC9F08091660253
:1056300090916702892B99F00E94902A8CBF8091EB
:10564000660290916702019709F41CBE8091660280
:105650009091670201979093670280936602809110
:10566000850290918602892BF1F4EBE3F0E08081D2
:10567000816080838091660290916702892B99F006
:105680000E94902A8CBF80916602909167020197D8
:1056900009F41CBE80916602909167020197909375
:1056A00067028093660280913D0290913E022091B4
:1056B0003D0230913E0264E670E00E945F3084E675
:1056C00090E0AC01649FC001659F900D749F900DA8
:1056D00011248217930709F0BCC08091CD029091EC
:1056E000CE0201969093CE028093CD028091D20299
:1056F0009091D302892B49F08091D2029091D302EC
:1057000001979093D3028093D2028091B5028823AF
:1057100009F049C0B29B02C0198202C081E08983AE
:105720008981882319F08130D1F51AC080919F02B8
:105730009091A002049750F0EFE9F2E011821082FC
:10574000329680818E7F808381E02BC0EFE9F2E08A
:1057500011821082329680818160808380E021C036
:1057600080919F029091A002049750F0EFE9F2E03F
:1057700011821082329680818E7F808381E011C0F9
:10578000AFE9B2E0FD018191919120812170820FFA
:10579000911D11969C938E938091B50202C08091C9
:1057A000B5028093B5028091B902882309F049C0FF
:1057B000B09B02C0198202C081E08983898188235D
:1057C00019F08130D1F51AC08091A2029091A30204
:1057D000049750F0E2EAF2E0118210823296808162
:1057E0008E7F808381E02BC0E2EAF2E0118210829A
:1057F000329680818160808380E021C08091A20206
:105800009091A302049750F0E2EAF2E01182108234
:10581000329680818E7F808381E011C0A2EAB2E05F
:10582000FD018191919120812170820F911D11962E
:105830009C938E938091B90202C08091B9028093AB
:10584000B90280915B02882321F40E94A62E8093E6
:105850005B0280913D0290913E02019690933E0240
:1058600080933D0280913D0290913E02895E93407B
:1058700008F478C010923E0210923D028091B2026C
:105880009091B302892B51F08091B2029091B302B2
:1058900001979093B3028093B20207C08091B8023F
:1058A000813019F482E08093B8029091D502809102
:1058B0002E02892331F4E5E3F0E08081877F808345
:1058C00005C0E5E3F0E08081886080839091D60296
:1058D00080912E02892331F4E5E3F0E080818F7E10
:1058E000808305C0E5E3F0E0808180618083909152
:1058F000D70280912E02892331F4E5E3F0E0808124
:105900008B7F808305C0E5E3F0E080818460808345
:105910009091D80280912E02892331F4E2E3F0E0E5
:1059200080818F77808305C0E2E3F0E0808180682A
:10593000808380912E02880F80932E0280912E0208
:10594000882319F481E080932E02859B06C0EBE347
:10595000F0E080818260808305C0EBE3F0E080812D
:105960008D7F80838091BA02882329F08091B102D3
:105970008CBF1092BA0282991DC085991BC080917C
:10598000600290916102805A9F4048F480916002C9
:1059900090916102019690936102809360028091E0
:1059A000600290916102805A9F4070F081E0809384
:1059B00059020AC01092610210926002809159024D
:1059C000882311F0109259028091690290916A0225
:1059D000019690936A0280936902F894E9E5F0E0F9
:1059E0008081806180830F90CF91DF91FF91EF9153
:1059F000BF91AF919F918F917F916F915F914F91E7
:105A00003F912F910F900FBE0F901F9018951F92EE
:105A10000F920FB60F9211242F933F934F935F93E2
:105A20006F937F938F939F93AF93BF93EF93FF9366
:105A3000DF93CF930F92CDB7DEB781E080937202F0
:105A4000198289818F5F89830E9404090F90CF9109
:105A5000DF91FF91EF91BF91AF919F918F917F91D6
:105A60006F915F914F913F912F910F900FBE0F90CB
:105A70001F9018951F920F920FB60F9211242F931B
:105A80003F934F935F936F937F938F939F93AF93C6
:105A9000BF93EF93FF93E9E5F0E080818068808316
:105AA00081E08093840205B600FC3BC0E5E5F0E0B0
:105AB00080818160808380916802882349F1E1E8D8
:105AC000F2E0408151813897808191812091CF020D
:105AD0003091D002840F951F2817390780F4E1E830
