:100000000C9493030C94CF230C94B2220C94B00361
:100010000C94E5220C94B0030C94B0030C949D2036
:100020000C94B0030C94B0030C94B0030C94B00384
:100030000C94B0030C947A260C94B0030C942526EF
:100040000C94B0030C94B0030C94B0030C94B00364
:100050000C94B0038F1A921A951A981A9B1A9E1A2A
:10006000A11AA41AA71AAA1AAD1AB01AB31AB61A64
:10007000B91ABC1ABF1AC21AC51AC81ACB1ACE1A94
:10008000D11AD41AD71ADA1ADD1AE01AE31AE61AC4
:10009000E91AEC1AEF1AF21AF51AF81AFB1AFE1AF4
:1000A000011B041B071B0A1B0D1B101B131B161B1C
:1000B000191B41A042A1E045A3A4A5A64BA74D480A
:1000C0004FA8504354A9AA58E1ABACE2ADAEADAFD6
:1000D000B0B161B2B3B4E365B6B7B8B9BABBBCBD31
:1000E0006FBE7063BF79E478E5C0C1E6C2C3C4C522
:1000F000C6C762756C6C6574735F696E5F636C69AB
:10010000703D0062756C6C6574735F696E5F636CE3
:1001100069703F0070726F746F636F6C3F00636C47
:100120006970733D00636C6970733F007072657035
:100130006172655F746F5F77726974655F626C6F1F
:10014000636B00726561645F626C6F636B00736FF9
:10015000756E645F315F6164726573733D00736FC8
:10016000756E645F315F6164726573733F00736FB6
:10017000756E645F315F73697A653D00736F756E8C
:10018000645F315F73697A653F00736F756E645F9A
:10019000325F6164726573733D00736F756E645F87
:1001A000325F6164726573733F00736F756E645F75
:1001B000325F73697A653D00736F756E645F325F9D
:1001C00073697A653F00736F756E645F335F616456
:1001D000726573733D00736F756E645F335F616446
:1001E000726573733F00736F756E645F335F73691D
:1001F0007A653D00736F756E645F335F73697A650E
:100200003F00736F756E645F345F61647265737312
:100210003D00736F756E645F345F61647265737304
:100220003F00736F756E645F345F73697A653D007C
:10023000736F756E645F345F73697A653F00736FC7
:10024000756E645F355F6164726573733D00736FD3
:10025000756E645F355F6164726573733F00736FC1
:10026000756E645F355F73697A653D00736F756E97
:10027000645F355F73697A653F00736F756E645FA5
:10028000365F6164726573733D00736F756E645F92
:10029000365F6164726573733F00736F756E645F80
:1002A000365F73697A653D00736F756E645F365FA4
:1002B00073697A653F00706C61795F736F756E6406
:1002C00000706C61795F73686F745F736F756E64D3
:1002D00000706C617965725F69643D00706C617972
:1002E00065725F69643F0064616D6167655F696E37
:1002F0006465783D0064616D6167655F696E646522
:10030000783F0069725F706F7765723D0069725F58
:10031000706F7765723F00667269656E646C795FB5
:10032000666972653D00667269656E646C795F66C8
:100330006972653F007465616D5F69643D00746555
:10034000616D5F69643F00626174745F66756C6CB7
:100350005F766F6C746167653D00626174745F669F
:10036000756C6C5F766F6C746167653F0062617479
:10037000745F6C6F775F766F6C746167653D006268
:100380006174745F6C6F775F766F6C746167653FE3
:1003900000F200030114011E0125012C0143014E4E
:1003A000015E016E017C018A019A01AA01B801C6B1
:1003B00001D601E601F40102021202220230023EDD
:1003C000024E025E026C027A028A029A02A802B609
:1003D00002C102D102DC02E702F50203030D03179A
:1003E00003260335033E0347035A036D037F03458A
:1003F00052524F523A756E6B6E6F776E20636F6D0F
:100400006D616E640D0A004552524F520D0A00454F
:1004100052524F523A706172616D65746572206913
:1004200073206E6F74207370656369666965640D0F
:100430000A004552524F523A706172616D6574659F
:1004400072206F7574206F662072616E67650D0A89
:10045000004552524F523A696E76616C6964207061
:100460006172616D657465720D0A000D0A4F4B0D66
:100470000A00CAEEEBE8F7E5F1F2E2EE20EFE0F277
:10048000F0EEEDEEE220E220ECE0E3E0E7E8EDE57F
:100490003B696E7428302C3930293B62756C6C6571
:1004A00074735F696E5F636C69703F3B62756C6CFF
:1004B0006574735F696E5F636C69703D0D0ACCE0B3
:1004C000E3E0E7E8EDEEE23B696E7428302C313072
:1004D00030293B636C6970733F3B636C6970733D9B
:1004E0000D0AC8E4E5EDF2E8F4E8EAE0F2EEF02007
:1004F000E8E3F0EEEAE03B696E7428302C313237E5
:10050000293B706C617965725F69643F3B706C6117
:100510007965725F69643D0D0AD6E2E5F220EAEE84
:10052000ECE0EDE4FB3B656E756D28CAF0E0F1EDA3
:10053000E0FF2CD1E8EDFFFF2CC6E5EBF2E0FF2C4D
:10054000C7E5EBE5EDE0FF293B7465616D5F69642C
:100550003F3B7465616D5F69643D0D0ACDE0EDEE72
:10056000F1E8ECFBE920F3F0EEED3B656E756D28EC
:1005700031252C32252C34252C35252C37252C31B2
:1005800030252C3135252C3137252C3230252C3295
:1005900035252C3330252C3335252C3430252C357E
:1005A00030252C3735252C31303025293B64616DC1
:1005B0006167655F696E6465783F3B64616D616723
:1005C000655F696E6465783D0D0AC4F0F3E6E5F198
:1005D000F2E2E5EDEDFBE920EEE3EEEDFC3B656ECE
:1005E000756D28CDE5F22CC4E0293B667269656E15
:1005F000646C795F666972653F3B667269656E64BB
:100600006C795F666972653D0D0ACCEEF9EDEEF12D
:10061000F2FC20C8CA20E8E7EBF3F7E5EDE8FF3B82
:10062000656E756D28C4EBFF20E8E3F0FB20E22047
:10063000EFEEECE5F9E5EDE8E82CC4EBFF20E8E3AC
:10064000F0FB20EDE020F3EBE8F6E5293B69725F73
:10065000706F7765723F3B69725F706F7765723D4F
:100660000D0ACDE0EFF0FFE6E5EDE8E520E7E0F08C
:10067000FFE62E20E1E0F2E0F0E5E820ECC23B6985
:100680006E7428353030302C3435303030293B62B0
:100690006174745F66756C6C5F766F6C74616765AE
:1006A0003F3B626174745F66756C6C5F766F6C74EF
:1006B0006167653D0D0ACDE0EFF0FFE6E5EDE8E5A9
:1006C00020F0E0E7F0FFE62E20E1E0F2E0F0E5E8E0
:1006D00020ECC23B696E7428343530302C34353010
:1006E0003030293B626174745F6C6F775F766F6C3A
:1006F000746167653F3B626174745F6C6F775F76AE
:100700006F6C746167653D0D0A00303132333435EA
:10071000363738390001020405070A0F1114191E73
:100720002328324B640011241FBECFE5D8E0DEBF82
:10073000CDBF12E0A0E6B0E0EEE6FEE402C0059018
:100740000D92A03AB107D9F715E0A0EAB2E001C0D6
:100750001D92AC34B107E1F70E94AA1D0C94352715
:100760000C940000E7E3F0E0808180628083808168
:1007700080688083808180648083E8E3F0E080810A
:100780008F7D808380818F77808380818F7B808342
:100790000895DF93CF9300D0CDB7DEB78A8380E88A
:1007A000898320E030E0E8E3F0E099818A818923C1
:1007B00021F480818F7D808303C08081806280836B
:1007C00080818068808380818F778083898186950E
:1007D00089832F5F3F4F2830310539F7E8E3F0E098
:1007E00080818F7B80838081806480830F900F90D5
:1007F000CF91DF91089580E00E94C9030895809110
:10080000BE0284608093BE020E94C9038091BE0232
:100810008B7F8093BE020E94C90308951F93982F77
:10082000662331F08091BE0282608093BE0205C0D3
:100830008091BE028D7F8093BE02992334F4809113
:10084000BE0280648093BE0205C08091BE028F7B91
:100850008093BE02192F96FF06C08091BE0280626F
:100860008093BE0205C08091BE028F7D8093BE0240
:1008700015FF06C08091BE0280618093BE0205C054
:100880008091BE028F7E8093BE0214FF06C08091CD
:10089000BE0288608093BE0205C08091BE02877F41
:1008A0008093BE028091BE020E94C9030E94FF0392
:1008B00080E49FE10197F1F713FF06C08091BE022B
:1008C00080648093BE0205C08091BE028F7B8093BE
:1008D000BE0212FF06C08091BE0280628093BE02FB
:1008E00005C08091BE028F7D8093BE0211FF06C0BD
:1008F0008091BE0280618093BE0205C08091BE02DD
:100900008F7E8093BE0210FF06C08091BE02886079
:100910008093BE0205C08091BE02877F8093BE0295
:100920008091BE020E94C9030E94FF0380E49FE100
:100930000197F1F71F91089560E00E940E04089559
:1009400081E090E00E949C04089561E00E940E0402
:10095000089580618093BE020E94FF0380EE9EE2B4
:100960000197F1F70895DF93CF930F92CDB7DEB7DC
:10097000803418F480E4898301C019828981805809
:100980000E949C0489810F90CF91DF9108958A3055
:1009900031F48091AC0290E00E94B3040895803C51
:1009A00028F0E82FF0E0EE50F040849161E00E94E2
:1009B0000E048091AC028F5F8093AC020895CF93B8
:1009C000DF93FC018081882339F0EF010E94C70486
:1009D000898121968823D1F7DF91CF9108951F93C4
:1009E000182F662331F480580E949C041093AC02A7
:1009F00007C080540E949C04812F805C8093AC02CD
:100A00001F91089582E00E949C0482E08093AC02D2
:100A10000895CF93DF93FC018491882349F0EF017F
:100A200021960E94C704FE01219684918823C9F76C
:100A3000DF91CF9108958091BE0280688093BE02BD
:100A40000E94C90308958091BE028F778093BE02F1
:100A50000E94C903089580E40E949C048EE00E94D5
:100A6000A50481E10E94A50481E10E94A50481E121
:100A70000E94A50481E10E94A50481E10E94A504D1
:100A80008FE10E94A50480E00E94A5048EE00E94F0
:100A9000A50481E10E94A50481E10E94A50481E1F1
:100AA0000E94A50481E10E94A5048FE10E94A50493
:100AB0008FE10E94A50480E00E94A5048EE00E94C0
:100AC000A50481E10E94A50481E10E94A50481E1C1
:100AD0000E94A5048FE10E94A5048FE10E94A50455
:100AE0008FE10E94A50480E00E94A5048EE00E9490
:100AF000A50481E10E94A50481E10E94A5048FE183
:100B00000E94A5048FE10E94A5048FE10E94A50424
:100B10008FE10E94A50480E00E94A5048EE00E945F
:100B2000A50481E10E94A5048FE10E94A5048FE144
:100B30000E94A5048FE10E94A5048FE10E94A504F4
:100B40008FE10E94A50480E00E94A5048EE00E942F
:100B5000A5048FE10E94A5048FE10E94A5048FE106
:100B60000E94A5048FE10E94A5048FE10E94A504C4
:100B70008FE10E94A50480E00E94A50480E80E9405
:100B80009C0408950E94B2030E94FB031092BE02CF
:100B90001092AC022EEB30E040E951E0CA0101971F
:100BA000F1F721503040D1F70E94B20324EB30E03E
:100BB00040E951E0CA010197F1F721503040D1F7E7
:100BC00088E090E00E94A9040E94FF030E94FF03B6
:100BD00080E090E00E94A90488E290E00E949C04DA
:100BE00088E090E00E949C0481E090E00E949C04D8
:100BF00084E090E00E949C048CE090E00E949C04C1
:100C000086E090E00E949C040E942B0508951092BB
:100C1000DB02E1E3F0E08081877F8083E2E3F0E0C4
:100C20008081877F8083E5E5F0E080818860808334
:100C300080818B7F8083EBE5F0E08081806880831A
:100C40001092BF020895382F20E0E1E3F0E0A8E120
:100C5000B1E060E570E040E451E030FF0AC080811F
:100C6000886080838081877F8083CA010197F1F744
:100C70000CC0808188608083CD010197F1F780816D
:100C8000877F8083CB010197F1F72F5F283011F028
:100C90003695E3CF089530E020E0E1E3F0E064E151
:100CA00070E0A0E3B0E040E253E0808188608083A0
:100CB0008081877F8083CB010197F1F78C918870C9
:100CC0008093B60226958091B60281112068CA01F0
:100CD0000197F1F73F5F383041F7822F0895282FB1
:100CE00090E038E1862F822780FF06C0822F83277D
:100CF0008695282F206801C026959F5F983011F0B7
:100D00006695F0CF822F0895CF93DF938091BF0235
:100D1000882309F06FC080E098E00197F1F7E1E3E4
:100D2000F0E080818860808380E897E00197F1F7A8
:100D30008081877F80838CE190E00197F1F7839B2E
:100D400059C080E491E00197F1F7839953C080EC9A
:100D500093E00197F1F7839B4DC080E897E00197FE
:100D6000F1F783E30E9423060E944B068093C002A2
:100D70008091C0028823F1F16091C00280E00E945E
:100D80006F068093BD021092C2028091C20286302B
:100D9000F8F4C7EBD2E00E944B068093C102809129
:100DA000C2029091C102FE01E80FF11D9083809173
:100DB000BD026091C1020E946F068093BD028091C6
:100DC000C2028F5F8093C2028091C202863018F304
:100DD0000E944B068093C2029091C2028091BD0294
:100DE000981721F082E08093BF0204C081E08093D5
:100DF000BF0205C0EAE5F0E0808180688083DF9172
:100E0000CF910895E0E2F0E08CE0808380818A3029
:100E100010F48AE080B9E1E2F0E080818C7F808389
:100E20000895CF93DF93582FE6E5F0E044EAA1E27E
:100E3000B0E0C3E2D0E030EA24E840838081882338
:100E4000ECF78C91887F8830B1F5388320838081DE
:100E50008823ECF78C91887F883179F793B984E8FF
:100E600086BFE6E5F0E080818823ECF781B1887FDA
:100E7000883209F553B984E886BFE6E5F0E0808161
:100E80008823ECF781B1887F8832A9F463B984E8BC
:100E900086BFE6E5F0E080818823ECF781B1887FAA
:100EA000883249F484E986BFE6E5F0E0808184FD7C
:100EB000FDCF81E001C080E0DF91CF910895CF9315
:100EC000DF93582FE6E5F0E044EAA1E2B0E0C3E2A8
:100ED000D0E030EA24E8408380818823ECF78C91CD
:100EE000887F883009F04DC0388320838081882333
:100EF000ECF78C91887F883171F793B984E886BFCD
:100F0000E6E5F0E080818823ECF781B1887F8832C4
:100F1000C1F553B984E886BFE6E5F0E08081882317
:100F2000ECF781B1887F883261F584EA86BFE6E517
:100F3000F0E080818823ECF781B1887F803109F56A
:100F400081EA83B984E886BFE6E5F0E08081882302
:100F5000ECF781B1887F8034A1F484E886BFE6E5B0
:100F6000F0E080818823ECF781B1887F883549F4EF
:100F700093B184E986BFE6E5F0E0808184FDFDCF92
:100F800001C090E0892FDF91CF9108950F931F93B7
:100F9000CF93DF938C01E6E5F0E034EAA1E2B0E024
:100FA000C3E2D0E020EA94E8308380818823ECF724
:100FB0008C91887F883009F048C028839083808195
:100FC0008823ECF78C91887F883171F773B984E8B6
:100FD00086BFE6E5F0E080818823ECF781B1887F69
:100FE000883299F563B984E886BFE6E5F0E0808150
:100FF0008823ECF781B1887F883239F54115510596
:10100000D9F020E030E0C3E2D0E0E6E5F0E094E89B
:1010100061E270E0D8018D918D0188839083808199
:101020008823ECF7DB018C91887F883271F42F5F85
:101030003F4F2417350770F384E986BFE6E5F0E0FB
:10104000808184FDFDCF81E001C080E0DF91CF9100
:101050001F910F9108950F931F93CF93DF938C01EE
:10106000E6E5F0E034EAA1E2B0E0C3E2D0E020EA55
:1010700094E8308380818823ECF78C91887F8830D6
:1010800009F071C02883908380818823ECF78C91CC
:10109000887F883171F773B984E886BFE6E5F0E0B0
:1010A00080818823ECF781B1887F883209F05BC0AA
:1010B00063B984E886BFE6E5F0E080818823ECF739
:1010C00081B1887F883209F04EC084EA86BFE6E5A8
:1010D000F0E080818823ECF781B1887F803109F0CE
:1010E00042C081EA83B984E886BFE6E5F0E080810A
:1010F0008823ECF781B1887F8034A9F541505040B6
:10110000D9F020E030E0E6E5F0E094EC61E270E058
:10111000C3E2D0E0908380818823ECF7DB018C91DF
:10112000887F803501F58881D8018D938D012F5FEF
:101130003F4F2417350770F384E886BFE6E5F0E0FB
:1011400080818823ECF781B1887F883561F483B191
:10115000F801808384E986BFE6E5F0E0808184FDC4
:10116000FDCF81E001C080E0DF91CF911F910F9111
:101170000895CF93DF93582FE6E5F0E044EAA1E22B
:10118000B0E0C3E2D0E030EA24E8408380818823E5
:10119000ECF78C91887F8830E1F53883208380815B
:1011A0008823ECF78C91887F883179F793B984E8AC
:1011B00086BFE6E5F0E080818823ECF781B1887F87
:1011C000883239F553B984E886BFE6E5F0E08081DE
:1011D0008823ECF781B1887F8832D9F484EA86BF0E
:1011E000E6E5F0E080818823ECF781B1887F8031EB
:1011F00081F481EA83B984E886BFE6E5F0E0808186
:101200008823ECF781B190E0887F803419F491E075
:1012100001C090E0892FDF91CF910895DC0184EC2B
:1012200086BFE6E5F0E080818823ECF781B1887F16
:10123000803511F080E0089583B18C9381E00895AA
:10124000DC0184E886BFE6E5F0E080818823ECF7E6
:1012500081B1887F883511F080E0089583B18C9347
:1012600084E986BFE6E5F0E0808184FDFDCF81E082
:101270000895CF93DF93E4E3F0E080818062808380
:10128000808180648083A5E3B0E08C918F7B8C9318
:101290008081806880838C918F778C938081886037
:1012A000808380818061808380818460808321E36A
:1012B00030E0E901888180688883A7E3B0E08C9101
:1012C00088608C934AE350E0FA01808181608083DA
:1012D0008C9184608C93E8E3F0E080818B7F808345
:1012E00088818061888388818B7F88838C918E7FC1
:1012F0008C938081816080838C918B7F8C938081A3
:10130000846080838C918D7F8C93808182608083C8
:10131000EA0188818F778883EBE3F0E080818F7723
:101320008083DF91CF9108958DED83BD89E085BDE8
:10133000E9E5F0E080818F7780830895E1E3F0E0D4
:1013400080818B7F8083E5E5F0E08081826080830F
:1013500080818E7F8083EBE5F0E0808180648083F4
:101360000895982F969596959695E92FF0E09F0110
:10137000220F331F220F331F220F331F821B6623BE
:1013800089F0E051FD4F408127E030E0281B310912
:1013900081E090E002C0880F991F2A95E2F7482B60
:1013A00040830895E051FD4F408127E030E0281B45
:1013B000310981E090E002C0880F991F2A95E2F779
:1013C00080958423808308951092480381E0809360
:1013D000CA02E9E5F0E0808180688083E5E3F0E01F
:1013E0008081806280830895EDE0F3E020E030E0CA
:1013F0004BE250E066E570E0880F1AF46193719358
:1014000002C0419351932F5F3F4F27303105A1F721
:101410008BE290E090930C0380930B03089581304E
:1014200089F0813028F08230C9F0833061F522C024
:10143000EDE1F3E08BE290E091838083329791833A
:1014400080830895EDE1F3E086E590E09183808369
:1014500032978BE290E0918380830895EDE1F3E091
:101460008BE290E091838083329786E590E09183D0
:1014700080830895EDE1F3E086E590E09183808339
:101480003297918380830895873009F4C5C08830EE
:1014900090F4833009F468C0843030F48130C1F1B5
:1014A000823008F04BC020C0853009F489C08630F6
:1014B00008F09CC06FC08B3009F406C18C3038F442
:1014C000893009F4D5C08A3008F0E8C0BBC08D303F
:1014D00009F426C18D3008F40DC18E3009F436C1EF
:1014E0008F3009F05CC148C1A5E2B3E08BE290E027
:1014F00011969C938E93FD01329791838083FD0119
:10150000349791838083169711969C938E930895B8
:10151000A5E2B3E086E590E011969C938E93FD01E1
:1015200032978BE290E091838083FD013497918321
:101530008083169711969C938E930895A5E2B3E04D
:101540002BE230E011963C932E93FD01329786E515
:1015500090E091838083FD01349731832083169737
:1015600011963C932E930895A5E2B3E086E590E0B2
:1015700011969C938E93FD01329791838083FD0198
:1015800034978BE290E091838083169711969C9319
:101590008E930895A5E2B3E02BE230E011963C93E0
:1015A0002E93FD01329731832083FD01349786E528
:1015B00090E091838083169711963C932E93089523
:1015C000A5E2B3E026E530E011963C932E93FD01B1
:1015D00032978BE290E091838083FD0134973183D1
:1015E0002083169711969C938E930895A5E2B3E0FD
:1015F0002BE230E011963C932E93FD01329786E565
:1016000090E091838083FD013497918380831697C6
:1016100011963C932E930895A5E2B3E086E590E001
:1016200011969C938E93FD01329791838083FD01E7
:1016300034979183808316978BE290E011969C9368
:101640008E930895A5E2B3E08BE290E011969C930F
:101650008E93FD01329791838083FD0134979183AE
:101660008083169786E590E011969C938E9308955B
:10167000A5E2B3E026E530E011963C932E93FD0100
:1016800032978BE290E091838083FD0134979183C0
:101690008083169711963C932E930895A5E2B3E0AC
:1016A0002BE230E011963C932E93FD01329786E5B4
:1016B00090E091838083FD013497318320831697D6
:1016C00011969C938E930895A5E2B3E026E530E051
:1016D00011963C932E93FD01329731832083FD01B7
:1016E00034978BE290E091838083169711963C9318
:1016F0002E930895A5E2B3E08BE290E011969C93BF
:101700008E93FD01329791838083FD01349786E5A6
:1017100090E091838083169711969C938E93089501
:10172000A5E2B3E026E530E011963C932E93FD014F
:1017300032978BE290E091838083FD01349731836F
:101740002083169711963C932E930895A5E2B3E05B
:101750008BE290E011969C938E93FD01329786E583
:1017600090E091838083FD01349791838083169765
:1017700011969C938E930895A5E2B3E086E590E0E0
:1017800011969C938E93FD01329791838083FD0186
:10179000349791838083169711969C938E93089526
:1017A000482F282F26952695269530E0F901E051FF
:1017B000FD4F808190E0220F331F220F331F220F35
:1017C000331F421B27E030E0241B310902C09595EE
:1017D00087952A95E2F78170089580E88CBFE3E54C
:1017E000F0E088E4808380818160808380818062F2
:1017F00080830895AFE4B0E08C918E7F8C938C91C0
:101800008D7F8C93EEE4F0E080818860808380811E
:101810008F7E80838C918F7B8C938C918F778C9330
:1018200080818F7E808380818F7D808380818E7F89
:10183000808380818260808380818B7F808389EF39
:101840008ABDE9E5F0E08081806180830895982F6A
:10185000A3E4B3E0FD0111921082FD0132961082E3
:1018600013961C928695482F50E01416150674F4B2
:1018700020E030E063E473E08FEFFB01E20FF31F41
:1018800080832F5F3F4F24173507BCF39A01220F47
:10189000331F892F90E0821B930B181619062CF426
:1018A000FA01ED5BFC4F8CEC8083089586B386953E
:1018B000809581700895EF92FF920F931F93CF93BD
:1018C000DF93FC01062FF72E142F8FE0E13AF80783
:1018D00008F04EC0C0912E03D0912F038FEF9FEFE1
:1018E00090932F0380932E0380EA9FE0BF010E9414
:1018F000CB26E62E802F9F2D9C01213A310510F03A
:1019000020EA30E0CF016AE070E00E94CB26269FFB
:10191000A001279F500D369F500D112441155105F0
:1019200019F1E0E0F0E0ACE5B0E06E2D70E09B0175
:101930001C931092D7021092D6028091D6029091F9
:10194000D70286179707C8F31C921092D7021092FD
:10195000D6028091D6029091D70282179307C8F3DE
:101960003196E417F50720F3D0932F03C0932E038D
:10197000DF91CF911F910F91FF90EF9008950F93FA
:101980001F9302E310E0F80180818061808388EE7C
:1019900093E063E070E040E80E945B0C84EF91E02C
:1019A00063E070E040E80E945B0CF80180818F7E6C
:1019B00080831F910F9108958F929F92AF92BF9253
:1019C000CF92DF92EF92FF920F931F93DF93CF930B
:1019D00000D0CDB7DEB7D62E8983662329F422E066
:1019E00030E043E050E007C0462F50E09A0121501C
:1019F00030400AF476C00F2EFAE0EF2EF7E0FF2E0B
:101A0000F02D06EA12E089816AE00E94BF269A83DF
:101A100089810E94BF2689838A81F701E80FF11D21
:101A2000E491D801A20FB31FEC93215030405AF734
:101A3000FA01EA55FD4F1082DD2009F041C00F2E5A
:101A4000F6EACF2EF2E0DF2EF02D56010894A11C0D
:101A5000B11C07EA12E04801089481089108B4011A
:101A60006E5F7F4FA4014D5F5F4F94012C5F3F4F2E
:101A7000D40115960F2EF6E0EF2EFF24F02DE80C82
:101A8000F91CF6018081F50190818033C9F4992316
:101A9000B9F0F8018081F4018083FB018081F801B5
:101AA0008083FA018081FB018083F9018081FA0142
:101AB00080838C91F9018083F70180818C93E1CF41
:101AC00086EA92E00F900F90CF91DF911F910F91D6
:101AD000FF90EF90DF90CF90BF90AF909F908F904E
:101AE0000895FA01EA55FD4F1082EACF8F929F9236
:101AF000AF92BF92CF92DF92EF92FF920F931F931C
:101B0000DF93CF9300D000D0CDB7DEB7462F9A83B6
:101B10008983662341F404E010E00F2EF5E0EF2EF8
:101B2000FF24F02D07C0E62EFF248701015010404E
:101B30000AF488C00F2EFAE0AF2EF7E0BF2EF02D8A
:101B40000F2EF0EACF2EF2E0DF2EF02D89819A8160
:101B50006AE070E00E94CB26282F392F3C832B832C
:101B600089819A816AE070E00E94CB26862F972FA8
:101B70009A8389838B819C81F501E80FF91FE49199
:101B8000D601A00FB11FEC9301501040FAF6F701F7
:101B9000E056FD4F1082442309F041C00F2EF0EAB9
:101BA000CF2EF2E0DF2EF02D56010894A11CB11CBF
:101BB00001EA12E04801089481089108B4016E5FBF
:101BC0007F4FA4014D5F5F4F94012C5F3F4FD401C5
:101BD00015960F2EF6E0EF2EFF24F02DE80CF91CE1
:101BE000F6018081F50190818033C9F49923B9F021
:101BF000F8018081F4018083FB018081F8018083FA
:101C0000FA018081FB018083F9018081FA018083E0
:101C10008C91F9018083F70180818C93E1CF80EA78
:101C200092E00F900F900F900F90CF91DF911F9146
:101C30000F91FF90EF90DF90CF90BF90AF909F906B
:101C40008F900895F701E056FD4F1082E8CF0E9473
:101C5000A00480E690E00E94DF0480912B03909125
:101C60002C0360E00E94DC0C0E94DF0488E690E018
:101C70000E94DF0480E061E00E94EF048BE690E0C8
:101C80000E94DF048091DE029091DF0260E00E94FA
:101C9000DC0C0E94DF048AE061E00E94EF0482E72E
:101CA00090E00E94DF048091D80260E00E94DC0C8A
:101CB0000E94DF0486E790E00E94DF04089587E039
:101CC00060E00E94EF0480912B0390912C0360E070
:101CD0000E94DC0C0E94DF0488E790E00E94DF0491
:101CE000089586E061E00E94EF048091DE02909109
:101CF000DF0260E00E94DC0C0E94DF0486E790E0D7
:101D00000E94DF0408958DE061E00E94EF0480915D
:101D1000D80260E00E94DC0C0E94DF0486E790E0BD
:101D20000E94DF04089580EC87B987E886B908959A
:101D3000E7E2F0E090818770892B8083E6E2F0E0B3
:101D4000808180648083808184FFFDCFE6E2F0E0C3
:101D500080818061808324B135B1822F932F0895D3
:101D60000F931F930E94A0040E9402058DE790E04C
:101D70000E94DF0409E313E0F801808160E00E9423
:101D8000DC0C0E94DF0483E890E00E94DF0480E026
:101D900061E00E94EF048BE890E00E94DF040250B3
:101DA0001040F80181918F0160E00E94DC0C0E94DC
:101DB000DF0480E990E00E94DF04F801808160E0A8
:101DC0000E94DC0C0E94DF041F910F910895843360
:101DD00021F1853360F48133C1F0823318F480330C
:101DE00041F515C08233A9F0833319F514C0873348
:101DF000D1F0883328F4853391F08633D1F411C0C3
:101E0000883399F08933A9F412C081E0089580E005
:101E1000089582E0089583E0089584E0089585E0C0
:101E2000089586E0089587E0089588E0089589E0A0
:101E3000089585E508950895CF93DF93582FE6E53B
:101E4000F0E044EAA1E2B0E0C3E2D0E030EA24E806
:101E5000408380818823ECF78C91887F883009F05B
:101E600083C03883208380818823ECF78C91887F1E
:101E7000883171F793B984E886BFE6E5F0E08081A8
:101E80008823ECF781B1887F883209F06DC053B99F
:101E900084E886BFE6E5F0E080818823ECF781B135
:101EA000887F883209F060C084EA86BFE6E5F0E00A
:101EB00080818823ECF781B1887F803109F054C09C
:101EC00081EA83B984E886BFE6E5F0E08081882373
:101ED000ECF781B1887F803409F046C061507040D2
:101EE00001F120E030E0E6E5F0E094ECA1E2B0E0C2
:101EF000C3E2D0E041E0908380818823ECF78C91AD
:101F0000887F803589F5809131038823E1F78881C6
:101F100080932A03409331032F5F3F4F26173707E3
:101F200050F384E886BFE6E5F0E080818823ECF793
:101F300081B1887F8835C1F4809131038823E1F72E
:101F400083B180932A0381E08093310384E986BFC3
:101F5000E6E5F0E0808184FDFDCF1CBE10922A03EF
:101F60001092310381E001C080E0DF91CF910895AC
:101F70000F931F9386E290E00E940D278C0188E268
:101F800090E00E940D27BC01C8010E941C0F1F9108
:101F90000F9108950F931F9382E290E00E940D2706
:101FA0008C0184E290E00E940D27BC01C8010E94D0
:101FB0001C0F1F910F9108950F931F938EE190E0D6
:101FC0000E940D278C0180E290E00E940D27BC0149
:101FD000C8010E941C0F1F910F9108950E94DC0FF1
:101FE00008950F931F938AE190E00E940D278C01C2
:101FF0008CE190E00E940D27BC01C8010E941C0FDB
:102000001F910F9108950E94F10F08950F931F9350
:1020100086E190E00E940D278C0188E190E00E940B
:102020000D27BC01C8010E941C0F1F910F9108953C
:102030008091D3029091D402029750F081E090E019
:102040009093D4028093D302809140038823E1F7D8
:102050000E94061008950F931F9382E190E00E9462
:102060000D278C0184E190E00E940D27BC01C8017E
:102070000E941C0F1F910F910895EF92FF920F93F2
:102080001F93DF93CF9300D0CDB7DEB787E00E94D8
:10209000980E9A83898386E090E00E940D277C0148
:1020A00088E090E00E940D278C018CE060E00E94A7
:1020B000EF0480914203882321F0813009F082C02F
:1020C00047C0C801880F991F880F991F6BE470E003
:1020D0000E94CB26862F972F8C0187E990E00E94E3
:1020E000DF0489819A818017910720F48AEA80931E
:1020F0004B0368C080914B038A3A11F410924B0352
:10210000C701880F991F880F991F6BE470E00E9428
:10211000CB26862F972FBC0189819A816817790772
:1021200020F485E00E94C7044DC029813A81201B1C
:10213000310BC901880F991F820F931F601B710B10
:10214000880F991F0E94CB26862F0E94C7043AC091
:1021500029813A81C901880F991F820F931F9C0121
:10216000220F331F220F331F820F931F96958795DF
:1021700096958795969587959A83898389819A8183
:1021800064E670E00E94CB26862F60E00E94DC0CA3
:102190000E94DF048BE990E00E94DF0489819A812C
:1021A00064E670E00E94CB266AE070E00E94CB26D5
:1021B000862F60E00E94DC0C0E94DF0486E790E03E
:1021C0000E94DF040F900F90CF91DF911F910F912C
:1021D000FF90EF90089588E090E00E940D2760E066
:1021E0000E94760D0E9403268BE694E00E9413263F
:1021F000089586E090E00E940D2760E00E94760D31
:102200000E9403268BE694E00E94132608950E9404
:102210002B108DE990E00E9403260895CF92DF9263
:10222000EF92FF920F931F93DF93CF9300D0CDB720
:10223000DEB71A8220E00F2EFCE4EF2EF4E0FF2E32
:10224000F02D0F2EFAE0CF2EF02DDD24D39423C0F5
:102250008091B402F701E80FF11D908199838F5F9F
:102260008093B40289818032B1F08981803370F02B
:1022700089818A3358F40A8189810E94E70E0C9D76
:1022800080011124800F8A832D2D05C082EA90E001
:102290000E94032640C08091B402F701E80FF11DAF
:1022A00080818D30A9F6222329F48FE094E00E94EA
:1022B000132631C08A81873018F48A81882329F453
:1022C00082E394E00E94132626C08A818330A1F025
:1022D000843028F4813051F08230C9F40AC085304E
:1022E00089F0853060F0863091F40FC00E942B1089
:1022F0000EC00E9406100BC00E94F10F08C00E9481
:10230000DC0F05C00E94CA0F02C00E94B80F8DE901
:1023100090E00E9403260F900F90CF91DF911F91C4
:102320000F91FF90EF90DF90CF9008950E940D27BE
:1023300060E00E94760D0E9403268AEA90E00E94E7
:102340000326089588E290E00E949611089586E29F
:1023500090E00E949611089584E290E00E94961108
:10236000089582E290E00E949611089580E290E044
:102370000E94961108958EE190E00E9496110895B2
:102380008CE190E00E94961108958AE190E00E940D
:102390009611089588E190E00E949611089586E1D3
:1023A00090E00E949611089584E190E00E949611B9
:1023B000089582E190E00E9496110895DF92EF92D5
:1023C000FF920F931F93DF93CF9300D00F92CDB75F
:1023D000DEB71B821A8220E00F2EFCE4EF2EF4E021
:1023E000FF2EF02DDD24D3942EC08091B402F7018E
:1023F000E80FF11D908199838F5F8093B4028981EA
:10240000803209F189818033C8F089818A33B0F440
:102410000A811B8189810E94E70E9801220F331FD8
:10242000000F111F000F111F000F111F200F311F70
:10243000280F311D3B832A832D2D05C082EA90E0B1
:102440000E9403264FC08091B402F701E80FF11DEE
:1024500080818D3051F6222329F48FE094E00E9490
:10246000132640C08A819B818150924028F082E3EC
:1024700094E00E94132636C00E9450268DE990E019
:102480000E94032610923B0310923A0380913A0374
:1024900090913B038A58924020F48091B5028823A2
:1024A000ACF78091B5028823CCF46A817B81769564
:1024B000762F6627779567958CE494E040E850E0A6
:1024C0000E94C607882329F08DE990E00E94032628
:1024D00009C081EB90E00E94032604C08CEC90E0E0
:1024E0000E9403260F900F900F90CF91DF911F91C4
:1024F0000F91FF90EF90DF90089580E090E00E94B0
:10250000052760E00E94DC0C0E9403268BE694E025
:102510000E94132608958AE290E00E94052760E059
:102520000E94DC0C0E9403268BE694E00E94132696
:1025300008958AE090E00E940527803439F08038C1
:1025400049F484ED90E00E94032604C086ED90E0FB
:102550000E9403268BE694E00E941326089582E0F1
:1025600090E00E94052760E00E94DC0C0E94032698
:102570008AEA90E00E940326089581E090E00E949C
:10258000052760E00E94DC0C0E9403268AEA90E0A6
:102590000E940326089584E090E00E94052760E0F1
:1025A0000E94DC0C0E9403268AEA90E00E94032627
:1025B000089583E090E00E94052760E00E94DC0C13
:1025C0000E9403268AEA90E00E940326089582E092
:1025D00090E00E940527089580E090E00E94052782
:1025E0000895EF92FF920F931F93CF93DF938BE0A9
:1025F00090E00E9405279091C0028917E1F4C0E0A5
:10260000D0E00F2EFBE0EF2EF0E0FF2EF02D07EBD9
:1026100012E0CE0101968E0D9F1D0E940527F80144
:10262000EC0FFD1F9081891731F42196C630D1053A
:1026300081F781E001C080E0DF91CF911F910F9180
:10264000FF90EF900895CF92DF92EF92FF920F9359
:102650001F93DF93CF9300D0CDB7DEB71A8220E06F
:102660000F2EFCE4EF2EF4E0FF2EF02D0F2EFAE0FB
:10267000CF2EF02DDD24D39423C08091B402F70136
:10268000E80FF11D908199838F5F8093B402898157
:102690008032B1F08981803370F089818A3358F4B7
:1026A0000A8189810E94E70E0C9D80011124800F10
:1026B0008A832D2D05C081E594E00E9413262DC04C
:1026C0008091B402F701E80FF11D80818D30A9F6E9
:1026D000222329F48FE094E00E9413261EC08A81F1
:1026E000823038F48A818A81882341F0813089F4EC
:1026F0000BC082E394E00E9413260FC08AE090E0B2
:1027000060E80E94132705C08AE090E060E40E9420
:1027100013278BE694E00E9413260F900F90CF9121
:10272000DF911F910F91FF90EF90DF90CF90089570
:10273000CF92DF92EF92FF920F931F93DF93CF938D
:1027400000D0CDB7DEB71A8220E00F2EFCE4EF2ECA
:10275000F4E0FF2EF02D0F2EFAE0CF2EF02DDD2429
:10276000D39423C08091B402F701E80FF11D90814A
:1027700099838F5F8093B40289818032B1F089811F
:10278000803370F089818A3358F40A8189810E94EC
:10279000E70E0C9D80011124800F8A832D2D05C02A
:1027A00082EA90E00E94032618C08091B402F701EB
:1027B000E80FF11D80818D30A9F6222329F48FE0E6
:1027C00094E00E94132609C06A8184E090E00E9490
:1027D00013278DE990E00E9403260F900F90CF9170
:1027E000DF911F910F91FF90EF90DF90CF900895B0
:1027F0008F929F92AF92BF92CF92DF92EF92FF9211
:102800000F931F93DF93CF9300D0CDB7DEB75C015A
:10281000862E942E1A8220E00F2EFCE4EF2EF4E098
:10282000FF2EF02D0F2EFAE0CF2EF02DDD24D394C5
:1028300023C08091B402F701E80FF11D90819983C4
:102840008F5F8093B40289818032B1F089818033B7
:1028500070F089818A3358F40A8189810E94E70ED9
:102860000C9D80011124800F8A832D2D05C081E5E8
:1028700094E00E94132622C08091B402F701E80F71
:10288000F11D80818D30A9F6222329F48FE094E098
:102890000E94132613C08A81981618F08A81881521
:1028A00028F482E394E00E94132608C06A81C501DF
:1028B0000E9413278DE990E00E9403260F900F904D
:1028C000CF91DF911F910F91FF90EF90DF90CF900C
:1028D000BF90AF909F908F90089580E090E060E06F
:1028E00043E00E94F81308958AE290E060E041E03E
:1028F0000E94F813089582E090E060E04FE00E94AB
:10290000F813089581E090E060E04FE70E94F8132B
:10291000089583E090E060E04AE50E94F81308958E
:10292000EF92FF921F93CF93DF931092CB028AE234
:1029300090E00E940527182F0E94A00488ED90E0E7
:102940000E94DF0480E061E00E94EF04112329F07F
:1029500089EE90E00E94DF0404C08DEE90E00E94BA
:10296000DF0481EF90E00E94DF04CDEED0E00F2E77
:10297000F9EEEF2EF0E0FF2EF02D36C08091CB0265
:102980008823E1F38091CB028330E1F0843028F496
:10299000813041F0823031F508C08430B1F08530AB
:1029A00009F522C01092CB021FC0112341F480E030
:1029B00061E00E94EF04C7010E94DF0411E0109261
:1029C000CB0212C01092CB020FC0112341F080E065
:1029D00061E00E94EF04CE010E94DF0410E010923B
:1029E000CB0202C01092CB028091CB02853031F62F
:1029F0008AE290E00E940527181759F00E94A0046F
:102A00008DEF90E00E94DF048AE290E0612F0E9447
:102A10001327DF91CF911F91FF90EF900895DF92E0
:102A2000EF92FF920F931F93CF93DF931092CB02FD
:102A30008AE090E00E940527182F0E94A0048BE0F6
:102A400091E00E94DF0480E061E00E94EF04103416
:102A500029F48BE191E00E94DF0406C0103821F4D4
:102A600081E291E00E94DF0481EF90E00E94DF04A8
:102A70000F2EF1E2EF2EF1E0FF2EF02D00E8CBE17A
:102A8000D1E0DD246894D6F836C08091CB0288234B
:102A9000E1F38091CB028330E1F0843028F481307F
:102AA00041F0823031F508C08430B1F0853009F54D
:102AB00022C01092CB021FC0103841F480E061E0C8
:102AC0000E94EF04CE010E94DF041D2D1092CB0264
:102AD00012C01092CB020FC0103441F480E061E0CC
:102AE0000E94EF04C7010E94DF04102F1092CB0256
:102AF00002C01092CB028091CB02853031F68AE081
:102B000090E00E940527181759F00E94A0048DEF4D
:102B100090E00E94DF048AE090E0612F0E9413277A
:102B2000DF91CF911F910F91FF90EF90DF9008956B
:102B3000BF92CF92DF92EF92FF920F931F93CF93AA
:102B4000DF938C016B01EA01B22E1092CB02CB0114
:102B50000E940527F82EFE01E80FF11DE4900E9467
:102B6000A004C8010E94DF0480E061E00E94EF043D
:102B70008E2D63E00E94DC0C0E94DF0487E291E06E
:102B80000E94DF0443C08091CB028823E1F380914F
:102B9000CB02833019F1843028F4813041F0823047
:102BA00099F508C08430E9F0853071F52FC0109296
:102BB000CB022CC0FB1408F4F39480E061E00E9487
:102BC000EF04FE01EF0DF11DE4918E2F63E00E94F2
:102BD000DC0C0E94DF041092CB0218C01092CB02D2
:102BE00015C0F110FA9480E061E00E94EF04FE014C
:102BF000EF0DF11DE4918E2F63E00E94DC0C0E942A
:102C0000DF041092CB0202C01092CB028091CB0263
:102C1000853009F0B8CFC6010E940527F81651F09B
:102C20000E94A0048DEF90E00E94DF04C6016F2D8A
:102C30000E941327DF91CF911F910F91FF90EF908A
:102C4000DF90CF90BF900895EF92FF920F931F9364
:102C5000CF93DF93EC017B01042F1092CB02CB01C9
:102C60000E940527102F801708F4182F0E94A00437
:102C7000CE010E94DF0480E061E00E94EF04812F1A
:102C800063E00E94DC0C0E94DF0487E291E00E9476
:102C9000DF04C02FD0E05FC08091CB028823E1F336
:102CA0008091CB02833091F1843030F4813051F047
:102CB000823009F04EC01AC08430E1F1853009F04D
:102CC00048C049C0812F90E00A96C817D9070CF078
:102CD000165F80E061E00E94EF04812F63E00E94B4
:102CE000DC0C0E94DF041092CB0235C0101708F4F0
:102CF0001F5F80E061E00E94EF04812F63E00E948B
:102D0000DC0C0E94DF041092CB0225C0812F90E0E2
:102D10000997181619060CF41A5080E061E00E9419
:102D2000EF04812F63E00E94DC0C0E94DF0410920C
:102D3000CB0211C01111115080E061E00E94EF043C
:102D4000812F63E00E94DC0C0E94DF041092CB0212
:102D500002C01092CB028091CB02853009F09CCF4B
:102D6000C7010E940527181751F00E94A0048DEF9B
:102D700090E00E94DF04C701612F0E941327DF91BA
:102D8000CF911F910F91FF90EF9008950F931F9394
:102D900001E010E085E391E0B8014FE70E942416BE
:102DA000C8010E9405270E94F40984E491E060E0D4
:102DB00070E043E00E9424160E94EC120E940F0A69
:102DC00084E591E062E070E045E157E02FE00E9489
:102DD00098150E94E7120E94440A84E691E063E09D
:102DE00070E04AE50E94241686E791E064E070E016
:102DF0004AE50E94241681E891E065E070E048E031
:102E00000E9424160E940F158AE090E00E94052778
:102E10008093D2020E9490141F910F910895682F01
:102E200080E090E00E9413270895BF92CF92DF9236
:102E3000EF92FF920F931F93DF93CF9300D00F92E7
:102E4000CDB7DEB76C011B821A8220E00F2EFCE4A6
:102E5000EF2EF4E0FF2EF02DBB24B3942EC0809112
:102E6000B402F701E80FF11D908199838F5F809381
:102E7000B4028981803209F189818033C8F0898167
:102E80008A33B0F40A811B8189810E94E70E980180
:102E9000220F331F000F111F000F111F000F111FF2
:102EA000200F311F280F311D3B832A832B2D05C096
:102EB00082EA90E00E94032618C08091B402F701D4
:102EC000E80FF11D80818D3051F6222329F48FE027
:102ED00094E00E94132609C06A817B81C6010E948A
:102EE00020278DE990E00E9403260F900F900F900D
:102EF000CF91DF911F910F91FF90EF90DF90CF90D6
:102F0000BF90089588E290E00E941517089586E228
:102F100090E00E941517089584E290E00E94151732
:102F2000089582E290E00E941517089580E290E0F3
:102F30000E94151708958EE190E00E9415170895DC
:102F40008CE190E00E94151708958AE190E00E94BC
:102F50001517089588E190E00E941517089586E1FD
:102F600090E00E941517089584E190E00E941517E3
:102F7000089582E190E00E94151708956F927F9264
:102F80009F92AF92BF92CF92DF92EF92FF920F93F8
:102F90001F93DF93CF9300D00F92CDB7DEB73C01E4
:102FA0005B016A011B821A8220E00F2EFCE4EF2EE7
:102FB000F4E0FF2EF02D992493942EC08091B4025A
:102FC000F701E80FF11D908199838F5F8093B40220
:102FD0008981803209F189818033C8F089818A33FF
:102FE000B0F40A811B8189810E94E70E9801220FAB
:102FF000331F000F111F000F111F000F111F200F93
:10300000311F280F311D3B832A83292D05C081E5FF
:1030100094E00E94132627C08091B402F701E80FC4
:10302000F11D80818D3051F6222329F48FE094E048
:103030000E94132618C08A819B81C816D90628F0E1
:103040008A819B818A159B0528F482E394E00E9483
:10305000132609C06A817B81C3010E9420278DE964
:1030600090E00E9403260F900F900F90CF91DF9178
:103070001F910F91FF90EF90DF90CF90BF90AF9096
:103080009F907F906F90089588E090E064E971E1EF
:1030900048EC5FEA0E94BE17089586E090E060E089
:1030A00070E048EC5FEA0E94BE17089581E090E06E
:1030B0000E94052788232CF481E090E060E00E94C4
:1030C000132780E090E00E940527843028F080E0FC
:1030D00090E060E00E94132782E090E00E940527C4
:1030E000803128F082E090E065E00E94132783E0C1
:1030F00090E00E9405278B3528F083E090E06EE198
:103100000E94132784E090E00E9405278B3528F069
:1031100084E090E06FE00E94132785E090E00E9439
:103120000527893028F085E090E061E00E941327B0
:1031300086E090E060EA7FE00E94202788E090E04F
:1031400068EB7BE00E9420278AE090E00E94052740
:10315000803459F08AE090E00E940527803829F0F9
:103160008AE090E060E40E9413278AE290E00E94E7
:103170000527823028F08AE290E061E00E94132760
:1031800008950E9456188FEF9FEF90932F0380931E
:103190002E039093C8028093C7021092CA0281E066
:1031A00090E00E9405270E94F4090E94EC120E9400
:1031B0000F0A0E94E7120E94440A84E090E00E94F5
:1031C00005278093D8021092DF021092DE02E9E018
:1031D000F3E08CEA90E0918380837E9611821082E6
:1031E000109248031092D50210924A03109249039C
:1031F0001092DC0288E08093320384E690E09093A2
:103200002C0380932B03A8EFB2E0FD011182108202
:103210003296808181608083FD0133961182108215
:1032200015968C9181608C931092D1021092D002ED
:103230001092C90210922903109242038AE090E092
:103240000E9405278093D202109208031092D402A4
:103250001092D302109240031092DD0210923F03AD
:1032600010923E0308950E94F42582E794E00E94A4
:1032700013268DE990E00E9403260895DF92EF92D5
:10328000FF920F931F93DF93CF9300D00F92CDB790
:10329000DEB71B821A8220E00F2EFCE4EF2EF4E052
:1032A000FF2EF02DDD24D3942EC08091B402F701BF
:1032B000E80FF11D908199838F5F8093B40289811B
:1032C000803209F189818033C8F089818A33B0F472
:1032D0000A811B8189810E94E70E9801220F331F0A
:1032E000000F111F000F111F000F111F200F311FA2
:1032F000280F311D3B832A832D2D05C082EA90E0E3
:103300000E94032642C08091B402F701E80FF11D2C
:1033100080818D3051F6222329F48FE094E00E94C1
:10332000132633C08A819B818150924028F082E32A
:1033300094E00E94132629C00E94F4256A817B81B3
:103340007695762F6627779567958CE493E040E82D
:1033500050E00E942B088823A1F000E010E00F2E1F
:10336000FCE4EF2EF3E0FF2EF02DF701E00FF11F4C
:1033700080810E94FB250F5F1F4F00381105A9F7C0
:1033800004C083E991E00E9403260F900F900F90F4
:10339000CF91DF911F910F91FF90EF90DF900895F3
:1033A0004F925F926F927F928F929F92AF92BF9255
:1033B000CF92DF92EF92FF920F931F93DF93CF9301
:1033C000CDB7DEB7A2970FB6F894DEBF0FBECDBF64
:1033D000EE24FF2420E030E00F2EF1E94F2EF3E041
:1033E0005F2EF02D00E00F2EF3E0CF2EDD24F02D28
:1033F000CC0EDD1EC6017C2C692E0F2EFCE48F2E18
:10340000F4E09F2EF02DC901880F991FF201E80FFB
:10341000F91F25913491A901F9018491882311F4B0
:10342000102F0FC0102FFA018491F601E10FF11D4A
:1034300080831F5F2F5F3F4FA901F901849188238B
:1034400091F78091B4026091B5029401280F311D6B
:10345000C901702F472D562D212F302F0E94DF26B6
:103460005C018091B4026091B502F401E80FF11D96
:10347000CF01702F472D562D212F302F0E94DF2690
:10348000892BB9F0C5018C5494409A83898320918B
:10349000B40289819A81280F210F2093B402809170
:1034A000B50229813A81811B821B8093B5028E2D42
:1034B0000AC00894E11CF11C9701FFE2EF16F10429
:1034C00009F0A1CF8FEFA2960FB6F894DEBF0FBE22
:1034D000CDBFCF91DF911F910F91FF90EF90DF90C3
:1034E000CF90BF90AF909F908F907F906F905F90A4
:1034F0004F900895EAE2F0E080818F7780830E9408
:10350000D019E82FF0E0EF32F10508F095C0E65D44
:10351000FF4FEE0FFF1F0590F491E02D09940E94DC
:1035200089148EC00E94D9128BC00E94331988C0A2
:103530000E94981385C00E94CB1282C00E94DE11A7
:103540007FC00E943E197CC00E94B91779C00E94BA
:10355000D91176C00E94B41773C00E94D41170C0F4
:103560000E94AF176DC00E94CF116AC00E94AA17B7
:1035700067C00E94CA1164C00E94A51761C00E9462
:10358000C5115EC00E94A0175BC00E94C01158C048
:103590000E949B1755C00E94BB1152C00E949617F3
:1035A0004FC00E94B6114CC00E94911749C00E94A2
:1035B000B11146C00E948C1743C00E94AC1140C09C
:1035C0000E9487173DC00E94A7113AC00E9482172F
:1035D00037C00E94A21134C00E940E1131C00E9457
:1035E00007112EC00E9482142BC00E94BD1228C059
:1035F0000E947B1425C00E94AF1222C00E94231398
:103600001FC00E9499121CC00E94741419C00E940D
:103610008B1216C00E946D1413C00E947D1210C040
:103620000E944D180DC00E94F9100AC00E94441853
:1036300007C00E94EB1004C08FEE93E00E94132697
:10364000109208030E94502608952F923F924F92A5
:103650005F926F927F928F929F92AF92BF92CF9222
:10366000DF92EF92FF920F931F93DF93CF9300D0DF
:10367000CDB7DEB785E089830E94A0040E940205D1
:103680008BE090E00E940527882339F08BE090E0E2
:103690000E9405278F3F09F00DC11092CB028DEAE1
:1036A00091E00E94DF0480E061E00E94EF048DEB76
:1036B00091E00E94DF040F2EFBE0EF2EF0E0FF2EE2
:1036C000F02DCC24DD240F2EF7EBAF2EF2E0BF2E31
:1036D000F02D0F2EF9ED6F2EF1E07F2EF02D0F2E35
:1036E000FEEC4F2EF1E05F2EF02D0F2EFDEA2F2E77
:1036F000F1E03F2EF02D0F2EFDEB8F2EF1E09F2EEF
:10370000F02D70C080910803882341F48091CB0292
:10371000882321F48091BF028823A1F380910803BC
:10372000882311F00E947A1A8091BF02813031F112
:10373000823009F04DC00E94A0040E940205C2011F
:103740000E94DF04D092D702C092D6028091D602A6
:103750009091D70280579741C8F30E94A0040E941D
:103760000205C1010E94DF0480E061E00E94EF04D5
:10377000C4010E94DF041092BF022AC06091C002FF
:10378000C7010E941327C601F501E80FF91F6081E8
:103790008C010F5F1F4FC701800F911F0E941327DD
:1037A000C8010630110581F70E94A0040E9402059D
:1037B000C3010E94DF04D092D702C092D60280914A
:1037C000D6029091D70280579741C8F31092BF025A
:1037D0008091CB028530B1F08091CB02853011F021
:1037E0001092CB028091CB02853031F0C7010E944C
:1037F0000527882309F486CFC7010E9405278F3F3C
:1038000009F480CF8091CB02853009F03EC0109240
:10381000CB020E94A0040E9402058AEE91E00E9461
:10382000DF048981882359F18091CB02882339F5FF
:103830001092D7021092D6028091D6029091D702B0
:103840008057974120F48091CB028823A9F380917F
:10385000CB028823A1F48EE061E00E94EF0489810D
:1038600081508983898160E00E94DC0C0E94DF0422
:103870008981882321F08091CB028823C9F280912D
:10388000CB02853011F40E94C6161092DF0210920E
:10389000DE02EBE3F0E080818160808384E090E0F1
:1038A0000E9405278093D8021092CB0210922D031C
:1038B0001092BF028BE090E00E940527882309F454
:1038C00034C18BE090E00E9405278F3F09F42DC1A1
:1038D0001A820BE012E00F2EFDE2CF2EF2E0DF2E77
:1038E000F02D992493940F2EF6E2AF2EF2E0BF2E26
:1038F000F02D0F2EFEECEF2EF1E0FF2EF02D5FC02D
:103900000E94A0040E940205C8010E94DF04809169
:103910000803882321F48091BF028823C1F380919A
:103920000803882311F00E947A1A8091BF02813027
:10393000C1F0823009F043C00E94A0040E94020539
:10394000C7010E94DF041092D7021092D602809124
:10395000D6029091D70280579741C8F31092BF02C8
:103960002EC00E94F1128823B1F09A820E94A00416
:103970000E940205C5010E94DF041092D702109236
:10398000D6028091D6029091D70280579741C8F312
:103990001092BF0214C00E94A0040E940205C6013A
:1039A0000E94DF041092D7021092D6028091D602B4
:1039B0009091D70280579741C8F31092BF028A8135
:1039C000882309F49DCF0E94A0040E940205109252
:1039D000CB0210922D031092BF0289E392E00E9465
:1039E000DF048981882399F18091BF02882379F5CA
:1039F0008091CB02882359F51092D7021092D602FB
:103A00008091D6029091D7028057974120F48091FF
:103A1000CB028823A9F38091CB028823C1F48EE0E6
:103A200061E00E94EF04898181508983898160E08F
:103A30000E94DC0C0E94DF048981882341F0809180
:103A4000BF02882321F48091CB028823A9F28091C0
:103A5000BF02813049F1823009F054C00E94A004B5
:103A60000E9402058EEC91E00E94DF041092D702C2
:103A70001092D6028091D6029091D702805797413A
:103A8000C8F30E94A0040E94020586E592E00E940D
:103A9000DF0480E061E00E94EF0483E692E00E9490
:103AA000DF041092BF022EC00E94F112882329F079
:103AB0000E94C6161092BF0225C00E94A0040E9458
:103AC00002058DE292E00E94DF041092D70210926C
:103AD000D6028091D6029091D70280579741C8F3C1
:103AE0000E94A0040E94020586E592E00E94DF0485
:103AF00080E061E00E94EF0483E692E00E94DF0430
:103B00001092BF021092DF021092DE02EBE3F0E0AF
:103B100080818160808384E090E00E94052780930B
:103B2000D8021092CB0210922D030F900F90CF91DC
:103B3000DF911F910F91FF90EF90DF90CF90BF909A
:103B4000AF909F908F907F906F905F904F903F903D
:103B50002F9008952F923F924F925F926F927F9293
:103B60008F929F92AF92BF92CF92DF92EF92FF928D
:103B70000F931F93CF93DF930E9439090E949409FA
:103B80000E949E090E9407060E94FA0B0E94ED0BFC
:103B90000E94C1180E94C2050E94A0040E949B249A
:103BA0000E94930E0E94E225EAE2F0E080818068A4
:103BB00080838081806480830E94020780E69AEE81
:103BC0000197F1F780E792E00E94DF048CE792E032
:103BD0000E94DF0478948FEF809343031092D70202
:103BE0001092D6028091D6029091D702885E9340BF
:103BF000C8F38FEF809344031092D7021092D6023D
:103C00008091D6029091D702885E9340C8F38FEFDF
:103C1000809345031092D7021092D6028091D6026B
:103C20009091D702885E9340C8F38FEF809346034C
:103C30001092D7021092D6028091D6029091D702AC
:103C4000885E9340C8F38FEF80934B031092D702A6
:103C50001092D6028091D6029091D702885E93404E
:103C6000C8F3EBE3F0E08081816080831092D7029B
:103C70001092D6028091D6029091D702885E93402E
:103C8000C8F3E2E3F0E08081806180831092D70284
:103C90001092D6028091D6029091D702885E93400E
:103CA000C8F3E5E3F0E08081806280831092D70260
:103CB0001092D6028091D6029091D702885E9340EE
:103CC000C8F30E941B051092D7021092D602809171
:103CD000D6029091D702885E9340C8F30E942305D4
:103CE0001092D7021092D6028091D6029091D702FC
:103CF000885E9340C8F3109243031092D70210924B
:103D0000D6028091D6029091D702885E9340C8F384
:103D1000109244031092D7021092D6028091D602DC
:103D20009091D702885E9340C8F310924503109299
:103D3000D7021092D6028091D6029091D702885E67
:103D40009340C8F3109246031092D7021092D60205
:103D50008091D6029091D702885E9340C8F3E5E344
:103D6000F0E080818F7D80831092D7021092D6027E
:103D70008091D6029091D702885E9340C8F3EBE31E
:103D8000F0E080818E7F80831092D7021092D6025D
:103D90008091D6029091D702885E9340C8F3E2E307
:103DA000F0E080818F7E80831092D7021092D6023D
:103DB0008091D6029091D702885E9340C8F310920A
:103DC000D7021092D6028091D6029091D702885ED7
:103DD0009340C8F3809132030E94270C88EE93E051
:103DE00063E070E040E80E945B0C8CE892E00E9487
:103DF000032685E992E00E94032682EF90E00E946C
:103E0000132683E091E00E94132684E190E00E9453
:103E10000D2764E670E00E94CB268AE590E0FC0165
:103E20006E9FC0016F9F900D7E9F900D1124909307
:103E30003403809333031092CB020E94270E10921A
:103E4000D7021092D6028091D6029091D702885E56
:103E50009340C8F30F2EF0EFBF2EF02D0F2EF4E19C
:103E60008F2EF0E09F2EF02D6624772463940F2E82
:103E7000F3E02F2EF0E03F2EF02DEE24FF240F2E46
:103E8000F5E0CF2EF0E0DF2EF02D0F2EFBE34F2ECE
:103E90005524F02D0CE413E0AA24A3948091D302BE
:103EA0009091D402892B11F40E943D108091C90297
:103EB00080914103882319F4B0924B0306C080918E
:103EC0004B03803F11F410924B0380912D03882304
:103ED000B1F1813091F58091DE029091DF02892B62
:103EE00009F18091DE029091DF0201979093DF0249
:103EF0008093DE028091D3029091D402029740F029
:103F00007092D4026092D302809140038823E1F73B
:103F1000C4010E940D279093D4028093D3020E9483
:103F2000E40908C08091D3029091D402892B11F446
:103F30000E94CA0F10922D0302C010922D0380918F
:103F40003003882309F43FC08130D9F58091D8022D
:103F50008823A1F18091D3029091D402892B71F52D
:103F60000E9403108091D80281508093D802C10131
:103F70000E94052790E09093DF028093DE020E946A
:103F8000830E0E94710EE7010CC0F092D702E092FE
:103F9000D6028091D6029091D70280549F41C8F3F7
:103FA0002196C6010E94052790E0C817D9076CF337
:103FB0000E94EE0FF20180818E7F80831092300389
:103FC00002C0109230038091B2028823C1F0809128
:103FD000B2028823A1F09091B002F801E90FF11D1F
:103FE00080819F5F9093B0020E94FB258091B20276
:103FF00081508093B2028091B202882361F7809150
:10400000CB028330F1F0843028F4813041F08230EB
:1040100009F514C08430C1F08530E1F418C08091F6
:104020004203882319F0813031F403C0A092420387
:1040300002C0109242031092CB020EC01092CB022B
:104040000BC01092CB0208C01092CB0205C0109298
:10405000CB0202C01092CB0280912903882309F47D
:104060001DCF0E94710E80912903815080932903F6
:1040700015CFDF93CF9300D0CDB7DEB7809140034B
:10408000882349F482E190E00E94052790E00E9495
:10409000B908809340038091D3029091D402019794
:1040A00039F4CE0101960E9420091092400304C009
:1040B000CE0101960E940E092091D3023091D402C4
:1040C00080913303909134032817390781F50E94BA
:1040D000560C813061F5B29B02C01A8202C081E0A9
:1040E0008A838A81813019F5809132038823F9F01F
:1040F0008091DE029091DF02892BC9F08091DE026F
:104100009091DF0201979093DF028093DE020E947C
:10411000E409CE0101960E9420091092400384E137
:1041200090E00E940D279093D4028093D30289815E
:104130000F900F90CF91DF9108951F920F920FB6BD
:104140000F9211242F933F934F935F936F937F931D
:104150008F939F93AF93BF93EF93FF93DF93CF938F
:104160000F92CDB7DEB7E9E5F0E080818F7E8083E6
:1041700078948091DE029091DF02892BC9F08091C2
:10418000D3029091D402892B99F00E9439208CBFE0
:104190008091D3029091D402019709F41CBE8091C2
:1041A000D3029091D40201979093D4028093D302CA
:1041B0008091DE029091DF02892BF1F4EBE3F0E0D5
:1041C0008081816080838091D3029091D402892B79
:1041D00099F00E9439208CBF8091D3029091D40233
:1041E000019709F41CBE8091D3029091D4020197EB
:1041F0009093D4028093D3028091AD029091AE024D
:104200002091AD023091AE0264E670E00E94CB26B0
:1042100084E690E0AC01649FC001659F900D749F9F
:10422000900D11248217930709F0ADC080913A03D5
:1042300090913B03019690933B0380933A038091C6
:104240002D03882309F049C0B29B02C0198202C025
:1042500081E089838981882319F08130D1F51AC0E2
:104260008091F8029091F902049750F0E8EFF2E0A3
:1042700011821082329680818E7F808381E02BC0F4
:10428000E8EFF2E0118210823296808181608083B3
:1042900080E021C08091F8029091F902049750F0DB
:1042A000E8EFF2E011821082329680818E7F808367
:1042B00081E011C0A8EFB2E0FD01819191912081D0
:1042C0002170820F911D11969C938E9380912D03E6
:1042D00002C080912D0380932D03809130038823A9
:1042E00009F049C0B09B02C0198202C081E08983F5
:1042F0008981882319F08130D1F51AC08091FB02A1
:104300009091FC02049750F0EBEFF2E011821082E2
:10431000329680818E7F808381E02BC0EBEFF2E0CC
:1043200011821082329680818160808380E021C07A
:104330008091FB029091FC02049750F0EBEFF2E0C9
:1043400011821082329680818E7F808381E011C03D
:10435000ABEFB2E0FD018191919120812170820F3C
:10436000911D11969C938E938091300302C0809191
:104370003003809330038091CB02882321F40E9484
:10438000FE248093CB028091AD029091AE02019603
:104390009093AE028093AD028091AD029091AE02F7
:1043A000895E934008F465C01092AE021092AD028F
:1043B0009091430380919F02892331F4E5E3F0E07B
:1043C0008081877F808305C0E5E3F0E0808188609D
:1043D00080839091440380919F02892331F4E5E327
:1043E000F0E080818F7E808305C0E5E3F0E080818E
:1043F000806180839091450380919F02892331F4ED
:10440000E5E3F0E080818B7F808305C0E5E3F0E0A9
:104410008081846080839091460380919F028923EC
:1044200031F4E2E3F0E080818F77808305C0E2E33E
:10443000F0E080818068808390914B0380919F029F
:10444000892331F4E5E3F0E080818F7D808305C02E
:10445000E5E3F0E080818062808380919F02880F95
:1044600080939F0280919F02882319F481E08093BA
:104470009F0280913E0390913F03892B79F0E2E304
:10448000F0E080818061808380913E0390913F03C2
:10449000019790933F0380933E0305C0E2E3F0E071
:1044A00080818F7E808380913103882329F08091E1
:1044B0002A038CBF1092310382991BC08091D002D5
:1044C0009091D102805A9F4048F48091D0029091FF
:1044D000D10201969093D1028093D0028091D002B4
:1044E0009091D102805A9F4070F081E08093C90280
:1044F0000AC01092D1021092D0028091C902882382
:1045000011F01092C902859903C01092410307C0AF
:1045100080914103882319F481E0809341038091C5
:10452000D6029091D70201969093D7028093D6023B
:10453000F894E9E5F0E08081806180830F90CF916D
:10454000DF91FF91EF91BF91AF919F918F917F91FB
:104550006F915F914F913F912F910F900FBE0F90F0
:104560001F9018951F920F920FB60F9211242F9340
:104570003F934F935F936F937F938F939F93AF93EB
:10458000BF93EF93FF93DF93CF930F92CDB7DEB737
:1045900081E08093DB02198289818F5F89830E9489
:1045A00084060F90CF91DF91FF91EF91BF91AF9172
:1045B0009F918F917F916F915F914F913F912F913B
:1045C0000F900FBE0F901F9018951F920F920FB66D
:1045D0000F9211242F933F934F935F936F937F9389
:1045E0008F939F93AF93BF93EF93FF9380B38470A8
:1045F0008093AF028091AF02882351F48091CC0266
:104600009091CD0201969093CD028093CC0243C04D
:1046100080913C0390913D03019690933D038093DC
:104620003C038091D502882321F180913C03909135
:104630003D0389559140E8F01092D50280914903DD
:1046400090914A030D9738F081E08093DC0284E773
:104650000E94FB2503C082E08093DC021092DD0201
:104660008091CA02882329F4E9E5F0E080818F7700
:10467000808380913C0390913D038955914058F08F
:104680008091CA02882339F41092DD02E9E5F0E056
:1046900080818F7780838091CA02813009F06EC05B
:1046A0008091CE029091CF02892B89F0E5E3F0E072
:1046B00090818091D202892780838091CE0290914F
:1046C000CF0201979093CF028093CE0257C0E5E3CB
:1046D000F0E080818F7B808380818F7780838091E1
:1046E0003503909136031816190684F480818F7B68
:1046F000808380818F77808380913503909136030A
:104700000197909336038093350338C0E0914803B6
:10471000F0E0EE0FFF1FE75FFC4F80819181892B56
:10472000C1F020914803E22FF0E0EE0FFF1FE75F9A
:10473000FC4F808191819093CF028093CE022F5FB6
:10474000209348038BE290E09093360380933503E7
:1047500015C01092CA02E5E3F0E080818F7D80836E
:10476000809129038F5F809329038091DD02882344
:1047700029F4E9E5F0E080818F778083FF91EF9164
:10478000BF91AF919F918F917F916F915F914F9169
:104790003F912F910F900FBE0F901F9018951F9271
:1047A0000F920FB60F9211242F933F934F935F9365
:1047B0006F937F938F939F93AF93BF93EF93FF93E9
:1047C000E9E5F0E080818068808381E08093DD020C
:1047D00005B600FC2AC0E5E5F0E0808181608083B9
:1047E0008091D5028823C1F080913C0390913D03D4
:1047F000C99730F480913C0390913D034E9760F44B
:104800001092D50210924A031092490382E08093DD
:10481000DC0285E60E94FB251092CD021092CC02AC
:1048200010923D0310923C0375C0E5E5F0E08081F5
:104830008E7F80838091D502882309F44BC08091BC
:10484000CC029091CD02C997C0F48091CC02909196
:10485000CD024E9790F08091490390914A039C01BC
:104860002F5F3F4F30934A032093490360E00E943B
:10487000B10980E30E94FB2545C08091CC02909154
:10488000CD0284369105C8F48091CC029091CD027E
:104890008934910590F08091490390914A039C01DD
:1048A0002F5F3F4F30934A032093490361E00E94FA
:1048B000B10981E30E94FB2525C01092D502109218
:1048C0004A031092490382E08093DC0285E60E944D
:1048D000FB2518C08091CC029091CD028A3B9105B6
:1048E00088F48091CC029091CD028F39910550F0DF
:1048F00010924A031092490381E08093D50288E622
:104900000E94FB251092CD021092CC0210923D0322
:1049100010923C03FF91EF91BF91AF919F918F91C6
:104920007F916F915F914F913F912F910F900FBEAB
:104930000F901F901895AAE3B0E08C91877F8C931D
:10494000EBE3F0E08081886080838C918B7F8C9397
:104950008081846080838C918F7D8C938081806244
:1049600080838C918F7B8C938081806480838C91F9
:104970008F7E8C93808180618083AFEDB2E0FD01FA
:10498000118210823296808181608083FD0133968E
:1049900011821082FD013596808181608083FD0146
:1049A000369611821082FD01389680818160808365
:1049B000FD01399611821082FD013B968081816054
:1049C0008083FD013C96118210821E968C9181603D
:1049D0008C930895E9E3F0E080818695869586952D
:1049E0008095982F9170808182FF9260CD9B94601A
:1049F000CE9B9860CC9B9061892F08950E94EA24F9
:104A0000823091F1833038F4882309F4A9C08130D1
:104A100009F0AAC00AC0883009F464C0803109F4E2
:104A200080C0843009F0A0C03EC08091DF02909128
:104A3000E002049750F0EFEDF2E01182108232961E
:104A400080818E7F808381E00895AFEDB2E0FD012B
:104A50008191919120812170820F911D11969C93DB
:104A60008E938091CB0208958091E2029091E302AF
:104A7000049750F0E2EEF2E01182108232968081CB
:104A80008E7F808382E00895A2EEB2E0FD018191E5
:104A9000919120812170820F911D11969C938E938C
:104AA0008091CB0208958091E5029091E6020497EF
:104AB00050F0E5EEF2E011821082329680818E7F16
:104AC000808383E00895A5EEB2E0FD01819191918C
:104AD00020812170820F911D11969C938E9380915D
:104AE000CB0208958091E8029091E902049750F07A
:104AF000E8EEF2E011821082329680818E7F808310
:104B000084E00895A8EEB2E0FD01819191912081A9
:104B10002170820F911D11969C938E938091CB02F0
:104B200008958091EB029091EC02049750F0EBEE27
:104B3000F2E011821082329680818E7F808385E040
:104B40000895ABEEB2E0FD01819191912081217039
:104B5000820F911D11969C938E938091CB020895A4
:104B60000E949B2480E00895AFEDB2E0FD01118228
:104B70001082329680818E7F8083FD013396118270
:104B80001082FD01359680818E7F8083FD013696EF
:104B900011821082FD01389680818E7F8083FD0115
:104BA000399611821082FD013B9680818E7F808331
:104BB000FD013C96118210821E968C918E7F8C9303
:104BC00080E00895A0E4B0E01C9287E689B9EBE2AA
:104BD000F0E080818D7F808388E98AB986E88C93B4
:104BE00008958091B20208951092B0021092B1021D
:104BF0001092B2020895982FEBE2F0E0808185FFD9
:104C0000FDCF9CB90895CF93DF93FC018081882369
:104C100039F0EF010E94FB25898121968823D1F785
:104C2000DF91CF910895CF93DF93FC018491882386
:104C300049F0EF0121960E94FB25FE012196849107
:104C40008823C9F7DF91CF9108951F920F920FB675
:104C50000F9211248F93EF93FF938091B2028823D8
:104C6000A1F08091B102ECE4F3E0E80FF11D808146
:104C70008CB98091B20281508093B2028091B102CE
:104C80008F5F8093B1028091B102FF91EF918F917C
:104C90000F900FBE0F901F9018958091B502089548
:104CA000EAE2F0E080818F7780831092B302109265
:104CB000B4021092B502808180688083089580914B
:104CC000B502882311F4E0E013C08091B402ECE453
:104CD000F4E0E80FF11DE0818091B50281508093EE
:104CE000B5028091B4028F5F8093B4028091B402C8
:104CF0008E2F08951F920F920FB60F9211248F934B
:104D00009F93AF93BF93EF93FF938091B5028091F0
:104D1000B3029CB1ECE4F4E0DF01A80FB11D9C9359
:104D20008091B302E80FF11DE081ED3019F0E1331D
:104D300079F404C081E0809308030AC080913E03A7
:104D400090913F03845D9E4F90933F0380933E0379
:104D50008091B3028F5F8093B3028091B302809100
:104D6000B5028F5F8093B502FF91EF91BF91AF9134
:104D70009F918F910F900FBE0F901F901895991BC8
:104D800079E004C0991F961708F0961B881F7A9542
:104D9000C9F780950895AA1BBB1B51E107C0AA1F44
:104DA000BB1FA617B70710F0A61BB70B881F991FCC
:104DB0005A95A9F780959095BC01CD0108952115CC
:104DC000310511F11F930F93240F351F680F791FC1
:104DD000FA011191AF01DC01A617B70780F40D911C
:104DE0000117D1F7CD01FA01E217F30750F4A61726
:104DF000B70728F40D9101900015B1F3ECCF81E0D5
:104E000090E001970F911F910895E199FECF9FBB0C
:104E10008EBBE09A99278DB30895A8E1B0E042E0F7
:104E200050E00C942727262FE199FECF9FBB8EBB25
:104E30002DBB0FB6F894E29AE19A0FBE0196089541
:104E40000E941327272F0C941427DC01CB01FC01AF
:104E5000E199FECF06C0FFBBEEBBE09A31960DB2E2
:0E4E60000D9241505040B8F70895F894FFCFDE
:104E6E00E6E8E7EDFC3A2000252000EFE0F2F03A0C
:104E7E002000EC3A200020002520202000D3F0EE68
:104E8E00ED20002520EDE0EDE5F100E8E32E200019
:104E9E0020EAEEEC2E2000202020002C004F4B0D9F
:104EAE000A004552524F520A0D000D0A4F4B0D0A81
:104EBE00004552524F523A656570726F6D2077728F
:104ECE00697465206572726F720D0A004552524FF9
:104EDE00520D0A0030003100C4F0F3E6E5F1F2E2C3
:104EEE002E20EEE3EEEDFC3A00C4E02000CDE5F21C
:104EFE000020F6E5ED2EEAED2E2D4F4B00D1EEF50E
:104F0E00F0E0EDE5EDE8E52E2E2E00CCEEF9EDEE1F
:104F1E00F1F2FC20C8CA20E4EBFF00F3EBE8F6FB4D
:104F2E0000EFEEECE5F90020F6E5EDF2F02EEAEDFD
:104F3E002E2D4F4B00C8E4E5EDF22E20E8E3F0EE07
:104F4E00EAE03A00C8E4E5EDF22E20EAEEECE0ED00
:104F5E00E4FB3A00CDE0EDEEF1E8ECFBE920F3F0F6
:104F6E00EEED3A00C5ECEAEEF1F2FC20ECE0E3E007
:104F7E00E7E8EDE03A00CCE0E3E0E7E8EDEEE23A18
:104F8E0000C2F0E5ECFF20EFE5F0E5E7E0F0FFE42E
:104F9E00E03A004552524F523A656570726F6D207D
:104FAE0072656164206572726F720D0A00C7E0EF60
:104FBE00E8F1FC20EAEBFEF7E020D2CC00D6E5EDDE
:104FCE00F2F02EEAED2E2DEEF2ECE5EDE000CEF84D
:104FDE00E8E1EAE02043524300CAEBFEF720D2CCD0
:104FEE0020E7E0EFE8F1E0ED2100C4EBFF20EDE07B
:104FFE00F1F2F0EEE5EA20E6ECE80AF6E5EDF2F085
:10500E002E20EAEDEEEFEAF3203500C4EBFF20E0B0
:10501E00EAF2E8E2E0F6E8E80AEFF0E8EBEEE6E8BE
:10502E0020EAEBFEF700D3E4E0F7E82100CDE5201F
:10503E00F2EEF220EAEBFEF700C4EBFF20EDE0F11A
:10504E00F2F0EEE5EA0AEFF0E8EBEEE6E820EAEB46
:10505E00FEF720203500C4EBFF20EDE0F1F2F0EE7C
:10506E00E5EA00EFF0E8EBEEE6E820EAEBFEF7000B
:10507E004C5441736365746963200A007777772E09
:10508E006F70656E2D7461672E72750048656C6C5D
:10509E006F210A0D00CFF0E8E2E5F2210A0D0001C2
:00000001FF
